{
  "contractName": "AreaGovernanceCommittee",
  "abi": [
    {
      "inputs": [
        {
          "internalType": "address",
          "name": "nodeAddress",
          "type": "address"
        },
        {
          "internalType": "address",
          "name": "core",
          "type": "address"
        },
        {
          "internalType": "address",
          "name": "voteIdAddr",
          "type": "address"
        }
      ],
      "stateMutability": "nonpayable",
      "type": "constructor"
    },
    {
      "anonymous": false,
      "inputs": [
        {
          "indexed": true,
          "internalType": "address",
          "name": "_core",
          "type": "address"
        }
      ],
      "name": "CoreUpdate",
      "type": "event"
    },
    {
      "anonymous": false,
      "inputs": [
        {
          "indexed": false,
          "internalType": "uint256",
          "name": "id",
          "type": "uint256"
        },
        {
          "indexed": false,
          "internalType": "uint256",
          "name": "adreaId",
          "type": "uint256"
        },
        {
          "indexed": false,
          "internalType": "uint256",
          "name": "creationTime",
          "type": "uint256"
        }
      ],
      "name": "cityGovernanceCreate",
      "type": "event"
    },
    {
      "inputs": [],
      "name": "Ip",
      "outputs": [
        {
          "internalType": "contract IParliament",
          "name": "",
          "type": "address"
        }
      ],
      "stateMutability": "view",
      "type": "function"
    },
    {
      "inputs": [],
      "name": "Rbt",
      "outputs": [
        {
          "internalType": "contract IERC20",
          "name": "",
          "type": "address"
        }
      ],
      "stateMutability": "view",
      "type": "function"
    },
    {
      "inputs": [],
      "name": "cityGov",
      "outputs": [
        {
          "internalType": "address",
          "name": "",
          "type": "address"
        }
      ],
      "stateMutability": "view",
      "type": "function"
    },
    {
      "inputs": [
        {
          "internalType": "uint256",
          "name": "",
          "type": "uint256"
        }
      ],
      "name": "cityGovernances",
      "outputs": [
        {
          "internalType": "uint256",
          "name": "id",
          "type": "uint256"
        },
        {
          "internalType": "uint256",
          "name": "areaId",
          "type": "uint256"
        },
        {
          "internalType": "address",
          "name": "manager",
          "type": "address"
        },
        {
          "internalType": "uint256",
          "name": "creationTime",
          "type": "uint256"
        },
        {
          "internalType": "uint256",
          "name": "proposalBlockNumber",
          "type": "uint256"
        },
        {
          "internalType": "address",
          "name": "cfm",
          "type": "address"
        }
      ],
      "stateMutability": "view",
      "type": "function"
    },
    {
      "inputs": [
        {
          "internalType": "bytes32",
          "name": "",
          "type": "bytes32"
        }
      ],
      "name": "cityGovernancesBonus",
      "outputs": [
        {
          "internalType": "uint256",
          "name": "",
          "type": "uint256"
        }
      ],
      "stateMutability": "view",
      "type": "function"
    },
    {
      "inputs": [],
      "name": "cityNode",
      "outputs": [
        {
          "internalType": "contract ICityNode",
          "name": "",
          "type": "address"
        }
      ],
      "stateMutability": "view",
      "type": "function"
    },
    {
      "inputs": [],
      "name": "core",
      "outputs": [
        {
          "internalType": "contract ICore",
          "name": "",
          "type": "address"
        }
      ],
      "stateMutability": "view",
      "type": "function"
    },
    {
      "inputs": [],
      "name": "global",
      "outputs": [
        {
          "internalType": "address",
          "name": "",
          "type": "address"
        }
      ],
      "stateMutability": "view",
      "type": "function"
    },
    {
      "inputs": [],
      "name": "govCount",
      "outputs": [
        {
          "internalType": "uint256",
          "name": "",
          "type": "uint256"
        }
      ],
      "stateMutability": "view",
      "type": "function"
    },
    {
      "inputs": [
        {
          "internalType": "uint256",
          "name": "",
          "type": "uint256"
        },
        {
          "internalType": "uint256",
          "name": "",
          "type": "uint256"
        },
        {
          "internalType": "uint256",
          "name": "",
          "type": "uint256"
        }
      ],
      "name": "parliamentApplyRecords",
      "outputs": [
        {
          "internalType": "address",
          "name": "account",
          "type": "address"
        },
        {
          "internalType": "uint256",
          "name": "tickets",
          "type": "uint256"
        }
      ],
      "stateMutability": "view",
      "type": "function"
    },
    {
      "inputs": [
        {
          "internalType": "address",
          "name": "",
          "type": "address"
        },
        {
          "internalType": "address",
          "name": "",
          "type": "address"
        }
      ],
      "name": "parliamentReward",
      "outputs": [
        {
          "internalType": "uint256",
          "name": "",
          "type": "uint256"
        }
      ],
      "stateMutability": "view",
      "type": "function"
    },
    {
      "inputs": [
        {
          "internalType": "uint256",
          "name": "",
          "type": "uint256"
        },
        {
          "internalType": "uint256",
          "name": "",
          "type": "uint256"
        },
        {
          "internalType": "address",
          "name": "",
          "type": "address"
        }
      ],
      "name": "parliamentUp",
      "outputs": [
        {
          "internalType": "bool",
          "name": "",
          "type": "bool"
        }
      ],
      "stateMutability": "view",
      "type": "function"
    },
    {
      "inputs": [
        {
          "internalType": "address",
          "name": "core",
          "type": "address"
        }
      ],
      "name": "setCore",
      "outputs": [],
      "stateMutability": "nonpayable",
      "type": "function"
    },
    {
      "inputs": [],
      "name": "voteIdAddress",
      "outputs": [
        {
          "internalType": "contract IVoteId",
          "name": "",
          "type": "address"
        }
      ],
      "stateMutability": "view",
      "type": "function"
    },
    {
      "inputs": [
        {
          "internalType": "address",
          "name": "globalGov",
          "type": "address"
        }
      ],
      "name": "setGlobalGov",
      "outputs": [],
      "stateMutability": "nonpayable",
      "type": "function"
    },
    {
      "inputs": [
        {
          "internalType": "uint256",
          "name": "areaGovId",
          "type": "uint256"
        },
        {
          "internalType": "address",
          "name": "sender",
          "type": "address"
        }
      ],
      "name": "inNode",
      "outputs": [
        {
          "internalType": "bool",
          "name": "",
          "type": "bool"
        }
      ],
      "stateMutability": "view",
      "type": "function"
    },
    {
      "inputs": [
        {
          "internalType": "uint256",
          "name": "id",
          "type": "uint256"
        },
        {
          "internalType": "uint256",
          "name": "area",
          "type": "uint256"
        }
      ],
      "name": "newGovernanceCommittee",
      "outputs": [],
      "stateMutability": "nonpayable",
      "type": "function"
    },
    {
      "inputs": [
        {
          "internalType": "uint256",
          "name": "id",
          "type": "uint256"
        }
      ],
      "name": "activeToParliaments",
      "outputs": [],
      "stateMutability": "nonpayable",
      "type": "function"
    },
    {
      "inputs": [
        {
          "internalType": "uint256",
          "name": "id",
          "type": "uint256"
        }
      ],
      "name": "getBlockNumber",
      "outputs": [
        {
          "internalType": "uint256",
          "name": "",
          "type": "uint256"
        }
      ],
      "stateMutability": "view",
      "type": "function"
    },
    {
      "inputs": [
        {
          "internalType": "uint256",
          "name": "id",
          "type": "uint256"
        }
      ],
      "name": "applyParliament",
      "outputs": [],
      "stateMutability": "nonpayable",
      "type": "function"
    },
    {
      "inputs": [
        {
          "internalType": "address",
          "name": "user",
          "type": "address"
        },
        {
          "internalType": "address",
          "name": "token",
          "type": "address"
        },
        {
          "internalType": "uint256",
          "name": "mold",
          "type": "uint256"
        },
        {
          "internalType": "uint256",
          "name": "amount",
          "type": "uint256"
        }
      ],
      "name": "operateUserReward",
      "outputs": [],
      "stateMutability": "nonpayable",
      "type": "function"
    },
    {
      "inputs": [
        {
          "internalType": "uint256",
          "name": "id",
          "type": "uint256"
        },
        {
          "internalType": "uint256",
          "name": "voteId",
          "type": "uint256"
        }
      ],
      "name": "getApplyParliament",
      "outputs": [
        {
          "internalType": "uint256",
          "name": "",
          "type": "uint256"
        }
      ],
      "stateMutability": "view",
      "type": "function"
    },
    {
      "inputs": [
        {
          "internalType": "uint256",
          "name": "id",
          "type": "uint256"
        }
      ],
      "name": "getApplyParliamentVoteId",
      "outputs": [
        {
          "internalType": "uint256",
          "name": "",
          "type": "uint256"
        }
      ],
      "stateMutability": "view",
      "type": "function"
    },
    {
      "inputs": [
        {
          "internalType": "uint256",
          "name": "id",
          "type": "uint256"
        }
      ],
      "name": "getCityNodeInfo",
      "outputs": [
        {
          "internalType": "bool",
          "name": "",
          "type": "bool"
        },
        {
          "internalType": "uint256",
          "name": "",
          "type": "uint256"
        },
        {
          "internalType": "address",
          "name": "",
          "type": "address"
        },
        {
          "internalType": "uint256",
          "name": "",
          "type": "uint256"
        }
      ],
      "stateMutability": "view",
      "type": "function"
    },
    {
      "inputs": [
        {
          "internalType": "uint256",
          "name": "nodeId",
          "type": "uint256"
        },
        {
          "internalType": "address",
          "name": "token",
          "type": "address"
        },
        {
          "internalType": "uint256",
          "name": "amount",
          "type": "uint256"
        },
        {
          "internalType": "address",
          "name": "receiver",
          "type": "address"
        },
        {
          "internalType": "uint256",
          "name": "impeach",
          "type": "uint256"
        }
      ],
      "name": "impeachExtract",
      "outputs": [],
      "stateMutability": "nonpayable",
      "type": "function"
    },
    {
      "inputs": [
        {
          "internalType": "uint256",
          "name": "nodeId",
          "type": "uint256"
        }
      ],
      "name": "parliamentInfo",
      "outputs": [
        {
          "internalType": "uint256",
          "name": "",
          "type": "uint256"
        },
        {
          "internalType": "bool",
          "name": "",
          "type": "bool"
        },
        {
          "internalType": "uint256",
          "name": "",
          "type": "uint256"
        }
      ],
      "stateMutability": "view",
      "type": "function"
    },
    {
      "inputs": [
        {
          "internalType": "uint256",
          "name": "nodeId",
          "type": "uint256"
        },
        {
          "internalType": "address",
          "name": "user",
          "type": "address"
        }
      ],
      "name": "removeParliament",
      "outputs": [],
      "stateMutability": "nonpayable",
      "type": "function"
    },
    {
      "inputs": [
        {
          "internalType": "uint256",
          "name": "nodeId",
          "type": "uint256"
        },
        {
          "internalType": "address",
          "name": "manager",
          "type": "address"
        }
      ],
      "name": "setManagerInfo",
      "outputs": [],
      "stateMutability": "nonpayable",
      "type": "function"
    },
    {
      "inputs": [
        {
          "internalType": "uint256",
          "name": "nodeId",
          "type": "uint256"
        },
        {
          "internalType": "uint256",
          "name": "voteId",
          "type": "uint256"
        },
        {
          "internalType": "uint256",
          "name": "index",
          "type": "uint256"
        }
      ],
      "name": "setParliament",
      "outputs": [],
      "stateMutability": "nonpayable",
      "type": "function"
    },
    {
      "inputs": [
        {
          "internalType": "uint256",
          "name": "nodeId",
          "type": "uint256"
        }
      ],
      "name": "parliamentTakeOffice",
      "outputs": [],
      "stateMutability": "nonpayable",
      "type": "function"
    },
    {
      "inputs": [
        {
          "internalType": "uint256",
          "name": "id",
          "type": "uint256"
        },
        {
          "internalType": "uint256",
          "name": "voteId",
          "type": "uint256"
        },
        {
          "internalType": "address",
          "name": "user",
          "type": "address"
        },
        {
          "internalType": "uint256",
          "name": "tickets",
          "type": "uint256"
        }
      ],
      "name": "voteToParliament",
      "outputs": [],
      "stateMutability": "nonpayable",
      "type": "function"
    },
    {
      "inputs": [
        {
          "internalType": "uint256",
          "name": "id",
          "type": "uint256"
        },
        {
          "internalType": "address",
          "name": "user",
          "type": "address"
        }
      ],
      "name": "hasParliament",
      "outputs": [
        {
          "internalType": "bool",
          "name": "",
          "type": "bool"
        }
      ],
      "stateMutability": "view",
      "type": "function"
    }
  ],
  "bytecode": "0x60806040523480156200001157600080fd5b5060405162004cee38038062004cee8339810160408190526200003491620000a1565b600080546001600160a01b039485166001600160a01b03199182168117909255600180548216909217909155600280549385169382169390931790925560038054919093169116179055620000ea565b80516001600160a01b03811681146200009c57600080fd5b919050565b600080600060608486031215620000b6578283fd5b620000c18462000084565b9250620000d16020850162000084565b9150620000e16040850162000084565b90509250925092565b614bf480620000fa6000396000f3fe60806040523480156200001157600080fd5b5060043610620002205760003560e01c80637c21f2b411620001295780638e96024611620000b1578063a605307e116200007b578063a605307e14620004bc578063b06904b714620004d3578063ed725ee514620004ea578063f2f4eb2614620005125762000220565b80638e960246146200047a57806399a723e41462000491578063a05f9906146200049b578063a575270d14620004a55762000220565b8063828a19b911620000f3578063828a19b9146200041e57806383d962061462000435578063845020b2146200044c5780638b7f0f9514620004635762000220565b80637c21f2b414620003ae5780638000963014620003c5578063807eb93d14620003dc57806381ffb4fc14620004075762000220565b80635ba8654811620001ad5780636da68ee711620001775780636da68ee7146200036c57806370ca09bc1462000383578063721bc7f6146200038d578063781e843614620003975762000220565b80635ba86548146200031b57806360d1c46e1462000325578063674b5a30146200034b5780636d9068b114620003555762000220565b806339dc0a8911620001ef57806339dc0a8914620002af57806350c0fbe414620002c657806351536cbc14620002dd57806359b4dd4014620003045762000220565b80630d53191e1462000225578063135b54dd146200023e578063249a40cd14620002605780632717d8261462000289575b600080fd5b6200023c6200023636600462001eab565b6200051c565b005b6200024862000677565b60405162000257919062001f54565b60405180910390f35b620002776200027136600462001d80565b620006fd565b60405162000257949392919062001fd3565b620002a06200029a36600462001e4e565b62000746565b60405162000257919062002193565b6200023c620002c036600462001dd1565b62000767565b620002a0620002d736600462001d80565b62000834565b620002f4620002ee36600462001eec565b62000849565b6040516200025792919062001faf565b6200023c6200031536600462001df8565b6200089e565b62000248620009ee565b6200033c6200033636600462001dd1565b620009fd565b60405162000257919062001fc8565b6200024862000a1e565b6200023c6200036636600462001d80565b62000a2d565b6200023c6200037d36600462001d80565b62000b8a565b6200024862000c05565b620002a062000c14565b6200033c620003a836600462001e70565b62000c1a565b620002a0620003bf36600462001d80565b62000c40565b6200023c620003d636600462001cb8565b62000c55565b620003f3620003ed36600462001d80565b62000d44565b6040516200025796959493929190620021b2565b6200023c6200041836600462001dd1565b62000d84565b620002a06200042f36600462001d80565b62000e5a565b620002a06200044636600462001cd7565b62000e6c565b6200023c6200045d36600462001d14565b62000e89565b6200033c6200047436600462001dd1565b62000f89565b6200023c6200048b36600462001eec565b62001146565b6200024862001296565b62000248620012a5565b6200023c620004b636600462001e4e565b620012b4565b6200023c620004cd36600462001cb8565b62001416565b6200023c620004e436600462001d80565b620014dd565b62000501620004fb36600462001d80565b6200170d565b60405162000257939291906200219c565b6200024862001738565b60008481526005602052604090206004015483146200053a57600080fd5b60008481526005602052604090206003015460ff1615156001146200055e57600080fd5b60006200056c858562000746565b90506000805b828110156200065e5760008781526007602090815260408083208984529091529020805482908110620005b557634e487b7160e01b600052603260045260246000fd5b60009182526020909120600290910201546001600160a01b0386811691161415620006495760008781526007602090815260408083208984529091529020805460019350859190839081106200061b57634e487b7160e01b600052603260045260246000fd5b906000526020600020906002020160010160008282546200063d9190620021fc565b909155506200065e9050565b80620006558162002231565b91505062000572565b506001811515146200066f57600080fd5b505050505050565b60025460408051630c7bec3160e11b815290516000926001600160a01b0316916318f7d862916004808301926020929190829003018186803b158015620006bd57600080fd5b505afa158015620006d2573d6000803e3d6000fd5b505050506040513d601f19601f82011682018060405250810190620006f8919062001d99565b905090565b600090815260056020818152604080842060038101546002808301546006865293909620909501549390925260049091015460ff9093169390926001600160a01b039092169190565b60008281526007602090815260408083208484529091529020545b92915050565b60025460405163053c328d60e31b81526001600160a01b03909116906329e19468906200079990339060040162001f54565b60206040518083038186803b158015620007b257600080fd5b505afa158015620007c7573d6000803e3d6000fd5b505050506040513d601f19601f82011682018060405250810190620007ed919062001d5e565b620008155760405162461bcd60e51b81526004016200080c90620020b2565b60405180910390fd5b60008281526005602052604090206200082f908262001747565b505050565b60009081526006602052604090206004015490565b600760205282600052604060002060205281600052604060002081815481106200087257600080fd5b6000918252602090912060029091020180546001909101546001600160a01b0390911693509150839050565b60025460405163053c328d60e31b81526001600160a01b03909116906329e1946890620008d090339060040162001f54565b60206040518083038186803b158015620008e957600080fd5b505afa158015620008fe573d6000803e3d6000fd5b505050506040513d601f19601f8201168201806040525081019062000924919062001d5e565b620009435760405162461bcd60e51b81526004016200080c90620020b2565b6000858152600a602090815260408083206001600160a01b0388168452909152902054831115620009885760405162461bcd60e51b81526004016200080c9062001ff9565b6000858152600a602090815260408083206001600160a01b0388168452909152902054620009b790846200175e565b6000868152600a602090815260408083206001600160a01b0389168452909152902055620009e78284866200176c565b5050505050565b600d546001600160a01b031681565b600082815260056020526040812062000a179083620017f2565b9392505050565b6001546001600160a01b031681565b6000818152600b6020908152604080832060058352818420600401548452825280832033845290915290205460ff1662000a7b5760405162461bcd60e51b81526004016200080c9062002043565b683635c9adc5dea0000062000a8f62000677565b6001600160a01b03166370a08231336040518263ffffffff1660e01b815260040162000abc919062001f54565b60206040518083038186803b15801562000ad557600080fd5b505afa15801562000aea573d6000803e3d6000fd5b505050506040513d601f19601f8201168201806040525081019062000b10919062001db8565b101562000b315760405162461bcd60e51b81526004016200080c9062002066565b62000b6c62000b3f62000677565b60008381526006602052604090206005015433906001600160a01b0316683635c9adc5dea0000062001809565b600081815260056020526040902062000b869033620018fe565b5050565b803362000b98828262000f89565b151560011462000bbc5760405162461bcd60e51b81526004016200080c9062002023565b600083815260056020526040902060020154421162000bda57600080fd5b60008381526005602052604090206003015460ff161562000bfa57600080fd5b6200082f8362001915565b6000546001600160a01b031681565b60045481565b600b60209081526000938452604080852082529284528284209052825290205460ff1681565b60009081526005602052604090206004015490565b600254604051631c86b03760e31b81526001600160a01b039091169063e43581b89062000c8790339060040162001f54565b60206040518083038186803b15801562000ca057600080fd5b505afa15801562000cb5573d6000803e3d6000fd5b505050506040513d601f19601f8201168201806040525081019062000cdb919062001d5e565b62000cfa5760405162461bcd60e51b81526004016200080c90620020e9565b600280546001600160a01b0319166001600160a01b0383169081179091556040517fad9400e618eb1344fde53db22397a1b82c765527ecbba3a5c86bcac15090828b90600090a250565b600660205260009081526040902080546001820154600283015460038401546004850154600590950154939492936001600160a01b039283169391921686565b60025460405163053c328d60e31b81526001600160a01b03909116906329e194689062000db690339060040162001f54565b60206040518083038186803b15801562000dcf57600080fd5b505afa15801562000de4573d6000803e3d6000fd5b505050506040513d601f19601f8201168201806040525081019062000e0a919062001d5e565b62000e295760405162461bcd60e51b81526004016200080c90620020b2565b60009182526006602052604090912060020180546001600160a01b0319166001600160a01b03909216919091179055565b60086020526000908152604090205481565b600960209081526000928352604080842090915290825290205481565b816001148062000e995750816002145b62000eb85760405162461bcd60e51b81526004016200080c906200208e565b816001141562000f20576001600160a01b0380851660009081526009602090815260408083209387168352929052205462000ef4908262001a4e565b6001600160a01b0380861660009081526009602090815260408083209388168352929052205562000f83565b816002141562000f83576001600160a01b0380851660009081526009602090815260408083209387168352929052205462000f5c90826200175e565b6001600160a01b038086166000908152600960209081526040808320938816835292905220555b50505050565b60008054604051633d6c72e760e11b815282916001600160a01b031690637ad8e5ce9062000fbc90869060040162001f54565b60206040518083038186803b15801562000fd557600080fd5b505afa15801562000fea573d6000803e3d6000fd5b505050506040513d601f19601f8201168201806040525081019062001010919062001db8565b60008054604051633cf06beb60e21b815292935090916001600160a01b039091169063f3c1afac906200104890859060040162002193565b60206040518083038186803b1580156200106157600080fd5b505afa15801562001076573d6000803e3d6000fd5b505050506040513d601f19601f820116820180604052508101906200109c919062001db8565b600d5460405163267b179960e21b81529192506000916001600160a01b03909116906399ec5e6490620010d490859060040162002193565b60206040518083038186803b158015620010ed57600080fd5b505afa15801562001102573d6000803e3d6000fd5b505050506040513d601f19601f8201168201806040525081019062001128919062001db8565b60008781526006602052604090206001015414935050505092915050565b60025460405163053c328d60e31b81526001600160a01b03909116906329e19468906200117890339060040162001f54565b60206040518083038186803b1580156200119157600080fd5b505afa158015620011a6573d6000803e3d6000fd5b505050506040513d601f19601f82011682018060405250810190620011cc919062001d5e565b620011eb5760405162461bcd60e51b81526004016200080c90620020b2565b600083815260076020908152604080832085845290915281208054839081106200122557634e487b7160e01b600052603260045260246000fd5b60009182526020808320600290920290910154868352600b8252604080842087855283528084206001600160a01b03909216808552918352808420805460ff191660011790558784526005928390528320909101805491935090916200128b8362002231565b919050555050505050565b6003546001600160a01b031681565b600c546001600160a01b031681565b60048054906000620012c68362002231565b909155505060045460008181526006602052604081209182554260038301556001820184905530620012f762001738565b6200130162000677565b6040516200130f9062001caa565b6200131d9392919062001f68565b604051809103906000f0801580156200133a573d6000803e3d6000fd5b506005830180546001600160a01b0319166001600160a01b038316179055600454909150600d1415620013d257600c60009054906101000a90046001600160a01b03166001600160a01b0316630ab3218b6040518163ffffffff1660e01b8152600401600060405180830381600087803b158015620013b857600080fd5b505af1158015620013cd573d6000803e3d6000fd5b505050505b81546040517f09bf7df93f4b3c954aff30199d38c42473e24294c3658ed5aeaa84b76f55c75f91620014089187904290620021e6565b60405180910390a150505050565b600254604051631c86b03760e31b81526001600160a01b039091169063e43581b8906200144890339060040162001f54565b60206040518083038186803b1580156200146157600080fd5b505afa15801562001476573d6000803e3d6000fd5b505050506040513d601f19601f820116820180604052508101906200149c919062001d5e565b620014bb5760405162461bcd60e51b81526004016200080c90620020e9565b600c80546001600160a01b0319166001600160a01b0392909216919091179055565b8033620014eb828262000f89565b15156001146200150f5760405162461bcd60e51b81526004016200080c9062002023565b683635c9adc5dea000006200152362000677565b6001600160a01b03166370a08231336040518263ffffffff1660e01b815260040162001550919062001f54565b60206040518083038186803b1580156200156957600080fd5b505afa1580156200157e573d6000803e3d6000fd5b505050506040513d601f19601f82011682018060405250810190620015a4919062001db8565b1015620015c55760405162461bcd60e51b81526004016200080c9062002066565b62001600620015d362000677565b60008581526006602052604090206005015433906001600160a01b0316683635c9adc5dea0000062001809565b60008381526005602052604090206003015460ff1615156001146200162457600080fd5b600083815260076020908152604080832060058352818420600401548452909152902054600f8110156200168b576000848152600560205260409020600201544211620016855760405162461bcd60e51b81526004016200080c906200216e565b620016eb565b60008481526005602052604090206002015442118015620016cc57506000848152600560205260409020600201544290620016ca9062093a80620021fc565b115b620016eb5760405162461bcd60e51b81526004016200080c906200216e565b60008481526005602052604081206004015462000f8391869190339062001a5c565b6000908152600560208190526040909120600281015460038201549190920154919260ff9091169190565b6002546001600160a01b031690565b600062000a17836001600160a01b03841662001ac3565b600062000a17828462002217565b60405163a9059cbb60e01b81526001600160a01b0382169063a9059cbb906200179c908690869060040162001faf565b602060405180830381600087803b158015620017b757600080fd5b505af1158015620017cc573d6000803e3d6000fd5b505050506040513d601f19601f8201168201806040525081019062000f83919062001d5e565b600062000a17836001600160a01b03841662001beb565b600080856001600160a01b03166323b872dd868686604051602401620018329392919062001f8b565b6040516020818303038152906040529060e01b6020820180516001600160e01b0383818316178352505050506040516200186d919062001f18565b6000604051808303816000865af19150503d8060008114620018ac576040519150601f19603f3d011682016040523d82523d6000602084013e620018b1565b606091505b5091509150818015620018df575080511580620018df575080806020019051810190620018df919062001d5e565b6200066f5760405162461bcd60e51b81526004016200080c906200212a565b600062000a17836001600160a01b03841662001c03565b60008181526005602052604081206200192e9062001c52565b905060005b818110156200198b57600083815260056020526040812062001956908362001c5f565b600085815260056020526040902090915062001973908262001747565b50508080620019829062002231565b91505062001933565b50600082815260066020908152604080832043600491820155600583528184206003908101805460ff1916600117905554825163cf7e7b8d60e01b815292516001600160a01b039091169463cf7e7b8d94848401949093908390030190829087803b158015620019fa57600080fd5b505af115801562001a0f573d6000803e3d6000fd5b505050506040513d601f19601f8201168201806040525081019062001a35919062001db8565b6000928352600560205260409092206004019190915550565b600062000a178284620021fc565b5050604080518082018252338152600060208083018281529582526007815283822094825293845291822080546001808201835591845293909220905160029093020180546001600160a01b0319166001600160a01b039093169290921782559151910155565b6000818152600183016020526040812054801562001be057600062001aea60018362002217565b855490915060009062001b009060019062002217565b905081811462001b8457600086600001828154811062001b3057634e487b7160e01b600052603260045260246000fd5b906000526020600020015490508087600001848154811062001b6257634e487b7160e01b600052603260045260246000fd5b6000918252602080832090910192909255918252600188019052604090208390555b855486908062001ba457634e487b7160e01b600052603160045260246000fd5b60019003818190600052602060002001600090559055856001016000868152602001908152602001600020600090556001935050505062000761565b600091505062000761565b60009081526001919091016020526040902054151590565b600062001c11838362001beb565b62001c495750815460018181018455600084815260208082209093018490558454848252828601909352604090209190915562000761565b50600062000761565b6000620007618262001c6d565b600062000a17838362001c71565b5490565b600082600001828154811062001c9757634e487b7160e01b600052603260045260246000fd5b9060005260206000200154905092915050565b612940806200227f83390190565b60006020828403121562001cca578081fd5b813562000a178162002265565b6000806040838503121562001cea578081fd5b823562001cf78162002265565b9150602083013562001d098162002265565b809150509250929050565b6000806000806080858703121562001d2a578182fd5b843562001d378162002265565b9350602085013562001d498162002265565b93969395505050506040820135916060013590565b60006020828403121562001d70578081fd5b8151801515811462000a17578182fd5b60006020828403121562001d92578081fd5b5035919050565b60006020828403121562001dab578081fd5b815162000a178162002265565b60006020828403121562001dca578081fd5b5051919050565b6000806040838503121562001de4578182fd5b82359150602083013562001d098162002265565b600080600080600060a0868803121562001e10578081fd5b85359450602086013562001e248162002265565b935060408601359250606086013562001e3d8162002265565b949793965091946080013592915050565b6000806040838503121562001e61578182fd5b50508035926020909101359150565b60008060006060848603121562001e85578283fd5b8335925060208401359150604084013562001ea08162002265565b809150509250925092565b6000806000806080858703121562001ec1578384fd5b8435935060208501359250604085013562001edc8162002265565b9396929550929360600135925050565b60008060006060848603121562001f01578283fd5b505081359360208301359350604090920135919050565b60008251815b8181101562001f3a576020818601810151858301520162001f1e565b8181111562001f495782828501525b509190910192915050565b6001600160a01b0391909116815260200190565b6001600160a01b0393841681529183166020830152909116604082015260600190565b6001600160a01b039384168152919092166020820152604081019190915260600190565b6001600160a01b03929092168252602082015260400190565b901515815260200190565b931515845260208401929092526001600160a01b03166040830152606082015260800190565b60208082526010908201526f3737ba1032b737bab3b4103a37b5b2b760811b604082015260600190565b6020808252600690820152653737ba1034b760d11b604082015260600190565b6020808252600990820152686e6f2061636365737360b81b604082015260600190565b6020808252600e908201526d1b9bdd08195b9bdd59da081c989d60921b604082015260600190565b6020808252600a90820152696e6f742061636365737360b01b604082015260600190565b6020808252601d908201527f436f72655265663a2043616c6c6572206973206e6f74206120566f7465000000604082015260600190565b60208082526021908201527f436f72655265663a2043616c6c6572206973206e6f74206120676f7665726e6f6040820152603960f91b606082015260800190565b60208082526024908201527f5472616e7366657248656c7065723a205452414e534645525f46524f4d5f46416040820152631253115160e21b606082015260800190565b6020808252600b908201526a6e6f7420696e2074696d6560a81b604082015260600190565b90815260200190565b9283529015156020830152604082015260600190565b95865260208601949094526001600160a01b039283166040860152606085019190915260808401521660a082015260c00190565b9283526020830191909152604082015260600190565b600082198211156200221257620022126200224f565b500190565b6000828210156200222c576200222c6200224f565b500390565b60006000198214156200224857620022486200224f565b5060010190565b634e487b7160e01b600052601160045260246000fd5b6001600160a01b03811681146200227b57600080fd5b5056fe60806040523480156200001157600080fd5b506040516200294038038062002940833981016040819052620000349162000087565b50600080546001600160a01b039283166001600160a01b03199182161790915560078054939092169216919091179055620000d0565b80516001600160a01b03811681146200008257600080fd5b919050565b6000806000606084860312156200009c578283fd5b620000a7846200006a565b9250620000b7602085016200006a565b9150620000c7604085016200006a565b90509250925092565b61286080620000e06000396000f3fe608060405234801561001057600080fd5b50600436106101165760003560e01c80637da68220116100a2578063b2f9aabf11610071578063b2f9aabf1461022f578063b349c5d614610242578063f2f4eb2614610255578063f4dfdde71461025d578063ffb8b4581461027057610116565b80637da68220146101ee5780638000963014610201578063964f316214610214578063b2e44f651461021c57610116565b80632f126cdb116100e95780632f126cdb146101815780635ab764ed146101ad5780636894b483146101c0578063735fb8e0146101d35780637bfcbf2a146101db57610116565b8063135b54dd1461011b578063219dcc0d146101395780632256283e1461014e578063256919d414610161575b600080fd5b610123610283565b6040516101309190612398565b60405180910390f35b61014c610147366004612079565b61030f565b005b61014c61015c3660046122c4565b6106fb565b61017461016f3660046121a9565b61080f565b604051610130919061263e565b61019461018f366004612246565b61083c565b6040516101309d9c9b9a9998979695949392919061265e565b6101746101bb366004611ffc565b61093d565b61014c6101ce366004612034565b610968565b610123610a5d565b61014c6101e9366004612276565b610a6c565b61014c6101fc36600461216f565b610b3d565b61014c61020f366004611fe0565b6111ff565b6101236112e3565b61014c61022a3660046122ef565b6112f2565b61014c61023d36600461213b565b6114ae565b610174610250366004611ffc565b611994565b6101236119b1565b61014c61026b366004611fe0565b6119c0565b61014c61027e3660046121ee565b611a7e565b60008060009054906101000a90046001600160a01b03166001600160a01b03166318f7d8626040518163ffffffff1660e01b815260040160206040518083038186803b1580156102d257600080fd5b505afa1580156102e6573d6000803e3d6000fd5b505050506040513d601f19601f8201168201806040525081019061030a919061211f565b905090565b600054604051630fcd4eb360e11b81526001600160a01b0390911690631f9a9d669061033f903390600401612398565b60206040518083038186803b15801561035757600080fd5b505afa15801561036b573d6000803e3d6000fd5b505050506040513d601f19601f8201168201806040525081019061038f91906120c0565b6103b45760405162461bcd60e51b81526004016103ab9061247d565b60405180910390fd5b60408051600280825260608201909252600091816020015b60608152602001906001900390816103cc575050604080516002808252606082018352929350600092909160208301908036833750506040805160208101909152600081529192505060018414156104485760408051808201909152600d81526c4d414e414745525f53544f524560981b60209091015261047a565b836002141561047a5760408051808201909152601081526f5041524c49414d454e545f53544f524560801b6020909101525b60018160405161048a9190612364565b90815260408051602092819003830190206001600160a01b0388166000908152925290205486111561068a5780836000815181106104d857634e487b7160e01b600052603260045260246000fd5b60200260200101819052506001816040516104f39190612364565b90815260200160405180910390206000866001600160a01b03166001600160a01b03168152602001908152602001600020548260008151811061054657634e487b7160e01b600052603260045260246000fd5b60200260200101818152505060006001826040516105649190612364565b90815260408051602092819003830190206001600160a01b038916600090815292529020546105939088612750565b905060016040516105a390612380565b90815260408051602092819003830190206001600160a01b038916600090815292529020548111156106055760016040516105dd90612380565b90815260408051602092819003830190206001600160a01b0389166000908152925290205490505b6040518060400160405280600c81526020016b5055424c49435f53544f524560a01b8152508460018151811061064b57634e487b7160e01b600052603260045260246000fd5b6020026020010181905250808360018151811061067857634e487b7160e01b600052603260045260246000fd5b602002602001018181525050506106e6565b80836000815181106106ac57634e487b7160e01b600052603260045260246000fd5b602002602001018190525085826000815181106106d957634e487b7160e01b600052603260045260246000fd5b6020026020010181815250505b6106f287838588611b07565b50505050505050565b600754604051638b7f0f9560e01b8152849133916001600160a01b0390911690638b7f0f95906107319085908590600401612647565b60206040518083038186803b15801561074957600080fd5b505afa15801561075d573d6000803e3d6000fd5b505050506040513d601f19601f8201168201806040525081019061078191906120c0565b151560011461078f57600080fd5b6000848152600560205260409020600c015442906107b09062093a806126f9565b1180156107ce57506000848152600560205260409020600a01546007145b6107d757600080fd5b6000848152600560205260409020600801546107f39084611d71565b6000948552600560205260409094206008019390935550505050565b81516020818401810180516001825292820194820194909420919093529091526000908152604090205481565b60056020528060005260406000206000915090508060000154908060010160009054906101000a90046001600160a01b0316908060020154908060030154908060040154908060050154908060060154908060070154908060080154908060090180546108a890612793565b80601f01602080910402602001604051908101604052809291908181526020018280546108d490612793565b80156109215780601f106108f657610100808354040283529160200191610921565b820191906000526020600020905b81548152906001019060200180831161090457829003601f168201915b50505050509080600a01549080600b01549080600c015490508d565b6001600160a01b03918216600090815260026020908152604080832093909416825291909152205490565b80600114806109775750806002145b6109935760405162461bcd60e51b81526004016103ab90612531565b80600114156109f7576001600160a01b038085166000908152600260209081526040808320938716835292905220546109cc9083611d71565b6001600160a01b03808616600090815260026020908152604080832093881683529290522055610a57565b8060021415610a57576001600160a01b03808516600090815260026020908152604080832093871683529290522054610a309083611d84565b6001600160a01b038086166000908152600260209081526040808320938816835292905220555b50505050565b6007546001600160a01b031681565b600082118015610a8d57506000838152600560205260409020600301548211155b610a9657600080fd5b6000838152600560209081526040808320858452600d0190915290206002015460ff610100909104161515600114610ae05760405162461bcd60e51b81526004016103ab906123e9565b6000838152600560208181526040808420868552600d0182529092208351610b1093919092019190840190611e90565b50506000918252600560209081526040808420928452600d90920190529020600201805461ff0019169055565b600754604051638b7f0f9560e01b8152849133916001600160a01b0390911690638b7f0f9590610b739085908590600401612647565b60206040518083038186803b158015610b8b57600080fd5b505afa158015610b9f573d6000803e3d6000fd5b505050506040513d601f19601f82011682018060405250810190610bc391906120c0565b1515600114610bd157600080fd5b600080876001600160a01b031663249a40cd886040518263ffffffff1660e01b8152600401610c00919061263e565b60806040518083038186803b158015610c1857600080fd5b505afa158015610c2c573d6000803e3d6000fd5b505050506040513d601f19601f82011682018060405250810190610c5091906120da565b60008a81526005602052604090206003015491955093508711159150610c8a90505760405162461bcd60e51b81526004016103ab90612420565b604051633068e23760e11b81526001600160a01b038916906360d1c46e90610cb8908a903390600401612647565b60206040518083038186803b158015610cd057600080fd5b505afa158015610ce4573d6000803e3d6000fd5b505050506040513d601f19601f82011682018060405250810190610d0891906120c0565b80610d1b57506001600160a01b03821633145b610d2457600080fd5b6000868152600460209081526040808320888452825280832033845260010190915290205460ff1615610d695760405162461bcd60e51b81526004016103ab906124e2565b60008681526004602090815260408083208884528083528184203380865260018281018652938620805460ff1916851790559184528054928301815584529190922090910180546001600160a01b031916909117905584610ead576000868152600560205260409020600b0154610de3906203f4806126f9565b4210610e015760405162461bcd60e51b81526004016103ab90612619565b6000868152600560205260408120600a01805491610e1e836127ce565b90915550506000868152600560205260409020600a015460071415610e765760008690526005602052610e544262093a806126f9565b600087815260056020908152604080832060018452600d019091529020600301555b6000868152600560205260409020600a015460071015610ea85760405162461bcd60e51b81526004016103ab90612501565b6111f5565b6006546040516342a422e960e11b81526000916001600160a01b03169063854845d290610ede90859060040161263e565b60206040518083038186803b158015610ef657600080fd5b505afa158015610f0a573d6000803e3d6000fd5b505050506040513d601f19601f82011682018060405250810190610f2e919061225e565b90508560011415610fa0576000878152600560205260409020600a01546007148015610f7f5750610f6b6064610f6583601e611d90565b90611d9c565b600088815260056020526040902060080154105b610f9b5760405162461bcd60e51b81526004016103ab90612446565b611038565b6000878152600560205260408120600791600d90910190610fc260018a612750565b81526020019081526020016000206001015410801561101c57506000878152600560205260408120600d0190610ff9600189612750565b8152602001908152602001600020600301546203f48061101991906126f9565b42115b6110385760405162461bcd60e51b81526004016103ab90612583565b6000878152600560209081526040808320898452600d019091528120600101805491611063836127ce565b90915550506000878152600560209081526040808320898452600d01909152902060010154600714156111f3576000878152600560209081526040808320898452600d01909152902060040154600310156110d05760405162461bcd60e51b81526004016103ab906124be565b6000878152600560209081526040808320898452600d01909152812060018101829055600401805491611102836127ce565b90915550506000878152600560209081526040808320898452600d018252808320600201805461ff00191661010017905589835260048252808320898452909152812054905b818110156111ce5760008981526004602090815260408083208b845290915281208054600182019291908490811061119057634e487b7160e01b600052603260045260246000fd5b60009182526020808320909101546001600160a01b031683528201929092526040019020805460ff19169055806111c6816127ce565b915050611148565b5060008881526004602090815260408083208a845290915281206111f191611f14565b505b505b5050505050505050565b600054604051631c86b03760e31b81526001600160a01b039091169063e43581b89061122f903390600401612398565b60206040518083038186803b15801561124757600080fd5b505afa15801561125b573d6000803e3d6000fd5b505050506040513d601f19601f8201168201806040525081019061127f91906120c0565b61129b5760405162461bcd60e51b81526004016103ab90612594565b600080546001600160a01b0319166001600160a01b038316908117825560405190917fad9400e618eb1344fde53db22397a1b82c765527ecbba3a5c86bcac15090828b91a250565b6006546001600160a01b031681565b600754604051638b7f0f9560e01b8152889133916001600160a01b0390911690638b7f0f95906113289085908590600401612647565b60206040518083038186803b15801561134057600080fd5b505afa158015611354573d6000803e3d6000fd5b505050506040513d601f19601f8201168201806040525081019061137891906120c0565b151560011461138657600080fd5b60038054906000611396836127ce565b919050555085600114156113b657836064146113b157600080fd5b6113da565b85600214156113da576113cf6064610f65876005611d90565b84146113da57600080fd5b6113ed6113e5610283565b333087611da8565b6003805460008181526005602081815260409092209283556001830180546001600160a01b03191633179055600283018d90559282018b9055600482018a9055918101889055600681018790556007810186905584519091611456916009840191870190611e90565b506000600a82015542600b820181905581546040518c927f39d8fe849ca64dcf7d99ceb3188ffaf453975b4d403bb6e5f1e23fa36352c99e9161149a9133916123d0565b60405180910390a350505050505050505050565b60008281526005602052604080822060020154905163249a40cd60e01b815282916001600160a01b0387169163249a40cd916114ec9160040161263e565b60806040518083038186803b15801561150457600080fd5b505afa158015611518573d6000803e3d6000fd5b505050506040513d601f19601f8201168201806040525081019061153c91906120da565b93509350505060008311801561156357506000848152600560205260409020600301548311155b61157f5760405162461bcd60e51b81526004016103ab90612420565b6000848152600560205260409020600101546001600160a01b031633146115a557600080fd5b6000848152600560209081526040808320868452600d0190915290206002015460ff16156115e55760405162461bcd60e51b81526004016103ab90612555565b82600114156116ff576006546040516342a422e960e11b81526000916001600160a01b03169063854845d29061161f90859060040161263e565b60206040518083038186803b15801561163757600080fd5b505afa15801561164b573d6000803e3d6000fd5b505050506040513d601f19601f8201168201806040525081019061166f919061225e565b6000868152600560205260409020600b0154909150611691906203f4806126f9565b42106116af5760405162461bcd60e51b81526004016103ab90612619565b6000858152600560205260409020600a01546007146116cd57600080fd5b6116dd6064610f6583601e611d90565b600086815260056020526040902060080154106116f957600080fd5b50611788565b6000848152600560205260408120600791600d90910190611721600187612750565b81526020019081526020016000206001015410801561177f57506000848152600560205260408120600481015442929091600d0190611761600188612750565b81526020019081526020016000206003015461177d91906126f9565b105b61178857600080fd5b6000848152600560209081526040808320868452600d0190915290206002018054610100600160ff19909216821761ff001916179091556117ca9084906126f9565b600085815260056020526040902060030154106118175760008481526005602052604081204291600d909101906118028660016126f9565b81526020810191909152604001600020600301555b604080516001808252818301909252600091816020015b606081526020019060019003908161182e57505060408051600180825281830190925291925060009190602080830190803683370190505090506040518060400160405280600c81526020016b5055424c49435f53544f524560a01b815250826000815181106118ae57634e487b7160e01b600052603260045260246000fd5b602090810291909101810191909152600087815260059091526040902060038101546006909101546118df91611d9c565b8160008151811061190057634e487b7160e01b600052603260045260246000fd5b60200260200101818152505060006119166119b1565b6001600160a01b03166318f7d8626040518163ffffffff1660e01b815260040160206040518083038186803b15801561194e57600080fd5b505afa158015611962573d6000803e3d6000fd5b505050506040513d601f19601f82011682018060405250810190611986919061211f565b90506111f533838584611b07565b600260209081526000928352604080842090915290825290205481565b6000546001600160a01b031690565b600054604051631c86b03760e31b81526001600160a01b039091169063e43581b8906119f0903390600401612398565b60206040518083038186803b158015611a0857600080fd5b505afa158015611a1c573d6000803e3d6000fd5b505050506040513d601f19601f82011682018060405250810190611a4091906120c0565b611a5c5760405162461bcd60e51b81526004016103ab90612594565b600680546001600160a01b0319166001600160a01b0392909216919091179055565b611abd81600185604051611a929190612364565b90815260408051602092819003830190206001600160a01b0387166000908152925290205490611d71565b600184604051611acd9190612364565b90815260200160405180910390206000846001600160a01b03166001600160a01b0316815260200190815260200160002081905550505050565b8151835114611b1557600080fd5b6000805b8451811015611ce857848181518110611b4257634e487b7160e01b600052603260045260246000fd5b60200260200101516001858381518110611b6c57634e487b7160e01b600052603260045260246000fd5b6020026020010151604051611b819190612364565b90815260408051602092819003830190206001600160a01b038716600090815292529020541015611bb157600080fd5b611beb858281518110611bd457634e487b7160e01b600052603260045260246000fd5b602002602001015183611d7190919063ffffffff16565b9150611c7a858281518110611c1057634e487b7160e01b600052603260045260246000fd5b60200260200101516001868481518110611c3a57634e487b7160e01b600052603260045260246000fd5b6020026020010151604051611c4f9190612364565b90815260408051602092819003830190206001600160a01b0388166000908152925290205490611d84565b6001858381518110611c9c57634e487b7160e01b600052603260045260246000fd5b6020026020010151604051611cb19190612364565b90815260408051602092819003830190206001600160a01b0387166000908152925290205580611ce0816127ce565b915050611b19565b5060405163a9059cbb60e01b81526001600160a01b0383169063a9059cbb90611d1790889085906004016123d0565b602060405180830381600087803b158015611d3157600080fd5b505af1158015611d45573d6000803e3d6000fd5b505050506040513d601f19601f82011682018060405250810190611d6991906120c0565b505050505050565b6000611d7d82846126f9565b9392505050565b6000611d7d8284612750565b6000611d7d8284612731565b6000611d7d8284612711565b600080856001600160a01b03166323b872dd868686604051602401611dcf939291906123ac565b6040516020818303038152906040529060e01b6020820180516001600160e01b038381831617835250505050604051611e089190612364565b6000604051808303816000865af19150503d8060008114611e45576040519150601f19603f3d011682016040523d82523d6000602084013e611e4a565b606091505b5091509150818015611e74575080511580611e74575080806020019051810190611e7491906120c0565b611d695760405162461bcd60e51b81526004016103ab906125d5565b828054611e9c90612793565b90600052602060002090601f016020900481019282611ebe5760008555611f04565b82601f10611ed757805160ff1916838001178555611f04565b82800160010185558215611f04579182015b82811115611f04578251825591602001919060010190611ee9565b50611f10929150611f35565b5090565b5080546000825590600052602060002090810190611f329190611f35565b50565b5b80821115611f105760008155600101611f36565b80518015158114611f5a57600080fd5b919050565b600082601f830112611f6f578081fd5b813567ffffffffffffffff80821115611f8a57611f8a6127ff565b604051601f8301601f191681016020018281118282101715611fae57611fae6127ff565b604052828152848301602001861015611fc5578384fd5b82602086016020830137918201602001929092529392505050565b600060208284031215611ff1578081fd5b8135611d7d81612815565b6000806040838503121561200e578081fd5b823561201981612815565b9150602083013561202981612815565b809150509250929050565b60008060008060808587031215612049578182fd5b843561205481612815565b9350602085013561206481612815565b93969395505050506040820135916060013590565b6000806000806080858703121561208e578384fd5b843561209981612815565b93506020850135925060408501356120b081612815565b9396929550929360600135925050565b6000602082840312156120d1578081fd5b611d7d82611f4a565b600080600080608085870312156120ef578384fd5b6120f885611f4a565b935060208501519250604085015161210f81612815565b6060959095015193969295505050565b600060208284031215612130578081fd5b8151611d7d81612815565b60008060006060848603121561214f578283fd5b833561215a81612815565b95602085013595506040909401359392505050565b60008060008060808587031215612184578384fd5b843561218f81612815565b966020860135965060408601359560600135945092505050565b600080604083850312156121bb578182fd5b823567ffffffffffffffff8111156121d1578283fd5b6121dd85828601611f5f565b925050602083013561202981612815565b600080600060608486031215612202578283fd5b833567ffffffffffffffff811115612218578384fd5b61222486828701611f5f565b935050602084013561223581612815565b929592945050506040919091013590565b600060208284031215612257578081fd5b5035919050565b60006020828403121561226f578081fd5b5051919050565b60008060006060848603121561228a578081fd5b8335925060208401359150604084013567ffffffffffffffff8111156122ae578182fd5b6122ba86828701611f5f565b9150509250925092565b6000806000606084860312156122d8578081fd5b505081359360208301359350604090920135919050565b600080600080600080600060e0888a031215612309578485fd5b873596506020880135955060408801359450606088013593506080880135925060a0880135915060c088013567ffffffffffffffff811115612349578182fd5b6123558a828b01611f5f565b91505092959891949750929550565b60008251612376818460208701612767565b9190910192915050565b6b5055424c49435f53544f524560a01b8152600c0190565b6001600160a01b0391909116815260200190565b6001600160a01b039384168152919092166020820152604081019190915260600190565b6001600160a01b03929092168252602082015260400190565b6020808252601a908201527f43616e6e6f74207375626d697420617420746869732074696d65000000000000604082015260600190565b6020808252600c908201526b6e6f7420696e20737461676560a01b604082015260600190565b6020808252601a908201527f70726576207374616765206973206e6f742066696e6973686564000000000000604082015260600190565b60208082526021908201527f436f72655265663a2043616c6c6572206973206e6f74206120436974794e6f646040820152606560f81b606082015260800190565b6020808252600a9082015269206e6f206368616e636560b01b604082015260600190565b6020808252600590820152641d9bdd195960da1b604082015260600190565b6020808252601690820152751d1a1a5cc81c1c9bdc1bdcd85b081a5cc818591bdc1d60521b604082015260600190565b6020808252600a90820152696e6f742061636365737360b01b604082015260600190565b6020808252601490820152736e6f2061636365737320746f207265636569766560601b604082015260600190565b602080825260009082015260400190565b60208082526021908201527f436f72655265663a2043616c6c6572206973206e6f74206120676f7665726e6f6040820152603960f91b606082015260800190565b60208082526024908201527f5472616e7366657248656c7065723a205452414e534645525f46524f4d5f46416040820152631253115160e21b606082015260800190565b6020808252600b908201526a6e6f7420696e2074696d6560a81b604082015260600190565b90815260200190565b9182526001600160a01b0316602082015260400190565b60006101a08f835260018060a01b038f1660208401528d60408401528c60608401528b60808401528a60a08401528960c08401528860e08401528761010084015280610120840152865180828501526101c091506126c28183860160208b01612767565b81601f19601f830116850101925050508461014083015283610160830152826101808301529e9d5050505050505050505050505050565b6000821982111561270c5761270c6127e9565b500190565b60008261272c57634e487b7160e01b81526012600452602481fd5b500490565b600081600019048311821515161561274b5761274b6127e9565b500290565b600082821015612762576127626127e9565b500390565b60005b8381101561278257818101518382015260200161276a565b83811115610a575750506000910152565b6002810460018216806127a757607f821691505b602082108114156127c857634e487b7160e01b600052602260045260246000fd5b50919050565b60006000198214156127e2576127e26127e9565b5060010190565b634e487b7160e01b600052601160045260246000fd5b634e487b7160e01b600052604160045260246000fd5b6001600160a01b0381168114611f3257600080fdfea2646970667358221220533d545be253791212e29fe07035d538532626882ce39b2f3d360a923029e98264736f6c63430008000033a264697066735822122086a7eacace332ba05b80214a57e30aa6948cc89ba16b44d875c735a24825b12264736f6c63430008000033",
  "immutableReferences": {},
  "source": "pragma solidity ^0.8.0;\r\nimport './CityNodeRef.sol';\r\nimport \"../ref/CoreRef.sol\";\r\nimport '@openzeppelin/contracts/utils/structs/EnumerableSet.sol';\r\nimport '../interface/gov/IGovernanceCommittee.sol';\r\nimport '@openzeppelin/contracts/utils/math/SafeMath.sol';\r\nimport '../interface/gov/IGlobalGovernanceCommittee.sol';\r\nimport '../ref/VoteIdRef.sol';\r\nimport '../interface/gov/IParliament.sol';\r\nimport '../interface/gov/ICityGovCommittee.sol';\r\nimport '../interface/gov/IBlockNumber.sol';\r\nimport './CityNodeFundManagement.sol';\r\ncontract AreaGovernanceCommittee  is CityNodeRef,CoreRef,IGovernanceCommittee,VoteIdRef,IParliament,IBlockNumber {\r\n    using EnumerableSet for EnumerableSet.AddressSet;\r\n    using SafeMath for uint256;\r\n    constructor(address nodeAddress,address core,address voteIdAddr) public  CityNodeRef(nodeAddress)  CoreRef(core) VoteIdRef(voteIdAddr)  {}\r\n    struct cityGovernance{\r\n        uint id;\r\n        uint  areaId;\r\n        address manager;\r\n        uint creationTime;\r\n        uint proposalBlockNumber;\r\n        address cfm;\r\n    }\r\n    struct parliamentData {\r\n        EnumerableSet.AddressSet parliament;\r\n        uint  expireTime;\r\n        bool votePeriod;\r\n        uint voteId;\r\n        uint impeachIndex;\r\n    }\r\n\r\n\r\n    struct parliamentApply {\r\n        address account;\r\n        uint tickets;\r\n    }\r\n    uint public govCount;\r\n\r\n    mapping(uint => parliamentData ) private govParliament;\r\n\r\n    mapping(uint => cityGovernance) public cityGovernances;\r\n\r\n    event cityGovernanceCreate(uint id, uint adreaId, uint creationTime);\r\n\r\n    mapping(uint => mapping(uint => parliamentApply[])) public parliamentApplyRecords;\r\n\r\n    mapping(bytes32 => uint) public cityGovernancesBonus;  //\r\n\r\n    mapping(address =>mapping(address => uint) ) public parliamentReward;\r\n    \r\n    mapping(uint => mapping(address => uint)) govTokenAmount; //\r\n\r\n\r\n    mapping(uint => mapping(uint =>mapping(address => bool))) public parliamentUp; //\r\n    address public global;\r\n\r\n    address public cityGov;\r\n\r\n\r\n    modifier _inCityGov(uint cityGovId,address sender) {\r\n        require(inNode(cityGovId,sender) == true,'not in');\r\n        _;\r\n    }\r\n\r\n    function setGlobalGov(address globalGov) public  onlyGovernor {\r\n         global = globalGov;\r\n    }\r\n\r\n    function inNode(uint areaGovId, address sender) public view override returns (bool) {\r\n        uint nodeId = cityNode.getUserNode(sender);\r\n        //\r\n        uint cityId = cityNode.getCityTrueId(nodeId);\r\n        uint adreaId =  ICityGovCommittee(cityGov).getAreaIdByCityId(cityId);\r\n\r\n        return (cityGovernances[areaGovId].areaId == adreaId);\r\n    }\r\n\r\n\r\n    /*\r\n        @dev \r\n        @params hash\r\n    */\r\n    function newGovernanceCommittee (uint id,uint area) external override {\r\n        govCount++;\r\n        cityGovernance storage c = cityGovernances[govCount];\r\n        c.id = govCount;\r\n        c.creationTime = block.timestamp;\r\n\r\n        c.areaId = id; //iD\r\n        // c.proposalBlockNumber = block.timestamp;\r\n        CityNodeFundManagement _cfm = new CityNodeFundManagement(address(this),address(core()),address(Rbt()));\r\n        c.cfm = address(_cfm);\r\n        //todo \r\n        if(govCount == 13) {\r\n            IGlobalGovernanceCommittee(global).activeGov();\r\n        }\r\n        emit cityGovernanceCreate(c.id,id,block.timestamp);\r\n    }\r\n\r\n    /*\r\n        @dev \r\n        @params id id\r\n\r\n    */\r\n\r\n    function activeToParliaments(uint id) public _inCityGov(id,msg.sender){\r\n        // require(inNode(nodeId, msg.sender), 'not in node');\r\n        require(govParliament[id].expireTime < block.timestamp);\r\n        require(govParliament[id].votePeriod == false);\r\n        _startVoteParliament(id);\r\n    }\r\n\r\n    /*\r\n        @dev \r\n    */\r\n    function getBlockNumber(uint id) external override view returns(uint) {\r\n        return cityGovernances[id].proposalBlockNumber;\r\n    }\r\n\r\n    /*\r\n     @dev \r\n     @params id id\r\n\r\n */\r\n    function applyParliament(uint id) external override   _inCityGov(id,msg.sender){\r\n        //        require(inNode(nodeId, msg.sender), 'not in node');\r\n        //todo \r\n        require( IERC20( address(Rbt())).balanceOf(msg.sender) >= 1000 * 10 ** 18,'not enough rbt');\r\n        TransferHelper.safeTransferFrom(address(Rbt()),msg.sender,cityGovernances[id].cfm,1000 * 10 ** 18);\r\n\r\n        require(govParliament[id].votePeriod == true);\r\n        uint length = parliamentApplyRecords[id][govParliament[id].voteId].length;\r\n        if (length < 15) {\r\n            require(govParliament[id].expireTime < block.timestamp, 'not in time');\r\n        } else {\r\n            require(govParliament[id].expireTime < block.timestamp && govParliament[id].expireTime + 7 days > block.timestamp, 'not in time');\r\n        }\r\n\r\n        _setParliamentApply(id,govParliament[id].voteId,msg.sender,0);\r\n    }\r\n\r\n    /*\r\n\r\n    */\r\n    //todo core\r\n    function operateUserReward(address user,address token,uint mold,uint amount) public {\r\n        require(mold == 1 || mold == 2,'not access');\r\n        if (mold == 1) {\r\n            parliamentReward[user][token] =  parliamentReward[user][token].add(amount);\r\n        }else if(mold == 2){\r\n            parliamentReward[user][token] =  parliamentReward[user][token].sub(amount);\r\n        }\r\n    }\r\n\r\n  /*\r\n        @dev /\r\n        @params nodeId ID\r\n        @params voteId ID\r\n        @return \r\n    */\r\n    function getApplyParliament(uint id, uint voteId) public view override returns (uint){\r\n        uint length = parliamentApplyRecords[id][voteId].length;\r\n        return length;\r\n    }\r\n\r\n    /*\r\n    @dev \r\n*/\r\n    function _setParliamentApply(uint id, uint voteId,address sender,uint tickets) internal  {\r\n        parliamentApply memory ar = parliamentApply({\r\n        account : msg.sender,\r\n        tickets : 0\r\n        });\r\n        parliamentApplyRecords[id][voteId].push(ar);\r\n    }\r\n    \r\n      function getApplyParliamentVoteId(uint id) external  view override   returns (uint){\r\n        return govParliament[id].voteId;\r\n    }\r\n      function getCityNodeInfo(uint id) external view override returns (bool, uint, address, uint) {\r\n        return (govParliament[id].votePeriod, govParliament[id].expireTime, cityGovernances[id].manager,govParliament[id].voteId);\r\n    }\r\n    \r\n    \r\n     /*\r\n       @dev \r\n       @params nodeId ID\r\n       @params voteId ID\r\n    */\r\n\r\n    function impeachExtract(uint nodeId, address token, uint amount, address receiver, uint impeach) external override onlyVote{\r\n        require(govTokenAmount[nodeId][token] >= amount,'not enough token');\r\n        govTokenAmount[nodeId][token] = govTokenAmount[nodeId][token].sub(amount);\r\n        _extract(receiver,amount,token);\r\n    }\r\n     function parliamentInfo(uint nodeId) external view override  returns (uint, bool, uint){\r\n        return (govParliament[nodeId].expireTime, govParliament[nodeId].votePeriod, govParliament[nodeId].impeachIndex);\r\n    }\r\n    \r\n    \r\n    /*\r\n     @dev \r\n     @params nodeid id\r\n     @params user \r\n\r\n */\r\n\r\n    function removeParliament(uint nodeId, address user) external override  onlyVote{\r\n        govParliament[nodeId].parliament.remove(user);\r\n    }\r\n    \r\n      function _extract(address receiver,uint  amount,address token) internal {\r\n        IERC20(token).transfer(receiver,amount);\r\n    }\r\n    \r\n       /*\r\n     @dev \r\n     @params ID\r\n     @params \r\n\r\n */\r\n\r\n    function setManagerInfo(uint nodeId, address manager) external override onlyVote{\r\n        cityGovernances[nodeId].manager = manager;\r\n    }\r\n    \r\n    \r\n      /*\r\n   @dev \r\n   @params nodeid id\r\n   @params voteId \r\n   @params index \r\n  */\r\n    function setParliament(uint nodeId, uint voteId, uint index) external override  onlyVote{\r\n        address user = parliamentApplyRecords[nodeId][voteId][index].account;\r\n//        govParliament[nodeId].parliament.add(user);\r\n        parliamentUp[nodeId][voteId][user] = true;\r\n        govParliament[nodeId].impeachIndex++;\r\n    }\r\n\r\n\r\n\r\n    /*\r\n   @dev\r\n*/\r\n    function parliamentTakeOffice(uint nodeId) public {\r\n        require(parliamentUp[nodeId][govParliament[nodeId].voteId][msg.sender],'no access');\r\n        require( IERC20( address(Rbt())).balanceOf(msg.sender) >= 1000 * 10 ** 18,'not enough rbt');\r\n        TransferHelper.safeTransferFrom(address(Rbt()),msg.sender,cityGovernances[nodeId].cfm,1000 * 10 ** 18);\r\n        govParliament[nodeId].parliament.add(msg.sender);\r\n    }\r\n    \r\n        /*\r\n    @dev /\r\n    @params Id ID\r\n    @params voteId ID\r\n    @params user \r\n    @params tickets \r\n*/\r\n    function voteToParliament(uint id, uint voteId, address user, uint tickets) external override  {\r\n        require(voteId == govParliament[id].voteId);\r\n        require(govParliament[id].votePeriod == true);\r\n        (uint length) = getApplyParliament(id, voteId);\r\n        bool existsUser = false;\r\n        for (uint i = 0; i < length; i++) {\r\n            if (user == parliamentApplyRecords[id][voteId][i].account) {\r\n                existsUser = true;\r\n                parliamentApplyRecords[id][voteId][i].tickets += (tickets);\r\n                break;\r\n            }\r\n        }\r\n        require(existsUser == true);\r\n    }\r\n    \r\n      /*\r\n        @dev \r\n        @params id\r\n        @return true  false\r\n    */\r\n    function hasParliament(uint id, address user) external override view returns (bool){\r\n        return govParliament[id].parliament.contains(user);\r\n    }\r\n\r\n    /*\r\n        @dev\r\n        @params\r\n    */\r\n    function _startVoteParliament(uint id) internal{\r\n        uint parliamentLength = govParliament[id].parliament.length();\r\n        for (uint i = 0; i < parliamentLength; i++) {\r\n            address user = govParliament[id].parliament.at(i);\r\n            govParliament[id].parliament.remove(user);\r\n        }\r\n        cityGovernances[id].proposalBlockNumber = block.number;\r\n        govParliament[id].votePeriod = true;\r\n        govParliament[id].voteId = IVoteId(voteIdAddress).incrVoteId();\r\n    }\r\n}\r\n",
  "sourcePath": "D://rainbow/RainbowDao-protocol/contracts/gov/AreaGovernanceCommittee.sol",
  "compiler": {
    "name": "solc",
    "version": "0.8.0+commit.c7dfd78e.Emscripten.clang"
  },
  "schemaVersion": "3.4.1",
  "updatedAt": "2021-10-08T01:43:00.776Z",
  "devdoc": {
    "kind": "dev",
    "methods": {
      "Rbt()": {
        "returns": {
          "_0": "IFei implementation address"
        }
      },
      "core()": {
        "returns": {
          "_0": "ICore implementation address"
        }
      }
    },
    "version": 1
  },
  "userdoc": {
    "kind": "user",
    "methods": {
      "Rbt()": {
        "notice": "address of the Fei contract referenced by Core"
      },
      "core()": {
        "notice": "address of the Core contract referenced"
      }
    },
    "version": 1
  }
}