{
  "contractName": "CityNode",
  "abi": [
    {
      "inputs": [
        {
          "internalType": "address",
          "name": "core",
          "type": "address"
        },
        {
          "internalType": "address",
          "name": "voteIdAddr",
          "type": "address"
        }
      ],
      "stateMutability": "nonpayable",
      "type": "constructor"
    },
    {
      "anonymous": false,
      "inputs": [
        {
          "indexed": true,
          "internalType": "address",
          "name": "_core",
          "type": "address"
        }
      ],
      "name": "CoreUpdate",
      "type": "event"
    },
    {
      "anonymous": false,
      "inputs": [
        {
          "indexed": false,
          "internalType": "uint256",
          "name": "id",
          "type": "uint256"
        },
        {
          "indexed": false,
          "internalType": "address",
          "name": "manager",
          "type": "address"
        },
        {
          "indexed": false,
          "internalType": "uint256",
          "name": "creationTime",
          "type": "uint256"
        }
      ],
      "name": "cityNodeCreate",
      "type": "event"
    },
    {
      "anonymous": false,
      "inputs": [
        {
          "indexed": false,
          "internalType": "uint256",
          "name": "id",
          "type": "uint256"
        },
        {
          "indexed": false,
          "internalType": "address",
          "name": "sender",
          "type": "address"
        },
        {
          "indexed": false,
          "internalType": "uint256",
          "name": "creationTime",
          "type": "uint256"
        }
      ],
      "name": "lengthenManager",
      "type": "event"
    },
    {
      "inputs": [],
      "name": "Gov721",
      "outputs": [
        {
          "internalType": "contract IGovernance721",
          "name": "",
          "type": "address"
        }
      ],
      "stateMutability": "view",
      "type": "function"
    },
    {
      "inputs": [],
      "name": "NewFundManagement",
      "outputs": [
        {
          "internalType": "contract INewFundManagement",
          "name": "",
          "type": "address"
        }
      ],
      "stateMutability": "view",
      "type": "function"
    },
    {
      "inputs": [],
      "name": "Rbt",
      "outputs": [
        {
          "internalType": "contract IERC20",
          "name": "",
          "type": "address"
        }
      ],
      "stateMutability": "view",
      "type": "function"
    },
    {
      "inputs": [
        {
          "internalType": "uint256",
          "name": "",
          "type": "uint256"
        },
        {
          "internalType": "uint256",
          "name": "",
          "type": "uint256"
        }
      ],
      "name": "beforeActiveElf",
      "outputs": [
        {
          "internalType": "address",
          "name": "",
          "type": "address"
        }
      ],
      "stateMutability": "view",
      "type": "function"
    },
    {
      "inputs": [
        {
          "internalType": "uint256",
          "name": "",
          "type": "uint256"
        },
        {
          "internalType": "uint256",
          "name": "",
          "type": "uint256"
        }
      ],
      "name": "cityGovNodes",
      "outputs": [
        {
          "internalType": "uint256",
          "name": "",
          "type": "uint256"
        }
      ],
      "stateMutability": "view",
      "type": "function"
    },
    {
      "inputs": [],
      "name": "cityGovernanceAddr",
      "outputs": [
        {
          "internalType": "address",
          "name": "",
          "type": "address"
        }
      ],
      "stateMutability": "view",
      "type": "function"
    },
    {
      "inputs": [],
      "name": "cityNodeCount",
      "outputs": [
        {
          "internalType": "uint256",
          "name": "",
          "type": "uint256"
        }
      ],
      "stateMutability": "view",
      "type": "function"
    },
    {
      "inputs": [],
      "name": "core",
      "outputs": [
        {
          "internalType": "contract ICore",
          "name": "",
          "type": "address"
        }
      ],
      "stateMutability": "view",
      "type": "function"
    },
    {
      "inputs": [
        {
          "internalType": "uint256",
          "name": "",
          "type": "uint256"
        }
      ],
      "name": "nodeParliamentVoteId",
      "outputs": [
        {
          "internalType": "uint256",
          "name": "",
          "type": "uint256"
        }
      ],
      "stateMutability": "view",
      "type": "function"
    },
    {
      "inputs": [
        {
          "internalType": "uint256",
          "name": "",
          "type": "uint256"
        },
        {
          "internalType": "uint256",
          "name": "",
          "type": "uint256"
        },
        {
          "internalType": "uint256",
          "name": "",
          "type": "uint256"
        }
      ],
      "name": "parliamentApplyRecords",
      "outputs": [
        {
          "internalType": "address",
          "name": "account",
          "type": "address"
        },
        {
          "internalType": "uint256",
          "name": "tickets",
          "type": "uint256"
        }
      ],
      "stateMutability": "view",
      "type": "function"
    },
    {
      "inputs": [
        {
          "internalType": "uint256",
          "name": "",
          "type": "uint256"
        },
        {
          "internalType": "uint256",
          "name": "",
          "type": "uint256"
        },
        {
          "internalType": "address",
          "name": "",
          "type": "address"
        }
      ],
      "name": "parliamentUp",
      "outputs": [
        {
          "internalType": "bool",
          "name": "",
          "type": "bool"
        }
      ],
      "stateMutability": "view",
      "type": "function"
    },
    {
      "inputs": [
        {
          "internalType": "address",
          "name": "core",
          "type": "address"
        }
      ],
      "name": "setCore",
      "outputs": [],
      "stateMutability": "nonpayable",
      "type": "function"
    },
    {
      "inputs": [
        {
          "internalType": "uint256",
          "name": "",
          "type": "uint256"
        },
        {
          "internalType": "uint256",
          "name": "",
          "type": "uint256"
        },
        {
          "internalType": "uint256",
          "name": "",
          "type": "uint256"
        }
      ],
      "name": "userApplyRecords",
      "outputs": [
        {
          "internalType": "address",
          "name": "account",
          "type": "address"
        },
        {
          "internalType": "uint256",
          "name": "tokenId",
          "type": "uint256"
        }
      ],
      "stateMutability": "view",
      "type": "function"
    },
    {
      "inputs": [
        {
          "internalType": "address",
          "name": "",
          "type": "address"
        }
      ],
      "name": "userNode",
      "outputs": [
        {
          "internalType": "uint256",
          "name": "",
          "type": "uint256"
        }
      ],
      "stateMutability": "view",
      "type": "function"
    },
    {
      "inputs": [],
      "name": "voteAddr",
      "outputs": [
        {
          "internalType": "address",
          "name": "",
          "type": "address"
        }
      ],
      "stateMutability": "view",
      "type": "function"
    },
    {
      "inputs": [],
      "name": "voteIdAddress",
      "outputs": [
        {
          "internalType": "contract IVoteId",
          "name": "",
          "type": "address"
        }
      ],
      "stateMutability": "view",
      "type": "function"
    },
    {
      "inputs": [
        {
          "internalType": "uint256",
          "name": "",
          "type": "uint256"
        },
        {
          "internalType": "uint256",
          "name": "",
          "type": "uint256"
        },
        {
          "internalType": "address",
          "name": "",
          "type": "address"
        }
      ],
      "name": "voteRecords",
      "outputs": [
        {
          "internalType": "uint256",
          "name": "",
          "type": "uint256"
        }
      ],
      "stateMutability": "view",
      "type": "function"
    },
    {
      "inputs": [
        {
          "internalType": "uint256",
          "name": "nodeId",
          "type": "uint256"
        }
      ],
      "name": "existsCityNode",
      "outputs": [
        {
          "internalType": "bool",
          "name": "",
          "type": "bool"
        }
      ],
      "stateMutability": "view",
      "type": "function"
    },
    {
      "inputs": [
        {
          "internalType": "uint256",
          "name": "nodeId",
          "type": "uint256"
        },
        {
          "internalType": "address",
          "name": "sender",
          "type": "address"
        }
      ],
      "name": "inNode",
      "outputs": [
        {
          "internalType": "bool",
          "name": "",
          "type": "bool"
        }
      ],
      "stateMutability": "view",
      "type": "function"
    },
    {
      "inputs": [
        {
          "internalType": "address",
          "name": "sender",
          "type": "address"
        }
      ],
      "name": "getUserNode",
      "outputs": [
        {
          "internalType": "uint256",
          "name": "",
          "type": "uint256"
        }
      ],
      "stateMutability": "view",
      "type": "function"
    },
    {
      "inputs": [
        {
          "internalType": "address",
          "name": "addr",
          "type": "address"
        }
      ],
      "name": "setVote",
      "outputs": [],
      "stateMutability": "nonpayable",
      "type": "function"
    },
    {
      "inputs": [
        {
          "internalType": "address",
          "name": "addr",
          "type": "address"
        }
      ],
      "name": "setGov721",
      "outputs": [],
      "stateMutability": "nonpayable",
      "type": "function"
    },
    {
      "inputs": [
        {
          "internalType": "address",
          "name": "addr",
          "type": "address"
        }
      ],
      "name": "setNewFundManagement",
      "outputs": [],
      "stateMutability": "nonpayable",
      "type": "function"
    },
    {
      "inputs": [
        {
          "internalType": "uint256",
          "name": "id",
          "type": "uint256"
        }
      ],
      "name": "getBlockNumber",
      "outputs": [
        {
          "internalType": "uint256",
          "name": "",
          "type": "uint256"
        }
      ],
      "stateMutability": "view",
      "type": "function"
    },
    {
      "inputs": [
        {
          "internalType": "uint256",
          "name": "nodeId",
          "type": "uint256"
        }
      ],
      "name": "getCityNodeInfo",
      "outputs": [
        {
          "internalType": "bool",
          "name": "",
          "type": "bool"
        },
        {
          "internalType": "uint256",
          "name": "",
          "type": "uint256"
        },
        {
          "internalType": "address",
          "name": "",
          "type": "address"
        },
        {
          "internalType": "uint256",
          "name": "",
          "type": "uint256"
        }
      ],
      "stateMutability": "view",
      "type": "function"
    },
    {
      "inputs": [
        {
          "internalType": "uint256",
          "name": "tokenId",
          "type": "uint256"
        },
        {
          "internalType": "string",
          "name": "name",
          "type": "string"
        },
        {
          "internalType": "bytes32",
          "name": "hash",
          "type": "bytes32"
        },
        {
          "internalType": "uint256",
          "name": "y",
          "type": "uint256"
        },
        {
          "internalType": "uint256",
          "name": "a",
          "type": "uint256"
        }
      ],
      "name": "createNode",
      "outputs": [],
      "stateMutability": "nonpayable",
      "type": "function"
    },
    {
      "inputs": [
        {
          "internalType": "uint256",
          "name": "nodeId",
          "type": "uint256"
        }
      ],
      "name": "joinNode",
      "outputs": [],
      "stateMutability": "nonpayable",
      "type": "function"
    },
    {
      "inputs": [],
      "name": "quitNode",
      "outputs": [],
      "stateMutability": "nonpayable",
      "type": "function"
    },
    {
      "inputs": [
        {
          "internalType": "uint256",
          "name": "id",
          "type": "uint256"
        }
      ],
      "name": "getCityNodeFMAddress",
      "outputs": [
        {
          "internalType": "address",
          "name": "",
          "type": "address"
        }
      ],
      "stateMutability": "view",
      "type": "function"
    },
    {
      "inputs": [
        {
          "internalType": "uint256",
          "name": "id",
          "type": "uint256"
        }
      ],
      "name": "getCityTrueId",
      "outputs": [
        {
          "internalType": "uint256",
          "name": "",
          "type": "uint256"
        }
      ],
      "stateMutability": "view",
      "type": "function"
    },
    {
      "inputs": [
        {
          "internalType": "uint256",
          "name": "nodeId",
          "type": "uint256"
        },
        {
          "internalType": "uint256",
          "name": "tokenId",
          "type": "uint256"
        }
      ],
      "name": "lengthen",
      "outputs": [],
      "stateMutability": "nonpayable",
      "type": "function"
    },
    {
      "inputs": [
        {
          "internalType": "uint256",
          "name": "nodeId",
          "type": "uint256"
        }
      ],
      "name": "activeToCampaign",
      "outputs": [],
      "stateMutability": "nonpayable",
      "type": "function"
    },
    {
      "inputs": [
        {
          "internalType": "uint256",
          "name": "nodeId",
          "type": "uint256"
        },
        {
          "internalType": "uint256",
          "name": "tokenId",
          "type": "uint256"
        }
      ],
      "name": "applyManager",
      "outputs": [],
      "stateMutability": "nonpayable",
      "type": "function"
    },
    {
      "inputs": [
        {
          "internalType": "uint256",
          "name": "nodeId",
          "type": "uint256"
        },
        {
          "internalType": "uint256",
          "name": "voteId",
          "type": "uint256"
        },
        {
          "internalType": "address",
          "name": "applicant",
          "type": "address"
        }
      ],
      "name": "getExistsApplyUsers",
      "outputs": [
        {
          "internalType": "bool",
          "name": "",
          "type": "bool"
        }
      ],
      "stateMutability": "view",
      "type": "function"
    },
    {
      "inputs": [
        {
          "internalType": "uint256",
          "name": "nodeId",
          "type": "uint256"
        },
        {
          "internalType": "uint256",
          "name": "voteId",
          "type": "uint256"
        },
        {
          "internalType": "address",
          "name": "user",
          "type": "address"
        },
        {
          "internalType": "uint256",
          "name": "tickets",
          "type": "uint256"
        }
      ],
      "name": "voteToManager",
      "outputs": [],
      "stateMutability": "nonpayable",
      "type": "function"
    },
    {
      "inputs": [
        {
          "internalType": "uint256",
          "name": "nodeId",
          "type": "uint256"
        },
        {
          "internalType": "uint256",
          "name": "voteId",
          "type": "uint256"
        }
      ],
      "name": "endToManager",
      "outputs": [],
      "stateMutability": "nonpayable",
      "type": "function"
    },
    {
      "inputs": [
        {
          "internalType": "uint256",
          "name": "nodeId",
          "type": "uint256"
        },
        {
          "internalType": "uint256",
          "name": "voteId",
          "type": "uint256"
        }
      ],
      "name": "getWinner",
      "outputs": [
        {
          "internalType": "address",
          "name": "",
          "type": "address"
        },
        {
          "internalType": "uint256",
          "name": "",
          "type": "uint256"
        }
      ],
      "stateMutability": "view",
      "type": "function"
    },
    {
      "inputs": [
        {
          "internalType": "uint256",
          "name": "nodeId",
          "type": "uint256"
        }
      ],
      "name": "activeToParliaments",
      "outputs": [],
      "stateMutability": "nonpayable",
      "type": "function"
    },
    {
      "inputs": [
        {
          "internalType": "uint256",
          "name": "id",
          "type": "uint256"
        }
      ],
      "name": "getParliamentLength",
      "outputs": [
        {
          "internalType": "uint256",
          "name": "",
          "type": "uint256"
        }
      ],
      "stateMutability": "view",
      "type": "function"
    },
    {
      "inputs": [
        {
          "internalType": "uint256",
          "name": "id",
          "type": "uint256"
        },
        {
          "internalType": "uint256",
          "name": "i",
          "type": "uint256"
        }
      ],
      "name": "getParliamentByIndex",
      "outputs": [
        {
          "internalType": "address",
          "name": "",
          "type": "address"
        }
      ],
      "stateMutability": "view",
      "type": "function"
    },
    {
      "inputs": [
        {
          "internalType": "uint256",
          "name": "nodeId",
          "type": "uint256"
        }
      ],
      "name": "applyParliament",
      "outputs": [],
      "stateMutability": "nonpayable",
      "type": "function"
    },
    {
      "inputs": [
        {
          "internalType": "uint256",
          "name": "nodeId",
          "type": "uint256"
        },
        {
          "internalType": "uint256",
          "name": "voteId",
          "type": "uint256"
        }
      ],
      "name": "getApplyParliament",
      "outputs": [
        {
          "internalType": "uint256",
          "name": "",
          "type": "uint256"
        }
      ],
      "stateMutability": "view",
      "type": "function"
    },
    {
      "inputs": [
        {
          "internalType": "uint256",
          "name": "nodeId",
          "type": "uint256"
        }
      ],
      "name": "getApplyParliamentVoteId",
      "outputs": [
        {
          "internalType": "uint256",
          "name": "",
          "type": "uint256"
        }
      ],
      "stateMutability": "view",
      "type": "function"
    },
    {
      "inputs": [
        {
          "internalType": "uint256",
          "name": "nodeId",
          "type": "uint256"
        },
        {
          "internalType": "uint256",
          "name": "voteId",
          "type": "uint256"
        },
        {
          "internalType": "address",
          "name": "user",
          "type": "address"
        },
        {
          "internalType": "uint256",
          "name": "tickets",
          "type": "uint256"
        }
      ],
      "name": "voteToParliament",
      "outputs": [],
      "stateMutability": "nonpayable",
      "type": "function"
    },
    {
      "inputs": [
        {
          "internalType": "uint256",
          "name": "nodeId",
          "type": "uint256"
        },
        {
          "internalType": "uint256",
          "name": "voteId",
          "type": "uint256"
        }
      ],
      "name": "endToParliament",
      "outputs": [],
      "stateMutability": "nonpayable",
      "type": "function"
    },
    {
      "inputs": [
        {
          "internalType": "uint256",
          "name": "nodeId",
          "type": "uint256"
        },
        {
          "internalType": "uint256",
          "name": "voteId",
          "type": "uint256"
        },
        {
          "internalType": "uint256",
          "name": "index",
          "type": "uint256"
        }
      ],
      "name": "setParliament",
      "outputs": [],
      "stateMutability": "nonpayable",
      "type": "function"
    },
    {
      "inputs": [
        {
          "internalType": "uint256",
          "name": "nodeId",
          "type": "uint256"
        }
      ],
      "name": "parliamentTakeOffice",
      "outputs": [],
      "stateMutability": "nonpayable",
      "type": "function"
    },
    {
      "inputs": [
        {
          "internalType": "uint256",
          "name": "nodeId",
          "type": "uint256"
        },
        {
          "internalType": "address",
          "name": "user",
          "type": "address"
        }
      ],
      "name": "removeParliament",
      "outputs": [],
      "stateMutability": "nonpayable",
      "type": "function"
    },
    {
      "inputs": [
        {
          "internalType": "uint256",
          "name": "nodeId",
          "type": "uint256"
        },
        {
          "internalType": "address",
          "name": "user",
          "type": "address"
        }
      ],
      "name": "hasParliament",
      "outputs": [
        {
          "internalType": "bool",
          "name": "",
          "type": "bool"
        }
      ],
      "stateMutability": "view",
      "type": "function"
    },
    {
      "inputs": [
        {
          "internalType": "uint256",
          "name": "nodeId",
          "type": "uint256"
        }
      ],
      "name": "parliamentInfo",
      "outputs": [
        {
          "internalType": "uint256",
          "name": "",
          "type": "uint256"
        },
        {
          "internalType": "bool",
          "name": "",
          "type": "bool"
        },
        {
          "internalType": "uint256",
          "name": "",
          "type": "uint256"
        }
      ],
      "stateMutability": "view",
      "type": "function"
    },
    {
      "inputs": [
        {
          "internalType": "uint256",
          "name": "nodeId",
          "type": "uint256"
        },
        {
          "internalType": "address",
          "name": "token",
          "type": "address"
        },
        {
          "internalType": "uint256",
          "name": "amount",
          "type": "uint256"
        }
      ],
      "name": "receiveReward",
      "outputs": [],
      "stateMutability": "nonpayable",
      "type": "function"
    },
    {
      "inputs": [
        {
          "internalType": "uint256",
          "name": "nodeId",
          "type": "uint256"
        },
        {
          "internalType": "address",
          "name": "token",
          "type": "address"
        },
        {
          "internalType": "uint256",
          "name": "amount",
          "type": "uint256"
        },
        {
          "internalType": "address",
          "name": "receiver",
          "type": "address"
        },
        {
          "internalType": "uint256",
          "name": "impeachType",
          "type": "uint256"
        }
      ],
      "name": "impeachExtract",
      "outputs": [],
      "stateMutability": "nonpayable",
      "type": "function"
    },
    {
      "inputs": [
        {
          "internalType": "uint256",
          "name": "nodeId",
          "type": "uint256"
        },
        {
          "internalType": "address",
          "name": "manager",
          "type": "address"
        }
      ],
      "name": "setManagerInfo",
      "outputs": [],
      "stateMutability": "nonpayable",
      "type": "function"
    },
    {
      "inputs": [
        {
          "internalType": "uint256",
          "name": "nodeId",
          "type": "uint256"
        }
      ],
      "name": "getNodeCityGov",
      "outputs": [
        {
          "internalType": "uint256",
          "name": "",
          "type": "uint256"
        }
      ],
      "stateMutability": "view",
      "type": "function"
    }
  ],
  "bytecode": "0x60806040523480156200001157600080fd5b506040516200389238038062003892833981016040819052620000349162000083565b600080546001600160a01b039384166001600160a01b03199182161790915560018054929093169116179055620000ba565b80516001600160a01b03811681146200007e57600080fd5b919050565b6000806040838503121562000096578182fd5b620000a18362000066565b9150620000b16020840162000066565b90509250929050565b6137c880620000ca6000396000f3fe608060405234801561001057600080fd5b50600436106103425760003560e01c80637fc554fa116101b8578063adf340e911610104578063ea968aad116100a2578063ee068d761161007c578063ee068d7614610704578063f2f4eb2614610717578063f3c1afac146105d6578063ffdfcadf1461071f57610342565b8063ea968aad146106d2578063ed04088a146106da578063ed725ee5146106e257610342565b8063c5256d57116100de578063c5256d5714610691578063d2004c4414610699578063e5e8eb44146106ac578063e6257152146106bf57610342565b8063adf340e914610658578063b06904b71461066b578063be29ae2b1461067e57610342565b80638e9602461161017157806399a723e41161014b57806399a723e414610622578063a004bbab1461062a578063a33db09614610632578063abaa3af81461064557610342565b80638e960246146105e95780639193d7a0146105fc57806393a9a4481461060f57610342565b80637fc554fa14610577578063800096301461058a57806381ffb4fc1461059d578063845b46b1146105b05780638b7f0f95146105c35780638c18f9f9146105d657610342565b806359b4dd40116102925780636d9068b11161023057806373043d801161020a57806373043d801461052b578063781e84361461053e5780637ad8e5ce146105515780637c21f2b41461056457610342565b80636d9068b1146104fd5780636da68ee7146105105780637288d9651461052357610342565b806361fb40e11161026c57806361fb40e1146104bc57806362dc732d146104cf5780636a656bb5146104e25780636c6b33d5146104ea57610342565b806359b4dd401461048357806360d1c46e14610496578063615ea6d4146104a957610342565b806339292cab116102ff57806350c0fbe4116102d957806350c0fbe41461042a578063514992f81461043d57806351536cbc1461045d578063549d4a2f1461047057610342565b806339292cab146103e357806339dc0a89146103f657806339ff487b1461040957610342565b80630d53191e14610347578063135b54dd1461035c578063249a40cd1461037a5780632717d8261461039d57806330e94979146103bd578063310e5cf5146103d0575b600080fd5b61035a6103553660046131b6565b610732565b005b61036461088e565b604051610371919061326e565b60405180910390f35b61038d610388366004612fb1565b61091a565b6040516103719493929190613337565b6103b06103ab36600461315d565b610957565b6040516103719190613646565b61035a6103cb36600461315d565b61097f565b61035a6103de366004612fb1565b610a93565b6103b06103f1366004612fb1565b610c68565b61035a610404366004612fe1565b610c7a565b61041c61041736600461315d565b610cc1565b6040516103719291906132e9565b6103b0610438366004612fb1565b610dbe565b61045061044b36600461317e565b610dd3565b604051610371919061332c565b61041c61046b3660046131f4565b610e7e565b61035a61047e366004613098565b610ed2565b61035a610491366004613047565b611236565b6104506104a4366004612fe1565b6112e5565b61035a6104b7366004613010565b611300565b61041c6104ca3660046131f4565b611425565b6103646104dd36600461315d565b61144d565b610364611470565b61035a6104f8366004612f59565b61147f565b61035a61050b366004612fb1565b61153d565b61035a61051e366004612fb1565b61167a565b6103646117c5565b61035a610539366004612fb1565b6117d4565b61045061054c36600461317e565b611914565b6103b061055f366004612f59565b61193a565b6103b0610572366004612fb1565b611955565b61035a61058536600461315d565b611967565b61035a610598366004612f59565b611b32565b61035a6105ab366004612fe1565b611c16565b6103b06105be36600461315d565b611c74565b6104506105d1366004612fe1565b611ca5565b6103b06105e4366004612fb1565b611cc1565b61035a6105f73660046131f4565b611cd6565b61035a61060a366004612f59565b611dab565b61045061061d366004612fb1565b611e69565b610364611e7d565b6103b0611e8c565b6103b061064036600461317e565b611e92565b6103b0610653366004612fb1565b611eb5565b6103b0610666366004612f59565b611ecf565b61035a610679366004612fb1565b611ee1565b61036461068c36600461315d565b61205a565b610364612092565b61035a6106a7366004612f59565b6120a1565b61035a6106ba36600461315d565b61215f565b61035a6106cd3660046131b6565b6122b7565b610364612329565b61035a612338565b6106f56106f0366004612fb1565b61249d565b6040516103719392919061366e565b61035a61071236600461315d565b6124c5565b610364612740565b61036461072d366004612fb1565b61274f565b60035433906001600160a01b031681146107675760405162461bcd60e51b815260040161075e9061335d565b60405180910390fd5b6000858152600a6020526040902054841461078157600080fd5b600061078d8686610957565b90506000805b828110156108755760008881526009602090815260408083208a845290915290208054829081106107d457634e487b7160e01b600052603260045260246000fd5b60009182526020909120600290910201546001600160a01b03878116911614156108635760008881526009602090815260408083208a845290915290208054600193508691908390811061083857634e487b7160e01b600052603260045260246000fd5b906000526020600020906002020160010160008282546108589190613692565b909155506108759050565b8061086d81613733565b915050610793565b5060018115151461088557600080fd5b50505050505050565b60008060009054906101000a90046001600160a01b03166001600160a01b03166318f7d8626040518163ffffffff1660e01b815260040160206040518083038186803b1580156108dd57600080fd5b505afa1580156108f1573d6000803e3d6000fd5b505050506040513d601f19601f820116820180604052508101906109159190612f75565b905090565b6000908152600560205260409020600e810154600c82015460018301546003909301546201000090920460ff169390926001600160a01b03169190565b6000828152600960209081526040808320600a83528184205484529091529020545b92915050565b6109898233611ca5565b6109a55760405162461bcd60e51b815260040161075e906133eb565b600082815260056020526040902060018101546001600160a01b031633146109df5760405162461bcd60e51b815260040161075e9061349b565b4281600c015462093a806109f39190613692565b11610a105760405162461bcd60e51b815260040161075e906135c8565b610a198261276d565b80600c01544210610a3b57610a314262278d00613692565b600c820155610a53565b600c810154610a4d9062278d00613692565b600c8201555b7fa9a60f6e109dc11179b918525405fc6b263e22a54f6d1bbb1f766755af629d5b833342604051610a869392919061364f565b60405180910390a1505050565b3360009081526004602052604090205415610ac05760405162461bcd60e51b815260040161075e906133c0565b610ac981611e69565b610ae55760405162461bcd60e51b815260040161075e906135ed565b6000818152600560205260409020610b006009820133612913565b50336000908152600b820160209081526040808320429055600490915290208290556001600f82018054906000610b3683613733565b9091555050600e820154610100900460ff16158015610b5a5750600c82600f015411155b15610b8e5760008381526006602090815260408220805460018101825590835291200180546001600160a01b031916331790555b81600f0154600c1415610c6357600e8201805461ff001916610100179055610bb9426276a700613692565b600c83015560005b600084815260066020526040902054811015610c615760008481526006602052604090208054610c29919083908110610c0a57634e487b7160e01b600052603260045260246000fd5b60009182526020909120015460048501906001600160a01b0316612913565b50610c374262278d00613692565b600684015560078301805460ff19169055600b600884015580610c5981613733565b915050610bc1565b505b505050565b600a6020526000908152604090205481565b60035433906001600160a01b03168114610ca65760405162461bcd60e51b815260040161075e9061335d565b6000838152600560205260409020610c619060040183612928565b60008060018180805b60008881526008602090815260408083208a8452909152902054811015610db25760008881526008602090815260408083208a84529091528120805483908110610d2457634e487b7160e01b600052603260045260246000fd5b600091825260208083206002909202909101548b83526007825260408084208c855283528084206001600160a01b0390921680855291909252912054909150851015610d9f5760008981526007602090815260408083208b845282528083206001600160a01b03851684529091529020549450909250905081815b5080610daa81613733565b915050610cca565b50969095509350505050565b60009081526005602052604090206011015490565b6000805b6000858152600860209081526040808320878452909152902054811015610e715760008581526008602090815260408083208784529091529020805482908110610e3157634e487b7160e01b600052603260045260246000fd5b60009182526020909120600290910201546001600160a01b0384811691161415610e5f576001915050610e77565b80610e6981613733565b915050610dd7565b50600090505b9392505050565b60096020528260005260406000206020528160005260406000208181548110610ea657600080fd5b6000918252602090912060029091020180546001909101546001600160a01b0390911693509150839050565b8181601054604051602001610ee993929190613258565b604051602081830303815290604052805190602001208314610f0a57600080fd5b610f138561276d565b60028054906000610f2383613733565b9190505550600f60009054906101000a90046001600160a01b03166001600160a01b031663c91851316040518163ffffffff1660e01b8152600401602060405180830381600087803b158015610f7857600080fd5b505af1158015610f8c573d6000803e3d6000fd5b505050506040513d601f19601f82011682018060405250810190610fb09190612f75565b50600280546000818152600560209081526040808320938455600180850180546001600160a01b0319163317905542958501959095559354845163cf7e7b8d60e01b8152945193946001600160a01b03919091169363cf7e7b8d93600480840194938390030190829087803b15801561102857600080fd5b505af115801561103c573d6000803e3d6000fd5b505050506040513d601f19601f820116820180604052508101906110609190612fc9565b6003820155600e8101805461ffff19169055600f546040805163c918513160e01b815290516001600160a01b039092169163c9185131916004808201926020929091908290030181600087803b1580156110b957600080fd5b505af11580156110cd573d6000803e3d6000fd5b505050506040513d601f19601f820116820180604052508101906110f19190612f75565b6010820180546001600160a01b0319166001600160a01b0392909216919091179055845161112890600d8301906020880190612ec0565b50600e8101805462ff000019169055426011820155601281018381556000848152600b60209081526040808320855481546001810183559185529284200191909155915481522054600a14156111e057600d54601282015460405163a575270d60e01b81526001600160a01b039092169163a575270d916111ad918690600401613684565b600060405180830381600087803b1580156111c757600080fd5b505af11580156111db573d6000803e3d6000fd5b505050505b80543360008181526004602052604090819020839055517f74acbc7639e1eba237becdd560e82c27b205059ae5fde0221eb2c998d8a39cc192611226929091429061364f565b60405180910390a1505050505050565b60035433906001600160a01b031681146112625760405162461bcd60e51b815260040161075e9061335d565b6000868152600560205260409081902060100154905163219dcc0d60e01b81526001600160a01b0390911690819063219dcc0d906112aa90879089908b908990600401613302565b600060405180830381600087803b1580156112c457600080fd5b505af11580156112d8573d6000803e3d6000fd5b5050505050505050505050565b6000828152600560205260408120610e77906004018361293d565b60008381526005602052604090819020601001549051635ab764ed60e01b81526001600160a01b039091169082908290635ab764ed906113469033908890600401613282565b60206040518083038186803b15801561135e57600080fd5b505afa158015611372573d6000803e3d6000fd5b505050506040513d601f19601f820116820180604052508101906113969190612fc9565b10156113b45760405162461bcd60e51b815260040161075e90613410565b604051636894b48360e01b81526001600160a01b03821690636894b483906113e7903390879087906002906004016132c0565b600060405180830381600087803b15801561140157600080fd5b505af1158015611415573d6000803e3d6000fd5b50505050610c6183823385612952565b60086020528260005260406000206020528160005260406000208181548110610ea657600080fd5b60008281526005602052604081206114686004820184612a3a565b949350505050565b600f546001600160a01b031681565b600054604051631c86b03760e31b81526001600160a01b039091169063e43581b8906114af90339060040161326e565b60206040518083038186803b1580156114c757600080fd5b505afa1580156114db573d6000803e3d6000fd5b505050506040513d601f19601f820116820180604052508101906114ff9190612f91565b61151b5760405162461bcd60e51b815260040161075e90613543565b600380546001600160a01b0319166001600160a01b0392909216919091179055565b6000818152600560209081526040808320600c83528184206003820154855283528184203385529092529091205460ff1661158a5760405162461bcd60e51b815260040161075e9061349b565b683635c9adc5dea0000061159c61088e565b6001600160a01b03166370a08231336040518263ffffffff1660e01b81526004016115c7919061326e565b60206040518083038186803b1580156115df57600080fd5b505afa1580156115f3573d6000803e3d6000fd5b505050506040513d601f19601f820116820180604052508101906116179190612fc9565b10156116355760405162461bcd60e51b815260040161075e906134be565b61165f61164061088e565b601083015433906001600160a01b0316683635c9adc5dea00000612952565b6000828152600560205260409020610c639060040133612913565b6116848133611ca5565b6116a05760405162461bcd60e51b815260040161075e906133eb565b6000818152600560205260409020600681015442116116be57600080fd5b600781015460ff16156116d057600080fd5b60006116de60048301612a46565b905060005b8181101561171e5760006116fa6004850183612a3a565b90506117096004850182612928565b5050808061171690613733565b9150506116e3565b5060078201805460ff19166001908117909155546040805163cf7e7b8d60e01b815290516001600160a01b039092169163cf7e7b8d916004818101926020929091908290030181600087803b15801561177657600080fd5b505af115801561178a573d6000803e3d6000fd5b505050506040513d601f19601f820116820180604052508101906117ae9190612fc9565b6000938452600a6020526040909320929092555050565b600e546001600160a01b031681565b6117de8133611ca5565b6117fa5760405162461bcd60e51b815260040161075e906133eb565b6000818152600560205260409020600c810154429061181c9062093a80613692565b106118395760405162461bcd60e51b815260040161075e906135c8565b600e81015462010000900460ff16156118645760405162461bcd60e51b815260040161075e90613389565b600181810180546001600160a01b0319169055546040805163cf7e7b8d60e01b815290516001600160a01b039092169163cf7e7b8d916004808201926020929091908290030181600087803b1580156118bc57600080fd5b505af11580156118d0573d6000803e3d6000fd5b505050506040513d601f19601f820116820180604052508101906118f49190612fc9565b6003820155436011820155600e01805462ff000019166201000017905550565b600c60209081526000938452604080852082529284528284209052825290205460ff1681565b6001600160a01b031660009081526004602052604090205490565b6000908152600a602052604090205490565b6119718233611ca5565b61198d5760405162461bcd60e51b815260040161075e906133eb565b6000828152600560205260409020600101546001600160a01b0316156119c55760405162461bcd60e51b815260040161075e906135c8565b6000828152600560205260409020600301546119e390839033610dd3565b156119ed57600080fd5b60008281526008602090815260408083206005835281842060030154845290915290205460071115611a5c576000828152600560205260409020600c01544290611a3a9062093a80613692565b10611a575760405162461bcd60e51b815260040161075e906135c8565b611ac4565b6000828152600560205260409020600c01544290611a7d9062093a80613692565b108015611aa857506000828152600560205260409020600c01544290611aa69062127500613692565b115b611ac45760405162461bcd60e51b815260040161075e906135c8565b604080518082018252338152602080820193845260009485526008815282852060058252838620600301548652815291842080546001808201835591865292909420905160029092020180546001600160a01b0319166001600160a01b039092169190911781559051910155565b600054604051631c86b03760e31b81526001600160a01b039091169063e43581b890611b6290339060040161326e565b60206040518083038186803b158015611b7a57600080fd5b505afa158015611b8e573d6000803e3d6000fd5b505050506040513d601f19601f82011682018060405250810190611bb29190612f91565b611bce5760405162461bcd60e51b815260040161075e90613543565b600080546001600160a01b0319166001600160a01b038316908117825560405190917fad9400e618eb1344fde53db22397a1b82c765527ecbba3a5c86bcac15090828b91a250565b60035433906001600160a01b03168114611c425760405162461bcd60e51b815260040161075e9061335d565b5060009182526005602052604090912060010180546001600160a01b0319166001600160a01b03909216919091179055565b600b6020528160005260406000208181548110611c9057600080fd5b90600052602060002001600091509150505481565b6001600160a01b03166000908152600460205260409020541490565b60009081526005602052604090206012015490565b60035433906001600160a01b03168114611d025760405162461bcd60e51b815260040161075e9061335d565b60008481526009602090815260408083208684529091528120805484908110611d3b57634e487b7160e01b600052603260045260246000fd5b60009182526020808320600290920290910154878352600c8252604080842088855283528084206001600160a01b03909216808552918352808420805460ff19166001179055888452600590925290822060080180549193509091611d9f83613733565b91905055505050505050565b600054604051631c86b03760e31b81526001600160a01b039091169063e43581b890611ddb90339060040161326e565b60206040518083038186803b158015611df357600080fd5b505afa158015611e07573d6000803e3d6000fd5b505050506040513d601f19601f82011682018060405250810190611e2b9190612f91565b611e475760405162461bcd60e51b815260040161075e90613543565b600f80546001600160a01b0319166001600160a01b0392909216919091179055565b600090815260056020526040902054151590565b6001546001600160a01b031681565b60025481565b600760209081526000938452604080852082529284528284209052825290205481565b6000818152600560205260408120610e7760048201612a46565b60046020526000908152604090205481565b611eeb8133611ca5565b611f075760405162461bcd60e51b815260040161075e906133eb565b6000818152600560205260409020611f2061164061088e565b60108101546001600160a01b031663ffb8b458611f3b61088e565b683635c9adc5dea000006040518363ffffffff1660e01b8152600401611f6292919061345f565b600060405180830381600087803b158015611f7c57600080fd5b505af1158015611f90573d6000803e3d6000fd5b505050600782015460ff1615156001149050611fab57600080fd5b6000828152600960209081526040808320600a8352818420548452909152902054600f811015611ffd5760068201544211611ff85760405162461bcd60e51b815260040161075e906135c8565b61203d565b60068201544211801561202157506006820154429061201f9062093a80613692565b115b61203d5760405162461bcd60e51b815260040161075e906135c8565b6000838152600a6020526040812054610c63918591903390612a51565b6006602052816000526040600020818154811061207657600080fd5b6000918252602090912001546001600160a01b03169150829050565b600d546001600160a01b031681565b600054604051631c86b03760e31b81526001600160a01b039091169063e43581b8906120d190339060040161326e565b60206040518083038186803b1580156120e957600080fd5b505afa1580156120fd573d6000803e3d6000fd5b505050506040513d601f19601f820116820180604052508101906121219190612f91565b61213d5760405162461bcd60e51b815260040161075e90613543565b600e80546001600160a01b0319166001600160a01b0392909216919091179055565b60035433906001600160a01b0316811461218b5760405162461bcd60e51b815260040161075e9061335d565b6000838152600860209081526040808320858452909152902054600711156121c55760405162461bcd60e51b815260040161075e90613514565b6000806121d28585610cc1565b6000878152600560205260409020600e8101805462ff0000191690556001810180546001600160a01b0319166001600160a01b038516179055919350915061221d426276a700613692565b600c82015561222f600482018461293d565b15612243576122416004820184612928565b505b60005b600087815260086020908152604080832089845290915290205481101561088557600087815260086020908152604080832089845290915281208054839081106122a057634e487b7160e01b600052603260045260246000fd5b5060005250806122af81613733565b915050612246565b60035433906001600160a01b031681146122e35760405162461bcd60e51b815260040161075e9061335d565b600085815260076020908152604080832087845282528083206001600160a01b03871684529091528120805484929061231d908490613692565b90915550505050505050565b6003546001600160a01b031681565b336000908152600460205260409020546123645760405162461bcd60e51b815260040161075e90613434565b336000818152600460209081526040808320548352600590915290209061238f906009830190612928565b50336000819052600b820160205260018201546001600160a01b0316141561246057600181810180546001600160a01b0319169055546040805163cf7e7b8d60e01b815290516001600160a01b039092169163cf7e7b8d916004808201926020929091908290030181600087803b15801561240957600080fd5b505af115801561241d573d6000803e3d6000fd5b505050506040513d601f19601f820116820180604052508101906124419190612fc9565b6003820155436011820155600e8101805462ff00001916620100001790555b6001600f82018054906000612474836136e1565b909155506124879050600483013361293d565b1561249957610c636004830133612928565b5050565b600090815260056020526040902060068101546007820154600890920154909260ff90921691565b60035433906001600160a01b031681146124f15760405162461bcd60e51b815260040161075e9061335d565b60008381526005602052604081209061250a8585610957565b9050600f81101561252d5760405162461bcd60e51b815260040161075e9061361b565b600782015460ff16151560011461254357600080fd5b6000858152600960209081526040808320600a8352818420548452909152812061256d9183612ab8565b60078201805460ff191690556125864262278d00613692565b600683015560005b600c811015612613576000868152600960209081526040808320600a8352818420548452909152902080546126009190839081106125dc57634e487b7160e01b600052603260045260246000fd5b600091825260209091206002909102015460048501906001600160a01b0316612913565b508061260b81613733565b91505061258e565b50600c81111561273957600c5b81811015612737576000868152600960209081526040808320600a8352818420548452909152812080548390811061266857634e487b7160e01b600052603260045260246000fd5b600091825260208220600290910201546001600160a01b0316915061268b612740565b6001600160a01b03166318f7d8626040518163ffffffff1660e01b815260040160206040518083038186803b1580156126c357600080fd5b505afa1580156126d7573d6000803e3d6000fd5b505050506040513d601f19601f820116820180604052508101906126fb9190612f75565b60108601549091506127229082906001600160a01b031633683635c9adc5dea00000612952565b5050808061272f90613733565b915050612620565b505b5050505050565b6000546001600160a01b031690565b6000908152600560205260409020601001546001600160a01b031690565b600e5460405163bf81bf4360e01b815242916001600160a01b03169063bf81bf439061279d908590600401613646565b60206040518083038186803b1580156127b557600080fd5b505afa1580156127c9573d6000803e3d6000fd5b505050506040513d601f19601f820116820180604052508101906127ed9190612fc9565b1161280a5760405162461bcd60e51b815260040161075e906134e6565b600e546040516331a9108f60e11b815233916001600160a01b031690636352211e9061283a908590600401613646565b60206040518083038186803b15801561285257600080fd5b505afa158015612866573d6000803e3d6000fd5b505050506040513d601f19601f8201168201806040525081019061288a9190612f75565b6001600160a01b0316146128b05760405162461bcd60e51b815260040161075e9061349b565b600e54604051632142170760e11b81526001600160a01b03909116906342842e0e906128e5903390600090869060040161329c565b600060405180830381600087803b1580156128ff57600080fd5b505af1158015612739573d6000803e3d6000fd5b6000610e77836001600160a01b038416612d05565b6000610e77836001600160a01b038416612d4f565b6000610e77836001600160a01b038416612e6c565b600080856001600160a01b03166323b872dd8686866040516024016129799392919061329c565b6040516020818303038152906040529060e01b6020820180516001600160e01b0383818316178352505050506040516129b2919061321f565b6000604051808303816000865af19150503d80600081146129ef576040519150601f19603f3d011682016040523d82523d6000602084013e6129f4565b606091505b5091509150818015612a1e575080511580612a1e575080806020019051810190612a1e9190612f91565b6127375760405162461bcd60e51b815260040161075e90613584565b6000610e778383612e84565b600061097982612ebc565b5050604080518082018252338152600060208083018281529582526009815283822094825293845291822080546001808201835591845293909220905160029093020180546001600160a01b0319166001600160a01b039093169290921782559151910155565b818180821415612ac9575050610c63565b6000856002612ad887876136ca565b612ae291906136aa565b612aec9087613692565b81548110612b0a57634e487b7160e01b600052603260045260246000fd5b90600052602060002090600202016001015490505b818311612cdf575b80868481548110612b4857634e487b7160e01b600052603260045260246000fd5b9060005260206000209060020201600101541015612b725782612b6a81613733565b935050612b27565b858281548110612b9257634e487b7160e01b600052603260045260246000fd5b906000526020600020906002020160010154811015612bbd5781612bb5816136e1565b925050612b72565b818311612cda57858281548110612be457634e487b7160e01b600052603260045260246000fd5b9060005260206000209060020201868481548110612c1257634e487b7160e01b600052603260045260246000fd5b9060005260206000209060020201878581548110612c4057634e487b7160e01b600052603260045260246000fd5b90600052602060002090600202016000898681548110612c7057634e487b7160e01b600052603260045260246000fd5b60009182526020909120845460029092020180546001600160a01b039283166001600160a01b0319918216178255600195860154918601919091558554845492169116178255509181015491015582612cc881613733565b9350508180612cd6906136e1565b9250505b612b1f565b81851015612cf257612cf2868684612ab8565b8383101561273757612737868486612ab8565b6000612d118383612e6c565b612d4757508154600181810184556000848152602080822090930184905584548482528286019093526040902091909155610979565b506000610979565b60008181526001830160205260408120548015612e62576000612d736001836136ca565b8554909150600090612d87906001906136ca565b9050818114612e08576000866000018281548110612db557634e487b7160e01b600052603260045260246000fd5b9060005260206000200154905080876000018481548110612de657634e487b7160e01b600052603260045260246000fd5b6000918252602080832090910192909255918252600188019052604090208390555b8554869080612e2757634e487b7160e01b600052603160045260246000fd5b600190038181906000526020600020016000905590558560010160008681526020019081526020016000206000905560019350505050610979565b6000915050610979565b60009081526001919091016020526040902054151590565b6000826000018281548110612ea957634e487b7160e01b600052603260045260246000fd5b9060005260206000200154905092915050565b5490565b828054612ecc906136f8565b90600052602060002090601f016020900481019282612eee5760008555612f34565b82601f10612f0757805160ff1916838001178555612f34565b82800160010185558215612f34579182015b82811115612f34578251825591602001919060010190612f19565b50612f40929150612f44565b5090565b5b80821115612f405760008155600101612f45565b600060208284031215612f6a578081fd5b8135610e778161377a565b600060208284031215612f86578081fd5b8151610e778161377a565b600060208284031215612fa2578081fd5b81518015158114610e77578182fd5b600060208284031215612fc2578081fd5b5035919050565b600060208284031215612fda578081fd5b5051919050565b60008060408385031215612ff3578081fd5b8235915060208301356130058161377a565b809150509250929050565b600080600060608486031215613024578081fd5b8335925060208401356130368161377a565b929592945050506040919091013590565b600080600080600060a0868803121561305e578081fd5b8535945060208601356130708161377a565b93506040860135925060608601356130878161377a565b949793965091946080013592915050565b600080600080600060a086880312156130af578081fd5b8535945060208087013567ffffffffffffffff808211156130ce578384fd5b818901915089601f8301126130e1578384fd5b8135818111156130f3576130f3613764565b604051601f8201601f191681018501838111828210171561311657613116613764565b60405281815283820185018c101561312c578586fd5b8185850186830137908101909301939093525094979496505050506040830135926060810135926080909101359150565b6000806040838503121561316f578182fd5b50508035926020909101359150565b600080600060608486031215613192578283fd5b833592506020840135915060408401356131ab8161377a565b809150509250925092565b600080600080608085870312156131cb578384fd5b843593506020850135925060408501356131e48161377a565b9396929550929360600135925050565b600080600060608486031215613208578081fd5b505081359360208301359350604090920135919050565b60008251815b8181101561323f5760208186018101518583015201613225565b8181111561324d5782828501525b509190910192915050565b9283526020830191909152604082015260600190565b6001600160a01b0391909116815260200190565b6001600160a01b0392831681529116602082015260400190565b6001600160a01b039384168152919092166020820152604081019190915260600190565b6001600160a01b0394851681529290931660208301526040820152606081019190915260800190565b6001600160a01b03929092168252602082015260400190565b6001600160a01b039485168152602081019390935292166040820152606081019190915260800190565b901515815260200190565b931515845260208401929092526001600160a01b03166040830152606082015260800190565b60208082526012908201527173656e646572206973206e6f7420766f746560701b604082015260600190565b6020808252601c908201527f696e20766f7465506572696f64206e6f20616363657373206564697400000000604082015260600190565b602080825260119082015270757365722020657869737473206e6f646560781b604082015260600190565b6020808252600b908201526a6e6f7420696e206e6f646560a81b604082015260600190565b6020808252600a90820152690dcdee840cadcdeeaced60b31b604082015260600190565b60208082526011908201527075736572206e6f7420696e20206e6f646560781b604082015260600190565b6060808252600c908201526b5055424c49435f53544f524560a01b60808201526001600160a01b03929092166020830152604082015260a00190565b6020808252600990820152686e6f2061636365737360b81b604082015260600190565b6020808252600e908201526d1b9bdd08195b9bdd59da081c989d60921b604082015260600190565b6020808252601490820152731391951d1bdad95b88081a5cc8195e1c1a5c995960621b604082015260600190565b6020808252601590820152746e6f206861766520656e6f7567682070656f706c6560581b604082015260600190565b60208082526021908201527f436f72655265663a2043616c6c6572206973206e6f74206120676f7665726e6f6040820152603960f91b606082015260800190565b60208082526024908201527f5472616e7366657248656c7065723a205452414e534645525f46524f4d5f46416040820152631253115160e21b606082015260800190565b6020808252600b908201526a6e6f7420696e2074696d6560a81b604082015260600190565b6020808252601490820152736e6f74206578697374732074686973206e6f646560601b604082015260600190565b6020808252601190820152706e6f7420656e6f7567682070656f706c6560781b604082015260600190565b90815260200190565b9283526001600160a01b03919091166020830152604082015260600190565b9283529015156020830152604082015260600190565b918252602082015260400190565b600082198211156136a5576136a561374e565b500190565b6000826136c557634e487b7160e01b81526012600452602481fd5b500490565b6000828210156136dc576136dc61374e565b500390565b6000816136f0576136f061374e565b506000190190565b60028104600182168061370c57607f821691505b6020821081141561372d57634e487b7160e01b600052602260045260246000fd5b50919050565b60006000198214156137475761374761374e565b5060010190565b634e487b7160e01b600052601160045260246000fd5b634e487b7160e01b600052604160045260246000fd5b6001600160a01b038116811461378f57600080fd5b5056fea26469706673582212207278932237591d36eb88c7545f94803719db04a77676350e0584b931ea208fbe64736f6c63430008000033",
  "immutableReferences": {},
  "source": "pragma solidity ^0.8.0;\r\n\r\nimport '../interface/gov/ICityNode.sol';\r\n\r\nimport '../interface/gov/IParliament.sol';\r\nimport '../interface/gov/IGovernanceCommittee.sol';\r\nimport '../interface/gov/IBlockNumber.sol';\r\n import '../interface/gov/ICityNodeFundManagement.sol';\r\n import '../interface/gov/INewFundManagement.sol';\r\n//import './CityNodeFundManagement.sol';\r\nimport '@openzeppelin/contracts/utils/math/SafeMath.sol';\r\n\r\n//import {PublicStructs} from '../utils/PublicStructs.sol';\r\nimport '@openzeppelin/contracts/utils/structs/EnumerableSet.sol';\r\n\r\nimport \"../lib/TransferHelper.sol\";\r\n\r\nimport '../ref/VoteIdRef.sol';\r\nimport \"../ref/CoreRef.sol\";\r\nimport \"../interface/token721/IGovernance721.sol\";\r\n\r\n\r\ncontract CityNode is ICityNode,CoreRef,IParliament,VoteIdRef,IBlockNumber {\r\n\r\n    using SafeMath for uint256;\r\n  \r\n    using EnumerableSet for EnumerableSet.AddressSet;\r\n\r\n    struct parliamentData {\r\n        EnumerableSet.AddressSet parliament; //\r\n        uint expireTime;\r\n        bool votePeriod; //\r\n        uint impeachIndex; //\r\n    }\r\n\r\n    struct memberData {\r\n        EnumerableSet.AddressSet member; //\r\n        mapping(address => uint) joinTime;\r\n    }\r\n\r\n    struct cityNode {\r\n        uint id;\r\n        address manager;  //citynode 's manager\r\n        uint creationTime;\r\n        uint voteId;  // this node's current voteId\r\n        parliamentData parliaments;\r\n        memberData members;\r\n        uint expireTime;\r\n        string name;\r\n        bool active;\r\n        bool firstActive;\r\n        bool votePeriod;//\r\n        uint ElfUperCount; //\r\n        address cfm; //\r\n        uint proposalBlockNumber;\r\n        uint cityId;\r\n    }\r\n\r\n    struct applyRecord {\r\n        address account;\r\n        uint tokenId;\r\n    }\r\n      struct parliamentApply {\r\n        address account;\r\n        uint tickets;\r\n    }\r\n    //\r\n    uint public cityNodeCount;\r\n    //\r\n    address public voteAddr;\r\n    //\r\n    mapping(address => uint) public  userNode; //user in where node\r\n\r\n    //\r\n    mapping(uint => cityNode) private cityNodes;\r\n\r\n    //\r\n    mapping(uint => address[]) public beforeActiveElf;\r\n    //\r\n    mapping(uint => mapping(uint => mapping(address => uint))) public voteRecords;\r\n\r\n    //\r\n    mapping(uint => mapping(uint => applyRecord[])) public userApplyRecords;\r\n\r\n    mapping(uint => mapping(uint => parliamentApply[])) public parliamentApplyRecords;\r\n\r\n    //ID\r\n    mapping(uint => uint) public nodeParliamentVoteId;\r\n\r\n    mapping(uint => uint[]) public cityGovNodes; //ID\r\n\r\n    mapping(uint => mapping(uint =>mapping(address => bool))) public parliamentUp; //\r\n    address public cityGovernanceAddr;\r\n\r\n\r\n\r\n    IGovernance721 public Gov721;\r\nINewFundManagement public NewFundManagement;\r\n\r\n    //\r\n    bytes32  private  secret;\r\n\r\n    //    mapping(uint => mapping(uint => uint)) public impeachIndex;\r\n\r\n    event cityNodeCreate(uint id, address manager, uint creationTime);\r\n\r\n    event lengthenManager(uint id, address sender, uint creationTime);\r\n\r\n    modifier _onlyVote(address sender) {\r\n        require(sender == voteAddr, \"sender is not vote\");\r\n        _;\r\n    }\r\n    \r\n    \r\n\r\n\r\n    constructor(address core,address voteIdAddr) public  CoreRef(core)  VoteIdRef(voteIdAddr) {}\r\n\r\n    /*\r\n          @dev \r\n          @params nodeId ID\r\n          @return  bool true\r\n      */\r\n    function existsCityNode(uint nodeId) public view override returns (bool){\r\n        return cityNodes[nodeId].id != 0;\r\n    }\r\n    /*\r\n          @dev \r\n          @params nodeId ID\r\n          @params sender \r\n          @return  bool true\r\n      */\r\n    function inNode(uint nodeId, address sender) public view override returns (bool) {\r\n        //        require(userNode[sender] == nodeId, \"not in\");\r\n        return userNode[sender] == nodeId;\r\n    }\r\n    function getUserNode(address sender) external view override returns(uint) {\r\n        return userNode[sender];\r\n    }\r\n\r\n     function setVote(address addr) public  onlyGovernor() {\r\n        voteAddr = addr;\r\n    }\r\n\r\n    function setGov721(address addr) public onlyGovernor() {\r\n        Gov721 = IGovernance721(addr);\r\n    }\r\n\r\n    function setNewFundManagement(address addr) public onlyGovernor(){\r\n        NewFundManagement = INewFundManagement(addr);\r\n    }\r\n    /*\r\n      @dev \r\n  */\r\n    function getBlockNumber(uint id) external override view returns(uint) {\r\n        return cityNodes[id].proposalBlockNumber;\r\n    }\r\n\r\n    /*\r\n          @dev \r\n          @params nodeId ID\r\n          @return \r\n      */\r\n    function getCityNodeInfo(uint nodeId) external view override returns (bool, uint, address, uint) {\r\n        return (cityNodes[nodeId].votePeriod, cityNodes[nodeId].expireTime, cityNodes[nodeId].manager, cityNodes[nodeId].voteId);\r\n    }\r\n\r\n    /*\r\n\r\n    */\r\n\r\n    function _destroyGovToken(uint tokenId) internal {\r\n        require(Gov721.expire(tokenId) > block.timestamp,'NFTtoken  is expired');\r\n        require(Gov721.ownerOf(tokenId) == msg.sender,'no access');\r\n        Gov721.safeTransferFrom(msg.sender,address(0),tokenId);\r\n    }\r\n\r\n    /*\r\n       @dev \r\n       @params tokenId ID\r\n   */\r\n    function createNode(uint tokenId,string memory name, bytes32  hash,uint y,uint a) external override {\r\n        //todo for test close\r\n        require(hash ==  keccak256(abi.encodePacked(y, a, secret)));\r\n        _destroyGovToken(tokenId);\r\n        cityNodeCount++;\r\n        NewFundManagement.newInit();\r\n        cityNode storage c = cityNodes[cityNodeCount];\r\n        c.id = cityNodeCount;\r\n        c.manager = msg.sender;\r\n        c.creationTime = block.timestamp;\r\n        c.voteId = IVoteId(voteIdAddress).incrVoteId();\r\n        c.active = false;\r\n        c.firstActive = false;\r\n        c.cfm =  NewFundManagement.newInit();\r\n        c.name = name;\r\n        c.votePeriod = false;\r\n        c.proposalBlockNumber = block.timestamp;\r\n        c.cityId = y;\r\n\r\n        cityGovNodes[c.cityId].push(c.id);\r\n        if(cityGovNodes[c.cityId].length == 10){\r\n            IGovernanceCommittee(cityGovernanceAddr).newGovernanceCommittee(c.cityId,a);\r\n        }\r\n        userNode[msg.sender] = c.id;\r\n\r\n        emit cityNodeCreate(c.id, msg.sender, block.timestamp);\r\n    }\r\n\r\n    // function verifySign(bytes32  hash,uint8 v, bytes32 r, bytes32 s) public view returns (address){\r\n  \r\n    //     // bytes32  r = bytesToBytes32(slice(signedString, 0, 32));\r\n    //     // bytes32  s = bytesToBytes32(slice(signedString, 32, 32));\r\n    //     // byte  v1 = slice(signedString, 64, 1)[0];\r\n    //     // uint8 v = uint8(v1) + 27;\r\n    //     return ecrecoverDecode(hash, r, s, v);\r\n    // }\r\n\r\n    //ecrecover\r\n//    function ecrecoverDecode(bytes32  hash,bytes32 r, bytes32 s, uint8 v) public view returns (address addr){\r\n//       addr = ecrecover(hash, v, r, s);\r\n//    }\r\n\r\n      //function sliceBytes(string)\r\n\r\n    //\r\n    // function slice(bytes memory data, uint start, uint len) returns (bytes){\r\n    //     bytes memory b = new bytes(len);\r\n    \r\n    //     for(uint i = 0; i < len; i++){\r\n    //       b[i] = data[i + start];\r\n    //     }\r\n    //     return b;\r\n    // }\r\n    /*\r\n       @dev \r\n       @params nodeId ID\r\n      */\r\n    function joinNode(uint nodeId) external override {\r\n        require(userNode[msg.sender] == 0, 'user  exists node');\r\n        require(existsCityNode(nodeId), 'not exists this node');\r\n        //\r\n        cityNode storage cn = cityNodes[nodeId];\r\n        cn.members.member.add(msg.sender);\r\n        cn.members.joinTime[msg.sender] = block.timestamp;\r\n        //todo \r\n        userNode[msg.sender] = nodeId;\r\n        bool isElf = true;\r\n        if (isElf) {\r\n            cn.ElfUperCount++;\r\n            //\r\n            if (cn.firstActive == false && cn.ElfUperCount <= 12) {\r\n                beforeActiveElf[nodeId].push(msg.sender);\r\n            }\r\n            if (cn.ElfUperCount == 12) {\r\n                cn.firstActive = true;\r\n                cn.active == true;\r\n                //todo for test close\r\n                 cn.expireTime = block.timestamp + 90 days;\r\n//                 cn.expireTime = 0;\r\n                //90\r\n                //12\r\n                for (uint i = 0; i < beforeActiveElf[nodeId].length; i++) {\r\n                    cn.parliaments.parliament.add(beforeActiveElf[nodeId][i]);\r\n                    //todo for test close\r\n                     cn.parliaments.expireTime = block.timestamp + 30 days;\r\n//                    cn.parliaments.expireTime = 0;\r\n                    //30\r\n                    cn.parliaments.votePeriod = false;\r\n                    cn.parliaments.impeachIndex = 11;\r\n                }\r\n            }\r\n        }\r\n    }\r\n\r\n\r\n    /*\r\n@dev \r\n*/\r\n    function quitNode() external override {\r\n        require(userNode[msg.sender] != 0, 'user not in  node');\r\n        cityNode storage cn = cityNodes[userNode[msg.sender]];\r\n        cn.members.member.remove(msg.sender);\r\n        cn.members.joinTime[msg.sender] == 0;\r\n        //\r\n        if(msg.sender == cn.manager) {\r\n            cn.manager =  address(0);\r\n            cn.voteId = IVoteId(voteIdAddress).incrVoteId();\r\n            cn.proposalBlockNumber = block.number;\r\n            cn.votePeriod = true;\r\n        }\r\n        //todo \r\n        bool isElf = true;\r\n        if (isElf) {\r\n            cn.ElfUperCount--;\r\n            //\r\n            if (cn.parliaments.parliament.contains(msg.sender)) {\r\n                cn.parliaments.parliament.remove(msg.sender);\r\n            }\r\n        }\r\n    }\r\n\r\n    function getCityNodeFMAddress(uint id) public view returns(address){\r\n        return cityNodes[id].cfm;\r\n    }\r\n\r\n    function getCityTrueId(uint id) public override view returns(uint) {\r\n        return cityNodes[id].cityId;\r\n    }\r\n\r\n    /*\r\n    @dev \r\n    @params nodeId ID\r\n    */\r\n    function lengthen(uint nodeId,uint tokenId) external override {\r\n        require(inNode(nodeId, msg.sender), 'not in node');\r\n        cityNode storage cn = cityNodes[nodeId];\r\n        require(msg.sender == cn.manager, 'no access');\r\n        require(cn.expireTime + 7 days > block.timestamp, 'not in time');\r\n        _destroyGovToken(tokenId);\r\n        if (block.timestamp >= cn.expireTime) {\r\n            cn.expireTime = block.timestamp + 30 days;\r\n        } else {\r\n            cn.expireTime = cn.expireTime + 30 days;\r\n        }\r\n        emit lengthenManager(nodeId, msg.sender, block.timestamp);\r\n    }\r\n\r\n\r\n    /*\r\n    @dev   \r\n    @params nodeId ID\r\n    */\r\n    function activeToCampaign(uint nodeId) external override {\r\n        require(inNode(nodeId, msg.sender), 'not in node');\r\n        cityNode storage cn = cityNodes[nodeId];\r\n        require(cn.expireTime + 7 days < block.timestamp, 'not in time');\r\n        require(cn.votePeriod == false,'in votePeriod no access edit');\r\n        cn.manager =  address(0);\r\n        cn.voteId = IVoteId(voteIdAddress).incrVoteId();\r\n        cn.proposalBlockNumber = block.number;\r\n        cn.votePeriod = true;\r\n    }\r\n    /*\r\n  @dev /\r\n  @params nodeId ID\r\n  @params tokenId id\r\n\r\n  */\r\n    function applyManager(uint nodeId, uint tokenId) external override {\r\n\r\n        require(inNode(nodeId, msg.sender), 'not in node');\r\n        require(cityNodes[nodeId].manager == address(0),'not in time');\r\n//        _destroyGovToken(tokenId);\r\n        require(getExistsApplyUsers(nodeId,cityNodes[nodeId].voteId,msg.sender) == false);\r\n        if(userApplyRecords[nodeId][cityNodes[nodeId].voteId].length < 7 ){\r\n            require(cityNodes[nodeId].expireTime + 7 days < block.timestamp, 'not in time');\r\n        } else {\r\n            require(cityNodes[nodeId].expireTime + 7 days < block.timestamp && cityNodes[nodeId].expireTime + 14 days > block.timestamp, 'not in time');\r\n        }\r\n        applyRecord memory ar = applyRecord({\r\n        account : msg.sender,\r\n        tokenId : tokenId\r\n        });\r\n        userApplyRecords[nodeId][cityNodes[nodeId].voteId].push(ar);\r\n    }\r\n\r\n\r\n    /*\r\n    @dev /\r\n    @params nodeId ID\r\n    @params voteId ID\r\n    @params applicant Id\r\n    @return bool true\r\n    */\r\n    function getExistsApplyUsers(uint nodeId, uint voteId, address applicant) public override view returns (bool){\r\n        for (uint i = 0; i < userApplyRecords[nodeId][voteId].length; i++) {\r\n            if (applicant == userApplyRecords[nodeId][voteId][i].account) {\r\n                return true;\r\n            }\r\n        }\r\n        return false;\r\n    }\r\n\r\n\r\n    /*\r\n    @dev /\r\n    @params nodeId ID\r\n    @params voteId ID\r\n    @params user \r\n    @params tickets \r\n    */\r\n    function voteToManager(uint nodeId, uint voteId, address user, uint tickets) external override _onlyVote(msg.sender) {\r\n        voteRecords[nodeId][voteId][user] += tickets;\r\n    }\r\n\r\n    /*\r\n    @dev \r\n    @params nodeId ID\r\n    @params voteId ID\r\n\r\n    */\r\n    function endToManager(uint nodeId, uint voteId) external override _onlyVote(msg.sender) {\r\n        require(userApplyRecords[nodeId][voteId].length >= 7,'no have enough people');\r\n        (address winner,uint index) = getWinner(nodeId, voteId);\r\n        cityNode storage cn = cityNodes[nodeId];\r\n        cn.votePeriod = false;\r\n        cn.manager = winner;\r\n        cn.expireTime = block.timestamp + 90 days;\r\n        if (cn.parliaments.parliament.contains(winner)) {\r\n            cn.parliaments.parliament.remove(winner);\r\n        }\r\n        for (uint i = 0; i < userApplyRecords[nodeId][voteId].length; i++) {\r\n            address user = userApplyRecords[nodeId][voteId][i].account;\r\n            if (i != index) {\r\n                //todo 721token token\r\n            }\r\n        }\r\n        // cn.voteId++;\r\n    }\r\n    /*\r\n        @dev  \r\n        @params nodeId ID\r\n        @params voteId ID\r\n        @return   \r\n    */\r\n    function getWinner(uint nodeId, uint voteId) public view returns (address, uint){\r\n        uint max = 1;\r\n        uint index;\r\n        address winner = address(0);\r\n        for (uint i = 0; i < userApplyRecords[nodeId][voteId].length; i++) {\r\n            address user = userApplyRecords[nodeId][voteId][i].account;\r\n            if (voteRecords[nodeId][voteId][user] > max) {\r\n                winner = user;\r\n                max = voteRecords[nodeId][voteId][user];\r\n                index = i;\r\n            }\r\n        }\r\n        return (winner, index);\r\n    }\r\n\r\n    /*\r\n        @dev \r\n        @params nodeId ID\r\n    */\r\n    function activeToParliaments(uint nodeId) external {\r\n        require(inNode(nodeId, msg.sender), 'not in node');\r\n        cityNode storage cn = cityNodes[nodeId];\r\n        require(cn.parliaments.expireTime < block.timestamp);\r\n        require(cn.parliaments.votePeriod == false);\r\n        //\r\n        uint parliamentLength = cn.parliaments.parliament.length();\r\n        for (uint i = 0; i < parliamentLength; i++) {\r\n            address user = cn.parliaments.parliament.at(i);\r\n            cn.parliaments.parliament.remove(user);\r\n        }\r\n        cn.parliaments.votePeriod = true;\r\n        nodeParliamentVoteId[nodeId] =  IVoteId(voteIdAddress).incrVoteId();\r\n    }\r\n    \r\n    function getParliamentLength(uint id) public view returns(uint){\r\n          cityNode storage cn = cityNodes[id];\r\n          return cn.parliaments.parliament.length();\r\n    }\r\n    \r\n    function getParliamentByIndex(uint id,uint i) public view returns(address){\r\n         cityNode storage cn = cityNodes[id];\r\n         return cn.parliaments.parliament.at(i);\r\n    }\r\n\r\n    /*\r\n@dev /\r\n@params nodeId ID\r\n\r\n*/\r\n    function applyParliament(uint nodeId) external override {\r\n        require(inNode(nodeId, msg.sender), 'not in node');\r\n        //todo \r\n\r\n     \r\n        \r\n        cityNode storage cn = cityNodes[nodeId];\r\n\r\n        TransferHelper.safeTransferFrom(address(Rbt()),msg.sender,cn.cfm,1000 * 10 ** 18);\r\n        ICityNodeFundManagement(cn.cfm).addTokenStorage('PUBLIC_STORE',address(Rbt()),1000 * 10 ** 18);\r\n        require(cn.parliaments.votePeriod == true);\r\n        uint length = parliamentApplyRecords[nodeId][nodeParliamentVoteId[nodeId]].length;\r\n        if (length < 15) {\r\n            require(cn.parliaments.expireTime < block.timestamp, 'not in time');\r\n        } else {\r\n            require(cn.parliaments.expireTime < block.timestamp && cn.parliaments.expireTime + 7 days > block.timestamp, 'not in time');\r\n        }\r\n\r\n        _setParliamentApply(nodeId,nodeParliamentVoteId[nodeId],msg.sender,0);\r\n    }\r\n    \r\n         /*\r\n        @dev \r\n    */\r\n    function _setParliamentApply(uint id, uint voteId,address sender,uint tickets) internal  {\r\n        parliamentApply memory ar = parliamentApply({\r\n            account : msg.sender,\r\n            tickets : 0\r\n        });\r\n        parliamentApplyRecords[id][voteId].push(ar);\r\n    }\r\n\r\n    /*\r\n    @dev /\r\n    @params nodeId ID\r\n    @params voteId ID\r\n    @params user \r\n    @params tickets \r\n    */\r\n    // function voteToParliament(uint nodeId,uint voteId,address user,uint tickets) external override _onlyVote(msg.sender) {\r\n    //     voteRecords[nodeId][voteId][user]+= tickets;\r\n    // }\r\n\r\n    /*\r\n    @dev /\r\n    @params nodeId ID\r\n    @params voteId ID\r\n    @return \r\n    */\r\n    function getApplyParliament(uint nodeId, uint voteId) public view override returns (uint){\r\n        uint length = parliamentApplyRecords[nodeId][nodeParliamentVoteId[nodeId]].length;\r\n        return length;\r\n    }\r\n\r\n    /*\r\n  @dev /duoqianID\r\n  @params nodeId ID\r\n  @return ID\r\n  */\r\n    function getApplyParliamentVoteId(uint nodeId) external view override returns (uint){\r\n        return nodeParliamentVoteId[nodeId];\r\n    }\r\n\r\n    /*\r\n  @dev /\r\n  @params nodeId ID\r\n  @params voteId ID\r\n  @params user \r\n  @params tickets \r\n  */\r\n\r\n    function voteToParliament(uint nodeId, uint voteId, address user, uint tickets) external override _onlyVote(msg.sender) {\r\n        require(voteId == nodeParliamentVoteId[nodeId]);\r\n        (uint length) = getApplyParliament(nodeId, voteId);\r\n        bool existsUser = false;\r\n        for (uint i = 0; i < length; i++) {\r\n            if (user == parliamentApplyRecords[nodeId][voteId][i].account) {\r\n                existsUser = true;\r\n                parliamentApplyRecords[nodeId][voteId][i].tickets += (tickets);\r\n                break;\r\n            }\r\n        }\r\n        require(existsUser == true);\r\n    }\r\n\r\n    /*\r\n @dev \r\n @params nodeId ID\r\n @params voteId ID\r\n\r\n */\r\n\r\n    function endToParliament(uint nodeId, uint voteId) external override _onlyVote(msg.sender) {\r\n     cityNode storage cn = cityNodes[nodeId];\r\n        (uint length) = getApplyParliament(nodeId, voteId);\r\n             require(length >=15 ,'not enough people');\r\n        require( cn.parliaments.votePeriod == true);\r\n        _quickSort(parliamentApplyRecords[nodeId][nodeParliamentVoteId[nodeId]], 0, length);\r\n      \r\n        cn.parliaments.votePeriod = false;\r\n        cn.parliaments.expireTime = block.timestamp + 30 days;\r\n        //30\r\n        for (uint i = 0; i < 12; i++) {\r\n            cn.parliaments.parliament.add(parliamentApplyRecords[nodeId][nodeParliamentVoteId[nodeId]][i].account);\r\n        }\r\n        if (length > 12) {\r\n            for (uint i = 12; i < length; i++) {\r\n                address user = parliamentApplyRecords[nodeId][nodeParliamentVoteId[nodeId]][i].account;\r\n                 IERC20 rbt = core().rbt();\r\n                TransferHelper.safeTransferFrom(address(rbt),cn.cfm,msg.sender,1000 * 10 ** 18);\r\n            }\r\n        }\r\n    }\r\n\r\n    /*\r\n     @dev \r\n     @params nodeid id\r\n     @params voteId \r\n     @params index \r\n    */\r\n    function setParliament(uint nodeId, uint voteId, uint index) external override _onlyVote(msg.sender) {\r\n        address user = parliamentApplyRecords[nodeId][voteId][index].account;\r\n        parliamentUp[nodeId][voteId][user] = true;\r\n//        cityNodes[nodeId].parliaments.parliament.add(user);\r\n        cityNodes[nodeId].parliaments.impeachIndex++;\r\n    }\r\n\r\n    /*\r\n        @dev\r\n    */\r\n    function parliamentTakeOffice(uint nodeId) public {\r\n        cityNode storage cn = cityNodes[nodeId];\r\n        require(parliamentUp[nodeId][cn.voteId][msg.sender],'no access');\r\n        require( IERC20( address(Rbt())).balanceOf(msg.sender) >= 1000 * 10 ** 18,'not enough rbt');\r\n        TransferHelper.safeTransferFrom(address(Rbt()),msg.sender,cn.cfm,1000 * 10 ** 18);\r\n        cityNodes[nodeId].parliaments.parliament.add(msg.sender);\r\n    }\r\n\r\n\r\n    /*\r\n         @dev \r\n         @params nodeid id\r\n         @params user \r\n\r\n     */\r\n    function removeParliament(uint nodeId, address user) external override _onlyVote(msg.sender) {\r\n        cityNodes[nodeId].parliaments.parliament.remove(user);\r\n    }\r\n\r\n    /*\r\n          @dev \r\n          @params id\r\n          @return true  false\r\n      */\r\n    function hasParliament(uint nodeId, address user) external override view returns (bool){\r\n        return cityNodes[nodeId].parliaments.parliament.contains(user);\r\n    }\r\n\r\n    /*\r\n        @dev \r\n        @params id\r\n        @return \r\n    */\r\n    function parliamentInfo(uint nodeId) external override view returns (uint, bool, uint){\r\n        return (cityNodes[nodeId].parliaments.expireTime, cityNodes[nodeId].parliaments.votePeriod, cityNodes[nodeId].parliaments.impeachIndex);\r\n    }\r\n\r\n    /*\r\n        @dev \r\n    */\r\n    function receiveReward(uint nodeId,address token,uint amount) external  {\r\n          address cfm = cityNodes[nodeId].cfm;\r\n        require(ICityNodeFundManagement(cfm).getUserReward(msg.sender,token) >= amount,'not enough');\r\n\r\n        ICityNodeFundManagement(cfm).setUserReward(msg.sender,token,amount,2);\r\n         TransferHelper.safeTransferFrom(token,cfm,msg.sender,amount);\r\n    }\r\n\r\n\r\n\r\n    /*\r\n        @dev \r\n        @params nodeId ID\r\n        @params voteId ID\r\n    */\r\n\r\n    function impeachExtract(uint nodeId, address token, uint amount, address receiver, uint impeachType) external override _onlyVote(msg.sender) {\r\n        address cfm = cityNodes[nodeId].cfm;\r\n        ICityNodeFundManagement(cfm).impeachTokenSend(receiver, amount, token, impeachType);\r\n    }\r\n\r\n\r\n\r\n\r\n    /*\r\n        @dev \r\n        @params ID\r\n        @params \r\n\r\n    */\r\n    function setManagerInfo(uint nodeId, address manager) external override _onlyVote(msg.sender) {\r\n        cityNodes[nodeId].manager = manager;\r\n    }\r\n\r\n    function getNodeCityGov(uint nodeId) external override view returns(uint) {\r\n        return cityNodes[nodeId].cityId;\r\n    }\r\n\r\n\r\n    /*\r\n        @dev  \r\n        @params arr \r\n        @params left \r\n        @params right \r\n    */\r\n\r\n    function _quickSort(parliamentApply[] storage arr, uint left, uint right) internal {\r\n        uint i = left;\r\n        uint j = right;\r\n        if (i == j) return;\r\n        uint pivot = arr[uint(left + (right - left) / 2)].tickets;\r\n        while (i <= j) {\r\n            while (arr[uint(i)].tickets < pivot) i++;\r\n            while (pivot < arr[uint(j)].tickets) j--;\r\n            if (i <= j) {\r\n                (arr[uint(i)], arr[uint(j)]) = (arr[uint(j)], arr[uint(i)]);\r\n                i++;\r\n                j--;\r\n            }\r\n        }\r\n        if (left < j)\r\n            _quickSort(arr, left, j);\r\n        if (i < right)\r\n            _quickSort(arr, i, right);\r\n    }\r\n\r\n    //bytesbytes32\r\n    // function bytesToBytes32(bytes memory source) public returns (bytes32 result) {\r\n    //     assembly {\r\n    //         result := mload(add(source, 32))\r\n    //     }\r\n    // }\r\n}\r\n",
  "sourcePath": "D://rainbow/RainbowDao-protocol/contracts/gov/CityNode.sol",
  "compiler": {
    "name": "solc",
    "version": "0.8.0+commit.c7dfd78e.Emscripten.clang"
  },
  "schemaVersion": "3.4.1",
  "updatedAt": "2021-10-16T03:51:57.809Z",
  "networkType": "ethereum",
  "devdoc": {
    "kind": "dev",
    "methods": {
      "Rbt()": {
        "returns": {
          "_0": "IFei implementation address"
        }
      },
      "core()": {
        "returns": {
          "_0": "ICore implementation address"
        }
      }
    },
    "version": 1
  },
  "userdoc": {
    "kind": "user",
    "methods": {
      "Rbt()": {
        "notice": "address of the Fei contract referenced by Core"
      },
      "core()": {
        "notice": "address of the Core contract referenced"
      }
    },
    "version": 1
  }
}