{
  "contractName": "CityGovernanceCommittee",
  "abi": [
    {
      "inputs": [
        {
          "internalType": "address",
          "name": "nodeAddress",
          "type": "address"
        },
        {
          "internalType": "address",
          "name": "core",
          "type": "address"
        },
        {
          "internalType": "address",
          "name": "voteIdAddr",
          "type": "address"
        }
      ],
      "stateMutability": "nonpayable",
      "type": "constructor"
    },
    {
      "anonymous": false,
      "inputs": [
        {
          "indexed": true,
          "internalType": "address",
          "name": "_core",
          "type": "address"
        }
      ],
      "name": "CoreUpdate",
      "type": "event"
    },
    {
      "anonymous": false,
      "inputs": [
        {
          "indexed": false,
          "internalType": "uint256",
          "name": "id",
          "type": "uint256"
        },
        {
          "indexed": false,
          "internalType": "uint256",
          "name": "cityId",
          "type": "uint256"
        },
        {
          "indexed": false,
          "internalType": "uint256",
          "name": "creationTime",
          "type": "uint256"
        }
      ],
      "name": "cityGovernanceCreate",
      "type": "event"
    },
    {
      "inputs": [],
      "name": "Ip",
      "outputs": [
        {
          "internalType": "contract IParliament",
          "name": "",
          "type": "address"
        }
      ],
      "stateMutability": "view",
      "type": "function"
    },
    {
      "inputs": [],
      "name": "Rbt",
      "outputs": [
        {
          "internalType": "contract IERC20",
          "name": "",
          "type": "address"
        }
      ],
      "stateMutability": "view",
      "type": "function"
    },
    {
      "inputs": [
        {
          "internalType": "uint256",
          "name": "",
          "type": "uint256"
        },
        {
          "internalType": "uint256",
          "name": "",
          "type": "uint256"
        }
      ],
      "name": "areaCity",
      "outputs": [
        {
          "internalType": "uint256",
          "name": "",
          "type": "uint256"
        }
      ],
      "stateMutability": "view",
      "type": "function"
    },
    {
      "inputs": [],
      "name": "areaGovernanceAddr",
      "outputs": [
        {
          "internalType": "address",
          "name": "",
          "type": "address"
        }
      ],
      "stateMutability": "view",
      "type": "function"
    },
    {
      "inputs": [
        {
          "internalType": "uint256",
          "name": "",
          "type": "uint256"
        }
      ],
      "name": "cityByArea",
      "outputs": [
        {
          "internalType": "uint256",
          "name": "",
          "type": "uint256"
        }
      ],
      "stateMutability": "view",
      "type": "function"
    },
    {
      "inputs": [
        {
          "internalType": "uint256",
          "name": "",
          "type": "uint256"
        }
      ],
      "name": "cityGovernances",
      "outputs": [
        {
          "internalType": "uint256",
          "name": "id",
          "type": "uint256"
        },
        {
          "internalType": "uint256",
          "name": "cityId",
          "type": "uint256"
        },
        {
          "internalType": "address",
          "name": "manager",
          "type": "address"
        },
        {
          "internalType": "uint256",
          "name": "creationTime",
          "type": "uint256"
        },
        {
          "internalType": "address",
          "name": "cfm",
          "type": "address"
        },
        {
          "internalType": "uint256",
          "name": "proposalBlockNumber",
          "type": "uint256"
        }
      ],
      "stateMutability": "view",
      "type": "function"
    },
    {
      "inputs": [
        {
          "internalType": "bytes32",
          "name": "",
          "type": "bytes32"
        }
      ],
      "name": "cityGovernancesBonus",
      "outputs": [
        {
          "internalType": "uint256",
          "name": "",
          "type": "uint256"
        }
      ],
      "stateMutability": "view",
      "type": "function"
    },
    {
      "inputs": [],
      "name": "cityNode",
      "outputs": [
        {
          "internalType": "contract ICityNode",
          "name": "",
          "type": "address"
        }
      ],
      "stateMutability": "view",
      "type": "function"
    },
    {
      "inputs": [],
      "name": "core",
      "outputs": [
        {
          "internalType": "contract ICore",
          "name": "",
          "type": "address"
        }
      ],
      "stateMutability": "view",
      "type": "function"
    },
    {
      "inputs": [],
      "name": "govCount",
      "outputs": [
        {
          "internalType": "uint256",
          "name": "",
          "type": "uint256"
        }
      ],
      "stateMutability": "view",
      "type": "function"
    },
    {
      "inputs": [
        {
          "internalType": "uint256",
          "name": "",
          "type": "uint256"
        },
        {
          "internalType": "uint256",
          "name": "",
          "type": "uint256"
        },
        {
          "internalType": "uint256",
          "name": "",
          "type": "uint256"
        }
      ],
      "name": "parliamentApplyRecords",
      "outputs": [
        {
          "internalType": "address",
          "name": "account",
          "type": "address"
        },
        {
          "internalType": "uint256",
          "name": "tickets",
          "type": "uint256"
        }
      ],
      "stateMutability": "view",
      "type": "function"
    },
    {
      "inputs": [
        {
          "internalType": "address",
          "name": "",
          "type": "address"
        },
        {
          "internalType": "address",
          "name": "",
          "type": "address"
        }
      ],
      "name": "parliamentReward",
      "outputs": [
        {
          "internalType": "uint256",
          "name": "",
          "type": "uint256"
        }
      ],
      "stateMutability": "view",
      "type": "function"
    },
    {
      "inputs": [
        {
          "internalType": "uint256",
          "name": "",
          "type": "uint256"
        },
        {
          "internalType": "uint256",
          "name": "",
          "type": "uint256"
        },
        {
          "internalType": "address",
          "name": "",
          "type": "address"
        }
      ],
      "name": "parliamentUp",
      "outputs": [
        {
          "internalType": "bool",
          "name": "",
          "type": "bool"
        }
      ],
      "stateMutability": "view",
      "type": "function"
    },
    {
      "inputs": [
        {
          "internalType": "address",
          "name": "core",
          "type": "address"
        }
      ],
      "name": "setCore",
      "outputs": [],
      "stateMutability": "nonpayable",
      "type": "function"
    },
    {
      "inputs": [],
      "name": "voteIdAddress",
      "outputs": [
        {
          "internalType": "contract IVoteId",
          "name": "",
          "type": "address"
        }
      ],
      "stateMutability": "view",
      "type": "function"
    },
    {
      "inputs": [
        {
          "internalType": "uint256",
          "name": "id",
          "type": "uint256"
        }
      ],
      "name": "getBlockNumber",
      "outputs": [
        {
          "internalType": "uint256",
          "name": "",
          "type": "uint256"
        }
      ],
      "stateMutability": "view",
      "type": "function"
    },
    {
      "inputs": [
        {
          "internalType": "uint256",
          "name": "cityGovId",
          "type": "uint256"
        },
        {
          "internalType": "address",
          "name": "sender",
          "type": "address"
        }
      ],
      "name": "inNode",
      "outputs": [
        {
          "internalType": "bool",
          "name": "",
          "type": "bool"
        }
      ],
      "stateMutability": "view",
      "type": "function"
    },
    {
      "inputs": [
        {
          "internalType": "uint256",
          "name": "id",
          "type": "uint256"
        },
        {
          "internalType": "uint256",
          "name": "areaId",
          "type": "uint256"
        }
      ],
      "name": "newGovernanceCommittee",
      "outputs": [],
      "stateMutability": "nonpayable",
      "type": "function"
    },
    {
      "inputs": [
        {
          "internalType": "uint256",
          "name": "id",
          "type": "uint256"
        }
      ],
      "name": "getAreaIdByCityId",
      "outputs": [
        {
          "internalType": "uint256",
          "name": "",
          "type": "uint256"
        }
      ],
      "stateMutability": "view",
      "type": "function"
    },
    {
      "inputs": [
        {
          "internalType": "uint256",
          "name": "id",
          "type": "uint256"
        }
      ],
      "name": "activeToParliaments",
      "outputs": [],
      "stateMutability": "nonpayable",
      "type": "function"
    },
    {
      "inputs": [
        {
          "internalType": "uint256",
          "name": "id",
          "type": "uint256"
        }
      ],
      "name": "applyParliament",
      "outputs": [],
      "stateMutability": "nonpayable",
      "type": "function"
    },
    {
      "inputs": [
        {
          "internalType": "address",
          "name": "user",
          "type": "address"
        },
        {
          "internalType": "address",
          "name": "token",
          "type": "address"
        },
        {
          "internalType": "uint256",
          "name": "mold",
          "type": "uint256"
        },
        {
          "internalType": "uint256",
          "name": "amount",
          "type": "uint256"
        }
      ],
      "name": "operateUserReward",
      "outputs": [],
      "stateMutability": "nonpayable",
      "type": "function"
    },
    {
      "inputs": [
        {
          "internalType": "uint256",
          "name": "id",
          "type": "uint256"
        }
      ],
      "name": "endToParliament",
      "outputs": [],
      "stateMutability": "nonpayable",
      "type": "function"
    },
    {
      "inputs": [
        {
          "internalType": "uint256",
          "name": "id",
          "type": "uint256"
        },
        {
          "internalType": "uint256",
          "name": "voteId",
          "type": "uint256"
        },
        {
          "internalType": "address",
          "name": "user",
          "type": "address"
        },
        {
          "internalType": "uint256",
          "name": "tickets",
          "type": "uint256"
        }
      ],
      "name": "voteToParliament",
      "outputs": [],
      "stateMutability": "nonpayable",
      "type": "function"
    },
    {
      "inputs": [
        {
          "internalType": "uint256",
          "name": "id",
          "type": "uint256"
        },
        {
          "internalType": "uint256",
          "name": "voteId",
          "type": "uint256"
        }
      ],
      "name": "getApplyParliament",
      "outputs": [
        {
          "internalType": "uint256",
          "name": "",
          "type": "uint256"
        }
      ],
      "stateMutability": "view",
      "type": "function"
    },
    {
      "inputs": [
        {
          "internalType": "uint256",
          "name": "id",
          "type": "uint256"
        }
      ],
      "name": "getCityNodeInfo",
      "outputs": [
        {
          "internalType": "bool",
          "name": "",
          "type": "bool"
        },
        {
          "internalType": "uint256",
          "name": "",
          "type": "uint256"
        },
        {
          "internalType": "address",
          "name": "",
          "type": "address"
        },
        {
          "internalType": "uint256",
          "name": "",
          "type": "uint256"
        }
      ],
      "stateMutability": "view",
      "type": "function"
    },
    {
      "inputs": [
        {
          "internalType": "uint256",
          "name": "id",
          "type": "uint256"
        },
        {
          "internalType": "address",
          "name": "user",
          "type": "address"
        }
      ],
      "name": "hasParliament",
      "outputs": [
        {
          "internalType": "bool",
          "name": "",
          "type": "bool"
        }
      ],
      "stateMutability": "view",
      "type": "function"
    },
    {
      "inputs": [
        {
          "internalType": "uint256",
          "name": "id",
          "type": "uint256"
        }
      ],
      "name": "getApplyParliamentVoteId",
      "outputs": [
        {
          "internalType": "uint256",
          "name": "",
          "type": "uint256"
        }
      ],
      "stateMutability": "view",
      "type": "function"
    },
    {
      "inputs": [
        {
          "internalType": "uint256",
          "name": "nodeId",
          "type": "uint256"
        },
        {
          "internalType": "address",
          "name": "token",
          "type": "address"
        },
        {
          "internalType": "uint256",
          "name": "amount",
          "type": "uint256"
        },
        {
          "internalType": "address",
          "name": "receiver",
          "type": "address"
        },
        {
          "internalType": "uint256",
          "name": "impeach",
          "type": "uint256"
        }
      ],
      "name": "impeachExtract",
      "outputs": [],
      "stateMutability": "nonpayable",
      "type": "function"
    },
    {
      "inputs": [
        {
          "internalType": "uint256",
          "name": "nodeId",
          "type": "uint256"
        },
        {
          "internalType": "address",
          "name": "manager",
          "type": "address"
        }
      ],
      "name": "setManagerInfo",
      "outputs": [],
      "stateMutability": "nonpayable",
      "type": "function"
    },
    {
      "inputs": [
        {
          "internalType": "uint256",
          "name": "nodeId",
          "type": "uint256"
        },
        {
          "internalType": "address",
          "name": "user",
          "type": "address"
        }
      ],
      "name": "removeParliament",
      "outputs": [],
      "stateMutability": "nonpayable",
      "type": "function"
    },
    {
      "inputs": [
        {
          "internalType": "uint256",
          "name": "nodeId",
          "type": "uint256"
        }
      ],
      "name": "parliamentInfo",
      "outputs": [
        {
          "internalType": "uint256",
          "name": "",
          "type": "uint256"
        },
        {
          "internalType": "bool",
          "name": "",
          "type": "bool"
        },
        {
          "internalType": "uint256",
          "name": "",
          "type": "uint256"
        }
      ],
      "stateMutability": "view",
      "type": "function"
    },
    {
      "inputs": [
        {
          "internalType": "uint256",
          "name": "nodeId",
          "type": "uint256"
        },
        {
          "internalType": "uint256",
          "name": "voteId",
          "type": "uint256"
        },
        {
          "internalType": "uint256",
          "name": "index",
          "type": "uint256"
        }
      ],
      "name": "setParliament",
      "outputs": [],
      "stateMutability": "nonpayable",
      "type": "function"
    },
    {
      "inputs": [
        {
          "internalType": "uint256",
          "name": "nodeId",
          "type": "uint256"
        }
      ],
      "name": "parliamentTakeOffice",
      "outputs": [],
      "stateMutability": "nonpayable",
      "type": "function"
    }
  ],
  "bytecode": "0x60806040523480156200001157600080fd5b5060405162005550380380620055508339810160408190526200003491620000a1565b600080546001600160a01b039485166001600160a01b03199182168117909255600180548216909217909155600280549385169382169390931790925560038054919093169116179055620000ea565b80516001600160a01b03811681146200009c57600080fd5b919050565b600080600060608486031215620000b6578283fd5b620000c18462000084565b9250620000d16020850162000084565b9150620000e16040850162000084565b90509250925092565b61545680620000fa6000396000f3fe60806040523480156200001157600080fd5b5060043610620002385760003560e01c80637c21f2b411620001355780638e96024611620000bd578063a781fb881162000087578063a781fb881462000505578063b06904b7146200051c578063d26486b91462000533578063ed725ee5146200053d578063f2f4eb2614620005655762000238565b80638e96024614620004b657806399a723e414620004cd57806399ec5e6414620004d7578063a575270d14620004ee5762000238565b8063828a19b911620000ff578063828a19b9146200045a57806383d962061462000471578063845020b214620004885780638b7f0f95146200049f5762000238565b80637c21f2b414620003ea578063800096301462000401578063807eb93d146200041857806381ffb4fc14620004435762000238565b806359b4dd4011620001c55780636d9068b1116200018f5780636d9068b114620003915780636da68ee714620003a857806370ca09bc14620003bf578063721bc7f614620003c9578063781e843614620003d35762000238565b806359b4dd40146200033357806360d1c46e146200034a57806366b891ac1462000370578063674b5a3014620003875762000238565b806339dc0a89116200020757806339dc0a8914620002c75780634aec743c14620002de57806350c0fbe414620002f557806351536cbc146200030c5762000238565b80630d53191e146200023d578063135b54dd1462000256578063249a40cd14620002785780632717d82614620002a1575b600080fd5b620002546200024e36600462002691565b6200056f565b005b62000260620006ca565b6040516200026f91906200273a565b60405180910390f35b6200028f6200028936600462002566565b62000750565b6040516200026f9493929190620027b9565b620002b8620002b236600462002634565b62000799565b6040516200026f9190620029ac565b62000254620002d8366004620025b7565b620007ba565b620002b8620002ef36600462002634565b62000887565b620002b86200030636600462002566565b620008b9565b620003236200031d366004620026d2565b620008ce565b6040516200026f92919062002795565b6200025462000344366004620025de565b62000923565b620003616200035b366004620025b7565b62000a73565b6040516200026f9190620027ae565b620002b86200038136600462002566565b62000a94565b6200026062000aa6565b62000254620003a236600462002566565b62000ab5565b62000254620003b936600462002566565b62000c12565b6200026062000da4565b620002b862000db3565b62000361620003e436600462002656565b62000db9565b620002b8620003fb36600462002566565b62000ddf565b62000254620004123660046200249e565b62000df4565b6200042f6200042936600462002566565b62000ee3565b6040516200026f96959493929190620029d9565b6200025462000454366004620025b7565b62000f26565b620002b86200046b36600462002566565b62000ffc565b620002b862000482366004620024bd565b6200100e565b6200025462000499366004620024fa565b6200102b565b62000361620004b0366004620025b7565b6200112b565b62000254620004c7366004620026d2565b62001258565b62000260620013a8565b620002b8620004e836600462002566565b620013b7565b62000254620004ff36600462002634565b620013c9565b620002546200051636600462002566565b62001608565b620002546200052d36600462002566565b6200192b565b6200026062001c72565b620005546200054e36600462002566565b62001c81565b6040516200026f93929190620029b5565b6200026062001cac565b60008481526005602052604090206004015483146200058d57600080fd5b60008481526005602052604090206003015460ff161515600114620005b157600080fd5b6000620005bf858562000799565b90506000805b82811015620006b157600087815260076020908152604080832089845290915290208054829081106200060857634e487b7160e01b600052603260045260246000fd5b60009182526020909120600290910201546001600160a01b03868116911614156200069c5760008781526007602090815260408083208984529091529020805460019350859190839081106200066e57634e487b7160e01b600052603260045260246000fd5b9060005260206000209060020201600101600082825462000690919062002a23565b90915550620006b19050565b80620006a88162002a93565b915050620005c5565b50600181151514620006c257600080fd5b505050505050565b60025460408051630c7bec3160e11b815290516000926001600160a01b0316916318f7d862916004808301926020929190829003018186803b1580156200071057600080fd5b505afa15801562000725573d6000803e3d6000fd5b505050506040513d601f19601f820116820180604052508101906200074b91906200257f565b905090565b600090815260056020818152604080842060038101546002808301546006865293909620909501549390925260049091015460ff9093169390926001600160a01b039092169190565b60008281526007602090815260408083208484529091529020545b92915050565b60025460405163053c328d60e31b81526001600160a01b03909116906329e1946890620007ec9033906004016200273a565b60206040518083038186803b1580156200080557600080fd5b505afa1580156200081a573d6000803e3d6000fd5b505050506040513d601f19601f8201168201806040525081019062000840919062002544565b620008685760405162461bcd60e51b81526004016200085f90620028a0565b60405180910390fd5b600082815260056020526040902062000882908262001cbb565b505050565b600a6020528160005260406000208181548110620008a457600080fd5b90600052602060002001600091509150505481565b60009081526006602052604090206005015490565b60076020528260005260406000206020528160005260406000208181548110620008f757600080fd5b6000918252602090912060029091020180546001909101546001600160a01b0390911693509150839050565b60025460405163053c328d60e31b81526001600160a01b03909116906329e1946890620009559033906004016200273a565b60206040518083038186803b1580156200096e57600080fd5b505afa15801562000983573d6000803e3d6000fd5b505050506040513d601f19601f82011682018060405250810190620009a9919062002544565b620009c85760405162461bcd60e51b81526004016200085f90620028a0565b6000858152600b602090815260408083206001600160a01b038816845290915290205483111562000a0d5760405162461bcd60e51b81526004016200085f90620027df565b6000858152600b602090815260408083206001600160a01b038816845290915290205462000a3c908462001cd2565b6000868152600b602090815260408083206001600160a01b038916845290915290205562000a6c82848662001ce0565b5050505050565b600082815260056020526040812062000a8d908362001d66565b9392505050565b600c6020526000908152604090205481565b6001546001600160a01b031681565b6000818152600d6020908152604080832060058352818420600401548452825280832033845290915290205460ff1662000b035760405162461bcd60e51b81526004016200085f9062002831565b683635c9adc5dea0000062000b17620006ca565b6001600160a01b03166370a08231336040518263ffffffff1660e01b815260040162000b4491906200273a565b60206040518083038186803b15801562000b5d57600080fd5b505afa15801562000b72573d6000803e3d6000fd5b505050506040513d601f19601f8201168201806040525081019062000b9891906200259e565b101562000bb95760405162461bcd60e51b81526004016200085f9062002854565b62000bf462000bc7620006ca565b60008381526006602052604090206004015433906001600160a01b0316683635c9adc5dea0000062001d7d565b600081815260056020526040902062000c0e903362001e72565b5050565b60008054604051633d6c72e760e11b81528392339290916001600160a01b0390911690637ad8e5ce9062000c4b9085906004016200273a565b60206040518083038186803b15801562000c6457600080fd5b505afa15801562000c79573d6000803e3d6000fd5b505050506040513d601f19601f8201168201806040525081019062000c9f91906200259e565b6000848152600660205260408082206001015491549051638c18f9f960e01b8152929350909182916001600160a01b031690638c18f9f99062000ce7908690600401620029ac565b60206040518083038186803b15801562000d0057600080fd5b505afa15801562000d15573d6000803e3d6000fd5b505050506040513d601f19601f8201168201806040525081019062000d3b91906200259e565b1462000d5b5760405162461bcd60e51b81526004016200085f9062002809565b600085815260056020526040902060020154421162000d7957600080fd5b60008581526005602052604090206003015460ff161562000d9957600080fd5b62000a6c8562001e89565b6000546001600160a01b031681565b60045481565b600d60209081526000938452604080852082529284528284209052825290205460ff1681565b60009081526005602052604090206004015490565b600254604051631c86b03760e31b81526001600160a01b039091169063e43581b89062000e269033906004016200273a565b60206040518083038186803b15801562000e3f57600080fd5b505afa15801562000e54573d6000803e3d6000fd5b505050506040513d601f19601f8201168201806040525081019062000e7a919062002544565b62000e995760405162461bcd60e51b81526004016200085f90620028d7565b600280546001600160a01b0319166001600160a01b0383169081179091556040517fad9400e618eb1344fde53db22397a1b82c765527ecbba3a5c86bcac15090828b90600090a250565b600660205260009081526040902080546001820154600283015460038401546004850154600590950154939492936001600160a01b039283169391929091169086565b60025460405163053c328d60e31b81526001600160a01b03909116906329e194689062000f589033906004016200273a565b60206040518083038186803b15801562000f7157600080fd5b505afa15801562000f86573d6000803e3d6000fd5b505050506040513d601f19601f8201168201806040525081019062000fac919062002544565b62000fcb5760405162461bcd60e51b81526004016200085f90620028a0565b60009182526006602052604090912060020180546001600160a01b0319166001600160a01b03909216919091179055565b60086020526000908152604090205481565b600960209081526000928352604080842090915290825290205481565b81600114806200103b5750816002145b6200105a5760405162461bcd60e51b81526004016200085f906200287c565b8160011415620010c2576001600160a01b0380851660009081526009602090815260408083209387168352929052205462001096908262001fc3565b6001600160a01b0380861660009081526009602090815260408083209388168352929052205562001125565b816002141562001125576001600160a01b03808516600090815260096020908152604080832093871683529290522054620010fe908262001cd2565b6001600160a01b038086166000908152600960209081526040808320938816835292905220555b50505050565b60008054604051633d6c72e760e11b815282916001600160a01b031690637ad8e5ce906200115e9086906004016200273a565b60206040518083038186803b1580156200117757600080fd5b505afa1580156200118c573d6000803e3d6000fd5b505050506040513d601f19601f82011682018060405250810190620011b291906200259e565b6000858152600660205260408082206001015491549051638c18f9f960e01b8152929350909182916001600160a01b031690638c18f9f990620011fa908690600401620029ac565b60206040518083038186803b1580156200121357600080fd5b505afa15801562001228573d6000803e3d6000fd5b505050506040513d601f19601f820116820180604052508101906200124e91906200259e565b1495945050505050565b60025460405163053c328d60e31b81526001600160a01b03909116906329e19468906200128a9033906004016200273a565b60206040518083038186803b158015620012a357600080fd5b505afa158015620012b8573d6000803e3d6000fd5b505050506040513d601f19601f82011682018060405250810190620012de919062002544565b620012fd5760405162461bcd60e51b81526004016200085f90620028a0565b600083815260076020908152604080832085845290915281208054839081106200133757634e487b7160e01b600052603260045260246000fd5b60009182526020808320600290920290910154868352600d8252604080842087855283528084206001600160a01b03909216808552918352808420805460ff191660011790558784526005928390528320909101805491935090916200139d8362002a93565b919050555050505050565b6003546001600160a01b031681565b6000908152600c602052604090205490565b60048054906000620013db8362002a93565b909155505060045460008181526006602090815260408083209384554260038501556001808501879055868452600c8352818420869055858452600a808452918420805491820181558085529284200186905591849052541415620014a457600e5460405163a575270d60e01b81526001600160a01b039091169063a575270d906200146f908590600090600401620029cb565b600060405180830381600087803b1580156200148a57600080fd5b505af11580156200149f573d6000803e3d6000fd5b505050505b600030620014b162001cac565b620014bb620006ca565b604051620014c99062002490565b620014d7939291906200274e565b604051809103906000f080158015620014f4573d6000803e3d6000fd5b50600483810180546001600160a01b0319166001600160a01b038481169190911790915581546000908152600560208181526040808420600c930192909255600354825163cf7e7b8d60e01b815292519697509093169463cf7e7b8d94828101949391928390030190829087803b1580156200156f57600080fd5b505af115801562001584573d6000803e3d6000fd5b505050506040513d601f19601f82011682018060405250810190620015aa91906200259e565b600480546000908152600560205260409081902090910191909155825490517f09bf7df93f4b3c954aff30199d38c42473e24294c3658ed5aeaa84b76f55c75f91620015fa918790429062002a0d565b60405180910390a150505050565b60008181526005602052604090206003015460ff1615156001146200162c57600080fd5b6000818152600560205260408120620016459062001fd1565b9050600f8110156200166b5760405162461bcd60e51b81526004016200085f9062002981565b60008281526007602090815260408083206005835281842060040154845290915281206200169a918362001fde565b6000828152600560205260409020600301805460ff19169055620016c24262278d0062002a23565b6000838152600560209081526040808320600281019490945560078252808320600490940154835292905290812080549091906200171057634e487b7160e01b600052603260045260246000fd5b6000918252602080832060029283020154858452600690915260409092200180546001600160a01b0319166001600160a01b0390921691909117905560015b600d811015620017e95760008381526007602090815260408083206005835281842060040154845290915290208054620017d3919083908110620017a357634e487b7160e01b600052603260045260246000fd5b6000918252602080832060029092029091015486835260059091526040909120906001600160a01b031662001e72565b5080620017e08162002a93565b9150506200174f565b50600d81111562000c0e57600d5b81811015620008825760008381526007602090815260408083206005835281842060040154845290915281208054839081106200184457634e487b7160e01b600052603260045260246000fd5b600091825260208220600290910201546001600160a01b031691506200186962001cac565b6001600160a01b03166318f7d8626040518163ffffffff1660e01b815260040160206040518083038186803b158015620018a257600080fd5b505afa158015620018b7573d6000803e3d6000fd5b505050506040513d601f19601f82011682018060405250810190620018dd91906200257f565b600086815260066020526040902060040154909150620019139082906001600160a01b031633683635c9adc5dea0000062001d7d565b50508080620019229062002a93565b915050620017f7565b60008054604051633d6c72e760e11b81528392339290916001600160a01b0390911690637ad8e5ce90620019649085906004016200273a565b60206040518083038186803b1580156200197d57600080fd5b505afa15801562001992573d6000803e3d6000fd5b505050506040513d601f19601f82011682018060405250810190620019b891906200259e565b6000848152600660205260408082206001015491549051638c18f9f960e01b8152929350909182916001600160a01b031690638c18f9f99062001a00908690600401620029ac565b60206040518083038186803b15801562001a1957600080fd5b505afa15801562001a2e573d6000803e3d6000fd5b505050506040513d601f19601f8201168201806040525081019062001a5491906200259e565b1462001a745760405162461bcd60e51b81526004016200085f9062002809565b683635c9adc5dea0000062001a88620006ca565b6001600160a01b03166370a08231336040518263ffffffff1660e01b815260040162001ab591906200273a565b60206040518083038186803b15801562001ace57600080fd5b505afa15801562001ae3573d6000803e3d6000fd5b505050506040513d601f19601f8201168201806040525081019062001b0991906200259e565b101562001b2a5760405162461bcd60e51b81526004016200085f9062002854565b62001b6562001b38620006ca565b60008781526006602052604090206004015433906001600160a01b0316683635c9adc5dea0000062001d7d565b60008581526005602052604090206003015460ff16151560011462001b8957600080fd5b600085815260076020908152604080832060058352818420600401548452909152902054600f81101562001bf057600086815260056020526040902060020154421162001bea5760405162461bcd60e51b81526004016200085f906200295c565b62001c50565b6000868152600560205260409020600201544211801562001c315750600086815260056020526040902060020154429062001c2f9062093a8062002a23565b115b62001c505760405162461bcd60e51b81526004016200085f906200295c565b600086815260056020526040812060040154620006c29188919033906200224f565b600e546001600160a01b031681565b6000908152600560208190526040909120600281015460038201549190920154919260ff9091169190565b6002546001600160a01b031690565b600062000a8d836001600160a01b038416620022b6565b600062000a8d828462002a5f565b60405163a9059cbb60e01b81526001600160a01b0382169063a9059cbb9062001d10908690869060040162002795565b602060405180830381600087803b15801562001d2b57600080fd5b505af115801562001d40573d6000803e3d6000fd5b505050506040513d601f19601f8201168201806040525081019062001125919062002544565b600062000a8d836001600160a01b038416620023de565b600080856001600160a01b03166323b872dd86868660405160240162001da69392919062002771565b6040516020818303038152906040529060e01b6020820180516001600160e01b03838183161783525050505060405162001de19190620026fe565b6000604051808303816000865af19150503d806000811462001e20576040519150601f19603f3d011682016040523d82523d6000602084013e62001e25565b606091505b509150915081801562001e5357508051158062001e5357508080602001905181019062001e53919062002544565b620006c25760405162461bcd60e51b81526004016200085f9062002918565b600062000a8d836001600160a01b038416620023f6565b600081815260056020526040812062001ea29062001fd1565b905060005b8181101562001eff57600083815260056020526040812062001eca908362002445565b600085815260056020526040902090915062001ee7908262001cbb565b5050808062001ef69062002a93565b91505062001ea7565b5060008281526006602090815260408083204360059182015582528083206003908101805460ff1916600117905554815163cf7e7b8d60e01b815291516001600160a01b039091169363cf7e7b8d93600480850194919392918390030190829087803b15801562001f6f57600080fd5b505af115801562001f84573d6000803e3d6000fd5b505050506040513d601f19601f8201168201806040525081019062001faa91906200259e565b6000928352600560205260409092206004019190915550565b600062000a8d828462002a23565b6000620007b48262002453565b81818082141562001ff157505062000882565b600085600262002002878762002a5f565b6200200e919062002a3e565b6200201a908762002a23565b815481106200203957634e487b7160e01b600052603260045260246000fd5b90600052602060002090600202016001015490505b81831162002223575b808684815481106200207957634e487b7160e01b600052603260045260246000fd5b9060005260206000209060020201600101541015620020a757826200209e8162002a93565b93505062002057565b858281548110620020c857634e487b7160e01b600052603260045260246000fd5b906000526020600020906002020160010154811015620020f75781620020ee8162002a79565b925050620020a7565b8183116200221d578582815481106200212057634e487b7160e01b600052603260045260246000fd5b90600052602060002090600202018684815481106200214f57634e487b7160e01b600052603260045260246000fd5b90600052602060002090600202018785815481106200217e57634e487b7160e01b600052603260045260246000fd5b90600052602060002090600202016000898681548110620021af57634e487b7160e01b600052603260045260246000fd5b60009182526020909120845460029092020180546001600160a01b039283166001600160a01b0319918216178255600195860154918601919091558554845492169116178255509181015491015582620022098162002a93565b9350508180620022199062002a79565b9250505b6200204e565b8185101562002239576200223986868462001fde565b83831015620006c257620006c286848662001fde565b5050604080518082018252338152600060208083018281529582526007815283822094825293845291822080546001808201835591845293909220905160029093020180546001600160a01b0319166001600160a01b039093169290921782559151910155565b60008181526001830160205260408120548015620023d3576000620022dd60018362002a5f565b8554909150600090620022f39060019062002a5f565b9050818114620023775760008660000182815481106200232357634e487b7160e01b600052603260045260246000fd5b90600052602060002001549050808760000184815481106200235557634e487b7160e01b600052603260045260246000fd5b6000918252602080832090910192909255918252600188019052604090208390555b85548690806200239757634e487b7160e01b600052603160045260246000fd5b600190038181906000526020600020016000905590558560010160008681526020019081526020016000206000905560019350505050620007b4565b6000915050620007b4565b60009081526001919091016020526040902054151590565b6000620024048383620023de565b6200243c57508154600181810184556000848152602080822090930184905584548482528286019093526040902091909155620007b4565b506000620007b4565b600062000a8d838362002457565b5490565b60008260000182815481106200247d57634e487b7160e01b600052603260045260246000fd5b9060005260206000200154905092915050565b6129408062002ae183390190565b600060208284031215620024b0578081fd5b813562000a8d8162002ac7565b60008060408385031215620024d0578081fd5b8235620024dd8162002ac7565b91506020830135620024ef8162002ac7565b809150509250929050565b6000806000806080858703121562002510578182fd5b84356200251d8162002ac7565b935060208501356200252f8162002ac7565b93969395505050506040820135916060013590565b60006020828403121562002556578081fd5b8151801515811462000a8d578182fd5b60006020828403121562002578578081fd5b5035919050565b60006020828403121562002591578081fd5b815162000a8d8162002ac7565b600060208284031215620025b0578081fd5b5051919050565b60008060408385031215620025ca578182fd5b823591506020830135620024ef8162002ac7565b600080600080600060a08688031215620025f6578081fd5b8535945060208601356200260a8162002ac7565b9350604086013592506060860135620026238162002ac7565b949793965091946080013592915050565b6000806040838503121562002647578182fd5b50508035926020909101359150565b6000806000606084860312156200266b578283fd5b83359250602084013591506040840135620026868162002ac7565b809150509250925092565b60008060008060808587031215620026a7578384fd5b84359350602085013592506040850135620026c28162002ac7565b9396929550929360600135925050565b600080600060608486031215620026e7578283fd5b505081359360208301359350604090920135919050565b60008251815b8181101562002720576020818601810151858301520162002704565b818111156200272f5782828501525b509190910192915050565b6001600160a01b0391909116815260200190565b6001600160a01b0393841681529183166020830152909116604082015260600190565b6001600160a01b039384168152919092166020820152604081019190915260600190565b6001600160a01b03929092168252602082015260400190565b901515815260200190565b931515845260208401929092526001600160a01b03166040830152606082015260800190565b60208082526010908201526f3737ba1032b737bab3b4103a37b5b2b760811b604082015260600190565b6020808252600e908201526d3737ba1034b71031b4ba3ca3b7bb60911b604082015260600190565b6020808252600990820152686e6f2061636365737360b81b604082015260600190565b6020808252600e908201526d1b9bdd08195b9bdd59da081c989d60921b604082015260600190565b6020808252600a90820152696e6f742061636365737360b01b604082015260600190565b6020808252601d908201527f436f72655265663a2043616c6c6572206973206e6f74206120566f7465000000604082015260600190565b60208082526021908201527f436f72655265663a2043616c6c6572206973206e6f74206120676f7665726e6f6040820152603960f91b606082015260800190565b60208082526024908201527f5472616e7366657248656c7065723a205452414e534645525f46524f4d5f46416040820152631253115160e21b606082015260800190565b6020808252600b908201526a6e6f7420696e2074696d6560a81b604082015260600190565b6020808252601190820152706e6f7420656e6f7567682070656f706c6560781b604082015260600190565b90815260200190565b9283529015156020830152604082015260600190565b918252602082015260400190565b95865260208601949094526001600160a01b039283166040860152606085019190915216608083015260a082015260c00190565b9283526020830191909152604082015260600190565b6000821982111562002a395762002a3962002ab1565b500190565b60008262002a5a57634e487b7160e01b81526012600452602481fd5b500490565b60008282101562002a745762002a7462002ab1565b500390565b60008162002a8b5762002a8b62002ab1565b506000190190565b600060001982141562002aaa5762002aaa62002ab1565b5060010190565b634e487b7160e01b600052601160045260246000fd5b6001600160a01b038116811462002add57600080fd5b5056fe60806040523480156200001157600080fd5b506040516200294038038062002940833981016040819052620000349162000087565b50600080546001600160a01b039283166001600160a01b03199182161790915560078054939092169216919091179055620000d0565b80516001600160a01b03811681146200008257600080fd5b919050565b6000806000606084860312156200009c578283fd5b620000a7846200006a565b9250620000b7602085016200006a565b9150620000c7604085016200006a565b90509250925092565b61286080620000e06000396000f3fe608060405234801561001057600080fd5b50600436106101165760003560e01c80637da68220116100a2578063b2f9aabf11610071578063b2f9aabf1461022f578063b349c5d614610242578063f2f4eb2614610255578063f4dfdde71461025d578063ffb8b4581461027057610116565b80637da68220146101ee5780638000963014610201578063964f316214610214578063b2e44f651461021c57610116565b80632f126cdb116100e95780632f126cdb146101815780635ab764ed146101ad5780636894b483146101c0578063735fb8e0146101d35780637bfcbf2a146101db57610116565b8063135b54dd1461011b578063219dcc0d146101395780632256283e1461014e578063256919d414610161575b600080fd5b610123610283565b6040516101309190612398565b60405180910390f35b61014c610147366004612079565b61030f565b005b61014c61015c3660046122c4565b6106fb565b61017461016f3660046121a9565b61080f565b604051610130919061263e565b61019461018f366004612246565b61083c565b6040516101309d9c9b9a9998979695949392919061265e565b6101746101bb366004611ffc565b61093d565b61014c6101ce366004612034565b610968565b610123610a5d565b61014c6101e9366004612276565b610a6c565b61014c6101fc36600461216f565b610b3d565b61014c61020f366004611fe0565b6111ff565b6101236112e3565b61014c61022a3660046122ef565b6112f2565b61014c61023d36600461213b565b6114ae565b610174610250366004611ffc565b611994565b6101236119b1565b61014c61026b366004611fe0565b6119c0565b61014c61027e3660046121ee565b611a7e565b60008060009054906101000a90046001600160a01b03166001600160a01b03166318f7d8626040518163ffffffff1660e01b815260040160206040518083038186803b1580156102d257600080fd5b505afa1580156102e6573d6000803e3d6000fd5b505050506040513d601f19601f8201168201806040525081019061030a919061211f565b905090565b600054604051630fcd4eb360e11b81526001600160a01b0390911690631f9a9d669061033f903390600401612398565b60206040518083038186803b15801561035757600080fd5b505afa15801561036b573d6000803e3d6000fd5b505050506040513d601f19601f8201168201806040525081019061038f91906120c0565b6103b45760405162461bcd60e51b81526004016103ab9061247d565b60405180910390fd5b60408051600280825260608201909252600091816020015b60608152602001906001900390816103cc575050604080516002808252606082018352929350600092909160208301908036833750506040805160208101909152600081529192505060018414156104485760408051808201909152600d81526c4d414e414745525f53544f524560981b60209091015261047a565b836002141561047a5760408051808201909152601081526f5041524c49414d454e545f53544f524560801b6020909101525b60018160405161048a9190612364565b90815260408051602092819003830190206001600160a01b0388166000908152925290205486111561068a5780836000815181106104d857634e487b7160e01b600052603260045260246000fd5b60200260200101819052506001816040516104f39190612364565b90815260200160405180910390206000866001600160a01b03166001600160a01b03168152602001908152602001600020548260008151811061054657634e487b7160e01b600052603260045260246000fd5b60200260200101818152505060006001826040516105649190612364565b90815260408051602092819003830190206001600160a01b038916600090815292529020546105939088612750565b905060016040516105a390612380565b90815260408051602092819003830190206001600160a01b038916600090815292529020548111156106055760016040516105dd90612380565b90815260408051602092819003830190206001600160a01b0389166000908152925290205490505b6040518060400160405280600c81526020016b5055424c49435f53544f524560a01b8152508460018151811061064b57634e487b7160e01b600052603260045260246000fd5b6020026020010181905250808360018151811061067857634e487b7160e01b600052603260045260246000fd5b602002602001018181525050506106e6565b80836000815181106106ac57634e487b7160e01b600052603260045260246000fd5b602002602001018190525085826000815181106106d957634e487b7160e01b600052603260045260246000fd5b6020026020010181815250505b6106f287838588611b07565b50505050505050565b600754604051638b7f0f9560e01b8152849133916001600160a01b0390911690638b7f0f95906107319085908590600401612647565b60206040518083038186803b15801561074957600080fd5b505afa15801561075d573d6000803e3d6000fd5b505050506040513d601f19601f8201168201806040525081019061078191906120c0565b151560011461078f57600080fd5b6000848152600560205260409020600c015442906107b09062093a806126f9565b1180156107ce57506000848152600560205260409020600a01546007145b6107d757600080fd5b6000848152600560205260409020600801546107f39084611d71565b6000948552600560205260409094206008019390935550505050565b81516020818401810180516001825292820194820194909420919093529091526000908152604090205481565b60056020528060005260406000206000915090508060000154908060010160009054906101000a90046001600160a01b0316908060020154908060030154908060040154908060050154908060060154908060070154908060080154908060090180546108a890612793565b80601f01602080910402602001604051908101604052809291908181526020018280546108d490612793565b80156109215780601f106108f657610100808354040283529160200191610921565b820191906000526020600020905b81548152906001019060200180831161090457829003601f168201915b50505050509080600a01549080600b01549080600c015490508d565b6001600160a01b03918216600090815260026020908152604080832093909416825291909152205490565b80600114806109775750806002145b6109935760405162461bcd60e51b81526004016103ab90612531565b80600114156109f7576001600160a01b038085166000908152600260209081526040808320938716835292905220546109cc9083611d71565b6001600160a01b03808616600090815260026020908152604080832093881683529290522055610a57565b8060021415610a57576001600160a01b03808516600090815260026020908152604080832093871683529290522054610a309083611d84565b6001600160a01b038086166000908152600260209081526040808320938816835292905220555b50505050565b6007546001600160a01b031681565b600082118015610a8d57506000838152600560205260409020600301548211155b610a9657600080fd5b6000838152600560209081526040808320858452600d0190915290206002015460ff610100909104161515600114610ae05760405162461bcd60e51b81526004016103ab906123e9565b6000838152600560208181526040808420868552600d0182529092208351610b1093919092019190840190611e90565b50506000918252600560209081526040808420928452600d90920190529020600201805461ff0019169055565b600754604051638b7f0f9560e01b8152849133916001600160a01b0390911690638b7f0f9590610b739085908590600401612647565b60206040518083038186803b158015610b8b57600080fd5b505afa158015610b9f573d6000803e3d6000fd5b505050506040513d601f19601f82011682018060405250810190610bc391906120c0565b1515600114610bd157600080fd5b600080876001600160a01b031663249a40cd886040518263ffffffff1660e01b8152600401610c00919061263e565b60806040518083038186803b158015610c1857600080fd5b505afa158015610c2c573d6000803e3d6000fd5b505050506040513d601f19601f82011682018060405250810190610c5091906120da565b60008a81526005602052604090206003015491955093508711159150610c8a90505760405162461bcd60e51b81526004016103ab90612420565b604051633068e23760e11b81526001600160a01b038916906360d1c46e90610cb8908a903390600401612647565b60206040518083038186803b158015610cd057600080fd5b505afa158015610ce4573d6000803e3d6000fd5b505050506040513d601f19601f82011682018060405250810190610d0891906120c0565b80610d1b57506001600160a01b03821633145b610d2457600080fd5b6000868152600460209081526040808320888452825280832033845260010190915290205460ff1615610d695760405162461bcd60e51b81526004016103ab906124e2565b60008681526004602090815260408083208884528083528184203380865260018281018652938620805460ff1916851790559184528054928301815584529190922090910180546001600160a01b031916909117905584610ead576000868152600560205260409020600b0154610de3906203f4806126f9565b4210610e015760405162461bcd60e51b81526004016103ab90612619565b6000868152600560205260408120600a01805491610e1e836127ce565b90915550506000868152600560205260409020600a015460071415610e765760008690526005602052610e544262093a806126f9565b600087815260056020908152604080832060018452600d019091529020600301555b6000868152600560205260409020600a015460071015610ea85760405162461bcd60e51b81526004016103ab90612501565b6111f5565b6006546040516342a422e960e11b81526000916001600160a01b03169063854845d290610ede90859060040161263e565b60206040518083038186803b158015610ef657600080fd5b505afa158015610f0a573d6000803e3d6000fd5b505050506040513d601f19601f82011682018060405250810190610f2e919061225e565b90508560011415610fa0576000878152600560205260409020600a01546007148015610f7f5750610f6b6064610f6583601e611d90565b90611d9c565b600088815260056020526040902060080154105b610f9b5760405162461bcd60e51b81526004016103ab90612446565b611038565b6000878152600560205260408120600791600d90910190610fc260018a612750565b81526020019081526020016000206001015410801561101c57506000878152600560205260408120600d0190610ff9600189612750565b8152602001908152602001600020600301546203f48061101991906126f9565b42115b6110385760405162461bcd60e51b81526004016103ab90612583565b6000878152600560209081526040808320898452600d019091528120600101805491611063836127ce565b90915550506000878152600560209081526040808320898452600d01909152902060010154600714156111f3576000878152600560209081526040808320898452600d01909152902060040154600310156110d05760405162461bcd60e51b81526004016103ab906124be565b6000878152600560209081526040808320898452600d01909152812060018101829055600401805491611102836127ce565b90915550506000878152600560209081526040808320898452600d018252808320600201805461ff00191661010017905589835260048252808320898452909152812054905b818110156111ce5760008981526004602090815260408083208b845290915281208054600182019291908490811061119057634e487b7160e01b600052603260045260246000fd5b60009182526020808320909101546001600160a01b031683528201929092526040019020805460ff19169055806111c6816127ce565b915050611148565b5060008881526004602090815260408083208a845290915281206111f191611f14565b505b505b5050505050505050565b600054604051631c86b03760e31b81526001600160a01b039091169063e43581b89061122f903390600401612398565b60206040518083038186803b15801561124757600080fd5b505afa15801561125b573d6000803e3d6000fd5b505050506040513d601f19601f8201168201806040525081019061127f91906120c0565b61129b5760405162461bcd60e51b81526004016103ab90612594565b600080546001600160a01b0319166001600160a01b038316908117825560405190917fad9400e618eb1344fde53db22397a1b82c765527ecbba3a5c86bcac15090828b91a250565b6006546001600160a01b031681565b600754604051638b7f0f9560e01b8152889133916001600160a01b0390911690638b7f0f95906113289085908590600401612647565b60206040518083038186803b15801561134057600080fd5b505afa158015611354573d6000803e3d6000fd5b505050506040513d601f19601f8201168201806040525081019061137891906120c0565b151560011461138657600080fd5b60038054906000611396836127ce565b919050555085600114156113b657836064146113b157600080fd5b6113da565b85600214156113da576113cf6064610f65876005611d90565b84146113da57600080fd5b6113ed6113e5610283565b333087611da8565b6003805460008181526005602081815260409092209283556001830180546001600160a01b03191633179055600283018d90559282018b9055600482018a9055918101889055600681018790556007810186905584519091611456916009840191870190611e90565b506000600a82015542600b820181905581546040518c927f39d8fe849ca64dcf7d99ceb3188ffaf453975b4d403bb6e5f1e23fa36352c99e9161149a9133916123d0565b60405180910390a350505050505050505050565b60008281526005602052604080822060020154905163249a40cd60e01b815282916001600160a01b0387169163249a40cd916114ec9160040161263e565b60806040518083038186803b15801561150457600080fd5b505afa158015611518573d6000803e3d6000fd5b505050506040513d601f19601f8201168201806040525081019061153c91906120da565b93509350505060008311801561156357506000848152600560205260409020600301548311155b61157f5760405162461bcd60e51b81526004016103ab90612420565b6000848152600560205260409020600101546001600160a01b031633146115a557600080fd5b6000848152600560209081526040808320868452600d0190915290206002015460ff16156115e55760405162461bcd60e51b81526004016103ab90612555565b82600114156116ff576006546040516342a422e960e11b81526000916001600160a01b03169063854845d29061161f90859060040161263e565b60206040518083038186803b15801561163757600080fd5b505afa15801561164b573d6000803e3d6000fd5b505050506040513d601f19601f8201168201806040525081019061166f919061225e565b6000868152600560205260409020600b0154909150611691906203f4806126f9565b42106116af5760405162461bcd60e51b81526004016103ab90612619565b6000858152600560205260409020600a01546007146116cd57600080fd5b6116dd6064610f6583601e611d90565b600086815260056020526040902060080154106116f957600080fd5b50611788565b6000848152600560205260408120600791600d90910190611721600187612750565b81526020019081526020016000206001015410801561177f57506000848152600560205260408120600481015442929091600d0190611761600188612750565b81526020019081526020016000206003015461177d91906126f9565b105b61178857600080fd5b6000848152600560209081526040808320868452600d0190915290206002018054610100600160ff19909216821761ff001916179091556117ca9084906126f9565b600085815260056020526040902060030154106118175760008481526005602052604081204291600d909101906118028660016126f9565b81526020810191909152604001600020600301555b604080516001808252818301909252600091816020015b606081526020019060019003908161182e57505060408051600180825281830190925291925060009190602080830190803683370190505090506040518060400160405280600c81526020016b5055424c49435f53544f524560a01b815250826000815181106118ae57634e487b7160e01b600052603260045260246000fd5b602090810291909101810191909152600087815260059091526040902060038101546006909101546118df91611d9c565b8160008151811061190057634e487b7160e01b600052603260045260246000fd5b60200260200101818152505060006119166119b1565b6001600160a01b03166318f7d8626040518163ffffffff1660e01b815260040160206040518083038186803b15801561194e57600080fd5b505afa158015611962573d6000803e3d6000fd5b505050506040513d601f19601f82011682018060405250810190611986919061211f565b90506111f533838584611b07565b600260209081526000928352604080842090915290825290205481565b6000546001600160a01b031690565b600054604051631c86b03760e31b81526001600160a01b039091169063e43581b8906119f0903390600401612398565b60206040518083038186803b158015611a0857600080fd5b505afa158015611a1c573d6000803e3d6000fd5b505050506040513d601f19601f82011682018060405250810190611a4091906120c0565b611a5c5760405162461bcd60e51b81526004016103ab90612594565b600680546001600160a01b0319166001600160a01b0392909216919091179055565b611abd81600185604051611a929190612364565b90815260408051602092819003830190206001600160a01b0387166000908152925290205490611d71565b600184604051611acd9190612364565b90815260200160405180910390206000846001600160a01b03166001600160a01b0316815260200190815260200160002081905550505050565b8151835114611b1557600080fd5b6000805b8451811015611ce857848181518110611b4257634e487b7160e01b600052603260045260246000fd5b60200260200101516001858381518110611b6c57634e487b7160e01b600052603260045260246000fd5b6020026020010151604051611b819190612364565b90815260408051602092819003830190206001600160a01b038716600090815292529020541015611bb157600080fd5b611beb858281518110611bd457634e487b7160e01b600052603260045260246000fd5b602002602001015183611d7190919063ffffffff16565b9150611c7a858281518110611c1057634e487b7160e01b600052603260045260246000fd5b60200260200101516001868481518110611c3a57634e487b7160e01b600052603260045260246000fd5b6020026020010151604051611c4f9190612364565b90815260408051602092819003830190206001600160a01b0388166000908152925290205490611d84565b6001858381518110611c9c57634e487b7160e01b600052603260045260246000fd5b6020026020010151604051611cb19190612364565b90815260408051602092819003830190206001600160a01b0387166000908152925290205580611ce0816127ce565b915050611b19565b5060405163a9059cbb60e01b81526001600160a01b0383169063a9059cbb90611d1790889085906004016123d0565b602060405180830381600087803b158015611d3157600080fd5b505af1158015611d45573d6000803e3d6000fd5b505050506040513d601f19601f82011682018060405250810190611d6991906120c0565b505050505050565b6000611d7d82846126f9565b9392505050565b6000611d7d8284612750565b6000611d7d8284612731565b6000611d7d8284612711565b600080856001600160a01b03166323b872dd868686604051602401611dcf939291906123ac565b6040516020818303038152906040529060e01b6020820180516001600160e01b038381831617835250505050604051611e089190612364565b6000604051808303816000865af19150503d8060008114611e45576040519150601f19603f3d011682016040523d82523d6000602084013e611e4a565b606091505b5091509150818015611e74575080511580611e74575080806020019051810190611e7491906120c0565b611d695760405162461bcd60e51b81526004016103ab906125d5565b828054611e9c90612793565b90600052602060002090601f016020900481019282611ebe5760008555611f04565b82601f10611ed757805160ff1916838001178555611f04565b82800160010185558215611f04579182015b82811115611f04578251825591602001919060010190611ee9565b50611f10929150611f35565b5090565b5080546000825590600052602060002090810190611f329190611f35565b50565b5b80821115611f105760008155600101611f36565b80518015158114611f5a57600080fd5b919050565b600082601f830112611f6f578081fd5b813567ffffffffffffffff80821115611f8a57611f8a6127ff565b604051601f8301601f191681016020018281118282101715611fae57611fae6127ff565b604052828152848301602001861015611fc5578384fd5b82602086016020830137918201602001929092529392505050565b600060208284031215611ff1578081fd5b8135611d7d81612815565b6000806040838503121561200e578081fd5b823561201981612815565b9150602083013561202981612815565b809150509250929050565b60008060008060808587031215612049578182fd5b843561205481612815565b9350602085013561206481612815565b93969395505050506040820135916060013590565b6000806000806080858703121561208e578384fd5b843561209981612815565b93506020850135925060408501356120b081612815565b9396929550929360600135925050565b6000602082840312156120d1578081fd5b611d7d82611f4a565b600080600080608085870312156120ef578384fd5b6120f885611f4a565b935060208501519250604085015161210f81612815565b6060959095015193969295505050565b600060208284031215612130578081fd5b8151611d7d81612815565b60008060006060848603121561214f578283fd5b833561215a81612815565b95602085013595506040909401359392505050565b60008060008060808587031215612184578384fd5b843561218f81612815565b966020860135965060408601359560600135945092505050565b600080604083850312156121bb578182fd5b823567ffffffffffffffff8111156121d1578283fd5b6121dd85828601611f5f565b925050602083013561202981612815565b600080600060608486031215612202578283fd5b833567ffffffffffffffff811115612218578384fd5b61222486828701611f5f565b935050602084013561223581612815565b929592945050506040919091013590565b600060208284031215612257578081fd5b5035919050565b60006020828403121561226f578081fd5b5051919050565b60008060006060848603121561228a578081fd5b8335925060208401359150604084013567ffffffffffffffff8111156122ae578182fd5b6122ba86828701611f5f565b9150509250925092565b6000806000606084860312156122d8578081fd5b505081359360208301359350604090920135919050565b600080600080600080600060e0888a031215612309578485fd5b873596506020880135955060408801359450606088013593506080880135925060a0880135915060c088013567ffffffffffffffff811115612349578182fd5b6123558a828b01611f5f565b91505092959891949750929550565b60008251612376818460208701612767565b9190910192915050565b6b5055424c49435f53544f524560a01b8152600c0190565b6001600160a01b0391909116815260200190565b6001600160a01b039384168152919092166020820152604081019190915260600190565b6001600160a01b03929092168252602082015260400190565b6020808252601a908201527f43616e6e6f74207375626d697420617420746869732074696d65000000000000604082015260600190565b6020808252600c908201526b6e6f7420696e20737461676560a01b604082015260600190565b6020808252601a908201527f70726576207374616765206973206e6f742066696e6973686564000000000000604082015260600190565b60208082526021908201527f436f72655265663a2043616c6c6572206973206e6f74206120436974794e6f646040820152606560f81b606082015260800190565b6020808252600a9082015269206e6f206368616e636560b01b604082015260600190565b6020808252600590820152641d9bdd195960da1b604082015260600190565b6020808252601690820152751d1a1a5cc81c1c9bdc1bdcd85b081a5cc818591bdc1d60521b604082015260600190565b6020808252600a90820152696e6f742061636365737360b01b604082015260600190565b6020808252601490820152736e6f2061636365737320746f207265636569766560601b604082015260600190565b602080825260009082015260400190565b60208082526021908201527f436f72655265663a2043616c6c6572206973206e6f74206120676f7665726e6f6040820152603960f91b606082015260800190565b60208082526024908201527f5472616e7366657248656c7065723a205452414e534645525f46524f4d5f46416040820152631253115160e21b606082015260800190565b6020808252600b908201526a6e6f7420696e2074696d6560a81b604082015260600190565b90815260200190565b9182526001600160a01b0316602082015260400190565b60006101a08f835260018060a01b038f1660208401528d60408401528c60608401528b60808401528a60a08401528960c08401528860e08401528761010084015280610120840152865180828501526101c091506126c28183860160208b01612767565b81601f19601f830116850101925050508461014083015283610160830152826101808301529e9d5050505050505050505050505050565b6000821982111561270c5761270c6127e9565b500190565b60008261272c57634e487b7160e01b81526012600452602481fd5b500490565b600081600019048311821515161561274b5761274b6127e9565b500290565b600082821015612762576127626127e9565b500390565b60005b8381101561278257818101518382015260200161276a565b83811115610a575750506000910152565b6002810460018216806127a757607f821691505b602082108114156127c857634e487b7160e01b600052602260045260246000fd5b50919050565b60006000198214156127e2576127e26127e9565b5060010190565b634e487b7160e01b600052601160045260246000fd5b634e487b7160e01b600052604160045260246000fd5b6001600160a01b0381168114611f3257600080fdfea2646970667358221220533d545be253791212e29fe07035d538532626882ce39b2f3d360a923029e98264736f6c63430008000033a26469706673582212201280b77e381d1653bef09f79af794c641cec56a804e7358e75933344086609d864736f6c63430008000033",
  "immutableReferences": {},
  "source": "pragma solidity ^0.8.0;\r\nimport './CityNodeRef.sol';\r\nimport \"../ref/CoreRef.sol\";\r\nimport '@openzeppelin/contracts/utils/structs/EnumerableSet.sol';\r\nimport '../interface/gov/IGovernanceCommittee.sol';\r\nimport '../interface/gov/ICityGovCommittee.sol';\r\nimport '../interface/gov/IParliament.sol';\r\nimport '../interface/gov/IBlockNumber.sol';\r\nimport '@openzeppelin/contracts/utils/math/SafeMath.sol';\r\nimport \"../lib/TransferHelper.sol\";\r\nimport '../ref/VoteIdRef.sol';\r\nimport './CityNodeFundManagement.sol';\r\nimport '../interface/gov/IBlockNumber.sol';\r\ncontract CityGovernanceCommittee  is CityNodeRef,CoreRef,IGovernanceCommittee,IParliament,VoteIdRef,ICityGovCommittee,IBlockNumber {\r\n    using EnumerableSet for EnumerableSet.AddressSet;\r\n using SafeMath for uint256;\r\n    constructor(address nodeAddress,address core,address voteIdAddr) public  CityNodeRef(nodeAddress)  CoreRef(core) VoteIdRef(voteIdAddr)  {}\r\n    struct cityGovernance{\r\n        uint id;\r\n        uint  cityId;\r\n        address manager;\r\n        uint creationTime;\r\n        address cfm;\r\n        uint proposalBlockNumber;\r\n    }\r\n    struct parliamentData {\r\n        EnumerableSet.AddressSet parliament;\r\n        uint  expireTime;\r\n        bool votePeriod;\r\n        uint voteId;\r\n        uint impeachIndex;\r\n    }\r\n\r\n\r\n    struct parliamentApply {\r\n        address account;\r\n        uint tickets;\r\n    }\r\n    uint public govCount;\r\n\r\n    mapping(uint => parliamentData ) private govParliament;\r\n\r\n    mapping(uint => cityGovernance) public cityGovernances;\r\n\r\n    event cityGovernanceCreate(uint id, uint cityId, uint creationTime);\r\n\r\n    mapping(uint => mapping(uint => parliamentApply[])) public parliamentApplyRecords;\r\n\r\n    mapping(bytes32 => uint) public cityGovernancesBonus;  //\r\n\r\n    mapping(address =>mapping(address => uint) ) public parliamentReward;\r\n\r\n    mapping(uint => uint[]) public areaCity; //\r\n\r\n    mapping(uint => mapping(address => uint)) govTokenAmount; //\r\n\r\n    mapping(uint => uint) public cityByArea; //IDID\r\n\r\n    mapping(uint => mapping(uint =>mapping(address => bool))) public parliamentUp; //\r\n\r\n    address public areaGovernanceAddr;\r\n    modifier _inCityGov(uint cityGovId,address sender) {\r\n        uint nodeId = cityNode.getUserNode(sender);\r\n        uint  cityId = cityGovernances[cityGovId].cityId;\r\n        require(cityNode.getNodeCityGov(nodeId) == cityId, \"not in cityGov\");\r\n        _;\r\n    }\r\n\r\n    /*\r\n          @dev \r\n      */\r\n    function getBlockNumber(uint id) external override view returns(uint) {\r\n        return cityGovernances[id].proposalBlockNumber;\r\n    }\r\n\r\n    function inNode(uint cityGovId, address sender) public view override returns (bool) {\r\n        uint nodeId = cityNode.getUserNode(sender);\r\n        uint  cityId = cityGovernances[cityGovId].cityId;\r\n        return (cityNode.getNodeCityGov(nodeId) == cityId);\r\n    }\r\n\r\n    /*\r\n        @dev \r\n        @params hash\r\n    */\r\n    function newGovernanceCommittee (uint id,uint areaId) external override {\r\n        govCount++;\r\n        cityGovernance storage c = cityGovernances[govCount];\r\n        c.id = govCount;\r\n        c.creationTime = block.timestamp;\r\n        c.cityId = id; //ID\r\n        cityByArea[id] = areaId;\r\n        // c.proposalBlockNumber = block.timestamp;\r\n        areaCity[areaId].push(id);\r\n        if(areaCity[areaId].length == 10) {\r\n            IGovernanceCommittee(areaGovernanceAddr).newGovernanceCommittee(areaId,0);\r\n        }\r\n        CityNodeFundManagement _cfm = new CityNodeFundManagement(address(this),address(core()),address(Rbt()));\r\n        c.cfm = address(_cfm);\r\n        govParliament[govCount].impeachIndex = 12;\r\n        govParliament[govCount].voteId = IVoteId(voteIdAddress).incrVoteId();\r\n        emit cityGovernanceCreate(c.id,id,block.timestamp);\r\n    }\r\n\r\n    function getAreaIdByCityId(uint id) external override view returns(uint) {\r\n        return cityByArea[id];\r\n    }\r\n\r\n    /*\r\n        @dev \r\n        @params id id\r\n\r\n    */\r\n\r\n    function activeToParliaments(uint id) public _inCityGov(id,msg.sender){\r\n       // require(inNode(nodeId, msg.sender), 'not in node');\r\n        require(govParliament[id].expireTime < block.timestamp);\r\n        require(govParliament[id].votePeriod == false);\r\n        _startVoteParliament(id);\r\n    }\r\n\r\n    /*\r\n     @dev \r\n     @params id id\r\n\r\n */\r\n    function applyParliament(uint id) external override   _inCityGov(id,msg.sender){\r\n//        require(inNode(nodeId, msg.sender), 'not in node');\r\n        //todo \r\n        require( IERC20( address(Rbt())).balanceOf(msg.sender) >= 1000 * 10 ** 18,'not enough rbt');\r\n        TransferHelper.safeTransferFrom(address(Rbt()),msg.sender,cityGovernances[id].cfm,1000 * 10 ** 18);\r\n\r\n        require(govParliament[id].votePeriod == true);\r\n        uint length = parliamentApplyRecords[id][govParliament[id].voteId].length;\r\n        if (length < 15) {\r\n            require(govParliament[id].expireTime < block.timestamp, 'not in time');\r\n        } else {\r\n            require(govParliament[id].expireTime < block.timestamp && govParliament[id].expireTime + 7 days > block.timestamp, 'not in time');\r\n        }\r\n\r\n        _setParliamentApply(id,govParliament[id].voteId,msg.sender,0);\r\n    }\r\n\r\n    /*\r\n\r\n    */\r\n    //todo core\r\n    function operateUserReward(address user,address token,uint mold,uint amount) public {\r\n        require(mold == 1 || mold == 2,'not access');\r\n        if (mold == 1) {\r\n            parliamentReward[user][token] =  parliamentReward[user][token].add(amount);\r\n        }else if(mold == 2){\r\n            parliamentReward[user][token] =  parliamentReward[user][token].sub(amount);\r\n        }\r\n    }\r\n    \r\n    \r\n    \r\n        /*\r\n        @dev \r\n    */\r\n    function _setParliamentApply(uint id, uint voteId,address sender,uint tickets) internal  {\r\n        parliamentApply memory ar = parliamentApply({\r\n            account : msg.sender,\r\n            tickets : 0\r\n        });\r\n        parliamentApplyRecords[id][voteId].push(ar);\r\n    }\r\n\r\n    /*\r\n        @dev\r\n        @params\r\n    */\r\n    function _startVoteParliament(uint id) internal {\r\n        uint parliamentLength = govParliament[id].parliament.length();\r\n        for (uint i = 0; i < parliamentLength; i++) {\r\n            address user = govParliament[id].parliament.at(i);\r\n            govParliament[id].parliament.remove(user);\r\n        }\r\n        cityGovernances[id].proposalBlockNumber = block.number;\r\n        govParliament[id].votePeriod = true;\r\n        govParliament[id].voteId = IVoteId(voteIdAddress).incrVoteId();\r\n    }\r\n\r\n\r\n    function endToParliament(uint id) external   {\r\n        require(govParliament[id].votePeriod == true);\r\n        (uint length) = govParliament[id].parliament.length();\r\n        require(length >=15 ,'not enough people');\r\n        _quickSort(parliamentApplyRecords[id][govParliament[id].voteId], 0, length);\r\n\r\n        govParliament[id].votePeriod= false;\r\n        govParliament[id].expireTime = block.timestamp + 30 days;\r\n        cityGovernances[id].manager =  parliamentApplyRecords[id][govParliament[id].voteId][0].account;\r\n        //30\r\n        for (uint i = 1; i < 13; i++) {\r\n            govParliament[id].parliament.add(parliamentApplyRecords[id][govParliament[id].voteId][i].account);\r\n        }\r\n        if (length > 13) {\r\n            for (uint i = 13; i < length; i++) {\r\n                address user = parliamentApplyRecords[id][govParliament[id].voteId][i].account;\r\n                IERC20 rbt = core().rbt();\r\n                TransferHelper.safeTransferFrom(address(rbt),cityGovernances[id].cfm,msg.sender,1000 * 10 ** 18);\r\n            }\r\n        }\r\n    }\r\n\r\n\r\n//    function getCity\r\n\r\n    /*\r\n    @dev /\r\n    @params Id ID\r\n    @params voteId ID\r\n    @params user \r\n    @params tickets \r\n*/\r\n    function voteToParliament(uint id, uint voteId, address user, uint tickets) external override  {\r\n        require(voteId == govParliament[id].voteId);\r\n        require(govParliament[id].votePeriod == true);\r\n        (uint length) = getApplyParliament(id, voteId);\r\n        bool existsUser = false;\r\n        for (uint i = 0; i < length; i++) {\r\n            if (user == parliamentApplyRecords[id][voteId][i].account) {\r\n                existsUser = true;\r\n                parliamentApplyRecords[id][voteId][i].tickets += (tickets);\r\n                break;\r\n            }\r\n        }\r\n        require(existsUser == true);\r\n    }\r\n\r\n    /*\r\n        @dev /\r\n        @params nodeId ID\r\n        @params voteId ID\r\n        @return \r\n    */\r\n    function getApplyParliament(uint id, uint voteId) public view override returns (uint){\r\n        uint length = parliamentApplyRecords[id][voteId].length;\r\n        return length;\r\n    }\r\n\r\n\r\n    function getCityNodeInfo(uint id) external view override returns (bool, uint, address, uint) {\r\n        return (govParliament[id].votePeriod, govParliament[id].expireTime, cityGovernances[id].manager,govParliament[id].voteId);\r\n    }\r\n\r\n    /*\r\n        @dev \r\n        @params id\r\n        @return true  false\r\n    */\r\n    function hasParliament(uint id, address user) external override view returns (bool){\r\n        return govParliament[id].parliament.contains(user);\r\n    }\r\n\r\n    function getApplyParliamentVoteId(uint id) external  view override   returns (uint){\r\n        return govParliament[id].voteId;\r\n    }\r\n\r\n    /*\r\n       @dev \r\n       @params nodeId ID\r\n       @params voteId ID\r\n    */\r\n    function impeachExtract(uint nodeId, address token, uint amount, address receiver, uint impeach) external override onlyVote{\r\n        require(govTokenAmount[nodeId][token] >= amount,'not enough token');\r\n        govTokenAmount[nodeId][token] = govTokenAmount[nodeId][token].sub(amount);\r\n        _extract(receiver,amount,token);\r\n    }\r\n    /*\r\n     @dev \r\n     @params ID\r\n     @params \r\n\r\n */\r\n    function setManagerInfo(uint nodeId, address manager) external override onlyVote  {\r\n        cityGovernances[nodeId].manager = manager;\r\n    }\r\n\r\n    /*\r\n     @dev \r\n     @params nodeid id\r\n     @params user \r\n\r\n */\r\n    function removeParliament(uint nodeId, address user) external override onlyVote {\r\n        govParliament[nodeId].parliament.remove(user);\r\n    }\r\n\r\n    function _extract(address receiver,uint  amount,address token) internal {\r\n        IERC20(token).transfer(receiver,amount);\r\n    }\r\n\r\n    function parliamentInfo(uint nodeId) external view override  returns (uint, bool, uint){\r\n        return (govParliament[nodeId].expireTime, govParliament[nodeId].votePeriod, govParliament[nodeId].impeachIndex);\r\n    }\r\n\r\n\r\n    /*\r\n   @dev \r\n   @params nodeid id\r\n   @params voteId \r\n   @params index \r\n  */\r\n    function setParliament(uint nodeId, uint voteId, uint index) external override onlyVote {\r\n        address user = parliamentApplyRecords[nodeId][voteId][index].account;\r\n//        govParliament[nodeId].parliament.add(user);\r\n        parliamentUp[nodeId][voteId][user] = true;\r\n        govParliament[nodeId].impeachIndex++;\r\n    }\r\n\r\n\r\n    /*\r\n       @dev\r\n   */\r\n    function parliamentTakeOffice(uint nodeId) public {\r\n        require(parliamentUp[nodeId][govParliament[nodeId].voteId][msg.sender],'no access');\r\n        require( IERC20( address(Rbt())).balanceOf(msg.sender) >= 1000 * 10 ** 18,'not enough rbt');\r\n        TransferHelper.safeTransferFrom(address(Rbt()),msg.sender,cityGovernances[nodeId].cfm,1000 * 10 ** 18);\r\n        govParliament[nodeId].parliament.add(msg.sender);\r\n    }\r\n\r\n    function _quickSort(parliamentApply[] storage arr, uint left, uint right) internal {\r\n        uint i = left;\r\n        uint j = right;\r\n        if (i == j) return;\r\n        uint pivot = arr[uint(left + (right - left) / 2)].tickets;\r\n        while (i <= j) {\r\n            while (arr[uint(i)].tickets < pivot) i++;\r\n            while (pivot < arr[uint(j)].tickets) j--;\r\n            if (i <= j) {\r\n                (arr[uint(i)], arr[uint(j)]) = (arr[uint(j)], arr[uint(i)]);\r\n                i++;\r\n                j--;\r\n            }\r\n        }\r\n        if (left < j)\r\n            _quickSort(arr, left, j);\r\n        if (i < right)\r\n            _quickSort(arr, i, right);\r\n    }\r\n}\r\n",
  "sourcePath": "D://rainbow/RainbowDao-protocol/contracts/gov/CityGovernanceCommittee.sol",
  "compiler": {
    "name": "solc",
    "version": "0.8.0+commit.c7dfd78e.Emscripten.clang"
  },
  "schemaVersion": "3.4.1",
  "updatedAt": "2021-10-08T01:43:00.792Z",
  "devdoc": {
    "kind": "dev",
    "methods": {
      "Rbt()": {
        "returns": {
          "_0": "IFei implementation address"
        }
      },
      "core()": {
        "returns": {
          "_0": "ICore implementation address"
        }
      }
    },
    "version": 1
  },
  "userdoc": {
    "kind": "user",
    "methods": {
      "Rbt()": {
        "notice": "address of the Fei contract referenced by Core"
      },
      "core()": {
        "notice": "address of the Core contract referenced"
      }
    },
    "version": 1
  }
}