{
  "contractName": "CityNodeFundManagement",
  "abi": [
    {
      "inputs": [
        {
          "internalType": "address",
          "name": "nodeAddress",
          "type": "address"
        },
        {
          "internalType": "address",
          "name": "core",
          "type": "address"
        },
        {
          "internalType": "address",
          "name": "token",
          "type": "address"
        }
      ],
      "stateMutability": "nonpayable",
      "type": "constructor"
    },
    {
      "anonymous": false,
      "inputs": [
        {
          "indexed": true,
          "internalType": "address",
          "name": "_core",
          "type": "address"
        }
      ],
      "name": "CoreUpdate",
      "type": "event"
    },
    {
      "anonymous": false,
      "inputs": [
        {
          "indexed": true,
          "internalType": "uint256",
          "name": "id",
          "type": "uint256"
        },
        {
          "indexed": true,
          "internalType": "uint256",
          "name": "nodeId",
          "type": "uint256"
        },
        {
          "indexed": false,
          "internalType": "address",
          "name": "owner",
          "type": "address"
        },
        {
          "indexed": false,
          "internalType": "uint256",
          "name": "creationTime",
          "type": "uint256"
        }
      ],
      "name": "tokenProposalCreate",
      "type": "event"
    },
    {
      "inputs": [],
      "name": "Rbt",
      "outputs": [
        {
          "internalType": "contract IERC20",
          "name": "",
          "type": "address"
        }
      ],
      "stateMutability": "view",
      "type": "function"
    },
    {
      "inputs": [],
      "name": "RbtVote",
      "outputs": [
        {
          "internalType": "contract IRbtVote",
          "name": "",
          "type": "address"
        }
      ],
      "stateMutability": "view",
      "type": "function"
    },
    {
      "inputs": [],
      "name": "core",
      "outputs": [
        {
          "internalType": "contract ICore",
          "name": "",
          "type": "address"
        }
      ],
      "stateMutability": "view",
      "type": "function"
    },
    {
      "inputs": [],
      "name": "fundOwner",
      "outputs": [
        {
          "internalType": "address",
          "name": "",
          "type": "address"
        }
      ],
      "stateMutability": "view",
      "type": "function"
    },
    {
      "inputs": [
        {
          "internalType": "address",
          "name": "",
          "type": "address"
        },
        {
          "internalType": "address",
          "name": "",
          "type": "address"
        }
      ],
      "name": "managerAndParliamentsReward",
      "outputs": [
        {
          "internalType": "uint256",
          "name": "",
          "type": "uint256"
        }
      ],
      "stateMutability": "view",
      "type": "function"
    },
    {
      "inputs": [
        {
          "internalType": "address",
          "name": "core",
          "type": "address"
        }
      ],
      "name": "setCore",
      "outputs": [],
      "stateMutability": "nonpayable",
      "type": "function"
    },
    {
      "inputs": [
        {
          "internalType": "uint256",
          "name": "",
          "type": "uint256"
        }
      ],
      "name": "tokenProposals",
      "outputs": [
        {
          "internalType": "uint256",
          "name": "id",
          "type": "uint256"
        },
        {
          "internalType": "address",
          "name": "owner",
          "type": "address"
        },
        {
          "internalType": "uint256",
          "name": "nodeId",
          "type": "uint256"
        },
        {
          "internalType": "uint256",
          "name": "stage",
          "type": "uint256"
        },
        {
          "internalType": "uint256",
          "name": "day",
          "type": "uint256"
        },
        {
          "internalType": "uint256",
          "name": "depositType",
          "type": "uint256"
        },
        {
          "internalType": "uint256",
          "name": "applyAmount",
          "type": "uint256"
        },
        {
          "internalType": "uint256",
          "name": "depositAmount",
          "type": "uint256"
        },
        {
          "internalType": "uint256",
          "name": "opposeTickets",
          "type": "uint256"
        },
        {
          "internalType": "string",
          "name": "description",
          "type": "string"
        },
        {
          "internalType": "uint256",
          "name": "parliamentsAgree",
          "type": "uint256"
        },
        {
          "internalType": "uint256",
          "name": "creationTime",
          "type": "uint256"
        },
        {
          "internalType": "uint256",
          "name": "voteStartTime",
          "type": "uint256"
        }
      ],
      "stateMutability": "view",
      "type": "function"
    },
    {
      "inputs": [
        {
          "internalType": "string",
          "name": "",
          "type": "string"
        },
        {
          "internalType": "address",
          "name": "",
          "type": "address"
        }
      ],
      "name": "tokenStorage",
      "outputs": [
        {
          "internalType": "uint256",
          "name": "",
          "type": "uint256"
        }
      ],
      "stateMutability": "view",
      "type": "function"
    },
    {
      "inputs": [
        {
          "internalType": "address",
          "name": "addr",
          "type": "address"
        }
      ],
      "name": "setRbtVote",
      "outputs": [],
      "stateMutability": "nonpayable",
      "type": "function"
    },
    {
      "inputs": [
        {
          "internalType": "address",
          "name": "receiver",
          "type": "address"
        },
        {
          "internalType": "uint256",
          "name": "amount",
          "type": "uint256"
        },
        {
          "internalType": "address",
          "name": "token",
          "type": "address"
        },
        {
          "internalType": "uint256",
          "name": "impeachtype",
          "type": "uint256"
        }
      ],
      "name": "impeachTokenSend",
      "outputs": [],
      "stateMutability": "nonpayable",
      "type": "function"
    },
    {
      "inputs": [
        {
          "internalType": "uint256",
          "name": "nodeId",
          "type": "uint256"
        },
        {
          "internalType": "uint256",
          "name": "stage",
          "type": "uint256"
        },
        {
          "internalType": "uint256",
          "name": "day",
          "type": "uint256"
        },
        {
          "internalType": "uint256",
          "name": "depositType",
          "type": "uint256"
        },
        {
          "internalType": "uint256",
          "name": "applyAmount",
          "type": "uint256"
        },
        {
          "internalType": "uint256",
          "name": "depositAmount",
          "type": "uint256"
        },
        {
          "internalType": "string",
          "name": "description",
          "type": "string"
        }
      ],
      "name": "applyToken",
      "outputs": [],
      "stateMutability": "nonpayable",
      "type": "function"
    },
    {
      "inputs": [
        {
          "internalType": "string",
          "name": "store",
          "type": "string"
        },
        {
          "internalType": "address",
          "name": "token",
          "type": "address"
        },
        {
          "internalType": "uint256",
          "name": "amount",
          "type": "uint256"
        }
      ],
      "name": "addTokenStorage",
      "outputs": [],
      "stateMutability": "nonpayable",
      "type": "function"
    },
    {
      "inputs": [
        {
          "internalType": "contract IParliament",
          "name": "Ip",
          "type": "address"
        },
        {
          "internalType": "uint256",
          "name": "nodeId",
          "type": "uint256"
        },
        {
          "internalType": "uint256",
          "name": "id",
          "type": "uint256"
        },
        {
          "internalType": "uint256",
          "name": "stage",
          "type": "uint256"
        }
      ],
      "name": "parliamentsVoteProposal",
      "outputs": [],
      "stateMutability": "nonpayable",
      "type": "function"
    },
    {
      "inputs": [
        {
          "internalType": "uint256",
          "name": "nodeId",
          "type": "uint256"
        },
        {
          "internalType": "uint256",
          "name": "id",
          "type": "uint256"
        },
        {
          "internalType": "uint256",
          "name": "tickets",
          "type": "uint256"
        }
      ],
      "name": "voteToProposal",
      "outputs": [],
      "stateMutability": "nonpayable",
      "type": "function"
    },
    {
      "inputs": [
        {
          "internalType": "contract IParliament",
          "name": "Ip",
          "type": "address"
        },
        {
          "internalType": "uint256",
          "name": "id",
          "type": "uint256"
        },
        {
          "internalType": "uint256",
          "name": "stage",
          "type": "uint256"
        }
      ],
      "name": "receiveToken",
      "outputs": [],
      "stateMutability": "nonpayable",
      "type": "function"
    },
    {
      "inputs": [
        {
          "internalType": "uint256",
          "name": "id",
          "type": "uint256"
        },
        {
          "internalType": "uint256",
          "name": "stage",
          "type": "uint256"
        },
        {
          "internalType": "string",
          "name": "description",
          "type": "string"
        }
      ],
      "name": "submitReport",
      "outputs": [],
      "stateMutability": "nonpayable",
      "type": "function"
    },
    {
      "inputs": [
        {
          "internalType": "address",
          "name": "user",
          "type": "address"
        },
        {
          "internalType": "address",
          "name": "token",
          "type": "address"
        },
        {
          "internalType": "uint256",
          "name": "amount",
          "type": "uint256"
        },
        {
          "internalType": "uint256",
          "name": "operate",
          "type": "uint256"
        }
      ],
      "name": "setUserReward",
      "outputs": [],
      "stateMutability": "nonpayable",
      "type": "function"
    },
    {
      "inputs": [
        {
          "internalType": "address",
          "name": "user",
          "type": "address"
        },
        {
          "internalType": "address",
          "name": "token",
          "type": "address"
        }
      ],
      "name": "getUserReward",
      "outputs": [
        {
          "internalType": "uint256",
          "name": "",
          "type": "uint256"
        }
      ],
      "stateMutability": "view",
      "type": "function"
    }
  ],
  "bytecode": "0x60806040523480156200001157600080fd5b506040516200294038038062002940833981016040819052620000349162000087565b50600080546001600160a01b039283166001600160a01b03199182161790915560078054939092169216919091179055620000d0565b80516001600160a01b03811681146200008257600080fd5b919050565b6000806000606084860312156200009c578283fd5b620000a7846200006a565b9250620000b7602085016200006a565b9150620000c7604085016200006a565b90509250925092565b61286080620000e06000396000f3fe608060405234801561001057600080fd5b50600436106101165760003560e01c80637da68220116100a2578063b2f9aabf11610071578063b2f9aabf1461022f578063b349c5d614610242578063f2f4eb2614610255578063f4dfdde71461025d578063ffb8b4581461027057610116565b80637da68220146101ee5780638000963014610201578063964f316214610214578063b2e44f651461021c57610116565b80632f126cdb116100e95780632f126cdb146101815780635ab764ed146101ad5780636894b483146101c0578063735fb8e0146101d35780637bfcbf2a146101db57610116565b8063135b54dd1461011b578063219dcc0d146101395780632256283e1461014e578063256919d414610161575b600080fd5b610123610283565b6040516101309190612398565b60405180910390f35b61014c610147366004612079565b61030f565b005b61014c61015c3660046122c4565b6106fb565b61017461016f3660046121a9565b61080f565b604051610130919061263e565b61019461018f366004612246565b61083c565b6040516101309d9c9b9a9998979695949392919061265e565b6101746101bb366004611ffc565b61093d565b61014c6101ce366004612034565b610968565b610123610a5d565b61014c6101e9366004612276565b610a6c565b61014c6101fc36600461216f565b610b3d565b61014c61020f366004611fe0565b6111ff565b6101236112e3565b61014c61022a3660046122ef565b6112f2565b61014c61023d36600461213b565b6114ae565b610174610250366004611ffc565b611994565b6101236119b1565b61014c61026b366004611fe0565b6119c0565b61014c61027e3660046121ee565b611a7e565b60008060009054906101000a90046001600160a01b03166001600160a01b03166318f7d8626040518163ffffffff1660e01b815260040160206040518083038186803b1580156102d257600080fd5b505afa1580156102e6573d6000803e3d6000fd5b505050506040513d601f19601f8201168201806040525081019061030a919061211f565b905090565b600054604051630fcd4eb360e11b81526001600160a01b0390911690631f9a9d669061033f903390600401612398565b60206040518083038186803b15801561035757600080fd5b505afa15801561036b573d6000803e3d6000fd5b505050506040513d601f19601f8201168201806040525081019061038f91906120c0565b6103b45760405162461bcd60e51b81526004016103ab9061247d565b60405180910390fd5b60408051600280825260608201909252600091816020015b60608152602001906001900390816103cc575050604080516002808252606082018352929350600092909160208301908036833750506040805160208101909152600081529192505060018414156104485760408051808201909152600d81526c4d414e414745525f53544f524560981b60209091015261047a565b836002141561047a5760408051808201909152601081526f5041524c49414d454e545f53544f524560801b6020909101525b60018160405161048a9190612364565b90815260408051602092819003830190206001600160a01b0388166000908152925290205486111561068a5780836000815181106104d857634e487b7160e01b600052603260045260246000fd5b60200260200101819052506001816040516104f39190612364565b90815260200160405180910390206000866001600160a01b03166001600160a01b03168152602001908152602001600020548260008151811061054657634e487b7160e01b600052603260045260246000fd5b60200260200101818152505060006001826040516105649190612364565b90815260408051602092819003830190206001600160a01b038916600090815292529020546105939088612750565b905060016040516105a390612380565b90815260408051602092819003830190206001600160a01b038916600090815292529020548111156106055760016040516105dd90612380565b90815260408051602092819003830190206001600160a01b0389166000908152925290205490505b6040518060400160405280600c81526020016b5055424c49435f53544f524560a01b8152508460018151811061064b57634e487b7160e01b600052603260045260246000fd5b6020026020010181905250808360018151811061067857634e487b7160e01b600052603260045260246000fd5b602002602001018181525050506106e6565b80836000815181106106ac57634e487b7160e01b600052603260045260246000fd5b602002602001018190525085826000815181106106d957634e487b7160e01b600052603260045260246000fd5b6020026020010181815250505b6106f287838588611b07565b50505050505050565b600754604051638b7f0f9560e01b8152849133916001600160a01b0390911690638b7f0f95906107319085908590600401612647565b60206040518083038186803b15801561074957600080fd5b505afa15801561075d573d6000803e3d6000fd5b505050506040513d601f19601f8201168201806040525081019061078191906120c0565b151560011461078f57600080fd5b6000848152600560205260409020600c015442906107b09062093a806126f9565b1180156107ce57506000848152600560205260409020600a01546007145b6107d757600080fd5b6000848152600560205260409020600801546107f39084611d71565b6000948552600560205260409094206008019390935550505050565b81516020818401810180516001825292820194820194909420919093529091526000908152604090205481565b60056020528060005260406000206000915090508060000154908060010160009054906101000a90046001600160a01b0316908060020154908060030154908060040154908060050154908060060154908060070154908060080154908060090180546108a890612793565b80601f01602080910402602001604051908101604052809291908181526020018280546108d490612793565b80156109215780601f106108f657610100808354040283529160200191610921565b820191906000526020600020905b81548152906001019060200180831161090457829003601f168201915b50505050509080600a01549080600b01549080600c015490508d565b6001600160a01b03918216600090815260026020908152604080832093909416825291909152205490565b80600114806109775750806002145b6109935760405162461bcd60e51b81526004016103ab90612531565b80600114156109f7576001600160a01b038085166000908152600260209081526040808320938716835292905220546109cc9083611d71565b6001600160a01b03808616600090815260026020908152604080832093881683529290522055610a57565b8060021415610a57576001600160a01b03808516600090815260026020908152604080832093871683529290522054610a309083611d84565b6001600160a01b038086166000908152600260209081526040808320938816835292905220555b50505050565b6007546001600160a01b031681565b600082118015610a8d57506000838152600560205260409020600301548211155b610a9657600080fd5b6000838152600560209081526040808320858452600d0190915290206002015460ff610100909104161515600114610ae05760405162461bcd60e51b81526004016103ab906123e9565b6000838152600560208181526040808420868552600d0182529092208351610b1093919092019190840190611e90565b50506000918252600560209081526040808420928452600d90920190529020600201805461ff0019169055565b600754604051638b7f0f9560e01b8152849133916001600160a01b0390911690638b7f0f9590610b739085908590600401612647565b60206040518083038186803b158015610b8b57600080fd5b505afa158015610b9f573d6000803e3d6000fd5b505050506040513d601f19601f82011682018060405250810190610bc391906120c0565b1515600114610bd157600080fd5b600080876001600160a01b031663249a40cd886040518263ffffffff1660e01b8152600401610c00919061263e565b60806040518083038186803b158015610c1857600080fd5b505afa158015610c2c573d6000803e3d6000fd5b505050506040513d601f19601f82011682018060405250810190610c5091906120da565b60008a81526005602052604090206003015491955093508711159150610c8a90505760405162461bcd60e51b81526004016103ab90612420565b604051633068e23760e11b81526001600160a01b038916906360d1c46e90610cb8908a903390600401612647565b60206040518083038186803b158015610cd057600080fd5b505afa158015610ce4573d6000803e3d6000fd5b505050506040513d601f19601f82011682018060405250810190610d0891906120c0565b80610d1b57506001600160a01b03821633145b610d2457600080fd5b6000868152600460209081526040808320888452825280832033845260010190915290205460ff1615610d695760405162461bcd60e51b81526004016103ab906124e2565b60008681526004602090815260408083208884528083528184203380865260018281018652938620805460ff1916851790559184528054928301815584529190922090910180546001600160a01b031916909117905584610ead576000868152600560205260409020600b0154610de3906203f4806126f9565b4210610e015760405162461bcd60e51b81526004016103ab90612619565b6000868152600560205260408120600a01805491610e1e836127ce565b90915550506000868152600560205260409020600a015460071415610e765760008690526005602052610e544262093a806126f9565b600087815260056020908152604080832060018452600d019091529020600301555b6000868152600560205260409020600a015460071015610ea85760405162461bcd60e51b81526004016103ab90612501565b6111f5565b6006546040516342a422e960e11b81526000916001600160a01b03169063854845d290610ede90859060040161263e565b60206040518083038186803b158015610ef657600080fd5b505afa158015610f0a573d6000803e3d6000fd5b505050506040513d601f19601f82011682018060405250810190610f2e919061225e565b90508560011415610fa0576000878152600560205260409020600a01546007148015610f7f5750610f6b6064610f6583601e611d90565b90611d9c565b600088815260056020526040902060080154105b610f9b5760405162461bcd60e51b81526004016103ab90612446565b611038565b6000878152600560205260408120600791600d90910190610fc260018a612750565b81526020019081526020016000206001015410801561101c57506000878152600560205260408120600d0190610ff9600189612750565b8152602001908152602001600020600301546203f48061101991906126f9565b42115b6110385760405162461bcd60e51b81526004016103ab90612583565b6000878152600560209081526040808320898452600d019091528120600101805491611063836127ce565b90915550506000878152600560209081526040808320898452600d01909152902060010154600714156111f3576000878152600560209081526040808320898452600d01909152902060040154600310156110d05760405162461bcd60e51b81526004016103ab906124be565b6000878152600560209081526040808320898452600d01909152812060018101829055600401805491611102836127ce565b90915550506000878152600560209081526040808320898452600d018252808320600201805461ff00191661010017905589835260048252808320898452909152812054905b818110156111ce5760008981526004602090815260408083208b845290915281208054600182019291908490811061119057634e487b7160e01b600052603260045260246000fd5b60009182526020808320909101546001600160a01b031683528201929092526040019020805460ff19169055806111c6816127ce565b915050611148565b5060008881526004602090815260408083208a845290915281206111f191611f14565b505b505b5050505050505050565b600054604051631c86b03760e31b81526001600160a01b039091169063e43581b89061122f903390600401612398565b60206040518083038186803b15801561124757600080fd5b505afa15801561125b573d6000803e3d6000fd5b505050506040513d601f19601f8201168201806040525081019061127f91906120c0565b61129b5760405162461bcd60e51b81526004016103ab90612594565b600080546001600160a01b0319166001600160a01b038316908117825560405190917fad9400e618eb1344fde53db22397a1b82c765527ecbba3a5c86bcac15090828b91a250565b6006546001600160a01b031681565b600754604051638b7f0f9560e01b8152889133916001600160a01b0390911690638b7f0f95906113289085908590600401612647565b60206040518083038186803b15801561134057600080fd5b505afa158015611354573d6000803e3d6000fd5b505050506040513d601f19601f8201168201806040525081019061137891906120c0565b151560011461138657600080fd5b60038054906000611396836127ce565b919050555085600114156113b657836064146113b157600080fd5b6113da565b85600214156113da576113cf6064610f65876005611d90565b84146113da57600080fd5b6113ed6113e5610283565b333087611da8565b6003805460008181526005602081815260409092209283556001830180546001600160a01b03191633179055600283018d90559282018b9055600482018a9055918101889055600681018790556007810186905584519091611456916009840191870190611e90565b506000600a82015542600b820181905581546040518c927f39d8fe849ca64dcf7d99ceb3188ffaf453975b4d403bb6e5f1e23fa36352c99e9161149a9133916123d0565b60405180910390a350505050505050505050565b60008281526005602052604080822060020154905163249a40cd60e01b815282916001600160a01b0387169163249a40cd916114ec9160040161263e565b60806040518083038186803b15801561150457600080fd5b505afa158015611518573d6000803e3d6000fd5b505050506040513d601f19601f8201168201806040525081019061153c91906120da565b93509350505060008311801561156357506000848152600560205260409020600301548311155b61157f5760405162461bcd60e51b81526004016103ab90612420565b6000848152600560205260409020600101546001600160a01b031633146115a557600080fd5b6000848152600560209081526040808320868452600d0190915290206002015460ff16156115e55760405162461bcd60e51b81526004016103ab90612555565b82600114156116ff576006546040516342a422e960e11b81526000916001600160a01b03169063854845d29061161f90859060040161263e565b60206040518083038186803b15801561163757600080fd5b505afa15801561164b573d6000803e3d6000fd5b505050506040513d601f19601f8201168201806040525081019061166f919061225e565b6000868152600560205260409020600b0154909150611691906203f4806126f9565b42106116af5760405162461bcd60e51b81526004016103ab90612619565b6000858152600560205260409020600a01546007146116cd57600080fd5b6116dd6064610f6583601e611d90565b600086815260056020526040902060080154106116f957600080fd5b50611788565b6000848152600560205260408120600791600d90910190611721600187612750565b81526020019081526020016000206001015410801561177f57506000848152600560205260408120600481015442929091600d0190611761600188612750565b81526020019081526020016000206003015461177d91906126f9565b105b61178857600080fd5b6000848152600560209081526040808320868452600d0190915290206002018054610100600160ff19909216821761ff001916179091556117ca9084906126f9565b600085815260056020526040902060030154106118175760008481526005602052604081204291600d909101906118028660016126f9565b81526020810191909152604001600020600301555b604080516001808252818301909252600091816020015b606081526020019060019003908161182e57505060408051600180825281830190925291925060009190602080830190803683370190505090506040518060400160405280600c81526020016b5055424c49435f53544f524560a01b815250826000815181106118ae57634e487b7160e01b600052603260045260246000fd5b602090810291909101810191909152600087815260059091526040902060038101546006909101546118df91611d9c565b8160008151811061190057634e487b7160e01b600052603260045260246000fd5b60200260200101818152505060006119166119b1565b6001600160a01b03166318f7d8626040518163ffffffff1660e01b815260040160206040518083038186803b15801561194e57600080fd5b505afa158015611962573d6000803e3d6000fd5b505050506040513d601f19601f82011682018060405250810190611986919061211f565b90506111f533838584611b07565b600260209081526000928352604080842090915290825290205481565b6000546001600160a01b031690565b600054604051631c86b03760e31b81526001600160a01b039091169063e43581b8906119f0903390600401612398565b60206040518083038186803b158015611a0857600080fd5b505afa158015611a1c573d6000803e3d6000fd5b505050506040513d601f19601f82011682018060405250810190611a4091906120c0565b611a5c5760405162461bcd60e51b81526004016103ab90612594565b600680546001600160a01b0319166001600160a01b0392909216919091179055565b611abd81600185604051611a929190612364565b90815260408051602092819003830190206001600160a01b0387166000908152925290205490611d71565b600184604051611acd9190612364565b90815260200160405180910390206000846001600160a01b03166001600160a01b0316815260200190815260200160002081905550505050565b8151835114611b1557600080fd5b6000805b8451811015611ce857848181518110611b4257634e487b7160e01b600052603260045260246000fd5b60200260200101516001858381518110611b6c57634e487b7160e01b600052603260045260246000fd5b6020026020010151604051611b819190612364565b90815260408051602092819003830190206001600160a01b038716600090815292529020541015611bb157600080fd5b611beb858281518110611bd457634e487b7160e01b600052603260045260246000fd5b602002602001015183611d7190919063ffffffff16565b9150611c7a858281518110611c1057634e487b7160e01b600052603260045260246000fd5b60200260200101516001868481518110611c3a57634e487b7160e01b600052603260045260246000fd5b6020026020010151604051611c4f9190612364565b90815260408051602092819003830190206001600160a01b0388166000908152925290205490611d84565b6001858381518110611c9c57634e487b7160e01b600052603260045260246000fd5b6020026020010151604051611cb19190612364565b90815260408051602092819003830190206001600160a01b0387166000908152925290205580611ce0816127ce565b915050611b19565b5060405163a9059cbb60e01b81526001600160a01b0383169063a9059cbb90611d1790889085906004016123d0565b602060405180830381600087803b158015611d3157600080fd5b505af1158015611d45573d6000803e3d6000fd5b505050506040513d601f19601f82011682018060405250810190611d6991906120c0565b505050505050565b6000611d7d82846126f9565b9392505050565b6000611d7d8284612750565b6000611d7d8284612731565b6000611d7d8284612711565b600080856001600160a01b03166323b872dd868686604051602401611dcf939291906123ac565b6040516020818303038152906040529060e01b6020820180516001600160e01b038381831617835250505050604051611e089190612364565b6000604051808303816000865af19150503d8060008114611e45576040519150601f19603f3d011682016040523d82523d6000602084013e611e4a565b606091505b5091509150818015611e74575080511580611e74575080806020019051810190611e7491906120c0565b611d695760405162461bcd60e51b81526004016103ab906125d5565b828054611e9c90612793565b90600052602060002090601f016020900481019282611ebe5760008555611f04565b82601f10611ed757805160ff1916838001178555611f04565b82800160010185558215611f04579182015b82811115611f04578251825591602001919060010190611ee9565b50611f10929150611f35565b5090565b5080546000825590600052602060002090810190611f329190611f35565b50565b5b80821115611f105760008155600101611f36565b80518015158114611f5a57600080fd5b919050565b600082601f830112611f6f578081fd5b813567ffffffffffffffff80821115611f8a57611f8a6127ff565b604051601f8301601f191681016020018281118282101715611fae57611fae6127ff565b604052828152848301602001861015611fc5578384fd5b82602086016020830137918201602001929092529392505050565b600060208284031215611ff1578081fd5b8135611d7d81612815565b6000806040838503121561200e578081fd5b823561201981612815565b9150602083013561202981612815565b809150509250929050565b60008060008060808587031215612049578182fd5b843561205481612815565b9350602085013561206481612815565b93969395505050506040820135916060013590565b6000806000806080858703121561208e578384fd5b843561209981612815565b93506020850135925060408501356120b081612815565b9396929550929360600135925050565b6000602082840312156120d1578081fd5b611d7d82611f4a565b600080600080608085870312156120ef578384fd5b6120f885611f4a565b935060208501519250604085015161210f81612815565b6060959095015193969295505050565b600060208284031215612130578081fd5b8151611d7d81612815565b60008060006060848603121561214f578283fd5b833561215a81612815565b95602085013595506040909401359392505050565b60008060008060808587031215612184578384fd5b843561218f81612815565b966020860135965060408601359560600135945092505050565b600080604083850312156121bb578182fd5b823567ffffffffffffffff8111156121d1578283fd5b6121dd85828601611f5f565b925050602083013561202981612815565b600080600060608486031215612202578283fd5b833567ffffffffffffffff811115612218578384fd5b61222486828701611f5f565b935050602084013561223581612815565b929592945050506040919091013590565b600060208284031215612257578081fd5b5035919050565b60006020828403121561226f578081fd5b5051919050565b60008060006060848603121561228a578081fd5b8335925060208401359150604084013567ffffffffffffffff8111156122ae578182fd5b6122ba86828701611f5f565b9150509250925092565b6000806000606084860312156122d8578081fd5b505081359360208301359350604090920135919050565b600080600080600080600060e0888a031215612309578485fd5b873596506020880135955060408801359450606088013593506080880135925060a0880135915060c088013567ffffffffffffffff811115612349578182fd5b6123558a828b01611f5f565b91505092959891949750929550565b60008251612376818460208701612767565b9190910192915050565b6b5055424c49435f53544f524560a01b8152600c0190565b6001600160a01b0391909116815260200190565b6001600160a01b039384168152919092166020820152604081019190915260600190565b6001600160a01b03929092168252602082015260400190565b6020808252601a908201527f43616e6e6f74207375626d697420617420746869732074696d65000000000000604082015260600190565b6020808252600c908201526b6e6f7420696e20737461676560a01b604082015260600190565b6020808252601a908201527f70726576207374616765206973206e6f742066696e6973686564000000000000604082015260600190565b60208082526021908201527f436f72655265663a2043616c6c6572206973206e6f74206120436974794e6f646040820152606560f81b606082015260800190565b6020808252600a9082015269206e6f206368616e636560b01b604082015260600190565b6020808252600590820152641d9bdd195960da1b604082015260600190565b6020808252601690820152751d1a1a5cc81c1c9bdc1bdcd85b081a5cc818591bdc1d60521b604082015260600190565b6020808252600a90820152696e6f742061636365737360b01b604082015260600190565b6020808252601490820152736e6f2061636365737320746f207265636569766560601b604082015260600190565b602080825260009082015260400190565b60208082526021908201527f436f72655265663a2043616c6c6572206973206e6f74206120676f7665726e6f6040820152603960f91b606082015260800190565b60208082526024908201527f5472616e7366657248656c7065723a205452414e534645525f46524f4d5f46416040820152631253115160e21b606082015260800190565b6020808252600b908201526a6e6f7420696e2074696d6560a81b604082015260600190565b90815260200190565b9182526001600160a01b0316602082015260400190565b60006101a08f835260018060a01b038f1660208401528d60408401528c60608401528b60808401528a60a08401528960c08401528860e08401528761010084015280610120840152865180828501526101c091506126c28183860160208b01612767565b81601f19601f830116850101925050508461014083015283610160830152826101808301529e9d5050505050505050505050505050565b6000821982111561270c5761270c6127e9565b500190565b60008261272c57634e487b7160e01b81526012600452602481fd5b500490565b600081600019048311821515161561274b5761274b6127e9565b500290565b600082821015612762576127626127e9565b500390565b60005b8381101561278257818101518382015260200161276a565b83811115610a575750506000910152565b6002810460018216806127a757607f821691505b602082108114156127c857634e487b7160e01b600052602260045260246000fd5b50919050565b60006000198214156127e2576127e26127e9565b5060010190565b634e487b7160e01b600052601160045260246000fd5b634e487b7160e01b600052604160045260246000fd5b6001600160a01b0381168114611f3257600080fdfea2646970667358221220533d545be253791212e29fe07035d538532626882ce39b2f3d360a923029e98264736f6c63430008000033",
  "immutableReferences": {},
  "source": "pragma solidity ^0.8.0;\r\n\r\nimport '@openzeppelin/contracts/utils/math/SafeMath.sol';\r\n\r\nimport '../ref/CoreRef.sol';\r\nimport \"../lib/TransferHelper.sol\";\r\nimport \"../interface/gov/ICityNodeFundManagement.sol\";\r\nimport \"../interface/gov/IParliament.sol\";\r\nimport '../interface/IRbtVote.sol';\r\n\r\n// import '../interface/gov/ICityNodeFundManagement.sol';\r\ncontract CityNodeFundManagement is CoreRef,ICityNodeFundManagement{\r\n    //todo  corecitynode\r\n    using SafeMath for uint256;\r\n    mapping(string =>mapping(address=>uint)) public tokenStorage; //\r\n    mapping(address =>mapping(address => uint)) public managerAndParliamentsReward;\r\n    uint tokenProposalCount;\r\n    struct tokenProposal{\r\n        uint id;\r\n        address owner;\r\n        uint nodeId;\r\n        uint stage;\r\n        uint day;\r\n        uint depositType;\r\n        uint applyAmount;\r\n        uint depositAmount;\r\n        uint opposeTickets;\r\n        string  description;\r\n        uint parliamentsAgree;\r\n        uint creationTime;\r\n        uint voteStartTime;\r\n        mapping(uint => stageDetails) everyStageDetails;\r\n    }\r\n    struct parliamentsVoteRecord{\r\n        address[]  parliaments;\r\n        mapping(address => bool) parliamentsVoted;\r\n    }\r\n    //id id  \r\n    mapping(uint =>mapping(uint => parliamentsVoteRecord) ) private  parliamentsVote;\r\n    struct stageDetails {\r\n        bool start;\r\n        uint oppose;\r\n        bool received;//\r\n        bool canSubmit; //\r\n        uint startTime;\r\n        uint againSecond; //\r\n        string  description;\r\n//        mapping(address=>bool) parliamentsVote;\r\n    }\r\n    mapping(uint => tokenProposal) public tokenProposals;\r\n    IRbtVote public RbtVote;\r\n    address public fundOwner;\r\n    event tokenProposalCreate(uint indexed id, uint indexed nodeId,address owner,uint creationTime);\r\n\r\n    constructor(address nodeAddress,address core,address token) public  CoreRef(core)  {\r\n        uint256 maxTokens = type(uint256).max;\r\n         fundOwner = nodeAddress;\r\n        // IERC20(token).approve(nodeAddress, maxTokens);\r\n    }\r\n\r\n\r\n    modifier _inNode(uint nodeId,address sender) {\r\n        require(IParliament(fundOwner).inNode(nodeId,sender) == true);\r\n        _;\r\n    }\r\n    function setRbtVote(address addr) public  onlyGovernor() {\r\n        RbtVote = IRbtVote(addr);\r\n    }\r\n    /*\r\n     @dev \r\n      @params receiver \r\n      @params amount \r\n      @params where \r\n      @params token \r\n */\r\n    function _extract(address receiver,uint[] memory amount,string[] memory where,address token) internal {\r\n        require(amount.length == where.length);\r\n        uint allAmount;\r\n        for(uint i = 0; i<amount.length; i++){\r\n            require(tokenStorage[where[i]][token] >= amount[i]);\r\n            allAmount=allAmount.add(amount[i]);\r\n            tokenStorage[where[i]][token] = tokenStorage[where[i]][token].sub(amount[i]);\r\n        }\r\n        IERC20(token).transfer(receiver,allAmount);\r\n    }\r\n\r\n    /*\r\n      @dev \r\n      @params receiver \r\n      @params amount \r\n      @params token \r\n    */\r\n    //todo  corecitynode\r\n    function impeachTokenSend(address receiver,uint amount,address token,uint impeachtype) external override onlyCityNode() {\r\n        string[] memory where = new string[](2);\r\n        uint[] memory portion = new uint[](2) ;\r\n        string memory origin = '';\r\n        if(impeachtype == 1) {\r\n            string memory origin = 'MANAGER_STORE';\r\n        }else if(impeachtype == 2){\r\n            string memory origin = 'PARLIAMENT_STORE';\r\n        }\r\n        if (amount > tokenStorage[origin][token]) {\r\n            where[0] = origin;\r\n            portion[0] = tokenStorage[origin][token];\r\n            uint leftToken = amount - tokenStorage[origin][token];\r\n            if(leftToken > tokenStorage['PUBLIC_STORE'][token]){\r\n                leftToken = tokenStorage['PUBLIC_STORE'][token];\r\n            }\r\n            where[1] = 'PUBLIC_STORE';\r\n            portion[1] = leftToken;\r\n        } else {\r\n            where[0] = origin;\r\n            portion[0] = amount;\r\n        }\r\n        _extract(receiver,portion,where,token);\r\n    }\r\n\r\n    /*\r\n        @dev \r\n        @params tokenProposal\r\n\r\n    */\r\n    function applyToken(uint nodeId,uint stage,uint day ,uint depositType,uint applyAmount,uint depositAmount,string memory description) external  _inNode(nodeId,msg.sender){\r\n        tokenProposalCount++;\r\n        if(depositType == 1){\r\n            require(depositAmount == 100);\r\n        }else if(depositType == 2) {\r\n            require(depositAmount == applyAmount.mul(5).div(100));\r\n        }\r\n\r\n        TransferHelper.safeTransferFrom(address(Rbt()),msg.sender,address(this),depositAmount);\r\n        tokenProposal storage c = tokenProposals[tokenProposalCount];\r\n        c.id = tokenProposalCount;\r\n        c.owner = msg.sender;\r\n        c.nodeId = nodeId;\r\n        c.stage = stage;\r\n        c.day = day;\r\n        c.depositType = depositType;\r\n        c.applyAmount = applyAmount;\r\n        c.depositAmount = depositAmount;\r\n        c.description = description;\r\n        c.parliamentsAgree = 0 ;\r\n        c.creationTime = block.timestamp;\r\n      \r\n        emit tokenProposalCreate(c.id,nodeId,msg.sender,block.timestamp);\r\n    }\r\n\r\n    /*\r\n        @dev\r\n    */\r\n    //todo \r\n    function addTokenStorage(string memory store, address token, uint amount) external override{\r\n        tokenStorage[store][token] = tokenStorage[store][token].add(amount);\r\n    }\r\n\r\n    /*\r\n          @dev \r\n          @params nodeId id\r\n          @params id id\r\n          @params stage \r\n      */\r\n    function parliamentsVoteProposal (IParliament Ip,uint nodeId,uint id,uint stage) external  _inNode(nodeId,msg.sender) {\r\n       \r\n        (, ,address manager , uint voteId ) = Ip.getCityNodeInfo(nodeId);\r\n        require(stage>=0 && stage<=tokenProposals[id].stage,'not in stage');\r\n        require(Ip.hasParliament(nodeId,msg.sender) || manager == msg.sender);\r\n        require(parliamentsVote[id][stage].parliamentsVoted[msg.sender] == false,'voted');\r\n        parliamentsVote[id][stage].parliamentsVoted[msg.sender] = true;\r\n        parliamentsVote[id][stage].parliaments.push(msg.sender);\r\n        if(stage == 0) {\r\n            require(block.timestamp < tokenProposals[id].creationTime + 3 days ,'not in time');\r\n            tokenProposals[id].parliamentsAgree++;\r\n            if(tokenProposals[id].parliamentsAgree == 7) {\r\n                tokenProposals[id].voteStartTime == block.timestamp;\r\n                tokenProposals[id].everyStageDetails[1].startTime = block.timestamp + 7 days;\r\n            }\r\n            require(tokenProposals[id].parliamentsAgree <= 7 ,'this proposal is adopt');\r\n        } else {\r\n\r\n            uint  allticket = RbtVote.getDelegateVote(voteId);\r\n//            uint allticket = 100;\r\n            if(stage == 1) {\r\n                require(tokenProposals[id].parliamentsAgree == 7 && tokenProposals[id].opposeTickets < allticket.mul(30).div(100),'prev stage is not finished');\r\n            }else{\r\n                require(tokenProposals[id].everyStageDetails[stage-1].oppose < 7 &&\r\n                    block.timestamp > tokenProposals[id].everyStageDetails[stage-1].startTime + 3 days,'');\r\n            }\r\n            tokenProposals[id].everyStageDetails[stage].oppose++;\r\n            if(tokenProposals[id].everyStageDetails[stage].oppose == 7) {\r\n                //\r\n                require(tokenProposals[id].everyStageDetails[stage].againSecond <= 3 ,' no chance');\r\n                tokenProposals[id].everyStageDetails[stage].oppose = 0;\r\n                tokenProposals[id].everyStageDetails[stage].againSecond++;\r\n                tokenProposals[id].everyStageDetails[stage].canSubmit = true;\r\n              \r\n                uint voteLength = parliamentsVote[id][stage].parliaments.length;\r\n                for(uint i = 0; i< voteLength;i++){\r\n                    delete parliamentsVote[id][stage].parliamentsVoted[parliamentsVote[id][stage].parliaments[i]];\r\n                }\r\n                delete parliamentsVote[id][stage].parliaments;\r\n            }\r\n        }\r\n    }\r\n\r\n    /*\r\n      @dev \r\n      @params id id\r\n      @params tickets \r\n    */\r\n    function voteToProposal(uint nodeId, uint id,uint tickets) external  _inNode(nodeId,msg.sender) {\r\n        require(tokenProposals[id].voteStartTime + 7 days > block.timestamp && tokenProposals[id].parliamentsAgree == 7);\r\n        tokenProposals[id].opposeTickets = tokenProposals[id].opposeTickets.add(tickets);\r\n    }\r\n\r\n\r\n    /*\r\n          @dev \r\n      @params id id\r\n      @params tickets \r\n    */\r\n    function receiveToken(IParliament Ip,uint id,uint stage) external   {\r\n        (, ,address manager , uint voteId ) = Ip.getCityNodeInfo(tokenProposals[id].nodeId);\r\n        require(stage>0 && stage<=tokenProposals[id].stage,'not in stage');\r\n        require(tokenProposals[id].owner == msg.sender);\r\n        require(tokenProposals[id].everyStageDetails[stage].received == false,'no access to receive');\r\n        if(stage == 1) {\r\n            uint  allticket = RbtVote.getDelegateVote(voteId);\r\n//            uint allticket = 100;\r\n            require(block.timestamp < tokenProposals[id].creationTime + 3 days ,'not in time');\r\n            require(tokenProposals[id].parliamentsAgree == 7);\r\n            require(tokenProposals[id].opposeTickets < allticket.mul(30).div(100));\r\n        }else {\r\n            require(tokenProposals[id].everyStageDetails[stage -1].oppose < 7 && tokenProposals[id].everyStageDetails[stage - 1].startTime + tokenProposals[id].day < block.timestamp);\r\n        }\r\n\r\n        tokenProposals[id].everyStageDetails[stage].received = true;\r\n        tokenProposals[id].everyStageDetails[stage].canSubmit = true;\r\n        if(tokenProposals[id].stage >= stage + 1) {\r\n            tokenProposals[id].everyStageDetails[stage+1].startTime = block.timestamp;\r\n        }\r\n        string[] memory where = new string[](1);\r\n        uint[] memory portion = new uint[](1);\r\n        where[0] = 'PUBLIC_STORE';\r\n        portion[0] = tokenProposals[id].applyAmount.div(tokenProposals[id].stage);\r\n        IERC20 rbt = core().rbt();\r\n        _extract(msg.sender,portion,where,address(rbt));\r\n    }\r\n\r\n    /*\r\n        @dev \r\n        @params \r\n        @params\r\n    */\r\n    function submitReport(uint id,uint stage,string memory description) public {\r\n        require(stage > 0 && stage <= tokenProposals[id].stage);\r\n        require(tokenProposals[id].everyStageDetails[stage].canSubmit == true , 'Cannot submit at this time');\r\n        tokenProposals[id].everyStageDetails[stage].description = description;\r\n        tokenProposals[id].everyStageDetails[stage].canSubmit = false;\r\n    }\r\n    //todo  core\r\n    function setUserReward(address user ,address token ,uint amount,uint operate) public override {\r\n        require(operate == 1 || operate == 2,'not access');\r\n        if (operate == 1) {\r\n           managerAndParliamentsReward[user][token] =  managerAndParliamentsReward[user][token].add(amount);\r\n        }else if(operate == 2){\r\n            managerAndParliamentsReward[user][token] =  managerAndParliamentsReward[user][token].sub(amount);\r\n        }\r\n    }\r\n\r\n    /*\r\n        @dev\r\n        @params user \r\n        @params token \r\n        @return \r\n    */\r\n    function getUserReward(address user,address token) public view override returns(uint) {\r\n        return managerAndParliamentsReward[user][token];\r\n    }\r\n\r\n\r\n}\r\n",
  "sourcePath": "D://rainbow/RainbowDao-protocol/contracts/gov/CityNodeFundManagement.sol",
  "compiler": {
    "name": "solc",
    "version": "0.8.0+commit.c7dfd78e.Emscripten.clang"
  },
  "schemaVersion": "3.4.1",
  "updatedAt": "2021-10-08T01:43:37.300Z",
  "devdoc": {
    "kind": "dev",
    "methods": {
      "Rbt()": {
        "returns": {
          "_0": "IFei implementation address"
        }
      },
      "core()": {
        "returns": {
          "_0": "ICore implementation address"
        }
      }
    },
    "version": 1
  },
  "userdoc": {
    "kind": "user",
    "methods": {
      "Rbt()": {
        "notice": "address of the Fei contract referenced by Core"
      },
      "core()": {
        "notice": "address of the Core contract referenced"
      }
    },
    "version": 1
  }
}