{
  "contractName": "Core",
  "abi": [
    {
      "inputs": [
        {
          "internalType": "address",
          "name": "manager",
          "type": "address"
        }
      ],
      "stateMutability": "nonpayable",
      "type": "constructor"
    },
    {
      "anonymous": false,
      "inputs": [
        {
          "indexed": true,
          "internalType": "address",
          "name": "_rbb",
          "type": "address"
        }
      ],
      "name": "RBBUpdate",
      "type": "event"
    },
    {
      "anonymous": false,
      "inputs": [
        {
          "indexed": true,
          "internalType": "address",
          "name": "_rbd",
          "type": "address"
        }
      ],
      "name": "RBDUpdate",
      "type": "event"
    },
    {
      "anonymous": false,
      "inputs": [
        {
          "indexed": true,
          "internalType": "address",
          "name": "_rbtc",
          "type": "address"
        }
      ],
      "name": "RBTCUpdate",
      "type": "event"
    },
    {
      "anonymous": false,
      "inputs": [
        {
          "indexed": true,
          "internalType": "address",
          "name": "_rbtex",
          "type": "address"
        }
      ],
      "name": "RBTEXUpdate",
      "type": "event"
    },
    {
      "anonymous": false,
      "inputs": [
        {
          "indexed": true,
          "internalType": "address",
          "name": "_rbtseed",
          "type": "address"
        }
      ],
      "name": "RBTSeedUpdate",
      "type": "event"
    },
    {
      "anonymous": false,
      "inputs": [
        {
          "indexed": true,
          "internalType": "address",
          "name": "_rbt",
          "type": "address"
        }
      ],
      "name": "RBTUpdate",
      "type": "event"
    },
    {
      "anonymous": false,
      "inputs": [
        {
          "indexed": true,
          "internalType": "address",
          "name": "_rusd",
          "type": "address"
        }
      ],
      "name": "RUSDUpdate",
      "type": "event"
    },
    {
      "anonymous": false,
      "inputs": [
        {
          "indexed": true,
          "internalType": "bytes32",
          "name": "role",
          "type": "bytes32"
        },
        {
          "indexed": true,
          "internalType": "bytes32",
          "name": "previousAdminRole",
          "type": "bytes32"
        },
        {
          "indexed": true,
          "internalType": "bytes32",
          "name": "newAdminRole",
          "type": "bytes32"
        }
      ],
      "name": "RoleAdminChanged",
      "type": "event"
    },
    {
      "anonymous": false,
      "inputs": [
        {
          "indexed": true,
          "internalType": "bytes32",
          "name": "role",
          "type": "bytes32"
        },
        {
          "indexed": true,
          "internalType": "address",
          "name": "account",
          "type": "address"
        },
        {
          "indexed": true,
          "internalType": "address",
          "name": "sender",
          "type": "address"
        }
      ],
      "name": "RoleGranted",
      "type": "event"
    },
    {
      "anonymous": false,
      "inputs": [
        {
          "indexed": true,
          "internalType": "bytes32",
          "name": "role",
          "type": "bytes32"
        },
        {
          "indexed": true,
          "internalType": "address",
          "name": "account",
          "type": "address"
        },
        {
          "indexed": true,
          "internalType": "address",
          "name": "sender",
          "type": "address"
        }
      ],
      "name": "RoleRevoked",
      "type": "event"
    },
    {
      "inputs": [],
      "name": "CITY_NODE_ROLE",
      "outputs": [
        {
          "internalType": "bytes32",
          "name": "",
          "type": "bytes32"
        }
      ],
      "stateMutability": "view",
      "type": "function",
      "constant": true
    },
    {
      "inputs": [],
      "name": "DEFAULT_ADMIN_ROLE",
      "outputs": [
        {
          "internalType": "bytes32",
          "name": "",
          "type": "bytes32"
        }
      ],
      "stateMutability": "view",
      "type": "function",
      "constant": true
    },
    {
      "inputs": [],
      "name": "GOVERN_ROLE",
      "outputs": [
        {
          "internalType": "bytes32",
          "name": "",
          "type": "bytes32"
        }
      ],
      "stateMutability": "view",
      "type": "function",
      "constant": true
    },
    {
      "inputs": [],
      "name": "VOTE_ROLE",
      "outputs": [
        {
          "internalType": "bytes32",
          "name": "",
          "type": "bytes32"
        }
      ],
      "stateMutability": "view",
      "type": "function",
      "constant": true
    },
    {
      "inputs": [
        {
          "internalType": "bytes32",
          "name": "role",
          "type": "bytes32"
        },
        {
          "internalType": "bytes32",
          "name": "adminRole",
          "type": "bytes32"
        }
      ],
      "name": "createRole",
      "outputs": [],
      "stateMutability": "nonpayable",
      "type": "function"
    },
    {
      "inputs": [
        {
          "internalType": "bytes32",
          "name": "role",
          "type": "bytes32"
        }
      ],
      "name": "getRoleAdmin",
      "outputs": [
        {
          "internalType": "bytes32",
          "name": "",
          "type": "bytes32"
        }
      ],
      "stateMutability": "view",
      "type": "function",
      "constant": true
    },
    {
      "inputs": [
        {
          "internalType": "address",
          "name": "cityNode",
          "type": "address"
        }
      ],
      "name": "grantCityNode",
      "outputs": [],
      "stateMutability": "nonpayable",
      "type": "function"
    },
    {
      "inputs": [
        {
          "internalType": "address",
          "name": "governor",
          "type": "address"
        }
      ],
      "name": "grantGovernor",
      "outputs": [],
      "stateMutability": "nonpayable",
      "type": "function"
    },
    {
      "inputs": [
        {
          "internalType": "bytes32",
          "name": "role",
          "type": "bytes32"
        },
        {
          "internalType": "address",
          "name": "account",
          "type": "address"
        }
      ],
      "name": "grantRole",
      "outputs": [],
      "stateMutability": "nonpayable",
      "type": "function"
    },
    {
      "inputs": [
        {
          "internalType": "address",
          "name": "vote",
          "type": "address"
        }
      ],
      "name": "grantVote",
      "outputs": [],
      "stateMutability": "nonpayable",
      "type": "function"
    },
    {
      "inputs": [
        {
          "internalType": "bytes32",
          "name": "role",
          "type": "bytes32"
        },
        {
          "internalType": "address",
          "name": "account",
          "type": "address"
        }
      ],
      "name": "hasRole",
      "outputs": [
        {
          "internalType": "bool",
          "name": "",
          "type": "bool"
        }
      ],
      "stateMutability": "view",
      "type": "function",
      "constant": true
    },
    {
      "inputs": [
        {
          "internalType": "address",
          "name": "_address",
          "type": "address"
        }
      ],
      "name": "isCityNode",
      "outputs": [
        {
          "internalType": "bool",
          "name": "",
          "type": "bool"
        }
      ],
      "stateMutability": "view",
      "type": "function",
      "constant": true
    },
    {
      "inputs": [
        {
          "internalType": "address",
          "name": "_address",
          "type": "address"
        }
      ],
      "name": "isGovernor",
      "outputs": [
        {
          "internalType": "bool",
          "name": "",
          "type": "bool"
        }
      ],
      "stateMutability": "view",
      "type": "function",
      "constant": true
    },
    {
      "inputs": [
        {
          "internalType": "address",
          "name": "_address",
          "type": "address"
        }
      ],
      "name": "isVote",
      "outputs": [
        {
          "internalType": "bool",
          "name": "",
          "type": "bool"
        }
      ],
      "stateMutability": "view",
      "type": "function",
      "constant": true
    },
    {
      "inputs": [],
      "name": "rbb",
      "outputs": [
        {
          "internalType": "contract IERC20",
          "name": "",
          "type": "address"
        }
      ],
      "stateMutability": "view",
      "type": "function",
      "constant": true
    },
    {
      "inputs": [],
      "name": "rbd",
      "outputs": [
        {
          "internalType": "contract IERC20",
          "name": "",
          "type": "address"
        }
      ],
      "stateMutability": "view",
      "type": "function",
      "constant": true
    },
    {
      "inputs": [],
      "name": "rbt",
      "outputs": [
        {
          "internalType": "contract IERC20",
          "name": "",
          "type": "address"
        }
      ],
      "stateMutability": "view",
      "type": "function",
      "constant": true
    },
    {
      "inputs": [],
      "name": "rbtc",
      "outputs": [
        {
          "internalType": "contract IERC20",
          "name": "",
          "type": "address"
        }
      ],
      "stateMutability": "view",
      "type": "function",
      "constant": true
    },
    {
      "inputs": [],
      "name": "rbtex",
      "outputs": [
        {
          "internalType": "contract IERC20",
          "name": "",
          "type": "address"
        }
      ],
      "stateMutability": "view",
      "type": "function",
      "constant": true
    },
    {
      "inputs": [],
      "name": "rbtseed",
      "outputs": [
        {
          "internalType": "contract IERC20",
          "name": "",
          "type": "address"
        }
      ],
      "stateMutability": "view",
      "type": "function",
      "constant": true
    },
    {
      "inputs": [
        {
          "internalType": "bytes32",
          "name": "role",
          "type": "bytes32"
        },
        {
          "internalType": "address",
          "name": "account",
          "type": "address"
        }
      ],
      "name": "renounceRole",
      "outputs": [],
      "stateMutability": "nonpayable",
      "type": "function"
    },
    {
      "inputs": [
        {
          "internalType": "address",
          "name": "cityNode",
          "type": "address"
        }
      ],
      "name": "revokeCityNode",
      "outputs": [],
      "stateMutability": "nonpayable",
      "type": "function"
    },
    {
      "inputs": [
        {
          "internalType": "address",
          "name": "governor",
          "type": "address"
        }
      ],
      "name": "revokeGovernor",
      "outputs": [],
      "stateMutability": "nonpayable",
      "type": "function"
    },
    {
      "inputs": [
        {
          "internalType": "bytes32",
          "name": "role",
          "type": "bytes32"
        },
        {
          "internalType": "address",
          "name": "account",
          "type": "address"
        }
      ],
      "name": "revokeOverride",
      "outputs": [],
      "stateMutability": "nonpayable",
      "type": "function"
    },
    {
      "inputs": [
        {
          "internalType": "bytes32",
          "name": "role",
          "type": "bytes32"
        },
        {
          "internalType": "address",
          "name": "account",
          "type": "address"
        }
      ],
      "name": "revokeRole",
      "outputs": [],
      "stateMutability": "nonpayable",
      "type": "function"
    },
    {
      "inputs": [
        {
          "internalType": "address",
          "name": "vote",
          "type": "address"
        }
      ],
      "name": "revokeVote",
      "outputs": [],
      "stateMutability": "nonpayable",
      "type": "function"
    },
    {
      "inputs": [],
      "name": "rusd",
      "outputs": [
        {
          "internalType": "contract IERC20",
          "name": "",
          "type": "address"
        }
      ],
      "stateMutability": "view",
      "type": "function",
      "constant": true
    },
    {
      "inputs": [
        {
          "internalType": "bytes4",
          "name": "interfaceId",
          "type": "bytes4"
        }
      ],
      "name": "supportsInterface",
      "outputs": [
        {
          "internalType": "bool",
          "name": "",
          "type": "bool"
        }
      ],
      "stateMutability": "view",
      "type": "function",
      "constant": true
    },
    {
      "inputs": [
        {
          "internalType": "address",
          "name": "token",
          "type": "address"
        }
      ],
      "name": "setRBT",
      "outputs": [],
      "stateMutability": "nonpayable",
      "type": "function"
    },
    {
      "inputs": [
        {
          "internalType": "address",
          "name": "token",
          "type": "address"
        }
      ],
      "name": "setRBB",
      "outputs": [],
      "stateMutability": "nonpayable",
      "type": "function"
    },
    {
      "inputs": [
        {
          "internalType": "address",
          "name": "token",
          "type": "address"
        }
      ],
      "name": "setRUSD",
      "outputs": [],
      "stateMutability": "nonpayable",
      "type": "function"
    },
    {
      "inputs": [
        {
          "internalType": "address",
          "name": "token",
          "type": "address"
        }
      ],
      "name": "setRBTC",
      "outputs": [],
      "stateMutability": "nonpayable",
      "type": "function"
    },
    {
      "inputs": [
        {
          "internalType": "address",
          "name": "token",
          "type": "address"
        }
      ],
      "name": "setRBD",
      "outputs": [],
      "stateMutability": "nonpayable",
      "type": "function"
    },
    {
      "inputs": [
        {
          "internalType": "address",
          "name": "token",
          "type": "address"
        }
      ],
      "name": "setRBTEX",
      "outputs": [],
      "stateMutability": "nonpayable",
      "type": "function"
    },
    {
      "inputs": [
        {
          "internalType": "address",
          "name": "token",
          "type": "address"
        }
      ],
      "name": "setRBTSeed",
      "outputs": [],
      "stateMutability": "nonpayable",
      "type": "function"
    }
  ],
  "bytecode": "0x60806040523480156200001157600080fd5b506040516200159338038062001593833981016040819052620000349162000231565b6200003f30620000e2565b6200005a600080516020620015738339815191528062000100565b620000957f6dcaf29264e7302214a7805c382452aa059b86f56f435983d2dec44689482a176000805160206200157383398151915262000100565b620000d07fc65b6dc445843af69e7af2fc32667c7d3b98b02602373e2d0a7a047f274806f76000805160206200157383398151915262000100565b620000db81620000e2565b5062000261565b620000fd600080516020620015738339815191528262000155565b50565b60006200010d8362000165565b600084815260208190526040808220600101859055519192508391839186917fbd79b86ffe0ab8e8776151514217cd7cacd52c909f66475c3af44e129f0b00ff9190a4505050565b6200016182826200017a565b5050565b60009081526020819052604090206001015490565b62000186828262000204565b62000161576000828152602081815260408083206001600160a01b03851684529091529020805460ff19166001179055620001c06200022d565b6001600160a01b0316816001600160a01b0316837f2f8788117e7eff1d82e926ec794901d17c78024a50270940304540a733656f0d60405160405180910390a45050565b6000918252602082815260408084206001600160a01b0393909316845291905290205460ff1690565b3390565b60006020828403121562000243578081fd5b81516001600160a01b03811681146200025a578182fd5b9392505050565b61130280620002716000396000f3fe608060405234801561001057600080fd5b50600436106102115760003560e01c80634c9f9384116101255780639ff3a6a2116100ad578063d547741f1161007c578063d547741f14610414578063d62e457314610427578063e43581b81461043a578063e6eb982f1461044d578063f6b8b9821461046057610211565b80639ff3a6a2146103de578063a217fddf146103f1578063a5a4dcf7146103f9578063c2e2e0251461040157610211565b8063882fc3ef116100f4578063882fc3ef1461038a578063918435191461039d57806391d14854146103b05780639d2d9416146103c35780639dd25ada146103cb57610211565b80634c9f9384146103545780635a1f3e371461036757806367d7b1fa1461037a5780637b83c4761461038257610211565b8063248a9ca3116101a8578063306fb10511610177578063306fb1051461031657806336568abe1461031e57806338b7f44614610331578063395c62e8146103395780633a2d65851461034c57610211565b8063248a9ca3146102ca57806329e19468146102dd5780632ab963dd146102f05780632f2ff15d1461030357610211565b8063080bf57c116101e4578063080bf57c1461027c57806317a8eefc1461028f57806318f7d862146102a25780631f9a9d66146102b757610211565b8063011a7dd31461021657806301ffc9a71461022b57806304f9bdb5146102545780630519bac314610269575b600080fd5b610229610224366004610f36565b610468565b005b61023e610239366004610fb4565b6104e0565b60405161024b9190611051565b60405180910390f35b61025c61050d565b60405161024b919061105c565b610229610277366004610f36565b61051f565b61022961028a366004610f68565b61055f565b61022961029d366004610f36565b6105e8565b6102aa610657565b60405161024b919061107c565b61023e6102c5366004610f36565b610666565b61025c6102d8366004610f50565b610680565b61023e6102eb366004610f36565b610695565b6102296102fe366004610f36565b6106af565b610229610311366004610f68565b6106e8565b6102aa610711565b61022961032c366004610f68565b610720565b61025c610766565b610229610347366004610f36565b610778565b6102aa6107b5565b610229610362366004610f93565b6107c4565b610229610375366004610f36565b6107f3565b61025c610830565b6102aa610842565b610229610398366004610f36565b610851565b6102296103ab366004610f36565b6108c0565b61023e6103be366004610f68565b61092f565b6102aa610958565b6102296103d9366004610f36565b610967565b6102296103ec366004610f36565b6109d6565b61025c610a13565b6102aa610a18565b61022961040f366004610f36565b610a27565b610229610422366004610f68565b610a96565b610229610435366004610f36565b610ab5565b61023e610448366004610f36565b610b24565b61022961045b366004610f36565b610b3e565b6102aa610b7b565b61047133610b24565b6104965760405162461bcd60e51b815260040161048d906110f8565b60405180910390fd5b600680546001600160a01b0319166001600160a01b0383169081179091556040517f4d78b3915ea965a3fe8685f2224ed3b76da7f7ff07a8125f26a7b302a6e5e60490600090a250565b60006001600160e01b03198216637965db0b60e01b1480610505575061050582610b8a565b90505b919050565b60008051602061126d83398151915281565b61052833610b24565b6105445760405162461bcd60e51b815260040161048d906110f8565b61055c60008051602061126d83398151915282610a96565b50565b6000805160206112ad83398151915282141561058d5760405162461bcd60e51b815260040161048d9061113d565b60405163d547741f60e01b8152309063d547741f906105b29085908590600401611065565b600060405180830381600087803b1580156105cc57600080fd5b505af11580156105e0573d6000803e3d6000fd5b505050505050565b6105f133610b24565b61060d5760405162461bcd60e51b815260040161048d906110f8565b600280546001600160a01b0319166001600160a01b0383169081179091556040517f962cfeb7929291b9e869762c4f4e0f48bed5545ddffc03bd611fa992ef6cb5a290600090a250565b6001546001600160a01b031681565b600061050560008051602061128d8339815191528361092f565b60009081526020819052604090206001015490565b600061050560008051602061126d8339815191528361092f565b6106b833610b24565b6106d45760405162461bcd60e51b815260040161048d906110f8565b61055c60008051602061128d833981519152825b6106f182610680565b610702816106fd610ba3565b610ba7565b61070c8383610c0b565b505050565b6004546001600160a01b031681565b610728610ba3565b6001600160a01b0316816001600160a01b0316146107585760405162461bcd60e51b815260040161048d90611189565b6107628282610c90565b5050565b6000805160206112ad83398151915281565b61078133610b24565b61079d5760405162461bcd60e51b815260040161048d906110f8565b61055c6000805160206112ad833981519152826106e8565b6005546001600160a01b031681565b6107cd33610b24565b6107e95760405162461bcd60e51b815260040161048d906110f8565b6107628282610d13565b6107fc33610b24565b6108185760405162461bcd60e51b815260040161048d906110f8565b61055c60008051602061128d83398151915282610a96565b60008051602061128d83398151915281565b6007546001600160a01b031681565b61085a33610b24565b6108765760405162461bcd60e51b815260040161048d906110f8565b600380546001600160a01b0319166001600160a01b0383169081179091556040517fa001aefde5550e0cfc15ce4dbcf42c6663bad29df65951b4256711728d52848d90600090a250565b6108c933610b24565b6108e55760405162461bcd60e51b815260040161048d906110f8565b600580546001600160a01b0319166001600160a01b0383169081179091556040517f14c99c2cd07b584b43e74a96de789e226d07897c46016cf726dcff76e401fc6e90600090a250565b6000918252602082815260408084206001600160a01b0393909316845291905290205460ff1690565b6006546001600160a01b031681565b61097033610b24565b61098c5760405162461bcd60e51b815260040161048d906110f8565b600180546001600160a01b0319166001600160a01b0383169081179091556040517f0220d86f2ef025399869eeea36c5f5fdf4c98631692d8d79c82422ba670d699890600090a250565b6109df33610b24565b6109fb5760405162461bcd60e51b815260040161048d906110f8565b61055c60008051602061126d833981519152826106e8565b600081565b6003546001600160a01b031681565b610a3033610b24565b610a4c5760405162461bcd60e51b815260040161048d906110f8565b600780546001600160a01b0319166001600160a01b0383169081179091556040517fd68faf182bbd881dae45bef15c791309adcd5a2896228ecdcdb8546e5995314490600090a250565b610a9f82610680565b610aab816106fd610ba3565b61070c8383610c90565b610abe33610b24565b610ada5760405162461bcd60e51b815260040161048d906110f8565b600480546001600160a01b0319166001600160a01b0383169081179091556040517ff2c16f6910682d1c5e1d5c5b582506669d6b50188882468c95d4441511dc6a1c90600090a250565b60006105056000805160206112ad8339815191528361092f565b610b4733610b24565b610b635760405162461bcd60e51b815260040161048d906110f8565b61055c6000805160206112ad83398151915282610a96565b6002546001600160a01b031681565b6001600160e01b031981166301ffc9a760e01b14919050565b3390565b610bb1828261092f565b61076257610bc9816001600160a01b03166014610d66565b610bd4836020610d66565b604051602001610be5929190610fdc565b60408051601f198184030181529082905262461bcd60e51b825261048d91600401611090565b610c15828261092f565b610762576000828152602081815260408083206001600160a01b03851684529091529020805460ff19166001179055610c4c610ba3565b6001600160a01b0316816001600160a01b0316837f2f8788117e7eff1d82e926ec794901d17c78024a50270940304540a733656f0d60405160405180910390a45050565b610c9a828261092f565b15610762576000828152602081815260408083206001600160a01b03851684529091529020805460ff19169055610ccf610ba3565b6001600160a01b0316816001600160a01b0316837ff6391f5c32d9c69d2a47ea670b442974b53935d1edc7fd64eb21e047a839171b60405160405180910390a45050565b6000610d1e83610680565b600084815260208190526040808220600101859055519192508391839186917fbd79b86ffe0ab8e8776151514217cd7cacd52c909f66475c3af44e129f0b00ff9190a4505050565b60606000610d758360026111f0565b610d809060026111d8565b67ffffffffffffffff811115610da657634e487b7160e01b600052604160045260246000fd5b6040519080825280601f01601f191660200182016040528015610dd0576020820181803683370190505b509050600360fc1b81600081518110610df957634e487b7160e01b600052603260045260246000fd5b60200101906001600160f81b031916908160001a905350600f60fb1b81600181518110610e3657634e487b7160e01b600052603260045260246000fd5b60200101906001600160f81b031916908160001a9053506000610e5a8460026111f0565b610e659060016111d8565b90505b6001811115610ef9576f181899199a1a9b1b9c1cb0b131b232b360811b85600f1660108110610ea757634e487b7160e01b600052603260045260246000fd5b1a60f81b828281518110610ecb57634e487b7160e01b600052603260045260246000fd5b60200101906001600160f81b031916908160001a90535060049490941c93610ef28161123f565b9050610e68565b508315610f185760405162461bcd60e51b815260040161048d906110c3565b9392505050565b80356001600160a01b038116811461050857600080fd5b600060208284031215610f47578081fd5b610f1882610f1f565b600060208284031215610f61578081fd5b5035919050565b60008060408385031215610f7a578081fd5b82359150610f8a60208401610f1f565b90509250929050565b60008060408385031215610fa5578182fd5b50508035926020909101359150565b600060208284031215610fc5578081fd5b81356001600160e01b031981168114610f18578182fd5b60007f416363657373436f6e74726f6c3a206163636f756e74200000000000000000008252835161101481601785016020880161120f565b7001034b99036b4b9b9b4b733903937b6329607d1b601791840191820152835161104581602884016020880161120f565b01602801949350505050565b901515815260200190565b90815260200190565b9182526001600160a01b0316602082015260400190565b6001600160a01b0391909116815260200190565b60006020825282518060208401526110af81604085016020870161120f565b601f01601f19169190910160400192915050565b6020808252818101527f537472696e67733a20686578206c656e67746820696e73756666696369656e74604082015260600190565b60208082526025908201527f5065726d697373696f6e733a2043616c6c6572206973206e6f74206120676f7660408201526432b93737b960d91b606082015260800190565b6020808252602c908201527f5065726d697373696f6e733a20477561726469616e2063616e6e6f742072657660408201526b37b5b29033b7bb32b93737b960a11b606082015260800190565b6020808252602f908201527f416363657373436f6e74726f6c3a2063616e206f6e6c792072656e6f756e636560408201526e103937b632b9903337b91039b2b63360891b606082015260800190565b600082198211156111eb576111eb611256565b500190565b600081600019048311821515161561120a5761120a611256565b500290565b60005b8381101561122a578181015183820152602001611212565b83811115611239576000848401525b50505050565b60008161124e5761124e611256565b506000190190565b634e487b7160e01b600052601160045260246000fdfec65b6dc445843af69e7af2fc32667c7d3b98b02602373e2d0a7a047f274806f76dcaf29264e7302214a7805c382452aa059b86f56f435983d2dec44689482a17899bd46557473cb80307a9dabc297131ced39608330a2d29b2d52b660c03923ea26469706673582212208586eec7d63756cfc27192d610ece3f16bf3bc878dc79c7dc89728a8495ac9bf64736f6c63430008000033899bd46557473cb80307a9dabc297131ced39608330a2d29b2d52b660c03923e",
  "immutableReferences": {},
  "source": "// SPDX-License-Identifier: MIT\r\npragma solidity ^0.8.0;\r\npragma experimental ABIEncoderV2;\r\n\r\nimport \"./Permissions.sol\";\r\nimport \"../interface/core/ICore.sol\";\r\nimport \"../token20/RBT.sol\";\r\nimport \"../token20/RBTC.sol\";\r\nimport \"../token20/RBB.sol\";\r\nimport \"../token20/RUSD.sol\";\r\nimport \"../token20/RBTEX.sol\";\r\nimport \"../token20/RBTSeed.sol\";\r\nimport \"../token20/RBD.sol\";\r\n\r\ncontract Core is ICore, Permissions {\r\n    \r\n    IERC20 public override rbt;\r\n    IERC20 public rbb;\r\n    IERC20 public rusd;\r\n    IERC20 public rbtc;\r\n    IERC20 public rbd;\r\n    IERC20 public rbtex;\r\n    IERC20 public rbtseed;\r\n    \r\n    constructor(address manager) public {\r\n        \r\n        _setupGovernor(manager);\r\n        \r\n    }\r\n    \r\n    function setRBT(address token) external override onlyGovernor {\r\n        rbt = IERC20(token);\r\n        emit RBTUpdate(token);\r\n    }\r\n\r\n    function setRBB(address token) external override onlyGovernor {\r\n        rbb = IERC20(token);\r\n        emit RBBUpdate(token);\r\n    }\r\n    function setRUSD(address token) external override onlyGovernor {\r\n         rusd = IERC20(token);\r\n        emit RUSDUpdate(token);\r\n    }\r\n    function setRBTC(address token) external override onlyGovernor  {\r\n        rbtc = IERC20(token);\r\n        emit RBTCUpdate(token);\r\n    }\r\n    function setRBD(address token) external override onlyGovernor {\r\n        rbd = IERC20(token);\r\n        emit RBDUpdate(token);\r\n    }\r\n    function setRBTEX(address token) external override onlyGovernor {\r\n        rbtex = IERC20(token);\r\n        emit RBTEXUpdate(token);\r\n    }\r\n    function setRBTSeed(address token) external override onlyGovernor {\r\n        rbtseed = IERC20(token);\r\n        emit RBTSeedUpdate(token);\r\n    }\r\n    \r\n}\r\n",
  "sourcePath": "D://rainbow/RainbowDao-protocol/contracts/core/Core.sol",
  "compiler": {
    "name": "solc",
    "version": "0.8.0+commit.c7dfd78e.Emscripten.clang"
  },
  "schemaVersion": "3.4.1",
  "updatedAt": "2021-10-16T03:51:57.725Z",
  "networkType": "ethereum",
  "devdoc": {
    "kind": "dev",
    "methods": {
      "getRoleAdmin(bytes32)": {
        "details": "Returns the admin role that controls `role`. See {grantRole} and {revokeRole}. To change a role's admin, use {_setRoleAdmin}."
      },
      "grantRole(bytes32,address)": {
        "details": "Grants `role` to `account`. If `account` had not been already granted `role`, emits a {RoleGranted} event. Requirements: - the caller must have ``role``'s admin role."
      },
      "hasRole(bytes32,address)": {
        "details": "Returns `true` if `account` has been granted `role`."
      },
      "renounceRole(bytes32,address)": {
        "details": "Revokes `role` from the calling account. Roles are often managed via {grantRole} and {revokeRole}: this function's purpose is to provide a mechanism for accounts to lose their privileges if they are compromised (such as when a trusted device is misplaced). If the calling account had been granted `role`, emits a {RoleRevoked} event. Requirements: - the caller must be `account`."
      },
      "revokeRole(bytes32,address)": {
        "details": "Revokes `role` from `account`. If `account` had been granted `role`, emits a {RoleRevoked} event. Requirements: - the caller must have ``role``'s admin role."
      },
      "supportsInterface(bytes4)": {
        "details": "See {IERC165-supportsInterface}."
      }
    },
    "version": 1
  },
  "userdoc": {
    "kind": "user",
    "methods": {},
    "version": 1
  }
}