{
  "contractName": "ERC20Orchestrator2",
  "abi": [
    {
      "inputs": [],
      "name": "rbb",
      "outputs": [
        {
          "internalType": "address",
          "name": "",
          "type": "address"
        }
      ],
      "stateMutability": "view",
      "type": "function",
      "constant": true
    },
    {
      "inputs": [],
      "name": "rbtc",
      "outputs": [
        {
          "internalType": "address",
          "name": "",
          "type": "address"
        }
      ],
      "stateMutability": "view",
      "type": "function",
      "constant": true
    },
    {
      "inputs": [],
      "name": "rusd",
      "outputs": [
        {
          "internalType": "address",
          "name": "",
          "type": "address"
        }
      ],
      "stateMutability": "view",
      "type": "function",
      "constant": true
    },
    {
      "inputs": [
        {
          "internalType": "address",
          "name": "manager",
          "type": "address"
        }
      ],
      "name": "init",
      "outputs": [],
      "stateMutability": "nonpayable",
      "type": "function"
    }
  ],
  "bytecode": "0x608060405234801561001057600080fd5b50613211806100206000396000f3fe608060405234801561001057600080fd5b506004361061004c5760003560e01c806319ab453c14610051578063306fb10514610066578063a5a4dcf714610084578063f6b8b9821461008c575b600080fd5b61006461005f366004610270565b610094565b005b61006e610216565b60405161007b919061029e565b60405180910390f35b61006e610225565b61006e610234565b600054610100900460ff16806100ad575060005460ff16155b6100d25760405162461bcd60e51b81526004016100c9906102b2565b60405180910390fd5b600054610100900460ff161580156100fd576000805460ff1961ff0019909116610100171660011790555b8160405161010a90610249565b610114919061029e565b604051809103906000f080158015610130573d6000803e3d6000fd5b50600060026101000a8154816001600160a01b0302191690836001600160a01b031602179055508160405161016490610256565b61016e919061029e565b604051809103906000f08015801561018a573d6000803e3d6000fd5b50600180546001600160a01b0319166001600160a01b039290921691909117905560405182906101b990610263565b6101c3919061029e565b604051809103906000f0801580156101df573d6000803e3d6000fd5b50600280546001600160a01b0319166001600160a01b03929092169190911790558015610212576000805461ff00191690555b5050565b6002546001600160a01b031681565b6001546001600160a01b031681565b6000546201000090046001600160a01b031681565b610fa58061030183390190565b610f9b806112a683390190565b610f9b8061224183390190565b600060208284031215610281578081fd5b81356001600160a01b0381168114610297578182fd5b9392505050565b6001600160a01b0391909116815260200190565b6020808252602e908201527f496e697469616c697a61626c653a20636f6e747261637420697320616c72656160408201526d191e481a5b9a5d1a585b1a5e995960921b60608201526080019056fe60806040523480156200001157600080fd5b5060405162000fa538038062000fa5833981016040819052620000349162000173565b6040518060400160405280600c81526020016b14985a5b989bddc8109bdb9960a21b8152506040518060400160405280600381526020016229212160e91b81525081600390805190602001906200008d929190620000cd565b508051620000a3906004906020840190620000cd565b5050600580546001600160a01b0319166001600160a01b03939093169290921790915550620001e0565b828054620000db90620001a3565b90600052602060002090601f016020900481019282620000ff57600085556200014a565b82601f106200011a57805160ff19168380011785556200014a565b828001600101855582156200014a579182015b828111156200014a5782518255916020019190600101906200012d565b50620001589291506200015c565b5090565b5b808211156200015857600081556001016200015d565b60006020828403121562000185578081fd5b81516001600160a01b03811681146200019c578182fd5b9392505050565b600281046001821680620001b857607f821691505b60208210811415620001da57634e487b7160e01b600052602260045260246000fd5b50919050565b610db580620001f06000396000f3fe608060405234801561001057600080fd5b50600436106100f55760003560e01c806370a0823111610097578063a6f9dae111610066578063a6f9dae1146101de578063a9059cbb146101f1578063dd62ed3e14610204578063f851a44014610217576100f5565b806370a082311461019d57806395d89b41146101b05780639dc29fac146101b8578063a457c2d7146101cb576100f5565b806323b872dd116100d357806323b872dd1461014d578063313ce56714610160578063395093511461017557806340c10f1914610188576100f5565b806306fdde03146100fa578063095ea7b31461011857806318160ddd14610138575b600080fd5b61010261022c565b60405161010f91906109fa565b60405180910390f35b61012b6101263660046109b2565b6102be565b60405161010f91906109ef565b6101406102db565b60405161010f9190610ce8565b61012b61015b366004610977565b6102e1565b61016861037a565b60405161010f9190610cf1565b61012b6101833660046109b2565b61037f565b61019b6101963660046109b2565b6103d3565b005b6101406101ab366004610924565b6103f8565b610102610417565b61019b6101c63660046109b2565b610426565b61012b6101d93660046109b2565b610447565b61019b6101ec366004610924565b6104c0565b61012b6101ff3660046109b2565b610523565b610140610212366004610945565b610537565b61021f610562565b60405161010f91906109db565b60606003805461023b90610d2e565b80601f016020809104026020016040519081016040528092919081815260200182805461026790610d2e565b80156102b45780601f10610289576101008083540402835291602001916102b4565b820191906000526020600020905b81548152906001019060200180831161029757829003601f168201915b5050505050905090565b60006102d26102cb610571565b8484610575565b50600192915050565b60025490565b60006102ee848484610629565b6001600160a01b03841660009081526001602052604081208161030f610571565b6001600160a01b03166001600160a01b031681526020019081526020016000205490508281101561035b5760405162461bcd60e51b815260040161035290610b5a565b60405180910390fd5b61036f85610367610571565b858403610575565b506001949350505050565b601290565b60006102d261038c610571565b84846001600061039a610571565b6001600160a01b03908116825260208083019390935260409182016000908120918b16815292529020546103ce9190610cff565b610575565b6005546001600160a01b031633146103ea57600080fd5b6103f48282610753565b5050565b6001600160a01b0381166000908152602081905260409020545b919050565b60606004805461023b90610d2e565b6005546001600160a01b0316331461043d57600080fd5b6103f4828261081b565b60008060016000610456610571565b6001600160a01b03908116825260208083019390935260409182016000908120918816815292529020549050828110156104a25760405162461bcd60e51b815260040161035290610c6c565b6104b66104ad610571565b85858403610575565b5060019392505050565b6005546001600160a01b031633146104d757600080fd5b600580546001600160a01b0319166001600160a01b03831690811790915560405133907f38b1065e0d088f6eda3cb9f0efc7bbb9b145907ab0deb0dbfb700d2bb21599e990600090a350565b60006102d2610530610571565b8484610629565b6001600160a01b03918216600090815260016020908152604080832093909416825291909152205490565b6005546001600160a01b031681565b3390565b6001600160a01b03831661059b5760405162461bcd60e51b815260040161035290610c28565b6001600160a01b0382166105c15760405162461bcd60e51b815260040161035290610ad2565b6001600160a01b0380841660008181526001602090815260408083209487168084529490915290819020849055517f8c5be1e5ebec7d5bd14f71427d1e84f3dd0314c0f7b2291e5b200ac8c7c3b9259061061c908590610ce8565b60405180910390a3505050565b6001600160a01b03831661064f5760405162461bcd60e51b815260040161035290610be3565b6001600160a01b0382166106755760405162461bcd60e51b815260040161035290610a4d565b610680838383610908565b6001600160a01b038316600090815260208190526040902054818110156106b95760405162461bcd60e51b815260040161035290610b14565b6001600160a01b038085166000908152602081905260408082208585039055918516815290812080548492906106f0908490610cff565b92505081905550826001600160a01b0316846001600160a01b03167fddf252ad1be2c89b69c2b068fc378daa952ba7f163c4a11628f55a4df523b3ef8460405161073a9190610ce8565b60405180910390a361074d848484610908565b50505050565b6001600160a01b0382166107795760405162461bcd60e51b815260040161035290610cb1565b61078560008383610908565b80600260008282546107979190610cff565b90915550506001600160a01b038216600090815260208190526040812080548392906107c4908490610cff565b90915550506040516001600160a01b038316906000907fddf252ad1be2c89b69c2b068fc378daa952ba7f163c4a11628f55a4df523b3ef90610807908590610ce8565b60405180910390a36103f460008383610908565b6001600160a01b0382166108415760405162461bcd60e51b815260040161035290610ba2565b61084d82600083610908565b6001600160a01b038216600090815260208190526040902054818110156108865760405162461bcd60e51b815260040161035290610a90565b6001600160a01b03831660009081526020819052604081208383039055600280548492906108b5908490610d17565b90915550506040516000906001600160a01b038516907fddf252ad1be2c89b69c2b068fc378daa952ba7f163c4a11628f55a4df523b3ef906108f8908690610ce8565b60405180910390a3610908836000845b505050565b80356001600160a01b038116811461041257600080fd5b600060208284031215610935578081fd5b61093e8261090d565b9392505050565b60008060408385031215610957578081fd5b6109608361090d565b915061096e6020840161090d565b90509250929050565b60008060006060848603121561098b578081fd5b6109948461090d565b92506109a26020850161090d565b9150604084013590509250925092565b600080604083850312156109c4578182fd5b6109cd8361090d565b946020939093013593505050565b6001600160a01b0391909116815260200190565b901515815260200190565b6000602080835283518082850152825b81811015610a2657858101830151858201604001528201610a0a565b81811115610a375783604083870101525b50601f01601f1916929092016040019392505050565b60208082526023908201527f45524332303a207472616e7366657220746f20746865207a65726f206164647260408201526265737360e81b606082015260800190565b60208082526022908201527f45524332303a206275726e20616d6f756e7420657863656564732062616c616e604082015261636560f01b606082015260800190565b60208082526022908201527f45524332303a20617070726f766520746f20746865207a65726f206164647265604082015261737360f01b606082015260800190565b60208082526026908201527f45524332303a207472616e7366657220616d6f756e7420657863656564732062604082015265616c616e636560d01b606082015260800190565b60208082526028908201527f45524332303a207472616e7366657220616d6f756e74206578636565647320616040820152676c6c6f77616e636560c01b606082015260800190565b60208082526021908201527f45524332303a206275726e2066726f6d20746865207a65726f206164647265736040820152607360f81b606082015260800190565b60208082526025908201527f45524332303a207472616e736665722066726f6d20746865207a65726f206164604082015264647265737360d81b606082015260800190565b60208082526024908201527f45524332303a20617070726f76652066726f6d20746865207a65726f206164646040820152637265737360e01b606082015260800190565b60208082526025908201527f45524332303a2064656372656173656420616c6c6f77616e63652062656c6f77604082015264207a65726f60d81b606082015260800190565b6020808252601f908201527f45524332303a206d696e7420746f20746865207a65726f206164647265737300604082015260600190565b90815260200190565b60ff91909116815260200190565b60008219821115610d1257610d12610d69565b500190565b600082821015610d2957610d29610d69565b500390565b600281046001821680610d4257607f821691505b60208210811415610d6357634e487b7160e01b600052602260045260246000fd5b50919050565b634e487b7160e01b600052601160045260246000fdfea2646970667358221220ee77712ad96451fc4fac3b0b0f41fb7ada05c27ae9aa9fc71ac1b47b14bdbd1164736f6c6343000800003360806040523480156200001157600080fd5b5060405162000f9b38038062000f9b833981016040819052620000349162000169565b604080518082018252600b81526a14985a5b989bddc81554d160aa1b602080830191825283518085019094526004845263149554d160e21b9084015281519192916200008391600391620000c3565b50805162000099906004906020840190620000c3565b5050600580546001600160a01b0319166001600160a01b03939093169290921790915550620001d6565b828054620000d19062000199565b90600052602060002090601f016020900481019282620000f5576000855562000140565b82601f106200011057805160ff191683800117855562000140565b8280016001018555821562000140579182015b828111156200014057825182559160200191906001019062000123565b506200014e92915062000152565b5090565b5b808211156200014e576000815560010162000153565b6000602082840312156200017b578081fd5b81516001600160a01b038116811462000192578182fd5b9392505050565b600281046001821680620001ae57607f821691505b60208210811415620001d057634e487b7160e01b600052602260045260246000fd5b50919050565b610db580620001e66000396000f3fe608060405234801561001057600080fd5b50600436106100f55760003560e01c806370a0823111610097578063a6f9dae111610066578063a6f9dae1146101de578063a9059cbb146101f1578063dd62ed3e14610204578063f851a44014610217576100f5565b806370a082311461019d57806395d89b41146101b05780639dc29fac146101b8578063a457c2d7146101cb576100f5565b806323b872dd116100d357806323b872dd1461014d578063313ce56714610160578063395093511461017557806340c10f1914610188576100f5565b806306fdde03146100fa578063095ea7b31461011857806318160ddd14610138575b600080fd5b61010261022c565b60405161010f91906109fa565b60405180910390f35b61012b6101263660046109b2565b6102be565b60405161010f91906109ef565b6101406102db565b60405161010f9190610ce8565b61012b61015b366004610977565b6102e1565b61016861037a565b60405161010f9190610cf1565b61012b6101833660046109b2565b61037f565b61019b6101963660046109b2565b6103d3565b005b6101406101ab366004610924565b6103f8565b610102610417565b61019b6101c63660046109b2565b610426565b61012b6101d93660046109b2565b610447565b61019b6101ec366004610924565b6104c0565b61012b6101ff3660046109b2565b610523565b610140610212366004610945565b610537565b61021f610562565b60405161010f91906109db565b60606003805461023b90610d2e565b80601f016020809104026020016040519081016040528092919081815260200182805461026790610d2e565b80156102b45780601f10610289576101008083540402835291602001916102b4565b820191906000526020600020905b81548152906001019060200180831161029757829003601f168201915b5050505050905090565b60006102d26102cb610571565b8484610575565b50600192915050565b60025490565b60006102ee848484610629565b6001600160a01b03841660009081526001602052604081208161030f610571565b6001600160a01b03166001600160a01b031681526020019081526020016000205490508281101561035b5760405162461bcd60e51b815260040161035290610b5a565b60405180910390fd5b61036f85610367610571565b858403610575565b506001949350505050565b601290565b60006102d261038c610571565b84846001600061039a610571565b6001600160a01b03908116825260208083019390935260409182016000908120918b16815292529020546103ce9190610cff565b610575565b6005546001600160a01b031633146103ea57600080fd5b6103f48282610753565b5050565b6001600160a01b0381166000908152602081905260409020545b919050565b60606004805461023b90610d2e565b6005546001600160a01b0316331461043d57600080fd5b6103f4828261081b565b60008060016000610456610571565b6001600160a01b03908116825260208083019390935260409182016000908120918816815292529020549050828110156104a25760405162461bcd60e51b815260040161035290610c6c565b6104b66104ad610571565b85858403610575565b5060019392505050565b6005546001600160a01b031633146104d757600080fd5b600580546001600160a01b0319166001600160a01b03831690811790915560405133907f38b1065e0d088f6eda3cb9f0efc7bbb9b145907ab0deb0dbfb700d2bb21599e990600090a350565b60006102d2610530610571565b8484610629565b6001600160a01b03918216600090815260016020908152604080832093909416825291909152205490565b6005546001600160a01b031681565b3390565b6001600160a01b03831661059b5760405162461bcd60e51b815260040161035290610c28565b6001600160a01b0382166105c15760405162461bcd60e51b815260040161035290610ad2565b6001600160a01b0380841660008181526001602090815260408083209487168084529490915290819020849055517f8c5be1e5ebec7d5bd14f71427d1e84f3dd0314c0f7b2291e5b200ac8c7c3b9259061061c908590610ce8565b60405180910390a3505050565b6001600160a01b03831661064f5760405162461bcd60e51b815260040161035290610be3565b6001600160a01b0382166106755760405162461bcd60e51b815260040161035290610a4d565b610680838383610908565b6001600160a01b038316600090815260208190526040902054818110156106b95760405162461bcd60e51b815260040161035290610b14565b6001600160a01b038085166000908152602081905260408082208585039055918516815290812080548492906106f0908490610cff565b92505081905550826001600160a01b0316846001600160a01b03167fddf252ad1be2c89b69c2b068fc378daa952ba7f163c4a11628f55a4df523b3ef8460405161073a9190610ce8565b60405180910390a361074d848484610908565b50505050565b6001600160a01b0382166107795760405162461bcd60e51b815260040161035290610cb1565b61078560008383610908565b80600260008282546107979190610cff565b90915550506001600160a01b038216600090815260208190526040812080548392906107c4908490610cff565b90915550506040516001600160a01b038316906000907fddf252ad1be2c89b69c2b068fc378daa952ba7f163c4a11628f55a4df523b3ef90610807908590610ce8565b60405180910390a36103f460008383610908565b6001600160a01b0382166108415760405162461bcd60e51b815260040161035290610ba2565b61084d82600083610908565b6001600160a01b038216600090815260208190526040902054818110156108865760405162461bcd60e51b815260040161035290610a90565b6001600160a01b03831660009081526020819052604081208383039055600280548492906108b5908490610d17565b90915550506040516000906001600160a01b038516907fddf252ad1be2c89b69c2b068fc378daa952ba7f163c4a11628f55a4df523b3ef906108f8908690610ce8565b60405180910390a3610908836000845b505050565b80356001600160a01b038116811461041257600080fd5b600060208284031215610935578081fd5b61093e8261090d565b9392505050565b60008060408385031215610957578081fd5b6109608361090d565b915061096e6020840161090d565b90509250929050565b60008060006060848603121561098b578081fd5b6109948461090d565b92506109a26020850161090d565b9150604084013590509250925092565b600080604083850312156109c4578182fd5b6109cd8361090d565b946020939093013593505050565b6001600160a01b0391909116815260200190565b901515815260200190565b6000602080835283518082850152825b81811015610a2657858101830151858201604001528201610a0a565b81811115610a375783604083870101525b50601f01601f1916929092016040019392505050565b60208082526023908201527f45524332303a207472616e7366657220746f20746865207a65726f206164647260408201526265737360e81b606082015260800190565b60208082526022908201527f45524332303a206275726e20616d6f756e7420657863656564732062616c616e604082015261636560f01b606082015260800190565b60208082526022908201527f45524332303a20617070726f766520746f20746865207a65726f206164647265604082015261737360f01b606082015260800190565b60208082526026908201527f45524332303a207472616e7366657220616d6f756e7420657863656564732062604082015265616c616e636560d01b606082015260800190565b60208082526028908201527f45524332303a207472616e7366657220616d6f756e74206578636565647320616040820152676c6c6f77616e636560c01b606082015260800190565b60208082526021908201527f45524332303a206275726e2066726f6d20746865207a65726f206164647265736040820152607360f81b606082015260800190565b60208082526025908201527f45524332303a207472616e736665722066726f6d20746865207a65726f206164604082015264647265737360d81b606082015260800190565b60208082526024908201527f45524332303a20617070726f76652066726f6d20746865207a65726f206164646040820152637265737360e01b606082015260800190565b60208082526025908201527f45524332303a2064656372656173656420616c6c6f77616e63652062656c6f77604082015264207a65726f60d81b606082015260800190565b6020808252601f908201527f45524332303a206d696e7420746f20746865207a65726f206164647265737300604082015260600190565b90815260200190565b60ff91909116815260200190565b60008219821115610d1257610d12610d69565b500190565b600082821015610d2957610d29610d69565b500390565b600281046001821680610d4257607f821691505b60208210811415610d6357634e487b7160e01b600052602260045260246000fd5b50919050565b634e487b7160e01b600052601160045260246000fdfea2646970667358221220e14c70b3bdb47e548ccd0a356a7dff5e7b49c6d9869b895f33b748c172f8d2c964736f6c6343000800003360806040523480156200001157600080fd5b5060405162000f9b38038062000f9b833981016040819052620000349162000169565b604080518082018252600b81526a5261696e626f772042544360a81b6020808301918252835180850190945260048452635242544360e01b9084015281519192916200008391600391620000c3565b50805162000099906004906020840190620000c3565b5050600580546001600160a01b0319166001600160a01b03939093169290921790915550620001d6565b828054620000d19062000199565b90600052602060002090601f016020900481019282620000f5576000855562000140565b82601f106200011057805160ff191683800117855562000140565b8280016001018555821562000140579182015b828111156200014057825182559160200191906001019062000123565b506200014e92915062000152565b5090565b5b808211156200014e576000815560010162000153565b6000602082840312156200017b578081fd5b81516001600160a01b038116811462000192578182fd5b9392505050565b600281046001821680620001ae57607f821691505b60208210811415620001d057634e487b7160e01b600052602260045260246000fd5b50919050565b610db580620001e66000396000f3fe608060405234801561001057600080fd5b50600436106100f55760003560e01c806370a0823111610097578063a6f9dae111610066578063a6f9dae1146101de578063a9059cbb146101f1578063dd62ed3e14610204578063f851a44014610217576100f5565b806370a082311461019d57806395d89b41146101b05780639dc29fac146101b8578063a457c2d7146101cb576100f5565b806323b872dd116100d357806323b872dd1461014d578063313ce56714610160578063395093511461017557806340c10f1914610188576100f5565b806306fdde03146100fa578063095ea7b31461011857806318160ddd14610138575b600080fd5b61010261022c565b60405161010f91906109fa565b60405180910390f35b61012b6101263660046109b2565b6102be565b60405161010f91906109ef565b6101406102db565b60405161010f9190610ce8565b61012b61015b366004610977565b6102e1565b61016861037a565b60405161010f9190610cf1565b61012b6101833660046109b2565b61037f565b61019b6101963660046109b2565b6103d3565b005b6101406101ab366004610924565b6103f8565b610102610417565b61019b6101c63660046109b2565b610426565b61012b6101d93660046109b2565b610447565b61019b6101ec366004610924565b6104c0565b61012b6101ff3660046109b2565b610523565b610140610212366004610945565b610537565b61021f610562565b60405161010f91906109db565b60606003805461023b90610d2e565b80601f016020809104026020016040519081016040528092919081815260200182805461026790610d2e565b80156102b45780601f10610289576101008083540402835291602001916102b4565b820191906000526020600020905b81548152906001019060200180831161029757829003601f168201915b5050505050905090565b60006102d26102cb610571565b8484610575565b50600192915050565b60025490565b60006102ee848484610629565b6001600160a01b03841660009081526001602052604081208161030f610571565b6001600160a01b03166001600160a01b031681526020019081526020016000205490508281101561035b5760405162461bcd60e51b815260040161035290610b5a565b60405180910390fd5b61036f85610367610571565b858403610575565b506001949350505050565b601290565b60006102d261038c610571565b84846001600061039a610571565b6001600160a01b03908116825260208083019390935260409182016000908120918b16815292529020546103ce9190610cff565b610575565b6005546001600160a01b031633146103ea57600080fd5b6103f48282610753565b5050565b6001600160a01b0381166000908152602081905260409020545b919050565b60606004805461023b90610d2e565b6005546001600160a01b0316331461043d57600080fd5b6103f4828261081b565b60008060016000610456610571565b6001600160a01b03908116825260208083019390935260409182016000908120918816815292529020549050828110156104a25760405162461bcd60e51b815260040161035290610c6c565b6104b66104ad610571565b85858403610575565b5060019392505050565b6005546001600160a01b031633146104d757600080fd5b600580546001600160a01b0319166001600160a01b03831690811790915560405133907f38b1065e0d088f6eda3cb9f0efc7bbb9b145907ab0deb0dbfb700d2bb21599e990600090a350565b60006102d2610530610571565b8484610629565b6001600160a01b03918216600090815260016020908152604080832093909416825291909152205490565b6005546001600160a01b031681565b3390565b6001600160a01b03831661059b5760405162461bcd60e51b815260040161035290610c28565b6001600160a01b0382166105c15760405162461bcd60e51b815260040161035290610ad2565b6001600160a01b0380841660008181526001602090815260408083209487168084529490915290819020849055517f8c5be1e5ebec7d5bd14f71427d1e84f3dd0314c0f7b2291e5b200ac8c7c3b9259061061c908590610ce8565b60405180910390a3505050565b6001600160a01b03831661064f5760405162461bcd60e51b815260040161035290610be3565b6001600160a01b0382166106755760405162461bcd60e51b815260040161035290610a4d565b610680838383610908565b6001600160a01b038316600090815260208190526040902054818110156106b95760405162461bcd60e51b815260040161035290610b14565b6001600160a01b038085166000908152602081905260408082208585039055918516815290812080548492906106f0908490610cff565b92505081905550826001600160a01b0316846001600160a01b03167fddf252ad1be2c89b69c2b068fc378daa952ba7f163c4a11628f55a4df523b3ef8460405161073a9190610ce8565b60405180910390a361074d848484610908565b50505050565b6001600160a01b0382166107795760405162461bcd60e51b815260040161035290610cb1565b61078560008383610908565b80600260008282546107979190610cff565b90915550506001600160a01b038216600090815260208190526040812080548392906107c4908490610cff565b90915550506040516001600160a01b038316906000907fddf252ad1be2c89b69c2b068fc378daa952ba7f163c4a11628f55a4df523b3ef90610807908590610ce8565b60405180910390a36103f460008383610908565b6001600160a01b0382166108415760405162461bcd60e51b815260040161035290610ba2565b61084d82600083610908565b6001600160a01b038216600090815260208190526040902054818110156108865760405162461bcd60e51b815260040161035290610a90565b6001600160a01b03831660009081526020819052604081208383039055600280548492906108b5908490610d17565b90915550506040516000906001600160a01b038516907fddf252ad1be2c89b69c2b068fc378daa952ba7f163c4a11628f55a4df523b3ef906108f8908690610ce8565b60405180910390a3610908836000845b505050565b80356001600160a01b038116811461041257600080fd5b600060208284031215610935578081fd5b61093e8261090d565b9392505050565b60008060408385031215610957578081fd5b6109608361090d565b915061096e6020840161090d565b90509250929050565b60008060006060848603121561098b578081fd5b6109948461090d565b92506109a26020850161090d565b9150604084013590509250925092565b600080604083850312156109c4578182fd5b6109cd8361090d565b946020939093013593505050565b6001600160a01b0391909116815260200190565b901515815260200190565b6000602080835283518082850152825b81811015610a2657858101830151858201604001528201610a0a565b81811115610a375783604083870101525b50601f01601f1916929092016040019392505050565b60208082526023908201527f45524332303a207472616e7366657220746f20746865207a65726f206164647260408201526265737360e81b606082015260800190565b60208082526022908201527f45524332303a206275726e20616d6f756e7420657863656564732062616c616e604082015261636560f01b606082015260800190565b60208082526022908201527f45524332303a20617070726f766520746f20746865207a65726f206164647265604082015261737360f01b606082015260800190565b60208082526026908201527f45524332303a207472616e7366657220616d6f756e7420657863656564732062604082015265616c616e636560d01b606082015260800190565b60208082526028908201527f45524332303a207472616e7366657220616d6f756e74206578636565647320616040820152676c6c6f77616e636560c01b606082015260800190565b60208082526021908201527f45524332303a206275726e2066726f6d20746865207a65726f206164647265736040820152607360f81b606082015260800190565b60208082526025908201527f45524332303a207472616e736665722066726f6d20746865207a65726f206164604082015264647265737360d81b606082015260800190565b60208082526024908201527f45524332303a20617070726f76652066726f6d20746865207a65726f206164646040820152637265737360e01b606082015260800190565b60208082526025908201527f45524332303a2064656372656173656420616c6c6f77616e63652062656c6f77604082015264207a65726f60d81b606082015260800190565b6020808252601f908201527f45524332303a206d696e7420746f20746865207a65726f206164647265737300604082015260600190565b90815260200190565b60ff91909116815260200190565b60008219821115610d1257610d12610d69565b500190565b600082821015610d2957610d29610d69565b500390565b600281046001821680610d4257607f821691505b60208210811415610d6357634e487b7160e01b600052602260045260246000fd5b50919050565b634e487b7160e01b600052601160045260246000fdfea26469706673582212204589558c51e54f67df73809bbc6a1347b00e3b360bb9802d219ca524301a0f9964736f6c63430008000033a264697066735822122075bc67a1c9cd203e708f7dcff5bc4c1956fff60ace36f8919b54deea15269d6764736f6c63430008000033",
  "immutableReferences": {},
  "source": "// SPDX-License-Identifier: MIT\r\npragma solidity ^0.8.0;\r\npragma experimental ABIEncoderV2;\r\n\r\nimport \"@openzeppelin/contracts/proxy/utils/Initializable.sol\";\r\n\r\nimport \"../token20/RBTC.sol\";\r\nimport \"../token20/RBB.sol\";\r\nimport \"../token20/RUSD.sol\";\r\n\r\ncontract ERC20Orchestrator2 is Initializable {\r\n\r\n    address public rbb;\r\n    address public rusd;\r\n    address public rbtc;\r\n\r\n    function init(address manager) external initializer {\r\n\r\n        rbb = address(new RBB(manager));\r\n\r\n        rusd = address(new RUSD(manager));\r\n\r\n        rbtc = address(new RBTC(manager));\r\n\r\n    }\r\n\r\n}",
  "sourcePath": "D://rainbow/RainbowDao-protocol/contracts/orchestrator/ERC20Orchestrator2.sol",
  "compiler": {
    "name": "solc",
    "version": "0.8.0+commit.c7dfd78e.Emscripten.clang"
  },
  "schemaVersion": "3.4.1",
  "updatedAt": "2021-10-16T03:51:57.463Z",
  "networkType": "ethereum",
  "devdoc": {
    "kind": "dev",
    "methods": {},
    "version": 1
  },
  "userdoc": {
    "kind": "user",
    "methods": {},
    "version": 1
  }
}