{
  "contractName": "ERC20Orchestrator",
  "abi": [
    {
      "inputs": [],
      "name": "rbd",
      "outputs": [
        {
          "internalType": "address",
          "name": "",
          "type": "address"
        }
      ],
      "stateMutability": "view",
      "type": "function",
      "constant": true
    },
    {
      "inputs": [],
      "name": "rbt",
      "outputs": [
        {
          "internalType": "address",
          "name": "",
          "type": "address"
        }
      ],
      "stateMutability": "view",
      "type": "function",
      "constant": true
    },
    {
      "inputs": [],
      "name": "rbtex",
      "outputs": [
        {
          "internalType": "address",
          "name": "",
          "type": "address"
        }
      ],
      "stateMutability": "view",
      "type": "function",
      "constant": true
    },
    {
      "inputs": [],
      "name": "rbtseed",
      "outputs": [
        {
          "internalType": "address",
          "name": "",
          "type": "address"
        }
      ],
      "stateMutability": "view",
      "type": "function",
      "constant": true
    },
    {
      "inputs": [
        {
          "internalType": "address",
          "name": "manager",
          "type": "address"
        }
      ],
      "name": "init",
      "outputs": [],
      "stateMutability": "nonpayable",
      "type": "function"
    }
  ],
  "bytecode": "0x608060405234801561001057600080fd5b5061560a806100206000396000f3fe60806040523480156200001157600080fd5b50600436106200005e5760003560e01c806318f7d862146200006357806319ab453c14620000855780633a2d6585146200009e5780637b83c47614620000a85780639d2d941614620000b2575b600080fd5b6200006d620000bc565b6040516200007c919062000357565b60405180910390f35b6200009c6200009636600462000327565b620000d1565b005b6200006d620002c2565b6200006d620002d1565b6200006d620002e0565b6000546201000090046001600160a01b031681565b600054610100900460ff1680620000eb575060005460ff16155b620001135760405162461bcd60e51b81526004016200010a906200036b565b60405180910390fd5b600054610100900460ff161580156200013f576000805460ff1961ff0019909116610100171660011790555b816040516200014e90620002ef565b6200015a919062000357565b604051809103906000f08015801562000177573d6000803e3d6000fd5b50600060026101000a8154816001600160a01b0302191690836001600160a01b0316021790555081604051620001ad90620002fd565b620001b9919062000357565b604051809103906000f080158015620001d6573d6000803e3d6000fd5b50600180546001600160a01b0319166001600160a01b0392909216919091179055604051829062000207906200030b565b62000213919062000357565b604051809103906000f08015801562000230573d6000803e3d6000fd5b50600280546001600160a01b0319166001600160a01b03929092169190911790556040518290620002619062000319565b6200026d919062000357565b604051809103906000f0801580156200028a573d6000803e3d6000fd5b50600380546001600160a01b0319166001600160a01b03929092169190911790558015620002be576000805461ff00191690555b5050565b6001546001600160a01b031681565b6003546001600160a01b031681565b6002546001600160a01b031681565b6122bb80620003ba83390190565b610fca806200267583390190565b610fd0806200363f83390190565b610fc6806200460f83390190565b60006020828403121562000339578081fd5b81356001600160a01b038116811462000350578182fd5b9392505050565b6001600160a01b0391909116815260200190565b6020808252602e908201527f496e697469616c697a61626c653a20636f6e747261637420697320616c72656160408201526d191e481a5b9a5d1a585b1a5e995960921b60608201526080019056fe6080604052601e6007553480156200001657600080fd5b50604051620022bb380380620022bb833981016040819052620000399162000678565b6040518060400160405280600d81526020016c2930b4b73137bb902a37b5b2b760991b8152506040518060400160405280600381526020016214909560ea1b815250816003908051906020019062000093929190620005d2565b508051620000a9906004906020840190620005d2565b5050600580546001600160a01b0384166001600160a01b0319918216811790925560068054909116909117905550620000ef816b1027e72f1f1281308800000062000154565b6200014d81620001476b1027e72f1f128130880000006040518060400160405280601b81526020017f5242543a20766f746520616d6f756e7420756e646572666c6f777300000000008152506200023660201b60201c565b62000271565b506200083e565b6001600160a01b038216620001865760405162461bcd60e51b81526004016200017d90620006fe565b60405180910390fd5b620001946000838362000351565b8060026000828254620001a8919062000758565b90915550506001600160a01b03821660009081526020819052604081208054839290620001d790849062000758565b90915550506040516001600160a01b038316906000907fddf252ad1be2c89b69c2b068fc378daa952ba7f163c4a11628f55a4df523b3ef906200021c90859062000735565b60405180910390a3620002326000838362000351565b5050565b6000816c010000000000000000000000008410620002695760405162461bcd60e51b81526004016200017d9190620006a8565b509192915050565b6001600160a01b0382166000908152600a602052604081205463ffffffff1690816200029f576000620002ee565b6001600160a01b038416600090815260096020526040812090620002c5600185620007c3565b63ffffffff16815260208101919091526040016000205464010000000090046001600160601b03165b905060006200033a82856040518060400160405280601a81526020017f5242543a20766f746520616d6f756e74206f766572666c6f77730000000000008152506200035660201b60201c565b90506200034a85848484620003a8565b5050505050565b505050565b6000806200036584866200079e565b9050846001600160601b0316816001600160601b0316101583906200039f5760405162461bcd60e51b81526004016200017d9190620006a8565b50949350505050565b6000620003cf436040518060600160405280602181526020016200229a60219139620005a7565b905060008463ffffffff161180156200042c57506001600160a01b038516600090815260096020526040812063ffffffff83169162000410600188620007c3565b63ffffffff908116825260208201929092526040016000205416145b156200049f576001600160a01b0385166000908152600960205260408120839162000459600188620007c3565b63ffffffff168152602081019190915260400160002080546001600160601b039290921664010000000002600160201b600160801b03199092169190911790556200055b565b60408051808201825263ffffffff83811682526001600160601b0385811660208085019182526001600160a01b038b166000908152600982528681208b861682529091529490942092518354945163ffffffff19909516921691909117600160201b600160801b03191664010000000093909116929092029190911790556200052a84600162000773565b6001600160a01b0386166000908152600a60205260409020805463ffffffff191663ffffffff929092169190911790555b846001600160a01b03167fdec2bacdd2f05b59de34da9b523dff8be42e5e38e818c82fdb0bae774387a7248484604051620005989291906200073e565b60405180910390a25050505050565b6000816401000000008410620002695760405162461bcd60e51b81526004016200017d9190620006a8565b828054620005e090620007eb565b90600052602060002090601f0160209004810192826200060457600085556200064f565b82601f106200061f57805160ff19168380011785556200064f565b828001600101855582156200064f579182015b828111156200064f57825182559160200191906001019062000632565b506200065d92915062000661565b5090565b5b808211156200065d576000815560010162000662565b6000602082840312156200068a578081fd5b81516001600160a01b0381168114620006a1578182fd5b9392505050565b6000602080835283518082850152825b81811015620006d657858101830151858201604001528201620006b8565b81811115620006e85783604083870101525b50601f01601f1916929092016040019392505050565b6020808252601f908201527f45524332303a206d696e7420746f20746865207a65726f206164647265737300604082015260600190565b90815260200190565b6001600160601b0392831681529116602082015260400190565b600082198211156200076e576200076e62000828565b500190565b600063ffffffff80831681851680830382111562000795576200079562000828565b01949350505050565b60006001600160601b0382811684821680830382111562000795576200079562000828565b600063ffffffff83811690831681811015620007e357620007e362000828565b039392505050565b6002810460018216806200080057607f821691505b602082108114156200082257634e487b7160e01b600052602260045260246000fd5b50919050565b634e487b7160e01b600052601160045260246000fd5b611a4c806200084e6000396000f3fe608060405234801561001057600080fd5b50600436106101735760003560e01c806395d89b41116100de578063b4b5ea5711610097578063ddca3f4311610071578063ddca3f4314610336578063f1127ed81461033e578063f851a4401461035f578063fa2005501461036757610173565b8063b4b5ea57146102fd578063b7353de614610310578063dd62ed3e1461032357610173565b806395d89b41146102945780639dc29fac1461029c578063a457c2d7146102af578063a6f9dae1146102c2578063a9059cbb146102d5578063ae3f1f2c146102e857610173565b8063313ce56711610130578063313ce56714610206578063395093511461021b5780636fcfff451461022e57806370a082311461024e5780637583407e14610261578063782d6fe11461027457610173565b806306fdde0314610178578063095ea7b3146101965780630dc04950146101b657806318160ddd146101cb57806323b1cde4146101e057806323b872dd146101f3575b600080fd5b61018061037a565b60405161018d9190611517565b60405180910390f35b6101a96101a4366004611479565b61040c565b60405161018d919061150c565b6101c96101c43660046113f2565b61042a565b005b6101d361048e565b60405161018d9190611805565b6101c96101ee3660046113f2565b610494565b6101a961020136600461143e565b6104cd565b61020e610539565b60405161018d919061183e565b6101a9610229366004611479565b61053e565b61024161023c3660046113f2565b61058d565b60405161018d919061180e565b6101d361025c3660046113f2565b6105a5565b6101c961026f3660046113f2565b6105c4565b610287610282366004611479565b61062d565b60405161018d919061184c565b61018061086f565b6101c96102aa366004611479565b61087e565b6101a96102bd366004611479565b6108a3565b6101c96102d03660046113f2565b61091c565b6101a96102e3366004611479565b61097f565b6102f061098c565b60405161018d91906114f8565b61028761030b3660046113f2565b61099b565b6101a961031e3660046113f2565b610a19565b6101d361033136600461140c565b610a2e565b6101d3610a59565b61035161034c3660046114a2565b610a5f565b60405161018d92919061181f565b6102f0610a94565b6101c96103753660046114e0565b610aa3565b6060600380546103899061198e565b80601f01602080910402602001604051908101604052809291908181526020018280546103b59061198e565b80156104025780601f106103d757610100808354040283529160200191610402565b820191906000526020600020905b8154815290600101906020018083116103e557829003601f168201915b5050505050905090565b6000610420610419610abf565b8484610ac3565b5060015b92915050565b6005546001600160a01b0316331461044157600080fd5b6001600160a01b038116600081815260086020526040808220805460ff19169055519091907fb9ed40aef0b29cbddfc8801ef98d8dc60c8e08f1dbd035d8130cee3b5692648d908390a350565b60025490565b6005546001600160a01b031633146104ab57600080fd5b600680546001600160a01b0319166001600160a01b0392909216919091179055565b60006104da848484610b77565b60006104e885610331610abf565b9050828110156105135760405162461bcd60e51b815260040161050a90611677565b60405180910390fd5b61052e8561051f610abf565b6105298685611932565b610ac3565b506001949350505050565b601290565b600061042061054b610abf565b848460016000610559610abf565b6001600160a01b03908116825260208083019390935260409182016000908120918b1681529252902054610529919061187a565b600a6020526000908152604090205463ffffffff1681565b6001600160a01b0381166000908152602081905260409020545b919050565b6005546001600160a01b031633146105db57600080fd5b6001600160a01b038116600081815260086020526040808220805460ff1916600190811790915590519092917fb9ed40aef0b29cbddfc8801ef98d8dc60c8e08f1dbd035d8130cee3b5692648d91a350565b60004382111561064f5760405162461bcd60e51b815260040161050a906117ce565b6001600160a01b0383166000908152600a602052604090205463ffffffff168015806106a357506001600160a01b038416600090815260096020908152604080832083805290915290205463ffffffff1683105b156106b2576000915050610424565b6001600160a01b038416600090815260096020526040812084916106d7600185611949565b63ffffffff9081168252602082019290925260400160002054161161074a576001600160a01b03841660009081526009602052604081209061071a600184611949565b63ffffffff168152602081019190915260400160002054600160201b90046001600160601b031691506104249050565b600080610758600184611949565b90505b8163ffffffff168163ffffffff16111561082a576000600261077d8484611949565b61078791906118f0565b6107919083611949565b6001600160a01b038816600090815260096020908152604080832063ffffffff858116855290835292819020815180830190925254928316808252600160201b9093046001600160601b0316918101919091529192508714156107fe576020015194506104249350505050565b805163ffffffff1687111561081557819350610823565b610820600183611949565b92505b505061075b565b506001600160a01b038516600090815260096020908152604080832063ffffffff909416835292905220546001600160601b03600160201b9091041691505092915050565b6060600480546103899061198e565b6005546001600160a01b0316331461089557600080fd5b61089f8282610d2c565b5050565b600080600160006108b2610abf565b6001600160a01b03908116825260208083019390935260409182016000908120918816815292529020549050828110156108fe5760405162461bcd60e51b815260040161050a90611789565b610912610909610abf565b85858403610ac3565b5060019392505050565b6005546001600160a01b0316331461093357600080fd5b600580546001600160a01b0319166001600160a01b03831690811790915560405133907f38b1065e0d088f6eda3cb9f0efc7bbb9b145907ab0deb0dbfb700d2bb21599e990600090a350565b6000610420338484610b77565b6006546001600160a01b031681565b6001600160a01b0381166000908152600a602052604081205463ffffffff16806109c6576000610a12565b6001600160a01b0383166000908152600960205260408120906109ea600184611949565b63ffffffff168152602081019190915260400160002054600160201b90046001600160601b03165b9392505050565b60086020526000908152604090205460ff1681565b6001600160a01b03918216600090815260016020908152604080832093909416825291909152205490565b60075481565b600960209081526000928352604080842090915290825290205463ffffffff811690600160201b90046001600160601b031682565b6005546001600160a01b031681565b6005546001600160a01b03163314610aba57600080fd5b600755565b3390565b6001600160a01b038316610ae95760405162461bcd60e51b815260040161050a90611745565b6001600160a01b038216610b0f5760405162461bcd60e51b815260040161050a906115ef565b6001600160a01b0380841660008181526001602090815260408083209487168084529490915290819020849055517f8c5be1e5ebec7d5bd14f71427d1e84f3dd0314c0f7b2291e5b200ac8c7c3b92590610b6a908590611805565b60405180910390a3505050565b6000610bb8826040518060400160405280601c81526020017f766f74653a20766f746520616d6f756e7420756e646572666c6f777300000000815250610e1e565b6001600160a01b03851660009081526008602052604090205490915060ff16151560011415610bfb57610bec848484610e4d565b610bf68382610f71565b610d1c565b600061271090506000610c2d82610c27610c206007548661104290919063ffffffff16565b879061104e565b9061105a565b9050610c3a868683610e4d565b6000610c5583610c276007548861104e90919063ffffffff16565b600654909150610c709088906001600160a01b031683610e4d565b6000610cb1836040518060400160405280601c81526020017f766f74653a20766f746520616d6f756e7420756e646572666c6f777300000000815250610e1e565b90506000610cf4836040518060400160405280601c81526020017f766f74653a20766f746520616d6f756e7420756e646572666c6f777300000000815250610e1e565b9050610d008883610f71565b600654610d16906001600160a01b031682610f71565b50505050505b610d268482611066565b50505050565b6001600160a01b038216610d525760405162461bcd60e51b815260040161050a906116bf565b610d5e82600083610e19565b6001600160a01b03821660009081526020819052604090205481811015610d975760405162461bcd60e51b815260040161050a906115ad565b6001600160a01b0383166000908152602081905260408120838303905560028054849290610dc6908490611932565b90915550506040516000906001600160a01b038516907fddf252ad1be2c89b69c2b068fc378daa952ba7f163c4a11628f55a4df523b3ef90610e09908690611805565b60405180910390a3610e19836000845b505050565b600081600160601b8410610e455760405162461bcd60e51b815260040161050a9190611517565b509192915050565b6001600160a01b038316610e735760405162461bcd60e51b815260040161050a90611700565b6001600160a01b038216610e995760405162461bcd60e51b815260040161050a9061156a565b610ea4838383610e19565b6001600160a01b03831660009081526020819052604090205481811015610edd5760405162461bcd60e51b815260040161050a90611631565b6001600160a01b03808516600090815260208190526040808220858503905591851681529081208054849290610f1490849061187a565b92505081905550826001600160a01b0316846001600160a01b03167fddf252ad1be2c89b69c2b068fc378daa952ba7f163c4a11628f55a4df523b3ef84604051610f5e9190611805565b60405180910390a3610d26848484610e19565b6001600160a01b0382166000908152600a602052604081205463ffffffff169081610f9d576000610fe9565b6001600160a01b038416600090815260096020526040812090610fc1600185611949565b63ffffffff168152602081019190915260400160002054600160201b90046001600160601b03165b9050600061102d82856040518060400160405280601a81526020017f5242543a20766f746520616d6f756e74206f766572666c6f7773000000000000815250611122565b905061103b8584848461116f565b5050505050565b6000610a128284611932565b6000610a128284611913565b6000610a1282846118dc565b6001600160a01b0382166000908152600a602052604081205463ffffffff1690816110925760006110de565b6001600160a01b0384166000908152600960205260408120906110b6600185611949565b63ffffffff168152602081019190915260400160002054600160201b90046001600160601b03165b9050600061102d82856040518060400160405280601b81526020017f5242543a20766f746520616d6f756e7420756e646572666c6f7773000000000081525061136a565b60008061112f84866118ba565b9050846001600160601b0316816001600160601b0316101583906111665760405162461bcd60e51b815260040161050a9190611517565b50949350505050565b6000611193436040518060600160405280602181526020016119f6602191396113b4565b905060008463ffffffff161180156111ed57506001600160a01b038516600090815260096020526040812063ffffffff8316916111d1600188611949565b63ffffffff908116825260208201929092526040016000205416145b15611261576001600160a01b03851660009081526009602052604081208391611217600188611949565b63ffffffff168152602081019190915260400160002080546001600160601b0392909216600160201b026fffffffffffffffffffffffff0000000019909216919091179055611320565b60408051808201825263ffffffff83811682526001600160601b0385811660208085019182526001600160a01b038b166000908152600982528681208b861682529091529490942092518354945163ffffffff199095169216919091176fffffffffffffffffffffffff000000001916600160201b93909116929092029190911790556112ef846001611892565b6001600160a01b0386166000908152600a60205260409020805463ffffffff191663ffffffff929092169190911790555b846001600160a01b03167fdec2bacdd2f05b59de34da9b523dff8be42e5e38e818c82fdb0bae774387a724848460405161135b929190611860565b60405180910390a25050505050565b6000836001600160601b0316836001600160601b0316111582906113a15760405162461bcd60e51b815260040161050a9190611517565b506113ac838561196e565b949350505050565b600081600160201b8410610e455760405162461bcd60e51b815260040161050a9190611517565b80356001600160a01b03811681146105bf57600080fd5b600060208284031215611403578081fd5b610a12826113db565b6000806040838503121561141e578081fd5b611427836113db565b9150611435602084016113db565b90509250929050565b600080600060608486031215611452578081fd5b61145b846113db565b9250611469602085016113db565b9150604084013590509250925092565b6000806040838503121561148b578182fd5b611494836113db565b946020939093013593505050565b600080604083850312156114b4578182fd5b6114bd836113db565b9150602083013563ffffffff811681146114d5578182fd5b809150509250929050565b6000602082840312156114f1578081fd5b5035919050565b6001600160a01b0391909116815260200190565b901515815260200190565b6000602080835283518082850152825b8181101561154357858101830151858201604001528201611527565b818111156115545783604083870101525b50601f01601f1916929092016040019392505050565b60208082526023908201527f45524332303a207472616e7366657220746f20746865207a65726f206164647260408201526265737360e81b606082015260800190565b60208082526022908201527f45524332303a206275726e20616d6f756e7420657863656564732062616c616e604082015261636560f01b606082015260800190565b60208082526022908201527f45524332303a20617070726f766520746f20746865207a65726f206164647265604082015261737360f01b606082015260800190565b60208082526026908201527f45524332303a207472616e7366657220616d6f756e7420657863656564732062604082015265616c616e636560d01b606082015260800190565b60208082526028908201527f45524332303a207472616e7366657220616d6f756e74206578636565647320616040820152676c6c6f77616e636560c01b606082015260800190565b60208082526021908201527f45524332303a206275726e2066726f6d20746865207a65726f206164647265736040820152607360f81b606082015260800190565b60208082526025908201527f45524332303a207472616e736665722066726f6d20746865207a65726f206164604082015264647265737360d81b606082015260800190565b60208082526024908201527f45524332303a20617070726f76652066726f6d20746865207a65726f206164646040820152637265737360e01b606082015260800190565b60208082526025908201527f45524332303a2064656372656173656420616c6c6f77616e63652062656c6f77604082015264207a65726f60d81b606082015260800190565b60208082526017908201527f5242543a206e6f74207965742064657465726d696e6564000000000000000000604082015260600190565b90815260200190565b63ffffffff91909116815260200190565b63ffffffff9290921682526001600160601b0316602082015260400190565b60ff91909116815260200190565b6001600160601b0391909116815260200190565b6001600160601b0392831681529116602082015260400190565b6000821982111561188d5761188d6119c9565b500190565b600063ffffffff8083168185168083038211156118b1576118b16119c9565b01949350505050565b60006001600160601b038083168185168083038211156118b1576118b16119c9565b6000826118eb576118eb6119df565b500490565b600063ffffffff80841680611907576119076119df565b92169190910492915050565b600081600019048311821515161561192d5761192d6119c9565b500290565b600082821015611944576119446119c9565b500390565b600063ffffffff83811690831681811015611966576119666119c9565b039392505050565b60006001600160601b0383811690831681811015611966576119666119c9565b6002810460018216806119a257607f821691505b602082108114156119c357634e487b7160e01b600052602260045260246000fd5b50919050565b634e487b7160e01b600052601160045260246000fd5b634e487b7160e01b600052601260045260246000fdfe5242543a20626c6f636b206e756d62657220657863656564732033322062697473a2646970667358221220984a762229b5bd6922ad2b6dceedd351ace0150f0910d7fb23d9f0b131dbefb964736f6c634300080000335242543a20626c6f636b206e756d6265722065786365656473203332206269747360806040523480156200001157600080fd5b5060405162000fca38038062000fca833981016040819052620000349162000271565b6040518060400160405280600f81526020016e14985a5b989bddc8111a585b5bdb99608a1b8152506040518060400160405280600381526020016214909160ea1b815250816003908051906020019062000090929190620001cb565b508051620000a6906004906020840190620001cb565b5050600580546001600160a01b0319166001600160a01b03841617905550620000dd816c01431e0fae6d7217caa0000000620000e4565b5062000343565b6001600160a01b038216620001165760405162461bcd60e51b81526004016200010d90620002a1565b60405180910390fd5b6200012460008383620001c6565b8060026000828254620001389190620002e1565b90915550506001600160a01b0382166000908152602081905260408120805483929062000167908490620002e1565b90915550506040516001600160a01b038316906000907fddf252ad1be2c89b69c2b068fc378daa952ba7f163c4a11628f55a4df523b3ef90620001ac908590620002d8565b60405180910390a3620001c260008383620001c6565b5050565b505050565b828054620001d99062000306565b90600052602060002090601f016020900481019282620001fd576000855562000248565b82601f106200021857805160ff191683800117855562000248565b8280016001018555821562000248579182015b82811115620002485782518255916020019190600101906200022b565b50620002569291506200025a565b5090565b5b808211156200025657600081556001016200025b565b60006020828403121562000283578081fd5b81516001600160a01b03811681146200029a578182fd5b9392505050565b6020808252601f908201527f45524332303a206d696e7420746f20746865207a65726f206164647265737300604082015260600190565b90815260200190565b600082198211156200030157634e487b7160e01b81526011600452602481fd5b500190565b6002810460018216806200031b57607f821691505b602082108114156200033d57634e487b7160e01b600052602260045260246000fd5b50919050565b610c7780620003536000396000f3fe608060405234801561001057600080fd5b50600436106100ea5760003560e01c806395d89b411161008c578063a6f9dae111610066578063a6f9dae1146101c0578063a9059cbb146101d3578063dd62ed3e146101e6578063f851a440146101f9576100ea565b806395d89b41146101905780639dc29fac14610198578063a457c2d7146101ad576100ea565b806323b872dd116100c857806323b872dd14610142578063313ce56714610155578063395093511461016a57806370a082311461017d576100ea565b806306fdde03146100ef578063095ea7b31461010d57806318160ddd1461012d575b600080fd5b6100f761020e565b60405161010491906108f3565b60405180910390f35b61012061011b3660046108ab565b6102a0565b60405161010491906108e8565b6101356102bd565b6040516101049190610baa565b610120610150366004610870565b6102c3565b61015d61035c565b6040516101049190610bb3565b6101206101783660046108ab565b610361565b61013561018b36600461081d565b6103b5565b6100f76103d4565b6101ab6101a63660046108ab565b6103e3565b005b6101206101bb3660046108ab565b610408565b6101ab6101ce36600461081d565b610481565b6101206101e13660046108ab565b6104e4565b6101356101f436600461083e565b6104f8565b610201610523565b60405161010491906108d4565b60606003805461021d90610bf0565b80601f016020809104026020016040519081016040528092919081815260200182805461024990610bf0565b80156102965780601f1061026b57610100808354040283529160200191610296565b820191906000526020600020905b81548152906001019060200180831161027957829003601f168201915b5050505050905090565b60006102b46102ad610532565b8484610536565b50600192915050565b60025490565b60006102d08484846105ea565b6001600160a01b0384166000908152600160205260408120816102f1610532565b6001600160a01b03166001600160a01b031681526020019081526020016000205490508281101561033d5760405162461bcd60e51b815260040161033490610a53565b60405180910390fd5b61035185610349610532565b858403610536565b506001949350505050565b601290565b60006102b461036e610532565b84846001600061037c610532565b6001600160a01b03908116825260208083019390935260409182016000908120918b16815292529020546103b09190610bc1565b610536565b6001600160a01b0381166000908152602081905260409020545b919050565b60606004805461021d90610bf0565b6005546001600160a01b031633146103fa57600080fd5b6104048282610714565b5050565b60008060016000610417610532565b6001600160a01b03908116825260208083019390935260409182016000908120918816815292529020549050828110156104635760405162461bcd60e51b815260040161033490610b65565b61047761046e610532565b85858403610536565b5060019392505050565b6005546001600160a01b0316331461049857600080fd5b600580546001600160a01b0319166001600160a01b03831690811790915560405133907f38b1065e0d088f6eda3cb9f0efc7bbb9b145907ab0deb0dbfb700d2bb21599e990600090a350565b60006102b46104f1610532565b84846105ea565b6001600160a01b03918216600090815260016020908152604080832093909416825291909152205490565b6005546001600160a01b031681565b3390565b6001600160a01b03831661055c5760405162461bcd60e51b815260040161033490610b21565b6001600160a01b0382166105825760405162461bcd60e51b8152600401610334906109cb565b6001600160a01b0380841660008181526001602090815260408083209487168084529490915290819020849055517f8c5be1e5ebec7d5bd14f71427d1e84f3dd0314c0f7b2291e5b200ac8c7c3b925906105dd908590610baa565b60405180910390a3505050565b6001600160a01b0383166106105760405162461bcd60e51b815260040161033490610adc565b6001600160a01b0382166106365760405162461bcd60e51b815260040161033490610946565b610641838383610801565b6001600160a01b0383166000908152602081905260409020548181101561067a5760405162461bcd60e51b815260040161033490610a0d565b6001600160a01b038085166000908152602081905260408082208585039055918516815290812080548492906106b1908490610bc1565b92505081905550826001600160a01b0316846001600160a01b03167fddf252ad1be2c89b69c2b068fc378daa952ba7f163c4a11628f55a4df523b3ef846040516106fb9190610baa565b60405180910390a361070e848484610801565b50505050565b6001600160a01b03821661073a5760405162461bcd60e51b815260040161033490610a9b565b61074682600083610801565b6001600160a01b0382166000908152602081905260409020548181101561077f5760405162461bcd60e51b815260040161033490610989565b6001600160a01b03831660009081526020819052604081208383039055600280548492906107ae908490610bd9565b90915550506040516000906001600160a01b038516907fddf252ad1be2c89b69c2b068fc378daa952ba7f163c4a11628f55a4df523b3ef906107f1908690610baa565b60405180910390a3610801836000845b505050565b80356001600160a01b03811681146103cf57600080fd5b60006020828403121561082e578081fd5b61083782610806565b9392505050565b60008060408385031215610850578081fd5b61085983610806565b915061086760208401610806565b90509250929050565b600080600060608486031215610884578081fd5b61088d84610806565b925061089b60208501610806565b9150604084013590509250925092565b600080604083850312156108bd578182fd5b6108c683610806565b946020939093013593505050565b6001600160a01b0391909116815260200190565b901515815260200190565b6000602080835283518082850152825b8181101561091f57858101830151858201604001528201610903565b818111156109305783604083870101525b50601f01601f1916929092016040019392505050565b60208082526023908201527f45524332303a207472616e7366657220746f20746865207a65726f206164647260408201526265737360e81b606082015260800190565b60208082526022908201527f45524332303a206275726e20616d6f756e7420657863656564732062616c616e604082015261636560f01b606082015260800190565b60208082526022908201527f45524332303a20617070726f766520746f20746865207a65726f206164647265604082015261737360f01b606082015260800190565b60208082526026908201527f45524332303a207472616e7366657220616d6f756e7420657863656564732062604082015265616c616e636560d01b606082015260800190565b60208082526028908201527f45524332303a207472616e7366657220616d6f756e74206578636565647320616040820152676c6c6f77616e636560c01b606082015260800190565b60208082526021908201527f45524332303a206275726e2066726f6d20746865207a65726f206164647265736040820152607360f81b606082015260800190565b60208082526025908201527f45524332303a207472616e736665722066726f6d20746865207a65726f206164604082015264647265737360d81b606082015260800190565b60208082526024908201527f45524332303a20617070726f76652066726f6d20746865207a65726f206164646040820152637265737360e01b606082015260800190565b60208082526025908201527f45524332303a2064656372656173656420616c6c6f77616e63652062656c6f77604082015264207a65726f60d81b606082015260800190565b90815260200190565b60ff91909116815260200190565b60008219821115610bd457610bd4610c2b565b500190565b600082821015610beb57610beb610c2b565b500390565b600281046001821680610c0457607f821691505b60208210811415610c2557634e487b7160e01b600052602260045260246000fd5b50919050565b634e487b7160e01b600052601160045260246000fdfea2646970667358221220acc2fa42d5a46615b62003acb585a15f1d1b65d4002923f1adea465426f8a78d64736f6c6343000800003360806040523480156200001157600080fd5b5060405162000fd038038062000fd0833981016040819052620000349162000277565b604080518082018252601681527f5261696e626f7720546f6b656e2045786368616e6765000000000000000000006020808301918252835180850190945260068452650a484a85a8ab60d31b9084015281519192916200009791600391620001d1565b508051620000ad906004906020840190620001d1565b5050600580546001600160a01b0319166001600160a01b03841617905550620000e3816b409f9cbc7c4a04c220000000620000ea565b5062000349565b6001600160a01b0382166200011c5760405162461bcd60e51b81526004016200011390620002a7565b60405180910390fd5b6200012a60008383620001cc565b80600260008282546200013e9190620002e7565b90915550506001600160a01b038216600090815260208190526040812080548392906200016d908490620002e7565b90915550506040516001600160a01b038316906000907fddf252ad1be2c89b69c2b068fc378daa952ba7f163c4a11628f55a4df523b3ef90620001b2908590620002de565b60405180910390a3620001c860008383620001cc565b5050565b505050565b828054620001df906200030c565b90600052602060002090601f0160209004810192826200020357600085556200024e565b82601f106200021e57805160ff19168380011785556200024e565b828001600101855582156200024e579182015b828111156200024e57825182559160200191906001019062000231565b506200025c92915062000260565b5090565b5b808211156200025c576000815560010162000261565b60006020828403121562000289578081fd5b81516001600160a01b0381168114620002a0578182fd5b9392505050565b6020808252601f908201527f45524332303a206d696e7420746f20746865207a65726f206164647265737300604082015260600190565b90815260200190565b600082198211156200030757634e487b7160e01b81526011600452602481fd5b500190565b6002810460018216806200032157607f821691505b602082108114156200034357634e487b7160e01b600052602260045260246000fd5b50919050565b610c7780620003596000396000f3fe608060405234801561001057600080fd5b50600436106100ea5760003560e01c806395d89b411161008c578063a6f9dae111610066578063a6f9dae1146101c0578063a9059cbb146101d3578063dd62ed3e146101e6578063f851a440146101f9576100ea565b806395d89b41146101905780639dc29fac14610198578063a457c2d7146101ad576100ea565b806323b872dd116100c857806323b872dd14610142578063313ce56714610155578063395093511461016a57806370a082311461017d576100ea565b806306fdde03146100ef578063095ea7b31461010d57806318160ddd1461012d575b600080fd5b6100f761020e565b60405161010491906108f3565b60405180910390f35b61012061011b3660046108ab565b6102a0565b60405161010491906108e8565b6101356102bd565b6040516101049190610baa565b610120610150366004610870565b6102c3565b61015d61035c565b6040516101049190610bb3565b6101206101783660046108ab565b610361565b61013561018b36600461081d565b6103b5565b6100f76103d4565b6101ab6101a63660046108ab565b6103e3565b005b6101206101bb3660046108ab565b610408565b6101ab6101ce36600461081d565b610481565b6101206101e13660046108ab565b6104e4565b6101356101f436600461083e565b6104f8565b610201610523565b60405161010491906108d4565b60606003805461021d90610bf0565b80601f016020809104026020016040519081016040528092919081815260200182805461024990610bf0565b80156102965780601f1061026b57610100808354040283529160200191610296565b820191906000526020600020905b81548152906001019060200180831161027957829003601f168201915b5050505050905090565b60006102b46102ad610532565b8484610536565b50600192915050565b60025490565b60006102d08484846105ea565b6001600160a01b0384166000908152600160205260408120816102f1610532565b6001600160a01b03166001600160a01b031681526020019081526020016000205490508281101561033d5760405162461bcd60e51b815260040161033490610a53565b60405180910390fd5b61035185610349610532565b858403610536565b506001949350505050565b601290565b60006102b461036e610532565b84846001600061037c610532565b6001600160a01b03908116825260208083019390935260409182016000908120918b16815292529020546103b09190610bc1565b610536565b6001600160a01b0381166000908152602081905260409020545b919050565b60606004805461021d90610bf0565b6005546001600160a01b031633146103fa57600080fd5b6104048282610714565b5050565b60008060016000610417610532565b6001600160a01b03908116825260208083019390935260409182016000908120918816815292529020549050828110156104635760405162461bcd60e51b815260040161033490610b65565b61047761046e610532565b85858403610536565b5060019392505050565b6005546001600160a01b0316331461049857600080fd5b600580546001600160a01b0319166001600160a01b03831690811790915560405133907f38b1065e0d088f6eda3cb9f0efc7bbb9b145907ab0deb0dbfb700d2bb21599e990600090a350565b60006102b46104f1610532565b84846105ea565b6001600160a01b03918216600090815260016020908152604080832093909416825291909152205490565b6005546001600160a01b031681565b3390565b6001600160a01b03831661055c5760405162461bcd60e51b815260040161033490610b21565b6001600160a01b0382166105825760405162461bcd60e51b8152600401610334906109cb565b6001600160a01b0380841660008181526001602090815260408083209487168084529490915290819020849055517f8c5be1e5ebec7d5bd14f71427d1e84f3dd0314c0f7b2291e5b200ac8c7c3b925906105dd908590610baa565b60405180910390a3505050565b6001600160a01b0383166106105760405162461bcd60e51b815260040161033490610adc565b6001600160a01b0382166106365760405162461bcd60e51b815260040161033490610946565b610641838383610801565b6001600160a01b0383166000908152602081905260409020548181101561067a5760405162461bcd60e51b815260040161033490610a0d565b6001600160a01b038085166000908152602081905260408082208585039055918516815290812080548492906106b1908490610bc1565b92505081905550826001600160a01b0316846001600160a01b03167fddf252ad1be2c89b69c2b068fc378daa952ba7f163c4a11628f55a4df523b3ef846040516106fb9190610baa565b60405180910390a361070e848484610801565b50505050565b6001600160a01b03821661073a5760405162461bcd60e51b815260040161033490610a9b565b61074682600083610801565b6001600160a01b0382166000908152602081905260409020548181101561077f5760405162461bcd60e51b815260040161033490610989565b6001600160a01b03831660009081526020819052604081208383039055600280548492906107ae908490610bd9565b90915550506040516000906001600160a01b038516907fddf252ad1be2c89b69c2b068fc378daa952ba7f163c4a11628f55a4df523b3ef906107f1908690610baa565b60405180910390a3610801836000845b505050565b80356001600160a01b03811681146103cf57600080fd5b60006020828403121561082e578081fd5b61083782610806565b9392505050565b60008060408385031215610850578081fd5b61085983610806565b915061086760208401610806565b90509250929050565b600080600060608486031215610884578081fd5b61088d84610806565b925061089b60208501610806565b9150604084013590509250925092565b600080604083850312156108bd578182fd5b6108c683610806565b946020939093013593505050565b6001600160a01b0391909116815260200190565b901515815260200190565b6000602080835283518082850152825b8181101561091f57858101830151858201604001528201610903565b818111156109305783604083870101525b50601f01601f1916929092016040019392505050565b60208082526023908201527f45524332303a207472616e7366657220746f20746865207a65726f206164647260408201526265737360e81b606082015260800190565b60208082526022908201527f45524332303a206275726e20616d6f756e7420657863656564732062616c616e604082015261636560f01b606082015260800190565b60208082526022908201527f45524332303a20617070726f766520746f20746865207a65726f206164647265604082015261737360f01b606082015260800190565b60208082526026908201527f45524332303a207472616e7366657220616d6f756e7420657863656564732062604082015265616c616e636560d01b606082015260800190565b60208082526028908201527f45524332303a207472616e7366657220616d6f756e74206578636565647320616040820152676c6c6f77616e636560c01b606082015260800190565b60208082526021908201527f45524332303a206275726e2066726f6d20746865207a65726f206164647265736040820152607360f81b606082015260800190565b60208082526025908201527f45524332303a207472616e736665722066726f6d20746865207a65726f206164604082015264647265737360d81b606082015260800190565b60208082526024908201527f45524332303a20617070726f76652066726f6d20746865207a65726f206164646040820152637265737360e01b606082015260800190565b60208082526025908201527f45524332303a2064656372656173656420616c6c6f77616e63652062656c6f77604082015264207a65726f60d81b606082015260800190565b90815260200190565b60ff91909116815260200190565b60008219821115610bd457610bd4610c2b565b500190565b600082821015610beb57610beb610c2b565b500390565b600281046001821680610c0457607f821691505b60208210811415610c2557634e487b7160e01b600052602260045260246000fd5b50919050565b634e487b7160e01b600052601160045260246000fdfea2646970667358221220faf5803e1c9517da18cc6779c19904667e64ca5bf856e86784ae9d3d0b82539664736f6c6343000800003360806040523480156200001157600080fd5b5060405162000fc638038062000fc683398101604081905262000034916200026d565b604080518082018252601281527114985a5b989bddc8151bdad95b8814d9595960721b6020808301918252835180850190945260088452671490950b54d9595960c21b9084015281519192916200008e91600391620001c7565b508051620000a4906004906020840190620001c7565b5050600580546001600160a01b0319166001600160a01b03841617905550620000d9816a52b7d2dcc80cd2e4000000620000e0565b506200033f565b6001600160a01b038216620001125760405162461bcd60e51b815260040162000109906200029d565b60405180910390fd5b6200012060008383620001c2565b8060026000828254620001349190620002dd565b90915550506001600160a01b0382166000908152602081905260408120805483929062000163908490620002dd565b90915550506040516001600160a01b038316906000907fddf252ad1be2c89b69c2b068fc378daa952ba7f163c4a11628f55a4df523b3ef90620001a8908590620002d4565b60405180910390a3620001be60008383620001c2565b5050565b505050565b828054620001d59062000302565b90600052602060002090601f016020900481019282620001f9576000855562000244565b82601f106200021457805160ff191683800117855562000244565b8280016001018555821562000244579182015b828111156200024457825182559160200191906001019062000227565b506200025292915062000256565b5090565b5b8082111562000252576000815560010162000257565b6000602082840312156200027f578081fd5b81516001600160a01b038116811462000296578182fd5b9392505050565b6020808252601f908201527f45524332303a206d696e7420746f20746865207a65726f206164647265737300604082015260600190565b90815260200190565b60008219821115620002fd57634e487b7160e01b81526011600452602481fd5b500190565b6002810460018216806200031757607f821691505b602082108114156200033957634e487b7160e01b600052602260045260246000fd5b50919050565b610c77806200034f6000396000f3fe608060405234801561001057600080fd5b50600436106100ea5760003560e01c806395d89b411161008c578063a6f9dae111610066578063a6f9dae1146101c0578063a9059cbb146101d3578063dd62ed3e146101e6578063f851a440146101f9576100ea565b806395d89b41146101905780639dc29fac14610198578063a457c2d7146101ad576100ea565b806323b872dd116100c857806323b872dd14610142578063313ce56714610155578063395093511461016a57806370a082311461017d576100ea565b806306fdde03146100ef578063095ea7b31461010d57806318160ddd1461012d575b600080fd5b6100f761020e565b60405161010491906108f3565b60405180910390f35b61012061011b3660046108ab565b6102a0565b60405161010491906108e8565b6101356102bd565b6040516101049190610baa565b610120610150366004610870565b6102c3565b61015d61035c565b6040516101049190610bb3565b6101206101783660046108ab565b610361565b61013561018b36600461081d565b6103b5565b6100f76103d4565b6101ab6101a63660046108ab565b6103e3565b005b6101206101bb3660046108ab565b610408565b6101ab6101ce36600461081d565b610481565b6101206101e13660046108ab565b6104e4565b6101356101f436600461083e565b6104f8565b610201610523565b60405161010491906108d4565b60606003805461021d90610bf0565b80601f016020809104026020016040519081016040528092919081815260200182805461024990610bf0565b80156102965780601f1061026b57610100808354040283529160200191610296565b820191906000526020600020905b81548152906001019060200180831161027957829003601f168201915b5050505050905090565b60006102b46102ad610532565b8484610536565b50600192915050565b60025490565b60006102d08484846105ea565b6001600160a01b0384166000908152600160205260408120816102f1610532565b6001600160a01b03166001600160a01b031681526020019081526020016000205490508281101561033d5760405162461bcd60e51b815260040161033490610a53565b60405180910390fd5b61035185610349610532565b858403610536565b506001949350505050565b601290565b60006102b461036e610532565b84846001600061037c610532565b6001600160a01b03908116825260208083019390935260409182016000908120918b16815292529020546103b09190610bc1565b610536565b6001600160a01b0381166000908152602081905260409020545b919050565b60606004805461021d90610bf0565b6005546001600160a01b031633146103fa57600080fd5b6104048282610714565b5050565b60008060016000610417610532565b6001600160a01b03908116825260208083019390935260409182016000908120918816815292529020549050828110156104635760405162461bcd60e51b815260040161033490610b65565b61047761046e610532565b85858403610536565b5060019392505050565b6005546001600160a01b0316331461049857600080fd5b600580546001600160a01b0319166001600160a01b03831690811790915560405133907f38b1065e0d088f6eda3cb9f0efc7bbb9b145907ab0deb0dbfb700d2bb21599e990600090a350565b60006102b46104f1610532565b84846105ea565b6001600160a01b03918216600090815260016020908152604080832093909416825291909152205490565b6005546001600160a01b031681565b3390565b6001600160a01b03831661055c5760405162461bcd60e51b815260040161033490610b21565b6001600160a01b0382166105825760405162461bcd60e51b8152600401610334906109cb565b6001600160a01b0380841660008181526001602090815260408083209487168084529490915290819020849055517f8c5be1e5ebec7d5bd14f71427d1e84f3dd0314c0f7b2291e5b200ac8c7c3b925906105dd908590610baa565b60405180910390a3505050565b6001600160a01b0383166106105760405162461bcd60e51b815260040161033490610adc565b6001600160a01b0382166106365760405162461bcd60e51b815260040161033490610946565b610641838383610801565b6001600160a01b0383166000908152602081905260409020548181101561067a5760405162461bcd60e51b815260040161033490610a0d565b6001600160a01b038085166000908152602081905260408082208585039055918516815290812080548492906106b1908490610bc1565b92505081905550826001600160a01b0316846001600160a01b03167fddf252ad1be2c89b69c2b068fc378daa952ba7f163c4a11628f55a4df523b3ef846040516106fb9190610baa565b60405180910390a361070e848484610801565b50505050565b6001600160a01b03821661073a5760405162461bcd60e51b815260040161033490610a9b565b61074682600083610801565b6001600160a01b0382166000908152602081905260409020548181101561077f5760405162461bcd60e51b815260040161033490610989565b6001600160a01b03831660009081526020819052604081208383039055600280548492906107ae908490610bd9565b90915550506040516000906001600160a01b038516907fddf252ad1be2c89b69c2b068fc378daa952ba7f163c4a11628f55a4df523b3ef906107f1908690610baa565b60405180910390a3610801836000845b505050565b80356001600160a01b03811681146103cf57600080fd5b60006020828403121561082e578081fd5b61083782610806565b9392505050565b60008060408385031215610850578081fd5b61085983610806565b915061086760208401610806565b90509250929050565b600080600060608486031215610884578081fd5b61088d84610806565b925061089b60208501610806565b9150604084013590509250925092565b600080604083850312156108bd578182fd5b6108c683610806565b946020939093013593505050565b6001600160a01b0391909116815260200190565b901515815260200190565b6000602080835283518082850152825b8181101561091f57858101830151858201604001528201610903565b818111156109305783604083870101525b50601f01601f1916929092016040019392505050565b60208082526023908201527f45524332303a207472616e7366657220746f20746865207a65726f206164647260408201526265737360e81b606082015260800190565b60208082526022908201527f45524332303a206275726e20616d6f756e7420657863656564732062616c616e604082015261636560f01b606082015260800190565b60208082526022908201527f45524332303a20617070726f766520746f20746865207a65726f206164647265604082015261737360f01b606082015260800190565b60208082526026908201527f45524332303a207472616e7366657220616d6f756e7420657863656564732062604082015265616c616e636560d01b606082015260800190565b60208082526028908201527f45524332303a207472616e7366657220616d6f756e74206578636565647320616040820152676c6c6f77616e636560c01b606082015260800190565b60208082526021908201527f45524332303a206275726e2066726f6d20746865207a65726f206164647265736040820152607360f81b606082015260800190565b60208082526025908201527f45524332303a207472616e736665722066726f6d20746865207a65726f206164604082015264647265737360d81b606082015260800190565b60208082526024908201527f45524332303a20617070726f76652066726f6d20746865207a65726f206164646040820152637265737360e01b606082015260800190565b60208082526025908201527f45524332303a2064656372656173656420616c6c6f77616e63652062656c6f77604082015264207a65726f60d81b606082015260800190565b90815260200190565b60ff91909116815260200190565b60008219821115610bd457610bd4610c2b565b500190565b600082821015610beb57610beb610c2b565b500390565b600281046001821680610c0457607f821691505b60208210811415610c2557634e487b7160e01b600052602260045260246000fd5b50919050565b634e487b7160e01b600052601160045260246000fdfea26469706673582212207d4cf128b6a2e2ac0b54a6b40b1b32e9ab5c07b2f44c16e969b1380105cfb47264736f6c63430008000033a2646970667358221220a18c06dbefef7128a5e4cc87a0a093f976349402841207ccb32d3afddba872e364736f6c63430008000033",
  "immutableReferences": {},
  "source": "// SPDX-License-Identifier: MIT\r\npragma solidity ^0.8.0;\r\npragma experimental ABIEncoderV2;\r\n\r\nimport \"@openzeppelin/contracts/proxy/utils/Initializable.sol\";\r\nimport \"../token20/RBT.sol\";\r\nimport \"../token20/RBTEX.sol\";\r\nimport \"../token20/RBTSeed.sol\";\r\nimport \"../token20/RBD.sol\";\r\n\r\ncontract ERC20Orchestrator is Initializable {\r\n\r\n    address public rbt;\r\n    address public rbd;\r\n    address public rbtex;\r\n    address public rbtseed;\r\n\r\n    function init(address manager) external initializer {\r\n\r\n        rbt = address(new RBT(manager));\r\n\r\n        rbd = address(new RBD(manager));\r\n      \r\n        rbtex = address(new RBTEX(manager));\r\n\r\n        rbtseed = address(new RBTSeed(manager));\r\n    }\r\n    \r\n}",
  "sourcePath": "D://rainbow/RainbowDao-protocol/contracts/orchestrator/ERC20Orchestrator.sol",
  "compiler": {
    "name": "solc",
    "version": "0.8.0+commit.c7dfd78e.Emscripten.clang"
  },
  "schemaVersion": "3.4.1",
  "updatedAt": "2021-10-16T03:51:57.459Z",
  "networkType": "ethereum",
  "devdoc": {
    "kind": "dev",
    "methods": {},
    "version": 1
  },
  "userdoc": {
    "kind": "user",
    "methods": {},
    "version": 1
  }
}