{
  "contractName": "ExchangeGovernance721",
  "abi": [
    {
      "inputs": [
        {
          "internalType": "address",
          "name": "core",
          "type": "address"
        }
      ],
      "stateMutability": "nonpayable",
      "type": "constructor"
    },
    {
      "anonymous": false,
      "inputs": [
        {
          "indexed": true,
          "internalType": "address",
          "name": "_address",
          "type": "address"
        },
        {
          "indexed": true,
          "internalType": "uint256",
          "name": "tokenId",
          "type": "uint256"
        }
      ],
      "name": "AddCitynode",
      "type": "event"
    },
    {
      "anonymous": false,
      "inputs": [
        {
          "indexed": true,
          "internalType": "uint256",
          "name": "tokenId",
          "type": "uint256"
        },
        {
          "indexed": true,
          "internalType": "address",
          "name": "_address",
          "type": "address"
        }
      ],
      "name": "AddNftToken",
      "type": "event"
    },
    {
      "anonymous": false,
      "inputs": [
        {
          "indexed": true,
          "internalType": "address",
          "name": "_core",
          "type": "address"
        }
      ],
      "name": "CoreUpdate",
      "type": "event"
    },
    {
      "inputs": [],
      "name": "Rbt",
      "outputs": [
        {
          "internalType": "contract IERC20",
          "name": "",
          "type": "address"
        }
      ],
      "stateMutability": "view",
      "type": "function"
    },
    {
      "inputs": [],
      "name": "core",
      "outputs": [
        {
          "internalType": "contract ICore",
          "name": "",
          "type": "address"
        }
      ],
      "stateMutability": "view",
      "type": "function"
    },
    {
      "inputs": [
        {
          "internalType": "uint256",
          "name": "",
          "type": "uint256"
        }
      ],
      "name": "depositAmount",
      "outputs": [
        {
          "internalType": "uint256",
          "name": "",
          "type": "uint256"
        }
      ],
      "stateMutability": "view",
      "type": "function"
    },
    {
      "inputs": [
        {
          "internalType": "uint256",
          "name": "",
          "type": "uint256"
        }
      ],
      "name": "governance721Amount",
      "outputs": [
        {
          "internalType": "uint256",
          "name": "",
          "type": "uint256"
        }
      ],
      "stateMutability": "view",
      "type": "function"
    },
    {
      "inputs": [],
      "name": "names",
      "outputs": [
        {
          "internalType": "string",
          "name": "",
          "type": "string"
        }
      ],
      "stateMutability": "view",
      "type": "function"
    },
    {
      "inputs": [
        {
          "internalType": "address",
          "name": "core",
          "type": "address"
        }
      ],
      "name": "setCore",
      "outputs": [],
      "stateMutability": "nonpayable",
      "type": "function"
    },
    {
      "inputs": [],
      "name": "value",
      "outputs": [
        {
          "internalType": "uint256",
          "name": "",
          "type": "uint256"
        }
      ],
      "stateMutability": "view",
      "type": "function"
    },
    {
      "inputs": [
        {
          "internalType": "address",
          "name": "_deposits",
          "type": "address"
        },
        {
          "internalType": "address",
          "name": "_rbtElf",
          "type": "address"
        },
        {
          "internalType": "address",
          "name": "_rbtEnvoy",
          "type": "address"
        },
        {
          "internalType": "address",
          "name": "_rbtPartner",
          "type": "address"
        },
        {
          "internalType": "address",
          "name": "_rbtNode",
          "type": "address"
        }
      ],
      "name": "init",
      "outputs": [],
      "stateMutability": "nonpayable",
      "type": "function"
    },
    {
      "inputs": [
        {
          "internalType": "address",
          "name": "_rbtCitynode",
          "type": "address"
        }
      ],
      "name": "initCitynode",
      "outputs": [],
      "stateMutability": "nonpayable",
      "type": "function"
    },
    {
      "inputs": [
        {
          "internalType": "uint256",
          "name": "tokenId",
          "type": "uint256"
        },
        {
          "internalType": "address",
          "name": "_address",
          "type": "address"
        }
      ],
      "name": "addNftToken",
      "outputs": [],
      "stateMutability": "nonpayable",
      "type": "function"
    }
  ],
  "bytecode": "0x608060405234801561001057600080fd5b50604051610b68380380610b6883398101604081905261002f91610054565b600080546001600160a01b0319166001600160a01b0392909216919091179055610082565b600060208284031215610065578081fd5b81516001600160a01b038116811461007b578182fd5b9392505050565b610ad7806100916000396000f3fe608060405234801561001057600080fd5b506004361061009e5760003560e01c80633fa4f245116100665780633fa4f2451461011e578063800096301461012657806387f8ab2614610139578063f0f17e871461014c578063f2f4eb261461015f5761009e565b8063056da048146100a3578063135b54dd146100c157806330c5b35c146100d6578063359ef75b146100f65780633733f7de1461010b575b600080fd5b6100ab610167565b6040516100b891906108dd565b60405180910390f35b6100c96101f5565b6040516100b891906108c9565b6100e96100e436600461086a565b610281565b6040516100b891906109cd565b6101096101043660046107da565b610293565b005b61010961011936600461079b565b6102ef565b6100e9610311565b61010961013436600461079b565b610317565b6100e961014736600461086a565b610404565b61010961015a36600461089a565b610416565b6100c961078c565b6003805461017490610a24565b80601f01602080910402602001604051908101604052809291908181526020018280546101a090610a24565b80156101ed5780601f106101c2576101008083540402835291602001916101ed565b820191906000526020600020905b8154815290600101906020018083116101d057829003601f168201915b505050505081565b60008060009054906101000a90046001600160a01b03166001600160a01b03166318f7d8626040518163ffffffff1660e01b815260040160206040518083038186803b15801561024457600080fd5b505afa158015610258573d6000803e3d6000fd5b505050506040513d601f19601f8201168201806040525081019061027c91906107be565b905090565b60086020526000908152604090205481565b600180546001600160a01b0319166001600160a01b039687161790559284166000908152600660205260408082206107d0905592851681528281206127109055908416815281812061c350905591909216815220620186a09055565b600480546001600160a01b0319166001600160a01b0392909216919091179055565b60055481565b600054604051631c86b03760e31b81526001600160a01b039091169063e43581b8906103479033906004016108c9565b60206040518083038186803b15801561035f57600080fd5b505afa158015610373573d6000803e3d6000fd5b505050506040513d601f19601f82011682018060405250810190610397919061084a565b6103bc5760405162461bcd60e51b81526004016103b39061098c565b60405180910390fd5b600080546001600160a01b0319166001600160a01b038316908117825560405190917fad9400e618eb1344fde53db22397a1b82c765527ecbba3a5c86bcac15090828b91a250565b60076020526000908152604090205481565b6001546040516331a9108f60e11b81526000916001600160a01b031690636352211e906104479086906004016109cd565b60206040518083038186803b15801561045f57600080fd5b505afa158015610473573d6000803e3d6000fd5b505050506040513d601f19601f8201168201806040525081019061049791906107be565b9050336001600160a01b038216146104c15760405162461bcd60e51b81526004016103b39061095f565b60006104d264010000000042610a5f565b60015460405163bf81bf4360e01b81529192506000916001600160a01b039091169063bf81bf43906105089088906004016109cd565b60206040518083038186803b15801561052057600080fd5b505afa158015610534573d6000803e3d6000fd5b505050506040513d601f19601f820116820180604052508101906105589190610882565b9050600062278d0061057063ffffffff851684610a01565b61057a91906109ed565b60008781526007602052604090205490915061062057600154604051631161a04b60e31b81526001600160a01b0390911690638b0d0258906105c09089906004016109cd565b60206040518083038186803b1580156105d857600080fd5b505afa1580156105ec573d6000803e3d6000fd5b505050506040513d601f19601f820116820180604052508101906106109190610882565b6000878152600760205260409020555b6001600160a01b038516600090815260066020908152604080832054898452600790925290912054108015906106575750600c8110155b6106735760405162461bcd60e51b81526004016103b390610930565b6040516394bf804d60e01b81526001600160a01b038616906394bf804d906106a190859088906004016109d6565b602060405180830381600087803b1580156106bb57600080fd5b505af11580156106cf573d6000803e3d6000fd5b505050506040513d601f19601f820116820180604052508101906106f39190610882565b506001600160a01b0385166000908152600660209081526040808320548984526007909252909120546107269190610a01565b600087815260076020526040902081905561074e576000868152600760205260409020600190555b6040516001600160a01b0386169087907fc87996656dd37711cf23d745bea7f9d7bcdd5d56221b8503844a6a0704ea46c390600090a3505050505050565b6000546001600160a01b031690565b6000602082840312156107ac578081fd5b81356107b781610a89565b9392505050565b6000602082840312156107cf578081fd5b81516107b781610a89565b600080600080600060a086880312156107f1578081fd5b85356107fc81610a89565b9450602086013561080c81610a89565b9350604086013561081c81610a89565b9250606086013561082c81610a89565b9150608086013561083c81610a89565b809150509295509295909350565b60006020828403121561085b578081fd5b815180151581146107b7578182fd5b60006020828403121561087b578081fd5b5035919050565b600060208284031215610893578081fd5b5051919050565b600080604083850312156108ac578182fd5b8235915060208301356108be81610a89565b809150509250929050565b6001600160a01b0391909116815260200190565b6000602080835283518082850152825b81811015610909578581018301518582016040015282016108ed565b8181111561091a5783604083870101525b50601f01601f1916929092016040019392505050565b60208082526015908201527403737ba1039bab33334b1b4b2b73a10333ab732399605d1b604082015260600190565b6020808252601390820152722737ba103a3432903a37b5b2b71037bbb732b960691b604082015260600190565b60208082526021908201527f436f72655265663a2043616c6c6572206973206e6f74206120676f7665726e6f6040820152603960f91b606082015260800190565b90815260200190565b9182526001600160a01b0316602082015260400190565b6000826109fc576109fc610a73565b500490565b600082821015610a1f57634e487b7160e01b81526011600452602481fd5b500390565b600281046001821680610a3857607f821691505b60208210811415610a5957634e487b7160e01b600052602260045260246000fd5b50919050565b600082610a6e57610a6e610a73565b500690565b634e487b7160e01b600052601260045260246000fd5b6001600160a01b0381168114610a9e57600080fd5b5056fea26469706673582212202593a6de874fdcdb0da055f89219a159f295440b57889d6e00e4abe526e3a6ee64736f6c63430008000033",
  "immutableReferences": {},
  "source": "\r\npragma solidity ^0.8.0;\r\nimport \"./interface/token721/IRbtDeposit721.sol\";\r\nimport \"./token721/Governance721.sol\";\r\nimport \"./ref/CoreRef.sol\";\r\nimport \"./interface/token721/IRBTCitynode.sol\";\r\n\r\ncontract ExchangeGovernance721 is CoreRef {\r\n    IRbtDeposit721 deposit;\r\n    IRBTCitynode rbtcitynode;\r\n    string public names;\r\n    address  rbtCitynode;\r\n    uint public value;\r\n    mapping (address=>uint)types;//address->types\r\n    mapping(uint=>uint) public depositAmount; //tokenId->amount\r\n    mapping(uint=>uint) public governance721Amount;//tokenId->amount\r\n    event AddNftToken(uint indexed tokenId,address indexed _address);\r\n    event AddCitynode(address indexed _address,uint indexed tokenId);\r\n    \r\n     //\r\n    constructor(address core)CoreRef(core){}\r\n    \r\n    function init(address _deposits, address _rbtElf ,address _rbtEnvoy,address _rbtPartner,address _rbtNode)  external {\r\n        deposit=IRbtDeposit721(_deposits);\r\n        types[_rbtElf] = 2000;\r\n        types[_rbtEnvoy] = 10000;\r\n        types[_rbtPartner] = 50000;\r\n        types[_rbtNode] = 100000;\r\n    }\r\n    function initCitynode(address _rbtCitynode) external {\r\n        rbtCitynode=_rbtCitynode;\r\n    }\r\n    \r\n    //  \r\n    function addNftToken( uint tokenId,address _address)external{ \r\n        address owner=deposit.ownerOf(tokenId);\r\n        //\r\n        require(msg.sender==owner,\"Not the token owner\");\r\n        uint32 blockTime = uint32(block.timestamp % 2 ** 32);\r\n        //uint startTime=deposit.startTime(tokenId);\r\n        uint expireTime=deposit.expire(tokenId);\r\n        uint month=(expireTime-blockTime)/2592000;\r\n        if(depositAmount[tokenId] == 0){\r\n            depositAmount[tokenId] = deposit.amount(tokenId);\r\n        }\r\n        require(depositAmount[tokenId]>=types[_address]&&month>=12,\"not sufficient funds \");\r\n        Governance721(_address).mint(expireTime,owner);\r\n        depositAmount[tokenId] = depositAmount[tokenId]-types[_address];\r\n        if(depositAmount[tokenId] == 0){\r\n            depositAmount[tokenId] = 1;\r\n        } \r\n        emit AddNftToken(tokenId, _address);\r\n    }\r\n\r\n    // // \r\n    // function addCitynode(address _address,uint tokenId)external{\r\n    //     address owner=Governance721(_address).ownerOf(tokenId);\r\n    //     uint amount=Governance721(_address).usableBalanceOf(owner);\r\n    //     names=Governance721(_address).name();\r\n    //     //unit32\r\n    //     uint32 blockTime = uint32(block.timestamp % 2 ** 32);\r\n    //     uint expireTime=blockTime+2592000*3;\r\n    //     //citynodede\r\n    //     if(governance721Amount[tokenId] == 0){\r\n    //          governance721Amount[tokenId]=Governance721(_address).usableBalanceOf(owner);\r\n    //     }\r\n\r\n    //     if(keccak256(abi.encodePacked(names)) == keccak256(abi.encodePacked(\"RbtEnvoy\")) && amount>=1){\r\n            \r\n    //         rbtcitynode.mint(expireTime, owner);\r\n    //         governance721Amount[tokenId]=governance721Amount[tokenId]-1;\r\n    //     }\r\n    //     else if(keccak256(abi.encodePacked(names)) == keccak256(abi.encodePacked(\"RbtPartner\")) && amount>=1){\r\n            \r\n    //         for (uint i = 1; i <=3; i++){\r\n    //             rbtcitynode.mint(expireTime, owner);\r\n    //         }\r\n    //         governance721Amount[tokenId]=governance721Amount[tokenId]-1;\r\n    //     }\r\n    //     else if(keccak256(abi.encodePacked(names)) == keccak256(abi.encodePacked(\"RbtNode\")) && amount>=1){\r\n            \r\n    //         for (uint i = 1; i <=5; i++){\r\n    //             rbtcitynode.mint(expireTime, owner);\r\n    //         }\r\n    //         governance721Amount[tokenId]=governance721Amount[tokenId]-1;\r\n    //     }\r\n\r\n        \r\n    //       if(governance721Amount[tokenId] == 0){\r\n    //         governance721Amount[tokenId] = 1;\r\n    //     } \r\n\r\n    //     emit AddCitynode(_address, tokenId);\r\n\r\n\r\n        \r\n        \r\n    // }\r\n}\r\n",
  "sourcePath": "D://rainbow/RainbowDao-protocol/contracts/ExchangeGovernance721.sol",
  "compiler": {
    "name": "solc",
    "version": "0.8.0+commit.c7dfd78e.Emscripten.clang"
  },
  "schemaVersion": "3.4.1",
  "updatedAt": "2021-10-16T03:51:57.507Z",
  "networkType": "ethereum",
  "devdoc": {
    "kind": "dev",
    "methods": {
      "Rbt()": {
        "returns": {
          "_0": "IFei implementation address"
        }
      },
      "core()": {
        "returns": {
          "_0": "ICore implementation address"
        }
      }
    },
    "version": 1
  },
  "userdoc": {
    "kind": "user",
    "methods": {
      "Rbt()": {
        "notice": "address of the Fei contract referenced by Core"
      },
      "core()": {
        "notice": "address of the Core contract referenced"
      }
    },
    "version": 1
  }
}