{
  "contractName": "FourRBTCommunityOrchestrator",
  "abi": [
    {
      "inputs": [],
      "name": "RBTCommunityCharitableFundAddr",
      "outputs": [
        {
          "internalType": "address",
          "name": "",
          "type": "address"
        }
      ],
      "stateMutability": "view",
      "type": "function",
      "constant": true
    },
    {
      "inputs": [],
      "name": "RBTCommunityGovernanceFundAddr",
      "outputs": [
        {
          "internalType": "address",
          "name": "",
          "type": "address"
        }
      ],
      "stateMutability": "view",
      "type": "function",
      "constant": true
    },
    {
      "inputs": [
        {
          "internalType": "address",
          "name": "core",
          "type": "address"
        },
        {
          "internalType": "address",
          "name": "voteIdAddr",
          "type": "address"
        }
      ],
      "name": "init",
      "outputs": [],
      "stateMutability": "nonpayable",
      "type": "function"
    }
  ],
  "bytecode": "0x608060405234801561001057600080fd5b50615389806100206000396000f3fe608060405234801561001057600080fd5b50600436106100415760003560e01c806357b752071461004657806362bc9dd414610064578063f09a40161461006c575b600080fd5b61004e610081565b60405161005b919061023f565b60405180910390f35b61004e610090565b61007f61007a36600461020d565b6100a5565b005b6001546001600160a01b031681565b6000546201000090046001600160a01b031681565b600054610100900460ff16806100be575060005460ff16155b6100e35760405162461bcd60e51b81526004016100da9061026d565b60405180910390fd5b600054610100900460ff1615801561010e576000805460ff1961ff0019909116610100171660011790555b828260405161011c906101d7565b610127929190610253565b604051809103906000f080158015610143573d6000803e3d6000fd5b50600060026101000a8154816001600160a01b0302191690836001600160a01b031602179055508282604051610178906101e4565b610183929190610253565b604051809103906000f08015801561019f573d6000803e3d6000fd5b50600180546001600160a01b0319166001600160a01b039290921691909117905580156101d2576000805461ff00191690555b505050565b61284c806102bc83390190565b61284c80612b0883390190565b80356001600160a01b038116811461020857600080fd5b919050565b6000806040838503121561021f578182fd5b610228836101f1565b9150610236602084016101f1565b90509250929050565b6001600160a01b0391909116815260200190565b6001600160a01b0392831681529116602082015260400190565b6020808252602e908201527f496e697469616c697a61626c653a20636f6e747261637420697320616c72656160408201526d191e481a5b9a5d1a585b1a5e995960921b60608201526080019056fe60806040523480156200001157600080fd5b506040516200284c3803806200284c833981016040819052620000349162000083565b600080546001600160a01b039384166001600160a01b03199182161790915560018054929093169116179055620000ba565b80516001600160a01b03811681146200007e57600080fd5b919050565b6000806040838503121562000096578182fd5b620000a18362000066565b9150620000b16020840162000066565b90509250929050565b61278280620000ca6000396000f3fe608060405234801561001057600080fd5b506004361061018e5760003560e01c806360ff341b116100de5780638b113ccb11610097578063b29ead5911610071578063b29ead5914610325578063b349c5d614610338578063f2f4eb261461034b578063ffb8b458146103535761018e565b80638b113ccb1461030d57806399a723e414610315578063a940579e1461031d5761018e565b806360ff341b146102985780636894b483146102b95780636eb46516146102cc57806380009630146102df57806387ea947b146102f257806389196102146103055761018e565b806320bec62a1161014b57806350c7f5a11161012557806350c7f5a11461025757806352c0f6ca1461026a578063538ece29146102725780635ab764ed146102855761018e565b806320bec62a14610216578063256919d41461023157806350c0fbe4146102445761018e565b8063014dc5381461019357806302fb0c5e146101bc5780630b399602146101c65780630fb3a754146101db578063135b54dd146101ee5780632047135614610203575b600080fd5b6101a66101a13660046122ae565b610366565b6040516101b3919061239e565b60405180910390f35b6101c4610386565b005b6101ce6104f6565b6040516101b391906125cc565b6101c46101e93660046122f8565b6104fc565b6101f6610585565b6040516101b3919061234d565b6101c4610211366004611fef565b610611565b61021e6106bc565b6040516101b397969594939291906125d5565b6101ce61023f3660046121e1565b6106eb565b6101ce61025236600461227e565b610718565b6101c4610265366004612088565b610721565b6101c4610733565b6101c4610280366004611fef565b610892565b6101ce61029336600461200b565b610950565b6102ab6102a63660046122f8565b61097d565b6040516101b3929190612385565b6101c46102c7366004612043565b6109c3565b6101c46102da3660046122d2565b610ab7565b6101c46102ed366004611fef565b610c2a565b6101a6610300366004611fef565b610d0e565b6101c4610d1b565b6101c4610e2c565b6101f66110ae565b6101c46110bd565b6101c4610333366004612164565b611112565b6101ce61034636600461200b565b611549565b6101f6611566565b6101c4610361366004612226565b611575565b600b60209081526000928352604080842090915290825290205460ff1681565b600754610100900460ff16156103b75760405162461bcd60e51b81526004016103ae906123a9565b60405180910390fd5b60006103c1611566565b6001600160a01b03166318f7d8626040518163ffffffff1660e01b815260040160206040518083038186803b1580156103f957600080fd5b505afa15801561040d573d6000803e3d6000fd5b505050506040513d601f19601f8201168201806040525081019061043191906121c5565b90506000816001600160a01b03166370a08231306040518263ffffffff1660e01b8152600401610461919061234d565b60206040518083038186803b15801561047957600080fd5b505afa15801561048d573d6000803e3d6000fd5b505050506040513d601f19601f820116820180604052508101906104b19190612296565b90506a027b46536c66c8e30000008110156104de5760405162461bcd60e51b81526004016103ae90612448565b5050600c6008556007805461ff001916610100179055565b60065490565b6000828152600a6020526040812080548390811061052a57634e487b7160e01b600052603260045260246000fd5b60009182526020808320600290920290910154858352600b825260408084206001600160a01b0390921680855291909252908220805460ff1916600117905560088054919350909161057b836126f0565b9190505550505050565b60008060009054906101000a90046001600160a01b03166001600160a01b03166318f7d8626040518163ffffffff1660e01b815260040160206040518083038186803b1580156105d457600080fd5b505afa1580156105e8573d6000803e3d6000fd5b505050506040513d601f19601f8201168201806040525081019061060c91906121c5565b905090565b60005460405163053c328d60e31b81526001600160a01b03909116906329e194689061064190339060040161234d565b60206040518083038186803b15801561065957600080fd5b505afa15801561066d573d6000803e3d6000fd5b505050506040513d601f19601f8201168201806040525081019061069191906121a5565b6106ad5760405162461bcd60e51b81526004016103ae906124c0565b6106b86002826115fe565b5050565b6004546005546006546007546008546009546001600160a01b039094169360ff80841693610100900416919087565b8151602081840181018051600c825292820194820194909420919093529091526000908152604090205481565b6009545b919050565b61072d8484848461161a565b50505050565b60075460ff6101009091041615156001146107605760405162461bcd60e51b81526004016103ae90612494565b600061076a611566565b6001600160a01b03166318f7d8626040518163ffffffff1660e01b815260040160206040518083038186803b1580156107a257600080fd5b505afa1580156107b6573d6000803e3d6000fd5b505050506040513d601f19601f820116820180604052508101906107da91906121c5565b90506107f281333069043c33c1937564800000611884565b60075460ff16151560011461080657600080fd5b6006546000908152600a6020526040902054601e8110156108475760045442116108425760405162461bcd60e51b81526004016103ae9061257c565b610883565b6004544211801561086757506004544290610865906212750061265e565b115b6108835760405162461bcd60e51b81526004016103ae9061257c565b6006546106b89033600061196c565b60005460405163053c328d60e31b81526001600160a01b03909116906329e19468906108c290339060040161234d565b60206040518083038186803b1580156108da57600080fd5b505afa1580156108ee573d6000803e3d6000fd5b505050506040513d601f19601f8201168201806040525081019061091291906121a5565b61092e5760405162461bcd60e51b81526004016103ae906124c0565b600580546001600160a01b0319166001600160a01b0392909216919091179055565b6001600160a01b038083166000908152600d60209081526040808320938516835292905220545b92915050565b600a602052816000526040600020818154811061099957600080fd5b6000918252602090912060029091020180546001909101546001600160a01b039091169250905082565b80600114806109d25750806002145b6109ee5760405162461bcd60e51b81526004016103ae90612470565b8060011415610a52576001600160a01b038085166000908152600d6020908152604080832093871683529290522054610a2790836119cc565b6001600160a01b038086166000908152600d602090815260408083209388168352929052205561072d565b806002141561072d576001600160a01b038085166000908152600d6020908152604080832093871683529290522054610a8b90836119d8565b6001600160a01b038086166000908152600d602090815260408083209388168352929052205550505050565b60075460ff610100909104161515600114610ae45760405162461bcd60e51b81526004016103ae90612494565b60075460ff161515600114610af857600080fd5b6006548314610b0657600080fd5b6000838152600a6020526040902054601e8110801590610b27575060045442115b610b435760405162461bcd60e51b81526004016103ae906123fb565b6000805b82811015610c13576000868152600a60205260409020805482908110610b7d57634e487b7160e01b600052603260045260246000fd5b60009182526020909120600290910201546001600160a01b0386811691161415610c01576000868152600a6020526040902080546001935085919083908110610bd657634e487b7160e01b600052603260045260246000fd5b90600052602060002090600202016001016000828254610bf6919061265e565b90915550610c139050565b80610c0b816126f0565b915050610b47565b50600181151514610c2357600080fd5b5050505050565b600054604051631c86b03760e31b81526001600160a01b039091169063e43581b890610c5a90339060040161234d565b60206040518083038186803b158015610c7257600080fd5b505afa158015610c86573d6000803e3d6000fd5b505050506040513d601f19601f82011682018060405250810190610caa91906121a5565b610cc65760405162461bcd60e51b81526004016103ae906124f7565b600080546001600160a01b0319166001600160a01b038316908117825560405190917fad9400e618eb1344fde53db22397a1b82c765527ecbba3a5c86bcac15090828b91a250565b60006109776002836119e4565b6006546000908152600b6020908152604080832033845290915290205460ff16610d575760405162461bcd60e51b81526004016103ae90612425565b683635c9adc5dea00000610d69610585565b6001600160a01b03166370a08231336040518263ffffffff1660e01b8152600401610d94919061234d565b60206040518083038186803b158015610dac57600080fd5b505afa158015610dc0573d6000803e3d6000fd5b505050506040513d601f19601f82011682018060405250810190610de49190612296565b1015610e025760405162461bcd60e51b81526004016103ae90612448565b610e1e610e0d610585565b3330683635c9adc5dea00000611884565b610e296002336119f9565b50565b60075460ff610100909104161515600114610e595760405162461bcd60e51b81526004016103ae90612494565b6006546000908152600a6020526040902054600f811015610e8c5760405162461bcd60e51b81526004016103ae906125a1565b60075460ff161515600114610ea057600080fd5b6006546000908152600a60205260408120610ebb9183611a0e565b6007805460ff19169055610ed24262278d0061265e565b6004556006546000908152600a602052604081208054909190610f0557634e487b7160e01b600052603260045260246000fd5b6000918252602090912060029091020154600580546001600160a01b0319166001600160a01b0390921691909117905560015b600c8111610fa8576006546000908152600a602052604090208054610f95919083908110610f7657634e487b7160e01b600052603260045260246000fd5b60009182526020909120600291820201546001600160a01b03166119f9565b5080610fa0816126f0565b915050610f38565b50600d811115610e2957600d5b818110156106b8576006546000908152600a60205260408120805483908110610fee57634e487b7160e01b600052603260045260246000fd5b600091825260208220600290910201546001600160a01b03169150611011611566565b6001600160a01b03166318f7d8626040518163ffffffff1660e01b815260040160206040518083038186803b15801561104957600080fd5b505afa15801561105d573d6000803e3d6000fd5b505050506040513d601f19601f8201168201806040525081019061108191906121c5565b905061109981303369043c33c1937564800000611884565b505080806110a6906126f0565b915050610fb5565b6001546001600160a01b031681565b60075460ff6101009091041615156001146110ea5760405162461bcd60e51b81526004016103ae90612494565b60045442116110f857600080fd5b60075460ff161561110857600080fd5b611110611c60565b565b60005460405163053c328d60e31b81526001600160a01b03909116906329e194689061114290339060040161234d565b60206040518083038186803b15801561115a57600080fd5b505afa15801561116e573d6000803e3d6000fd5b505050506040513d601f19601f8201168201806040525081019061119291906121a5565b6111ae5760405162461bcd60e51b81526004016103ae906124c0565b6040516370a0823160e01b81526000906001600160a01b038516906370a08231906111dd90309060040161234d565b60206040518083038186803b1580156111f557600080fd5b505afa158015611209573d6000803e3d6000fd5b505050506040513d601f19601f8201168201806040525081019061122d9190612296565b90508281101561124f5760405162461bcd60e51b81526004016103ae906123d1565b60408051600280825260608201909252600091816020015b606081526020019060019003908161126757505060408051600280825260608201835292935060009290916020830190803683375050604080518082018252601081526f5041524c49414d454e545f53544f524560801b6020820152905192935091600c91506112d8908390612319565b90815260408051602092819003830190206001600160a01b038a16600090815292529020548611156114d857808360008151811061132657634e487b7160e01b600052603260045260246000fd5b6020026020010181905250600c816040516113419190612319565b90815260200160405180910390206000886001600160a01b03166001600160a01b03168152602001908152602001600020548260008151811061139457634e487b7160e01b600052603260045260246000fd5b6020026020010181815250506000600c826040516113b29190612319565b90815260408051602092819003830190206001600160a01b038b16600090815292529020546113e19088612696565b9050600c6040516113f190612335565b90815260408051602092819003830190206001600160a01b038b166000908152925290205481111561145357600c60405161142b90612335565b90815260408051602092819003830190206001600160a01b038b166000908152925290205490505b6040518060400160405280600c81526020016b5055424c49435f53544f524560a01b8152508460018151811061149957634e487b7160e01b600052603260045260246000fd5b602002602001018190525080836001815181106114c657634e487b7160e01b600052603260045260246000fd5b60200260200101818152505050611534565b80836000815181106114fa57634e487b7160e01b600052603260045260246000fd5b6020026020010181905250858260008151811061152757634e487b7160e01b600052603260045260246000fd5b6020026020010181815250505b6115408583858a61161a565b50505050505050565b600d60209081526000928352604080842090915290825290205481565b6000546001600160a01b031690565b6115b481600c856040516115899190612319565b90815260408051602092819003830190206001600160a01b03871660009081529252902054906119cc565b600c846040516115c49190612319565b90815260200160405180910390206000846001600160a01b03166001600160a01b0316815260200190815260200160002081905550505050565b6000611613836001600160a01b038416611d40565b9392505050565b815183511461162857600080fd5b6000805b84518110156117fb5784818151811061165557634e487b7160e01b600052603260045260246000fd5b6020026020010151600c85838151811061167f57634e487b7160e01b600052603260045260246000fd5b60200260200101516040516116949190612319565b90815260408051602092819003830190206001600160a01b0387166000908152925290205410156116c457600080fd5b6116fe8582815181106116e757634e487b7160e01b600052603260045260246000fd5b6020026020010151836119cc90919063ffffffff16565b915061178d85828151811061172357634e487b7160e01b600052603260045260246000fd5b6020026020010151600c86848151811061174d57634e487b7160e01b600052603260045260246000fd5b60200260200101516040516117629190612319565b90815260408051602092819003830190206001600160a01b03881660009081529252902054906119d8565b600c8583815181106117af57634e487b7160e01b600052603260045260246000fd5b60200260200101516040516117c49190612319565b90815260408051602092819003830190206001600160a01b03871660009081529252902055806117f3816126f0565b91505061162c565b5060405163a9059cbb60e01b81526001600160a01b0383169063a9059cbb9061182a9088908590600401612385565b602060405180830381600087803b15801561184457600080fd5b505af1158015611858573d6000803e3d6000fd5b505050506040513d601f19601f8201168201806040525081019061187c91906121a5565b505050505050565b600080856001600160a01b03166323b872dd8686866040516024016118ab93929190612361565b6040516020818303038152906040529060e01b6020820180516001600160e01b0383818316178352505050506040516118e49190612319565b6000604051808303816000865af19150503d8060008114611921576040519150601f19603f3d011682016040523d82523d6000602084013e611926565b606091505b509150915081801561195057508051158061195057508080602001905181019061195091906121a5565b61187c5760405162461bcd60e51b81526004016103ae90612538565b505060408051808201825233815260006020808301828152948252600a8152928120805460018082018355918352939091209151600290930290910180546001600160a01b0319166001600160a01b039093169290921782559151910155565b6000611613828461265e565b60006116138284612696565b6000611613836001600160a01b038416611e5d565b6000611613836001600160a01b038416611e75565b818180821415611a1f575050611c5b565b6000856002611a2e8787612696565b611a389190612676565b611a42908761265e565b81548110611a6057634e487b7160e01b600052603260045260246000fd5b90600052602060002090600202016001015490505b818311611c35575b80868481548110611a9e57634e487b7160e01b600052603260045260246000fd5b9060005260206000209060020201600101541015611ac85782611ac0816126f0565b935050611a7d565b858281548110611ae857634e487b7160e01b600052603260045260246000fd5b906000526020600020906002020160010154811015611b135781611b0b816126d9565b925050611ac8565b818311611c3057858281548110611b3a57634e487b7160e01b600052603260045260246000fd5b9060005260206000209060020201868481548110611b6857634e487b7160e01b600052603260045260246000fd5b9060005260206000209060020201878581548110611b9657634e487b7160e01b600052603260045260246000fd5b90600052602060002090600202016000898681548110611bc657634e487b7160e01b600052603260045260246000fd5b60009182526020909120845460029092020180546001600160a01b039283166001600160a01b0319918216178255600195860154918601919091558554845492169116178255509181015491015582611c1e816126f0565b9350508180611c2c906126d9565b9250505b611a75565b81851015611c4857611c48868684611a0e565b8383101561187c5761187c868486611a0e565b505050565b6000611c6c6002611ebf565b905060005b81811015611ca8576000611c86600283611eca565b9050611c936002826115fe565b50508080611ca0906126f0565b915050611c71565b50436009556007805460ff19166001908117909155546040805163cf7e7b8d60e01b815290516001600160a01b039092169163cf7e7b8d916004818101926020929091908290030181600087803b158015611d0257600080fd5b505af1158015611d16573d6000803e3d6000fd5b505050506040513d601f19601f82011682018060405250810190611d3a9190612296565b60065550565b60008181526001830160205260408120548015611e53576000611d64600183612696565b8554909150600090611d7890600190612696565b9050818114611df9576000866000018281548110611da657634e487b7160e01b600052603260045260246000fd5b9060005260206000200154905080876000018481548110611dd757634e487b7160e01b600052603260045260246000fd5b6000918252602080832090910192909255918252600188019052604090208390555b8554869080611e1857634e487b7160e01b600052603160045260246000fd5b600190038181906000526020600020016000905590558560010160008681526020019081526020016000206000905560019350505050610977565b6000915050610977565b60009081526001919091016020526040902054151590565b6000611e818383611e5d565b611eb757508154600181810184556000848152602080822090930184905584548482528286019093526040902091909155610977565b506000610977565b600061097782611ed6565b60006116138383611eda565b5490565b6000826000018281548110611eff57634e487b7160e01b600052603260045260246000fd5b9060005260206000200154905092915050565b803561071c81612737565b600082601f830112611f2d578081fd5b81356020611f42611f3d8361263a565b612610565b82815281810190858301855b85811015611f7757611f65898684358b0101611f84565b84529284019290840190600101611f4e565b5090979650505050505050565b600082601f830112611f94578081fd5b813567ffffffffffffffff811115611fae57611fae612721565b611fc1601f8201601f1916602001612610565b818152846020838601011115611fd5578283fd5b816020850160208301379081016020019190915292915050565b600060208284031215612000578081fd5b813561161381612737565b6000806040838503121561201d578081fd5b823561202881612737565b9150602083013561203881612737565b809150509250929050565b60008060008060808587031215612058578182fd5b843561206381612737565b9350602085013561207381612737565b93969395505050506040820135916060013590565b6000806000806080858703121561209d578384fd5b84356120a881612737565b935060208581013567ffffffffffffffff808211156120c5578586fd5b818801915088601f8301126120d8578586fd5b81356120e6611f3d8261263a565b81815284810190848601868402860187018d101561210257898afd5b8995505b83861015612124578035835260019590950194918601918601612106565b5097505050604088013592508083111561213c578485fd5b505061214a87828801611f1d565b92505061215960608601611f12565b905092959194509250565b600080600060608486031215612178578283fd5b833561218381612737565b925060208401359150604084013561219a81612737565b809150509250925092565b6000602082840312156121b6578081fd5b81518015158114611613578182fd5b6000602082840312156121d6578081fd5b815161161381612737565b600080604083850312156121f3578182fd5b823567ffffffffffffffff811115612209578283fd5b61221585828601611f84565b925050602083013561203881612737565b60008060006060848603121561223a578283fd5b833567ffffffffffffffff811115612250578384fd5b61225c86828701611f84565b935050602084013561226d81612737565b929592945050506040919091013590565b60006020828403121561228f578081fd5b5035919050565b6000602082840312156122a7578081fd5b5051919050565b600080604083850312156122c0578182fd5b82359150602083013561203881612737565b6000806000606084860312156122e6578081fd5b83359250602084013561226d81612737565b6000806040838503121561230a578182fd5b50508035926020909101359150565b6000825161232b8184602087016126ad565b9190910192915050565b6b5055424c49435f53544f524560a01b8152600c0190565b6001600160a01b0391909116815260200190565b6001600160a01b039384168152919092166020820152604081019190915260600190565b6001600160a01b03929092168252602082015260400190565b901515815260200190565b6020808252600e908201526d616c72656164792061637469766560901b604082015260600190565b60208082526010908201526f3737ba1032b737bab3b4103a37b5b2b760811b604082015260600190565b60208082526010908201526f6e6f7420696e20766f74652074696d6560801b604082015260600190565b6020808252600990820152686e6f2061636365737360b81b604082015260600190565b6020808252600e908201526d1b9bdd08195b9bdd59da081c989d60921b604082015260600190565b6020808252600a90820152696e6f742061636365737360b01b604082015260600190565b60208082526012908201527111d3d588135554d5081050d512559055115160721b604082015260600190565b6020808252601d908201527f436f72655265663a2043616c6c6572206973206e6f74206120566f7465000000604082015260600190565b60208082526021908201527f436f72655265663a2043616c6c6572206973206e6f74206120676f7665726e6f6040820152603960f91b606082015260800190565b60208082526024908201527f5472616e7366657248656c7065723a205452414e534645525f46524f4d5f46416040820152631253115160e21b606082015260800190565b6020808252600b908201526a6e6f7420696e2074696d6560a81b604082015260600190565b6020808252601190820152706e6f7420656e6f7567682070656f706c6560781b604082015260600190565b90815260200190565b9687526001600160a01b03959095166020870152604086019390935290151560608501521515608084015260a083015260c082015260e00190565b60405181810167ffffffffffffffff8111828210171561263257612632612721565b604052919050565b600067ffffffffffffffff82111561265457612654612721565b5060209081020190565b600082198211156126715761267161270b565b500190565b60008261269157634e487b7160e01b81526012600452602481fd5b500490565b6000828210156126a8576126a861270b565b500390565b60005b838110156126c85781810151838201526020016126b0565b8381111561072d5750506000910152565b6000816126e8576126e861270b565b506000190190565b60006000198214156127045761270461270b565b5060010190565b634e487b7160e01b600052601160045260246000fd5b634e487b7160e01b600052604160045260246000fd5b6001600160a01b0381168114610e2957600080fdfea26469706673582212202db6311ceae7677aae99c7c5239bbaf4ddf021cdd52b0d38ed827ca8801e5a6e64736f6c6343000800003360806040523480156200001157600080fd5b506040516200284c3803806200284c833981016040819052620000349162000083565b600080546001600160a01b039384166001600160a01b03199182161790915560018054929093169116179055620000ba565b80516001600160a01b03811681146200007e57600080fd5b919050565b6000806040838503121562000096578182fd5b620000a18362000066565b9150620000b16020840162000066565b90509250929050565b61278280620000ca6000396000f3fe608060405234801561001057600080fd5b506004361061018e5760003560e01c806360ff341b116100de5780638b113ccb11610097578063b29ead5911610071578063b29ead5914610325578063b349c5d614610338578063f2f4eb261461034b578063ffb8b458146103535761018e565b80638b113ccb1461030d57806399a723e414610315578063a940579e1461031d5761018e565b806360ff341b146102985780636894b483146102b95780636eb46516146102cc57806380009630146102df57806387ea947b146102f257806389196102146103055761018e565b806320bec62a1161014b57806350c7f5a11161012557806350c7f5a11461025757806352c0f6ca1461026a578063538ece29146102725780635ab764ed146102855761018e565b806320bec62a14610216578063256919d41461023157806350c0fbe4146102445761018e565b8063014dc5381461019357806302fb0c5e146101bc5780630b399602146101c65780630fb3a754146101db578063135b54dd146101ee5780632047135614610203575b600080fd5b6101a66101a13660046122ae565b610366565b6040516101b3919061239e565b60405180910390f35b6101c4610386565b005b6101ce6104f6565b6040516101b391906125cc565b6101c46101e93660046122f8565b6104fc565b6101f6610585565b6040516101b3919061234d565b6101c4610211366004611fef565b610611565b61021e6106bc565b6040516101b397969594939291906125d5565b6101ce61023f3660046121e1565b6106eb565b6101ce61025236600461227e565b610718565b6101c4610265366004612088565b610721565b6101c4610733565b6101c4610280366004611fef565b610892565b6101ce61029336600461200b565b610950565b6102ab6102a63660046122f8565b61097d565b6040516101b3929190612385565b6101c46102c7366004612043565b6109c3565b6101c46102da3660046122d2565b610ab7565b6101c46102ed366004611fef565b610c2a565b6101a6610300366004611fef565b610d0e565b6101c4610d1b565b6101c4610e2c565b6101f66110ae565b6101c46110bd565b6101c4610333366004612164565b611112565b6101ce61034636600461200b565b611549565b6101f6611566565b6101c4610361366004612226565b611575565b600b60209081526000928352604080842090915290825290205460ff1681565b600754610100900460ff16156103b75760405162461bcd60e51b81526004016103ae906123a9565b60405180910390fd5b60006103c1611566565b6001600160a01b03166318f7d8626040518163ffffffff1660e01b815260040160206040518083038186803b1580156103f957600080fd5b505afa15801561040d573d6000803e3d6000fd5b505050506040513d601f19601f8201168201806040525081019061043191906121c5565b90506000816001600160a01b03166370a08231306040518263ffffffff1660e01b8152600401610461919061234d565b60206040518083038186803b15801561047957600080fd5b505afa15801561048d573d6000803e3d6000fd5b505050506040513d601f19601f820116820180604052508101906104b19190612296565b90506a027b46536c66c8e30000008110156104de5760405162461bcd60e51b81526004016103ae90612448565b5050600c6008556007805461ff001916610100179055565b60065490565b6000828152600a6020526040812080548390811061052a57634e487b7160e01b600052603260045260246000fd5b60009182526020808320600290920290910154858352600b825260408084206001600160a01b0390921680855291909252908220805460ff1916600117905560088054919350909161057b836126f0565b9190505550505050565b60008060009054906101000a90046001600160a01b03166001600160a01b03166318f7d8626040518163ffffffff1660e01b815260040160206040518083038186803b1580156105d457600080fd5b505afa1580156105e8573d6000803e3d6000fd5b505050506040513d601f19601f8201168201806040525081019061060c91906121c5565b905090565b60005460405163053c328d60e31b81526001600160a01b03909116906329e194689061064190339060040161234d565b60206040518083038186803b15801561065957600080fd5b505afa15801561066d573d6000803e3d6000fd5b505050506040513d601f19601f8201168201806040525081019061069191906121a5565b6106ad5760405162461bcd60e51b81526004016103ae906124c0565b6106b86002826115fe565b5050565b6004546005546006546007546008546009546001600160a01b039094169360ff80841693610100900416919087565b8151602081840181018051600c825292820194820194909420919093529091526000908152604090205481565b6009545b919050565b61072d8484848461161a565b50505050565b60075460ff6101009091041615156001146107605760405162461bcd60e51b81526004016103ae90612494565b600061076a611566565b6001600160a01b03166318f7d8626040518163ffffffff1660e01b815260040160206040518083038186803b1580156107a257600080fd5b505afa1580156107b6573d6000803e3d6000fd5b505050506040513d601f19601f820116820180604052508101906107da91906121c5565b90506107f281333069043c33c1937564800000611884565b60075460ff16151560011461080657600080fd5b6006546000908152600a6020526040902054601e8110156108475760045442116108425760405162461bcd60e51b81526004016103ae9061257c565b610883565b6004544211801561086757506004544290610865906212750061265e565b115b6108835760405162461bcd60e51b81526004016103ae9061257c565b6006546106b89033600061196c565b60005460405163053c328d60e31b81526001600160a01b03909116906329e19468906108c290339060040161234d565b60206040518083038186803b1580156108da57600080fd5b505afa1580156108ee573d6000803e3d6000fd5b505050506040513d601f19601f8201168201806040525081019061091291906121a5565b61092e5760405162461bcd60e51b81526004016103ae906124c0565b600580546001600160a01b0319166001600160a01b0392909216919091179055565b6001600160a01b038083166000908152600d60209081526040808320938516835292905220545b92915050565b600a602052816000526040600020818154811061099957600080fd5b6000918252602090912060029091020180546001909101546001600160a01b039091169250905082565b80600114806109d25750806002145b6109ee5760405162461bcd60e51b81526004016103ae90612470565b8060011415610a52576001600160a01b038085166000908152600d6020908152604080832093871683529290522054610a2790836119cc565b6001600160a01b038086166000908152600d602090815260408083209388168352929052205561072d565b806002141561072d576001600160a01b038085166000908152600d6020908152604080832093871683529290522054610a8b90836119d8565b6001600160a01b038086166000908152600d602090815260408083209388168352929052205550505050565b60075460ff610100909104161515600114610ae45760405162461bcd60e51b81526004016103ae90612494565b60075460ff161515600114610af857600080fd5b6006548314610b0657600080fd5b6000838152600a6020526040902054601e8110801590610b27575060045442115b610b435760405162461bcd60e51b81526004016103ae906123fb565b6000805b82811015610c13576000868152600a60205260409020805482908110610b7d57634e487b7160e01b600052603260045260246000fd5b60009182526020909120600290910201546001600160a01b0386811691161415610c01576000868152600a6020526040902080546001935085919083908110610bd657634e487b7160e01b600052603260045260246000fd5b90600052602060002090600202016001016000828254610bf6919061265e565b90915550610c139050565b80610c0b816126f0565b915050610b47565b50600181151514610c2357600080fd5b5050505050565b600054604051631c86b03760e31b81526001600160a01b039091169063e43581b890610c5a90339060040161234d565b60206040518083038186803b158015610c7257600080fd5b505afa158015610c86573d6000803e3d6000fd5b505050506040513d601f19601f82011682018060405250810190610caa91906121a5565b610cc65760405162461bcd60e51b81526004016103ae906124f7565b600080546001600160a01b0319166001600160a01b038316908117825560405190917fad9400e618eb1344fde53db22397a1b82c765527ecbba3a5c86bcac15090828b91a250565b60006109776002836119e4565b6006546000908152600b6020908152604080832033845290915290205460ff16610d575760405162461bcd60e51b81526004016103ae90612425565b683635c9adc5dea00000610d69610585565b6001600160a01b03166370a08231336040518263ffffffff1660e01b8152600401610d94919061234d565b60206040518083038186803b158015610dac57600080fd5b505afa158015610dc0573d6000803e3d6000fd5b505050506040513d601f19601f82011682018060405250810190610de49190612296565b1015610e025760405162461bcd60e51b81526004016103ae90612448565b610e1e610e0d610585565b3330683635c9adc5dea00000611884565b610e296002336119f9565b50565b60075460ff610100909104161515600114610e595760405162461bcd60e51b81526004016103ae90612494565b6006546000908152600a6020526040902054600f811015610e8c5760405162461bcd60e51b81526004016103ae906125a1565b60075460ff161515600114610ea057600080fd5b6006546000908152600a60205260408120610ebb9183611a0e565b6007805460ff19169055610ed24262278d0061265e565b6004556006546000908152600a602052604081208054909190610f0557634e487b7160e01b600052603260045260246000fd5b6000918252602090912060029091020154600580546001600160a01b0319166001600160a01b0390921691909117905560015b600c8111610fa8576006546000908152600a602052604090208054610f95919083908110610f7657634e487b7160e01b600052603260045260246000fd5b60009182526020909120600291820201546001600160a01b03166119f9565b5080610fa0816126f0565b915050610f38565b50600d811115610e2957600d5b818110156106b8576006546000908152600a60205260408120805483908110610fee57634e487b7160e01b600052603260045260246000fd5b600091825260208220600290910201546001600160a01b03169150611011611566565b6001600160a01b03166318f7d8626040518163ffffffff1660e01b815260040160206040518083038186803b15801561104957600080fd5b505afa15801561105d573d6000803e3d6000fd5b505050506040513d601f19601f8201168201806040525081019061108191906121c5565b905061109981303369043c33c1937564800000611884565b505080806110a6906126f0565b915050610fb5565b6001546001600160a01b031681565b60075460ff6101009091041615156001146110ea5760405162461bcd60e51b81526004016103ae90612494565b60045442116110f857600080fd5b60075460ff161561110857600080fd5b611110611c60565b565b60005460405163053c328d60e31b81526001600160a01b03909116906329e194689061114290339060040161234d565b60206040518083038186803b15801561115a57600080fd5b505afa15801561116e573d6000803e3d6000fd5b505050506040513d601f19601f8201168201806040525081019061119291906121a5565b6111ae5760405162461bcd60e51b81526004016103ae906124c0565b6040516370a0823160e01b81526000906001600160a01b038516906370a08231906111dd90309060040161234d565b60206040518083038186803b1580156111f557600080fd5b505afa158015611209573d6000803e3d6000fd5b505050506040513d601f19601f8201168201806040525081019061122d9190612296565b90508281101561124f5760405162461bcd60e51b81526004016103ae906123d1565b60408051600280825260608201909252600091816020015b606081526020019060019003908161126757505060408051600280825260608201835292935060009290916020830190803683375050604080518082018252601081526f5041524c49414d454e545f53544f524560801b6020820152905192935091600c91506112d8908390612319565b90815260408051602092819003830190206001600160a01b038a16600090815292529020548611156114d857808360008151811061132657634e487b7160e01b600052603260045260246000fd5b6020026020010181905250600c816040516113419190612319565b90815260200160405180910390206000886001600160a01b03166001600160a01b03168152602001908152602001600020548260008151811061139457634e487b7160e01b600052603260045260246000fd5b6020026020010181815250506000600c826040516113b29190612319565b90815260408051602092819003830190206001600160a01b038b16600090815292529020546113e19088612696565b9050600c6040516113f190612335565b90815260408051602092819003830190206001600160a01b038b166000908152925290205481111561145357600c60405161142b90612335565b90815260408051602092819003830190206001600160a01b038b166000908152925290205490505b6040518060400160405280600c81526020016b5055424c49435f53544f524560a01b8152508460018151811061149957634e487b7160e01b600052603260045260246000fd5b602002602001018190525080836001815181106114c657634e487b7160e01b600052603260045260246000fd5b60200260200101818152505050611534565b80836000815181106114fa57634e487b7160e01b600052603260045260246000fd5b6020026020010181905250858260008151811061152757634e487b7160e01b600052603260045260246000fd5b6020026020010181815250505b6115408583858a61161a565b50505050505050565b600d60209081526000928352604080842090915290825290205481565b6000546001600160a01b031690565b6115b481600c856040516115899190612319565b90815260408051602092819003830190206001600160a01b03871660009081529252902054906119cc565b600c846040516115c49190612319565b90815260200160405180910390206000846001600160a01b03166001600160a01b0316815260200190815260200160002081905550505050565b6000611613836001600160a01b038416611d40565b9392505050565b815183511461162857600080fd5b6000805b84518110156117fb5784818151811061165557634e487b7160e01b600052603260045260246000fd5b6020026020010151600c85838151811061167f57634e487b7160e01b600052603260045260246000fd5b60200260200101516040516116949190612319565b90815260408051602092819003830190206001600160a01b0387166000908152925290205410156116c457600080fd5b6116fe8582815181106116e757634e487b7160e01b600052603260045260246000fd5b6020026020010151836119cc90919063ffffffff16565b915061178d85828151811061172357634e487b7160e01b600052603260045260246000fd5b6020026020010151600c86848151811061174d57634e487b7160e01b600052603260045260246000fd5b60200260200101516040516117629190612319565b90815260408051602092819003830190206001600160a01b03881660009081529252902054906119d8565b600c8583815181106117af57634e487b7160e01b600052603260045260246000fd5b60200260200101516040516117c49190612319565b90815260408051602092819003830190206001600160a01b03871660009081529252902055806117f3816126f0565b91505061162c565b5060405163a9059cbb60e01b81526001600160a01b0383169063a9059cbb9061182a9088908590600401612385565b602060405180830381600087803b15801561184457600080fd5b505af1158015611858573d6000803e3d6000fd5b505050506040513d601f19601f8201168201806040525081019061187c91906121a5565b505050505050565b600080856001600160a01b03166323b872dd8686866040516024016118ab93929190612361565b6040516020818303038152906040529060e01b6020820180516001600160e01b0383818316178352505050506040516118e49190612319565b6000604051808303816000865af19150503d8060008114611921576040519150601f19603f3d011682016040523d82523d6000602084013e611926565b606091505b509150915081801561195057508051158061195057508080602001905181019061195091906121a5565b61187c5760405162461bcd60e51b81526004016103ae90612538565b505060408051808201825233815260006020808301828152948252600a8152928120805460018082018355918352939091209151600290930290910180546001600160a01b0319166001600160a01b039093169290921782559151910155565b6000611613828461265e565b60006116138284612696565b6000611613836001600160a01b038416611e5d565b6000611613836001600160a01b038416611e75565b818180821415611a1f575050611c5b565b6000856002611a2e8787612696565b611a389190612676565b611a42908761265e565b81548110611a6057634e487b7160e01b600052603260045260246000fd5b90600052602060002090600202016001015490505b818311611c35575b80868481548110611a9e57634e487b7160e01b600052603260045260246000fd5b9060005260206000209060020201600101541015611ac85782611ac0816126f0565b935050611a7d565b858281548110611ae857634e487b7160e01b600052603260045260246000fd5b906000526020600020906002020160010154811015611b135781611b0b816126d9565b925050611ac8565b818311611c3057858281548110611b3a57634e487b7160e01b600052603260045260246000fd5b9060005260206000209060020201868481548110611b6857634e487b7160e01b600052603260045260246000fd5b9060005260206000209060020201878581548110611b9657634e487b7160e01b600052603260045260246000fd5b90600052602060002090600202016000898681548110611bc657634e487b7160e01b600052603260045260246000fd5b60009182526020909120845460029092020180546001600160a01b039283166001600160a01b0319918216178255600195860154918601919091558554845492169116178255509181015491015582611c1e816126f0565b9350508180611c2c906126d9565b9250505b611a75565b81851015611c4857611c48868684611a0e565b8383101561187c5761187c868486611a0e565b505050565b6000611c6c6002611ebf565b905060005b81811015611ca8576000611c86600283611eca565b9050611c936002826115fe565b50508080611ca0906126f0565b915050611c71565b50436009556007805460ff19166001908117909155546040805163cf7e7b8d60e01b815290516001600160a01b039092169163cf7e7b8d916004818101926020929091908290030181600087803b158015611d0257600080fd5b505af1158015611d16573d6000803e3d6000fd5b505050506040513d601f19601f82011682018060405250810190611d3a9190612296565b60065550565b60008181526001830160205260408120548015611e53576000611d64600183612696565b8554909150600090611d7890600190612696565b9050818114611df9576000866000018281548110611da657634e487b7160e01b600052603260045260246000fd5b9060005260206000200154905080876000018481548110611dd757634e487b7160e01b600052603260045260246000fd5b6000918252602080832090910192909255918252600188019052604090208390555b8554869080611e1857634e487b7160e01b600052603160045260246000fd5b600190038181906000526020600020016000905590558560010160008681526020019081526020016000206000905560019350505050610977565b6000915050610977565b60009081526001919091016020526040902054151590565b6000611e818383611e5d565b611eb757508154600181810184556000848152602080822090930184905584548482528286019093526040902091909155610977565b506000610977565b600061097782611ed6565b60006116138383611eda565b5490565b6000826000018281548110611eff57634e487b7160e01b600052603260045260246000fd5b9060005260206000200154905092915050565b803561071c81612737565b600082601f830112611f2d578081fd5b81356020611f42611f3d8361263a565b612610565b82815281810190858301855b85811015611f7757611f65898684358b0101611f84565b84529284019290840190600101611f4e565b5090979650505050505050565b600082601f830112611f94578081fd5b813567ffffffffffffffff811115611fae57611fae612721565b611fc1601f8201601f1916602001612610565b818152846020838601011115611fd5578283fd5b816020850160208301379081016020019190915292915050565b600060208284031215612000578081fd5b813561161381612737565b6000806040838503121561201d578081fd5b823561202881612737565b9150602083013561203881612737565b809150509250929050565b60008060008060808587031215612058578182fd5b843561206381612737565b9350602085013561207381612737565b93969395505050506040820135916060013590565b6000806000806080858703121561209d578384fd5b84356120a881612737565b935060208581013567ffffffffffffffff808211156120c5578586fd5b818801915088601f8301126120d8578586fd5b81356120e6611f3d8261263a565b81815284810190848601868402860187018d101561210257898afd5b8995505b83861015612124578035835260019590950194918601918601612106565b5097505050604088013592508083111561213c578485fd5b505061214a87828801611f1d565b92505061215960608601611f12565b905092959194509250565b600080600060608486031215612178578283fd5b833561218381612737565b925060208401359150604084013561219a81612737565b809150509250925092565b6000602082840312156121b6578081fd5b81518015158114611613578182fd5b6000602082840312156121d6578081fd5b815161161381612737565b600080604083850312156121f3578182fd5b823567ffffffffffffffff811115612209578283fd5b61221585828601611f84565b925050602083013561203881612737565b60008060006060848603121561223a578283fd5b833567ffffffffffffffff811115612250578384fd5b61225c86828701611f84565b935050602084013561226d81612737565b929592945050506040919091013590565b60006020828403121561228f578081fd5b5035919050565b6000602082840312156122a7578081fd5b5051919050565b600080604083850312156122c0578182fd5b82359150602083013561203881612737565b6000806000606084860312156122e6578081fd5b83359250602084013561226d81612737565b6000806040838503121561230a578182fd5b50508035926020909101359150565b6000825161232b8184602087016126ad565b9190910192915050565b6b5055424c49435f53544f524560a01b8152600c0190565b6001600160a01b0391909116815260200190565b6001600160a01b039384168152919092166020820152604081019190915260600190565b6001600160a01b03929092168252602082015260400190565b901515815260200190565b6020808252600e908201526d616c72656164792061637469766560901b604082015260600190565b60208082526010908201526f3737ba1032b737bab3b4103a37b5b2b760811b604082015260600190565b60208082526010908201526f6e6f7420696e20766f74652074696d6560801b604082015260600190565b6020808252600990820152686e6f2061636365737360b81b604082015260600190565b6020808252600e908201526d1b9bdd08195b9bdd59da081c989d60921b604082015260600190565b6020808252600a90820152696e6f742061636365737360b01b604082015260600190565b60208082526012908201527111d3d588135554d5081050d512559055115160721b604082015260600190565b6020808252601d908201527f436f72655265663a2043616c6c6572206973206e6f74206120566f7465000000604082015260600190565b60208082526021908201527f436f72655265663a2043616c6c6572206973206e6f74206120676f7665726e6f6040820152603960f91b606082015260800190565b60208082526024908201527f5472616e7366657248656c7065723a205452414e534645525f46524f4d5f46416040820152631253115160e21b606082015260800190565b6020808252600b908201526a6e6f7420696e2074696d6560a81b604082015260600190565b6020808252601190820152706e6f7420656e6f7567682070656f706c6560781b604082015260600190565b90815260200190565b9687526001600160a01b03959095166020870152604086019390935290151560608501521515608084015260a083015260c082015260e00190565b60405181810167ffffffffffffffff8111828210171561263257612632612721565b604052919050565b600067ffffffffffffffff82111561265457612654612721565b5060209081020190565b600082198211156126715761267161270b565b500190565b60008261269157634e487b7160e01b81526012600452602481fd5b500490565b6000828210156126a8576126a861270b565b500390565b60005b838110156126c85781810151838201526020016126b0565b8381111561072d5750506000910152565b6000816126e8576126e861270b565b506000190190565b60006000198214156127045761270461270b565b5060010190565b634e487b7160e01b600052601160045260246000fd5b634e487b7160e01b600052604160045260246000fd5b6001600160a01b0381168114610e2957600080fdfea26469706673582212207e733bfd5ac263ec22c93e4ac8f75b040c2edb0392689d9a04ebd150cabe460464736f6c63430008000033a26469706673582212207346ca3180f7b4d38e63a7695a01c04ef60d540ed561bb934c95ee5418dc025c64736f6c63430008000033",
  "immutableReferences": {},
  "source": "// SPDX-License-Identifier: MIT\r\npragma solidity ^0.8.0;\r\n\r\nimport \"@openzeppelin/contracts/proxy/utils/Initializable.sol\";\r\n\r\n\r\nimport \"../gov/RBTCommunityCharitableFund.sol\";\r\nimport \"../gov/RBTCommunityGovernanceFund.sol\";\r\n\r\n\r\n\r\ncontract FourRBTCommunityOrchestrator is Initializable  {\r\n\r\n    address public RBTCommunityCharitableFundAddr;\r\n    address public RBTCommunityGovernanceFundAddr;\r\n\r\n\r\n    function init(address core,address voteIdAddr) external initializer {\r\n        RBTCommunityCharitableFundAddr = address(new RBTCommunityCharitableFund(core,voteIdAddr));\r\n        RBTCommunityGovernanceFundAddr = address(new RBTCommunityGovernanceFund(core,voteIdAddr));\r\n\r\n    }\r\n}",
  "sourcePath": "D://rainbow/RainbowDao-protocol/contracts/orchestrator/FourRBTCommunityOrchestrator.sol",
  "compiler": {
    "name": "solc",
    "version": "0.8.0+commit.c7dfd78e.Emscripten.clang"
  },
  "schemaVersion": "3.4.1",
  "updatedAt": "2021-10-16T03:51:57.745Z",
  "networkType": "ethereum",
  "devdoc": {
    "kind": "dev",
    "methods": {},
    "version": 1
  },
  "userdoc": {
    "kind": "user",
    "methods": {},
    "version": 1
  }
}