{
  "contractName": "FundManagement",
  "abi": [
    {
      "inputs": [
        {
          "internalType": "address",
          "name": "core",
          "type": "address"
        },
        {
          "internalType": "address",
          "name": "voteIdAddr",
          "type": "address"
        }
      ],
      "stateMutability": "nonpayable",
      "type": "constructor"
    },
    {
      "anonymous": false,
      "inputs": [
        {
          "indexed": true,
          "internalType": "address",
          "name": "_core",
          "type": "address"
        }
      ],
      "name": "CoreUpdate",
      "type": "event"
    },
    {
      "anonymous": false,
      "inputs": [
        {
          "indexed": true,
          "internalType": "uint256",
          "name": "id",
          "type": "uint256"
        },
        {
          "indexed": false,
          "internalType": "address",
          "name": "owner",
          "type": "address"
        },
        {
          "indexed": false,
          "internalType": "uint256",
          "name": "creationTime",
          "type": "uint256"
        }
      ],
      "name": "tokenProposalCreate",
      "type": "event"
    },
    {
      "inputs": [],
      "name": "Rbt",
      "outputs": [
        {
          "internalType": "contract IERC20",
          "name": "",
          "type": "address"
        }
      ],
      "stateMutability": "view",
      "type": "function"
    },
    {
      "inputs": [],
      "name": "RbtVote",
      "outputs": [
        {
          "internalType": "contract IRbtVote",
          "name": "",
          "type": "address"
        }
      ],
      "stateMutability": "view",
      "type": "function"
    },
    {
      "inputs": [],
      "name": "core",
      "outputs": [
        {
          "internalType": "contract ICore",
          "name": "",
          "type": "address"
        }
      ],
      "stateMutability": "view",
      "type": "function"
    },
    {
      "inputs": [
        {
          "internalType": "uint256",
          "name": "",
          "type": "uint256"
        }
      ],
      "name": "proposalFroms",
      "outputs": [
        {
          "internalType": "uint256",
          "name": "id",
          "type": "uint256"
        },
        {
          "internalType": "contract ICommunityGovernanceFund",
          "name": "cg",
          "type": "address"
        },
        {
          "internalType": "contract IParliament",
          "name": "ip",
          "type": "address"
        }
      ],
      "stateMutability": "view",
      "type": "function"
    },
    {
      "inputs": [
        {
          "internalType": "address",
          "name": "core",
          "type": "address"
        }
      ],
      "name": "setCore",
      "outputs": [],
      "stateMutability": "nonpayable",
      "type": "function"
    },
    {
      "inputs": [
        {
          "internalType": "uint256",
          "name": "",
          "type": "uint256"
        }
      ],
      "name": "tokenProposals",
      "outputs": [
        {
          "internalType": "uint256",
          "name": "id",
          "type": "uint256"
        },
        {
          "internalType": "address",
          "name": "owner",
          "type": "address"
        },
        {
          "internalType": "uint256",
          "name": "stage",
          "type": "uint256"
        },
        {
          "internalType": "uint256",
          "name": "day",
          "type": "uint256"
        },
        {
          "internalType": "uint256",
          "name": "depositType",
          "type": "uint256"
        },
        {
          "internalType": "uint256",
          "name": "applyAmount",
          "type": "uint256"
        },
        {
          "internalType": "uint256",
          "name": "depositAmount",
          "type": "uint256"
        },
        {
          "internalType": "uint256",
          "name": "voteId",
          "type": "uint256"
        },
        {
          "internalType": "uint256",
          "name": "opposeTickets",
          "type": "uint256"
        },
        {
          "internalType": "string",
          "name": "description",
          "type": "string"
        },
        {
          "internalType": "uint256",
          "name": "parliamentsAgree",
          "type": "uint256"
        },
        {
          "internalType": "uint256",
          "name": "creationTime",
          "type": "uint256"
        },
        {
          "internalType": "uint256",
          "name": "voteStartTime",
          "type": "uint256"
        }
      ],
      "stateMutability": "view",
      "type": "function"
    },
    {
      "inputs": [],
      "name": "voteIdAddress",
      "outputs": [
        {
          "internalType": "contract IVoteId",
          "name": "",
          "type": "address"
        }
      ],
      "stateMutability": "view",
      "type": "function"
    },
    {
      "inputs": [
        {
          "internalType": "address",
          "name": "addr",
          "type": "address"
        }
      ],
      "name": "setRbtVote",
      "outputs": [],
      "stateMutability": "nonpayable",
      "type": "function"
    },
    {
      "inputs": [
        {
          "internalType": "contract IParliament",
          "name": "ip",
          "type": "address"
        },
        {
          "internalType": "uint256",
          "name": "nodeId",
          "type": "uint256"
        },
        {
          "internalType": "uint256",
          "name": "stage",
          "type": "uint256"
        },
        {
          "internalType": "uint256",
          "name": "day",
          "type": "uint256"
        },
        {
          "internalType": "uint256",
          "name": "depositType",
          "type": "uint256"
        },
        {
          "internalType": "uint256",
          "name": "applyAmount",
          "type": "uint256"
        },
        {
          "internalType": "uint256",
          "name": "depositAmount",
          "type": "uint256"
        },
        {
          "internalType": "string",
          "name": "description",
          "type": "string"
        }
      ],
      "name": "applyToken",
      "outputs": [],
      "stateMutability": "nonpayable",
      "type": "function"
    },
    {
      "inputs": [
        {
          "internalType": "contract ICommunityGovernanceFund",
          "name": "cg",
          "type": "address"
        },
        {
          "internalType": "uint256",
          "name": "stage",
          "type": "uint256"
        },
        {
          "internalType": "uint256",
          "name": "day",
          "type": "uint256"
        },
        {
          "internalType": "uint256",
          "name": "depositType",
          "type": "uint256"
        },
        {
          "internalType": "uint256",
          "name": "applyAmount",
          "type": "uint256"
        },
        {
          "internalType": "uint256",
          "name": "depositAmount",
          "type": "uint256"
        },
        {
          "internalType": "string",
          "name": "description",
          "type": "string"
        }
      ],
      "name": "comGovApplyToken",
      "outputs": [],
      "stateMutability": "nonpayable",
      "type": "function"
    },
    {
      "inputs": [
        {
          "internalType": "uint256",
          "name": "id",
          "type": "uint256"
        },
        {
          "internalType": "uint256",
          "name": "stage",
          "type": "uint256"
        }
      ],
      "name": "parliamentsVoteProposal",
      "outputs": [],
      "stateMutability": "nonpayable",
      "type": "function"
    },
    {
      "inputs": [
        {
          "internalType": "uint256",
          "name": "id",
          "type": "uint256"
        },
        {
          "internalType": "uint256",
          "name": "tickets",
          "type": "uint256"
        }
      ],
      "name": "voteToProposal",
      "outputs": [],
      "stateMutability": "nonpayable",
      "type": "function"
    },
    {
      "inputs": [
        {
          "internalType": "uint256",
          "name": "id",
          "type": "uint256"
        },
        {
          "internalType": "uint256",
          "name": "stage",
          "type": "uint256"
        }
      ],
      "name": "receiveToken",
      "outputs": [
        {
          "internalType": "string[]",
          "name": "where",
          "type": "string[]"
        },
        {
          "internalType": "uint256[]",
          "name": "portion",
          "type": "uint256[]"
        }
      ],
      "stateMutability": "nonpayable",
      "type": "function"
    },
    {
      "inputs": [
        {
          "internalType": "uint256",
          "name": "id",
          "type": "uint256"
        },
        {
          "internalType": "uint256",
          "name": "stage",
          "type": "uint256"
        },
        {
          "internalType": "string",
          "name": "description",
          "type": "string"
        }
      ],
      "name": "submitReport",
      "outputs": [],
      "stateMutability": "nonpayable",
      "type": "function"
    }
  ],
  "bytecode": "0x60806040523480156200001157600080fd5b50604051620023bc380380620023bc833981016040819052620000349162000083565b600080546001600160a01b039384166001600160a01b03199182161790915560018054929093169116179055620000ba565b80516001600160a01b03811681146200007e57600080fd5b919050565b6000806040838503121562000096578182fd5b620000a18362000066565b9150620000b16020840162000066565b90509250929050565b6122f280620000ca6000396000f3fe608060405234801561001057600080fd5b50600436106100ea5760003560e01c8063800096301161008c578063f2f4eb2611610066578063f2f4eb26146101cc578063f4dfdde7146101d4578063f6a58568146101e7578063fed6b657146101fa576100ea565b806380009630146101a9578063964f3162146101bc57806399a723e4146101c4576100ea565b8063373f301d116100c8578063373f301d1461014e57806337702436146101705780633c708ada146101835780637bfcbf2a14610196576100ea565b8063135b54dd146100ef5780631d2396a81461010d5780632f126cdb14610122575b600080fd5b6100f761021b565b6040516101049190611df4565b60405180910390f35b61012061011b366004611b8c565b6102a7565b005b610135610130366004611c14565b610483565b6040516101049d9c9b9a999897969594939291906120ef565b61016161015c366004611c14565b610584565b6040516101049392919061216c565b61012061017e366004611cb0565b6105b1565b610120610191366004611af2565b61062e565b6101206101a4366004611cd1565b6107f6565b6101206101b7366004611a77565b6108d0565b6100f76109b4565b6100f76109c3565b6100f76109d2565b6101206101e2366004611a77565b6109e1565b6101206101f5366004611cb0565b610a9f565b61020d610208366004611cb0565b611253565b604051610104929190611e8e565b60008060009054906101000a90046001600160a01b03166001600160a01b03166318f7d8626040518163ffffffff1660e01b815260040160206040518083038186803b15801561026a57600080fd5b505afa15801561027e573d6000803e3d6000fd5b505050506040513d601f19601f820116820180604052508101906102a29190611b70565b905090565b600280549060006102b783612260565b919050555083600114156102d757816064146102d257600080fd5b610301565b8360021415610301576102f660646102f0856005611814565b90611827565b821461030157600080fd5b61031461030c61021b565b333085611833565b600280546000818152600660209081526040808320938455600180850180546001600160a01b031916331790559484018b90559354845163cf7e7b8d60e01b8152945193946001600160a01b03919091169363cf7e7b8d93600480840194938390030190829087803b15801561038957600080fd5b505af115801561039d573d6000803e3d6000fd5b505050506040513d601f19601f820116820180604052508101906103c19190611c2c565b60078201556003810186905560048101859055600581018490556006810183905581516103f79060098301906020850190611927565b506000600a820181905542600b830181905582548252600360205260408083208b9055835483529182902060020180546001600160a01b0319166001600160a01b038d16179055825491517f70bc1fc3e45f237df505833b9264758f7c5b494ffa8ed635464c310658e5d8a19161047091339190611e75565b60405180910390a2505050505050505050565b60066020528060005260406000206000915090508060000154908060010160009054906101000a90046001600160a01b0316908060020154908060030154908060040154908060050154908060060154908060070154908060080154908060090180546104ef90612225565b80601f016020809104026020016040519081016040528092919081815260200182805461051b90612225565b80156105685780601f1061053d57610100808354040283529160200191610568565b820191906000526020600020905b81548152906001019060200180831161054b57829003601f168201915b50505050509080600a01549080600b01549080600c015490508d565b60036020526000908152604090208054600182015460029092015490916001600160a01b03908116911683565b6000828152600660205260409020600c015442906105d29062093a8061218b565b1180156105f057506000828152600660205260409020600a01546007145b6105f957600080fd5b600082815260066020526040902060080154610615908261191b565b6000928352600660205260409092206008019190915550565b6002805490600061063e83612260565b9190505550836001141561065e578160641461065957600080fd5b610682565b83600214156106825761067760646102f0856005611814565b821461068257600080fd5b61068d61030c61021b565b6002805460008181526006602081815260409092209283556001830180546001600160a01b03191633179055928201899055600382018890556004820187905560058201869055918101849055825190916106ef916009840191850190611927565b506000600a820181905542600b8301556001546040805163cf7e7b8d60e01b815290516001600160a01b039092169263cf7e7b8d926004808401936020939083900390910190829087803b15801561074657600080fd5b505af115801561075a573d6000803e3d6000fd5b505050506040513d601f19601f8201168201806040525081019061077e9190611c2c565b600782015580546000908152600360205260409081902060010180546001600160a01b0319166001600160a01b038b16179055815490517f70bc1fc3e45f237df505833b9264758f7c5b494ffa8ed635464c310658e5d8a1906107e49033904290611e75565b60405180910390a25050505050505050565b60008211801561081757506000838152600660205260409020600201548211155b61082057600080fd5b6000838152600660209081526040808320858452600d0190915290206002015460ff6101009091041615156001146108735760405162461bcd60e51b815260040161086a90611ebc565b60405180910390fd5b6000838152600660209081526040808320858452600d01825290912082516108a392600590920191840190611927565b50506000918252600660209081526040808420928452600d90920190529020600201805461ff0019169055565b600054604051631c86b03760e31b81526001600160a01b039091169063e43581b890610900903390600401611df4565b60206040518083038186803b15801561091857600080fd5b505afa15801561092c573d6000803e3d6000fd5b505050506040513d601f19601f820116820180604052508101906109509190611a93565b61096c5760405162461bcd60e51b815260040161086a90612025565b600080546001600160a01b0319166001600160a01b038316908117825560405190917fad9400e618eb1344fde53db22397a1b82c765527ecbba3a5c86bcac15090828b91a250565b6004546001600160a01b031681565b6001546001600160a01b031681565b6000546001600160a01b031690565b600054604051631c86b03760e31b81526001600160a01b039091169063e43581b890610a11903390600401611df4565b60206040518083038186803b158015610a2957600080fd5b505afa158015610a3d573d6000803e3d6000fd5b505050506040513d601f19601f82011682018060405250810190610a619190611a93565b610a7d5760405162461bcd60e51b815260040161086a90612025565b600480546001600160a01b0319166001600160a01b0392909216919091179055565b600082815260036020526040812054908115610c075760008481526003602052604080822060020154905163249a40cd60e01b81526001600160a01b0390911691908190839063249a40cd90610af99088906004016120cf565b60806040518083038186803b158015610b1157600080fd5b505afa158015610b25573d6000803e3d6000fd5b505050506040513d601f19601f82011682018060405250810190610b499190611aad565b604051633068e23760e11b815291955093506001600160a01b03861692506360d1c46e9150610b7e90889033906004016120d8565b60206040518083038186803b158015610b9657600080fd5b505afa158015610baa573d6000803e3d6000fd5b505050506040513d601f19601f82011682018060405250810190610bce9190611a93565b80610be157506001600160a01b03821633145b610bfd5760405162461bcd60e51b815260040161086a90611f93565b9250610d50915050565b60008481526003602052604080822060010154815163105f631560e11b815291516001600160a01b039091169291829184916320bec62a9160048083019260e092919082900301818787803b158015610c5f57600080fd5b505af1158015610c73573d6000803e3d6000fd5b505050506040513d601f19601f82011682018060405250810190610c979190611c44565b505050509250925050826001600160a01b03166387ea947b336040518263ffffffff1660e01b8152600401610ccc9190611df4565b60206040518083038186803b158015610ce457600080fd5b505afa158015610cf8573d6000803e3d6000fd5b505050506040513d601f19601f82011682018060405250810190610d1c9190611a93565b80610d2f57506001600160a01b03821633145b610d4b5760405162461bcd60e51b815260040161086a90611f93565b925050505b600084815260066020526040902060020154831115610d815760405162461bcd60e51b815260040161086a90611ef3565b6000848152600560209081526040808320868452825280832033845260010190915290205460ff1615610dc65760405162461bcd60e51b815260040161086a90611f74565b60008481526005602090815260408083208684528083528184203380865260018281018652938620805460ff1916851790559184528054928301815584529190922090910180546001600160a01b031916909117905582610f0a576000848152600660205260409020600b0154610e40906203f48061218b565b4210610e5e5760405162461bcd60e51b815260040161086a906120aa565b6000848152600660205260408120600a01805491610e7b83612260565b90915550506000848152600660205260409020600a015460071415610ed35760008490526006602052610eb14262093a8061218b565b600085815260066020908152604080832060018452600d019091529020600301555b6000848152600660205260409020600a015460071015610f055760405162461bcd60e51b815260040161086a90611fb6565b61124d565b600480546040516342a422e960e11b81526000926001600160a01b039092169163854845d291610f3c918691016120cf565b60206040518083038186803b158015610f5457600080fd5b505afa158015610f68573d6000803e3d6000fd5b505050506040513d601f19601f82011682018060405250810190610f8c9190611c2c565b90508360011415610ff8576000858152600660205260409020600a01546007148015610fd75750610fc360646102f083601e611814565b600086815260066020526040902060080154105b610ff35760405162461bcd60e51b815260040161086a90611f19565b611090565b6000858152600660205260408120600791600d9091019061101a6001886121e2565b81526020019081526020016000206001015410801561107457506000858152600660205260408120600d01906110516001876121e2565b8152602001908152602001600020600301546203f480611071919061218b565b42115b6110905760405162461bcd60e51b815260040161086a90612014565b6000858152600660209081526040808320878452600d0190915281206001018054916110bb83612260565b90915550506000858152600660209081526040808320878452600d019091529020600101546007141561124b576000858152600660209081526040808320878452600d01909152902060040154600310156111285760405162461bcd60e51b815260040161086a90611f50565b6000858152600660209081526040808320878452600d0190915281206001810182905560040180549161115a83612260565b90915550506000858152600660209081526040808320878452600d018252808320600201805461ff00191661010017905587835260058252808320878452909152812054905b818110156112265760008781526005602090815260408083208984529091528120805460018201929190849081106111e857634e487b7160e01b600052603260045260246000fd5b60009182526020808320909101546001600160a01b031683528201929092526040019020805460ff191690558061121e81612260565b9150506111a0565b5060008681526005602090815260408083208884529091528120611249916119ab565b505b505b50505050565b60608060008311801561127757506000848152600660205260409020600201548311155b6112935760405162461bcd60e51b815260040161086a90611ef3565b6000848152600660205260409020600101546001600160a01b031633146112b957600080fd5b6000848152600660209081526040808320868452600d0190915290206002015460ff16156112f95760405162461bcd60e51b815260040161086a90611fe6565b6000848152600360205260408120549081156113b15760008681526003602052604080822060020154905163249a40cd60e01b81526001600160a01b0390911691908190839063249a40cd906113539088906004016120cf565b60806040518083038186803b15801561136b57600080fd5b505afa15801561137f573d6000803e3d6000fd5b505050506040513d601f19601f820116820180604052508101906113a39190611aad565b965061144e95505050505050565b60008681526003602052604080822060010154815163105f631560e11b815291516001600160a01b039091169291829184916320bec62a9160048083019260e092919082900301818787803b15801561140957600080fd5b505af115801561141d573d6000803e3d6000fd5b505050506040513d601f19601f820116820180604052508101906114419190611c44565b5092985050505050505050505b846001141561156957600480546040516342a422e960e11b81526000926001600160a01b039092169163854845d291611489918691016120cf565b60206040518083038186803b1580156114a157600080fd5b505afa1580156114b5573d6000803e3d6000fd5b505050506040513d601f19601f820116820180604052508101906114d99190611c2c565b6000888152600660205260409020600b01549091506114fb906203f48061218b565b42106115195760405162461bcd60e51b815260040161086a906120aa565b6000878152600660205260409020600a015460071461153757600080fd5b61154760646102f083601e611814565b6000888152600660205260409020600801541061156357600080fd5b506115f2565b6000868152600660205260408120600791600d9091019061158b6001896121e2565b8152602001908152602001600020600101541080156115e957506000868152600660205260408120600381015442929091600d01906115cb60018a6121e2565b8152602001908152602001600020600301546115e7919061218b565b105b6115f257600080fd5b6000868152600660209081526040808320888452600d0190915290206002018054610100600160ff19909216821761ff0019161790915561163490869061218b565b600087815260066020526040902060020154106116815760008681526006602052604081204291600d9091019061166c88600161218b565b81526020810191909152604001600020600301555b604080516001808252818301909252600091816020015b606081526020019060019003908161169857505060408051600180825281830190925291925060009190602080830190803683370190505090506040518060400160405280600c81526020016b5055424c49435f53544f524560a01b8152508260008151811061171857634e487b7160e01b600052603260045260246000fd5b6020908102919091018101919091526000898152600690915260409020600281015460059091015461174991611827565b8160008151811061176a57634e487b7160e01b600052603260045260246000fd5b6020908102919091010152831561178a5760008890526003602052611809565b6000888152600360205260409020600101546001600160a01b0316806350c7f5a13384866117b661021b565b6040518563ffffffff1660e01b81526004016117d59493929190611e2c565b600060405180830381600087803b1580156117ef57600080fd5b505af1158015611803573d6000803e3d6000fd5b50505050505b505050509250929050565b600061182082846121c3565b9392505050565b600061182082846121a3565b600080856001600160a01b03166323b872dd86868660405160240161185a93929190611e08565b6040516020818303038152906040529060e01b6020820180516001600160e01b0383818316178352505050506040516118939190611dd8565b6000604051808303816000865af19150503d80600081146118d0576040519150601f19603f3d011682016040523d82523d6000602084013e6118d5565b606091505b50915091508180156118ff5750805115806118ff5750808060200190518101906118ff9190611a93565b6112495760405162461bcd60e51b815260040161086a90612066565b6000611820828461218b565b82805461193390612225565b90600052602060002090601f016020900481019282611955576000855561199b565b82601f1061196e57805160ff191683800117855561199b565b8280016001018555821561199b579182015b8281111561199b578251825591602001919060010190611980565b506119a79291506119cc565b5090565b50805460008255906000526020600020908101906119c991906119cc565b50565b5b808211156119a757600081556001016119cd565b805180151581146119f157600080fd5b919050565b600082601f830112611a06578081fd5b813567ffffffffffffffff80821115611a2157611a21612291565b604051601f8301601f191681016020018281118282101715611a4557611a45612291565b604052828152848301602001861015611a5c578384fd5b82602086016020830137918201602001929092529392505050565b600060208284031215611a88578081fd5b8135611820816122a7565b600060208284031215611aa4578081fd5b611820826119e1565b60008060008060808587031215611ac2578283fd5b611acb856119e1565b9350602085015192506040850151611ae2816122a7565b6060959095015193969295505050565b600080600080600080600060e0888a031215611b0c578283fd5b8735611b17816122a7565b96506020880135955060408801359450606088013593506080880135925060a0880135915060c088013567ffffffffffffffff811115611b55578182fd5b611b618a828b016119f6565b91505092959891949750929550565b600060208284031215611b81578081fd5b8151611820816122a7565b600080600080600080600080610100898b031215611ba8578081fd5b8835611bb3816122a7565b97506020890135965060408901359550606089013594506080890135935060a0890135925060c0890135915060e089013567ffffffffffffffff811115611bf8578182fd5b611c048b828c016119f6565b9150509295985092959890939650565b600060208284031215611c25578081fd5b5035919050565b600060208284031215611c3d578081fd5b5051919050565b600080600080600080600060e0888a031215611c5e578283fd5b875196506020880151611c70816122a7565b60408901519096509450611c86606089016119e1565b9350611c94608089016119e1565b925060a0880151915060c0880151905092959891949750929550565b60008060408385031215611cc2578081fd5b50508035926020909101359150565b600080600060608486031215611ce5578081fd5b8335925060208401359150604084013567ffffffffffffffff811115611d09578182fd5b611d15868287016119f6565b9150509250925092565b6000815180845260208085018081965082840281019150828601855b85811015611d65578284038952611d53848351611dac565b98850198935090840190600101611d3b565b5091979650505050505050565b6000815180845260208085019450808401835b83811015611da157815187529582019590820190600101611d85565b509495945050505050565b60008151808452611dc48160208601602086016121f9565b601f01601f19169290920160200192915050565b60008251611dea8184602087016121f9565b9190910192915050565b6001600160a01b0391909116815260200190565b6001600160a01b039384168152919092166020820152604081019190915260600190565b600060018060a01b03808716835260806020840152611e4e6080840187611d72565b8381036040850152611e608187611d1f565b92505080841660608401525095945050505050565b6001600160a01b03929092168252602082015260400190565b600060408252611ea16040830185611d1f565b8281036020840152611eb38185611d72565b95945050505050565b6020808252601a908201527f43616e6e6f74207375626d697420617420746869732074696d65000000000000604082015260600190565b6020808252600c908201526b6e6f7420696e20737461676560a01b604082015260600190565b6020808252601a908201527f70726576207374616765206973206e6f742066696e6973686564000000000000604082015260600190565b6020808252600a9082015269206e6f206368616e636560b01b604082015260600190565b6020808252600590820152641d9bdd195960da1b604082015260600190565b6020808252600990820152686e6f2061636365737360b81b604082015260600190565b6020808252601690820152751d1a1a5cc81c1c9bdc1bdcd85b081a5cc818591bdc1d60521b604082015260600190565b6020808252601490820152736e6f2061636365737320746f207265636569766560601b604082015260600190565b602080825260009082015260400190565b60208082526021908201527f436f72655265663a2043616c6c6572206973206e6f74206120676f7665726e6f6040820152603960f91b606082015260800190565b60208082526024908201527f5472616e7366657248656c7065723a205452414e534645525f46524f4d5f46416040820152631253115160e21b606082015260800190565b6020808252600b908201526a6e6f7420696e2074696d6560a81b604082015260600190565b90815260200190565b9182526001600160a01b0316602082015260400190565b60006101a08f835260018060a01b038f1660208401528d60408401528c60608401528b60808401528a60a08401528960c08401528860e0840152876101008401528061012084015261214381840188611dac565b6101408401969096525050610160810192909252610180909101529a9950505050505050505050565b9283526001600160a01b03918216602084015216604082015260600190565b6000821982111561219e5761219e61227b565b500190565b6000826121be57634e487b7160e01b81526012600452602481fd5b500490565b60008160001904831182151516156121dd576121dd61227b565b500290565b6000828210156121f4576121f461227b565b500390565b60005b838110156122145781810151838201526020016121fc565b8381111561124d5750506000910152565b60028104600182168061223957607f821691505b6020821081141561225a57634e487b7160e01b600052602260045260246000fd5b50919050565b60006000198214156122745761227461227b565b5060010190565b634e487b7160e01b600052601160045260246000fd5b634e487b7160e01b600052604160045260246000fd5b6001600160a01b03811681146119c957600080fdfea2646970667358221220fab7ececf67331a3da39a87898713f6abedd25d4db843329e94b8374fb7d34fb64736f6c63430008000033",
  "immutableReferences": {},
  "source": "pragma solidity ^0.8.0;\r\nimport '@openzeppelin/contracts/utils/math/SafeMath.sol';\r\nimport \"../lib/TransferHelper.sol\";\r\nimport '../ref/CoreRef.sol';\r\nimport '../ref/VoteIdRef.sol';\r\nimport '../interface/gov/IParliament.sol';\r\nimport '../interface/gov/ICommunityGovernanceFund.sol';\r\nimport '../interface/gov/IFundManagement.sol';\r\nimport '../interface/IRbtVote.sol';\r\ncontract FundManagement is CoreRef,VoteIdRef,IFundManagement{\r\n\r\n    using SafeMath for uint256;\r\n    uint tokenProposalCount;\r\n    struct tokenProposal{\r\n        uint id;\r\n        address owner;\r\n        uint stage;\r\n        uint day;\r\n        uint depositType;\r\n        uint applyAmount;\r\n        uint depositAmount;\r\n        uint voteId;\r\n        uint opposeTickets;\r\n        string  description;\r\n        uint parliamentsAgree;\r\n        uint creationTime;\r\n        uint voteStartTime;\r\n        mapping(uint => stageDetails) everyStageDetails;\r\n    }\r\n    struct parliamentsVoteRecord{\r\n        address[]  parliaments;\r\n        mapping(address => bool) parliamentsVoted;\r\n    }\r\n    \r\n    struct proposalFrom{\r\n        uint id;\r\n        ICommunityGovernanceFund cg;\r\n        IParliament ip;\r\n    }\r\n    mapping(uint => proposalFrom) public  proposalFroms;\r\n\r\n    IRbtVote public RbtVote;\r\n    //id id  \r\n    mapping(uint =>mapping(uint => parliamentsVoteRecord) ) private  parliamentsVote;\r\n    struct stageDetails {\r\n        bool start;\r\n        uint oppose;\r\n        bool received;//\r\n        bool canSubmit; //\r\n        uint startTime;\r\n        uint againSecond; //\r\n        string  description;\r\n        //        mapping(address=>bool) parliamentsVote;\r\n    }\r\n    mapping(uint => tokenProposal) public tokenProposals;\r\n\r\n    event tokenProposalCreate(uint indexed id,address owner,uint creationTime);\r\n\r\n\r\n    constructor(address core,address voteIdAddr)   CoreRef(core)  VoteIdRef(voteIdAddr) {}\r\n\r\n    function setRbtVote(address addr) public  onlyGovernor() {\r\n        RbtVote = IRbtVote(addr);\r\n    }\r\n\r\n\r\n    /*\r\n       @dev \r\n       @params tokenProposal\r\n\r\n   */\r\n    function applyToken(IParliament ip,uint nodeId,uint stage,uint day ,uint depositType,uint applyAmount,uint depositAmount,string memory description) public  {\r\n        tokenProposalCount++;\r\n        if(depositType == 1){\r\n            require(depositAmount == 100);\r\n        }else if(depositType == 2) {\r\n            require(depositAmount == applyAmount.mul(5).div(100));\r\n        }\r\n\r\n        TransferHelper.safeTransferFrom(address(Rbt()),msg.sender,address(this),depositAmount);\r\n        tokenProposal storage c = tokenProposals[tokenProposalCount];\r\n        c.id = tokenProposalCount;\r\n        c.owner = msg.sender;\r\n        c.stage = stage;\r\n        c.voteId = IVoteId(voteIdAddress).incrVoteId();\r\n        c.day = day;\r\n        c.depositType = depositType;\r\n        c.applyAmount = applyAmount;\r\n        c.depositAmount = depositAmount;\r\n        c.description = description;\r\n        c.parliamentsAgree = 0 ;\r\n        c.creationTime = block.timestamp;\r\n        proposalFroms[c.id].id = nodeId;\r\n        proposalFroms[c.id].ip = ip;\r\n        emit tokenProposalCreate(c.id,msg.sender,block.timestamp);\r\n    }\r\n\r\n    /*\r\n           @dev \r\n           @params tokenProposal\r\n\r\n       */\r\n    function comGovApplyToken(ICommunityGovernanceFund cg,uint stage,uint day ,uint depositType,uint applyAmount,uint depositAmount,string memory description) public {\r\n        tokenProposalCount++;\r\n        if(depositType == 1){\r\n            require(depositAmount == 100);\r\n        }else if(depositType == 2) {\r\n            require(depositAmount == applyAmount.mul(5).div(100));\r\n        }\r\n        TransferHelper.safeTransferFrom(address(Rbt()),msg.sender,address(this),depositAmount);\r\n        tokenProposal storage c = tokenProposals[tokenProposalCount];\r\n        c.id = tokenProposalCount;\r\n        c.owner = msg.sender;\r\n        c.stage = stage;\r\n        c.day = day;\r\n        c.depositType = depositType;\r\n        c.applyAmount = applyAmount;\r\n        c.depositAmount = depositAmount;\r\n        c.description = description;\r\n        c.parliamentsAgree = 0 ;\r\n        c.creationTime = block.timestamp;\r\n        c.voteId = IVoteId(voteIdAddress).incrVoteId();\r\n        proposalFroms[c.id].cg = cg;\r\n        emit tokenProposalCreate(c.id,msg.sender,block.timestamp);\r\n    }\r\n\r\n    /*\r\n          @dev \r\n          @params nodeId id\r\n          @params id id\r\n          @params stage \r\n      */\r\n    function parliamentsVoteProposal(uint id,uint stage) external override  {\r\n        uint nodeId = proposalFroms[id].id;\r\n        uint voteId = 0;\r\n        if(nodeId != 0) {\r\n            IParliament ip = proposalFroms[id].ip;\r\n            (, ,address manager , uint voteIdFrom ) = ip.getCityNodeInfo(nodeId);\r\n            require(ip.hasParliament(nodeId,msg.sender) || manager == msg.sender,'no access');\r\n            voteId = voteIdFrom;\r\n        }else{\r\n            ICommunityGovernanceFund cg = proposalFroms[id].cg;\r\n            (,address manager,uint voteIdFrom ,,,,)= cg.cgInfo();\r\n            require(cg.hasParliament(msg.sender) || manager == msg.sender,'no access');\r\n            voteId = voteIdFrom;\r\n        }\r\n\r\n        require(stage>=0 && stage<=tokenProposals[id].stage,'not in stage');\r\n\r\n        require(parliamentsVote[id][stage].parliamentsVoted[msg.sender] == false,'voted');\r\n        parliamentsVote[id][stage].parliamentsVoted[msg.sender] = true;\r\n        parliamentsVote[id][stage].parliaments.push(msg.sender);\r\n        if(stage == 0) {\r\n            require(block.timestamp < tokenProposals[id].creationTime + 3 days ,'not in time');\r\n            tokenProposals[id].parliamentsAgree++;\r\n            if(tokenProposals[id].parliamentsAgree == 7) {\r\n                tokenProposals[id].voteStartTime == block.timestamp;\r\n                tokenProposals[id].everyStageDetails[1].startTime = block.timestamp + 7 days;\r\n            }\r\n            require(tokenProposals[id].parliamentsAgree <= 7 ,'this proposal is adopt');\r\n        } else {\r\n            uint  allticket = RbtVote.getDelegateVote(voteId);\r\n//            uint allticket = 100;\r\n            if(stage == 1) {\r\n                require(tokenProposals[id].parliamentsAgree == 7 && tokenProposals[id].opposeTickets < allticket.mul(30).div(100),'prev stage is not finished');\r\n            }else{\r\n                require(tokenProposals[id].everyStageDetails[stage-1].oppose < 7 &&\r\n                    block.timestamp > tokenProposals[id].everyStageDetails[stage-1].startTime + 3 days,'');\r\n            }\r\n            tokenProposals[id].everyStageDetails[stage].oppose++;\r\n            if(tokenProposals[id].everyStageDetails[stage].oppose == 7) {\r\n                //\r\n                require(tokenProposals[id].everyStageDetails[stage].againSecond <= 3 ,' no chance');\r\n                tokenProposals[id].everyStageDetails[stage].oppose = 0;\r\n                tokenProposals[id].everyStageDetails[stage].againSecond++;\r\n                tokenProposals[id].everyStageDetails[stage].canSubmit = true;\r\n\r\n                uint voteLength = parliamentsVote[id][stage].parliaments.length;\r\n                for(uint i = 0; i< voteLength;i++){\r\n                    delete parliamentsVote[id][stage].parliamentsVoted[parliamentsVote[id][stage].parliaments[i]];\r\n                }\r\n                delete parliamentsVote[id][stage].parliaments;\r\n            }\r\n        }\r\n    }\r\n\r\n    /*\r\n      @dev \r\n      @params id id\r\n      @params tickets \r\n    */\r\n    function voteToProposal(uint id,uint tickets) public  {\r\n        require(tokenProposals[id].voteStartTime + 7 days > block.timestamp && tokenProposals[id].parliamentsAgree == 7);\r\n        tokenProposals[id].opposeTickets = tokenProposals[id].opposeTickets.add(tickets);\r\n    }\r\n\r\n\r\n    /*\r\n          @dev \r\n      @params id id\r\n      @params tickets \r\n    */\r\n\r\n    function receiveToken(uint id,uint stage) external override returns(string[] memory where,uint[] memory portion )  {\r\n        require(stage>0 && stage<=tokenProposals[id].stage,'not in stage');\r\n        require(tokenProposals[id].owner == msg.sender);\r\n        require(tokenProposals[id].everyStageDetails[stage].received == false,'no access to receive');\r\n\r\n        uint nodeId = proposalFroms[id].id;\r\n        uint voteId = 0;\r\n        if(nodeId != 0) {\r\n            IParliament ip = proposalFroms[id].ip;\r\n            (, ,address manager , uint voteIdFrom ) = ip.getCityNodeInfo(nodeId);\r\n            voteId = voteIdFrom;\r\n        }else{\r\n            ICommunityGovernanceFund cg = proposalFroms[id].cg;\r\n            (,address manager,uint voteIdFrom ,,,,)= cg.cgInfo();\r\n            voteId = voteIdFrom;\r\n        }\r\n        if(stage == 1) {\r\n            uint  allticket = RbtVote.getDelegateVote(voteId);\r\n//            uint allticket = 100;\r\n            require(block.timestamp < tokenProposals[id].creationTime + 3 days ,'not in time');\r\n            require(tokenProposals[id].parliamentsAgree == 7);\r\n            require(tokenProposals[id].opposeTickets < allticket.mul(30).div(100));\r\n        }else {\r\n            require(tokenProposals[id].everyStageDetails[stage -1].oppose < 7 && tokenProposals[id].everyStageDetails[stage - 1].startTime + tokenProposals[id].day < block.timestamp);\r\n        }\r\n\r\n        tokenProposals[id].everyStageDetails[stage].received = true;\r\n        tokenProposals[id].everyStageDetails[stage].canSubmit = true;\r\n        if(tokenProposals[id].stage >= stage + 1) {\r\n            tokenProposals[id].everyStageDetails[stage+1].startTime = block.timestamp;\r\n        }\r\n        string[] memory where = new string[](1);\r\n        uint[] memory portion = new uint[](1);\r\n        where[0] = 'PUBLIC_STORE';\r\n        portion[0] = tokenProposals[id].applyAmount.div(tokenProposals[id].stage);\r\n\r\n        if(nodeId != 0) {\r\n            IParliament ip = proposalFroms[id].ip;\r\n        }else{\r\n            ICommunityGovernanceFund cg = proposalFroms[id].cg;\r\n            cg.applyTokenExtract(msg.sender,portion,where,address(Rbt()));\r\n        }\r\n    }\r\n\r\n    /*\r\n        @dev \r\n        @params \r\n        @params\r\n    */\r\n    function submitReport(uint id,uint stage,string memory description) public {\r\n        require(stage > 0 && stage <= tokenProposals[id].stage);\r\n        require(tokenProposals[id].everyStageDetails[stage].canSubmit == true , 'Cannot submit at this time');\r\n        tokenProposals[id].everyStageDetails[stage].description = description;\r\n        tokenProposals[id].everyStageDetails[stage].canSubmit = false;\r\n    }\r\n}\r\n",
  "sourcePath": "D://rainbow/RainbowDao-protocol/contracts/gov/FundManagement.sol",
  "compiler": {
    "name": "solc",
    "version": "0.8.0+commit.c7dfd78e.Emscripten.clang"
  },
  "schemaVersion": "3.4.1",
  "updatedAt": "2021-10-16T03:51:57.768Z",
  "networkType": "ethereum",
  "devdoc": {
    "kind": "dev",
    "methods": {
      "Rbt()": {
        "returns": {
          "_0": "IFei implementation address"
        }
      },
      "core()": {
        "returns": {
          "_0": "ICore implementation address"
        }
      }
    },
    "version": 1
  },
  "userdoc": {
    "kind": "user",
    "methods": {
      "Rbt()": {
        "notice": "address of the Fei contract referenced by Core"
      },
      "core()": {
        "notice": "address of the Core contract referenced"
      }
    },
    "version": 1
  }
}