{
  "contractName": "GlobalGovernanceCommittee",
  "abi": [
    {
      "inputs": [
        {
          "internalType": "address",
          "name": "core",
          "type": "address"
        },
        {
          "internalType": "address",
          "name": "voteIdAddr",
          "type": "address"
        },
        {
          "internalType": "address",
          "name": "areaGov",
          "type": "address"
        }
      ],
      "stateMutability": "nonpayable",
      "type": "constructor"
    },
    {
      "anonymous": false,
      "inputs": [
        {
          "indexed": true,
          "internalType": "address",
          "name": "_core",
          "type": "address"
        }
      ],
      "name": "CoreUpdate",
      "type": "event"
    },
    {
      "inputs": [],
      "name": "Rbt",
      "outputs": [
        {
          "internalType": "contract IERC20",
          "name": "",
          "type": "address"
        }
      ],
      "stateMutability": "view",
      "type": "function"
    },
    {
      "inputs": [],
      "name": "activeToParliaments",
      "outputs": [],
      "stateMutability": "nonpayable",
      "type": "function"
    },
    {
      "inputs": [
        {
          "internalType": "string",
          "name": "store",
          "type": "string"
        },
        {
          "internalType": "address",
          "name": "token",
          "type": "address"
        },
        {
          "internalType": "uint256",
          "name": "amount",
          "type": "uint256"
        }
      ],
      "name": "addTokenStorage",
      "outputs": [],
      "stateMutability": "nonpayable",
      "type": "function"
    },
    {
      "inputs": [],
      "name": "applyParliament",
      "outputs": [],
      "stateMutability": "nonpayable",
      "type": "function"
    },
    {
      "inputs": [
        {
          "internalType": "address",
          "name": "receiver",
          "type": "address"
        },
        {
          "internalType": "uint256[]",
          "name": "portion",
          "type": "uint256[]"
        },
        {
          "internalType": "string[]",
          "name": "where",
          "type": "string[]"
        },
        {
          "internalType": "address",
          "name": "token",
          "type": "address"
        }
      ],
      "name": "applyTokenExtract",
      "outputs": [],
      "stateMutability": "nonpayable",
      "type": "function"
    },
    {
      "inputs": [],
      "name": "area",
      "outputs": [
        {
          "internalType": "address",
          "name": "",
          "type": "address"
        }
      ],
      "stateMutability": "view",
      "type": "function"
    },
    {
      "inputs": [],
      "name": "cgInfo",
      "outputs": [
        {
          "internalType": "uint256",
          "name": "expireTime",
          "type": "uint256"
        },
        {
          "internalType": "address",
          "name": "manager",
          "type": "address"
        },
        {
          "internalType": "uint256",
          "name": "voteId",
          "type": "uint256"
        },
        {
          "internalType": "bool",
          "name": "votePeriod",
          "type": "bool"
        },
        {
          "internalType": "bool",
          "name": "active",
          "type": "bool"
        },
        {
          "internalType": "uint256",
          "name": "impeachIndex",
          "type": "uint256"
        },
        {
          "internalType": "uint256",
          "name": "proposalBlockNumber",
          "type": "uint256"
        }
      ],
      "stateMutability": "view",
      "type": "function"
    },
    {
      "inputs": [],
      "name": "core",
      "outputs": [
        {
          "internalType": "contract ICore",
          "name": "",
          "type": "address"
        }
      ],
      "stateMutability": "view",
      "type": "function"
    },
    {
      "inputs": [],
      "name": "endToParliament",
      "outputs": [],
      "stateMutability": "nonpayable",
      "type": "function"
    },
    {
      "inputs": [],
      "name": "getApplyParliamentVoteId",
      "outputs": [
        {
          "internalType": "uint256",
          "name": "",
          "type": "uint256"
        }
      ],
      "stateMutability": "view",
      "type": "function"
    },
    {
      "inputs": [
        {
          "internalType": "uint256",
          "name": "id",
          "type": "uint256"
        }
      ],
      "name": "getBlockNumber",
      "outputs": [
        {
          "internalType": "uint256",
          "name": "",
          "type": "uint256"
        }
      ],
      "stateMutability": "view",
      "type": "function"
    },
    {
      "inputs": [
        {
          "internalType": "address",
          "name": "user",
          "type": "address"
        },
        {
          "internalType": "address",
          "name": "token",
          "type": "address"
        }
      ],
      "name": "getUserReward",
      "outputs": [
        {
          "internalType": "uint256",
          "name": "",
          "type": "uint256"
        }
      ],
      "stateMutability": "view",
      "type": "function"
    },
    {
      "inputs": [
        {
          "internalType": "address",
          "name": "user",
          "type": "address"
        }
      ],
      "name": "hasParliament",
      "outputs": [
        {
          "internalType": "bool",
          "name": "",
          "type": "bool"
        }
      ],
      "stateMutability": "view",
      "type": "function"
    },
    {
      "inputs": [
        {
          "internalType": "address",
          "name": "token",
          "type": "address"
        },
        {
          "internalType": "uint256",
          "name": "amount",
          "type": "uint256"
        },
        {
          "internalType": "address",
          "name": "receiver",
          "type": "address"
        }
      ],
      "name": "impeachExtract",
      "outputs": [],
      "stateMutability": "nonpayable",
      "type": "function"
    },
    {
      "inputs": [
        {
          "internalType": "address",
          "name": "",
          "type": "address"
        },
        {
          "internalType": "address",
          "name": "",
          "type": "address"
        }
      ],
      "name": "managerAndParliamentsReward",
      "outputs": [
        {
          "internalType": "uint256",
          "name": "",
          "type": "uint256"
        }
      ],
      "stateMutability": "view",
      "type": "function"
    },
    {
      "inputs": [
        {
          "internalType": "uint256",
          "name": "",
          "type": "uint256"
        },
        {
          "internalType": "uint256",
          "name": "",
          "type": "uint256"
        }
      ],
      "name": "parliamentApplyRecords",
      "outputs": [
        {
          "internalType": "address",
          "name": "account",
          "type": "address"
        },
        {
          "internalType": "uint256",
          "name": "tickets",
          "type": "uint256"
        }
      ],
      "stateMutability": "view",
      "type": "function"
    },
    {
      "inputs": [],
      "name": "parliamentTakeOffice",
      "outputs": [],
      "stateMutability": "nonpayable",
      "type": "function"
    },
    {
      "inputs": [
        {
          "internalType": "uint256",
          "name": "",
          "type": "uint256"
        },
        {
          "internalType": "address",
          "name": "",
          "type": "address"
        }
      ],
      "name": "parliamentUp",
      "outputs": [
        {
          "internalType": "bool",
          "name": "",
          "type": "bool"
        }
      ],
      "stateMutability": "view",
      "type": "function"
    },
    {
      "inputs": [
        {
          "internalType": "address",
          "name": "user",
          "type": "address"
        }
      ],
      "name": "removeParliament",
      "outputs": [],
      "stateMutability": "nonpayable",
      "type": "function"
    },
    {
      "inputs": [
        {
          "internalType": "address",
          "name": "core",
          "type": "address"
        }
      ],
      "name": "setCore",
      "outputs": [],
      "stateMutability": "nonpayable",
      "type": "function"
    },
    {
      "inputs": [
        {
          "internalType": "address",
          "name": "manager",
          "type": "address"
        }
      ],
      "name": "setManagerInfo",
      "outputs": [],
      "stateMutability": "nonpayable",
      "type": "function"
    },
    {
      "inputs": [
        {
          "internalType": "uint256",
          "name": "voteId",
          "type": "uint256"
        },
        {
          "internalType": "uint256",
          "name": "index",
          "type": "uint256"
        }
      ],
      "name": "setParliament",
      "outputs": [],
      "stateMutability": "nonpayable",
      "type": "function"
    },
    {
      "inputs": [
        {
          "internalType": "address",
          "name": "user",
          "type": "address"
        },
        {
          "internalType": "address",
          "name": "token",
          "type": "address"
        },
        {
          "internalType": "uint256",
          "name": "amount",
          "type": "uint256"
        },
        {
          "internalType": "uint256",
          "name": "operate",
          "type": "uint256"
        }
      ],
      "name": "setUserReward",
      "outputs": [],
      "stateMutability": "nonpayable",
      "type": "function"
    },
    {
      "inputs": [
        {
          "internalType": "string",
          "name": "",
          "type": "string"
        },
        {
          "internalType": "address",
          "name": "",
          "type": "address"
        }
      ],
      "name": "tokenStorage",
      "outputs": [
        {
          "internalType": "uint256",
          "name": "",
          "type": "uint256"
        }
      ],
      "stateMutability": "view",
      "type": "function"
    },
    {
      "inputs": [],
      "name": "voteIdAddress",
      "outputs": [
        {
          "internalType": "contract IVoteId",
          "name": "",
          "type": "address"
        }
      ],
      "stateMutability": "view",
      "type": "function"
    },
    {
      "inputs": [
        {
          "internalType": "uint256",
          "name": "voteId",
          "type": "uint256"
        },
        {
          "internalType": "address",
          "name": "user",
          "type": "address"
        },
        {
          "internalType": "uint256",
          "name": "tickets",
          "type": "uint256"
        }
      ],
      "name": "voteToParliament",
      "outputs": [],
      "stateMutability": "nonpayable",
      "type": "function"
    },
    {
      "inputs": [],
      "name": "activeGov",
      "outputs": [],
      "stateMutability": "nonpayable",
      "type": "function"
    }
  ],
  "bytecode": "0x60806040523480156200001157600080fd5b50604051620027ca380380620027ca833981016040819052620000349162000094565b600080546001600160a01b039485166001600160a01b0319918216179091556001805493851693821693909317909255600e8054919093169116179055620000dd565b80516001600160a01b03811681146200008f57600080fd5b919050565b600080600060608486031215620000a9578283fd5b620000b48462000077565b9250620000c46020850162000077565b9150620000d46040850162000077565b90509250925092565b6126dd80620000ed6000396000f3fe608060405234801561001057600080fd5b50600436106101a95760003560e01c80635ab764ed116100f95780638b113ccb11610097578063b29ead5911610071578063b29ead5914610348578063b349c5d61461035b578063f2f4eb261461036e578063ffb8b45814610376576101a9565b80638b113ccb1461033057806399a723e414610338578063a940579e14610340576101a9565b80636eb46516116100d35780636eb46516146102ef578063800096301461030257806387ea947b146103155780638919610214610328576101a9565b80635ab764ed146102a857806360ff341b146102bb5780636894b483146102dc576101a9565b806320bec62a1161016657806350c0fbe41161014057806350c0fbe41461026757806350c7f5a11461027a57806352c0f6ca1461028d578063538ece2914610295576101a9565b806320bec62a14610231578063256919d41461024c5780634d41892f1461025f576101a9565b8063014dc538146101ae5780630ab3218b146101d75780630b399602146101e15780630fb3a754146101f6578063135b54dd14610209578063204713561461021e575b600080fd5b6101c16101bc3660046121d2565b610389565b6040516101ce91906122c2565b60405180910390f35b6101df6103a9565b005b6101e961040b565b6040516101ce9190612527565b6101df61020436600461221c565b610411565b61021161049a565b6040516101ce9190612271565b6101df61022c366004611f13565b610526565b6102396105d1565b6040516101ce9796959493929190612530565b6101e961025a366004612105565b610600565b61021161062d565b6101e96102753660046121a2565b61063c565b6101df610288366004611fac565b610645565b6101df610657565b6101df6102a3366004611f13565b6107b6565b6101e96102b6366004611f2f565b610874565b6102ce6102c936600461221c565b6108a1565b6040516101ce9291906122a9565b6101df6102ea366004611f67565b6108e7565b6101df6102fd3660046121f6565b6109db565b6101df610310366004611f13565b610b4e565b6101c1610323366004611f13565b610c32565b6101df610c3f565b6101df610d50565b610211610fd2565b6101df610fe1565b6101df610356366004612088565b611036565b6101e9610369366004611f2f565b61146d565b61021161148a565b6101df61038436600461214a565b611499565b600b60209081526000928352604080842090915290825290205460ff1681565b600e546001600160a01b031633146103dc5760405162461bcd60e51b81526004016103d3906124c5565b60405180910390fd5b600754610100900460ff16156104045760405162461bcd60e51b81526004016103d3906122cd565b600c600855565b60065490565b6000828152600a6020526040812080548390811061043f57634e487b7160e01b600052603260045260246000fd5b60009182526020808320600290920290910154858352600b825260408084206001600160a01b0390921680855291909252908220805460ff191660011790556008805491935090916104908361264b565b9190505550505050565b60008060009054906101000a90046001600160a01b03166001600160a01b03166318f7d8626040518163ffffffff1660e01b815260040160206040518083038186803b1580156104e957600080fd5b505afa1580156104fd573d6000803e3d6000fd5b505050506040513d601f19601f8201168201806040525081019061052191906120e9565b905090565b60005460405163053c328d60e31b81526001600160a01b03909116906329e1946890610556903390600401612271565b60206040518083038186803b15801561056e57600080fd5b505afa158015610582573d6000803e3d6000fd5b505050506040513d601f19601f820116820180604052508101906105a691906120c9565b6105c25760405162461bcd60e51b81526004016103d3906123e4565b6105cd600282611522565b5050565b6004546005546006546007546008546009546001600160a01b039094169360ff80841693610100900416919087565b8151602081840181018051600c825292820194820194909420919093529091526000908152604090205481565b600e546001600160a01b031681565b6009545b919050565b6106518484848461153e565b50505050565b60075460ff6101009091041615156001146106845760405162461bcd60e51b81526004016103d3906123b8565b600061068e61148a565b6001600160a01b03166318f7d8626040518163ffffffff1660e01b815260040160206040518083038186803b1580156106c657600080fd5b505afa1580156106da573d6000803e3d6000fd5b505050506040513d601f19601f820116820180604052508101906106fe91906120e9565b905061071681333069043c33c19375648000006117a8565b60075460ff16151560011461072a57600080fd5b6006546000908152600a6020526040902054601e81101561076b5760045442116107665760405162461bcd60e51b81526004016103d3906124a0565b6107a7565b6004544211801561078b5750600454429061078990621275006125b9565b115b6107a75760405162461bcd60e51b81526004016103d3906124a0565b6006546105cd90336000611890565b60005460405163053c328d60e31b81526001600160a01b03909116906329e19468906107e6903390600401612271565b60206040518083038186803b1580156107fe57600080fd5b505afa158015610812573d6000803e3d6000fd5b505050506040513d601f19601f8201168201806040525081019061083691906120c9565b6108525760405162461bcd60e51b81526004016103d3906123e4565b600580546001600160a01b0319166001600160a01b0392909216919091179055565b6001600160a01b038083166000908152600d60209081526040808320938516835292905220545b92915050565b600a60205281600052604060002081815481106108bd57600080fd5b6000918252602090912060029091020180546001909101546001600160a01b039091169250905082565b80600114806108f65750806002145b6109125760405162461bcd60e51b81526004016103d390612394565b8060011415610976576001600160a01b038085166000908152600d602090815260408083209387168352929052205461094b90836118f0565b6001600160a01b038086166000908152600d6020908152604080832093881683529290522055610651565b8060021415610651576001600160a01b038085166000908152600d60209081526040808320938716835292905220546109af90836118fc565b6001600160a01b038086166000908152600d602090815260408083209388168352929052205550505050565b60075460ff610100909104161515600114610a085760405162461bcd60e51b81526004016103d3906123b8565b60075460ff161515600114610a1c57600080fd5b6006548314610a2a57600080fd5b6000838152600a6020526040902054601e8110801590610a4b575060045442115b610a675760405162461bcd60e51b81526004016103d39061231f565b6000805b82811015610b37576000868152600a60205260409020805482908110610aa157634e487b7160e01b600052603260045260246000fd5b60009182526020909120600290910201546001600160a01b0386811691161415610b25576000868152600a6020526040902080546001935085919083908110610afa57634e487b7160e01b600052603260045260246000fd5b90600052602060002090600202016001016000828254610b1a91906125b9565b90915550610b379050565b80610b2f8161264b565b915050610a6b565b50600181151514610b4757600080fd5b5050505050565b600054604051631c86b03760e31b81526001600160a01b039091169063e43581b890610b7e903390600401612271565b60206040518083038186803b158015610b9657600080fd5b505afa158015610baa573d6000803e3d6000fd5b505050506040513d601f19601f82011682018060405250810190610bce91906120c9565b610bea5760405162461bcd60e51b81526004016103d39061241b565b600080546001600160a01b0319166001600160a01b038316908117825560405190917fad9400e618eb1344fde53db22397a1b82c765527ecbba3a5c86bcac15090828b91a250565b600061089b600283611908565b6006546000908152600b6020908152604080832033845290915290205460ff16610c7b5760405162461bcd60e51b81526004016103d390612349565b683635c9adc5dea00000610c8d61049a565b6001600160a01b03166370a08231336040518263ffffffff1660e01b8152600401610cb89190612271565b60206040518083038186803b158015610cd057600080fd5b505afa158015610ce4573d6000803e3d6000fd5b505050506040513d601f19601f82011682018060405250810190610d0891906121ba565b1015610d265760405162461bcd60e51b81526004016103d39061236c565b610d42610d3161049a565b3330683635c9adc5dea000006117a8565b610d4d60023361191d565b50565b60075460ff610100909104161515600114610d7d5760405162461bcd60e51b81526004016103d3906123b8565b6006546000908152600a6020526040902054600f811015610db05760405162461bcd60e51b81526004016103d3906124fc565b60075460ff161515600114610dc457600080fd5b6006546000908152600a60205260408120610ddf9183611932565b6007805460ff19169055610df64262278d006125b9565b6004556006546000908152600a602052604081208054909190610e2957634e487b7160e01b600052603260045260246000fd5b6000918252602090912060029091020154600580546001600160a01b0319166001600160a01b0390921691909117905560015b600c8111610ecc576006546000908152600a602052604090208054610eb9919083908110610e9a57634e487b7160e01b600052603260045260246000fd5b60009182526020909120600291820201546001600160a01b031661191d565b5080610ec48161264b565b915050610e5c565b50600d811115610d4d57600d5b818110156105cd576006546000908152600a60205260408120805483908110610f1257634e487b7160e01b600052603260045260246000fd5b600091825260208220600290910201546001600160a01b03169150610f3561148a565b6001600160a01b03166318f7d8626040518163ffffffff1660e01b815260040160206040518083038186803b158015610f6d57600080fd5b505afa158015610f81573d6000803e3d6000fd5b505050506040513d601f19601f82011682018060405250810190610fa591906120e9565b9050610fbd81303369043c33c19375648000006117a8565b50508080610fca9061264b565b915050610ed9565b6001546001600160a01b031681565b60075460ff61010090910416151560011461100e5760405162461bcd60e51b81526004016103d3906123b8565b600454421161101c57600080fd5b60075460ff161561102c57600080fd5b611034611b84565b565b60005460405163053c328d60e31b81526001600160a01b03909116906329e1946890611066903390600401612271565b60206040518083038186803b15801561107e57600080fd5b505afa158015611092573d6000803e3d6000fd5b505050506040513d601f19601f820116820180604052508101906110b691906120c9565b6110d25760405162461bcd60e51b81526004016103d3906123e4565b6040516370a0823160e01b81526000906001600160a01b038516906370a0823190611101903090600401612271565b60206040518083038186803b15801561111957600080fd5b505afa15801561112d573d6000803e3d6000fd5b505050506040513d601f19601f8201168201806040525081019061115191906121ba565b9050828110156111735760405162461bcd60e51b81526004016103d3906122f5565b60408051600280825260608201909252600091816020015b606081526020019060019003908161118b57505060408051600280825260608201835292935060009290916020830190803683375050604080518082018252601081526f5041524c49414d454e545f53544f524560801b6020820152905192935091600c91506111fc90839061223d565b90815260408051602092819003830190206001600160a01b038a16600090815292529020548611156113fc57808360008151811061124a57634e487b7160e01b600052603260045260246000fd5b6020026020010181905250600c81604051611265919061223d565b90815260200160405180910390206000886001600160a01b03166001600160a01b0316815260200190815260200160002054826000815181106112b857634e487b7160e01b600052603260045260246000fd5b6020026020010181815250506000600c826040516112d6919061223d565b90815260408051602092819003830190206001600160a01b038b166000908152925290205461130590886125f1565b9050600c60405161131590612259565b90815260408051602092819003830190206001600160a01b038b166000908152925290205481111561137757600c60405161134f90612259565b90815260408051602092819003830190206001600160a01b038b166000908152925290205490505b6040518060400160405280600c81526020016b5055424c49435f53544f524560a01b815250846001815181106113bd57634e487b7160e01b600052603260045260246000fd5b602002602001018190525080836001815181106113ea57634e487b7160e01b600052603260045260246000fd5b60200260200101818152505050611458565b808360008151811061141e57634e487b7160e01b600052603260045260246000fd5b6020026020010181905250858260008151811061144b57634e487b7160e01b600052603260045260246000fd5b6020026020010181815250505b6114648583858a61153e565b50505050505050565b600d60209081526000928352604080842090915290825290205481565b6000546001600160a01b031690565b6114d881600c856040516114ad919061223d565b90815260408051602092819003830190206001600160a01b03871660009081529252902054906118f0565b600c846040516114e8919061223d565b90815260200160405180910390206000846001600160a01b03166001600160a01b0316815260200190815260200160002081905550505050565b6000611537836001600160a01b038416611c64565b9392505050565b815183511461154c57600080fd5b6000805b845181101561171f5784818151811061157957634e487b7160e01b600052603260045260246000fd5b6020026020010151600c8583815181106115a357634e487b7160e01b600052603260045260246000fd5b60200260200101516040516115b8919061223d565b90815260408051602092819003830190206001600160a01b0387166000908152925290205410156115e857600080fd5b61162285828151811061160b57634e487b7160e01b600052603260045260246000fd5b6020026020010151836118f090919063ffffffff16565b91506116b185828151811061164757634e487b7160e01b600052603260045260246000fd5b6020026020010151600c86848151811061167157634e487b7160e01b600052603260045260246000fd5b6020026020010151604051611686919061223d565b90815260408051602092819003830190206001600160a01b03881660009081529252902054906118fc565b600c8583815181106116d357634e487b7160e01b600052603260045260246000fd5b60200260200101516040516116e8919061223d565b90815260408051602092819003830190206001600160a01b03871660009081529252902055806117178161264b565b915050611550565b5060405163a9059cbb60e01b81526001600160a01b0383169063a9059cbb9061174e90889085906004016122a9565b602060405180830381600087803b15801561176857600080fd5b505af115801561177c573d6000803e3d6000fd5b505050506040513d601f19601f820116820180604052508101906117a091906120c9565b505050505050565b600080856001600160a01b03166323b872dd8686866040516024016117cf93929190612285565b6040516020818303038152906040529060e01b6020820180516001600160e01b038381831617835250505050604051611808919061223d565b6000604051808303816000865af19150503d8060008114611845576040519150601f19603f3d011682016040523d82523d6000602084013e61184a565b606091505b509150915081801561187457508051158061187457508080602001905181019061187491906120c9565b6117a05760405162461bcd60e51b81526004016103d39061245c565b505060408051808201825233815260006020808301828152948252600a8152928120805460018082018355918352939091209151600290930290910180546001600160a01b0319166001600160a01b039093169290921782559151910155565b600061153782846125b9565b600061153782846125f1565b6000611537836001600160a01b038416611d81565b6000611537836001600160a01b038416611d99565b818180821415611943575050611b7f565b600085600261195287876125f1565b61195c91906125d1565b61196690876125b9565b8154811061198457634e487b7160e01b600052603260045260246000fd5b90600052602060002090600202016001015490505b818311611b59575b808684815481106119c257634e487b7160e01b600052603260045260246000fd5b90600052602060002090600202016001015410156119ec57826119e48161264b565b9350506119a1565b858281548110611a0c57634e487b7160e01b600052603260045260246000fd5b906000526020600020906002020160010154811015611a375781611a2f81612634565b9250506119ec565b818311611b5457858281548110611a5e57634e487b7160e01b600052603260045260246000fd5b9060005260206000209060020201868481548110611a8c57634e487b7160e01b600052603260045260246000fd5b9060005260206000209060020201878581548110611aba57634e487b7160e01b600052603260045260246000fd5b90600052602060002090600202016000898681548110611aea57634e487b7160e01b600052603260045260246000fd5b60009182526020909120845460029092020180546001600160a01b039283166001600160a01b0319918216178255600195860154918601919091558554845492169116178255509181015491015582611b428161264b565b9350508180611b5090612634565b9250505b611999565b81851015611b6c57611b6c868684611932565b838310156117a0576117a0868486611932565b505050565b6000611b906002611de3565b905060005b81811015611bcc576000611baa600283611dee565b9050611bb7600282611522565b50508080611bc49061264b565b915050611b95565b50436009556007805460ff19166001908117909155546040805163cf7e7b8d60e01b815290516001600160a01b039092169163cf7e7b8d916004818101926020929091908290030181600087803b158015611c2657600080fd5b505af1158015611c3a573d6000803e3d6000fd5b505050506040513d601f19601f82011682018060405250810190611c5e91906121ba565b60065550565b60008181526001830160205260408120548015611d77576000611c886001836125f1565b8554909150600090611c9c906001906125f1565b9050818114611d1d576000866000018281548110611cca57634e487b7160e01b600052603260045260246000fd5b9060005260206000200154905080876000018481548110611cfb57634e487b7160e01b600052603260045260246000fd5b6000918252602080832090910192909255918252600188019052604090208390555b8554869080611d3c57634e487b7160e01b600052603160045260246000fd5b60019003818190600052602060002001600090559055856001016000868152602001908152602001600020600090556001935050505061089b565b600091505061089b565b60009081526001919091016020526040902054151590565b6000611da58383611d81565b611ddb5750815460018181018455600084815260208082209093018490558454848252828601909352604090209190915561089b565b50600061089b565b600061089b82611dfa565b60006115378383611dfe565b5490565b6000826000018281548110611e2357634e487b7160e01b600052603260045260246000fd5b9060005260206000200154905092915050565b803561064081612692565b600082601f830112611e51578081fd5b81356020611e66611e6183612595565b61256b565b82815281810190858301855b85811015611e9b57611e89898684358b0101611ea8565b84529284019290840190600101611e72565b5090979650505050505050565b600082601f830112611eb8578081fd5b813567ffffffffffffffff811115611ed257611ed261267c565b611ee5601f8201601f191660200161256b565b818152846020838601011115611ef9578283fd5b816020850160208301379081016020019190915292915050565b600060208284031215611f24578081fd5b813561153781612692565b60008060408385031215611f41578081fd5b8235611f4c81612692565b91506020830135611f5c81612692565b809150509250929050565b60008060008060808587031215611f7c578182fd5b8435611f8781612692565b93506020850135611f9781612692565b93969395505050506040820135916060013590565b60008060008060808587031215611fc1578384fd5b8435611fcc81612692565b935060208581013567ffffffffffffffff80821115611fe9578586fd5b818801915088601f830112611ffc578586fd5b813561200a611e6182612595565b81815284810190848601868402860187018d101561202657898afd5b8995505b8386101561204857803583526001959095019491860191860161202a565b50975050506040880135925080831115612060578485fd5b505061206e87828801611e41565b92505061207d60608601611e36565b905092959194509250565b60008060006060848603121561209c578283fd5b83356120a781612692565b92506020840135915060408401356120be81612692565b809150509250925092565b6000602082840312156120da578081fd5b81518015158114611537578182fd5b6000602082840312156120fa578081fd5b815161153781612692565b60008060408385031215612117578182fd5b823567ffffffffffffffff81111561212d578283fd5b61213985828601611ea8565b9250506020830135611f5c81612692565b60008060006060848603121561215e578283fd5b833567ffffffffffffffff811115612174578384fd5b61218086828701611ea8565b935050602084013561219181612692565b929592945050506040919091013590565b6000602082840312156121b3578081fd5b5035919050565b6000602082840312156121cb578081fd5b5051919050565b600080604083850312156121e4578182fd5b823591506020830135611f5c81612692565b60008060006060848603121561220a578081fd5b83359250602084013561219181612692565b6000806040838503121561222e578182fd5b50508035926020909101359150565b6000825161224f818460208701612608565b9190910192915050565b6b5055424c49435f53544f524560a01b8152600c0190565b6001600160a01b0391909116815260200190565b6001600160a01b039384168152919092166020820152604081019190915260600190565b6001600160a01b03929092168252602082015260400190565b901515815260200190565b6020808252600e908201526d616c72656164792061637469766560901b604082015260600190565b60208082526010908201526f3737ba1032b737bab3b4103a37b5b2b760811b604082015260600190565b60208082526010908201526f6e6f7420696e20766f74652074696d6560801b604082015260600190565b6020808252600990820152686e6f2061636365737360b81b604082015260600190565b6020808252600e908201526d1b9bdd08195b9bdd59da081c989d60921b604082015260600190565b6020808252600a90820152696e6f742061636365737360b01b604082015260600190565b60208082526012908201527111d3d588135554d5081050d512559055115160721b604082015260600190565b6020808252601d908201527f436f72655265663a2043616c6c6572206973206e6f74206120566f7465000000604082015260600190565b60208082526021908201527f436f72655265663a2043616c6c6572206973206e6f74206120676f7665726e6f6040820152603960f91b606082015260800190565b60208082526024908201527f5472616e7366657248656c7065723a205452414e534645525f46524f4d5f46416040820152631253115160e21b606082015260800190565b6020808252600b908201526a6e6f7420696e2074696d6560a81b604082015260600190565b6020808252601f908201527f476c6f62616c3a2043616c6c6572206973206e6f7420612041726561476f7600604082015260600190565b6020808252601190820152706e6f7420656e6f7567682070656f706c6560781b604082015260600190565b90815260200190565b9687526001600160a01b03959095166020870152604086019390935290151560608501521515608084015260a083015260c082015260e00190565b60405181810167ffffffffffffffff8111828210171561258d5761258d61267c565b604052919050565b600067ffffffffffffffff8211156125af576125af61267c565b5060209081020190565b600082198211156125cc576125cc612666565b500190565b6000826125ec57634e487b7160e01b81526012600452602481fd5b500490565b60008282101561260357612603612666565b500390565b60005b8381101561262357818101518382015260200161260b565b838111156106515750506000910152565b60008161264357612643612666565b506000190190565b600060001982141561265f5761265f612666565b5060010190565b634e487b7160e01b600052601160045260246000fd5b634e487b7160e01b600052604160045260246000fd5b6001600160a01b0381168114610d4d57600080fdfea26469706673582212202194b48c6bbc8afaa89775bdc9530dedaecb0149a53a1111292db5b132d38cad64736f6c63430008000033",
  "immutableReferences": {},
  "source": "pragma solidity ^0.8.0;\r\n\r\nimport '../interface/gov/IGlobalGovernanceCommittee.sol';\r\nimport '@openzeppelin/contracts/utils/structs/EnumerableSet.sol';\r\nimport \"../ref/CommunityGovernanceFundRef.sol\";\r\ncontract GlobalGovernanceCommittee is IGlobalGovernanceCommittee , CommunityGovernanceFundRef{\r\n\r\n\r\n    address public area;\r\n    constructor(address core,address voteIdAddr,address areaGov)   CommunityGovernanceFundRef(core,voteIdAddr)  {\r\n        area = areaGov;\r\n    }\r\n    modifier onlyAreaGov() {\r\n        require(\r\n            msg.sender == area,\r\n            \"Global: Caller is not a AreaGov\"\r\n        );\r\n        _;\r\n    }\r\n\r\n    function activeGov() public override onlyAreaGov{\r\n        require(cgInfo.active == false,'already active');\r\n        cgInfo.impeachIndex = 12;\r\n        cgInfo.active == true;\r\n    }\r\n}\r\n",
  "sourcePath": "D://rainbow/RainbowDao-protocol/contracts/gov/GlobalGovernanceCommittee.sol",
  "compiler": {
    "name": "solc",
    "version": "0.8.0+commit.c7dfd78e.Emscripten.clang"
  },
  "schemaVersion": "3.4.1",
  "updatedAt": "2021-10-08T01:43:00.877Z",
  "devdoc": {
    "kind": "dev",
    "methods": {
      "Rbt()": {
        "returns": {
          "_0": "IFei implementation address"
        }
      },
      "core()": {
        "returns": {
          "_0": "ICore implementation address"
        }
      }
    },
    "version": 1
  },
  "userdoc": {
    "kind": "user",
    "methods": {
      "Rbt()": {
        "notice": "address of the Fei contract referenced by Core"
      },
      "core()": {
        "notice": "address of the Core contract referenced"
      }
    },
    "version": 1
  }
}