{
  "contractName": "GovernorAlpha",
  "abi": [
    {
      "inputs": [
        {
          "internalType": "address",
          "name": "timelock_",
          "type": "address"
        },
        {
          "internalType": "address",
          "name": "tribe_",
          "type": "address"
        },
        {
          "internalType": "address",
          "name": "guardian_",
          "type": "address"
        }
      ],
      "stateMutability": "nonpayable",
      "type": "constructor"
    },
    {
      "anonymous": false,
      "inputs": [
        {
          "indexed": false,
          "internalType": "uint256",
          "name": "id",
          "type": "uint256"
        }
      ],
      "name": "ProposalCanceled",
      "type": "event"
    },
    {
      "anonymous": false,
      "inputs": [
        {
          "indexed": false,
          "internalType": "uint256",
          "name": "id",
          "type": "uint256"
        },
        {
          "indexed": false,
          "internalType": "address",
          "name": "proposer",
          "type": "address"
        },
        {
          "indexed": false,
          "internalType": "address[]",
          "name": "targets",
          "type": "address[]"
        },
        {
          "indexed": false,
          "internalType": "uint256[]",
          "name": "values",
          "type": "uint256[]"
        },
        {
          "indexed": false,
          "internalType": "string[]",
          "name": "signatures",
          "type": "string[]"
        },
        {
          "indexed": false,
          "internalType": "bytes[]",
          "name": "calldatas",
          "type": "bytes[]"
        },
        {
          "indexed": false,
          "internalType": "uint256",
          "name": "startBlock",
          "type": "uint256"
        },
        {
          "indexed": false,
          "internalType": "uint256",
          "name": "endBlock",
          "type": "uint256"
        }
      ],
      "name": "ProposalCreated",
      "type": "event"
    },
    {
      "anonymous": false,
      "inputs": [
        {
          "indexed": false,
          "internalType": "uint256",
          "name": "id",
          "type": "uint256"
        }
      ],
      "name": "ProposalExecuted",
      "type": "event"
    },
    {
      "anonymous": false,
      "inputs": [
        {
          "indexed": false,
          "internalType": "uint256",
          "name": "id",
          "type": "uint256"
        },
        {
          "indexed": false,
          "internalType": "uint256",
          "name": "eta",
          "type": "uint256"
        }
      ],
      "name": "ProposalQueued",
      "type": "event"
    },
    {
      "anonymous": false,
      "inputs": [
        {
          "indexed": false,
          "internalType": "address",
          "name": "voter",
          "type": "address"
        },
        {
          "indexed": false,
          "internalType": "uint256",
          "name": "proposalId",
          "type": "uint256"
        },
        {
          "indexed": false,
          "internalType": "bool",
          "name": "support",
          "type": "bool"
        },
        {
          "indexed": false,
          "internalType": "uint256",
          "name": "votes",
          "type": "uint256"
        }
      ],
      "name": "VoteCast",
      "type": "event"
    },
    {
      "inputs": [],
      "name": "BALLOT_TYPEHASH",
      "outputs": [
        {
          "internalType": "bytes32",
          "name": "",
          "type": "bytes32"
        }
      ],
      "stateMutability": "view",
      "type": "function"
    },
    {
      "inputs": [],
      "name": "DOMAIN_TYPEHASH",
      "outputs": [
        {
          "internalType": "bytes32",
          "name": "",
          "type": "bytes32"
        }
      ],
      "stateMutability": "view",
      "type": "function"
    },
    {
      "inputs": [],
      "name": "guardian",
      "outputs": [
        {
          "internalType": "address",
          "name": "",
          "type": "address"
        }
      ],
      "stateMutability": "view",
      "type": "function"
    },
    {
      "inputs": [
        {
          "internalType": "address",
          "name": "",
          "type": "address"
        }
      ],
      "name": "latestProposalIds",
      "outputs": [
        {
          "internalType": "uint256",
          "name": "",
          "type": "uint256"
        }
      ],
      "stateMutability": "view",
      "type": "function"
    },
    {
      "inputs": [],
      "name": "name",
      "outputs": [
        {
          "internalType": "string",
          "name": "",
          "type": "string"
        }
      ],
      "stateMutability": "view",
      "type": "function"
    },
    {
      "inputs": [],
      "name": "proposalCount",
      "outputs": [
        {
          "internalType": "uint256",
          "name": "",
          "type": "uint256"
        }
      ],
      "stateMutability": "view",
      "type": "function"
    },
    {
      "inputs": [
        {
          "internalType": "uint256",
          "name": "",
          "type": "uint256"
        }
      ],
      "name": "proposals",
      "outputs": [
        {
          "internalType": "uint256",
          "name": "id",
          "type": "uint256"
        },
        {
          "internalType": "address",
          "name": "proposer",
          "type": "address"
        },
        {
          "internalType": "uint256",
          "name": "eta",
          "type": "uint256"
        },
        {
          "internalType": "uint256",
          "name": "startBlock",
          "type": "uint256"
        },
        {
          "internalType": "uint256",
          "name": "endBlock",
          "type": "uint256"
        },
        {
          "internalType": "uint256",
          "name": "forVotes",
          "type": "uint256"
        },
        {
          "internalType": "uint256",
          "name": "againstVotes",
          "type": "uint256"
        },
        {
          "internalType": "bool",
          "name": "canceled",
          "type": "bool"
        },
        {
          "internalType": "bool",
          "name": "executed",
          "type": "bool"
        },
        {
          "internalType": "enum GovernorAlpha.Launch",
          "name": "launchType",
          "type": "uint8"
        },
        {
          "internalType": "enum GovernorAlpha.Emergency",
          "name": "emergencyType",
          "type": "uint8"
        },
        {
          "internalType": "uint256",
          "name": "prepareVotes",
          "type": "uint256"
        },
        {
          "internalType": "uint256",
          "name": "publicityPeriodVotes",
          "type": "uint256"
        }
      ],
      "stateMutability": "view",
      "type": "function"
    },
    {
      "inputs": [],
      "name": "timelock",
      "outputs": [
        {
          "internalType": "contract TimelockInterface",
          "name": "",
          "type": "address"
        }
      ],
      "stateMutability": "view",
      "type": "function"
    },
    {
      "inputs": [],
      "name": "tribe",
      "outputs": [
        {
          "internalType": "contract TribeInterface",
          "name": "",
          "type": "address"
        }
      ],
      "stateMutability": "view",
      "type": "function"
    },
    {
      "inputs": [
        {
          "internalType": "uint256",
          "name": "",
          "type": "uint256"
        }
      ],
      "name": "voteProposal",
      "outputs": [
        {
          "internalType": "uint256",
          "name": "",
          "type": "uint256"
        }
      ],
      "stateMutability": "view",
      "type": "function"
    },
    {
      "inputs": [],
      "name": "quorumVotes",
      "outputs": [
        {
          "internalType": "uint256",
          "name": "",
          "type": "uint256"
        }
      ],
      "stateMutability": "pure",
      "type": "function"
    },
    {
      "inputs": [],
      "name": "proposalThreshold",
      "outputs": [
        {
          "internalType": "uint256",
          "name": "",
          "type": "uint256"
        }
      ],
      "stateMutability": "pure",
      "type": "function"
    },
    {
      "inputs": [],
      "name": "proposalMaxOperations",
      "outputs": [
        {
          "internalType": "uint256",
          "name": "",
          "type": "uint256"
        }
      ],
      "stateMutability": "pure",
      "type": "function"
    },
    {
      "inputs": [],
      "name": "votingDelay",
      "outputs": [
        {
          "internalType": "uint256",
          "name": "",
          "type": "uint256"
        }
      ],
      "stateMutability": "pure",
      "type": "function"
    },
    {
      "inputs": [],
      "name": "votingCommunityDelay",
      "outputs": [
        {
          "internalType": "uint256",
          "name": "",
          "type": "uint256"
        }
      ],
      "stateMutability": "pure",
      "type": "function"
    },
    {
      "inputs": [],
      "name": "votingPeriod",
      "outputs": [
        {
          "internalType": "uint256",
          "name": "",
          "type": "uint256"
        }
      ],
      "stateMutability": "pure",
      "type": "function"
    },
    {
      "inputs": [],
      "name": "votingFastPeriod",
      "outputs": [
        {
          "internalType": "uint256",
          "name": "",
          "type": "uint256"
        }
      ],
      "stateMutability": "pure",
      "type": "function"
    },
    {
      "inputs": [
        {
          "internalType": "address[]",
          "name": "targets",
          "type": "address[]"
        },
        {
          "internalType": "uint256[]",
          "name": "values",
          "type": "uint256[]"
        },
        {
          "internalType": "string[]",
          "name": "signatures",
          "type": "string[]"
        },
        {
          "internalType": "bytes[]",
          "name": "calldatas",
          "type": "bytes[]"
        },
        {
          "internalType": "string",
          "name": "description",
          "type": "string"
        },
        {
          "internalType": "enum GovernorAlpha.Emergency",
          "name": "emergency",
          "type": "uint8"
        }
      ],
      "name": "propose",
      "outputs": [
        {
          "internalType": "uint256",
          "name": "",
          "type": "uint256"
        }
      ],
      "stateMutability": "nonpayable",
      "type": "function"
    },
    {
      "inputs": [
        {
          "internalType": "uint256",
          "name": "proposalId",
          "type": "uint256"
        }
      ],
      "name": "queue",
      "outputs": [],
      "stateMutability": "nonpayable",
      "type": "function"
    },
    {
      "inputs": [
        {
          "internalType": "uint256",
          "name": "proposalId",
          "type": "uint256"
        }
      ],
      "name": "execute",
      "outputs": [],
      "stateMutability": "payable",
      "type": "function"
    },
    {
      "inputs": [
        {
          "internalType": "uint256",
          "name": "proposalId",
          "type": "uint256"
        }
      ],
      "name": "cancel",
      "outputs": [],
      "stateMutability": "nonpayable",
      "type": "function"
    },
    {
      "inputs": [
        {
          "internalType": "uint256",
          "name": "proposalId",
          "type": "uint256"
        }
      ],
      "name": "getActions",
      "outputs": [
        {
          "internalType": "address[]",
          "name": "targets",
          "type": "address[]"
        },
        {
          "internalType": "uint256[]",
          "name": "values",
          "type": "uint256[]"
        },
        {
          "internalType": "string[]",
          "name": "signatures",
          "type": "string[]"
        },
        {
          "internalType": "bytes[]",
          "name": "calldatas",
          "type": "bytes[]"
        }
      ],
      "stateMutability": "view",
      "type": "function"
    },
    {
      "inputs": [
        {
          "internalType": "uint256",
          "name": "proposalId",
          "type": "uint256"
        },
        {
          "internalType": "address",
          "name": "voter",
          "type": "address"
        }
      ],
      "name": "getReceipt",
      "outputs": [
        {
          "components": [
            {
              "internalType": "bool",
              "name": "hasVoted",
              "type": "bool"
            },
            {
              "internalType": "bool",
              "name": "support",
              "type": "bool"
            },
            {
              "internalType": "uint256",
              "name": "votes",
              "type": "uint256"
            }
          ],
          "internalType": "struct GovernorAlpha.Receipt",
          "name": "",
          "type": "tuple"
        }
      ],
      "stateMutability": "view",
      "type": "function"
    },
    {
      "inputs": [
        {
          "internalType": "uint256",
          "name": "proposalId",
          "type": "uint256"
        }
      ],
      "name": "state",
      "outputs": [
        {
          "internalType": "enum GovernorAlpha.ProposalState",
          "name": "",
          "type": "uint8"
        }
      ],
      "stateMutability": "view",
      "type": "function"
    },
    {
      "inputs": [
        {
          "internalType": "uint256",
          "name": "proposalId",
          "type": "uint256"
        },
        {
          "internalType": "uint256",
          "name": "amount",
          "type": "uint256"
        }
      ],
      "name": "castVotePublicity",
      "outputs": [],
      "stateMutability": "nonpayable",
      "type": "function"
    },
    {
      "inputs": [
        {
          "internalType": "uint256",
          "name": "proposalId",
          "type": "uint256"
        },
        {
          "internalType": "uint256",
          "name": "amount",
          "type": "uint256"
        }
      ],
      "name": "castVotePrepare",
      "outputs": [],
      "stateMutability": "nonpayable",
      "type": "function"
    },
    {
      "inputs": [
        {
          "internalType": "uint256",
          "name": "proposalId",
          "type": "uint256"
        },
        {
          "internalType": "bool",
          "name": "support",
          "type": "bool"
        },
        {
          "internalType": "uint256",
          "name": "amount",
          "type": "uint256"
        }
      ],
      "name": "castVote",
      "outputs": [],
      "stateMutability": "nonpayable",
      "type": "function"
    },
    {
      "inputs": [],
      "name": "__acceptAdmin",
      "outputs": [],
      "stateMutability": "nonpayable",
      "type": "function"
    },
    {
      "inputs": [],
      "name": "__abdicate",
      "outputs": [],
      "stateMutability": "nonpayable",
      "type": "function"
    },
    {
      "inputs": [
        {
          "internalType": "address",
          "name": "newGuardian",
          "type": "address"
        }
      ],
      "name": "__transferGuardian",
      "outputs": [],
      "stateMutability": "nonpayable",
      "type": "function"
    },
    {
      "inputs": [
        {
          "internalType": "address",
          "name": "newPendingAdmin",
          "type": "address"
        },
        {
          "internalType": "uint256",
          "name": "eta",
          "type": "uint256"
        }
      ],
      "name": "__queueSetTimelockPendingAdmin",
      "outputs": [],
      "stateMutability": "nonpayable",
      "type": "function"
    },
    {
      "inputs": [
        {
          "internalType": "address",
          "name": "newPendingAdmin",
          "type": "address"
        },
        {
          "internalType": "uint256",
          "name": "eta",
          "type": "uint256"
        }
      ],
      "name": "__executeSetTimelockPendingAdmin",
      "outputs": [],
      "stateMutability": "nonpayable",
      "type": "function"
    }
  ],
  "bytecode": "0x60806040523480156200001157600080fd5b50604051620038e9380380620038e9833981016040819052620000349162000094565b600080546001600160a01b039485166001600160a01b031991821617909155600180549385169382169390931790925560028054919093169116179055620000dd565b80516001600160a01b03811681146200008f57600080fd5b919050565b600080600060608486031215620000a9578283fd5b620000b48462000077565b9250620000c46020850162000077565b9150620000d46040850162000077565b90509250925092565b6137fc80620000ed6000396000f3fe6080604052600436106101e35760003560e01c80636036e9e011610102578063d33219b411610095578063deaaa7cc11610064578063deaaa7cc1461052b578063e23a9a5214610540578063eb2ae5701461056d578063fe0d94c11461058d576101e3565b8063d33219b4146104c1578063d96c3130146104d6578063da35c664146104f6578063ddf0b0091461050b576101e3565b806391500671116100d15780639150067114610462578063b58131b014610482578063b86677fe14610497578063b9a61961146104ac576101e3565b80636036e9e0146103f8578063760fbc13146104185780637bdbe4d01461042d578063807896d514610442576101e3565b806321f43e421161017a5780633932abb1116101495780633932abb1146103745780633e4f49e61461038957806340e58ee5146103b6578063452a9320146103d6576101e3565b806321f43e42146102fa57806324bc1a641461031a5780632f71a3181461032f578063328dd98214610344576101e3565b806317977c61116101b657806317977c611461028e5780631afef6e4146102ae57806320606b70146102d0578063213d84e1146102e5576101e3565b8063013cf08b146101e857806302a251a31461022a57806306fdde031461024c578063164a1ab11461026e575b600080fd5b3480156101f457600080fd5b50610208610203366004612a46565b6105a0565b6040516102219d9c9b9a9998979695949392919061357e565b60405180910390f35b34801561023657600080fd5b5061023f61061d565b6040516102219190612e4f565b34801561025857600080fd5b50610261610623565b6040516102219190612e72565b34801561027a57600080fd5b5061023f6102893660046128c4565b610655565b34801561029a57600080fd5b5061023f6102a9366004612881565b610aed565b3480156102ba57600080fd5b506102ce6102c9366004612881565b610aff565b005b3480156102dc57600080fd5b5061023f610b4b565b3480156102f157600080fd5b5061023f610b6f565b34801561030657600080fd5b506102ce61031536600461289b565b610b76565b34801561032657600080fd5b5061023f610c54565b34801561033b57600080fd5b5061023f610c63565b34801561035057600080fd5b5061036461035f366004612a46565b610c69565b6040516102219493929190612df7565b34801561038057600080fd5b5061023f610efa565b34801561039557600080fd5b506103a96103a4366004612a46565b610f00565b6040516102219190612e58565b3480156103c257600080fd5b506102ce6103d1366004612a46565b6110df565b3480156103e257600080fd5b506103eb6113e1565b6040516102219190612cb1565b34801561040457600080fd5b506102ce610413366004612a89565b6113f0565b34801561042457600080fd5b506102ce6113fc565b34801561043957600080fd5b5061023f611438565b34801561044e57600080fd5b5061023f61045d366004612a46565b61143d565b34801561046e57600080fd5b506102ce61047d36600461289b565b61145e565b34801561048e57600080fd5b5061023f611533565b3480156104a357600080fd5b506103eb611542565b3480156104b857600080fd5b506102ce611551565b3480156104cd57600080fd5b506103eb6115d6565b3480156104e257600080fd5b506102ce6104f1366004612ac0565b6115e5565b34801561050257600080fd5b5061023f6115f3565b34801561051757600080fd5b506102ce610526366004612a46565b6115f9565b34801561053757600080fd5b5061023f6119aa565b34801561054c57600080fd5b5061056061055b366004612a5e565b6119ce565b60405161022191906134da565b34801561057957600080fd5b506102ce610588366004612ac0565b611a32565b6102ce61059b366004612a46565b611a3c565b6005602052600090815260409020805460018201546002830154600784015460088501546009860154600a870154600b880154600c890154600d9099015497986001600160a01b03909716979596949593949293919260ff808316936101008404821693620100008104831693630100000090910490921691908d565b61b64690565b604051806040016040528060168152602001755261696e426f7720476f7665726e6f7220416c70686160501b81525081565b600085518751148015610669575084518751145b8015610676575083518751145b61069b5760405162461bcd60e51b815260040161069290613191565b60405180910390fd5b86516106b95760405162461bcd60e51b8152600401610692906130d9565b6106c1611438565b875111156106e15760405162461bcd60e51b815260040161069290613310565b33600090815260066020526040902054801561078657600061070282610f00565b9050600181600781111561072657634e487b7160e01b600052602160045260246000fd5b14156107445760405162461bcd60e51b815260040161069290612fee565b600081600781111561076657634e487b7160e01b600052602160045260246000fd5b14156107845760405162461bcd60e51b815260040161069290613063565b505b6000803315610796576001610799565b60005b905060018560018111156107bd57634e487b7160e01b600052602160045260246000fd5b14156107eb57336001600160a01b038316146107eb5760405162461bcd60e51b815260040161069290613166565b6000600182600181111561080f57634e487b7160e01b600052602160045260246000fd5b1461082a5761082543610820610efa565b611c83565b610836565b61083643610820610b6f565b90506000600187600181111561085c57634e487b7160e01b600052602160045260246000fd5b146108725761086d8261082061061d565b61087e565b61087e82610820610c63565b6003805491925060006108908361375b565b9190505550600060056000600354815260200190815260200160002090506003548160000181905550338160010160006101000a8154816001600160a01b0302191690836001600160a01b03160217905550600081600201819055508c816003019080519060200190610904929190612404565b508b5161091a90600483019060208f0190612469565b506000600c8201558a5161093790600583019060208e01906124a4565b50895161094d90600683019060208d01906124fd565b5060078101839055600881018290556000600d820181905560098201819055600a820155600b8101805485919062ff00001916620100008360018111156109a457634e487b7160e01b600052602160045260246000fd5b0217905550600b8101805489919063ff000000191663010000008360018111156109de57634e487b7160e01b600052602160045260246000fd5b0217905550600b8101805461ffff191690556000846001811115610a1257634e487b7160e01b600052602160045260246000fd5b1415610a4e578054600480546001810182556000919091527f8a35acfbc15ff81a39ae7d344fd709f28e8600b4aa8c65c6b64bfe7fe36bd19b01555b8060000154600660008360010160009054906101000a90046001600160a01b03166001600160a01b03166001600160a01b03168152602001908152602001600020819055507f9479b7607c10133aa95f93ade05216edbd87f9d50043cec8bf0352cbe6c772268160000154338f8f8f8f8989604051610ad49897969594939291906134ff565b60405180910390a1549c9b505050505050505050505050565b60066020526000908152604090205481565b6002546001600160a01b03163314610b295760405162461bcd60e51b81526004016106929061311c565b600280546001600160a01b0319166001600160a01b0392909216919091179055565b7f8cad95687ba82c2ce50e74f7b754645e5117c3a5bec8151c0726d5857980a86681565b62016c8c90565b6002546001600160a01b03163314610ba05760405162461bcd60e51b81526004016106929061311c565b600080546040516001600160a01b0390911691630825f38f91839190610bca908790602001612cb1565b604051602081830303815290604052856040518563ffffffff1660e01b8152600401610bf99493929190612cc5565b600060405180830381600087803b158015610c1357600080fd5b505af1158015610c27573d6000803e3d6000fd5b505050506040513d6000823e601f3d908101601f19168201604052610c4f91908101906129d3565b505050565b6a14adf4b7320334b900000090565b611a0a90565b60608060608060006005600087815260200190815260200160002090508060030181600401826005018360060183805480602002602001604051908101604052809291908181526020018280548015610ceb57602002820191906000526020600020905b81546001600160a01b03168152600190910190602001808311610ccd575b5050505050935082805480602002602001604051908101604052809291908181526020018280548015610d3d57602002820191906000526020600020905b815481526020019060010190808311610d29575b5050505050925081805480602002602001604051908101604052809291908181526020016000905b82821015610e11578382906000526020600020018054610d8490613720565b80601f0160208091040260200160405190810160405280929190818152602001828054610db090613720565b8015610dfd5780601f10610dd257610100808354040283529160200191610dfd565b820191906000526020600020905b815481529060010190602001808311610de057829003601f168201915b505050505081526020019060010190610d65565b50505050915080805480602002602001604051908101604052809291908181526020016000905b82821015610ee4578382906000526020600020018054610e5790613720565b80601f0160208091040260200160405190810160405280929190818152602001828054610e8390613720565b8015610ed05780601f10610ea557610100808354040283529160200191610ed0565b820191906000526020600020905b815481529060010190602001808311610eb357829003601f168201915b505050505081526020019060010190610e38565b5050505090509450945094509450509193509193565b610d0590565b60008160035410158015610f145750600082115b610f305760405162461bcd60e51b815260040161069290612fac565b6000828152600560205260409020600b81015460649060ff1615610f59576002925050506110da565b81600701544311610f6f576000925050506110da565b81600801544311610f85576001925050506110da565b6000600b83015462010000900460ff166001811115610fb457634e487b7160e01b600052602160045260246000fd5b148015610fd95750610fd1610fca603283611cb9565b6064611cfe565b82600a015410155b80610ff55750610fed610fca603283611cb9565b82600d015410155b15611005576003925050506110da565b6002820154611019576004925050506110da565b600b820154610100900460ff1615611036576007925050506110da565b6110c2826002015460008054906101000a90046001600160a01b03166001600160a01b031663c1a287e26040518163ffffffff1660e01b815260040160206040518083038186803b15801561108a57600080fd5b505afa15801561109e573d6000803e3d6000fd5b505050506040513d601f19601f8201168201806040525081019061082091906129bb565b42106110d3576006925050506110da565b6005925050505b919050565b60006110ea82610f00565b9050600181600781111561110e57634e487b7160e01b600052602160045260246000fd5b14806111395750600081600781111561113757634e487b7160e01b600052602160045260246000fd5b145b6111555760405162461bcd60e51b81526004016106929061347d565b60008281526005602052604090206002546001600160a01b0316331480611225575061117f611533565b60018054838201546001600160a01b039182169263782d6fe192909116906111a8904390611d33565b6040518363ffffffff1660e01b81526004016111c5929190612d31565b60206040518083038186803b1580156111dd57600080fd5b505afa1580156111f1573d6000803e3d6000fd5b505050506040513d601f19601f820116820180604052508101906112159190612ae1565b6bffffffffffffffffffffffff16105b6112415760405162461bcd60e51b815260040161069290612e85565b600b8101805460ff1916600117905560005b60038201548110156113a4576000546003830180546001600160a01b039092169163591fcdfe91908490811061129957634e487b7160e01b600052603260045260246000fd5b6000918252602090912001546004850180546001600160a01b0390921691859081106112d557634e487b7160e01b600052603260045260246000fd5b906000526020600020015485600501858154811061130357634e487b7160e01b600052603260045260246000fd5b9060005260206000200186600601868154811061133057634e487b7160e01b600052603260045260246000fd5b9060005260206000200187600201546040518663ffffffff1660e01b815260040161135f959493929190612dbe565b600060405180830381600087803b15801561137957600080fd5b505af115801561138d573d6000803e3d6000fd5b50505050808061139c9061375b565b915050611253565b507f789cf55be980739dad1d0699b93b58e806b51c9d96619bfa8fe0a28abaa7b30c836040516113d49190612e4f565b60405180910390a1505050565b6002546001600160a01b031681565b610c4f33848484611d5f565b6002546001600160a01b031633146114265760405162461bcd60e51b81526004016106929061311c565b600280546001600160a01b0319169055565b600a90565b6004818154811061144d57600080fd5b600091825260209091200154905081565b6002546001600160a01b031633146114885760405162461bcd60e51b81526004016106929061311c565b600080546040516001600160a01b0390911691633a66f901918391906114b2908790602001612cb1565b604051602081830303815290604052856040518563ffffffff1660e01b81526004016114e19493929190612cc5565b602060405180830381600087803b1580156114fb57600080fd5b505af115801561150f573d6000803e3d6000fd5b505050506040513d601f19601f82011682018060405250810190610c4f91906129bb565b6a021165458500521280000090565b6001546001600160a01b031681565b6002546001600160a01b0316331461157b5760405162461bcd60e51b81526004016106929061311c565b6000805460408051630e18b68160e01b815290516001600160a01b0390921692630e18b6819260048084019382900301818387803b1580156115bc57600080fd5b505af11580156115d0573d6000803e3d6000fd5b50505050565b6000546001600160a01b031681565b6115ef8282612032565b5050565b60035481565b600461160482610f00565b600781111561162357634e487b7160e01b600052602160045260246000fd5b146116405760405162461bcd60e51b815260040161069290613291565b600081815260056020526040812090600b8201546301000000900460ff16600181111561167d57634e487b7160e01b600052602160045260246000fd5b14156116b757600881015461169490614852613686565b43116116b25760405162461bcd60e51b815260040161069290613429565b61171c565b6001600b8201546301000000900460ff1660018111156116e757634e487b7160e01b600052602160045260246000fd5b141561171c5760088101546116fe9061181d613686565b431161171c5760405162461bcd60e51b815260040161069290613429565b600061176e4260008054906101000a90046001600160a01b03166001600160a01b0316636a42b8f86040518163ffffffff1660e01b815260040160206040518083038186803b15801561108a57600080fd5b905060005b60038301548110156119705761195e8360030182815481106117a557634e487b7160e01b600052603260045260246000fd5b6000918252602090912001546004850180546001600160a01b0390921691849081106117e157634e487b7160e01b600052603260045260246000fd5b906000526020600020015485600501848154811061180f57634e487b7160e01b600052603260045260246000fd5b90600052602060002001805461182490613720565b80601f016020809104026020016040519081016040528092919081815260200182805461185090613720565b801561189d5780601f106118725761010080835404028352916020019161189d565b820191906000526020600020905b81548152906001019060200180831161188057829003601f168201915b50505050508660060185815481106118c557634e487b7160e01b600052603260045260246000fd5b9060005260206000200180546118da90613720565b80601f016020809104026020016040519081016040528092919081815260200182805461190690613720565b80156119535780601f1061192857610100808354040283529160200191611953565b820191906000526020600020905b81548152906001019060200180831161193657829003601f168201915b50505050508661218b565b806119688161375b565b915050611773565b50600282018190556040517f9a2e42fd6722813d69113e7d0079d3d940171428df7373df9c7f7617cfda2892906113d49085908490613602565b7f8e25870c07e0b0b3884c78da52790939a455c275406c44ae8b434b692fb916ee81565b6119d6612556565b5060008281526005602090815260408083206001600160a01b0385168452600e018252918290208251606081018452815460ff808216151583526101009091041615159281019290925260010154918101919091525b92915050565b6115ef82826122ea565b6005611a4782610f00565b6007811115611a6657634e487b7160e01b600052602160045260246000fd5b14611a835760405162461bcd60e51b815260040161069290612ecc565b6000818152600560205260408120600b8101805461ff001916610100179055905b6003820154811015611c47576000546004830180546001600160a01b0390921691630825f38f919084908110611aea57634e487b7160e01b600052603260045260246000fd5b9060005260206000200154846003018481548110611b1857634e487b7160e01b600052603260045260246000fd5b6000918252602090912001546004860180546001600160a01b039092169186908110611b5457634e487b7160e01b600052603260045260246000fd5b9060005260206000200154866005018681548110611b8257634e487b7160e01b600052603260045260246000fd5b90600052602060002001876006018781548110611baf57634e487b7160e01b600052603260045260246000fd5b9060005260206000200188600201546040518763ffffffff1660e01b8152600401611bde959493929190612dbe565b6000604051808303818588803b158015611bf757600080fd5b505af1158015611c0b573d6000803e3d6000fd5b50505050506040513d6000823e601f3d908101601f19168201604052611c3491908101906129d3565b5080611c3f8161375b565b915050611aa4565b507f712ae1383f79ac853f8d882153778e0260ef8f03b504e2866e0593e04d2b291f82604051611c779190612e4f565b60405180910390a15050565b600080611c908385613686565b905083811015611cb25760405162461bcd60e51b8152600401610692906131ee565b9392505050565b600082611cc857506000611a2c565b6000611cd483856136be565b905082611ce1858361369e565b14611cb25760405162461bcd60e51b815260040161069290613250565b6000808211611d1f5760405162461bcd60e51b8152600401610692906133c2565b6000611d2b838561369e565b949350505050565b600082821115611d555760405162461bcd60e51b81526004016106929061344e565b611cb282846136dd565b6001611d6a84610f00565b6007811115611d8957634e487b7160e01b600052602160045260246000fd5b14611da65760405162461bcd60e51b8152600401610692906133f2565b60008381526005602090815260408083206001600160a01b0388168452600e810190925282209091600b8301546301000000900460ff166001811115611dfc57634e487b7160e01b600052602160045260246000fd5b1415611f25576001611e396004600081548110611e2957634e487b7160e01b600052603260045260246000fd5b9060005260206000200154610f00565b6007811115611e5857634e487b7160e01b600052602160045260246000fd5b14611eda57846004600181548110611e8057634e487b7160e01b600052603260045260246000fd5b906000526020600020015414611ea85760405162461bcd60e51b8152600401610692906132ee565b6004600081548110611eca57634e487b7160e01b600052603260045260246000fd5b6000918252602082200155611f25565b846004600081548110611efd57634e487b7160e01b600052603260045260246000fd5b906000526020600020015414611f255760405162461bcd60e51b8152600401610692906132ee565b805460ff1615611f475760405162461bcd60e51b815260040161069290612f29565b6000600b83015462010000900460ff166001811115611f7657634e487b7160e01b600052602160045260246000fd5b1415611f9a578315611f9a5760405162461bcd60e51b815260040161069290613219565b8315611fb857611fae826009015484611c83565b6009830155611fcc565b611fc682600a015484611c83565b600a8301555b8054600160ff19909116811761ff0019166101008615150217825581018390556040517f877856338e13f63d0c36822ff0ef736b80934cd90574a3a5bc9262c39d217c4690612022908890889088908890612d4a565b60405180910390a1505050505050565b600461203d83610f00565b600781111561205c57634e487b7160e01b600052602160045260246000fd5b146120795760405162461bcd60e51b815260040161069290613291565b600082815260056020526040812090600b8201546301000000900460ff1660018111156120b657634e487b7160e01b600052602160045260246000fd5b14156120ff574381600801541080156120de575060088101546120db90614852613686565b43105b6120fa5760405162461bcd60e51b815260040161069290613429565b612173565b6001600b8201546301000000900460ff16600181111561212f57634e487b7160e01b600052602160045260246000fd5b141561217357438160080154108015612157575060088101546121549061181d613686565b43105b6121735760405162461bcd60e51b815260040161069290613429565b61218181600d015483611c83565b600d909101555050565b6000546040516001600160a01b039091169063f2b06537906121b99088908890889088908890602001612d72565b604051602081830303815290604052805190602001206040518263ffffffff1660e01b81526004016121eb9190612e4f565b60206040518083038186803b15801561220357600080fd5b505afa158015612217573d6000803e3d6000fd5b505050506040513d601f19601f8201168201806040525081019061223b919061299f565b156122585760405162461bcd60e51b815260040161069290613347565b600054604051633a66f90160e01b81526001600160a01b0390911690633a66f901906122909088908890889088908890600401612d72565b602060405180830381600087803b1580156122aa57600080fd5b505af11580156122be573d6000803e3d6000fd5b505050506040513d601f19601f820116820180604052508101906122e291906129bb565b505050505050565b60006122f583610f00565b600781111561231457634e487b7160e01b600052602160045260246000fd5b146123315760405162461bcd60e51b8152600401610692906133f2565b60008281526005602052604090206001600b82015462010000900460ff16600181111561236e57634e487b7160e01b600052602160045260246000fd5b1461238b5760405162461bcd60e51b815260040161069290612f6b565b606481600c015411156123b05760405162461bcd60e51b81526004016106929061339b565b6123be81600c015483611c83565b600c820181905560641015610c4f575050600480546001810182556000919091527f8a35acfbc15ff81a39ae7d344fd709f28e8600b4aa8c65c6b64bfe7fe36bd19b0155565b828054828255906000526020600020908101928215612459579160200282015b8281111561245957825182546001600160a01b0319166001600160a01b03909116178255602090920191600190910190612424565b50612465929150612576565b5090565b828054828255906000526020600020908101928215612459579160200282015b82811115612459578251825591602001919060010190612489565b8280548282559060005260206000209081019282156124f1579160200282015b828111156124f157825180516124e191849160209091019061258b565b50916020019190600101906124c4565b506124659291506125fe565b82805482825590600052602060002090810192821561254a579160200282015b8281111561254a578251805161253a91849160209091019061258b565b509160200191906001019061251d565b5061246592915061261b565b604080516060810182526000808252602082018190529181019190915290565b5b808211156124655760008155600101612577565b82805461259790613720565b90600052602060002090601f0160209004810192826125b95760008555612459565b82601f106125d257805160ff1916838001178555612459565b828001600101855582156124595791820182811115612459578251825591602001919060010190612489565b808211156124655760006126128282612638565b506001016125fe565b8082111561246557600061262f8282612638565b5060010161261b565b50805461264490613720565b6000825580601f106126565750612674565b601f0160209004906000526020600020908101906126749190612576565b50565b600061268a6126858461365e565b613610565b905082815283838301111561269e57600080fd5b828260208301376000602084830101529392505050565b80356001600160a01b03811681146110da57600080fd5b600082601f8301126126dc578081fd5b813560206126ec6126858361363a565b8281528181019085830183850287018401881015612708578586fd5b855b8581101561272d5761271b826126b5565b8452928401929084019060010161270a565b5090979650505050505050565b600082601f83011261274a578081fd5b8135602061275a6126858361363a565b82815281810190858301855b8581101561272d578135880189603f820112612780578788fd5b6127918a8783013560408401612677565b8552509284019290840190600101612766565b600082601f8301126127b4578081fd5b813560206127c46126858361363a565b82815281810190858301855b8581101561272d576127e7898684358b0101612862565b845292840192908401906001016127d0565b600082601f830112612809578081fd5b813560206128196126858361363a565b8281528181019085830183850287018401881015612835578586fd5b855b8581101561272d57813584529284019290840190600101612837565b8035600281106110da57600080fd5b600082601f830112612872578081fd5b611cb283833560208501612677565b600060208284031215612892578081fd5b611cb2826126b5565b600080604083850312156128ad578081fd5b6128b6836126b5565b946020939093013593505050565b60008060008060008060c087890312156128dc578182fd5b863567ffffffffffffffff808211156128f3578384fd5b6128ff8a838b016126cc565b97506020890135915080821115612914578384fd5b6129208a838b016127f9565b96506040890135915080821115612935578384fd5b6129418a838b016127a4565b95506060890135915080821115612956578384fd5b6129628a838b0161273a565b94506080890135915080821115612977578384fd5b5061298489828a01612862565b92505061299360a08801612853565b90509295509295509295565b6000602082840312156129b0578081fd5b8151611cb2816137b8565b6000602082840312156129cc578081fd5b5051919050565b6000602082840312156129e4578081fd5b815167ffffffffffffffff8111156129fa578182fd5b8201601f81018413612a0a578182fd5b8051612a186126858261365e565b818152856020838501011115612a2c578384fd5b612a3d8260208301602086016136f4565b95945050505050565b600060208284031215612a57578081fd5b5035919050565b60008060408385031215612a70578182fd5b82359150612a80602084016126b5565b90509250929050565b600080600060608486031215612a9d578081fd5b833592506020840135612aaf816137b8565b929592945050506040919091013590565b60008060408385031215612ad2578182fd5b50508035926020909101359150565b600060208284031215612af2578081fd5b81516bffffffffffffffffffffffff81168114611cb2578182fd5b6000815180845260208085019450808401835b83811015612b455781516001600160a01b031687529582019590820190600101612b20565b509495945050505050565b6000815180845260208085018081965082840281019150828601855b85811015612b96578284038952612b84848351612bd2565b98850198935090840190600101612b6c565b5091979650505050505050565b6000815180845260208085019450808401835b83811015612b4557815187529582019590820190600101612bb6565b60008151808452612bea8160208601602086016136f4565b601f01601f19169290920160200192915050565b805460009060028104600180831680612c1857607f831692505b6020808410821415612c3857634e487b7160e01b86526022600452602486fd5b838852818015612c4f5760018114612c6357612c91565b60ff19861689830152604089019650612c91565b876000528160002060005b86811015612c895781548b8201850152908501908301612c6e565b8a0183019750505b50505050505092915050565b60028110612cad57612cad61378c565b9052565b6001600160a01b0391909116815260200190565b600060018060a01b038616825284602083015260a06040830152601860a08301527f73657450656e64696e6741646d696e286164647265737329000000000000000060c083015260e06060830152612d2060e0830185612bd2565b905082608083015295945050505050565b6001600160a01b03929092168252602082015260400190565b6001600160a01b03949094168452602084019290925215156040830152606082015260800190565b600060018060a01b038716825285602083015260a06040830152612d9960a0830186612bd2565b8281036060840152612dab8186612bd2565b9150508260808301529695505050505050565b600060018060a01b038716825285602083015260a06040830152612de560a0830186612bfe565b8281036060840152612dab8186612bfe565b600060808252612e0a6080830187612b0d565b8281036020840152612e1c8187612ba3565b90508281036040840152612e308186612b50565b90508281036060840152612e448185612b50565b979650505050505050565b90815260200190565b6020810160088310612e6c57612e6c61378c565b91905290565b600060208252611cb26020830184612bd2565b60208082526027908201527f476f7665726e6f72416c7068613a2070726f706f7365722061626f76652074686040820152661c995cda1bdb1960ca1b606082015260800190565b6020808252603c908201527f476f7665726e6f72416c7068613a2070726f706f73616c2063616e206f6e6c7960408201527f2062652065786563757465642069662069742069732071756575656400000000606082015260800190565b60208082526022908201527f476f7665726e6f72416c7068613a20766f74657220616c726561647920766f74604082015261195960f21b606082015260800190565b60208082526021908201527f746869732070726f706f73616c20646f206e6f7420766f7465207072657061726040820152606560f81b606082015260800190565b60208082526022908201527f476f7665726e6f72416c7068613a20696e76616c69642070726f706f73616c206040820152611a5960f21b606082015260800190565b6020808252604f908201527f476f7665726e6f72416c7068613a206f6e65206c6976652070726f706f73616c60408201527f207065722070726f706f7365722c20666f756e6420616e20616c72656164792060608201526e1858dd1a5d99481c1c9bdc1bdcd85b608a1b608082015260a00190565b60208082526050908201527f476f7665726e6f72416c7068613a206f6e65206c6976652070726f706f73616c60408201527f207065722070726f706f7365722c20666f756e6420616e20616c72656164792060608201526f1c195b991a5b99c81c1c9bdc1bdcd85b60821b608082015260a00190565b60208082526023908201527f476f7665726e6f72416c7068613a206d7573742070726f7669646520616374696040820152626f6e7360e81b606082015260800190565b6020808252602a908201527f476f7665726e6f72416c7068613a2073656e646572206d75737420626520676f6040820152693b1033bab0b93234b0b760b11b606082015260800190565b6020808252601190820152701b9bc81858d8d95cdcc81d1bc811985cdd607a1b604082015260600190565b6020808252603b908201527f476f7665726e6f72416c7068613a2070726f706f73616c2066756e6374696f6e60408201527f20696e666f726d6174696f6e206172697479206d69736d617463680000000000606082015260800190565b6020808252601190820152706164646974696f6e206f766572666c6f7760781b604082015260600190565b60208082526017908201527f666f756e646174696f6e206d75737420616761696e7374000000000000000000604082015260600190565b60208082526021908201527f536166654d6174683a206d756c7469706c69636174696f6e206f766572666c6f6040820152607760f81b606082015260800190565b6020808252603d908201527f476f7665726e6f72416c7068613a2070726f706f73616c2063616e206f6e6c7960408201527f2062652071756575656420696620697420697320737563636565646564000000606082015260800190565b602080825260089082015267696e20717565756560c01b604082015260600190565b6020808252601f908201527f476f7665726e6f72416c7068613a20746f6f206d616e7920616374696f6e7300604082015260600190565b60208082526034908201527f476f7665726e6f72416c7068613a2070726f706f73616c20616374696f6e20616040820152736c7265616479207175657565642061742065746160601b606082015260800190565b6020808252600d908201526c616c726561647920616772656560981b604082015260600190565b602080825260169082015275536166654d6174683a20646976206f766572666c6f7760501b604082015260600190565b6020808252601f908201527f476f7665726e6f72416c7068613a20766f74696e6720697320636c6f73656400604082015260600190565b6020808252600b908201526a6e6f7420696e2074696d6560a81b604082015260600190565b6020808252601590820152747375627472616374696f6e20756e646572666c6f7760581b604082015260600190565b60208082526039908201527f476f7665726e6f72416c7068613a2063616e206f6e6c792063616e63656c204160408201527f6374697665206f722050656e64696e672050726f706f73616c00000000000000606082015260800190565b8151151581526020808301511515908201526040918201519181019190915260600190565b8881526001600160a01b03881660208201526101006040820181905260009061352a8382018a612b0d565b9050828103606084015261353e8189612ba3565b905082810360808401526135528188612b50565b905082810360a08401526135668187612b50565b60c0840195909552505060e001529695505050505050565b8d81526001600160a01b038d166020820152604081018c9052606081018b9052608081018a905260a0810189905260c0810188905286151560e08201528515156101008201526101a081016135d7610120830187612c9d565b6135e5610140830186612c9d565b61016082019390935261018001529b9a5050505050505050505050565b918252602082015260400190565b60405181810167ffffffffffffffff81118282101715613632576136326137a2565b604052919050565b600067ffffffffffffffff821115613654576136546137a2565b5060209081020190565b600067ffffffffffffffff821115613678576136786137a2565b50601f01601f191660200190565b6000821982111561369957613699613776565b500190565b6000826136b957634e487b7160e01b81526012600452602481fd5b500490565b60008160001904831182151516156136d8576136d8613776565b500290565b6000828210156136ef576136ef613776565b500390565b60005b8381101561370f5781810151838201526020016136f7565b838111156115d05750506000910152565b60028104600182168061373457607f821691505b6020821081141561375557634e487b7160e01b600052602260045260246000fd5b50919050565b600060001982141561376f5761376f613776565b5060010190565b634e487b7160e01b600052601160045260246000fd5b634e487b7160e01b600052602160045260246000fd5b634e487b7160e01b600052604160045260246000fd5b801515811461267457600080fdfea2646970667358221220f0bfe20696ba35b0ff853ca7d12f0124dd70b2b8ed11ad6f8681a71b408be90664736f6c63430008000033",
  "immutableReferences": {},
  "source": "pragma solidity ^0.8.0;\r\npragma experimental ABIEncoderV2;\r\n\r\n// Forked from Compound\r\n// See https://github.com/compound-finance/compound-protocol/blob/master/contracts/Governance/GovernorAlpha.sol\r\ncontract GovernorAlpha {\r\n    /// @notice The name of this contract\r\n    // solhint-disable-next-line const-name-snakecase\r\n    string public constant name = \"RainBow Governor Alpha\";\r\n\r\n    /// @notice The number of votes in support of a proposal required in order for a quorum to be reached and for a vote to succeed\r\n    function quorumVotes() public pure returns (uint) { return 25000000e18; } // 25,000,000 = 2.5% of Tribe\r\n\r\n    /// @notice The number of votes required in order for a voter to become a proposer\r\n    function proposalThreshold() public pure returns (uint) { return 2500000e18; } // 2,500,000 = .25% of Tribe\r\n\r\n    /// @notice The maximum number of actions that can be included in a proposal\r\n    function proposalMaxOperations() public pure returns (uint) { return 10; } // 10 actions\r\n\r\n    /// @notice The delay before voting on a proposal may take place, once proposed\r\n    function votingDelay() public pure returns (uint) { return 3333; } // ~0.5 days in blocks (assuming 13s blocks)\r\n    function votingCommunityDelay() public pure returns (uint) { return 93324; } // ~14 days in blocks (assuming 13s blocks)\r\n\r\n    /// @notice The duration of voting on a proposal, in blocks\r\n    function votingPeriod() public pure returns (uint) { return 46662; } // ~7 days in blocks (assuming 13s blocks)\r\n    function votingFastPeriod() public pure returns (uint) { return 6666; } // ~1 days in blocks (assuming 13s blocks)\r\n\r\n    /// @notice The address of the Fei Protocol Timelock\r\n    TimelockInterface public timelock;\r\n\r\n    /// @notice The address of the Fei governance token\r\n    TribeInterface public tribe;\r\n\r\n    /// @notice The address of the Governor Guardian\r\n    address public guardian;\r\n\r\n    /// @notice The total number of proposals\r\n    uint public proposalCount;\r\n\r\n    uint[] public voteProposal; //0! \r\n\r\n    struct Proposal {\r\n        uint id;\r\n\r\n        address proposer;\r\n\r\n        uint eta;\r\n\r\n        address[] targets;\r\n\r\n        uint[] values;\r\n\r\n        string[] signatures;\r\n\r\n        bytes[] calldatas;\r\n\r\n        uint startBlock;\r\n\r\n        uint endBlock;\r\n\r\n        uint forVotes;\r\n\r\n        uint againstVotes;\r\n\r\n        bool canceled;\r\n\r\n        bool executed;\r\n\r\n        Launch launchType;\r\n\r\n        Emergency emergencyType;\r\n\r\n        uint prepareVotes; //RIP-COMMUNITY\r\n\r\n        uint publicityPeriodVotes; //50%\r\n\r\n        mapping (address => Receipt) receipts;\r\n    }\r\n\r\n    /// @notice Ballot receipt record for a voter\r\n    struct Receipt {\r\n        bool hasVoted;\r\n\r\n        bool support;\r\n\r\n        uint votes;\r\n    }\r\n    \r\n    \r\n\r\n    enum Launch {Foundation,Community}\r\n    enum Emergency{Normal,Fast}\r\n    /// @notice Possible states that a proposal may be in\r\n    enum ProposalState {\r\n        Pending,\r\n        Active,\r\n        Canceled,\r\n        Defeated,\r\n        Succeeded,\r\n        Queued,\r\n        Expired,\r\n        Executed\r\n    }\r\n\r\n    /// @notice The official record of all proposals ever proposed\r\n    mapping (uint => Proposal) public proposals;\r\n\r\n    /// @notice The latest proposal for each proposer\r\n    mapping (address => uint) public latestProposalIds;\r\n\r\n    /// @notice The EIP-712 typehash for the contract's domain\r\n    bytes32 public constant DOMAIN_TYPEHASH = keccak256(\"EIP712Domain(string name,uint256 chainId,address verifyingContract)\");\r\n\r\n    /// @notice The EIP-712 typehash for the ballot struct used by the contract\r\n    bytes32 public constant BALLOT_TYPEHASH = keccak256(\"Ballot(uint256 proposalId,bool support)\");\r\n\r\n    /// @notice An event emitted when a new proposal is created\r\n    event ProposalCreated(uint id, address proposer, address[] targets, uint[] values, string[] signatures, bytes[] calldatas, uint startBlock, uint endBlock);\r\n\r\n    /// @notice An event emitted when a vote has been cast on a proposal\r\n    event VoteCast(address voter, uint proposalId, bool support, uint votes);\r\n\r\n    /// @notice An event emitted when a proposal has been canceled\r\n    event ProposalCanceled(uint id);\r\n\r\n    /// @notice An event emitted when a proposal has been queued in the Timelock\r\n    event ProposalQueued(uint id, uint eta);\r\n\r\n    /// @notice An event emitted when a proposal has been executed in the Timelock\r\n    event ProposalExecuted(uint id);\r\n\r\n    constructor(address timelock_, address tribe_, address guardian_) public {\r\n        timelock = TimelockInterface(timelock_);\r\n        tribe = TribeInterface(tribe_);\r\n        guardian = guardian_;\r\n    }\r\n\r\n    function propose(address[] memory targets, uint[] memory values, string[] memory signatures, bytes[] memory calldatas, string memory description,Emergency emergency) public returns (uint) {\r\n        //todo RBT-vote\r\n        // require(tribe.getPriorVotes(msg.sender, sub256(block.number, 1)) > proposalThreshold(), \"GovernorAlpha: proposer votes below proposal threshold\");\r\n        require(targets.length == values.length && targets.length == signatures.length && targets.length == calldatas.length, \"GovernorAlpha: proposal function information arity mismatch\");\r\n        require(targets.length != 0, \"GovernorAlpha: must provide actions\");\r\n        require(targets.length <= proposalMaxOperations(), \"GovernorAlpha: too many actions\");\r\n\r\n        uint latestProposalId = latestProposalIds[msg.sender];\r\n        if (latestProposalId != 0) {\r\n          ProposalState proposersLatestProposalState = state(latestProposalId);\r\n          require(proposersLatestProposalState != ProposalState.Active, \"GovernorAlpha: one live proposal per proposer, found an already active proposal\");\r\n          require(proposersLatestProposalState != ProposalState.Pending, \"GovernorAlpha: one live proposal per proposer, found an already pending proposal\");\r\n        }\r\n\r\n        //todo \r\n        address foundation;\r\n        \r\n        Launch launch =  (msg.sender == foundation) ? Launch.Foundation : Launch.Community;\r\n       \r\n\r\n        if(emergency == Emergency.Fast) require(msg.sender == foundation,'no access to Fast');\r\n\r\n        uint startBlock = (launch == Launch.Community) ?  add256(block.number, votingCommunityDelay()) : add256(block.number, votingDelay());\r\n        uint endBlock = (emergency == Emergency.Fast) ? add256(startBlock, votingFastPeriod()) : add256(startBlock, votingPeriod());\r\n\r\n        proposalCount++;\r\n        Proposal storage newProposal = proposals[proposalCount];\r\n        newProposal.id = proposalCount;\r\n        newProposal.proposer = msg.sender;\r\n        newProposal.eta = 0;\r\n        newProposal.targets = targets;\r\n        newProposal.values = values;\r\n        newProposal.prepareVotes = 0;\r\n        newProposal.signatures = signatures;\r\n        newProposal.calldatas = calldatas;\r\n        newProposal.startBlock = startBlock;\r\n        newProposal.endBlock = endBlock;\r\n        newProposal.publicityPeriodVotes = 0;\r\n        newProposal.forVotes = 0;\r\n        newProposal.againstVotes = 0;\r\n        newProposal.launchType = launch;\r\n        newProposal.emergencyType = emergency;\r\n        newProposal.canceled = false;\r\n        newProposal.executed = false;\r\n\r\n        if(launch == Launch.Foundation) {\r\n            voteProposal.push(newProposal.id);\r\n        }\r\n       \r\n        latestProposalIds[newProposal.proposer] = newProposal.id;\r\n\r\n        emit ProposalCreated(newProposal.id, msg.sender, targets, values, signatures, calldatas, startBlock, endBlock);\r\n        return newProposal.id;\r\n    }\r\n\r\n    function queue(uint proposalId) public {\r\n        require(state(proposalId) == ProposalState.Succeeded, \"GovernorAlpha: proposal can only be queued if it is succeeded\");\r\n\r\n        Proposal storage proposal = proposals[proposalId];\r\n        if(proposal.emergencyType == Emergency.Normal){\r\n            //   14s 318514\r\n            require(block.number > proposal.endBlock + 18514,'not in time');\r\n        } else if(proposal.emergencyType == Emergency.Fast){\r\n            //16173\r\n            require(block.number > proposal.endBlock + 6173,'not in time');\r\n        }\r\n\r\n        // solhint-disable-next-line not-rely-on-time\r\n        uint eta = add256(block.timestamp, timelock.delay());\r\n        for (uint i = 0; i < proposal.targets.length; i++) {\r\n            _queueOrRevert(proposal.targets[i], proposal.values[i], proposal.signatures[i], proposal.calldatas[i], eta);\r\n        }\r\n        proposal.eta = eta;\r\n        emit ProposalQueued(proposalId, eta);\r\n    }\r\n\r\n    function _queueOrRevert(address target, uint value, string memory signature, bytes memory data, uint eta) internal {\r\n        require(!timelock.queuedTransactions(keccak256(abi.encode(target, value, signature, data, eta))), \"GovernorAlpha: proposal action already queued at eta\");\r\n        timelock.queueTransaction(target, value, signature, data, eta);\r\n    }\r\n\r\n    function execute(uint proposalId) public payable {\r\n        require(state(proposalId) == ProposalState.Queued, \"GovernorAlpha: proposal can only be executed if it is queued\");\r\n        Proposal storage proposal = proposals[proposalId];\r\n        proposal.executed = true;\r\n        for (uint i = 0; i < proposal.targets.length; i++) {\r\n            timelock.executeTransaction{value : proposal.values[i]}(proposal.targets[i], proposal.values[i], proposal.signatures[i], proposal.calldatas[i], proposal.eta);\r\n        }\r\n        emit ProposalExecuted(proposalId);\r\n    }\r\n\r\n    function cancel(uint proposalId) public {\r\n        ProposalState state = state(proposalId);\r\n        require(state == ProposalState.Active || state == ProposalState.Pending, \"GovernorAlpha: can only cancel Active or Pending Proposal\");\r\n\r\n        Proposal storage proposal = proposals[proposalId];\r\n        require(msg.sender == guardian || tribe.getPriorVotes(proposal.proposer, sub256(block.number, 1)) < proposalThreshold(), \"GovernorAlpha: proposer above threshold\");\r\n\r\n        proposal.canceled = true;\r\n        for (uint i = 0; i < proposal.targets.length; i++) {\r\n            timelock.cancelTransaction(proposal.targets[i], proposal.values[i], proposal.signatures[i], proposal.calldatas[i], proposal.eta);\r\n        }\r\n\r\n        emit ProposalCanceled(proposalId);\r\n    }\r\n\r\n    function getActions(uint proposalId) public view returns (address[] memory targets, uint[] memory values, string[] memory signatures, bytes[] memory calldatas) {\r\n        Proposal storage p = proposals[proposalId];\r\n        return (p.targets, p.values, p.signatures, p.calldatas);\r\n    }\r\n\r\n    function getReceipt(uint proposalId, address voter) public view returns (Receipt memory) {\r\n        return proposals[proposalId].receipts[voter];\r\n    }\r\n\r\n    function state(uint proposalId) public view returns (ProposalState) {\r\n        require(proposalCount >= proposalId && proposalId > 0, \"GovernorAlpha: invalid proposal id\");\r\n        Proposal storage proposal = proposals[proposalId];\r\n        //todo \r\n        uint allTickets = 100;\r\n        if (proposal.canceled) {\r\n            return ProposalState.Canceled;\r\n        } else if (block.number <= proposal.startBlock) {\r\n            return ProposalState.Pending;\r\n        } else if (block.number <= proposal.endBlock) {\r\n            return ProposalState.Active;\r\n        } else if ((proposal.launchType == Launch.Foundation && proposal.againstVotes >= div(mul(50,allTickets),100)) || proposal.publicityPeriodVotes >= div(mul(50,allTickets),100)) {\r\n//        } else if (proposal.forVotes <= proposal.againstVotes || proposal.forVotes < quorumVotes()) {\r\n            return ProposalState.Defeated;\r\n        } else if (proposal.eta == 0) {\r\n            return ProposalState.Succeeded;\r\n        } else if (proposal.executed) {\r\n            return ProposalState.Executed;\r\n        // solhint-disable-next-line not-rely-on-time\r\n        } else if (block.timestamp >= add256(proposal.eta, timelock.GRACE_PERIOD())) {\r\n            return ProposalState.Expired;\r\n        } else {\r\n            return ProposalState.Queued;\r\n        }\r\n    }\r\n\r\n    function castVotePublicity(uint proposalId,uint amount) public {\r\n        _castVotePublicity(proposalId,amount);\r\n    }\r\n\r\n    function _castVotePublicity(uint proposalId,uint amount) internal{\r\n        //todo \r\n        require(state(proposalId) == ProposalState.Succeeded, \"GovernorAlpha: proposal can only be queued if it is succeeded\");\r\n        Proposal storage proposal = proposals[proposalId];\r\n        if(proposal.emergencyType == Emergency.Normal){\r\n            //   14s 318514\r\n            require(proposal.endBlock < block.number && block.number < proposal.endBlock + 18514,'not in time');\r\n        } else if(proposal.emergencyType == Emergency.Fast){\r\n            //16173\r\n            require(proposal.endBlock < block.number && block.number < proposal.endBlock + 6173,'not in time');\r\n        }\r\n        proposal.publicityPeriodVotes = add256(proposal.publicityPeriodVotes, amount);\r\n    }\r\n\r\n    function castVotePrepare(uint proposalId,uint amount) public {\r\n         _castVotePrepare(proposalId,amount);\r\n    }\r\n\r\n    function _castVotePrepare(uint proposalId,uint amount) internal {\r\n        //todo \r\n\r\n        //startBlock startBlock14blocknumber\r\n        require(state(proposalId) == ProposalState.Pending, \"GovernorAlpha: voting is closed\");\r\n        Proposal storage proposal = proposals[proposalId];\r\n        require(proposal.launchType == Launch.Community,'this proposal do not vote prepare');\r\n        //todo  1005%\r\n        require(proposal.prepareVotes <= 100 ,'already agree');\r\n        proposal.prepareVotes = add256(proposal.prepareVotes, amount);\r\n        //todo 5%   1005%\r\n        if(proposal.prepareVotes > 100 ) {\r\n            voteProposal.push(proposalId);\r\n        }\r\n    }\r\n\r\n    function castVote(uint proposalId, bool support,uint amount) public {\r\n        return _castVote(msg.sender, proposalId, support, amount);\r\n    }\r\n\r\n//    function castVoteBySig(uint proposalId, bool support, uint8 v, bytes32 r, bytes32 s) public {\r\n//        bytes32 domainSeparator = keccak256(abi.encode(DOMAIN_TYPEHASH, keccak256(bytes(name)), getChainId(), address(this)));\r\n//        bytes32 structHash = keccak256(abi.encode(BALLOT_TYPEHASH, proposalId, support));\r\n//        bytes32 digest = keccak256(abi.encodePacked(\"\\x19\\x01\", domainSeparator, structHash));\r\n//        address signatory = ecrecover(digest, v, r, s);\r\n//        require(signatory != address(0), \"GovernorAlpha: invalid signature\");\r\n//        return _castVote(signatory, proposalId, support);\r\n//    }\r\n\r\n    function _castVote(address voter, uint proposalId, bool support,uint amount) internal {\r\n        //\r\n        //1.votePrepare\r\n        //2.votePrepare\r\n\r\n\r\n        require(state(proposalId) == ProposalState.Active, \"GovernorAlpha: voting is closed\");\r\n        Proposal storage proposal = proposals[proposalId];\r\n        Receipt storage receipt = proposal.receipts[voter];\r\n\r\n        if(proposal.emergencyType == Emergency.Normal) {\r\n            //2\r\n            if(state(voteProposal[0]) != ProposalState.Active){\r\n                require(voteProposal[1] == proposalId,'in queue');\r\n                delete voteProposal[0];\r\n            }else{\r\n                //\r\n                require(voteProposal[0] == proposalId ,'in queue');\r\n            }\r\n        }\r\n\r\n        //todo \r\n        require(receipt.hasVoted == false, \"GovernorAlpha: voter already voted\");\r\n//        uint96 votes = tribe.getPriorVotes(voter, proposal.startBlock);\r\n        //todo \r\n        if(proposal.launchType == Launch.Foundation) require(support == false ,'foundation must against');\r\n        if (support) {\r\n            proposal.forVotes = add256(proposal.forVotes, amount);\r\n        } else {\r\n            proposal.againstVotes = add256(proposal.againstVotes, amount);\r\n        }\r\n\r\n        receipt.hasVoted = true;\r\n        receipt.support = support;\r\n        receipt.votes = amount;\r\n\r\n        emit VoteCast(voter, proposalId, support, amount);\r\n    }\r\n\r\n    function __acceptAdmin() public {\r\n        require(msg.sender == guardian, \"GovernorAlpha: sender must be gov guardian\");\r\n        timelock.acceptAdmin();\r\n    }\r\n\r\n    function __abdicate() public {\r\n        require(msg.sender == guardian, \"GovernorAlpha: sender must be gov guardian\");\r\n        guardian = address(0);\r\n    }\r\n\r\n    function __transferGuardian(address newGuardian) public {\r\n        require(msg.sender == guardian, \"GovernorAlpha: sender must be gov guardian\");\r\n        guardian = newGuardian;\r\n    }\r\n\r\n    function __queueSetTimelockPendingAdmin(address newPendingAdmin, uint eta) public {\r\n        require(msg.sender == guardian, \"GovernorAlpha: sender must be gov guardian\");\r\n        timelock.queueTransaction(address(timelock), 0, \"setPendingAdmin(address)\", abi.encode(newPendingAdmin), eta);\r\n    }\r\n\r\n    function __executeSetTimelockPendingAdmin(address newPendingAdmin, uint eta) public {\r\n        require(msg.sender == guardian, \"GovernorAlpha: sender must be gov guardian\");\r\n        timelock.executeTransaction(address(timelock), 0, \"setPendingAdmin(address)\", abi.encode(newPendingAdmin), eta);\r\n    }\r\n\r\n    function add256(uint256 a, uint256 b) internal pure returns (uint) {\r\n        uint c = a + b;\r\n        require(c >= a, \"addition overflow\");\r\n        return c;\r\n    }\r\n\r\n    function mul(uint256 a, uint256 b) internal pure returns (uint256) {\r\n        // Gas optimization: this is cheaper than requiring 'a' not being zero, but the\r\n        // benefit is lost if 'b' is also tested.\r\n        // See: https://github.com/OpenZeppelin/openzeppelin-contracts/pull/522\r\n        if (a == 0) {\r\n            return 0;\r\n        }\r\n\r\n        uint256 c = a * b;\r\n        require(c / a == b, \"SafeMath: multiplication overflow\");\r\n\r\n        return c;\r\n    }\r\n    \r\n    \r\n    function div(uint256 a, uint256 b) internal pure returns (uint256) {\r\n        require(b > 0, \"SafeMath: div overflow\");\r\n        uint256 c = a / b;\r\n        // assert(a == b * c + a % b); // There is no case in which this doesn't hold\r\n\r\n        return c;\r\n    }\r\n    function sub256(uint256 a, uint256 b) internal pure returns (uint) {\r\n        require(b <= a, \"subtraction underflow\");\r\n        return a - b;\r\n    }\r\n\r\n    function getChainId() internal view returns (uint) {\r\n        uint chainId;\r\n        // solhint-disable-next-line no-inline-assembly\r\n        assembly { chainId := chainid() }\r\n        return chainId;\r\n    }\r\n}\r\n\r\ninterface TimelockInterface {\r\n    function delay() external view returns (uint);\r\n    // solhint-disable-next-line func-name-mixedcase\r\n    function GRACE_PERIOD() external view returns (uint);\r\n    function acceptAdmin() external;\r\n    function queuedTransactions(bytes32 hash) external view returns (bool);\r\n    function queueTransaction(address target, uint value, string calldata signature, bytes calldata data, uint eta) external returns (bytes32);\r\n    function cancelTransaction(address target, uint value, string calldata signature, bytes calldata data, uint eta) external;\r\n    function executeTransaction(address target, uint value, string calldata signature, bytes calldata data, uint eta) external payable returns (bytes memory);\r\n}\r\n\r\ninterface TribeInterface {\r\n    function getPriorVotes(address account, uint blockNumber) external view returns (uint96);\r\n}",
  "sourcePath": "D://rainbow/RainbowDao-protocol/contracts/referendum/GovernorAlpha.sol",
  "compiler": {
    "name": "solc",
    "version": "0.8.0+commit.c7dfd78e.Emscripten.clang"
  },
  "schemaVersion": "3.4.1",
  "updatedAt": "2021-10-08T01:43:01.153Z",
  "devdoc": {
    "kind": "dev",
    "methods": {},
    "version": 1
  },
  "userdoc": {
    "events": {
      "ProposalCanceled(uint256)": {
        "notice": "An event emitted when a proposal has been canceled"
      },
      "ProposalCreated(uint256,address,address[],uint256[],string[],bytes[],uint256,uint256)": {
        "notice": "An event emitted when a new proposal is created"
      },
      "ProposalExecuted(uint256)": {
        "notice": "An event emitted when a proposal has been executed in the Timelock"
      },
      "ProposalQueued(uint256,uint256)": {
        "notice": "An event emitted when a proposal has been queued in the Timelock"
      },
      "VoteCast(address,uint256,bool,uint256)": {
        "notice": "An event emitted when a vote has been cast on a proposal"
      }
    },
    "kind": "user",
    "methods": {
      "BALLOT_TYPEHASH()": {
        "notice": "The EIP-712 typehash for the ballot struct used by the contract"
      },
      "DOMAIN_TYPEHASH()": {
        "notice": "The EIP-712 typehash for the contract's domain"
      },
      "guardian()": {
        "notice": "The address of the Governor Guardian"
      },
      "latestProposalIds(address)": {
        "notice": "The latest proposal for each proposer"
      },
      "name()": {
        "notice": "The name of this contract"
      },
      "proposalCount()": {
        "notice": "The total number of proposals"
      },
      "proposalMaxOperations()": {
        "notice": "The maximum number of actions that can be included in a proposal"
      },
      "proposalThreshold()": {
        "notice": "The number of votes required in order for a voter to become a proposer"
      },
      "proposals(uint256)": {
        "notice": "The official record of all proposals ever proposed"
      },
      "quorumVotes()": {
        "notice": "The number of votes in support of a proposal required in order for a quorum to be reached and for a vote to succeed"
      },
      "timelock()": {
        "notice": "The address of the Fei Protocol Timelock"
      },
      "tribe()": {
        "notice": "The address of the Fei governance token"
      },
      "votingDelay()": {
        "notice": "The delay before voting on a proposal may take place, once proposed"
      },
      "votingPeriod()": {
        "notice": "The duration of voting on a proposal, in blocks"
      }
    },
    "version": 1
  }
}