{
  "contractName": "Governance721",
  "abi": [
    {
      "inputs": [
        {
          "internalType": "address",
          "name": "core",
          "type": "address"
        },
        {
          "internalType": "address",
          "name": "_exchangeGovernance721",
          "type": "address"
        },
        {
          "internalType": "string",
          "name": "_name",
          "type": "string"
        }
      ],
      "stateMutability": "nonpayable",
      "type": "constructor"
    },
    {
      "anonymous": false,
      "inputs": [
        {
          "indexed": true,
          "internalType": "address",
          "name": "owner",
          "type": "address"
        },
        {
          "indexed": true,
          "internalType": "address",
          "name": "approved",
          "type": "address"
        },
        {
          "indexed": true,
          "internalType": "uint256",
          "name": "tokenId",
          "type": "uint256"
        }
      ],
      "name": "Approval",
      "type": "event"
    },
    {
      "anonymous": false,
      "inputs": [
        {
          "indexed": true,
          "internalType": "address",
          "name": "owner",
          "type": "address"
        },
        {
          "indexed": true,
          "internalType": "address",
          "name": "operator",
          "type": "address"
        },
        {
          "indexed": false,
          "internalType": "bool",
          "name": "approved",
          "type": "bool"
        }
      ],
      "name": "ApprovalForAll",
      "type": "event"
    },
    {
      "anonymous": false,
      "inputs": [
        {
          "indexed": true,
          "internalType": "address",
          "name": "_core",
          "type": "address"
        }
      ],
      "name": "CoreUpdate",
      "type": "event"
    },
    {
      "anonymous": false,
      "inputs": [
        {
          "indexed": true,
          "internalType": "address",
          "name": "from",
          "type": "address"
        },
        {
          "indexed": true,
          "internalType": "address",
          "name": "to",
          "type": "address"
        },
        {
          "indexed": true,
          "internalType": "uint256",
          "name": "tokenId",
          "type": "uint256"
        }
      ],
      "name": "Transfer",
      "type": "event"
    },
    {
      "inputs": [],
      "name": "Lengths",
      "outputs": [
        {
          "internalType": "uint256",
          "name": "",
          "type": "uint256"
        }
      ],
      "stateMutability": "view",
      "type": "function"
    },
    {
      "inputs": [],
      "name": "Rbt",
      "outputs": [
        {
          "internalType": "contract IERC20",
          "name": "",
          "type": "address"
        }
      ],
      "stateMutability": "view",
      "type": "function"
    },
    {
      "inputs": [],
      "name": "core",
      "outputs": [
        {
          "internalType": "contract ICore",
          "name": "",
          "type": "address"
        }
      ],
      "stateMutability": "view",
      "type": "function"
    },
    {
      "inputs": [],
      "name": "name",
      "outputs": [
        {
          "internalType": "string",
          "name": "",
          "type": "string"
        }
      ],
      "stateMutability": "view",
      "type": "function"
    },
    {
      "inputs": [
        {
          "internalType": "address",
          "name": "core",
          "type": "address"
        }
      ],
      "name": "setCore",
      "outputs": [],
      "stateMutability": "nonpayable",
      "type": "function"
    },
    {
      "inputs": [
        {
          "internalType": "uint256",
          "name": "times",
          "type": "uint256"
        },
        {
          "internalType": "address",
          "name": "from",
          "type": "address"
        }
      ],
      "name": "mint",
      "outputs": [
        {
          "internalType": "uint256",
          "name": "",
          "type": "uint256"
        }
      ],
      "stateMutability": "nonpayable",
      "type": "function"
    },
    {
      "inputs": [
        {
          "internalType": "uint256",
          "name": "_tokenId",
          "type": "uint256"
        }
      ],
      "name": "ownerOf",
      "outputs": [
        {
          "internalType": "address",
          "name": "owner",
          "type": "address"
        }
      ],
      "stateMutability": "view",
      "type": "function"
    },
    {
      "inputs": [],
      "name": "getAllInvalidToken",
      "outputs": [
        {
          "internalType": "uint256[]",
          "name": "",
          "type": "uint256[]"
        }
      ],
      "stateMutability": "nonpayable",
      "type": "function"
    },
    {
      "inputs": [
        {
          "internalType": "address",
          "name": "user",
          "type": "address"
        }
      ],
      "name": "userUsableTonken",
      "outputs": [
        {
          "internalType": "uint16",
          "name": "num",
          "type": "uint16"
        }
      ],
      "stateMutability": "nonpayable",
      "type": "function"
    },
    {
      "inputs": [],
      "name": "usableTotalSupply",
      "outputs": [
        {
          "internalType": "uint256",
          "name": "usableTotalSupply",
          "type": "uint256"
        }
      ],
      "stateMutability": "view",
      "type": "function"
    },
    {
      "inputs": [],
      "name": "totalSupply",
      "outputs": [
        {
          "internalType": "uint256",
          "name": "totalSupply",
          "type": "uint256"
        }
      ],
      "stateMutability": "view",
      "type": "function"
    },
    {
      "inputs": [
        {
          "internalType": "address",
          "name": "_owner",
          "type": "address"
        }
      ],
      "name": "usableBalanceOf",
      "outputs": [
        {
          "internalType": "uint256",
          "name": "usableBalanceOf",
          "type": "uint256"
        }
      ],
      "stateMutability": "view",
      "type": "function"
    },
    {
      "inputs": [
        {
          "internalType": "address",
          "name": "_owner",
          "type": "address"
        }
      ],
      "name": "balanceOf",
      "outputs": [
        {
          "internalType": "uint256",
          "name": "balance",
          "type": "uint256"
        }
      ],
      "stateMutability": "view",
      "type": "function"
    },
    {
      "inputs": [
        {
          "internalType": "uint256",
          "name": "tokenId",
          "type": "uint256"
        }
      ],
      "name": "expire",
      "outputs": [
        {
          "internalType": "uint256",
          "name": "",
          "type": "uint256"
        }
      ],
      "stateMutability": "view",
      "type": "function"
    },
    {
      "inputs": [
        {
          "internalType": "uint256",
          "name": "tokenId",
          "type": "uint256"
        }
      ],
      "name": "_exists",
      "outputs": [
        {
          "internalType": "bool",
          "name": "",
          "type": "bool"
        }
      ],
      "stateMutability": "view",
      "type": "function"
    },
    {
      "inputs": [
        {
          "internalType": "address",
          "name": "owner",
          "type": "address"
        },
        {
          "internalType": "uint256",
          "name": "index",
          "type": "uint256"
        }
      ],
      "name": "tokenOfOwnerByIndex",
      "outputs": [
        {
          "internalType": "uint256",
          "name": "",
          "type": "uint256"
        }
      ],
      "stateMutability": "view",
      "type": "function"
    },
    {
      "inputs": [
        {
          "internalType": "uint256",
          "name": "_tokenId",
          "type": "uint256"
        }
      ],
      "name": "tokenMetadata",
      "outputs": [
        {
          "components": [
            {
              "internalType": "address",
              "name": "owner",
              "type": "address"
            },
            {
              "internalType": "uint256",
              "name": "tokenId",
              "type": "uint256"
            },
            {
              "internalType": "uint256",
              "name": "startTime",
              "type": "uint256"
            },
            {
              "internalType": "uint256",
              "name": "expireTime",
              "type": "uint256"
            }
          ],
          "internalType": "struct Governance721.Governance721",
          "name": "",
          "type": "tuple"
        }
      ],
      "stateMutability": "view",
      "type": "function"
    },
    {
      "inputs": [
        {
          "internalType": "address",
          "name": "_from",
          "type": "address"
        },
        {
          "internalType": "address",
          "name": "_to",
          "type": "address"
        },
        {
          "internalType": "uint256",
          "name": "_tokenId",
          "type": "uint256"
        }
      ],
      "name": "transfer",
      "outputs": [],
      "stateMutability": "nonpayable",
      "type": "function"
    },
    {
      "inputs": [
        {
          "internalType": "address",
          "name": "_to",
          "type": "address"
        },
        {
          "internalType": "uint256",
          "name": "_tokenId",
          "type": "uint256"
        }
      ],
      "name": "approve",
      "outputs": [],
      "stateMutability": "nonpayable",
      "type": "function"
    },
    {
      "inputs": [
        {
          "internalType": "uint256",
          "name": "tokenId",
          "type": "uint256"
        }
      ],
      "name": "getApproved",
      "outputs": [
        {
          "internalType": "address",
          "name": "",
          "type": "address"
        }
      ],
      "stateMutability": "view",
      "type": "function"
    },
    {
      "inputs": [
        {
          "internalType": "address",
          "name": "operator",
          "type": "address"
        },
        {
          "internalType": "bool",
          "name": "approved",
          "type": "bool"
        }
      ],
      "name": "setApprovalForAll",
      "outputs": [],
      "stateMutability": "nonpayable",
      "type": "function"
    },
    {
      "inputs": [
        {
          "internalType": "address",
          "name": "owner",
          "type": "address"
        },
        {
          "internalType": "address",
          "name": "operator",
          "type": "address"
        }
      ],
      "name": "isApprovedForAll",
      "outputs": [
        {
          "internalType": "bool",
          "name": "",
          "type": "bool"
        }
      ],
      "stateMutability": "view",
      "type": "function"
    },
    {
      "inputs": [
        {
          "internalType": "address",
          "name": "from",
          "type": "address"
        },
        {
          "internalType": "address",
          "name": "to",
          "type": "address"
        },
        {
          "internalType": "uint256",
          "name": "tokenId",
          "type": "uint256"
        }
      ],
      "name": "safeTransferFrom",
      "outputs": [],
      "stateMutability": "nonpayable",
      "type": "function"
    },
    {
      "inputs": [
        {
          "internalType": "address",
          "name": "from",
          "type": "address"
        },
        {
          "internalType": "address",
          "name": "to",
          "type": "address"
        },
        {
          "internalType": "uint256",
          "name": "tokenId",
          "type": "uint256"
        },
        {
          "internalType": "bytes",
          "name": "_data",
          "type": "bytes"
        }
      ],
      "name": "safeTransferFrom",
      "outputs": [],
      "stateMutability": "nonpayable",
      "type": "function"
    }
  ],
  "bytecode": "0x60806040523480156200001157600080fd5b5060405162001bf838038062001bf8833981016040819052620000349162000150565b600080546001600160a01b0319166001600160a01b0385161790558051620000649060019060208401906200008d565b5050600680546001600160a01b0319166001600160a01b0392909216919091179055506200029a565b8280546200009b9062000247565b90600052602060002090601f016020900481019282620000bf57600085556200010a565b82601f10620000da57805160ff19168380011785556200010a565b828001600101855582156200010a579182015b828111156200010a578251825591602001919060010190620000ed565b50620001189291506200011c565b5090565b5b808211156200011857600081556001016200011d565b80516001600160a01b03811681146200014b57600080fd5b919050565b60008060006060848603121562000165578283fd5b620001708462000133565b925060206200018181860162000133565b60408601519093506001600160401b03808211156200019e578384fd5b818701915087601f830112620001b2578384fd5b815181811115620001c757620001c762000284565b604051601f8201601f1916810185018381118282101715620001ed57620001ed62000284565b60405281815283820185018a101562000204578586fd5b8592505b8183101562000227578383018501518184018601529184019162000208565b818311156200023857858583830101525b80955050505050509250925092565b6002810460018216806200025c57607f821691505b602082108114156200027e57634e487b7160e01b600052602260045260246000fd5b50919050565b634e487b7160e01b600052604160045260246000fd5b61194e80620002aa6000396000f3fe608060405234801561001057600080fd5b50600436106101585760003560e01c806380009630116100c3578063bf81bf431161007c578063bf81bf43146102d5578063d0933400146102e8578063e985e9c5146102f0578063ebec775214610310578063f2f4eb2614610323578063f8e76cc01461032b57610158565b8063800096301461026157806394bf804d146102745780639ec3865f14610287578063a22cb4651461029c578063b88d4fde146102af578063beabacc8146102c257610158565b806342842e0e1161011557806342842e0e146101e05780634fd38a2e146101f3578063608dda99146102135780636352211e1461021b5780636914db601461022e57806370a082311461024e57610158565b806306fdde031461015d578063081812fc1461017b578063095ea7b31461019b578063135b54dd146101b057806318160ddd146101b85780632f745c59146101cd575b600080fd5b61016561033e565b6040516101729190611596565b60405180910390f35b61018e61018936600461146f565b6103cc565b60405161017291906114f6565b6101ae6101a93660046113e4565b610418565b005b61018e610547565b6101c06105d3565b60405161017291906117f6565b6101c06101db3660046113e4565b6105d9565b6101ae6101ee3660046112a7565b610604565b61020661020136600461124c565b610624565b60405161017291906117e7565b6101c061072d565b61018e61022936600461146f565b61073f565b61024161023c36600461146f565b61078c565b60405161017291906117b3565b6101c061025c36600461124c565b610810565b6101ae61026f36600461124c565b610831565b6101c0610282366004611487565b610915565b61028f610a89565b6040516101729190611547565b6101ae6102aa3660046113b7565b610bdd565b6101ae6102bd3660046112e7565b610c75565b6101ae6102d03660046112a7565b610cae565b6101c06102e336600461146f565b610e1c565b6101c0610e62565b6103036102fe36600461126f565b610e68565b604051610172919061158b565b6101c061031e36600461124c565b610e96565b61018e610ecb565b61030361033936600461146f565b610eda565b6001805461034b9061182e565b80601f01602080910402602001604051908101604052809291908181526020018280546103779061182e565b80156103c45780601f10610399576101008083540402835291602001916103c4565b820191906000526020600020905b8154815290600101906020018083116103a757829003601f168201915b505050505081565b60006103d782610eda565b6103fc5760405162461bcd60e51b81526004016103f3906116b8565b60405180910390fd5b506000908152600c60205260409020546001600160a01b031690565b600a818154811061043957634e487b7160e01b600052603260045260246000fd5b60009182526020909120600490910201546001600160a01b031633148015610492575042600a828154811061047e57634e487b7160e01b600052603260045260246000fd5b906000526020600020906004020160030154115b61049b57600080fd5b336001600160a01b03831614156104b157600080fd5b6000818152600c6020526040902080546001600160a01b0319166001600160a01b038416908117909155600a8054839291908390811061050157634e487b7160e01b600052603260045260246000fd5b600091825260208220600490910201546040516001600160a01b03909116917f8c5be1e5ebec7d5bd14f71427d1e84f3dd0314c0f7b2291e5b200ac8c7c3b92591a45050565b60008060009054906101000a90046001600160a01b03166001600160a01b03166318f7d8626040518163ffffffff1660e01b815260040160206040518083038186803b15801561059657600080fd5b505afa1580156105aa573d6000803e3d6000fd5b505050506040513d601f19601f820116820180604052508101906105ce9190611453565b905090565b60075490565b6001600160a01b0382166000908152600b602052604081206105fb9083610f29565b90505b92915050565b61061f83838360405180602001604052806000815250610c75565b505050565b600080610636640100000000426118a6565b6001600160a01b0384166000908152600b602052604081209192509061065b90610f82565b905060005b8181101561071d576001600160a01b0385166000908152600b6020526040902063ffffffff80851691600a9160019161069b918690610f2916565b6106a59190611817565b815481106106c357634e487b7160e01b600052603260045260246000fd5b906000526020600020906004020160030154101561070b576008805461ffff169060006106ef83611869565b91906101000a81548161ffff021916908361ffff160217905550505b806107158161188b565b915050610660565b505060085461ffff169392505050565b6009546007546000916105ce91611817565b6000600a61074e600184611817565b8154811061076c57634e487b7160e01b600052603260045260246000fd5b60009182526020909120600490910201546001600160a01b031692915050565b61079461121b565b600a6107a1600184611817565b815481106107bf57634e487b7160e01b600052603260045260246000fd5b600091825260209182902060408051608081018252600490930290910180546001600160a01b0316835260018101549383019390935260028301549082015260039091015460608201529050919050565b6001600160a01b0381166000908152600b602052604081206105fe90610f82565b600054604051631c86b03760e31b81526001600160a01b039091169063e43581b8906108619033906004016114f6565b60206040518083038186803b15801561087957600080fd5b505afa15801561088d573d6000803e3d6000fd5b505050506040513d601f19601f820116820180604052508101906108b1919061140f565b6108cd5760405162461bcd60e51b81526004016103f39061174d565b600080546001600160a01b0319166001600160a01b038316908117825560405190917fad9400e618eb1344fde53db22397a1b82c765527ecbba3a5c86bcac15090828b91a250565b6006546000906001600160a01b031633146109425760405162461bcd60e51b81526004016103f39061178e565b6000610953640100000000426118a6565b600a549091506000906109679060016117ff565b604080516080810182526001600160a01b03878116808352602080840186815263ffffffff898116868801908152606087018e8152600a805460018101825560008281528a517fc65a7bb8d6351c1cf70c95a316cc6a92839c986682d98bc35f958f4883f9d2a8600490930292830180546001600160a01b03191691909b161790995594517fc65a7bb8d6351c1cf70c95a316cc6a92839c986682d98bc35f958f4883f9d2a986015591517fc65a7bb8d6351c1cf70c95a316cc6a92839c986682d98bc35f958f4883f9d2aa850155517fc65a7bb8d6351c1cf70c95a316cc6a92839c986682d98bc35f958f4883f9d2ab909301929092559054600755918352600b905292902092935091610a7e918490610f8616565b509095945050505050565b60606000610a9c640100000000426118a6565b905060005b600754811015610b85576000600a8281548110610ace57634e487b7160e01b600052603260045260246000fd5b600091825260209182902060408051608081018252600490930290910180546001600160a01b031683526001810154938301939093526002830154908201526003909101546060820181905290915063ffffffff84161115610b72576009600a8381548110610b4d57634e487b7160e01b600052603260045260246000fd5b6000918252602080832060016004909302018201548454928301855593835290912001555b5080610b7d8161188b565b915050610aa1565b506009805480602002602001604051908101604052809291908181526020018280548015610bd257602002820191906000526020600020905b815481526020019060010190808311610bbe575b505050505091505090565b6001600160a01b038216331415610c065760405162461bcd60e51b81526004016103f390611681565b336000818152600d602090815260408083206001600160a01b038716808552925291829020805460ff191685151517905590519091907f17307eab39ab6107e8899845ad3d59bd9653f200f220920489ca2b5937696c3190610c6990859061158b565b60405180910390a35050565b610c80848484610cae565b610c8c84848484610fd1565b610ca85760405162461bcd60e51b81526004016103f3906115eb565b50505050565b826001600160a01b0316610cc18261073f565b6001600160a01b0316148015610d08575042600a8281548110610cf457634e487b7160e01b600052603260045260246000fd5b906000526020600020906004020160030154115b610d245760405162461bcd60e51b81526004016103f390611704565b6001600160a01b038216610d4a5760405162461bcd60e51b81526004016103f39061163d565b6001600160a01b0383166000908152600b60205260409020610d6c90826110dd565b506001600160a01b0382166000908152600b60205260409020610d8f9082610f86565b5081600a610d9e600184611817565b81548110610dbc57634e487b7160e01b600052603260045260246000fd5b6000918252602082206004919091020180546001600160a01b0319166001600160a01b03938416179055604051839285811692908716917fddf252ad1be2c89b69c2b068fc378daa952ba7f163c4a11628f55a4df523b3ef9190a4505050565b6000600a610e2b600184611817565b81548110610e4957634e487b7160e01b600052603260045260246000fd5b9060005260206000209060040201600301549050919050565b60075481565b6001600160a01b039182166000908152600d6020908152604080832093909416825291909152205460ff1690565b6008546001600160a01b0382166000908152600b60205260408120909161ffff1690610ec190610f82565b6105fe9190611817565b6000546001600160a01b031690565b6000806001600160a01b0316600a8381548110610f0757634e487b7160e01b600052603260045260246000fd5b60009182526020909120600490910201546001600160a01b0316141592915050565b81546000908210610f4c5760405162461bcd60e51b81526004016103f3906115a9565b826000018281548110610f6f57634e487b7160e01b600052603260045260246000fd5b6000918252602090912001549392505050565b5490565b6000610f9283836111fd565b610fc8575081546001818101845560008481526020808220909301849055845484825282860190935260409020919091556105fe565b50600092915050565b6000610fdc84611215565b156110d157604051630a85bd0160e11b81526001600160a01b0385169063150b7a029061101390339089908890889060040161150a565b602060405180830381600087803b15801561102d57600080fd5b505af192505050801561105d575060408051601f3d908101601f1916820190925261105a9181019061142b565b60015b6110b7573d80801561108b576040519150601f19603f3d011682016040523d82523d6000602084013e611090565b606091505b5080516110af5760405162461bcd60e51b81526004016103f3906115eb565b805181602001fd5b6001600160e01b031916630a85bd0160e11b1490506110d5565b5060015b949350505050565b600081815260018301602052604081205480156111f3576000611101600183611817565b855490915060009061111590600190611817565b9050600086600001828154811061113c57634e487b7160e01b600052603260045260246000fd5b906000526020600020015490508087600001848154811061116d57634e487b7160e01b600052603260045260246000fd5b6000918252602090912001556111848360016117ff565b600082815260018901602052604090205586548790806111b457634e487b7160e01b600052603160045260246000fd5b600190038181906000526020600020016000905590558660010160008760001b81526020019081526020016000206000905560019450505050506105fe565b5060009392505050565b60009081526001919091016020526040902054151590565b3b151590565b604051806080016040528060006001600160a01b031681526020016000815260200160008152602001600081525090565b60006020828403121561125d578081fd5b8135611268816118f2565b9392505050565b60008060408385031215611281578081fd5b823561128c816118f2565b9150602083013561129c816118f2565b809150509250929050565b6000806000606084860312156112bb578081fd5b83356112c6816118f2565b925060208401356112d6816118f2565b929592945050506040919091013590565b600080600080608085870312156112fc578081fd5b8435611307816118f2565b9350602085810135611318816118f2565b935060408601359250606086013567ffffffffffffffff8082111561133b578384fd5b818801915088601f83011261134e578384fd5b813581811115611360576113606118dc565b604051601f8201601f1916810185018381118282101715611383576113836118dc565b60405281815283820185018b1015611399578586fd5b81858501868301379081019093019390935250939692955090935050565b600080604083850312156113c9578182fd5b82356113d4816118f2565b9150602083013561129c8161190a565b600080604083850312156113f6578182fd5b8235611401816118f2565b946020939093013593505050565b600060208284031215611420578081fd5b81516112688161190a565b60006020828403121561143c578081fd5b81516001600160e01b031981168114611268578182fd5b600060208284031215611464578081fd5b8151611268816118f2565b600060208284031215611480578081fd5b5035919050565b60008060408385031215611499578182fd5b82359150602083013561129c816118f2565b60008151808452815b818110156114d0576020818501810151868301820152016114b4565b818111156114e15782602083870101525b50601f01601f19169290920160200192915050565b6001600160a01b0391909116815260200190565b6001600160a01b038581168252841660208201526040810183905260806060820181905260009061153d908301846114ab565b9695505050505050565b6020808252825182820181905260009190848201906040850190845b8181101561157f57835183529284019291840191600101611563565b50909695505050505050565b901515815260200190565b6000602082526105fb60208301846114ab565b60208082526022908201527f456e756d657261626c655365743a20696e646578206f7574206f6620626f756e604082015261647360f01b606082015260800190565b60208082526032908201527f4552433732313a207472616e7366657220746f206e6f6e20455243373231526560408201527131b2b4bb32b91034b6b83632b6b2b73a32b960711b606082015260800190565b60208082526024908201527f4552433732313a207472616e7366657220746f20746865207a65726f206164646040820152637265737360e01b606082015260800190565b60208082526019908201527f4552433732313a20617070726f766520746f2063616c6c657200000000000000604082015260600190565b6020808252602c908201527f4552433732313a20617070726f76656420717565727920666f72206e6f6e657860408201526b34b9ba32b73a103a37b5b2b760a11b606082015260800190565b60208082526029908201527f4552433732313a207472616e73666572206f6620746f6b656e2074686174206960408201526839903737ba1037bbb760b91b606082015260800190565b60208082526021908201527f436f72655265663a2043616c6c6572206973206e6f74206120676f7665726e6f6040820152603960f91b606082015260800190565b6020808252600b908201526a6973206e6f742062616e6b60a81b604082015260600190565b81516001600160a01b0316815260208083015190820152604080830151908201526060918201519181019190915260800190565b61ffff91909116815260200190565b90815260200190565b60008219821115611812576118126118c6565b500190565b600082821015611829576118296118c6565b500390565b60028104600182168061184257607f821691505b6020821081141561186357634e487b7160e01b600052602260045260246000fd5b50919050565b600061ffff80831681811415611881576118816118c6565b6001019392505050565b600060001982141561189f5761189f6118c6565b5060010190565b6000826118c157634e487b7160e01b81526012600452602481fd5b500690565b634e487b7160e01b600052601160045260246000fd5b634e487b7160e01b600052604160045260246000fd5b6001600160a01b038116811461190757600080fd5b50565b801515811461190757600080fdfea2646970667358221220f4f785d2218c6b9d7b47216008ad84adc954e9a2a549451315979a6d06385fc564736f6c63430008000033",
  "immutableReferences": {},
  "source": "\r\npragma solidity ^0.8.0;\r\nimport \"../interface/token721/IRbtDeposit721.sol\";\r\nimport \"../lib/TokenSet.sol\";\r\nimport \"../interface/token721/IERC721Receiver.sol\";\r\nimport \"../ref/CoreRef.sol\";\r\nimport \"../interface/token721/IGovernance721.sol\";\r\n\r\n//\r\ncontract Governance721 is CoreRef,IGovernance721 {\r\n    using Set for Set.TokenIdSet;//set\r\n    string public name;\r\n    address private elf;\r\n    address private envoy;\r\n    address private partner;\r\n    address private node;\r\n    address exchangeGovernance721;\r\n    //\r\n    uint public Lengths;\r\n    //\r\n    uint16 nums;\r\n    //\r\n    uint []  unfixedArr;\r\n    Governance721[] private list ;\r\n    mapping(address=>Set.TokenIdSet) userToken ;\r\n    mapping (uint256 => address) private _tokenApprovals;// tokenId----\r\n    //\r\n    mapping (address => mapping (address => bool)) private _operatorApprovals;\r\n    \r\n    //\r\n    struct Governance721 {\r\n        address owner;\r\n        uint tokenId;\r\n        uint startTime;\r\n        uint expireTime;\r\n    }\r\n    \r\n    constructor(address core,address _exchangeGovernance721, string memory  _name  )CoreRef(core){\r\n        name = _name;\r\n        exchangeGovernance721=_exchangeGovernance721;\r\n    }\r\n    \r\n    /*\r\n    * \r\n    */\r\n    function mint(uint times,address from) onlyExchangeGovernance721 external override  returns(uint) {\r\n        //unit32\r\n        uint32 blockTime = uint32(block.timestamp % 2 ** 32);\r\n        uint tokenId=list.length+1;\r\n        Governance721 memory record = Governance721({\r\n            owner : from,\r\n            tokenId : tokenId,\r\n            startTime:blockTime,\r\n            expireTime:times\r\n        });\r\n        list.push(record);\r\n        Lengths=list.length;\r\n        userToken[from].add(tokenId);\r\n        return  tokenId;\r\n    }\r\n\r\n    //tokenid\r\n    function ownerOf(uint256 _tokenId) public view override returns (address owner){\r\n        owner=list[_tokenId-1].owner;\r\n    }\r\n\r\n    //token\r\n    function getAllInvalidToken() public  returns (uint[] memory ) {\r\n        //unit32\r\n        uint32 blockTime = uint32(block.timestamp % 2 ** 32);\r\n        for(uint i=0; i<Lengths;i++) {\r\n             Governance721 memory governance721 =list[i];\r\n             if(governance721.expireTime<blockTime){\r\n                unfixedArr.push(list[i].tokenId);\r\n             }\r\n          }\r\n        return(unfixedArr);\r\n    }\r\n\r\n    //token\r\n    function userUsableTonken(address user) public  returns (uint16 num){\r\n        //unit32\r\n        uint32 blockTime = uint32(block.timestamp % 2 ** 32);\r\n        uint lengths=userToken[user].length();\r\n        for(uint i=0;i<lengths;i++){\r\n            if(list[userToken[user].at(i)-1].expireTime<blockTime){\r\n                nums++;\r\n            }\r\n        }\r\n        num=nums;\r\n    }\r\n\r\n    //\r\n    function usableTotalSupply() public view override returns (uint256 usableTotalSupply){\r\n        usableTotalSupply=Lengths-unfixedArr.length;\r\n    }\r\n\r\n    //\r\n    function totalSupply() public view override returns (uint256 totalSupply){\r\n        totalSupply=Lengths;\r\n    }\r\n    \r\n    //\r\n     function usableBalanceOf(address _owner) public view override returns (uint usableBalanceOf){\r\n        usableBalanceOf=userToken[_owner].length()-nums;\r\n    }\r\n\r\n    //\r\n    function balanceOf(address _owner) public view override returns (uint balance){\r\n        balance=userToken[_owner].length();\r\n    }\r\n    \r\n    //\r\n    function expire(uint256 tokenId) public view override returns(uint){\r\n        return  list[tokenId-1].expireTime;\r\n    }\r\n    \r\n    //tokenId\r\n    function _exists(uint256 tokenId) public view override returns (bool) {\r\n        return list[tokenId].owner != address(0);\r\n    }\r\n    \r\n    //tokenidtoken\r\n     function tokenOfOwnerByIndex(address owner, uint256 index) public view override returns (uint256) {\r\n        return userToken[owner].at(index);\r\n    }\r\n    \r\n    //\r\n    function tokenMetadata(uint _tokenId) public view  returns (Governance721 memory ) {\r\n        return list[_tokenId-1];\r\n    }\r\n    \r\n    //\r\n    function transfer(address _from, address _to, uint256 _tokenId) public   {\r\n        require(ownerOf(_tokenId) == _from&&list[_tokenId].expireTime>block.timestamp, \"ERC721: transfer of token that is not own\");\r\n        require(_to != address(0), \"ERC721: transfer to the zero address\");\r\n        userToken[_from].remove(_tokenId);\r\n        userToken[_to].add(_tokenId);\r\n        list[_tokenId-1].owner=_to;\r\n        emit Transfer(_from, _to, _tokenId);\r\n    }\r\n    \r\n    //_to_tokenIdApproval    \r\n    function approve(address _to, uint256 _tokenId)public override {\r\n        require(msg.sender == list[_tokenId].owner&&list[_tokenId].expireTime>block.timestamp);\r\n        require(msg.sender != _to);//\r\n        _tokenApprovals[_tokenId] = _to;\r\n        emit Approval(list[_tokenId].owner, _to, _tokenId);\r\n    }\r\n    \r\n    //\r\n    function _isApprovedOrOwner(address spender, uint256 tokenId) internal view returns (bool) {\r\n        require(_exists(tokenId), \"ERC721: operator query for nonexistent token\");\r\n        address owner = ownerOf(tokenId);\r\n        return (spender == owner || getApproved(tokenId) == spender || isApprovedForAll(owner, spender));\r\n    }\r\n    \r\n    //\r\n    function getApproved(uint256 tokenId) public view override returns (address) {\r\n        require(_exists(tokenId), \"ERC721: approved query for nonexistent token\");\r\n        return _tokenApprovals[tokenId];\r\n    }\r\n    \r\n    //_operatorNFTsApprovalForAll\r\n    function setApprovalForAll(address operator, bool approved) public override virtual  {\r\n        require(operator != msg.sender, \"ERC721: approve to caller\");\r\n        _operatorApprovals[msg.sender][operator] = approved;\r\n        emit ApprovalForAll(msg.sender, operator, approved);\r\n    }\r\n    \r\n    //\r\n    function isApprovedForAll(address owner, address operator) public view override returns (bool) {\r\n        return _operatorApprovals[owner][operator];\r\n    }\r\n    \r\n    //NFT\r\n     function safeTransferFrom(address from, address to, uint256 tokenId, bytes memory _data) public override virtual   {\r\n        transfer(from, to, tokenId);\r\n        require(_checkOnERC721Received(from, to, tokenId, _data), \"ERC721: transfer to non ERC721Receiver implementer\");\r\n    }\r\n    \r\n    //NFT\r\n    function safeTransferFrom(address from, address to, uint256 tokenId) public override virtual  {\r\n        safeTransferFrom(from, to, tokenId, \"\");\r\n    }\r\n    \r\n    //,,\r\n     function _checkOnERC721Received(address from, address to, uint256 tokenId, bytes memory _data) private   returns (bool){\r\n        if (isContract(to)) {\r\n            try IERC721Receiver(to).onERC721Received(msg.sender, from, tokenId, _data) returns (bytes4 retval) {\r\n                return retval == IERC721Receiver(to).onERC721Received.selector;\r\n            } catch (bytes memory reason) {\r\n                if (reason.length == 0) {\r\n                    revert(\"ERC721: transfer to non ERC721Receiver implementer\");\r\n                } else {\r\n                    assembly {\r\n                        revert(add(32, reason), mload(reason))\r\n                    }\r\n                }\r\n            }\r\n        } \r\n         return true;\r\n    }\r\n\r\n    //contract\r\n    function isContract(address account) internal view returns (bool) {\r\n        uint256 size;\r\n        assembly { size := extcodesize(account) }\r\n        return size > 0;\r\n    }\r\n\r\n     //\r\n    modifier onlyExchangeGovernance721 {\r\n        require(msg.sender==exchangeGovernance721, \"is not bank\");\r\n        _;\r\n    }\r\n}",
  "sourcePath": "D://rainbow/RainbowDao-protocol/contracts/token721/Governance721.sol",
  "compiler": {
    "name": "solc",
    "version": "0.8.0+commit.c7dfd78e.Emscripten.clang"
  },
  "schemaVersion": "3.4.1",
  "updatedAt": "2021-10-08T01:47:41.129Z",
  "devdoc": {
    "kind": "dev",
    "methods": {
      "Rbt()": {
        "returns": {
          "_0": "IFei implementation address"
        }
      },
      "core()": {
        "returns": {
          "_0": "ICore implementation address"
        }
      }
    },
    "version": 1
  },
  "userdoc": {
    "kind": "user",
    "methods": {
      "Rbt()": {
        "notice": "address of the Fei contract referenced by Core"
      },
      "core()": {
        "notice": "address of the Core contract referenced"
      }
    },
    "version": 1
  }
}