{
  "contractName": "GovOrchestrator2",
  "abi": [
    {
      "inputs": [],
      "name": "impeach",
      "outputs": [
        {
          "internalType": "address",
          "name": "",
          "type": "address"
        }
      ],
      "stateMutability": "view",
      "type": "function",
      "constant": true
    },
    {
      "inputs": [],
      "name": "vote",
      "outputs": [
        {
          "internalType": "address",
          "name": "",
          "type": "address"
        }
      ],
      "stateMutability": "view",
      "type": "function",
      "constant": true
    },
    {
      "inputs": [
        {
          "internalType": "address",
          "name": "core",
          "type": "address"
        },
        {
          "internalType": "address",
          "name": "cityNode",
          "type": "address"
        },
        {
          "internalType": "address",
          "name": "voteId",
          "type": "address"
        }
      ],
      "name": "init",
      "outputs": [],
      "stateMutability": "nonpayable",
      "type": "function"
    }
  ],
  "bytecode": "0x608060405234801561001057600080fd5b5061382f806100206000396000f3fe608060405234801561001057600080fd5b50600436106100415760003560e01c8063184b9559146100465780631931a44b1461005b578063632a9a5214610079575b600080fd5b610059610054366004610210565b610081565b005b6100636101b6565b6040516100709190610252565b60405180910390f35b6100636101cb565b600054610100900460ff168061009a575060005460ff16155b6100bf5760405162461bcd60e51b81526004016100b6906102a3565b60405180910390fd5b600054610100900460ff161580156100ea576000805460ff1961ff0019909116610100171660011790555b8282856040516100f9906101da565b61010593929190610280565b604051809103906000f080158015610121573d6000803e3d6000fd5b50600060026101000a8154816001600160a01b0302191690836001600160a01b031602179055508284604051610156906101e7565b610161929190610266565b604051809103906000f08015801561017d573d6000803e3d6000fd5b50600180546001600160a01b0319166001600160a01b039290921691909117905580156101b0576000805461ff00191690555b50505050565b6000546201000090046001600160a01b031681565b6001546001600160a01b031681565b6115b0806102f283390190565b611f58806118a283390190565b80356001600160a01b038116811461020b57600080fd5b919050565b600080600060608486031215610224578283fd5b61022d846101f4565b925061023b602085016101f4565b9150610249604085016101f4565b90509250925092565b6001600160a01b0391909116815260200190565b6001600160a01b0392831681529116602082015260400190565b6001600160a01b0393841681529183166020830152909116604082015260600190565b6020808252602e908201527f496e697469616c697a61626c653a20636f6e747261637420697320616c72656160408201526d191e481a5b9a5d1a585b1a5e995960921b60608201526080019056fe60806040523480156200001157600080fd5b50604051620015b0380380620015b08339810160408190526200003491620000a1565b600080546001600160a01b039485166001600160a01b03199182168117909255600180548216909217909155600280549385169382169390931790925560038054919093169116179055620000ea565b80516001600160a01b03811681146200009c57600080fd5b919050565b600080600060608486031215620000b6578283fd5b620000c18462000084565b9250620000d16020850162000084565b9150620000e16040850162000084565b90509250925092565b6114b680620000fa6000396000f3fe608060405234801561001057600080fd5b50600436106100cf5760003560e01c8063674b5a301161008c57806399a723e41161006657806399a723e41461019d578063e689692f146101a5578063e934f98f146101b8578063f2f4eb26146101cb576100cf565b8063674b5a301461017a57806370ca09bc14610182578063800096301461018a576100cf565b8063135b54dd146100d4578063247186ad146100f25780632b113ed9146101075780635299f2c51461011a5780635624c7eb1461012f57806358748ecc1461015a575b600080fd5b6100dc6101d3565b6040516100e9919061115e565b60405180910390f35b610105610100366004611004565b610255565b005b610105610115366004610fa1565b610640565b6101226109ab565b6040516100e99190611398565b61014261013d366004611055565b6109b1565b6040516100e99c9b9a999897969594939291906113b8565b61016d610168366004611055565b610a26565b6040516100e991906112e4565b6100dc610adf565b6100dc610aee565b610105610198366004610f26565b610afd565b6100dc610be3565b6101056101b3366004611055565b610bf2565b6101056101c63660046110f1565b610cac565b6100dc610d7d565b60035460408051630c7bec3160e11b815290516000926001600160a01b0316916318f7d862916004808301926020929190829003018186803b15801561021857600080fd5b505afa15801561022c573d6000803e3d6000fd5b505050506040513d601f19601f820116820180604052508101906102509190610fe8565b905090565b600154604051638b7f0f9560e01b8152859133916001600160a01b0390911690638b7f0f959061028b90859085906004016113a1565b60206040518083038186803b1580156102a357600080fd5b505afa1580156102b7573d6000803e3d6000fd5b505050506040513d601f19601f820116820180604052508101906102db9190610f42565b6103005760405162461bcd60e51b81526004016102f7906111db565b60405180910390fd5b68056bc75e2d6310000083101580156103225750681b1ae4d6e2ef5000008311155b61033e5760405162461bcd60e51b81526004016102f7906111fb565b846001148061034d5750846002145b61035657600080fd5b60405163249a40cd60e01b81526000906001600160a01b0389169063249a40cd90610385908a90600401611398565b60806040518083038186803b15801561039d57600080fd5b505afa1580156103b1573d6000803e3d6000fd5b505050506040513d601f19601f820116820180604052508101906103d59190610f5c565b5092505050600460008154809291906103ed90611437565b9190505550856001141561043157846001600160a01b0316816001600160a01b03161461042c5760405162461bcd60e51b81526004016102f7906111b5565b6104d4565b85600214156104d457604051633068e23760e11b81526001600160a01b038916906360d1c46e90610468908a9089906004016113a1565b60206040518083038186803b15801561048057600080fd5b505afa158015610494573d6000803e3d6000fd5b505050506040513d601f19601f820116820180604052508101906104b89190610f42565b6104d45760405162461bcd60e51b81526004016102f7906111b5565b6104f06104df6101d3565b3330683635c9adc5dea00000610d8c565b600480546000818152600560208181526040808420948555600985018c9055600185018d905591840180546001600160a01b03808d166001600160a01b03199283161790925560068601805490911633179055600a85018a905560088501805460ff19169055848601849055600254835163cf7e7b8d60e01b81529351959691169463cf7e7b8d948483019491929183900390910190829087803b15801561059757600080fd5b505af11580156105ab573d6000803e3d6000fd5b505050506040513d601f19601f820116820180604052508101906105cf919061106d565b600b8201556003810180546001600160a01b0319166001600160a01b038b1617905542600782015580546040517fc5d0683a44c6ee742a0f41f431f4deb00df8c1d354fb0baf2251786bc15b1e459061062d908b9033908b90611196565b60405180910390a2505050505050505050565b68056bc75e2d6310000081101580156106625750681b1ae4d6e2ef5000008111155b61066b57600080fd5b826001148061067a5750826002145b61068357600080fd5b60008060008060008060008a6001600160a01b03166320bec62a6040518163ffffffff1660e01b815260040160e060405180830381600087803b1580156106c957600080fd5b505af11580156106dd573d6000803e3d6000fd5b505050506040513d601f19601f820116820180604052508101906107019190611085565b96509650965096509650965096506004600081548092919061072290611437565b9190505550896001141561076657886001600160a01b0316866001600160a01b0316146107615760405162461bcd60e51b81526004016102f7906111b5565b610807565b8960021415610807576040516387ea947b60e01b81526001600160a01b038c16906387ea947b9061079b908c9060040161115e565b60206040518083038186803b1580156107b357600080fd5b505afa1580156107c7573d6000803e3d6000fd5b505050506040513d601f19601f820116820180604052508101906107eb9190610f42565b6108075760405162461bcd60e51b81526004016102f7906111b5565b6000600560006004548152602001908152602001600020905060045481600001819055508a81600901819055508b8160020160006101000a8154816001600160a01b0302191690836001600160a01b03160217905550898160050160006101000a8154816001600160a01b0302191690836001600160a01b03160217905550338160060160006101000a8154816001600160a01b0302191690836001600160a01b03160217905550600260009054906101000a90046001600160a01b03166001600160a01b031663cf7e7b8d6040518163ffffffff1660e01b8152600401602060405180830381600087803b1580156108ff57600080fd5b505af1158015610913573d6000803e3d6000fd5b505050506040513d601f19601f82011682018060405250810190610937919061106d565b600b820155600a810189905560088101805460ff19169055600060048201819055426007830155815460405190917fc5d0683a44c6ee742a0f41f431f4deb00df8c1d354fb0baf2251786bc15b1e4591610995919033908f90611196565b60405180910390a2505050505050505050505050565b60045481565b600560208190526000918252604090912080546001820154600283015460038401546004850154958501546006860154600787015460088801546009890154600a8a0154600b909a0154989a97996001600160a01b03978816999688169897958616969490951694929360ff9092169290918c565b610a2e610e8f565b506000818152600560208181526040928390208351610180810185528154815260018201549281019290925260028101546001600160a01b03908116948301949094526003810154841660608301526004810154608083015291820154831660a0820152600682015490921660c0830152600781015460e0830152600881015460ff1615156101008301526009810154610120830152600a810154610140830152600b01546101608201525b919050565b6001546001600160a01b031681565b6000546001600160a01b031681565b600354604051631c86b03760e31b81526001600160a01b039091169063e43581b890610b2d90339060040161115e565b60206040518083038186803b158015610b4557600080fd5b505afa158015610b59573d6000803e3d6000fd5b505050506040513d601f19601f82011682018060405250810190610b7d9190610f42565b610b995760405162461bcd60e51b81526004016102f79061125f565b600380546001600160a01b0319166001600160a01b0383169081179091556040517fad9400e618eb1344fde53db22397a1b82c765527ecbba3a5c86bcac15090828b90600090a250565b6002546001600160a01b031681565b60035460405163053c328d60e31b81526001600160a01b03909116906329e1946890610c2290339060040161115e565b60206040518083038186803b158015610c3a57600080fd5b505afa158015610c4e573d6000803e3d6000fd5b505050506040513d601f19601f82011682018060405250810190610c729190610f42565b610c8e5760405162461bcd60e51b81526004016102f790611228565b6000908152600560205260409020600801805460ff19166001179055565b60035460405163053c328d60e31b81526001600160a01b03909116906329e1946890610cdc90339060040161115e565b60206040518083038186803b158015610cf457600080fd5b505afa158015610d08573d6000803e3d6000fd5b505050506040513d601f19601f82011682018060405250810190610d2c9190610f42565b610d485760405162461bcd60e51b81526004016102f790611228565b600082815260056020526040902060040154610d649082610e7c565b6000928352600560205260409092206004019190915550565b6003546001600160a01b031690565b600080856001600160a01b03166323b872dd868686604051602401610db393929190611172565b6040516020818303038152906040529060e01b6020820180516001600160e01b038381831617835250505050604051610dec9190611125565b6000604051808303816000865af19150503d8060008114610e29576040519150601f19603f3d011682016040523d82523d6000602084013e610e2e565b606091505b5091509150818015610e58575080511580610e58575080806020019051810190610e589190610f42565b610e745760405162461bcd60e51b81526004016102f7906112a0565b505050505050565b6000610e88828461141f565b9392505050565b604051806101800160405280600081526020016000815260200160006001600160a01b0316815260200160006001600160a01b031681526020016000815260200160006001600160a01b0316815260200160006001600160a01b03168152602001600081526020016000151581526020016000815260200160008152602001600081525090565b80518015158114610ada57600080fd5b600060208284031215610f37578081fd5b8135610e8881611468565b600060208284031215610f53578081fd5b610e8882610f16565b60008060008060808587031215610f71578283fd5b610f7a85610f16565b9350602085015192506040850151610f9181611468565b6060959095015193969295505050565b60008060008060808587031215610fb6578384fd5b8435610fc181611468565b9350602085013592506040850135610fd881611468565b9396929550929360600135925050565b600060208284031215610ff9578081fd5b8151610e8881611468565b600080600080600060a0868803121561101b578081fd5b853561102681611468565b94506020860135935060408601359250606086013561104481611468565b949793965091946080013592915050565b600060208284031215611066578081fd5b5035919050565b60006020828403121561107e578081fd5b5051919050565b600080600080600080600060e0888a03121561109f578182fd5b8751965060208801516110b181611468565b604089015190965094506110c760608901610f16565b93506110d560808901610f16565b925060a0880151915060c0880151905092959891949750929550565b60008060408385031215611103578182fd5b50508035926020909101359150565b6001600160a01b03169052565b15159052565b60008251815b81811015611145576020818601810151858301520161112b565b818111156111535782828501525b509190910192915050565b6001600160a01b0391909116815260200190565b6001600160a01b039384168152919092166020820152604081019190915260600190565b9283526001600160a01b03918216602084015216604082015260600190565b6020808252600c908201526b3737903a3434b9903ab9b2b960a11b604082015260600190565b6020808252600690820152653737ba1034b760d11b604082015260600190565b60208082526013908201527272627420616d6f756e742069732077726f6e6760681b604082015260600190565b6020808252601d908201527f436f72655265663a2043616c6c6572206973206e6f74206120566f7465000000604082015260600190565b60208082526021908201527f436f72655265663a2043616c6c6572206973206e6f74206120676f7665726e6f6040820152603960f91b606082015260800190565b60208082526024908201527f5472616e7366657248656c7065723a205452414e534645525f46524f4d5f46416040820152631253115160e21b606082015260800190565b6000610180820190508251825260208301516020830152604083015161130d6040840182611112565b5060608301516113206060840182611112565b506080830151608083015260a083015161133d60a0840182611112565b5060c083015161135060c0840182611112565b5060e083015160e08301526101008084015161136e8285018261111f565b50506101208381015190830152610140808401519083015261016092830151929091019190915290565b90815260200190565b9182526001600160a01b0316602082015260400190565b9b8c5260208c019a909a526001600160a01b0398891660408c015296881660608b015260808a019590955292861660a0890152941660c087015260e08601939093529115156101008501526101208401919091526101408301526101608201526101800190565b6000821982111561143257611432611452565b500190565b600060001982141561144b5761144b611452565b5060010190565b634e487b7160e01b600052601160045260246000fd5b6001600160a01b038116811461147d57600080fd5b5056fea2646970667358221220cabd282f5c26685135de076968161ec11988f160dc4559ff5830363e2059512864736f6c6343000800003360806040523480156200001157600080fd5b5060405162001f5838038062001f58833981016040819052620000349162000090565b600080546001600160a01b039384166001600160a01b0319918216811790925560018054821690921790915560028054929093169116179055620000c7565b80516001600160a01b03811681146200008b57600080fd5b919050565b60008060408385031215620000a3578182fd5b620000ae8362000073565b9150620000be6020840162000073565b90509250929050565b611e8180620000d76000396000f3fe608060405234801561001057600080fd5b50600436106100ea5760003560e01c806381064c6f1161008c578063c3d3b09211610066578063c3d3b0921461018e578063ebbd2132146101a1578063f2f4eb26146101b4578063f4dfdde7146101bc576100ea565b806381064c6f14610160578063964f31621461017357806398e434dd1461017b576100ea565b8063674b5a30116100c8578063674b5a301461013557806370ca09bc1461013d578063744a218414610145578063800096301461014d576100ea565b8063135b54dd146100ef5780631a4586a21461010d578063548807a514610122575b600080fd5b6100f76101cf565b6040516101049190611b26565b60405180910390f35b61012061011b366004611900565b610251565b005b610120610130366004611822565b6102c7565b6100f761038e565b6100f761039d565b6100f76103ac565b61012061015b366004611822565b6103bb565b61012061016e36600461189d565b6104a1565b6100f7610514565b610120610189366004611a95565b610523565b61012061019c366004611b05565b610a4d565b6101206101af366004611b05565b6112a7565b6100f7611631565b6101206101ca366004611822565b611640565b60025460408051630c7bec3160e11b815290516000926001600160a01b0316916318f7d862916004808301926020929190829003018186803b15801561021457600080fd5b505afa158015610228573d6000803e3d6000fd5b505050506040513d601f19601f8201168201806040525081019061024c91906118e4565b905090565b61025c3384836116fe565b6040516306a98c8f60e11b81526001600160a01b03861690630d53191e9061028e908790879087908790600401611d54565b600060405180830381600087803b1580156102a857600080fd5b505af11580156102bc573d6000803e3d6000fd5b505050505050505050565b600254604051631c86b03760e31b81526001600160a01b039091169063e43581b8906102f7903390600401611b26565b60206040518083038186803b15801561030f57600080fd5b505afa158015610323573d6000803e3d6000fd5b505050506040513d601f19601f82011682018060405250810190610347919061183e565b61036c5760405162461bcd60e51b815260040161036390611c54565b60405180910390fd5b600380546001600160a01b0319166001600160a01b0392909216919091179055565b6001546001600160a01b031681565b6000546001600160a01b031681565b6003546001600160a01b031681565b600254604051631c86b03760e31b81526001600160a01b039091169063e43581b8906103eb903390600401611b26565b60206040518083038186803b15801561040357600080fd5b505afa158015610417573d6000803e3d6000fd5b505050506040513d601f19601f8201168201806040525081019061043b919061183e565b6104575760405162461bcd60e51b815260040161036390611c54565b600280546001600160a01b0319166001600160a01b0383169081179091556040517fad9400e618eb1344fde53db22397a1b82c765527ecbba3a5c86bcac15090828b90600090a250565b6104ac3384836116fe565b60405163375a328b60e11b81526001600160a01b03851690636eb46516906104dc90869086908690600401611cda565b600060405180830381600087803b1580156104f657600080fd5b505af115801561050a573d6000803e3d6000fd5b5050505050505050565b6004546001600160a01b031681565b600154604051638b7f0f9560e01b8152859133916001600160a01b0390911690638b7f0f95906105599085908590600401611cc3565b60206040518083038186803b15801561057157600080fd5b505afa158015610585573d6000803e3d6000fd5b505050506040513d601f19601f820116820180604052508101906105a9919061183e565b6105c55760405162461bcd60e51b815260040161036390611c05565b82600114156107d45760015460405163249a40cd60e01b8152600091829182916001600160a01b03169063249a40cd90610603908c90600401611cba565b60806040518083038186803b15801561061b57600080fd5b505afa15801561062f573d6000803e3d6000fd5b505050506040513d601f19601f820116820180604052508101906106539190611858565b93505092509250826106775760405162461bcd60e51b815260040161036390611bdb565b426106858362127500611dc6565b10801561069d57504261069b83621baf80611dc6565b115b6106b95760405162461bcd60e51b815260040161036390611c95565b600054604051630a29325f60e31b81526001600160a01b039091169063514992f8906106ed908c9085908d90600401611d35565b60206040518083038186803b15801561070557600080fd5b505afa158015610719573d6000803e3d6000fd5b505050506040513d601f19601f8201168201806040525081019061073d919061183e565b6107595760405162461bcd60e51b815260040161036390611c25565b6107643382896116fe565b600054604051637312b8a960e11b81526001600160a01b039091169063e62571529061079a908c9085908d908d90600401611d54565b600060405180830381600087803b1580156107b457600080fd5b505af11580156107c8573d6000803e3d6000fd5b50505050505050610a45565b8260021415610a455760015460405163ed725ee560e01b815260009182916001600160a01b039091169063ed725ee590610812908b90600401611cba565b60606040518083038186803b15801561082a57600080fd5b505afa15801561083e573d6000803e3d6000fd5b505050506040513d601f19601f820116820180604052508101906108629190611ad1565b50909250905060018115151461088a5760405162461bcd60e51b815260040161036390611bdb565b600154604051631f087cad60e21b81526000916001600160a01b031690637c21f2b4906108bb908c90600401611cba565b60206040518083038186803b1580156108d357600080fd5b505afa1580156108e7573d6000803e3d6000fd5b505050506040513d601f19601f8201168201806040525081019061090b9190611a11565b60015460405163138bec1360e11b81529192506000916001600160a01b0390911690632717d82690610943908d908690600401611d27565b60206040518083038186803b15801561095b57600080fd5b505afa15801561096f573d6000803e3d6000fd5b505050506040513d601f19601f820116820180604052508101906109939190611a11565b9050600f81101580156109b15750426109af8562093a80611dc6565b115b6109cd5760405162461bcd60e51b815260040161036390611b97565b6109d833838a6116fe565b6001546040516306a98c8f60e11b81526001600160a01b0390911690630d53191e90610a0e908d9086908e908e90600401611d54565b600060405180830381600087803b158015610a2857600080fd5b505af1158015610a3c573d6000803e3d6000fd5b50505050505050505b505050505050565b60035460405163161d23b360e21b81526000916001600160a01b0316906358748ecc90610a7e908690600401611cba565b6101806040518083038186803b158015610a9757600080fd5b505afa158015610aab573d6000803e3d6000fd5b505050506040513d601f19601f82011682018060405250810190610acf9190611951565b61010081015190915015610af55760405162461bcd60e51b815260040161036390611bbb565b60e0810151610b079062093a80611dc6565b4210610b1257600080fd5b610b2233826101600151846116fe565b60035460405163e934f98f60e01b81526001600160a01b039091169063e934f98f90610b549086908690600401611d27565b600060405180830381600087803b158015610b6e57600080fd5b505af1158015610b82573d6000803e3d6000fd5b5050600480546101608501516040516342a422e960e11b8152600095506001600160a01b03909216935063854845d292610bbc9201611cba565b60206040518083038186803b158015610bd457600080fd5b505afa158015610be8573d6000803e3d6000fd5b505050506040513d601f19601f82011682018060405250810190610c0c9190611a11565b9050610c246064610c1e83601e6117d7565b906117ea565b6080830151610c3390856117f6565b11156112a157600161010083015260035460405163e689692f60e01b81526001600160a01b039091169063e689692f90610c71908790600401611cba565b600060405180830381600087803b158015610c8b57600080fd5b505af1158015610c9f573d6000803e3d6000fd5b505050508160200151600014611037576060820151602083015160405163249a40cd60e01b81526000916001600160a01b0384169163249a40cd91610ce691600401611cba565b60806040518083038186803b158015610cfe57600080fd5b505afa158015610d12573d6000803e3d6000fd5b505050506040513d601f19601f82011682018060405250810190610d369190611858565b935050505083610120015160011415610db357602084015160405163207fed3f60e21b81526001600160a01b038416916381ffb4fc91610d7c9190600090600401611cc3565b600060405180830381600087803b158015610d9657600080fd5b505af1158015610daa573d6000803e3d6000fd5b50505050610fa6565b83610120015160021415610fa657602084015160a08501516040516339dc0a8960e01b81526001600160a01b038516926339dc0a8992610df592600401611cc3565b600060405180830381600087803b158015610e0f57600080fd5b505af1158015610e23573d6000803e3d6000fd5b505050506020840151604051631f087cad60e21b81526000916001600160a01b03851691637c21f2b491610e5991600401611cba565b60206040518083038186803b158015610e7157600080fd5b505afa158015610e85573d6000803e3d6000fd5b505050506040513d601f19601f82011682018060405250810190610ea99190611a11565b90506000836001600160a01b031663ed725ee587602001516040518263ffffffff1660e01b8152600401610edd9190611cba565b60606040518083038186803b158015610ef557600080fd5b505afa158015610f09573d6000803e3d6000fd5b505050506040513d601f19601f82011682018060405250810190610f2d9190611ad1565b92505050836001600160a01b0316638e960246876020015184846001610f539190611dc6565b6040518463ffffffff1660e01b8152600401610f7193929190611d78565b600060405180830381600087803b158015610f8b57600080fd5b505af1158015610f9f573d6000803e3d6000fd5b5050505050505b816001600160a01b03166359b4dd408560200151610fc26101cf565b610140880151610fd3906005611dfe565b8860c001518961012001516040518663ffffffff1660e01b8152600401610ffe959493929190611cf9565b600060405180830381600087803b15801561101857600080fd5b505af115801561102c573d6000803e3d6000fd5b5050505050506112a1565b6000826040015190506000806000806000806000876001600160a01b03166320bec62a6040518163ffffffff1660e01b815260040160e060405180830381600087803b15801561108657600080fd5b505af115801561109a573d6000803e3d6000fd5b505050506040513d601f19601f820116820180604052508101906110be9190611a29565b96509650965096509650965096508961012001516001141561113e5760405163538ece2960e01b81526001600160a01b0389169063538ece299061110790600090600401611b26565b600060405180830381600087803b15801561112157600080fd5b505af1158015611135573d6000803e3d6000fd5b5050505061121b565b8961012001516002141561121b5760a08a015160405163102389ab60e11b81526001600160a01b038a169163204713569161117c9190600401611b26565b600060405180830381600087803b15801561119657600080fd5b505af11580156111aa573d6000803e3d6000fd5b50505050876001600160a01b0316630fb3a754868460016111cb9190611dc6565b6040518363ffffffff1660e01b81526004016111e8929190611d27565b600060405180830381600087803b15801561120257600080fd5b505af1158015611216573d6000803e3d6000fd5b505050505b876001600160a01b031663b29ead596112326101cf565b6101408d0151611243906005611dfe565b8d60c001516040518463ffffffff1660e01b815260040161126693929190611b53565b600060405180830381600087803b15801561128057600080fd5b505af1158015611294573d6000803e3d6000fd5b5050505050505050505050505b50505050565b600154604051638b7f0f9560e01b8152839133916001600160a01b0390911690638b7f0f95906112dd9085908590600401611cc3565b60206040518083038186803b1580156112f557600080fd5b505afa158015611309573d6000803e3d6000fd5b505050506040513d601f19601f8201168201806040525081019061132d919061183e565b6113495760405162461bcd60e51b815260040161036390611c05565b82600114156114925760015460405163249a40cd60e01b8152600091829182916001600160a01b03169063249a40cd90611387908a90600401611cba565b60806040518083038186803b15801561139f57600080fd5b505afa1580156113b3573d6000803e3d6000fd5b505050506040513d601f19601f820116820180604052508101906113d79190611858565b93505092509250826113fb5760405162461bcd60e51b815260040161036390611bdb565b4261140983621baf80611dc6565b106114265760405162461bcd60e51b815260040161036390611c95565b60005460405163397a3ad160e21b81526001600160a01b039091169063e5e8eb4490611458908a908590600401611d27565b600060405180830381600087803b15801561147257600080fd5b505af1158015611486573d6000803e3d6000fd5b505050505050506112a1565b82600214156112a15760015460405163ed725ee560e01b815260009182916001600160a01b039091169063ed725ee5906114d0908990600401611cba565b60606040518083038186803b1580156114e857600080fd5b505afa1580156114fc573d6000803e3d6000fd5b505050506040513d601f19601f820116820180604052508101906115209190611ad1565b5091509150806115425760405162461bcd60e51b815260040161036390611bdb565b600154604051631f087cad60e21b81526000916001600160a01b031690637c21f2b490611573908a90600401611cba565b60206040518083038186803b15801561158b57600080fd5b505afa15801561159f573d6000803e3d6000fd5b505050506040513d601f19601f820116820180604052508101906115c39190611a11565b60005460405163770346bb60e11b81529192506001600160a01b03169063ee068d76906115f6908a908590600401611d27565b600060405180830381600087803b15801561161057600080fd5b505af1158015611624573d6000803e3d6000fd5b5050505050505050505050565b6002546001600160a01b031690565b600254604051631c86b03760e31b81526001600160a01b039091169063e43581b890611670903390600401611b26565b60206040518083038186803b15801561168857600080fd5b505afa15801561169c573d6000803e3d6000fd5b505050506040513d601f19601f820116820180604052508101906116c0919061183e565b6116dc5760405162461bcd60e51b815260040161036390611c54565b600480546001600160a01b0319166001600160a01b0392909216919091179055565b600480546040516362a7cd2960e11b81526000926001600160a01b039092169163c54f9a5291611732918891889101611b3a565b60206040518083038186803b15801561174a57600080fd5b505afa15801561175e573d6000803e3d6000fd5b505050506040513d601f19601f820116820180604052508101906117829190611a11565b9050818110156117a45760405162461bcd60e51b815260040161036390611b97565b6004805460405163d6961a0360e01b81526001600160a01b039091169163d6961a03916104dc9188918891889101611b76565b60006117e38284611dfe565b9392505050565b60006117e38284611dde565b60006117e38284611dc6565b805161180d81611e33565b919050565b8051801515811461180d57600080fd5b600060208284031215611833578081fd5b81356117e381611e33565b60006020828403121561184f578081fd5b6117e382611812565b6000806000806080858703121561186d578283fd5b61187685611812565b935060208501519250604085015161188d81611e33565b6060959095015193969295505050565b600080600080608085870312156118b2578384fd5b84356118bd81611e33565b93506020850135925060408501356118d481611e33565b9396929550929360600135925050565b6000602082840312156118f5578081fd5b81516117e381611e33565b600080600080600060a08688031215611917578081fd5b853561192281611e33565b94506020860135935060408601359250606086013561194081611e33565b949793965091946080013592915050565b6000610180808385031215611964578182fd5b61196d81611d8e565b9050825181526020830151602082015261198960408401611802565b604082015261199a60608401611802565b6060820152608083015160808201526119b560a08401611802565b60a08201526119c660c08401611802565b60c082015260e083015160e08201526101006119e3818501611812565b9082015261012083810151908201526101408084015190820152610160928301519281019290925250919050565b600060208284031215611a22578081fd5b5051919050565b600080600080600080600060e0888a031215611a43578182fd5b875196506020880151611a5581611e33565b60408901519096509450611a6b60608901611812565b9350611a7960808901611812565b925060a0880151915060c0880151905092959891949750929550565b60008060008060808587031215611aaa578182fd5b843593506020850135611abc81611e33565b93969395505050506040820135916060013590565b600080600060608486031215611ae5578081fd5b83519250611af560208501611812565b9150604084015190509250925092565b60008060408385031215611b17578182fd5b50508035926020909101359150565b6001600160a01b0391909116815260200190565b6001600160a01b03929092168252602082015260400190565b6001600160a01b0393841681526020810192909252909116604082015260600190565b6001600160a01b039390931683526020830191909152604082015260600190565b6020808252600a90820152690dcdee840cadcdeeaced60b31b604082015260600190565b6020808252600690820152651a5cc8195b9960d21b604082015260600190565b60208082526010908201526f6e6f7420696e20766f74652074696d6560801b604082015260600190565b6020808252600690820152653737ba1034b760d11b604082015260600190565b6020808252601590820152743737903430bb32903a3434b9903932b1b2b4bb32b960591b604082015260600190565b60208082526021908201527f436f72655265663a2043616c6c6572206973206e6f74206120676f7665726e6f6040820152603960f91b606082015260800190565b6020808252600b908201526a6e6f7420696e2074696d6560a81b604082015260600190565b90815260200190565b9182526001600160a01b0316602082015260400190565b9283526001600160a01b03919091166020830152604082015260600190565b9485526001600160a01b03938416602086015260408501929092529091166060830152608082015260a00190565b918252602082015260400190565b92835260208301919091526001600160a01b0316604082015260600190565b93845260208401929092526001600160a01b03166040830152606082015260800190565b9283526020830191909152604082015260600190565b60405181810167ffffffffffffffff81118282101715611dbe57634e487b7160e01b600052604160045260246000fd5b604052919050565b60008219821115611dd957611dd9611e1d565b500190565b600082611df957634e487b7160e01b81526012600452602481fd5b500490565b6000816000190483118215151615611e1857611e18611e1d565b500290565b634e487b7160e01b600052601160045260246000fd5b6001600160a01b0381168114611e4857600080fd5b5056fea2646970667358221220e361302ecffa6ff2ba7145f3bd0d91e2208a3ee3aa2c72af27c7b546c935615364736f6c63430008000033a2646970667358221220fff2f655175cfa1d57a6dd5c57bd1e03812a33ba859d6ff96c15166c08e8d01264736f6c63430008000033",
  "immutableReferences": {},
  "source": "// SPDX-License-Identifier: MIT\r\npragma solidity ^0.8.0;\r\n\r\nimport \"@openzeppelin/contracts/proxy/utils/Initializable.sol\";\r\n\r\n\r\n\r\nimport \"../gov/Impeach.sol\";\r\nimport \"../gov/Vote.sol\";\r\n\r\ncontract GovOrchestrator2 is Initializable  {\r\n\r\n    address public impeach;\r\n    address public vote;\r\n\r\n    function init(address core,address cityNode,address voteId) external initializer {\r\n\r\n        impeach = address(new Impeach(cityNode,voteId,core));\r\n\r\n        vote = address(new Vote(cityNode,core));\r\n    }\r\n}",
  "sourcePath": "D://rainbow/RainbowDao-protocol/contracts/orchestrator/GovOrchestrator2.sol",
  "compiler": {
    "name": "solc",
    "version": "0.8.0+commit.c7dfd78e.Emscripten.clang"
  },
  "schemaVersion": "3.4.1",
  "updatedAt": "2021-10-16T03:51:57.741Z",
  "networkType": "ethereum",
  "devdoc": {
    "kind": "dev",
    "methods": {},
    "version": 1
  },
  "userdoc": {
    "kind": "user",
    "methods": {},
    "version": 1
  }
}