{
  "contractName": "Impeach",
  "abi": [
    {
      "inputs": [
        {
          "internalType": "address",
          "name": "nodeAddress",
          "type": "address"
        },
        {
          "internalType": "address",
          "name": "voteIdAddr",
          "type": "address"
        },
        {
          "internalType": "address",
          "name": "core",
          "type": "address"
        }
      ],
      "stateMutability": "nonpayable",
      "type": "constructor"
    },
    {
      "anonymous": false,
      "inputs": [
        {
          "indexed": true,
          "internalType": "address",
          "name": "_core",
          "type": "address"
        }
      ],
      "name": "CoreUpdate",
      "type": "event"
    },
    {
      "anonymous": false,
      "inputs": [
        {
          "indexed": true,
          "internalType": "uint256",
          "name": "id",
          "type": "uint256"
        },
        {
          "indexed": false,
          "internalType": "uint256",
          "name": "nodeId",
          "type": "uint256"
        },
        {
          "indexed": false,
          "internalType": "address",
          "name": "sponsor",
          "type": "address"
        },
        {
          "indexed": false,
          "internalType": "address",
          "name": "acceptor",
          "type": "address"
        }
      ],
      "name": "impeachCreate",
      "type": "event"
    },
    {
      "inputs": [],
      "name": "Ip",
      "outputs": [
        {
          "internalType": "contract IParliament",
          "name": "",
          "type": "address"
        }
      ],
      "stateMutability": "view",
      "type": "function"
    },
    {
      "inputs": [],
      "name": "Rbt",
      "outputs": [
        {
          "internalType": "contract IERC20",
          "name": "",
          "type": "address"
        }
      ],
      "stateMutability": "view",
      "type": "function"
    },
    {
      "inputs": [],
      "name": "cityNode",
      "outputs": [
        {
          "internalType": "contract ICityNode",
          "name": "",
          "type": "address"
        }
      ],
      "stateMutability": "view",
      "type": "function"
    },
    {
      "inputs": [],
      "name": "core",
      "outputs": [
        {
          "internalType": "contract ICore",
          "name": "",
          "type": "address"
        }
      ],
      "stateMutability": "view",
      "type": "function"
    },
    {
      "inputs": [],
      "name": "impeachCount",
      "outputs": [
        {
          "internalType": "uint256",
          "name": "",
          "type": "uint256"
        }
      ],
      "stateMutability": "view",
      "type": "function"
    },
    {
      "inputs": [
        {
          "internalType": "uint256",
          "name": "",
          "type": "uint256"
        }
      ],
      "name": "impeachs",
      "outputs": [
        {
          "internalType": "uint256",
          "name": "id",
          "type": "uint256"
        },
        {
          "internalType": "uint256",
          "name": "nodeId",
          "type": "uint256"
        },
        {
          "internalType": "contract ICommunityGovernanceFund",
          "name": "gov",
          "type": "address"
        },
        {
          "internalType": "contract IParliament",
          "name": "icn",
          "type": "address"
        },
        {
          "internalType": "uint256",
          "name": "tickets",
          "type": "uint256"
        },
        {
          "internalType": "address",
          "name": "acceptor",
          "type": "address"
        },
        {
          "internalType": "address",
          "name": "sponsor",
          "type": "address"
        },
        {
          "internalType": "uint256",
          "name": "creationTime",
          "type": "uint256"
        },
        {
          "internalType": "bool",
          "name": "success",
          "type": "bool"
        },
        {
          "internalType": "uint256",
          "name": "impeachtype",
          "type": "uint256"
        },
        {
          "internalType": "uint256",
          "name": "amount",
          "type": "uint256"
        },
        {
          "internalType": "uint256",
          "name": "voteId",
          "type": "uint256"
        }
      ],
      "stateMutability": "view",
      "type": "function"
    },
    {
      "inputs": [
        {
          "internalType": "address",
          "name": "core",
          "type": "address"
        }
      ],
      "name": "setCore",
      "outputs": [],
      "stateMutability": "nonpayable",
      "type": "function"
    },
    {
      "inputs": [],
      "name": "voteIdAddress",
      "outputs": [
        {
          "internalType": "contract IVoteId",
          "name": "",
          "type": "address"
        }
      ],
      "stateMutability": "view",
      "type": "function"
    },
    {
      "inputs": [
        {
          "internalType": "contract IParliament",
          "name": "cn",
          "type": "address"
        },
        {
          "internalType": "uint256",
          "name": "nodeId",
          "type": "uint256"
        },
        {
          "internalType": "uint256",
          "name": "impeachtype",
          "type": "uint256"
        },
        {
          "internalType": "address",
          "name": "user",
          "type": "address"
        },
        {
          "internalType": "uint256",
          "name": "amount",
          "type": "uint256"
        }
      ],
      "name": "impeach",
      "outputs": [],
      "stateMutability": "nonpayable",
      "type": "function"
    },
    {
      "inputs": [
        {
          "internalType": "uint256",
          "name": "id",
          "type": "uint256"
        }
      ],
      "name": "getImpeach",
      "outputs": [
        {
          "components": [
            {
              "internalType": "uint256",
              "name": "id",
              "type": "uint256"
            },
            {
              "internalType": "uint256",
              "name": "nodeId",
              "type": "uint256"
            },
            {
              "internalType": "contract ICommunityGovernanceFund",
              "name": "gov",
              "type": "address"
            },
            {
              "internalType": "contract IParliament",
              "name": "icn",
              "type": "address"
            },
            {
              "internalType": "uint256",
              "name": "tickets",
              "type": "uint256"
            },
            {
              "internalType": "address",
              "name": "acceptor",
              "type": "address"
            },
            {
              "internalType": "address",
              "name": "sponsor",
              "type": "address"
            },
            {
              "internalType": "uint256",
              "name": "creationTime",
              "type": "uint256"
            },
            {
              "internalType": "bool",
              "name": "success",
              "type": "bool"
            },
            {
              "internalType": "uint256",
              "name": "impeachtype",
              "type": "uint256"
            },
            {
              "internalType": "uint256",
              "name": "amount",
              "type": "uint256"
            },
            {
              "internalType": "uint256",
              "name": "voteId",
              "type": "uint256"
            }
          ],
          "internalType": "struct PublicStructs.Impeach",
          "name": "",
          "type": "tuple"
        }
      ],
      "stateMutability": "view",
      "type": "function"
    },
    {
      "inputs": [
        {
          "internalType": "uint256",
          "name": "id",
          "type": "uint256"
        },
        {
          "internalType": "uint256",
          "name": "tickets",
          "type": "uint256"
        }
      ],
      "name": "setImpeachTickets",
      "outputs": [],
      "stateMutability": "nonpayable",
      "type": "function"
    },
    {
      "inputs": [
        {
          "internalType": "uint256",
          "name": "id",
          "type": "uint256"
        }
      ],
      "name": "setImpeachSuccess",
      "outputs": [],
      "stateMutability": "nonpayable",
      "type": "function"
    },
    {
      "inputs": [
        {
          "internalType": "contract ICommunityGovernanceFund",
          "name": "gov",
          "type": "address"
        },
        {
          "internalType": "uint256",
          "name": "impeachtype",
          "type": "uint256"
        },
        {
          "internalType": "address",
          "name": "user",
          "type": "address"
        },
        {
          "internalType": "uint256",
          "name": "amount",
          "type": "uint256"
        }
      ],
      "name": "impeachCommunityGovFund",
      "outputs": [],
      "stateMutability": "nonpayable",
      "type": "function"
    }
  ],
  "bytecode": "0x60806040523480156200001157600080fd5b50604051620015b0380380620015b08339810160408190526200003491620000a1565b600080546001600160a01b039485166001600160a01b03199182168117909255600180548216909217909155600280549385169382169390931790925560038054919093169116179055620000ea565b80516001600160a01b03811681146200009c57600080fd5b919050565b600080600060608486031215620000b6578283fd5b620000c18462000084565b9250620000d16020850162000084565b9150620000e16040850162000084565b90509250925092565b6114b680620000fa6000396000f3fe608060405234801561001057600080fd5b50600436106100cf5760003560e01c8063674b5a301161008c57806399a723e41161006657806399a723e41461019d578063e689692f146101a5578063e934f98f146101b8578063f2f4eb26146101cb576100cf565b8063674b5a301461017a57806370ca09bc14610182578063800096301461018a576100cf565b8063135b54dd146100d4578063247186ad146100f25780632b113ed9146101075780635299f2c51461011a5780635624c7eb1461012f57806358748ecc1461015a575b600080fd5b6100dc6101d3565b6040516100e9919061115e565b60405180910390f35b610105610100366004611004565b610255565b005b610105610115366004610fa1565b610640565b6101226109ab565b6040516100e99190611398565b61014261013d366004611055565b6109b1565b6040516100e99c9b9a999897969594939291906113b8565b61016d610168366004611055565b610a26565b6040516100e991906112e4565b6100dc610adf565b6100dc610aee565b610105610198366004610f26565b610afd565b6100dc610be3565b6101056101b3366004611055565b610bf2565b6101056101c63660046110f1565b610cac565b6100dc610d7d565b60035460408051630c7bec3160e11b815290516000926001600160a01b0316916318f7d862916004808301926020929190829003018186803b15801561021857600080fd5b505afa15801561022c573d6000803e3d6000fd5b505050506040513d601f19601f820116820180604052508101906102509190610fe8565b905090565b600154604051638b7f0f9560e01b8152859133916001600160a01b0390911690638b7f0f959061028b90859085906004016113a1565b60206040518083038186803b1580156102a357600080fd5b505afa1580156102b7573d6000803e3d6000fd5b505050506040513d601f19601f820116820180604052508101906102db9190610f42565b6103005760405162461bcd60e51b81526004016102f7906111db565b60405180910390fd5b68056bc75e2d6310000083101580156103225750681b1ae4d6e2ef5000008311155b61033e5760405162461bcd60e51b81526004016102f7906111fb565b846001148061034d5750846002145b61035657600080fd5b60405163249a40cd60e01b81526000906001600160a01b0389169063249a40cd90610385908a90600401611398565b60806040518083038186803b15801561039d57600080fd5b505afa1580156103b1573d6000803e3d6000fd5b505050506040513d601f19601f820116820180604052508101906103d59190610f5c565b5092505050600460008154809291906103ed90611437565b9190505550856001141561043157846001600160a01b0316816001600160a01b03161461042c5760405162461bcd60e51b81526004016102f7906111b5565b6104d4565b85600214156104d457604051633068e23760e11b81526001600160a01b038916906360d1c46e90610468908a9089906004016113a1565b60206040518083038186803b15801561048057600080fd5b505afa158015610494573d6000803e3d6000fd5b505050506040513d601f19601f820116820180604052508101906104b89190610f42565b6104d45760405162461bcd60e51b81526004016102f7906111b5565b6104f06104df6101d3565b3330683635c9adc5dea00000610d8c565b600480546000818152600560208181526040808420948555600985018c9055600185018d905591840180546001600160a01b03808d166001600160a01b03199283161790925560068601805490911633179055600a85018a905560088501805460ff19169055848601849055600254835163cf7e7b8d60e01b81529351959691169463cf7e7b8d948483019491929183900390910190829087803b15801561059757600080fd5b505af11580156105ab573d6000803e3d6000fd5b505050506040513d601f19601f820116820180604052508101906105cf919061106d565b600b8201556003810180546001600160a01b0319166001600160a01b038b1617905542600782015580546040517fc5d0683a44c6ee742a0f41f431f4deb00df8c1d354fb0baf2251786bc15b1e459061062d908b9033908b90611196565b60405180910390a2505050505050505050565b68056bc75e2d6310000081101580156106625750681b1ae4d6e2ef5000008111155b61066b57600080fd5b826001148061067a5750826002145b61068357600080fd5b60008060008060008060008a6001600160a01b03166320bec62a6040518163ffffffff1660e01b815260040160e060405180830381600087803b1580156106c957600080fd5b505af11580156106dd573d6000803e3d6000fd5b505050506040513d601f19601f820116820180604052508101906107019190611085565b96509650965096509650965096506004600081548092919061072290611437565b9190505550896001141561076657886001600160a01b0316866001600160a01b0316146107615760405162461bcd60e51b81526004016102f7906111b5565b610807565b8960021415610807576040516387ea947b60e01b81526001600160a01b038c16906387ea947b9061079b908c9060040161115e565b60206040518083038186803b1580156107b357600080fd5b505afa1580156107c7573d6000803e3d6000fd5b505050506040513d601f19601f820116820180604052508101906107eb9190610f42565b6108075760405162461bcd60e51b81526004016102f7906111b5565b6000600560006004548152602001908152602001600020905060045481600001819055508a81600901819055508b8160020160006101000a8154816001600160a01b0302191690836001600160a01b03160217905550898160050160006101000a8154816001600160a01b0302191690836001600160a01b03160217905550338160060160006101000a8154816001600160a01b0302191690836001600160a01b03160217905550600260009054906101000a90046001600160a01b03166001600160a01b031663cf7e7b8d6040518163ffffffff1660e01b8152600401602060405180830381600087803b1580156108ff57600080fd5b505af1158015610913573d6000803e3d6000fd5b505050506040513d601f19601f82011682018060405250810190610937919061106d565b600b820155600a810189905560088101805460ff19169055600060048201819055426007830155815460405190917fc5d0683a44c6ee742a0f41f431f4deb00df8c1d354fb0baf2251786bc15b1e4591610995919033908f90611196565b60405180910390a2505050505050505050505050565b60045481565b600560208190526000918252604090912080546001820154600283015460038401546004850154958501546006860154600787015460088801546009890154600a8a0154600b909a0154989a97996001600160a01b03978816999688169897958616969490951694929360ff9092169290918c565b610a2e610e8f565b506000818152600560208181526040928390208351610180810185528154815260018201549281019290925260028101546001600160a01b03908116948301949094526003810154841660608301526004810154608083015291820154831660a0820152600682015490921660c0830152600781015460e0830152600881015460ff1615156101008301526009810154610120830152600a810154610140830152600b01546101608201525b919050565b6001546001600160a01b031681565b6000546001600160a01b031681565b600354604051631c86b03760e31b81526001600160a01b039091169063e43581b890610b2d90339060040161115e565b60206040518083038186803b158015610b4557600080fd5b505afa158015610b59573d6000803e3d6000fd5b505050506040513d601f19601f82011682018060405250810190610b7d9190610f42565b610b995760405162461bcd60e51b81526004016102f79061125f565b600380546001600160a01b0319166001600160a01b0383169081179091556040517fad9400e618eb1344fde53db22397a1b82c765527ecbba3a5c86bcac15090828b90600090a250565b6002546001600160a01b031681565b60035460405163053c328d60e31b81526001600160a01b03909116906329e1946890610c2290339060040161115e565b60206040518083038186803b158015610c3a57600080fd5b505afa158015610c4e573d6000803e3d6000fd5b505050506040513d601f19601f82011682018060405250810190610c729190610f42565b610c8e5760405162461bcd60e51b81526004016102f790611228565b6000908152600560205260409020600801805460ff19166001179055565b60035460405163053c328d60e31b81526001600160a01b03909116906329e1946890610cdc90339060040161115e565b60206040518083038186803b158015610cf457600080fd5b505afa158015610d08573d6000803e3d6000fd5b505050506040513d601f19601f82011682018060405250810190610d2c9190610f42565b610d485760405162461bcd60e51b81526004016102f790611228565b600082815260056020526040902060040154610d649082610e7c565b6000928352600560205260409092206004019190915550565b6003546001600160a01b031690565b600080856001600160a01b03166323b872dd868686604051602401610db393929190611172565b6040516020818303038152906040529060e01b6020820180516001600160e01b038381831617835250505050604051610dec9190611125565b6000604051808303816000865af19150503d8060008114610e29576040519150601f19603f3d011682016040523d82523d6000602084013e610e2e565b606091505b5091509150818015610e58575080511580610e58575080806020019051810190610e589190610f42565b610e745760405162461bcd60e51b81526004016102f7906112a0565b505050505050565b6000610e88828461141f565b9392505050565b604051806101800160405280600081526020016000815260200160006001600160a01b0316815260200160006001600160a01b031681526020016000815260200160006001600160a01b0316815260200160006001600160a01b03168152602001600081526020016000151581526020016000815260200160008152602001600081525090565b80518015158114610ada57600080fd5b600060208284031215610f37578081fd5b8135610e8881611468565b600060208284031215610f53578081fd5b610e8882610f16565b60008060008060808587031215610f71578283fd5b610f7a85610f16565b9350602085015192506040850151610f9181611468565b6060959095015193969295505050565b60008060008060808587031215610fb6578384fd5b8435610fc181611468565b9350602085013592506040850135610fd881611468565b9396929550929360600135925050565b600060208284031215610ff9578081fd5b8151610e8881611468565b600080600080600060a0868803121561101b578081fd5b853561102681611468565b94506020860135935060408601359250606086013561104481611468565b949793965091946080013592915050565b600060208284031215611066578081fd5b5035919050565b60006020828403121561107e578081fd5b5051919050565b600080600080600080600060e0888a03121561109f578182fd5b8751965060208801516110b181611468565b604089015190965094506110c760608901610f16565b93506110d560808901610f16565b925060a0880151915060c0880151905092959891949750929550565b60008060408385031215611103578182fd5b50508035926020909101359150565b6001600160a01b03169052565b15159052565b60008251815b81811015611145576020818601810151858301520161112b565b818111156111535782828501525b509190910192915050565b6001600160a01b0391909116815260200190565b6001600160a01b039384168152919092166020820152604081019190915260600190565b9283526001600160a01b03918216602084015216604082015260600190565b6020808252600c908201526b3737903a3434b9903ab9b2b960a11b604082015260600190565b6020808252600690820152653737ba1034b760d11b604082015260600190565b60208082526013908201527272627420616d6f756e742069732077726f6e6760681b604082015260600190565b6020808252601d908201527f436f72655265663a2043616c6c6572206973206e6f74206120566f7465000000604082015260600190565b60208082526021908201527f436f72655265663a2043616c6c6572206973206e6f74206120676f7665726e6f6040820152603960f91b606082015260800190565b60208082526024908201527f5472616e7366657248656c7065723a205452414e534645525f46524f4d5f46416040820152631253115160e21b606082015260800190565b6000610180820190508251825260208301516020830152604083015161130d6040840182611112565b5060608301516113206060840182611112565b506080830151608083015260a083015161133d60a0840182611112565b5060c083015161135060c0840182611112565b5060e083015160e08301526101008084015161136e8285018261111f565b50506101208381015190830152610140808401519083015261016092830151929091019190915290565b90815260200190565b9182526001600160a01b0316602082015260400190565b9b8c5260208c019a909a526001600160a01b0398891660408c015296881660608b015260808a019590955292861660a0890152941660c087015260e08601939093529115156101008501526101208401919091526101408301526101608201526101800190565b6000821982111561143257611432611452565b500190565b600060001982141561144b5761144b611452565b5060010190565b634e487b7160e01b600052601160045260246000fd5b6001600160a01b038116811461147d57600080fd5b5056fea2646970667358221220cabd282f5c26685135de076968161ec11988f160dc4559ff5830363e2059512864736f6c63430008000033",
  "immutableReferences": {},
  "source": "pragma solidity ^0.8.0;\r\n\r\nimport './CityNodeRef.sol';\r\nimport '../interface/gov/IImpeach.sol';\r\nimport '@openzeppelin/contracts/utils/math/SafeMath.sol';\r\nimport '../interface/gov/ICommunityGovernanceFund.sol';\r\nimport '../interface/gov/IParliament.sol';\r\nimport '../ref/VoteIdRef.sol';\r\nimport \"../ref/CoreRef.sol\";\r\nimport \"../lib/TransferHelper.sol\";\r\ncontract Impeach is CityNodeRef,IImpeach,VoteIdRef,CoreRef {\r\n    using SafeMath for uint256;\r\n    uint public  impeachCount;\r\n\r\n    mapping(uint => PublicStructs.Impeach) public impeachs;\r\n\r\n    event impeachCreate(uint indexed id,uint nodeId,address sponsor,address acceptor);\r\n    \r\n    \r\n     constructor(address nodeAddress,address voteIdAddr,address core) public  CityNodeRef(nodeAddress) VoteIdRef(voteIdAddr) CoreRef(core) {}\r\n    /*\r\n    @dev \r\n    @params nodeId ID\r\n    @params type 1  2\r\n    @params user \r\n    @params amount RBT\r\n    */\r\n    function impeach(IParliament cn,uint nodeId, uint impeachtype, address user, uint amount) external   _inNode(nodeId, msg.sender) {\r\n        require(amount >= 100 * 10 ** 18 && amount <= 500 * 10 ** 18,'rbt amount is wrong');\r\n\r\n        require(impeachtype == 1 || impeachtype == 2);\r\n        (, , address manager,)= cn.getCityNodeInfo(nodeId);\r\n        impeachCount++;\r\n        //\r\n        if (impeachtype == 1) {\r\n            require(manager == user, 'no this user');\r\n        } else if (impeachtype == 2) {\r\n            require(cn.hasParliament(nodeId,user), 'no this user');\r\n        }\r\n        TransferHelper.safeTransferFrom(address(Rbt()),msg.sender,address(this),1000 * 10 ** 18);\r\n        PublicStructs.Impeach storage c = impeachs[impeachCount];\r\n        c.id = impeachCount;\r\n        c.impeachtype = impeachtype;\r\n        c.nodeId = nodeId;\r\n        c.acceptor = user;\r\n        c.sponsor = msg.sender;\r\n        c.amount = amount;\r\n        c.success = false;\r\n        c.tickets = 0;\r\n        c.voteId =  IVoteId(voteIdAddress).incrVoteId();\r\n        c.icn = cn;\r\n        c.creationTime = block.timestamp;\r\n        emit impeachCreate(c.id,nodeId,msg.sender,user);\r\n    }\r\n\r\n    function getImpeach(uint id)  external  override  view returns(PublicStructs.Impeach memory) {\r\n        return impeachs[id];\r\n    }\r\n    function setImpeachTickets(uint id,uint tickets) external override onlyVote{\r\n        impeachs[id].tickets = impeachs[id].tickets.add(tickets);\r\n    }\r\n    function setImpeachSuccess(uint id) external override onlyVote{\r\n        impeachs[id].success = true;\r\n    }\r\n\r\n    /*\r\n        @dev\r\n    */\r\n    function impeachCommunityGovFund(ICommunityGovernanceFund gov, uint impeachtype, address user, uint amount) external  {\r\n        require(amount >= 100 * 10 ** 18 && amount <= 500 * 10 ** 18);\r\n        require(impeachtype == 1 || impeachtype == 2);\r\n        (uint expireTime,address manager,uint voteId,bool votePeriod,bool active,uint impeachIndex,uint proposalBlockNumber)= gov.cgInfo();\r\n        impeachCount++;\r\n        //\r\n        if (impeachtype == 1) {\r\n            require(manager == user, 'no this user');\r\n        } else if (impeachtype == 2) {\r\n            require(gov.hasParliament(user), 'no this user');\r\n        }\r\n\r\n        PublicStructs.Impeach storage c = impeachs[impeachCount];\r\n        c.id = impeachCount;\r\n        c.impeachtype = impeachtype;\r\n        c.gov = gov;\r\n        c.acceptor = user;\r\n        c.sponsor = msg.sender;\r\n        c.voteId =  IVoteId(voteIdAddress).incrVoteId();\r\n        c.amount = amount;\r\n        c.success = false;\r\n        c.tickets = 0;\r\n        c.creationTime = block.timestamp;\r\n        emit impeachCreate(c.id,0,msg.sender,user);\r\n    }\r\n\r\n}\r\n",
  "sourcePath": "D://rainbow/RainbowDao-protocol/contracts/gov/Impeach.sol",
  "compiler": {
    "name": "solc",
    "version": "0.8.0+commit.c7dfd78e.Emscripten.clang"
  },
  "schemaVersion": "3.4.1",
  "updatedAt": "2021-10-16T03:51:57.843Z",
  "networkType": "ethereum",
  "devdoc": {
    "kind": "dev",
    "methods": {
      "Rbt()": {
        "returns": {
          "_0": "IFei implementation address"
        }
      },
      "core()": {
        "returns": {
          "_0": "ICore implementation address"
        }
      }
    },
    "version": 1
  },
  "userdoc": {
    "kind": "user",
    "methods": {
      "Rbt()": {
        "notice": "address of the Fei contract referenced by Core"
      },
      "core()": {
        "notice": "address of the Core contract referenced"
      }
    },
    "version": 1
  }
}