{
  "contractName": "liquidityLevelingFund",
  "abi": [
    {
      "inputs": [
        {
          "internalType": "address",
          "name": "core",
          "type": "address"
        },
        {
          "internalType": "address",
          "name": "_router",
          "type": "address"
        },
        {
          "internalType": "address",
          "name": "_rainbowRouter",
          "type": "address"
        },
        {
          "internalType": "address[]",
          "name": "_paris",
          "type": "address[]"
        },
        {
          "internalType": "uint256[]",
          "name": "_ratios",
          "type": "uint256[]"
        }
      ],
      "stateMutability": "nonpayable",
      "type": "constructor"
    },
    {
      "anonymous": false,
      "inputs": [
        {
          "indexed": true,
          "internalType": "address",
          "name": "_core",
          "type": "address"
        }
      ],
      "name": "CoreUpdate",
      "type": "event"
    },
    {
      "inputs": [],
      "name": "Rbt",
      "outputs": [
        {
          "internalType": "contract IERC20",
          "name": "",
          "type": "address"
        }
      ],
      "stateMutability": "view",
      "type": "function"
    },
    {
      "inputs": [],
      "name": "core",
      "outputs": [
        {
          "internalType": "contract ICore",
          "name": "",
          "type": "address"
        }
      ],
      "stateMutability": "view",
      "type": "function"
    },
    {
      "inputs": [],
      "name": "lastDistributionTime",
      "outputs": [
        {
          "internalType": "uint256",
          "name": "",
          "type": "uint256"
        }
      ],
      "stateMutability": "view",
      "type": "function"
    },
    {
      "inputs": [
        {
          "internalType": "uint256",
          "name": "",
          "type": "uint256"
        }
      ],
      "name": "paris",
      "outputs": [
        {
          "internalType": "address",
          "name": "",
          "type": "address"
        }
      ],
      "stateMutability": "view",
      "type": "function"
    },
    {
      "inputs": [],
      "name": "rainbowRouter",
      "outputs": [
        {
          "internalType": "contract IUniswapV2Router02",
          "name": "",
          "type": "address"
        }
      ],
      "stateMutability": "view",
      "type": "function"
    },
    {
      "inputs": [
        {
          "internalType": "uint256",
          "name": "",
          "type": "uint256"
        }
      ],
      "name": "ratios",
      "outputs": [
        {
          "internalType": "uint256",
          "name": "",
          "type": "uint256"
        }
      ],
      "stateMutability": "view",
      "type": "function"
    },
    {
      "inputs": [],
      "name": "router",
      "outputs": [
        {
          "internalType": "contract IUniswapV2Router02",
          "name": "",
          "type": "address"
        }
      ],
      "stateMutability": "view",
      "type": "function"
    },
    {
      "inputs": [
        {
          "internalType": "address",
          "name": "core",
          "type": "address"
        }
      ],
      "name": "setCore",
      "outputs": [],
      "stateMutability": "nonpayable",
      "type": "function"
    },
    {
      "inputs": [
        {
          "internalType": "uint256",
          "name": "",
          "type": "uint256"
        }
      ],
      "name": "tokens",
      "outputs": [
        {
          "internalType": "address",
          "name": "",
          "type": "address"
        }
      ],
      "stateMutability": "view",
      "type": "function"
    },
    {
      "inputs": [],
      "name": "tokenDistribution",
      "outputs": [],
      "stateMutability": "nonpayable",
      "type": "function"
    }
  ],
  "bytecode": "0x60806040523480156200001157600080fd5b506040516200142f3803806200142f833981016040819052620000349162000233565b600080546001600160a01b0319166001600160a01b03871617905580518251146200007c5760405162461bcd60e51b815260040162000073906200033a565b60405180910390fd5b600580546001600160a01b038087166001600160a01b03199283161790925560068054928616929091169190911790558051620000c1906003906020840190620000e3565b508151620000d790600290602085019062000133565b505050505050620003c8565b82805482825590600052602060002090810192821562000121579160200282015b828111156200012157825182559160200191906001019062000104565b506200012f9291506200018b565b5090565b82805482825590600052602060002090810192821562000121579160200282015b828111156200012157825182546001600160a01b0319166001600160a01b0390911617825560209092019160019091019062000154565b5b808211156200012f57600081556001016200018c565b80516001600160a01b0381168114620001ba57600080fd5b919050565b600082601f830112620001d0578081fd5b81516020620001e9620001e3836200038c565b62000360565b828152818101908583018385028701840188101562000206578586fd5b855b85811015620002265781518452928401929084019060010162000208565b5090979650505050505050565b600080600080600060a086880312156200024b578081fd5b6200025686620001a2565b9450602062000267818801620001a2565b94506200027760408801620001a2565b60608801519094506001600160401b038082111562000294578384fd5b818901915089601f830112620002a8578384fd5b8151620002b9620001e3826200038c565b81815284810190848601868402860187018e1015620002d6578788fd5b8795505b838610156200030357620002ee81620001a2565b835260019590950194918601918601620002da565b5060808c015190975094505050808311156200031d578384fd5b50506200032d88828901620001bf565b9150509295509295909350565b6020808252600c908201526b6c656e6774682077726f6e6760a01b604082015260600190565b6040518181016001600160401b0381118282101715620003845762000384620003b2565b604052919050565b60006001600160401b03821115620003a857620003a8620003b2565b5060209081020190565b634e487b7160e01b600052604160045260246000fd5b61105780620003d86000396000f3fe608060405234801561001057600080fd5b506004361061009e5760003560e01c806380009630116100665780638000963014610106578063ca4fbbcb14610119578063dfc2990114610121578063f2f4eb2614610134578063f887ea401461013c5761009e565b806308a6077c146100a3578063135b54dd146100ad5780634f64b2be146100cb57806375b17350146100de578063771dc86a146100f3575b600080fd5b6100ab610144565b005b6100b5610657565b6040516100c29190610e5c565b60405180910390f35b6100b56100d9366004610e2c565b6106e3565b6100e661070d565b6040516100c29190610ef2565b6100e6610101366004610e2c565b610713565b6100ab610114366004610d1a565b610734565b6100b5610818565b6100b561012f366004610e2c565b610827565b6100b5610837565b6100b5610846565b60045461015390613840610f6b565b42101561017b5760405162461bcd60e51b815260040161017290610eca565b60405180910390fd5b610183610855565b60005b6002548110156104c35760016002815481106101b257634e487b7160e01b600052603260045260246000fd5b600091825260209091200154600280546001600160a01b039092169163a9059cbb9190849081106101f357634e487b7160e01b600052603260045260246000fd5b9060005260206000200160009054906101000a90046001600160a01b03166102fc60646102f66003878154811061023a57634e487b7160e01b600052603260045260246000fd5b9060005260206000200154600160028154811061026757634e487b7160e01b600052603260045260246000fd5b6000918252602090912001546040516370a0823160e01b81526001600160a01b03909116906370a08231906102a0903090600401610e5c565b60206040518083038186803b1580156102b857600080fd5b505afa1580156102cc573d6000803e3d6000fd5b505050506040513d601f19601f820116820180604052508101906102f09190610e44565b90610cfb565b90610d0e565b6040518363ffffffff1660e01b8152600401610319929190610e70565b602060405180830381600087803b15801561033357600080fd5b505af1158015610347573d6000803e3d6000fd5b505050506040513d601f19601f8201168201806040525081019061036b9190610df0565b506001808154811061038d57634e487b7160e01b600052603260045260246000fd5b600091825260209091200154600280546001600160a01b039092169163a9059cbb9190849081106103ce57634e487b7160e01b600052603260045260246000fd5b9060005260206000200160009054906101000a90046001600160a01b031661044160646102f66003878154811061041557634e487b7160e01b600052603260045260246000fd5b90600052602060002001546001808154811061026757634e487b7160e01b600052603260045260246000fd5b6040518363ffffffff1660e01b815260040161045e929190610e70565b602060405180830381600087803b15801561047857600080fd5b505af115801561048c573d6000803e3d6000fd5b505050506040513d601f19601f820116820180604052508101906104b09190610df0565b50806104bb81610fc2565b915050610186565b5060016000815481106104e657634e487b7160e01b600052603260045260246000fd5b6000918252602082200154600280546001600160a01b039092169263a9059cbb9261052157634e487b7160e01b600052603260045260246000fd5b6000918252602082200154600180546001600160a01b0390921692909161055857634e487b7160e01b600052603260045260246000fd5b6000918252602090912001546040516370a0823160e01b81526001600160a01b03909116906370a0823190610591903090600401610e5c565b60206040518083038186803b1580156105a957600080fd5b505afa1580156105bd573d6000803e3d6000fd5b505050506040513d601f19601f820116820180604052508101906105e19190610e44565b6040518363ffffffff1660e01b81526004016105fe929190610e70565b602060405180830381600087803b15801561061857600080fd5b505af115801561062c573d6000803e3d6000fd5b505050506040513d601f19601f820116820180604052508101906106509190610df0565b5042600455565b60008060009054906101000a90046001600160a01b03166001600160a01b03166318f7d8626040518163ffffffff1660e01b815260040160206040518083038186803b1580156106a657600080fd5b505afa1580156106ba573d6000803e3d6000fd5b505050506040513d601f19601f820116820180604052508101906106de9190610e10565b905090565b600181815481106106f357600080fd5b6000918252602090912001546001600160a01b0316905081565b60045481565b6003818154811061072357600080fd5b600091825260209091200154905081565b600054604051631c86b03760e31b81526001600160a01b039091169063e43581b890610764903390600401610e5c565b60206040518083038186803b15801561077c57600080fd5b505afa158015610790573d6000803e3d6000fd5b505050506040513d601f19601f820116820180604052508101906107b49190610df0565b6107d05760405162461bcd60e51b815260040161017290610e89565b600080546001600160a01b0319166001600160a01b038316908117825560405190917fad9400e618eb1344fde53db22397a1b82c765527ecbba3a5c86bcac15090828b91a250565b6006546001600160a01b031681565b600281815481106106f357600080fd5b6000546001600160a01b031690565b6005546001600160a01b031681565b60001960035b600154811015610cf75760006001828154811061088857634e487b7160e01b600052603260045260246000fd5b60009182526020822001546040516370a0823160e01b81526001600160a01b03909116925082906370a08231906108c3903090600401610e5c565b60206040518083038186803b1580156108db57600080fd5b505afa1580156108ef573d6000803e3d6000fd5b505050506040513d601f19601f820116820180604052508101906109139190610e44565b60055460405163095ea7b360e01b81529192506001600160a01b038085169263095ea7b3926109489216908590600401610e70565b602060405180830381600087803b15801561096257600080fd5b505af1158015610976573d6000803e3d6000fd5b505050506040513d601f19601f8201168201806040525081019061099a9190610df0565b50604080516002808252606082018352600092602083019080368337019050509050600184815481106109dd57634e487b7160e01b600052603260045260246000fd5b600091825260208220015482516001600160a01b03909116918391610a1257634e487b7160e01b600052603260045260246000fd5b60200260200101906001600160a01b031690816001600160a01b0316815250506001600281548110610a5457634e487b7160e01b600052603260045260246000fd5b9060005260206000200160009054906101000a90046001600160a01b031681600181518110610a9357634e487b7160e01b600052603260045260246000fd5b6001600160a01b039283166020918202929092010152600554166318cbafe5610ac260646102f6866032610cfb565b600084308a6040518663ffffffff1660e01b8152600401610ae7959493929190610efb565b600060405180830381600087803b158015610b0157600080fd5b505af1158015610b15573d6000803e3d6000fd5b505050506040513d6000823e601f3d908101601f19168201604052610b3d9190810190610d36565b5060408051600280825260608201835260009260208301908036833701905050905060018581548110610b8057634e487b7160e01b600052603260045260246000fd5b600091825260208220015482516001600160a01b03909116918391610bb557634e487b7160e01b600052603260045260246000fd5b60200260200101906001600160a01b031690816001600160a01b03168152505060018081548110610bf657634e487b7160e01b600052603260045260246000fd5b9060005260206000200160009054906101000a90046001600160a01b031681600181518110610c3557634e487b7160e01b600052603260045260246000fd5b6001600160a01b039283166020918202929092010152600554166338ed1739610c6460646102f6876032610cfb565b600084308b6040518663ffffffff1660e01b8152600401610c89959493929190610efb565b600060405180830381600087803b158015610ca357600080fd5b505af1158015610cb7573d6000803e3d6000fd5b505050506040513d6000823e601f3d908101601f19168201604052610cdf9190810190610d36565b50505050508080610cef90610fc2565b91505061085b565b5050565b6000610d078284610fa3565b9392505050565b6000610d078284610f83565b600060208284031215610d2b578081fd5b8135610d0781611009565b60006020808385031215610d48578182fd5b825167ffffffffffffffff80821115610d5f578384fd5b818501915085601f830112610d72578384fd5b815181811115610d8457610d84610ff3565b83810260405185828201018181108582111715610da357610da3610ff3565b604052828152858101935084860182860187018a1015610dc1578788fd5b8795505b83861015610de3578051855260019590950194938601938601610dc5565b5098975050505050505050565b600060208284031215610e01578081fd5b81518015158114610d07578182fd5b600060208284031215610e21578081fd5b8151610d0781611009565b600060208284031215610e3d578081fd5b5035919050565b600060208284031215610e55578081fd5b5051919050565b6001600160a01b0391909116815260200190565b6001600160a01b03929092168252602082015260400190565b60208082526021908201527f436f72655265663a2043616c6c6572206973206e6f74206120676f7665726e6f6040820152603960f91b606082015260800190565b6020808252600e908201526d3a34b6b29034b9903737ba1034b760911b604082015260600190565b90815260200190565b600060a082018783526020878185015260a0604085015281875180845260c0860191508289019350845b81811015610f4a5784516001600160a01b031683529383019391830191600101610f25565b50506001600160a01b03969096166060850152505050608001529392505050565b60008219821115610f7e57610f7e610fdd565b500190565b600082610f9e57634e487b7160e01b81526012600452602481fd5b500490565b6000816000190483118215151615610fbd57610fbd610fdd565b500290565b6000600019821415610fd657610fd6610fdd565b5060010190565b634e487b7160e01b600052601160045260246000fd5b634e487b7160e01b600052604160045260246000fd5b6001600160a01b038116811461101e57600080fd5b5056fea264697066735822122044f2b867be246e1dd4dc49737c925ac7b88b42dcbc2a5f6d338bbe9f72c0984e64736f6c63430008000033",
  "immutableReferences": {},
  "source": "pragma solidity ^0.8.0;\r\nimport \"../interface/uniswap/IUniswapV2Router02.sol\";\r\nimport \"../ref/CoreRef.sol\";\r\n\r\nimport \"@openzeppelin/contracts/token/ERC20/IERC20.sol\";\r\nimport \"@openzeppelin/contracts/utils/math/SafeMath.sol\";\r\ncontract liquidityLevelingFund is CoreRef{\r\n\r\nusing SafeMath for uint256;\r\n    address[] public tokens; //0RBT  1  btc 2eth\r\n\r\n    address[] public paris; // 0 RBT-RUSD 1 RBD-RUSD 2 RBT-SEED-RUSD 4 RBT-EX -- RUSD\r\n\r\n    uint[] public ratios;\r\n\r\n    uint public lastDistributionTime;\r\n    IUniswapV2Router02 public router;\r\n    IUniswapV2Router02 public rainbowRouter;\r\n\r\n\r\n    //tokens 0 rbt 1 rbd 2 rbt-seed 3 rbt-ex 4 rusd\r\n\r\n    constructor(address core,  address _router,address _rainbowRouter,address[] memory _paris,uint[] memory _ratios ) CoreRef(core) public {\r\n        require(_paris.length == _ratios.length,'length wrong');\r\n        //uinswap router\r\n        router = IUniswapV2Router02(_router);\r\n        rainbowRouter = IUniswapV2Router02(_rainbowRouter);\r\n        ratios = _ratios;\r\n        paris = _paris;\r\n    }\r\n\r\n    //todo DCV\r\n    //token\r\n    function tokenDistribution() public {\r\n        //\r\n        require(block.timestamp >= lastDistributionTime + 14400,'time is not in');\r\n        _tokenSwap();\r\n        //eth WBTC \r\n        for(uint i=0;i<paris.length;i++){\r\n            // paris[i].transfer(this.balance.mul(ratios[i]).div(100));\r\n            // IERC20(tokens[1]).transfer(paris[i],IERC20(tokens[1]).balanceOf(this.balance.mul(ratios[i]).div(100)));\r\n            \r\n            IERC20(tokens[2]).transfer(paris[i],IERC20(tokens[2]).balanceOf(address(this)).mul(ratios[i]).div(100));\r\n            IERC20(tokens[1]).transfer(paris[i],IERC20(tokens[1]).balanceOf(address(this)).mul(ratios[i]).div(100));\r\n        }\r\n        //rbt\r\n        IERC20(tokens[0]).transfer(paris[0],IERC20(tokens[0]).balanceOf(address(this)));\r\n        lastDistributionTime = block.timestamp;\r\n    }\r\n\r\n    /*\r\n        @devrbtwbtceth\r\n    */\r\n    function _tokenSwap() internal {\r\n        uint256 endTime = type(uint256).max;\r\n        //btceth\r\n        for(uint i=3; i< tokens.length;i++){\r\n            address token = tokens[i];\r\n            uint balance = IERC20(token).balanceOf(address(this));\r\n            IERC20(token).approve(address(router),balance);\r\n            address[] memory pathEth = new address[](2);\r\n            pathEth[0] = tokens[i];\r\n            pathEth[1] = tokens[2];\r\n            router.swapExactTokensForETH(balance.mul(50).div(100),0,pathEth,address(this),endTime);\r\n            address[] memory pathBTC = new address[](2);\r\n            pathBTC[0] = tokens[i];\r\n            pathBTC[1] = tokens[1];\r\n            router.swapExactTokensForTokens(balance.mul(50).div(100),0,pathBTC,address(this),endTime);\r\n        }\r\n    }\r\n\r\n\r\n\r\n\r\n    // function _swap() public;\r\n\r\n\r\n\r\n\r\n\r\n    function _removeLiquidityETH(uint256 liquidity, address token,uint deadline) internal returns (uint256)\r\n    {\r\n        (, uint256 amountWithdrawn) =\r\n        router.removeLiquidityETH(\r\n            token,\r\n            liquidity,\r\n            0,\r\n            0,\r\n            address(this),\r\n            deadline\r\n        );\r\n        return amountWithdrawn;\r\n    }\r\n}\r\n",
  "sourcePath": "D://rainbow/RainbowDao-protocol/contracts/publicMiningFund/liquidityLevelingFund.sol",
  "compiler": {
    "name": "solc",
    "version": "0.8.0+commit.c7dfd78e.Emscripten.clang"
  },
  "schemaVersion": "3.4.1",
  "updatedAt": "2021-10-08T01:43:01.124Z",
  "devdoc": {
    "kind": "dev",
    "methods": {
      "Rbt()": {
        "returns": {
          "_0": "IFei implementation address"
        }
      },
      "core()": {
        "returns": {
          "_0": "ICore implementation address"
        }
      }
    },
    "version": 1
  },
  "userdoc": {
    "kind": "user",
    "methods": {
      "Rbt()": {
        "notice": "address of the Fei contract referenced by Core"
      },
      "core()": {
        "notice": "address of the Core contract referenced"
      }
    },
    "version": 1
  }
}