{
  "contractName": "LoanMarketOrchestrator",
  "abi": [
    {
      "anonymous": false,
      "inputs": [
        {
          "indexed": true,
          "internalType": "address",
          "name": "previousOwner",
          "type": "address"
        },
        {
          "indexed": true,
          "internalType": "address",
          "name": "newOwner",
          "type": "address"
        }
      ],
      "name": "OwnershipTransferred",
      "type": "event"
    },
    {
      "inputs": [],
      "name": "agent",
      "outputs": [
        {
          "internalType": "address",
          "name": "",
          "type": "address"
        }
      ],
      "stateMutability": "view",
      "type": "function",
      "constant": true
    },
    {
      "inputs": [],
      "name": "loanMarket",
      "outputs": [
        {
          "internalType": "address",
          "name": "",
          "type": "address"
        }
      ],
      "stateMutability": "view",
      "type": "function",
      "constant": true
    },
    {
      "inputs": [],
      "name": "owner",
      "outputs": [
        {
          "internalType": "address",
          "name": "",
          "type": "address"
        }
      ],
      "stateMutability": "view",
      "type": "function",
      "constant": true
    },
    {
      "inputs": [],
      "name": "renounceOwnership",
      "outputs": [],
      "stateMutability": "nonpayable",
      "type": "function"
    },
    {
      "inputs": [
        {
          "internalType": "address",
          "name": "newOwner",
          "type": "address"
        }
      ],
      "name": "transferOwnership",
      "outputs": [],
      "stateMutability": "nonpayable",
      "type": "function"
    },
    {
      "inputs": [
        {
          "internalType": "address",
          "name": "core",
          "type": "address"
        },
        {
          "internalType": "address",
          "name": "_rbt",
          "type": "address"
        },
        {
          "internalType": "address",
          "name": "_deposit",
          "type": "address"
        }
      ],
      "name": "init",
      "outputs": [],
      "stateMutability": "nonpayable",
      "type": "function"
    },
    {
      "inputs": [],
      "name": "detonate",
      "outputs": [],
      "stateMutability": "nonpayable",
      "type": "function"
    }
  ],
  "bytecode": "0x608060405234801561001057600080fd5b5061002161001c610026565b61002a565b61007a565b3390565b600080546001600160a01b038381166001600160a01b0319831681178455604051919092169283917f8be0079c531659141344cd1fd0a4f28419497f9722a3daafe3b4186f6b6457e09190a35050565b611e10806100896000396000f3fe608060405234801561001057600080fd5b506004361061007d5760003560e01c80638da5cb5b1161005b5780638da5cb5b146100bd578063b09614d6146100c5578063f2fde38b146100cd578063f5ff5c76146100e05761007d565b8063184b955914610082578063715018a61461009757806381f17f3f1461009f575b600080fd5b6100956100903660046103c0565b6100e8565b005b6100956101e7565b6100a7610232565b6040516100b49190610402565b60405180910390f35b6100a7610241565b610095610250565b6100956100db36600461039f565b6102a2565b6100a7610313565b6100f0610322565b6001600160a01b0316610101610241565b6001600160a01b0316146101305760405162461bcd60e51b81526004016101279061047f565b60405180910390fd5b8260405161013d90610376565b6101479190610402565b604051809103906000f080158015610163573d6000803e3d6000fd5b50600180546001600160a01b0319166001600160a01b03928316179081905560025460405163184b955960e01b81529183169263184b9559926101b0929091169086908690600401610416565b600060405180830381600087803b1580156101ca57600080fd5b505af11580156101de573d6000803e3d6000fd5b50505050505050565b6101ef610322565b6001600160a01b0316610200610241565b6001600160a01b0316146102265760405162461bcd60e51b81526004016101279061047f565b6102306000610326565b565b6001546001600160a01b031681565b6000546001600160a01b031690565b610258610322565b6001600160a01b0316610269610241565b6001600160a01b03161461028f5760405162461bcd60e51b81526004016101279061047f565b610297610241565b6001600160a01b0316ff5b6102aa610322565b6001600160a01b03166102bb610241565b6001600160a01b0316146102e15760405162461bcd60e51b81526004016101279061047f565b6001600160a01b0381166103075760405162461bcd60e51b815260040161012790610439565b61031081610326565b50565b6002546001600160a01b031681565b3390565b600080546001600160a01b038381166001600160a01b0319831681178455604051919092169283917f8be0079c531659141344cd1fd0a4f28419497f9722a3daafe3b4186f6b6457e09190a35050565b611926806104b583390190565b80356001600160a01b038116811461039a57600080fd5b919050565b6000602082840312156103b0578081fd5b6103b982610383565b9392505050565b6000806000606084860312156103d4578182fd5b6103dd84610383565b92506103eb60208501610383565b91506103f960408501610383565b90509250925092565b6001600160a01b0391909116815260200190565b6001600160a01b0393841681529183166020830152909116604082015260600190565b60208082526026908201527f4f776e61626c653a206e6577206f776e657220697320746865207a65726f206160408201526564647265737360d01b606082015260800190565b6020808252818101527f4f776e61626c653a2063616c6c6572206973206e6f7420746865206f776e657260408201526060019056fe608060405234801561001057600080fd5b5060405161192638038061192683398101604081905261002f91610054565b600080546001600160a01b0319166001600160a01b0392909216919091179055610082565b600060208284031215610065578081fd5b81516001600160a01b038116811461007b578182fd5b9392505050565b611895806100916000396000f3fe608060405234801561001057600080fd5b50600436106100935760003560e01c8063800096301161006657806380009630146100f157806380c9419e146101045780639110df851461012e578063d957af7014610141578063f2f4eb261461015457610093565b8063135b54dd14610098578063184b9559146100b657806352de2b7a146100cb578063795b4e05146100de575b600080fd5b6100a061015c565b6040516100ad9190611600565b60405180910390f35b6100c96100c43660046114b0565b6101e8565b005b6100c96100d936600461151a565b610227565b6100c96100ec366004611596565b610444565b6100c96100ff366004611471565b610858565b61011761011236600461151a565b61093c565b6040516100ad9b9a9998979695949392919061174b565b6100c961013c36600461154a565b6109b4565b6100c961014f36600461156b565b610b0f565b6100a0611372565b60008060009054906101000a90046001600160a01b03166001600160a01b03166318f7d8626040518163ffffffff1660e01b815260040160206040518083038186803b1580156101ab57600080fd5b505afa1580156101bf573d6000803e3d6000fd5b505050506040513d601f19601f820116820180604052508101906101e39190611494565b905090565b600480546001600160a01b039485166001600160a01b031991821617909155600280549385169382169390931790925560038054919093169116179055565b600161023381836117f0565b8154811061025157634e487b7160e01b600052603260045260246000fd5b60009182526020909120600b90910201600901546001600160a01b0316331480156102b75750600161028381836117f0565b815481106102a157634e487b7160e01b600052603260045260246000fd5b90600052602060002090600b0201600801546000145b6102dc5760405162461bcd60e51b81526004016102d39061165f565b60405180910390fd5b6002546004546001600160a01b03918216916342842e0e911633600161030281876117f0565b8154811061032057634e487b7160e01b600052603260045260246000fd5b90600052602060002090600b0201600001546040518463ffffffff1660e01b815260040161035093929190611614565b600060405180830381600087803b15801561036a57600080fd5b505af115801561037e573d6000803e3d6000fd5b505050506001808261039091906117f0565b815481106103ae57634e487b7160e01b600052603260045260246000fd5b600091825260208220600b9091020181815560018101829055600281018290556003810182905560048101829055600581018290556006810182905560078101829055600881018290556009810180546001600160a01b0319908116909155600a9091018054909116905560405182917ff6ec89ade5e808fa9649af4bfc0a8a0310dbaed12a78afcb4ac94969ec960e7191a250565b6002546040516331a9108f60e11b815233916001600160a01b031690636352211e90610474908890600401611727565b60206040518083038186803b15801561048c57600080fd5b505afa1580156104a0573d6000803e3d6000fd5b505050506040513d601f19601f820116820180604052508101906104c49190611494565b6001600160a01b0316146104d757600080fd5b60006104e864010000000042611807565b905060006104f684846117d1565b61050090866117d1565b600254604051631161a04b60e31b81529192506000916001600160a01b0390911690638b0d025890610536908a90600401611727565b60206040518083038186803b15801561054e57600080fd5b505afa158015610562573d6000803e3d6000fd5b505050506040513d601f19601f820116820180604052508101906105869190611532565b905060006105958560026117d1565b600180549192506000916105a8916117a5565b905060006040518061016001604052808b81526020018381526020018581526020018a815260200189815260200188815260200186815260200184815260200160008152602001600260009054906101000a90046001600160a01b03166001600160a01b0316636352211e8d6040518263ffffffff1660e01b81526004016106309190611727565b60206040518083038186803b15801561064857600080fd5b505afa15801561065c573d6000803e3d6000fd5b505050506040513d601f19601f820116820180604052508101906106809190611494565b6001600160a01b0316815260200160006001600160a01b0316815250905060018190806001815401808255809150506001900390600052602060002090600b0201600090919091909150600082015181600001556020820151816001015560408201518160020155606082015181600301556080820151816004015560a0820151816005015560c0820151816006015560e0820151816007015561010082015181600801556101208201518160090160006101000a8154816001600160a01b0302191690836001600160a01b0316021790555061014082015181600a0160006101000a8154816001600160a01b0302191690836001600160a01b031602179055505050600260009054906101000a90046001600160a01b03166001600160a01b03166342842e0e33600460009054906101000a90046001600160a01b03168d6040518463ffffffff1660e01b81526004016107dd93929190611614565b600060405180830381600087803b1580156107f757600080fd5b505af115801561080b573d6000803e3d6000fd5b505050507f5872c68779d81642c055cd59d2dcb5acdd5dcfed8826071ffbb442c79b552b568a8a8a8a6040516108449493929190611730565b60405180910390a150505050505050505050565b600054604051631c86b03760e31b81526001600160a01b039091169063e43581b890610888903390600401611600565b60206040518083038186803b1580156108a057600080fd5b505afa1580156108b4573d6000803e3d6000fd5b505050506040513d601f19601f820116820180604052508101906108d891906114fa565b6108f45760405162461bcd60e51b81526004016102d3906116a2565b600080546001600160a01b0319166001600160a01b038316908117825560405190917fad9400e618eb1344fde53db22397a1b82c765527ecbba3a5c86bcac15090828b91a250565b6001818154811061094c57600080fd5b60009182526020909120600b9091020180546001820154600283015460038401546004850154600586015460068701546007880154600889015460098a0154600a909a0154989a50969895979496939592949193909290916001600160a01b0391821691168b565b8060016109c181856117f0565b815481106109df57634e487b7160e01b600052603260045260246000fd5b90600052602060002090600b02016003015414610a0e5760405162461bcd60e51b81526004016102d390611638565b600354610a6c906001600160a01b0316336001610a2b81876117f0565b81548110610a4957634e487b7160e01b600052603260045260246000fd5b600091825260209091206009600b9092020101546001600160a01b031684611381565b600180610a7981856117f0565b81548110610a9757634e487b7160e01b600052603260045260246000fd5b600091825260209091206008600b909202010155336001610ab881856117f0565b81548110610ad657634e487b7160e01b600052603260045260246000fd5b90600052602060002090600b0201600a0160006101000a8154816001600160a01b0302191690836001600160a01b031602179055505050565b60006103e88360646001610b2381896117f0565b81548110610b4157634e487b7160e01b600052603260045260246000fd5b90600052602060002090600b020160050154610b5d91906117bd565b6001610b6981896117f0565b81548110610b8757634e487b7160e01b600052603260045260246000fd5b90600052602060002090600b020160030154610ba391906117d1565b610bad91906117d1565b6001610bb981886117f0565b81548110610bd757634e487b7160e01b600052603260045260246000fd5b90600052602060002090600b020160030154610bf391906117a5565b610bfe9060056117d1565b610c0891906117bd565b90506001610c1681866117f0565b81548110610c3457634e487b7160e01b600052603260045260246000fd5b90600052602060002090600b0201600401548311610f4857808360646001610c5c81896117f0565b81548110610c7a57634e487b7160e01b600052603260045260246000fd5b90600052602060002090600b020160050154610c9691906117bd565b6001610ca281896117f0565b81548110610cc057634e487b7160e01b600052603260045260246000fd5b90600052602060002090600b020160030154610cdc91906117d1565b610ce691906117d1565b6001610cf281886117f0565b81548110610d1057634e487b7160e01b600052603260045260246000fd5b90600052602060002090600b020160030154610d2c91906117a5565b610d3691906117a5565b821015610d4257600080fd5b600354600454610d61916001600160a01b039081169133911684611381565b600354610e9d906001600160a01b0316336001610d7e81896117f0565b81548110610d9c57634e487b7160e01b600052603260045260246000fd5b60009182526020909120600a600b9092020101546001600160a01b03168660646001610dc8818c6117f0565b81548110610de657634e487b7160e01b600052603260045260246000fd5b90600052602060002090600b020160050154610e0291906117bd565b6001610e0e818c6117f0565b81548110610e2c57634e487b7160e01b600052603260045260246000fd5b90600052602060002090600b020160030154610e4891906117d1565b610e5291906117d1565b6001610e5e818b6117f0565b81548110610e7c57634e487b7160e01b600052603260045260246000fd5b90600052602060002090600b020160030154610e9891906117a5565b611381565b6002546004546001600160a01b03918216916342842e0e9116336001610ec3818a6117f0565b81548110610ee157634e487b7160e01b600052603260045260246000fd5b90600052602060002090600b0201600001546040518463ffffffff1660e01b8152600401610f1193929190611614565b600060405180830381600087803b158015610f2b57600080fd5b505af1158015610f3f573d6000803e3d6000fd5b5050505061133d565b60036001610f5681876117f0565b81548110610f7457634e487b7160e01b600052603260045260246000fd5b90600052602060002090600b02016004015484610f9191906117f0565b1161120157600060646001610fa681886117f0565b81548110610fc457634e487b7160e01b600052603260045260246000fd5b90600052602060002090600b02016007015460018088610fe491906117f0565b8154811061100257634e487b7160e01b600052603260045260246000fd5b90600052602060002090600b0201600401548661101f91906117f0565b61102991906117d1565b61103391906117bd565b600161103f81886117f0565b8154811061105d57634e487b7160e01b600052603260045260246000fd5b90600052602060002090600b0201600601546001808861107d91906117f0565b8154811061109b57634e487b7160e01b600052603260045260246000fd5b90600052602060002090600b0201600301546110b791906117a5565b6110c191906117a5565b90506110cd82826117a5565b83146110d857600080fd5b6003546004546110f7916001600160a01b039081169133911685611381565b600354611155906001600160a01b0316336001611114818a6117f0565b8154811061113257634e487b7160e01b600052603260045260246000fd5b60009182526020909120600a600b9092020101546001600160a01b031684611381565b6002546004546001600160a01b03918216916342842e0e911633600161117b818b6117f0565b8154811061119957634e487b7160e01b600052603260045260246000fd5b90600052602060002090600b0201600001546040518463ffffffff1660e01b81526004016111c993929190611614565b600060405180830381600087803b1580156111e357600080fd5b505af11580156111f7573d6000803e3d6000fd5b505050505061133d565b6003600161120f81876117f0565b8154811061122d57634e487b7160e01b600052603260045260246000fd5b90600052602060002090600b0201600401548461124a91906117f0565b111561133d576002546004546001600160a01b03918216916342842e0e9116600161127581896117f0565b8154811061129357634e487b7160e01b600052603260045260246000fd5b60009182526020909120600a600b9092020101546001600160a01b031660016112bc818a6117f0565b815481106112da57634e487b7160e01b600052603260045260246000fd5b90600052602060002090600b0201600001546040518463ffffffff1660e01b815260040161130a93929190611614565b600060405180830381600087803b15801561132457600080fd5b505af1158015611338573d6000803e3d6000fd5b505050505b8183857f84150d563c486763473e5a92eeb9297b1ee15fd60a18bc0b93ffe30bda41b2d060405160405180910390a450505050565b6000546001600160a01b031690565b600080856001600160a01b03166323b872dd8686866040516024016113a893929190611614565b6040516020818303038152906040529060e01b6020820180516001600160e01b0383818316178352505050506040516113e191906115c7565b6000604051808303816000865af19150503d806000811461141e576040519150601f19603f3d011682016040523d82523d6000602084013e611423565b606091505b509150915081801561144d57508051158061144d57508080602001905181019061144d91906114fa565b6114695760405162461bcd60e51b81526004016102d3906116e3565b505050505050565b600060208284031215611482578081fd5b813561148d81611847565b9392505050565b6000602082840312156114a5578081fd5b815161148d81611847565b6000806000606084860312156114c4578182fd5b83356114cf81611847565b925060208401356114df81611847565b915060408401356114ef81611847565b809150509250925092565b60006020828403121561150b578081fd5b8151801515811461148d578182fd5b60006020828403121561152b578081fd5b5035919050565b600060208284031215611543578081fd5b5051919050565b6000806040838503121561155c578182fd5b50508035926020909101359150565b60008060006060848603121561157f578283fd5b505081359360208301359350604090920135919050565b600080600080608085870312156115ab578081fd5b5050823594602084013594506040840135936060013592509050565b60008251815b818110156115e757602081860181015185830152016115cd565b818111156115f55782828501525b509190910192915050565b6001600160a01b0391909116815260200190565b6001600160a01b039384168152919092166020820152604081019190915260600190565b6020808252600d908201526c125b98dbdc9c9958dd08189a59609a1b604082015260600190565b60208082526023908201527f5468652063757272656e74207573657220686173206e6f207065726d697373696040820152626f6e7360e81b606082015260800190565b60208082526021908201527f436f72655265663a2043616c6c6572206973206e6f74206120676f7665726e6f6040820152603960f91b606082015260800190565b60208082526024908201527f5472616e7366657248656c7065723a205452414e534645525f46524f4d5f46416040820152631253115160e21b606082015260800190565b90815260200190565b93845260208401929092526040830152606082015260800190565b9a8b5260208b019990995260408a01979097526060890195909552608088019390935260a087019190915260c086015260e08501526101008401526001600160a01b03908116610120840152166101408201526101600190565b600082198211156117b8576117b861181b565b500190565b6000826117cc576117cc611831565b500490565b60008160001904831182151516156117eb576117eb61181b565b500290565b6000828210156118025761180261181b565b500390565b60008261181657611816611831565b500690565b634e487b7160e01b600052601160045260246000fd5b634e487b7160e01b600052601260045260246000fd5b6001600160a01b038116811461185c57600080fd5b5056fea2646970667358221220873efa4eb4acc0337294cd7c95f958785a78d8cedd03fe5e7872cefc363be92764736f6c63430008000033a264697066735822122075b77041849908e49c6d6b27e29be202fba674a49434bffd5895057eed3e844964736f6c63430008000033",
  "immutableReferences": {},
  "source": "\r\n// SPDX-License-Identifier: MIT\r\npragma solidity ^0.8.0;\r\npragma experimental ABIEncoderV2;\r\nimport \"@openzeppelin/contracts/access/Ownable.sol\";\r\nimport \"../RainbowBank/market721/LoanMarket.sol\";\r\n\r\ncontract LoanMarketOrchestrator is  Ownable{\r\n    address public loanMarket;\r\n    address public agent;\r\n    function init(address core,address _rbt,address _deposit) public  onlyOwner{\r\n        loanMarket=address(new LoanMarket(core));\r\n        LoanMarket(loanMarket).init(agent,_rbt, _deposit);\r\n    }\r\n    function detonate() public  onlyOwner {\r\n        selfdestruct(payable(owner()));\r\n    }\r\n    \r\n}",
  "sourcePath": "D://rainbow/RainbowDao-protocol/contracts/orchestrator/LoanMarketOrchestrator.sol",
  "compiler": {
    "name": "solc",
    "version": "0.8.0+commit.c7dfd78e.Emscripten.clang"
  },
  "schemaVersion": "3.4.1",
  "updatedAt": "2021-10-16T03:51:57.556Z",
  "networkType": "ethereum",
  "devdoc": {
    "kind": "dev",
    "methods": {
      "owner()": {
        "details": "Returns the address of the current owner."
      },
      "renounceOwnership()": {
        "details": "Leaves the contract without owner. It will not be possible to call `onlyOwner` functions anymore. Can only be called by the current owner. NOTE: Renouncing ownership will leave the contract without an owner, thereby removing any functionality that is only available to the owner."
      },
      "transferOwnership(address)": {
        "details": "Transfers ownership of the contract to a new account (`newOwner`). Can only be called by the current owner."
      }
    },
    "version": 1
  },
  "userdoc": {
    "kind": "user",
    "methods": {},
    "version": 1
  }
}