{
  "contractName": "LoanMarket",
  "abi": [
    {
      "inputs": [
        {
          "internalType": "address",
          "name": "core",
          "type": "address"
        }
      ],
      "stateMutability": "nonpayable",
      "type": "constructor"
    },
    {
      "anonymous": false,
      "inputs": [
        {
          "indexed": true,
          "internalType": "address",
          "name": "_core",
          "type": "address"
        }
      ],
      "name": "CoreUpdate",
      "type": "event"
    },
    {
      "anonymous": false,
      "inputs": [
        {
          "indexed": false,
          "internalType": "uint256",
          "name": "tokenId",
          "type": "uint256"
        },
        {
          "indexed": false,
          "internalType": "uint256",
          "name": "amount",
          "type": "uint256"
        },
        {
          "indexed": false,
          "internalType": "uint256",
          "name": "day",
          "type": "uint256"
        },
        {
          "indexed": false,
          "internalType": "uint256",
          "name": "dayRate",
          "type": "uint256"
        }
      ],
      "name": "MortgageMarket",
      "type": "event"
    },
    {
      "anonymous": false,
      "inputs": [
        {
          "indexed": true,
          "internalType": "uint256",
          "name": "id",
          "type": "uint256"
        },
        {
          "indexed": true,
          "internalType": "uint256",
          "name": "day",
          "type": "uint256"
        },
        {
          "indexed": true,
          "internalType": "uint256",
          "name": "value",
          "type": "uint256"
        }
      ],
      "name": "Repayment",
      "type": "event"
    },
    {
      "anonymous": false,
      "inputs": [
        {
          "indexed": true,
          "internalType": "uint256",
          "name": "id",
          "type": "uint256"
        }
      ],
      "name": "RepealMortgage",
      "type": "event"
    },
    {
      "inputs": [],
      "name": "Rbt",
      "outputs": [
        {
          "internalType": "contract IERC20",
          "name": "",
          "type": "address"
        }
      ],
      "stateMutability": "view",
      "type": "function"
    },
    {
      "inputs": [],
      "name": "core",
      "outputs": [
        {
          "internalType": "contract ICore",
          "name": "",
          "type": "address"
        }
      ],
      "stateMutability": "view",
      "type": "function"
    },
    {
      "inputs": [
        {
          "internalType": "uint256",
          "name": "",
          "type": "uint256"
        }
      ],
      "name": "list",
      "outputs": [
        {
          "internalType": "uint256",
          "name": "tokenId",
          "type": "uint256"
        },
        {
          "internalType": "uint256",
          "name": "id",
          "type": "uint256"
        },
        {
          "internalType": "uint256",
          "name": "amount",
          "type": "uint256"
        },
        {
          "internalType": "uint256",
          "name": "money",
          "type": "uint256"
        },
        {
          "internalType": "uint256",
          "name": "day",
          "type": "uint256"
        },
        {
          "internalType": "uint256",
          "name": "dayRate",
          "type": "uint256"
        },
        {
          "internalType": "uint256",
          "name": "interest",
          "type": "uint256"
        },
        {
          "internalType": "uint256",
          "name": "contango",
          "type": "uint256"
        },
        {
          "internalType": "uint256",
          "name": "status",
          "type": "uint256"
        },
        {
          "internalType": "address",
          "name": "owner",
          "type": "address"
        },
        {
          "internalType": "address",
          "name": "lender",
          "type": "address"
        }
      ],
      "stateMutability": "view",
      "type": "function"
    },
    {
      "inputs": [
        {
          "internalType": "address",
          "name": "core",
          "type": "address"
        }
      ],
      "name": "setCore",
      "outputs": [],
      "stateMutability": "nonpayable",
      "type": "function"
    },
    {
      "inputs": [
        {
          "internalType": "address",
          "name": "_agent",
          "type": "address"
        },
        {
          "internalType": "address",
          "name": "_deposits",
          "type": "address"
        },
        {
          "internalType": "address",
          "name": "_rbt",
          "type": "address"
        }
      ],
      "name": "init",
      "outputs": [],
      "stateMutability": "nonpayable",
      "type": "function"
    },
    {
      "inputs": [
        {
          "internalType": "uint256",
          "name": "tokenId",
          "type": "uint256"
        },
        {
          "internalType": "uint256",
          "name": "amount",
          "type": "uint256"
        },
        {
          "internalType": "uint256",
          "name": "day",
          "type": "uint256"
        },
        {
          "internalType": "uint256",
          "name": "dayRate",
          "type": "uint256"
        }
      ],
      "name": "mortgageMarket",
      "outputs": [],
      "stateMutability": "nonpayable",
      "type": "function"
    },
    {
      "inputs": [
        {
          "internalType": "uint256",
          "name": "id",
          "type": "uint256"
        }
      ],
      "name": "repealMortgage",
      "outputs": [],
      "stateMutability": "nonpayable",
      "type": "function"
    },
    {
      "inputs": [
        {
          "internalType": "uint256",
          "name": "id",
          "type": "uint256"
        },
        {
          "internalType": "uint256",
          "name": "value",
          "type": "uint256"
        }
      ],
      "name": "lend",
      "outputs": [],
      "stateMutability": "nonpayable",
      "type": "function"
    },
    {
      "inputs": [
        {
          "internalType": "uint256",
          "name": "id",
          "type": "uint256"
        },
        {
          "internalType": "uint256",
          "name": "day",
          "type": "uint256"
        },
        {
          "internalType": "uint256",
          "name": "value",
          "type": "uint256"
        }
      ],
      "name": "repayment",
      "outputs": [],
      "stateMutability": "nonpayable",
      "type": "function"
    }
  ],
  "bytecode": "0x608060405234801561001057600080fd5b5060405161192638038061192683398101604081905261002f91610054565b600080546001600160a01b0319166001600160a01b0392909216919091179055610082565b600060208284031215610065578081fd5b81516001600160a01b038116811461007b578182fd5b9392505050565b611895806100916000396000f3fe608060405234801561001057600080fd5b50600436106100935760003560e01c8063800096301161006657806380009630146100f157806380c9419e146101045780639110df851461012e578063d957af7014610141578063f2f4eb261461015457610093565b8063135b54dd14610098578063184b9559146100b657806352de2b7a146100cb578063795b4e05146100de575b600080fd5b6100a061015c565b6040516100ad9190611600565b60405180910390f35b6100c96100c43660046114b0565b6101e8565b005b6100c96100d936600461151a565b610227565b6100c96100ec366004611596565b610444565b6100c96100ff366004611471565b610858565b61011761011236600461151a565b61093c565b6040516100ad9b9a9998979695949392919061174b565b6100c961013c36600461154a565b6109b4565b6100c961014f36600461156b565b610b0f565b6100a0611372565b60008060009054906101000a90046001600160a01b03166001600160a01b03166318f7d8626040518163ffffffff1660e01b815260040160206040518083038186803b1580156101ab57600080fd5b505afa1580156101bf573d6000803e3d6000fd5b505050506040513d601f19601f820116820180604052508101906101e39190611494565b905090565b600480546001600160a01b039485166001600160a01b031991821617909155600280549385169382169390931790925560038054919093169116179055565b600161023381836117f0565b8154811061025157634e487b7160e01b600052603260045260246000fd5b60009182526020909120600b90910201600901546001600160a01b0316331480156102b75750600161028381836117f0565b815481106102a157634e487b7160e01b600052603260045260246000fd5b90600052602060002090600b0201600801546000145b6102dc5760405162461bcd60e51b81526004016102d39061165f565b60405180910390fd5b6002546004546001600160a01b03918216916342842e0e911633600161030281876117f0565b8154811061032057634e487b7160e01b600052603260045260246000fd5b90600052602060002090600b0201600001546040518463ffffffff1660e01b815260040161035093929190611614565b600060405180830381600087803b15801561036a57600080fd5b505af115801561037e573d6000803e3d6000fd5b505050506001808261039091906117f0565b815481106103ae57634e487b7160e01b600052603260045260246000fd5b600091825260208220600b9091020181815560018101829055600281018290556003810182905560048101829055600581018290556006810182905560078101829055600881018290556009810180546001600160a01b0319908116909155600a9091018054909116905560405182917ff6ec89ade5e808fa9649af4bfc0a8a0310dbaed12a78afcb4ac94969ec960e7191a250565b6002546040516331a9108f60e11b815233916001600160a01b031690636352211e90610474908890600401611727565b60206040518083038186803b15801561048c57600080fd5b505afa1580156104a0573d6000803e3d6000fd5b505050506040513d601f19601f820116820180604052508101906104c49190611494565b6001600160a01b0316146104d757600080fd5b60006104e864010000000042611807565b905060006104f684846117d1565b61050090866117d1565b600254604051631161a04b60e31b81529192506000916001600160a01b0390911690638b0d025890610536908a90600401611727565b60206040518083038186803b15801561054e57600080fd5b505afa158015610562573d6000803e3d6000fd5b505050506040513d601f19601f820116820180604052508101906105869190611532565b905060006105958560026117d1565b600180549192506000916105a8916117a5565b905060006040518061016001604052808b81526020018381526020018581526020018a815260200189815260200188815260200186815260200184815260200160008152602001600260009054906101000a90046001600160a01b03166001600160a01b0316636352211e8d6040518263ffffffff1660e01b81526004016106309190611727565b60206040518083038186803b15801561064857600080fd5b505afa15801561065c573d6000803e3d6000fd5b505050506040513d601f19601f820116820180604052508101906106809190611494565b6001600160a01b0316815260200160006001600160a01b0316815250905060018190806001815401808255809150506001900390600052602060002090600b0201600090919091909150600082015181600001556020820151816001015560408201518160020155606082015181600301556080820151816004015560a0820151816005015560c0820151816006015560e0820151816007015561010082015181600801556101208201518160090160006101000a8154816001600160a01b0302191690836001600160a01b0316021790555061014082015181600a0160006101000a8154816001600160a01b0302191690836001600160a01b031602179055505050600260009054906101000a90046001600160a01b03166001600160a01b03166342842e0e33600460009054906101000a90046001600160a01b03168d6040518463ffffffff1660e01b81526004016107dd93929190611614565b600060405180830381600087803b1580156107f757600080fd5b505af115801561080b573d6000803e3d6000fd5b505050507f5872c68779d81642c055cd59d2dcb5acdd5dcfed8826071ffbb442c79b552b568a8a8a8a6040516108449493929190611730565b60405180910390a150505050505050505050565b600054604051631c86b03760e31b81526001600160a01b039091169063e43581b890610888903390600401611600565b60206040518083038186803b1580156108a057600080fd5b505afa1580156108b4573d6000803e3d6000fd5b505050506040513d601f19601f820116820180604052508101906108d891906114fa565b6108f45760405162461bcd60e51b81526004016102d3906116a2565b600080546001600160a01b0319166001600160a01b038316908117825560405190917fad9400e618eb1344fde53db22397a1b82c765527ecbba3a5c86bcac15090828b91a250565b6001818154811061094c57600080fd5b60009182526020909120600b9091020180546001820154600283015460038401546004850154600586015460068701546007880154600889015460098a0154600a909a0154989a50969895979496939592949193909290916001600160a01b0391821691168b565b8060016109c181856117f0565b815481106109df57634e487b7160e01b600052603260045260246000fd5b90600052602060002090600b02016003015414610a0e5760405162461bcd60e51b81526004016102d390611638565b600354610a6c906001600160a01b0316336001610a2b81876117f0565b81548110610a4957634e487b7160e01b600052603260045260246000fd5b600091825260209091206009600b9092020101546001600160a01b031684611381565b600180610a7981856117f0565b81548110610a9757634e487b7160e01b600052603260045260246000fd5b600091825260209091206008600b909202010155336001610ab881856117f0565b81548110610ad657634e487b7160e01b600052603260045260246000fd5b90600052602060002090600b0201600a0160006101000a8154816001600160a01b0302191690836001600160a01b031602179055505050565b60006103e88360646001610b2381896117f0565b81548110610b4157634e487b7160e01b600052603260045260246000fd5b90600052602060002090600b020160050154610b5d91906117bd565b6001610b6981896117f0565b81548110610b8757634e487b7160e01b600052603260045260246000fd5b90600052602060002090600b020160030154610ba391906117d1565b610bad91906117d1565b6001610bb981886117f0565b81548110610bd757634e487b7160e01b600052603260045260246000fd5b90600052602060002090600b020160030154610bf391906117a5565b610bfe9060056117d1565b610c0891906117bd565b90506001610c1681866117f0565b81548110610c3457634e487b7160e01b600052603260045260246000fd5b90600052602060002090600b0201600401548311610f4857808360646001610c5c81896117f0565b81548110610c7a57634e487b7160e01b600052603260045260246000fd5b90600052602060002090600b020160050154610c9691906117bd565b6001610ca281896117f0565b81548110610cc057634e487b7160e01b600052603260045260246000fd5b90600052602060002090600b020160030154610cdc91906117d1565b610ce691906117d1565b6001610cf281886117f0565b81548110610d1057634e487b7160e01b600052603260045260246000fd5b90600052602060002090600b020160030154610d2c91906117a5565b610d3691906117a5565b821015610d4257600080fd5b600354600454610d61916001600160a01b039081169133911684611381565b600354610e9d906001600160a01b0316336001610d7e81896117f0565b81548110610d9c57634e487b7160e01b600052603260045260246000fd5b60009182526020909120600a600b9092020101546001600160a01b03168660646001610dc8818c6117f0565b81548110610de657634e487b7160e01b600052603260045260246000fd5b90600052602060002090600b020160050154610e0291906117bd565b6001610e0e818c6117f0565b81548110610e2c57634e487b7160e01b600052603260045260246000fd5b90600052602060002090600b020160030154610e4891906117d1565b610e5291906117d1565b6001610e5e818b6117f0565b81548110610e7c57634e487b7160e01b600052603260045260246000fd5b90600052602060002090600b020160030154610e9891906117a5565b611381565b6002546004546001600160a01b03918216916342842e0e9116336001610ec3818a6117f0565b81548110610ee157634e487b7160e01b600052603260045260246000fd5b90600052602060002090600b0201600001546040518463ffffffff1660e01b8152600401610f1193929190611614565b600060405180830381600087803b158015610f2b57600080fd5b505af1158015610f3f573d6000803e3d6000fd5b5050505061133d565b60036001610f5681876117f0565b81548110610f7457634e487b7160e01b600052603260045260246000fd5b90600052602060002090600b02016004015484610f9191906117f0565b1161120157600060646001610fa681886117f0565b81548110610fc457634e487b7160e01b600052603260045260246000fd5b90600052602060002090600b02016007015460018088610fe491906117f0565b8154811061100257634e487b7160e01b600052603260045260246000fd5b90600052602060002090600b0201600401548661101f91906117f0565b61102991906117d1565b61103391906117bd565b600161103f81886117f0565b8154811061105d57634e487b7160e01b600052603260045260246000fd5b90600052602060002090600b0201600601546001808861107d91906117f0565b8154811061109b57634e487b7160e01b600052603260045260246000fd5b90600052602060002090600b0201600301546110b791906117a5565b6110c191906117a5565b90506110cd82826117a5565b83146110d857600080fd5b6003546004546110f7916001600160a01b039081169133911685611381565b600354611155906001600160a01b0316336001611114818a6117f0565b8154811061113257634e487b7160e01b600052603260045260246000fd5b60009182526020909120600a600b9092020101546001600160a01b031684611381565b6002546004546001600160a01b03918216916342842e0e911633600161117b818b6117f0565b8154811061119957634e487b7160e01b600052603260045260246000fd5b90600052602060002090600b0201600001546040518463ffffffff1660e01b81526004016111c993929190611614565b600060405180830381600087803b1580156111e357600080fd5b505af11580156111f7573d6000803e3d6000fd5b505050505061133d565b6003600161120f81876117f0565b8154811061122d57634e487b7160e01b600052603260045260246000fd5b90600052602060002090600b0201600401548461124a91906117f0565b111561133d576002546004546001600160a01b03918216916342842e0e9116600161127581896117f0565b8154811061129357634e487b7160e01b600052603260045260246000fd5b60009182526020909120600a600b9092020101546001600160a01b031660016112bc818a6117f0565b815481106112da57634e487b7160e01b600052603260045260246000fd5b90600052602060002090600b0201600001546040518463ffffffff1660e01b815260040161130a93929190611614565b600060405180830381600087803b15801561132457600080fd5b505af1158015611338573d6000803e3d6000fd5b505050505b8183857f84150d563c486763473e5a92eeb9297b1ee15fd60a18bc0b93ffe30bda41b2d060405160405180910390a450505050565b6000546001600160a01b031690565b600080856001600160a01b03166323b872dd8686866040516024016113a893929190611614565b6040516020818303038152906040529060e01b6020820180516001600160e01b0383818316178352505050506040516113e191906115c7565b6000604051808303816000865af19150503d806000811461141e576040519150601f19603f3d011682016040523d82523d6000602084013e611423565b606091505b509150915081801561144d57508051158061144d57508080602001905181019061144d91906114fa565b6114695760405162461bcd60e51b81526004016102d3906116e3565b505050505050565b600060208284031215611482578081fd5b813561148d81611847565b9392505050565b6000602082840312156114a5578081fd5b815161148d81611847565b6000806000606084860312156114c4578182fd5b83356114cf81611847565b925060208401356114df81611847565b915060408401356114ef81611847565b809150509250925092565b60006020828403121561150b578081fd5b8151801515811461148d578182fd5b60006020828403121561152b578081fd5b5035919050565b600060208284031215611543578081fd5b5051919050565b6000806040838503121561155c578182fd5b50508035926020909101359150565b60008060006060848603121561157f578283fd5b505081359360208301359350604090920135919050565b600080600080608085870312156115ab578081fd5b5050823594602084013594506040840135936060013592509050565b60008251815b818110156115e757602081860181015185830152016115cd565b818111156115f55782828501525b509190910192915050565b6001600160a01b0391909116815260200190565b6001600160a01b039384168152919092166020820152604081019190915260600190565b6020808252600d908201526c125b98dbdc9c9958dd08189a59609a1b604082015260600190565b60208082526023908201527f5468652063757272656e74207573657220686173206e6f207065726d697373696040820152626f6e7360e81b606082015260800190565b60208082526021908201527f436f72655265663a2043616c6c6572206973206e6f74206120676f7665726e6f6040820152603960f91b606082015260800190565b60208082526024908201527f5472616e7366657248656c7065723a205452414e534645525f46524f4d5f46416040820152631253115160e21b606082015260800190565b90815260200190565b93845260208401929092526040830152606082015260800190565b9a8b5260208b019990995260408a01979097526060890195909552608088019390935260a087019190915260c086015260e08501526101008401526001600160a01b03908116610120840152166101408201526101600190565b600082198211156117b8576117b861181b565b500190565b6000826117cc576117cc611831565b500490565b60008160001904831182151516156117eb576117eb61181b565b500290565b6000828210156118025761180261181b565b500390565b60008261181657611816611831565b500690565b634e487b7160e01b600052601160045260246000fd5b634e487b7160e01b600052601260045260246000fd5b6001600160a01b038116811461185c57600080fd5b5056fea2646970667358221220873efa4eb4acc0337294cd7c95f958785a78d8cedd03fe5e7872cefc363be92764736f6c63430008000033",
  "immutableReferences": {},
  "source": "pragma solidity ^0.8.0;\r\nimport \"../../interface/token721/IRbtDeposit721.sol\";\r\nimport \"../RainbowBank.sol\";\r\nimport \"../../ref/CoreRef.sol\";\r\ncontract LoanMarket is CoreRef{\r\n    struct LoanRecording{\r\n        uint tokenId;//id\r\n        uint id;//id\r\n        uint amount;//\r\n        uint money;//\r\n        uint day;//\r\n        uint dayRate;//\r\n        uint interest;//\r\n        uint contango;//\r\n        uint status;//  01\r\n        address owner;// \r\n        address lender;//\r\n    }\r\n    \r\n    LoanRecording[] public list;\r\n    IRbtDeposit721 deposit;\r\n    address rbt;\r\n    //\r\n\r\n    address agent;\r\n    event MortgageMarket(uint  tokenId,uint amount ,uint day ,uint dayRate);\r\n    event Repayment(uint indexed id,uint indexed day,uint indexed value);\r\n    event RepealMortgage(uint indexed id);\r\n    ///\r\n    constructor(address core)CoreRef(core){}\r\n\r\n    //\r\n    function init(address _agent,address _deposits,address _rbt) public {\r\n        agent=_agent;\r\n        deposit=IRbtDeposit721(_deposits);\r\n        rbt=_rbt;\r\n    }\r\n\r\n    //\r\n    function mortgageMarket(uint tokenId,uint amount ,uint day ,uint dayRate)public{\r\n        require(deposit.ownerOf(tokenId)==msg.sender);\r\n        uint32 blockTime = uint32(block.timestamp % 2 ** 32);\r\n        //uint expireTime=blockTime+(day*86400);\r\n        //day\r\n        uint interest =amount*(dayRate*day);\r\n        //     \r\n        uint mortgageAmount=deposit.amount(tokenId);\r\n        //\r\n        uint contango=dayRate*2;\r\n        uint id=list.length+1;\r\n        LoanRecording memory record=LoanRecording({\r\n             tokenId:tokenId,\r\n             id:id,\r\n             amount:mortgageAmount,//\r\n             money:amount,//\r\n             day:day,//\r\n             dayRate:dayRate,\r\n             interest:interest,\r\n             contango:contango,//\r\n             status:0,\r\n             owner:deposit.ownerOf(tokenId),//\r\n             lender:address(0)\r\n         });\r\n         list.push(record);\r\n        //\r\n        deposit.safeTransferFrom(msg.sender,agent, tokenId);\r\n        emit MortgageMarket(tokenId,amount,day,dayRate);\r\n    }\r\n\r\n    //\r\n    function repealMortgage(uint id)public{\r\n        require(msg.sender==list[id-1].owner&&list[id-1].status==0,\"The current user has no permissions\");\r\n        //\r\n        deposit.safeTransferFrom(agent,msg.sender, list[id-1].tokenId);\r\n        //list\r\n        delete list[id-1];\r\n        emit RepealMortgage(id);\r\n    }\r\n\r\n    //\r\n    function lend(uint id,uint value)public{\r\n        require(list[id-1].money==value,'Incorrect bid');\r\n        //rbt\r\n        TransferHelper.safeTransferFrom(rbt,msg.sender,list[id-1].owner,value);\r\n        //\r\n        list[id-1].status=1;\r\n        //\r\n        list[id-1].lender=msg.sender;\r\n    }\r\n\r\n    //\r\n    function repayment(uint id,uint day,uint value)public{\r\n        //\r\n        uint serviceCharge=(list[id-1].money+list[id-1].money*(list[id-1].dayRate/100)*day)*5/1000;\r\n        //\r\n        if(day<=list[id-1].day){\r\n            require(value>=list[id-1].money+list[id-1].money*(list[id-1].dayRate/100)*day+serviceCharge);\r\n            //\r\n            TransferHelper.safeTransferFrom(rbt,msg.sender,agent ,serviceCharge);\r\n            // \r\n            TransferHelper.safeTransferFrom(rbt,msg.sender,list[id-1].lender ,list[id-1].money+list[id-1].money*(list[id-1].dayRate/100)*day);\r\n            //\r\n            deposit.safeTransferFrom(agent, msg.sender, list[id-1].tokenId);\r\n        }else if (day-list[id-1].day<=3){ //\r\n            uint amount=list[id-1].money+list[id-1].interest+(day-list[id-1].day)*list[id-1].contango/100;\r\n            require(value==amount+serviceCharge);\r\n            //\r\n            TransferHelper.safeTransferFrom(rbt,msg.sender,agent,serviceCharge);\r\n            // \r\n            TransferHelper.safeTransferFrom(rbt,msg.sender, list[id-1].lender, amount);\r\n            //\r\n            deposit.safeTransferFrom(agent, msg.sender, list[id-1].tokenId);\r\n        }else if (day-list[id-1].day>3){\r\n            //\r\n            //\r\n            deposit.safeTransferFrom(agent, list[id-1].lender, list[id-1].tokenId);\r\n        }\r\n        emit  Repayment(id,day,value);\r\n    }\r\n}",
  "sourcePath": "D://rainbow/RainbowDao-protocol/contracts/RainbowBank/market721/LoanMarket.sol",
  "compiler": {
    "name": "solc",
    "version": "0.8.0+commit.c7dfd78e.Emscripten.clang"
  },
  "schemaVersion": "3.4.1",
  "updatedAt": "2021-10-16T03:51:57.565Z",
  "networkType": "ethereum",
  "devdoc": {
    "kind": "dev",
    "methods": {
      "Rbt()": {
        "returns": {
          "_0": "IFei implementation address"
        }
      },
      "core()": {
        "returns": {
          "_0": "ICore implementation address"
        }
      }
    },
    "version": 1
  },
  "userdoc": {
    "kind": "user",
    "methods": {
      "Rbt()": {
        "notice": "address of the Fei contract referenced by Core"
      },
      "constructor": {
        "notice": ""
      },
      "core()": {
        "notice": "address of the Core contract referenced"
      }
    },
    "version": 1
  }
}