{
  "contractName": "Permissions",
  "abi": [
    {
      "inputs": [],
      "stateMutability": "nonpayable",
      "type": "constructor"
    },
    {
      "anonymous": false,
      "inputs": [
        {
          "indexed": true,
          "internalType": "bytes32",
          "name": "role",
          "type": "bytes32"
        },
        {
          "indexed": true,
          "internalType": "bytes32",
          "name": "previousAdminRole",
          "type": "bytes32"
        },
        {
          "indexed": true,
          "internalType": "bytes32",
          "name": "newAdminRole",
          "type": "bytes32"
        }
      ],
      "name": "RoleAdminChanged",
      "type": "event"
    },
    {
      "anonymous": false,
      "inputs": [
        {
          "indexed": true,
          "internalType": "bytes32",
          "name": "role",
          "type": "bytes32"
        },
        {
          "indexed": true,
          "internalType": "address",
          "name": "account",
          "type": "address"
        },
        {
          "indexed": true,
          "internalType": "address",
          "name": "sender",
          "type": "address"
        }
      ],
      "name": "RoleGranted",
      "type": "event"
    },
    {
      "anonymous": false,
      "inputs": [
        {
          "indexed": true,
          "internalType": "bytes32",
          "name": "role",
          "type": "bytes32"
        },
        {
          "indexed": true,
          "internalType": "address",
          "name": "account",
          "type": "address"
        },
        {
          "indexed": true,
          "internalType": "address",
          "name": "sender",
          "type": "address"
        }
      ],
      "name": "RoleRevoked",
      "type": "event"
    },
    {
      "inputs": [],
      "name": "CITY_NODE_ROLE",
      "outputs": [
        {
          "internalType": "bytes32",
          "name": "",
          "type": "bytes32"
        }
      ],
      "stateMutability": "view",
      "type": "function"
    },
    {
      "inputs": [],
      "name": "DEFAULT_ADMIN_ROLE",
      "outputs": [
        {
          "internalType": "bytes32",
          "name": "",
          "type": "bytes32"
        }
      ],
      "stateMutability": "view",
      "type": "function"
    },
    {
      "inputs": [],
      "name": "GOVERN_ROLE",
      "outputs": [
        {
          "internalType": "bytes32",
          "name": "",
          "type": "bytes32"
        }
      ],
      "stateMutability": "view",
      "type": "function"
    },
    {
      "inputs": [],
      "name": "VOTE_ROLE",
      "outputs": [
        {
          "internalType": "bytes32",
          "name": "",
          "type": "bytes32"
        }
      ],
      "stateMutability": "view",
      "type": "function"
    },
    {
      "inputs": [
        {
          "internalType": "bytes32",
          "name": "role",
          "type": "bytes32"
        }
      ],
      "name": "getRoleAdmin",
      "outputs": [
        {
          "internalType": "bytes32",
          "name": "",
          "type": "bytes32"
        }
      ],
      "stateMutability": "view",
      "type": "function"
    },
    {
      "inputs": [
        {
          "internalType": "bytes32",
          "name": "role",
          "type": "bytes32"
        },
        {
          "internalType": "address",
          "name": "account",
          "type": "address"
        }
      ],
      "name": "grantRole",
      "outputs": [],
      "stateMutability": "nonpayable",
      "type": "function"
    },
    {
      "inputs": [
        {
          "internalType": "bytes32",
          "name": "role",
          "type": "bytes32"
        },
        {
          "internalType": "address",
          "name": "account",
          "type": "address"
        }
      ],
      "name": "hasRole",
      "outputs": [
        {
          "internalType": "bool",
          "name": "",
          "type": "bool"
        }
      ],
      "stateMutability": "view",
      "type": "function"
    },
    {
      "inputs": [
        {
          "internalType": "bytes32",
          "name": "role",
          "type": "bytes32"
        },
        {
          "internalType": "address",
          "name": "account",
          "type": "address"
        }
      ],
      "name": "renounceRole",
      "outputs": [],
      "stateMutability": "nonpayable",
      "type": "function"
    },
    {
      "inputs": [
        {
          "internalType": "bytes32",
          "name": "role",
          "type": "bytes32"
        },
        {
          "internalType": "address",
          "name": "account",
          "type": "address"
        }
      ],
      "name": "revokeRole",
      "outputs": [],
      "stateMutability": "nonpayable",
      "type": "function"
    },
    {
      "inputs": [
        {
          "internalType": "bytes4",
          "name": "interfaceId",
          "type": "bytes4"
        }
      ],
      "name": "supportsInterface",
      "outputs": [
        {
          "internalType": "bool",
          "name": "",
          "type": "bool"
        }
      ],
      "stateMutability": "view",
      "type": "function"
    },
    {
      "inputs": [
        {
          "internalType": "address",
          "name": "_address",
          "type": "address"
        }
      ],
      "name": "isVote",
      "outputs": [
        {
          "internalType": "bool",
          "name": "",
          "type": "bool"
        }
      ],
      "stateMutability": "view",
      "type": "function"
    },
    {
      "inputs": [
        {
          "internalType": "address",
          "name": "vote",
          "type": "address"
        }
      ],
      "name": "grantVote",
      "outputs": [],
      "stateMutability": "nonpayable",
      "type": "function"
    },
    {
      "inputs": [
        {
          "internalType": "address",
          "name": "vote",
          "type": "address"
        }
      ],
      "name": "revokeVote",
      "outputs": [],
      "stateMutability": "nonpayable",
      "type": "function"
    },
    {
      "inputs": [
        {
          "internalType": "address",
          "name": "_address",
          "type": "address"
        }
      ],
      "name": "isCityNode",
      "outputs": [
        {
          "internalType": "bool",
          "name": "",
          "type": "bool"
        }
      ],
      "stateMutability": "view",
      "type": "function"
    },
    {
      "inputs": [
        {
          "internalType": "address",
          "name": "cityNode",
          "type": "address"
        }
      ],
      "name": "grantCityNode",
      "outputs": [],
      "stateMutability": "nonpayable",
      "type": "function"
    },
    {
      "inputs": [
        {
          "internalType": "address",
          "name": "cityNode",
          "type": "address"
        }
      ],
      "name": "revokeCityNode",
      "outputs": [],
      "stateMutability": "nonpayable",
      "type": "function"
    },
    {
      "inputs": [
        {
          "internalType": "address",
          "name": "governor",
          "type": "address"
        }
      ],
      "name": "grantGovernor",
      "outputs": [],
      "stateMutability": "nonpayable",
      "type": "function"
    },
    {
      "inputs": [
        {
          "internalType": "address",
          "name": "governor",
          "type": "address"
        }
      ],
      "name": "revokeGovernor",
      "outputs": [],
      "stateMutability": "nonpayable",
      "type": "function"
    },
    {
      "inputs": [
        {
          "internalType": "bytes32",
          "name": "role",
          "type": "bytes32"
        },
        {
          "internalType": "bytes32",
          "name": "adminRole",
          "type": "bytes32"
        }
      ],
      "name": "createRole",
      "outputs": [],
      "stateMutability": "nonpayable",
      "type": "function"
    },
    {
      "inputs": [
        {
          "internalType": "bytes32",
          "name": "role",
          "type": "bytes32"
        },
        {
          "internalType": "address",
          "name": "account",
          "type": "address"
        }
      ],
      "name": "revokeOverride",
      "outputs": [],
      "stateMutability": "nonpayable",
      "type": "function"
    },
    {
      "inputs": [
        {
          "internalType": "address",
          "name": "_address",
          "type": "address"
        }
      ],
      "name": "isGovernor",
      "outputs": [
        {
          "internalType": "bool",
          "name": "",
          "type": "bool"
        }
      ],
      "stateMutability": "view",
      "type": "function"
    }
  ],
  "bytecode": "0x60806040523480156200001157600080fd5b506200001d30620000b4565b6200003860008051602062000feb83398151915280620000d2565b620000737f6dcaf29264e7302214a7805c382452aa059b86f56f435983d2dec44689482a1760008051602062000feb833981519152620000d2565b620000ae7fc65b6dc445843af69e7af2fc32667c7d3b98b02602373e2d0a7a047f274806f760008051602062000feb833981519152620000d2565b62000203565b620000cf60008051602062000feb8339815191528262000127565b50565b6000620000df8362000137565b600084815260208190526040808220600101859055519192508391839186917fbd79b86ffe0ab8e8776151514217cd7cacd52c909f66475c3af44e129f0b00ff9190a4505050565b6200013382826200014c565b5050565b60009081526020819052604090206001015490565b620001588282620001d6565b62000133576000828152602081815260408083206001600160a01b03851684529091529020805460ff1916600117905562000192620001ff565b6001600160a01b0316816001600160a01b0316837f2f8788117e7eff1d82e926ec794901d17c78024a50270940304540a733656f0d60405160405180910390a45050565b6000918252602082815260408084206001600160a01b0393909316845291905290205460ff1690565b3390565b610dd880620002136000396000f3fe608060405234801561001057600080fd5b50600436106101375760003560e01c806338b7f446116100b857806391d148541161007c57806391d148541461025d5780639ff3a6a214610270578063a217fddf14610283578063d547741f1461028b578063e43581b81461029e578063e6eb982f146102b157610137565b806338b7f44614610214578063395c62e81461021c5780634c9f93841461022f5780635a1f3e371461024257806367d7b1fa1461025557610137565b8063248a9ca3116100ff578063248a9ca3146101b557806329e19468146101c85780632ab963dd146101db5780632f2ff15d146101ee57806336568abe1461020157610137565b806301ffc9a71461013c57806304f9bdb5146101655780630519bac31461017a578063080bf57c1461018f5780631f9a9d66146101a2575b600080fd5b61014f61014a366004610a9e565b6102c4565b60405161015c9190610b3b565b60405180910390f35b61016d6102f1565b60405161015c9190610b46565b61018d610188366004610a20565b610303565b005b61018d61019d366004610a52565b61034c565b61014f6101b0366004610a20565b6103d5565b61016d6101c3366004610a3a565b6103ef565b61014f6101d6366004610a20565b610404565b61018d6101e9366004610a20565b61041e565b61018d6101fc366004610a52565b610457565b61018d61020f366004610a52565b610480565b61016d6104c6565b61018d61022a366004610a20565b6104d8565b61018d61023d366004610a7d565b610515565b61018d610250366004610a20565b610544565b61016d610581565b61014f61026b366004610a52565b610593565b61018d61027e366004610a20565b6105bc565b61016d6105f9565b61018d610299366004610a52565b6105fe565b61014f6102ac366004610a20565b61061d565b61018d6102bf366004610a20565b610637565b60006001600160e01b03198216637965db0b60e01b14806102e957506102e982610674565b90505b919050565b600080516020610d4383398151915281565b61030c3361061d565b6103315760405162461bcd60e51b815260040161032890610bce565b60405180910390fd5b610349600080516020610d43833981519152826105fe565b50565b600080516020610d8383398151915282141561037a5760405162461bcd60e51b815260040161032890610c13565b60405163d547741f60e01b8152309063d547741f9061039f9085908590600401610b4f565b600060405180830381600087803b1580156103b957600080fd5b505af11580156103cd573d6000803e3d6000fd5b505050505050565b60006102e9600080516020610d6383398151915283610593565b60009081526020819052604090206001015490565b60006102e9600080516020610d4383398151915283610593565b6104273361061d565b6104435760405162461bcd60e51b815260040161032890610bce565b610349600080516020610d63833981519152825b610460826103ef565b6104718161046c61068d565b610691565b61047b83836106f5565b505050565b61048861068d565b6001600160a01b0316816001600160a01b0316146104b85760405162461bcd60e51b815260040161032890610c5f565b6104c2828261077a565b5050565b600080516020610d8383398151915281565b6104e13361061d565b6104fd5760405162461bcd60e51b815260040161032890610bce565b610349600080516020610d8383398151915282610457565b61051e3361061d565b61053a5760405162461bcd60e51b815260040161032890610bce565b6104c282826107fd565b61054d3361061d565b6105695760405162461bcd60e51b815260040161032890610bce565b610349600080516020610d63833981519152826105fe565b600080516020610d6383398151915281565b6000918252602082815260408084206001600160a01b0393909316845291905290205460ff1690565b6105c53361061d565b6105e15760405162461bcd60e51b815260040161032890610bce565b610349600080516020610d4383398151915282610457565b600081565b610607826103ef565b6106138161046c61068d565b61047b838361077a565b60006102e9600080516020610d8383398151915283610593565b6106403361061d565b61065c5760405162461bcd60e51b815260040161032890610bce565b610349600080516020610d83833981519152826105fe565b6001600160e01b031981166301ffc9a760e01b14919050565b3390565b61069b8282610593565b6104c2576106b3816001600160a01b03166014610850565b6106be836020610850565b6040516020016106cf929190610ac6565b60408051601f198184030181529082905262461bcd60e51b825261032891600401610b66565b6106ff8282610593565b6104c2576000828152602081815260408083206001600160a01b03851684529091529020805460ff1916600117905561073661068d565b6001600160a01b0316816001600160a01b0316837f2f8788117e7eff1d82e926ec794901d17c78024a50270940304540a733656f0d60405160405180910390a45050565b6107848282610593565b156104c2576000828152602081815260408083206001600160a01b03851684529091529020805460ff191690556107b961068d565b6001600160a01b0316816001600160a01b0316837ff6391f5c32d9c69d2a47ea670b442974b53935d1edc7fd64eb21e047a839171b60405160405180910390a45050565b6000610808836103ef565b600084815260208190526040808220600101859055519192508391839186917fbd79b86ffe0ab8e8776151514217cd7cacd52c909f66475c3af44e129f0b00ff9190a4505050565b6060600061085f836002610cc6565b61086a906002610cae565b67ffffffffffffffff81111561089057634e487b7160e01b600052604160045260246000fd5b6040519080825280601f01601f1916602001820160405280156108ba576020820181803683370190505b509050600360fc1b816000815181106108e357634e487b7160e01b600052603260045260246000fd5b60200101906001600160f81b031916908160001a905350600f60fb1b8160018151811061092057634e487b7160e01b600052603260045260246000fd5b60200101906001600160f81b031916908160001a9053506000610944846002610cc6565b61094f906001610cae565b90505b60018111156109e3576f181899199a1a9b1b9c1cb0b131b232b360811b85600f166010811061099157634e487b7160e01b600052603260045260246000fd5b1a60f81b8282815181106109b557634e487b7160e01b600052603260045260246000fd5b60200101906001600160f81b031916908160001a90535060049490941c936109dc81610d15565b9050610952565b508315610a025760405162461bcd60e51b815260040161032890610b99565b9392505050565b80356001600160a01b03811681146102ec57600080fd5b600060208284031215610a31578081fd5b610a0282610a09565b600060208284031215610a4b578081fd5b5035919050565b60008060408385031215610a64578081fd5b82359150610a7460208401610a09565b90509250929050565b60008060408385031215610a8f578182fd5b50508035926020909101359150565b600060208284031215610aaf578081fd5b81356001600160e01b031981168114610a02578182fd5b60007f416363657373436f6e74726f6c3a206163636f756e742000000000000000000082528351610afe816017850160208801610ce5565b7001034b99036b4b9b9b4b733903937b6329607d1b6017918401918201528351610b2f816028840160208801610ce5565b01602801949350505050565b901515815260200190565b90815260200190565b9182526001600160a01b0316602082015260400190565b6000602082528251806020840152610b85816040850160208701610ce5565b601f01601f19169190910160400192915050565b6020808252818101527f537472696e67733a20686578206c656e67746820696e73756666696369656e74604082015260600190565b60208082526025908201527f5065726d697373696f6e733a2043616c6c6572206973206e6f74206120676f7660408201526432b93737b960d91b606082015260800190565b6020808252602c908201527f5065726d697373696f6e733a20477561726469616e2063616e6e6f742072657660408201526b37b5b29033b7bb32b93737b960a11b606082015260800190565b6020808252602f908201527f416363657373436f6e74726f6c3a2063616e206f6e6c792072656e6f756e636560408201526e103937b632b9903337b91039b2b63360891b606082015260800190565b60008219821115610cc157610cc1610d2c565b500190565b6000816000190483118215151615610ce057610ce0610d2c565b500290565b60005b83811015610d00578181015183820152602001610ce8565b83811115610d0f576000848401525b50505050565b600081610d2457610d24610d2c565b506000190190565b634e487b7160e01b600052601160045260246000fdfec65b6dc445843af69e7af2fc32667c7d3b98b02602373e2d0a7a047f274806f76dcaf29264e7302214a7805c382452aa059b86f56f435983d2dec44689482a17899bd46557473cb80307a9dabc297131ced39608330a2d29b2d52b660c03923ea26469706673582212206e879b7bb0f5a445ded705c87e371ab639f5a2e36bd3e2c3b5d20a81ca262a4364736f6c63430008000033899bd46557473cb80307a9dabc297131ced39608330a2d29b2d52b660c03923e",
  "immutableReferences": {},
  "source": "// SPDX-License-Identifier: MIT\r\npragma solidity ^0.8.0;\r\npragma experimental ABIEncoderV2;\r\n\r\nimport \"@openzeppelin/contracts/access/AccessControl.sol\";\r\nimport \"../interface/core/IPermissions.sol\";\r\n\r\n\r\n/// @title Access control module for Core\r\n/// @author Rainbow\r\ncontract Permissions is IPermissions, AccessControl {\r\n\r\n    //\r\n    bytes32 public constant GOVERN_ROLE = keccak256(\"GOVERN_ROLE\");\r\n    bytes32 public constant CITY_NODE_ROLE = keccak256(\"CITY_NODE_ROLE\");\r\n    bytes32 public constant VOTE_ROLE = keccak256(\"VOTE_ROLE\");\r\n\r\n    constructor() public {\r\n\r\n        _setupGovernor(address(this));\r\n        _setRoleAdmin(GOVERN_ROLE, GOVERN_ROLE);\r\n        _setRoleAdmin(CITY_NODE_ROLE, GOVERN_ROLE);\r\n        _setRoleAdmin(VOTE_ROLE, GOVERN_ROLE);\r\n\r\n    }\r\n    modifier onlyGovernor() {\r\n        require(\r\n            isGovernor(msg.sender),\r\n            \"Permissions: Caller is not a governor\"\r\n        );\r\n        _;\r\n    }\r\n    function isVote(address _address) external view override returns (bool)\r\n    {\r\n        return hasRole(VOTE_ROLE, _address);\r\n    }\r\n\r\n    function grantVote(address vote) external override onlyGovernor\r\n    {\r\n        grantRole(VOTE_ROLE, vote);\r\n    }\r\n\r\n    function revokeVote(address vote) external override onlyGovernor\r\n    {\r\n        revokeRole(VOTE_ROLE, vote);\r\n    }\r\n\r\n\r\n\r\n    function isCityNode(address _address) external view override returns (bool)\r\n    {\r\n        return hasRole(CITY_NODE_ROLE, _address);\r\n    }\r\n\r\n    function grantCityNode(address cityNode) external override onlyGovernor\r\n    {\r\n        grantRole(CITY_NODE_ROLE, cityNode);\r\n    }\r\n\r\n    function revokeCityNode(address cityNode) external override onlyGovernor\r\n    {\r\n        revokeRole(CITY_NODE_ROLE, cityNode);\r\n    }\r\n\r\n    function grantGovernor(address governor) external override onlyGovernor {\r\n        grantRole(GOVERN_ROLE, governor);\r\n    }\r\n\r\n    function revokeGovernor(address governor) external override onlyGovernor {\r\n        revokeRole(GOVERN_ROLE, governor);\r\n    }\r\n\r\n    function _setupGovernor(address governor) internal {\r\n        _setupRole(GOVERN_ROLE, governor);\r\n    }\r\n\r\n    function createRole(bytes32 role, bytes32 adminRole) external override onlyGovernor {\r\n        _setRoleAdmin(role, adminRole);\r\n    }\r\n\r\n    function revokeOverride(bytes32 role, address account) external override {\r\n        require(role != GOVERN_ROLE, \"Permissions: Guardian cannot revoke governor\");\r\n        this.revokeRole(role, account);\r\n    }\r\n\r\n    function isGovernor(address _address) public view virtual override returns (bool) {\r\n        return hasRole(GOVERN_ROLE, _address);\r\n    }\r\n\r\n}\r\n",
  "sourcePath": "D://rainbow/RainbowDao-protocol/contracts/core/Permissions.sol",
  "compiler": {
    "name": "solc",
    "version": "0.8.0+commit.c7dfd78e.Emscripten.clang"
  },
  "schemaVersion": "3.4.1",
  "updatedAt": "2021-10-08T01:43:37.231Z",
  "devdoc": {
    "author": "Rainbow",
    "kind": "dev",
    "methods": {
      "getRoleAdmin(bytes32)": {
        "details": "Returns the admin role that controls `role`. See {grantRole} and {revokeRole}. To change a role's admin, use {_setRoleAdmin}."
      },
      "grantRole(bytes32,address)": {
        "details": "Grants `role` to `account`. If `account` had not been already granted `role`, emits a {RoleGranted} event. Requirements: - the caller must have ``role``'s admin role."
      },
      "hasRole(bytes32,address)": {
        "details": "Returns `true` if `account` has been granted `role`."
      },
      "renounceRole(bytes32,address)": {
        "details": "Revokes `role` from the calling account. Roles are often managed via {grantRole} and {revokeRole}: this function's purpose is to provide a mechanism for accounts to lose their privileges if they are compromised (such as when a trusted device is misplaced). If the calling account had been granted `role`, emits a {RoleRevoked} event. Requirements: - the caller must be `account`."
      },
      "revokeRole(bytes32,address)": {
        "details": "Revokes `role` from `account`. If `account` had been granted `role`, emits a {RoleRevoked} event. Requirements: - the caller must have ``role``'s admin role."
      },
      "supportsInterface(bytes4)": {
        "details": "See {IERC165-supportsInterface}."
      }
    },
    "title": "Access control module for Core",
    "version": 1
  },
  "userdoc": {
    "kind": "user",
    "methods": {},
    "version": 1
  }
}