{
  "contractName": "RainbowRbtVip",
  "abi": [
    {
      "inputs": [
        {
          "internalType": "uint256",
          "name": "_price",
          "type": "uint256"
        },
        {
          "internalType": "address",
          "name": "_foundationAddress",
          "type": "address"
        },
        {
          "internalType": "address",
          "name": "_rbtex",
          "type": "address"
        },
        {
          "internalType": "address",
          "name": "core",
          "type": "address"
        }
      ],
      "stateMutability": "nonpayable",
      "type": "constructor"
    },
    {
      "anonymous": false,
      "inputs": [
        {
          "indexed": true,
          "internalType": "address",
          "name": "owner",
          "type": "address"
        },
        {
          "indexed": true,
          "internalType": "address",
          "name": "spender",
          "type": "address"
        },
        {
          "indexed": false,
          "internalType": "uint256",
          "name": "value",
          "type": "uint256"
        }
      ],
      "name": "Approval",
      "type": "event"
    },
    {
      "anonymous": false,
      "inputs": [
        {
          "indexed": true,
          "internalType": "address",
          "name": "owner",
          "type": "address"
        },
        {
          "indexed": true,
          "internalType": "address",
          "name": "operator",
          "type": "address"
        },
        {
          "indexed": false,
          "internalType": "bool",
          "name": "approved",
          "type": "bool"
        }
      ],
      "name": "ApprovalForAll",
      "type": "event"
    },
    {
      "anonymous": false,
      "inputs": [
        {
          "indexed": true,
          "internalType": "address",
          "name": "_core",
          "type": "address"
        }
      ],
      "name": "CoreUpdate",
      "type": "event"
    },
    {
      "anonymous": false,
      "inputs": [
        {
          "indexed": true,
          "internalType": "uint256",
          "name": "newId",
          "type": "uint256"
        },
        {
          "indexed": true,
          "internalType": "uint256",
          "name": "referrerId",
          "type": "uint256"
        }
      ],
      "name": "Register",
      "type": "event"
    },
    {
      "anonymous": false,
      "inputs": [
        {
          "indexed": true,
          "internalType": "address",
          "name": "from",
          "type": "address"
        },
        {
          "indexed": true,
          "internalType": "address",
          "name": "to",
          "type": "address"
        },
        {
          "indexed": false,
          "internalType": "uint256",
          "name": "value",
          "type": "uint256"
        }
      ],
      "name": "Transfer",
      "type": "event"
    },
    {
      "anonymous": false,
      "inputs": [
        {
          "indexed": true,
          "internalType": "address",
          "name": "tokenAddr",
          "type": "address"
        },
        {
          "indexed": true,
          "internalType": "address",
          "name": "from",
          "type": "address"
        },
        {
          "indexed": true,
          "internalType": "address",
          "name": "to",
          "type": "address"
        },
        {
          "indexed": false,
          "internalType": "uint256",
          "name": "value",
          "type": "uint256"
        }
      ],
      "name": "TransferFundation",
      "type": "event"
    },
    {
      "inputs": [],
      "name": "FoundationAddress",
      "outputs": [
        {
          "internalType": "address",
          "name": "",
          "type": "address"
        }
      ],
      "stateMutability": "view",
      "type": "function"
    },
    {
      "inputs": [],
      "name": "RBTEX",
      "outputs": [
        {
          "internalType": "address",
          "name": "",
          "type": "address"
        }
      ],
      "stateMutability": "view",
      "type": "function"
    },
    {
      "inputs": [],
      "name": "Rbt",
      "outputs": [
        {
          "internalType": "contract IERC20",
          "name": "",
          "type": "address"
        }
      ],
      "stateMutability": "view",
      "type": "function"
    },
    {
      "inputs": [],
      "name": "core",
      "outputs": [
        {
          "internalType": "contract ICore",
          "name": "",
          "type": "address"
        }
      ],
      "stateMutability": "view",
      "type": "function"
    },
    {
      "inputs": [],
      "name": "name",
      "outputs": [
        {
          "internalType": "string",
          "name": "",
          "type": "string"
        }
      ],
      "stateMutability": "view",
      "type": "function"
    },
    {
      "inputs": [
        {
          "internalType": "address",
          "name": "",
          "type": "address"
        }
      ],
      "name": "referrerMaps",
      "outputs": [
        {
          "internalType": "uint256",
          "name": "",
          "type": "uint256"
        }
      ],
      "stateMutability": "view",
      "type": "function"
    },
    {
      "inputs": [
        {
          "internalType": "address",
          "name": "core",
          "type": "address"
        }
      ],
      "name": "setCore",
      "outputs": [],
      "stateMutability": "nonpayable",
      "type": "function"
    },
    {
      "inputs": [],
      "name": "symbol",
      "outputs": [
        {
          "internalType": "string",
          "name": "",
          "type": "string"
        }
      ],
      "stateMutability": "view",
      "type": "function"
    },
    {
      "inputs": [
        {
          "internalType": "uint256",
          "name": "",
          "type": "uint256"
        }
      ],
      "name": "userListArray",
      "outputs": [
        {
          "internalType": "uint256",
          "name": "id",
          "type": "uint256"
        },
        {
          "internalType": "address",
          "name": "addrRef",
          "type": "address"
        },
        {
          "internalType": "string",
          "name": "nickname",
          "type": "string"
        },
        {
          "internalType": "address",
          "name": "userAddress",
          "type": "address"
        },
        {
          "internalType": "uint256",
          "name": "registerTime",
          "type": "uint256"
        }
      ],
      "stateMutability": "view",
      "type": "function"
    },
    {
      "inputs": [],
      "name": "validity",
      "outputs": [
        {
          "internalType": "uint256",
          "name": "",
          "type": "uint256"
        }
      ],
      "stateMutability": "view",
      "type": "function"
    },
    {
      "inputs": [
        {
          "internalType": "uint256",
          "name": "",
          "type": "uint256"
        }
      ],
      "name": "vipArray",
      "outputs": [
        {
          "internalType": "address",
          "name": "owner",
          "type": "address"
        },
        {
          "internalType": "address",
          "name": "creator",
          "type": "address"
        },
        {
          "internalType": "uint256",
          "name": "tokenId",
          "type": "uint256"
        },
        {
          "internalType": "uint256",
          "name": "crtTime",
          "type": "uint256"
        },
        {
          "internalType": "uint256",
          "name": "expireTime",
          "type": "uint256"
        }
      ],
      "stateMutability": "view",
      "type": "function"
    },
    {
      "inputs": [],
      "name": "vipPrice",
      "outputs": [
        {
          "internalType": "uint256",
          "name": "",
          "type": "uint256"
        }
      ],
      "stateMutability": "view",
      "type": "function"
    },
    {
      "inputs": [
        {
          "internalType": "uint256",
          "name": "referrerId",
          "type": "uint256"
        },
        {
          "internalType": "string",
          "name": "nickname",
          "type": "string"
        }
      ],
      "name": "register",
      "outputs": [],
      "stateMutability": "nonpayable",
      "type": "function"
    },
    {
      "inputs": [
        {
          "internalType": "uint256",
          "name": "vipNumber",
          "type": "uint256"
        },
        {
          "internalType": "address",
          "name": "token",
          "type": "address"
        }
      ],
      "name": "exchangeVip",
      "outputs": [],
      "stateMutability": "nonpayable",
      "type": "function"
    },
    {
      "inputs": [
        {
          "internalType": "address",
          "name": "addr",
          "type": "address"
        }
      ],
      "name": "getVipLevel",
      "outputs": [
        {
          "internalType": "uint256",
          "name": "",
          "type": "uint256"
        }
      ],
      "stateMutability": "view",
      "type": "function"
    },
    {
      "inputs": [],
      "name": "getAllVipIneffective",
      "outputs": [
        {
          "internalType": "uint256",
          "name": "maxExTokenId",
          "type": "uint256"
        }
      ],
      "stateMutability": "view",
      "type": "function"
    },
    {
      "inputs": [
        {
          "internalType": "address",
          "name": "addr",
          "type": "address"
        }
      ],
      "name": "getOwerVipIneffective",
      "outputs": [
        {
          "internalType": "uint256",
          "name": "maxOwnerExTokenId",
          "type": "uint256"
        }
      ],
      "stateMutability": "view",
      "type": "function"
    },
    {
      "inputs": [
        {
          "internalType": "uint256",
          "name": "tokenId",
          "type": "uint256"
        }
      ],
      "name": "ownerOf",
      "outputs": [
        {
          "internalType": "address",
          "name": "",
          "type": "address"
        }
      ],
      "stateMutability": "view",
      "type": "function"
    },
    {
      "inputs": [
        {
          "internalType": "uint256",
          "name": "tokenId",
          "type": "uint256"
        }
      ],
      "name": "getVipInfo",
      "outputs": [
        {
          "components": [
            {
              "internalType": "address",
              "name": "owner",
              "type": "address"
            },
            {
              "internalType": "address",
              "name": "creator",
              "type": "address"
            },
            {
              "internalType": "uint256",
              "name": "tokenId",
              "type": "uint256"
            },
            {
              "internalType": "uint256",
              "name": "crtTime",
              "type": "uint256"
            },
            {
              "internalType": "uint256",
              "name": "expireTime",
              "type": "uint256"
            }
          ],
          "internalType": "struct userVipStruct.Vip",
          "name": "",
          "type": "tuple"
        }
      ],
      "stateMutability": "view",
      "type": "function"
    },
    {
      "inputs": [
        {
          "internalType": "address",
          "name": "addr",
          "type": "address"
        }
      ],
      "name": "getUserInfo",
      "outputs": [
        {
          "components": [
            {
              "internalType": "uint256",
              "name": "id",
              "type": "uint256"
            },
            {
              "internalType": "address",
              "name": "addrRef",
              "type": "address"
            },
            {
              "internalType": "string",
              "name": "nickname",
              "type": "string"
            },
            {
              "internalType": "address",
              "name": "userAddress",
              "type": "address"
            },
            {
              "internalType": "uint256",
              "name": "registerTime",
              "type": "uint256"
            },
            {
              "internalType": "address[]",
              "name": "childs",
              "type": "address[]"
            }
          ],
          "internalType": "struct userVipStruct.User",
          "name": "",
          "type": "tuple"
        }
      ],
      "stateMutability": "view",
      "type": "function"
    },
    {
      "inputs": [
        {
          "internalType": "address[]",
          "name": "addr",
          "type": "address[]"
        },
        {
          "internalType": "uint256[]",
          "name": "amount",
          "type": "uint256[]"
        }
      ],
      "name": "sendVipByWhiteList",
      "outputs": [],
      "stateMutability": "nonpayable",
      "type": "function"
    },
    {
      "inputs": [
        {
          "internalType": "address",
          "name": "owner",
          "type": "address"
        },
        {
          "internalType": "uint256",
          "name": "index",
          "type": "uint256"
        }
      ],
      "name": "tokenOfOwnerByIndex",
      "outputs": [
        {
          "internalType": "uint256",
          "name": "",
          "type": "uint256"
        }
      ],
      "stateMutability": "view",
      "type": "function"
    },
    {
      "inputs": [
        {
          "internalType": "address",
          "name": "addr",
          "type": "address"
        }
      ],
      "name": "balanceOf",
      "outputs": [
        {
          "internalType": "uint256",
          "name": "",
          "type": "uint256"
        }
      ],
      "stateMutability": "view",
      "type": "function"
    },
    {
      "inputs": [],
      "name": "totalSupply",
      "outputs": [
        {
          "internalType": "uint256",
          "name": "",
          "type": "uint256"
        }
      ],
      "stateMutability": "view",
      "type": "function"
    },
    {
      "inputs": [
        {
          "internalType": "address",
          "name": "to",
          "type": "address"
        },
        {
          "internalType": "uint256",
          "name": "tokenId",
          "type": "uint256"
        }
      ],
      "name": "approve",
      "outputs": [],
      "stateMutability": "nonpayable",
      "type": "function"
    },
    {
      "inputs": [
        {
          "internalType": "address",
          "name": "from",
          "type": "address"
        },
        {
          "internalType": "address",
          "name": "to",
          "type": "address"
        },
        {
          "internalType": "uint256",
          "name": "tokenId",
          "type": "uint256"
        }
      ],
      "name": "transfer",
      "outputs": [],
      "stateMutability": "nonpayable",
      "type": "function"
    },
    {
      "inputs": [
        {
          "internalType": "address",
          "name": "from",
          "type": "address"
        },
        {
          "internalType": "address",
          "name": "to",
          "type": "address"
        },
        {
          "internalType": "uint256",
          "name": "tokenId",
          "type": "uint256"
        }
      ],
      "name": "safeTransferFrom",
      "outputs": [],
      "stateMutability": "nonpayable",
      "type": "function"
    },
    {
      "inputs": [
        {
          "internalType": "address",
          "name": "from",
          "type": "address"
        },
        {
          "internalType": "address",
          "name": "to",
          "type": "address"
        },
        {
          "internalType": "uint256",
          "name": "tokenId",
          "type": "uint256"
        },
        {
          "internalType": "bytes",
          "name": "_data",
          "type": "bytes"
        }
      ],
      "name": "safeTransferFrom",
      "outputs": [],
      "stateMutability": "nonpayable",
      "type": "function"
    },
    {
      "inputs": [
        {
          "internalType": "address",
          "name": "operator",
          "type": "address"
        },
        {
          "internalType": "bool",
          "name": "approved",
          "type": "bool"
        }
      ],
      "name": "setApprovalForAll",
      "outputs": [],
      "stateMutability": "nonpayable",
      "type": "function"
    },
    {
      "inputs": [
        {
          "internalType": "address",
          "name": "owner",
          "type": "address"
        },
        {
          "internalType": "address",
          "name": "operator",
          "type": "address"
        }
      ],
      "name": "isApprovedForAll",
      "outputs": [
        {
          "internalType": "bool",
          "name": "",
          "type": "bool"
        }
      ],
      "stateMutability": "view",
      "type": "function"
    },
    {
      "inputs": [
        {
          "internalType": "uint256",
          "name": "tokenId",
          "type": "uint256"
        }
      ],
      "name": "getApproved",
      "outputs": [
        {
          "internalType": "address",
          "name": "",
          "type": "address"
        }
      ],
      "stateMutability": "view",
      "type": "function"
    }
  ],
  "bytecode": "0x60c060405260046080819052630525649560e41b60a090815262000027916001919062000258565b50604080518082019091526004808252630525649560e41b6020909201918252620000559160029162000258565b506301e133806003556301328cf76007553480156200007357600080fd5b506040516200300438038062003004833981016040819052620000969162000373565b600080546001600160a01b038381166001600160a01b0319928316178355600487905560058054878316908416178155600680548784169085161781556040805160c08101825260075481526020808201888152835180850185529586526430b236b4b760d91b86830152828401958652336060840152426080840152835189815280830190945260a08301939093526009805460018101825598528151979093027f6e1540171b6c0c960b71a7020d9f60077f6af931a8bbf590da0223dacf75c7af810197885591517f6e1540171b6c0c960b71a7020d9f60077f6af931a8bbf590da0223dacf75c7b0830180549190961696169590951790935590518051939485949093620001ce937f6e1540171b6c0c960b71a7020d9f60077f6af931a8bbf590da0223dacf75c7b190910192019062000258565b5060608201516003820180546001600160a01b0319166001600160a01b039092169190911790556080820151600482015560a082015180516200021c916005840191602090910190620002e7565b5050600754604051600092507fe23550ce55546f73f971a932ee4b14cd8070fc95c7da57ac7e4337476b5604d1908390a3505050505062000403565b8280546200026690620003c6565b90600052602060002090601f0160209004810192826200028a5760008555620002d5565b82601f10620002a557805160ff1916838001178555620002d5565b82800160010185558215620002d5579182015b82811115620002d5578251825591602001919060010190620002b8565b50620002e39291506200033f565b5090565b828054828255906000526020600020908101928215620002d5579160200282015b82811115620002d557825182546001600160a01b0319166001600160a01b0390911617825560209092019160019091019062000308565b5b80821115620002e3576000815560010162000340565b80516001600160a01b03811681146200036e57600080fd5b919050565b6000806000806080858703121562000389578384fd5b845193506200039b6020860162000356565b9250620003ab6040860162000356565b9150620003bb6060860162000356565b905092959194509250565b600281046001821680620003db57607f821691505b60208210811415620003fd57634e487b7160e01b600052602260045260246000fd5b50919050565b612bf180620004136000396000f3fe608060405234801561001057600080fd5b50600436106101e55760003560e01c8063789d7f741161010f578063beabacc8116100a2578063db20936f11610071578063db20936f146103f0578063e340d66b14610414578063e985e9c51461041c578063f2f4eb261461043c576101e5565b8063beabacc81461039e578063ce7ca615146103b1578063cfdaac84146103b9578063d9296ebb146103dd576101e5565b8063a00fd3c8116100de578063a00fd3c814610352578063a22cb46514610365578063afff740514610378578063b88d4fde1461038b576101e5565b8063789d7f741461031c578063800096301461032457806395d89b41146103375780639954b6651461033f576101e5565b80633711b23f116101875780636352211e116101565780636352211e146102c35780636386c1c7146102d65780636ae0ea95146102f657806370a0823114610309576101e5565b80633711b23f146102805780633e98d1fb1461028857806342842e0e146102905780634d65beb1146102a3576101e5565b8063135b54dd116101c3578063135b54dd1461023d57806318160ddd146102455780632f745c591461025a57806332854c131461026d576101e5565b806306fdde03146101ea578063081812fc14610208578063095ea7b314610228575b600080fd5b6101f2610444565b6040516101ff91906124d9565b60405180910390f35b61021b610216366004612314565b6104d2565b6040516101ff919061240f565b61023b6102363660046121c9565b610560565b005b61021b610662565b61024d6106ee565b6040516101ff9190612994565b61024d6102683660046121c9565b6106f4565b61024d61027b366004612045565b61071f565b61024d610822565b61024d610828565b61023b61029e3660046120a0565b61082e565b6102b66102b1366004612314565b61084e565b6040516101ff9190612951565b61021b6102d1366004612314565b6108df565b6102e96102e4366004612045565b61092c565b6040516101ff91906128aa565b61024d610304366004612045565b610b15565b61024d610317366004612045565b610d0b565b61021b610d2c565b61023b610332366004612045565b610d3b565b6101f2610e1f565b61023b61034d3660046121f4565b610e2c565b61023b610360366004612350565b610f7d565b61023b61037336600461219c565b611287565b61024d610386366004612045565b61131f565b61023b6103993660046120e0565b611331565b61023b6103ac3660046120a0565b61136a565b61021b611489565b6103cc6103c7366004612314565b611498565b6040516101ff959493929190612484565b61023b6103eb36600461232c565b6114e5565b6104036103fe366004612314565b6115c0565b6040516101ff95949392919061299d565b61024d61169f565b61042f61042a366004612068565b611755565b6040516101ff91906124ce565b61021b611783565b6001805461045190612af3565b80601f016020809104026020016040519081016040528092919081815260200182805461047d90612af3565b80156104ca5780601f1061049f576101008083540402835291602001916104ca565b820191906000526020600020905b8154815290600101906020018083116104ad57829003601f168201915b505050505081565b60008060086104e2600185612ab0565b8154811061050057634e487b7160e01b600052603260045260246000fd5b60009182526020909120600590910201546001600160a01b031614156105415760405162461bcd60e51b815260040161053890612753565b60405180910390fd5b506000818152600c60205260409020546001600160a01b03165b919050565b6000600861056f600184612ab0565b8154811061058d57634e487b7160e01b600052603260045260246000fd5b60009182526020909120600590910201546001600160a01b03908116915083168114156105cc5760405162461bcd60e51b81526004016105389061279f565b336001600160a01b038216146105f45760405162461bcd60e51b8152600401610538906125fa565b6000828152600c60205260409081902080546001600160a01b0319166001600160a01b03848116918217909255915190851691907f8c5be1e5ebec7d5bd14f71427d1e84f3dd0314c0f7b2291e5b200ac8c7c3b92590610655908690612994565b60405180910390a3505050565b60008060009054906101000a90046001600160a01b03166001600160a01b03166318f7d8626040518163ffffffff1660e01b815260040160206040518083038186803b1580156106b157600080fd5b505afa1580156106c5573d6000803e3d6000fd5b505050506040513d601f19601f820116820180604052508101906106e991906122f8565b905090565b60085490565b6001600160a01b0382166000908152600a602052604081206107169083611792565b90505b92915050565b6001600160a01b0381166000908152600a602052604081208190610742906117eb565b90508061075357600091505061055b565b6000805b828110156107e9576001600160a01b0385166000908152600a6020526040902042906008906001906107899085611792565b6107939190612ab0565b815481106107b157634e487b7160e01b600052603260045260246000fd5b90600052602060002090600502016004015411156107d757816107d381612b49565b9250505b806107e181612b2e565b915050610757565b5060098160ff16101561081857610801600382612a63565b61080c906001612a3e565b60ff169250505061055b565b5060049392505050565b60045481565b60035481565b61084983838360405180602001604052806000815250611331565b505050565b610856611e66565b6008610863600184612ab0565b8154811061088157634e487b7160e01b600052603260045260246000fd5b60009182526020918290206040805160a081018252600590930290910180546001600160a01b039081168452600182015416938301939093526002830154908201526003820154606082015260049091015460808201529050919050565b600060086108ee600184612ab0565b8154811061090c57634e487b7160e01b600052603260045260246000fd5b60009182526020909120600590910201546001600160a01b031692915050565b610934611ea7565b336000908152600b60205260409020541561055b576007546001600160a01b0383166000908152600b602052604090205460099161097191612ab0565b8154811061098f57634e487b7160e01b600052603260045260246000fd5b90600052602060002090600602016040518060c0016040529081600082015481526020016001820160009054906101000a90046001600160a01b03166001600160a01b03166001600160a01b031681526020016002820180546109f190612af3565b80601f0160208091040260200160405190810160405280929190818152602001828054610a1d90612af3565b8015610a6a5780601f10610a3f57610100808354040283529160200191610a6a565b820191906000526020600020905b815481529060010190602001808311610a4d57829003601f168201915b505050505081526020016003820160009054906101000a90046001600160a01b03166001600160a01b03166001600160a01b031681526020016004820154815260200160058201805480602002602001604051908101604052809291908181526020018280548015610b0557602002820191906000526020600020905b81546001600160a01b03168152600190910190602001808311610ae7575b505050505081525050905061055b565b6001600160a01b0381166000908152600a602052604081208190610b38906117eb565b6001600160a01b0384166000908152600a6020526040812091925090600890600190610b649084611792565b610b6e9190612ab0565b81548110610b8c57634e487b7160e01b600052603260045260246000fd5b906000526020600020906005020160040154905060005b82811015610d03576001600160a01b0385166000908152600a602052604090208290600890600190610bd59085611792565b610bdf9190612ab0565b81548110610bfd57634e487b7160e01b600052603260045260246000fd5b9060005260206000209060050201600401541115610cf1576001600160a01b0385166000908152600a60205260409020600890600190610c3d9084611792565b610c479190612ab0565b81548110610c6557634e487b7160e01b600052603260045260246000fd5b906000526020600020906005020160040154915060086001610cb483600a60008a6001600160a01b03166001600160a01b0316815260200190815260200160002061179290919063ffffffff16565b610cbe9190612ab0565b81548110610cdc57634e487b7160e01b600052603260045260246000fd5b90600052602060002090600502016002015493505b80610cfb81612b2e565b915050610ba3565b505050919050565b6001600160a01b0381166000908152600a60205260408120610719906117eb565b6006546001600160a01b031681565b600054604051631c86b03760e31b81526001600160a01b039091169063e43581b890610d6b90339060040161240f565b60206040518083038186803b158015610d8357600080fd5b505afa158015610d97573d6000803e3d6000fd5b505050506040513d601f19601f82011682018060405250810190610dbb91906122b4565b610dd75760405162461bcd60e51b815260040161053890612825565b600080546001600160a01b0319166001600160a01b038316908117825560405190917fad9400e618eb1344fde53db22397a1b82c765527ecbba3a5c86bcac15090828b91a250565b6002805461045190612af3565b600054604051631c86b03760e31b81526001600160a01b039091169063e43581b890610e5c90339060040161240f565b60206040518083038186803b158015610e7457600080fd5b505afa158015610e88573d6000803e3d6000fd5b505050506040513d601f19601f82011682018060405250810190610eac91906122b4565b610ec85760405162461bcd60e51b815260040161053890612825565b8051825114610ee95760405162461bcd60e51b8152600401610538906126d1565b60005b82518110156108495760005b828281518110610f1857634e487b7160e01b600052603260045260246000fd5b6020026020010151811015610f6a57610f57848381518110610f4a57634e487b7160e01b600052603260045260246000fd5b60200260200101516117ef565b5080610f6281612b2e565b915050610ef8565b5080610f7581612b2e565b915050610eec565b336000908152600b602052604090205415610faa5760405162461bcd60e51b81526004016105389061263e565b600954600754600091610fbc91612a26565b90506000600960075486610fd09190612ab0565b81548110610fee57634e487b7160e01b600052603260045260246000fd5b906000526020600020906006020160030160009054906101000a90046001600160a01b0316905060006040518060c00160405280848152602001836001600160a01b0316815260200186868080601f01602080910402602001604051908101604052809392919081815260200183838082843760009201829052509385525050336020840152504260408301526060909101906040519080825280602002602001820160405280156110aa578160200160208202803683370190505b50905260098054600181018255600091909152815160069091027f6e1540171b6c0c960b71a7020d9f60077f6af931a8bbf590da0223dacf75c7af81019182556020808401517f6e1540171b6c0c960b71a7020d9f60077f6af931a8bbf590da0223dacf75c7b0830180546001600160a01b039092166001600160a01b031990921691909117905560408401518051949550859461116f937f6e1540171b6c0c960b71a7020d9f60077f6af931a8bbf590da0223dacf75c7b101929190910190611eef565b5060608201516003820180546001600160a01b0319166001600160a01b039092169190911790556080820151600482015560a082015180516111bb916005840191602090910190611f6f565b5050506009600754876111ce9190612ab0565b815481106111ec57634e487b7160e01b600052603260045260246000fd5b600091825260208083206006928302016005018054600181018255908452818420018054336001600160a01b03199091168117909155808452600b909152604090922085905554611252916001600160a01b0390911690683635c9adc5dea000006119e8565b604051869084907fe23550ce55546f73f971a932ee4b14cd8070fc95c7da57ac7e4337476b5604d190600090a3505050505050565b6001600160a01b0382163314156112b05760405162461bcd60e51b815260040161053890612663565b336000818152600d602090815260408083206001600160a01b038716808552925291829020805460ff191685151517905590519091907f17307eab39ab6107e8899845ad3d59bd9653f200f220920489ca2b5937696c31906113139085906124ce565b60405180910390a35050565b600b6020526000908152604090205481565b61133c84848461136a565b61134884848484611ad5565b6113645760405162461bcd60e51b8152600401610538906125a8565b50505050565b6001600160a01b0383166113905760405162461bcd60e51b8152600401610538906127e0565b6001600160a01b0382166113b65760405162461bcd60e51b81526004016105389061252e565b6001600160a01b0383166000908152600a602052604090206113d89082611be1565b506001600160a01b0382166000908152600a602052604090206113fb9082611d01565b5081600861140a600184612ab0565b8154811061142857634e487b7160e01b600052603260045260246000fd5b6000918252602090912060059091020180546001600160a01b0319166001600160a01b03928316179055604051838216918516907fddf252ad1be2c89b69c2b068fc378daa952ba7f163c4a11628f55a4df523b3ef90610655908590612994565b6005546001600160a01b031681565b600881815481106114a857600080fd5b6000918252602090912060059091020180546001820154600283015460038401546004909401546001600160a01b03938416955091909216929085565b600082116115055760405162461bcd60e51b81526004016105389061269a565b600061151c60045484611d4c90919063ffffffff16565b905060005b8381101561154557611532336117ef565b508061153d81612b2e565b915050611521565b5060055461156090839033906001600160a01b031684611d58565b6005546001600160a01b0390811690339084167f6fa020df86099482cd0618edb81478585e801da333da4063bc3b377d3dd830466115a685670de0b6b3a7640000612a91565b6040516115b39190612994565b60405180910390a4505050565b600981815481106115d057600080fd5b60009182526020909120600690910201805460018201546002830180549294506001600160a01b03909116929161160690612af3565b80601f016020809104026020016040519081016040528092919081815260200182805461163290612af3565b801561167f5780601f106116545761010080835404028352916020019161167f565b820191906000526020600020905b81548152906001019060200180831161166257829003601f168201915b50505050600383015460049093015491926001600160a01b031691905085565b6000805b600854811015611751576000600882815481106116d057634e487b7160e01b600052603260045260246000fd5b60009182526020918290206040805160a081018252600590930290910180546001600160a01b0390811684526001820154169383019390935260028301549082015260038201546060820152600490910154608082018190529091504210156117395750611751565b6040015191508061174981612b2e565b9150506116a3565b5090565b6001600160a01b039182166000908152600d6020908152604080832093909416825291909152205460ff1690565b6000546001600160a01b031690565b815460009082106117b55760405162461bcd60e51b8152600401610538906124ec565b8260000182815481106117d857634e487b7160e01b600052603260045260246000fd5b6000918252602090912001549392505050565b5490565b60006001600160a01b0382166118175760405162461bcd60e51b81526004016105389061271e565b600854600090611828906001612a26565b905060006040518060a00160405280856001600160a01b03168152602001856001600160a01b031681526020018381526020014281526020016003544261186f9190612a26565b905260088054600181018255600091825282517ff3f7a9fe364faab93b216da50a3214154f22a0a2b415b23a84c8169e8b636ee3600590920291820180546001600160a01b03199081166001600160a01b03938416179091556020808601517ff3f7a9fe364faab93b216da50a3214154f22a0a2b415b23a84c8169e8b636ee48501805490931693169290921790556040808501517ff3f7a9fe364faab93b216da50a3214154f22a0a2b415b23a84c8169e8b636ee584015560608501517ff3f7a9fe364faab93b216da50a3214154f22a0a2b415b23a84c8169e8b636ee684015560808501517ff3f7a9fe364faab93b216da50a3214154f22a0a2b415b23a84c8169e8b636ee790930192909255338352600a905290209091506119949083611d01565b50836001600160a01b031660006001600160a01b03167fddf252ad1be2c89b69c2b068fc378daa952ba7f163c4a11628f55a4df523b3ef846040516119d99190612994565b60405180910390a35092915050565b600080846001600160a01b031663a9059cbb8585604051602401611a0d9291906124b5565b6040516020818303038152906040529060e01b6020820180516001600160e01b038381831617835250505050604051611a4691906123f3565b6000604051808303816000865af19150503d8060008114611a83576040519150601f19603f3d011682016040523d82523d6000602084013e611a88565b606091505b5091509150818015611ab2575080511580611ab2575080806020019051810190611ab291906122b4565b611ace5760405162461bcd60e51b815260040161053890612571565b5050505050565b6000611ae084611e48565b15611bd557604051630a85bd0160e11b81526001600160a01b0385169063150b7a0290611b17903390899088908890600401612447565b602060405180830381600087803b158015611b3157600080fd5b505af1925050508015611b61575060408051601f3d908101601f19168201909252611b5e918101906122d0565b60015b611bbb573d808015611b8f576040519150601f19603f3d011682016040523d82523d6000602084013e611b94565b606091505b508051611bb35760405162461bcd60e51b8152600401610538906125a8565b805181602001fd5b6001600160e01b031916630a85bd0160e11b149050611bd9565b5060015b949350505050565b60008181526001830160205260408120548015611cf7576000611c05600183612ab0565b8554909150600090611c1990600190612ab0565b90506000866000018281548110611c4057634e487b7160e01b600052603260045260246000fd5b9060005260206000200154905080876000018481548110611c7157634e487b7160e01b600052603260045260246000fd5b600091825260209091200155611c88836001612a26565b60008281526001890160205260409020558654879080611cb857634e487b7160e01b600052603160045260246000fd5b600190038181906000526020600020016000905590558660010160008760001b8152602001908152602001600020600090556001945050505050610719565b5060009392505050565b6000611d0d8383611e4e565b611d4357508154600181810184556000848152602080822090930184905584548482528286019093526040902091909155610719565b50600092915050565b60006107168284612a91565b600080856001600160a01b03166323b872dd868686604051602401611d7f93929190612423565b6040516020818303038152906040529060e01b6020820180516001600160e01b038381831617835250505050604051611db891906123f3565b6000604051808303816000865af19150503d8060008114611df5576040519150601f19603f3d011682016040523d82523d6000602084013e611dfa565b606091505b5091509150818015611e24575080511580611e24575080806020019051810190611e2491906122b4565b611e405760405162461bcd60e51b815260040161053890612866565b505050505050565b3b151590565b60009081526001919091016020526040902054151590565b6040518060a0016040528060006001600160a01b0316815260200160006001600160a01b031681526020016000815260200160008152602001600081525090565b6040518060c001604052806000815260200160006001600160a01b031681526020016060815260200160006001600160a01b0316815260200160008152602001606081525090565b828054611efb90612af3565b90600052602060002090601f016020900481019282611f1d5760008555611f63565b82601f10611f3657805160ff1916838001178555611f63565b82800160010185558215611f63579182015b82811115611f63578251825591602001919060010190611f48565b50611751929150611fc4565b828054828255906000526020600020908101928215611f63579160200282015b82811115611f6357825182546001600160a01b0319166001600160a01b03909116178255602090920191600190910190611f8f565b5b808211156117515760008155600101611fc5565b600082601f830112611fe9578081fd5b81356020611ffe611ff983612a02565b6129d8565b828152818101908583018385028701840188101561201a578586fd5b855b858110156120385781358452928401929084019060010161201c565b5090979650505050505050565b600060208284031215612056578081fd5b813561206181612b95565b9392505050565b6000806040838503121561207a578081fd5b823561208581612b95565b9150602083013561209581612b95565b809150509250929050565b6000806000606084860312156120b4578081fd5b83356120bf81612b95565b925060208401356120cf81612b95565b929592945050506040919091013590565b600080600080608085870312156120f5578081fd5b843561210081612b95565b935060208581013561211181612b95565b935060408601359250606086013567ffffffffffffffff80821115612134578384fd5b818801915088601f830112612147578384fd5b81358181111561215957612159612b7f565b61216b601f8201601f191685016129d8565b91508082528984828501011115612180578485fd5b8084840185840137810190920192909252939692955090935050565b600080604083850312156121ae578182fd5b82356121b981612b95565b9150602083013561209581612bad565b600080604083850312156121db578182fd5b82356121e681612b95565b946020939093013593505050565b60008060408385031215612206578182fd5b823567ffffffffffffffff8082111561221d578384fd5b818501915085601f830112612230578384fd5b81356020612240611ff983612a02565b82815281810190858301838502870184018b101561225c578889fd5b8896505b8487101561228757803561227381612b95565b835260019690960195918301918301612260565b509650508601359250508082111561229d578283fd5b506122aa85828601611fd9565b9150509250929050565b6000602082840312156122c5578081fd5b815161206181612bad565b6000602082840312156122e1578081fd5b81516001600160e01b031981168114612061578182fd5b600060208284031215612309578081fd5b815161206181612b95565b600060208284031215612325578081fd5b5035919050565b6000806040838503121561233e578182fd5b82359150602083013561209581612b95565b600080600060408486031215612364578081fd5b83359250602084013567ffffffffffffffff80821115612382578283fd5b818601915086601f830112612395578283fd5b8135818111156123a3578384fd5b8760208285010111156123b4578384fd5b6020830194508093505050509250925092565b600081518084526123df816020860160208601612ac7565b601f01601f19169290920160200192915050565b60008251612405818460208701612ac7565b9190910192915050565b6001600160a01b0391909116815260200190565b6001600160a01b039384168152919092166020820152604081019190915260600190565b6001600160a01b038581168252841660208201526040810183905260806060820181905260009061247a908301846123c7565b9695505050505050565b6001600160a01b03958616815293909416602084015260408301919091526060820152608081019190915260a00190565b6001600160a01b03929092168252602082015260400190565b901515815260200190565b60006020825261071660208301846123c7565b60208082526022908201527f456e756d657261626c655365743a20696e646578206f7574206f6620626f756e604082015261647360f01b606082015260800190565b60208082526023908201527f45524332303a207472616e7366657220746f20746865207a65726f206164647260408201526265737360e81b606082015260800190565b6020808252601f908201527f5472616e7366657248656c7065723a205452414e534645525f4641494c454400604082015260600190565b60208082526032908201527f4552433732313a207472616e7366657220746f206e6f6e20455243373231526560408201527131b2b4bb32b91034b6b83632b6b2b73a32b960711b606082015260800190565b60208082526024908201527f4552433732313a20617070726f76652063616c6c6572206973206e6f74206f7760408201526303732b9160e51b606082015260800190565b6020808252600b908201526a757365722065786973747360a81b604082015260600190565b60208082526019908201527f4552433732313a20617070726f766520746f2063616c6c657200000000000000604082015260600190565b6020808252601a908201527f54686520616d6f756e7420697320696e73756666696369656e74000000000000604082015260600190565b6020808252602d908201527f41727261794c656e676874206572722c546865206c656e6774682073686f756c60408201526c64206265207468652073616d6560981b606082015260800190565b6020808252818101527f4552433732313a206d696e7420746f20746865207a65726f2061646472657373604082015260600190565b6020808252602c908201527f4552433732313a20617070726f76656420717565727920666f72206e6f6e657860408201526b34b9ba32b73a103a37b5b2b760a11b606082015260800190565b60208082526021908201527f4552433732313a20617070726f76616c20746f2063757272656e74206f776e656040820152603960f91b606082015260800190565b60208082526025908201527f45524332303a207472616e736665722066726f6d20746865207a65726f206164604082015264647265737360d81b606082015260800190565b60208082526021908201527f436f72655265663a2043616c6c6572206973206e6f74206120676f7665726e6f6040820152603960f91b606082015260800190565b60208082526024908201527f5472616e7366657248656c7065723a205452414e534645525f46524f4d5f46416040820152631253115160e21b606082015260800190565b6020808252825182820152828101516001600160a01b0390811660408085019190915284015160c06060850152600092916128e860e08601836123c7565b6060870151821660808781019190915287015160a080880191909152870151868203601f190160c08801528051808352908501935085918501905b8083101561294557845184168252938501936001929092019190850190612923565b50979650505050505050565b81516001600160a01b0390811682526020808401519091169082015260408083015190820152606080830151908201526080918201519181019190915260a00190565b90815260200190565b600086825260018060a01b03808716602084015260a060408401526129c560a08401876123c7565b9416606083015250608001529392505050565b60405181810167ffffffffffffffff811182821017156129fa576129fa612b7f565b604052919050565b600067ffffffffffffffff821115612a1c57612a1c612b7f565b5060209081020190565b60008219821115612a3957612a39612b69565b500190565b600060ff821660ff84168060ff03821115612a5b57612a5b612b69565b019392505050565b600060ff831680612a8257634e487b7160e01b82526012600452602482fd5b8060ff84160491505092915050565b6000816000190483118215151615612aab57612aab612b69565b500290565b600082821015612ac257612ac2612b69565b500390565b60005b83811015612ae2578181015183820152602001612aca565b838111156113645750506000910152565b600281046001821680612b0757607f821691505b60208210811415612b2857634e487b7160e01b600052602260045260246000fd5b50919050565b6000600019821415612b4257612b42612b69565b5060010190565b600060ff821660ff811415612b6057612b60612b69565b60010192915050565b634e487b7160e01b600052601160045260246000fd5b634e487b7160e01b600052604160045260246000fd5b6001600160a01b0381168114612baa57600080fd5b50565b8015158114612baa57600080fdfea26469706673582212202399ad27401821960e15bc0fc7a2b15564bf42c2b7a35a6923f0997928a40f6164736f6c63430008000033",
  "immutableReferences": {},
  "source": "// SPDX-License-Identifier: MIT\r\npragma solidity ^0.8.0;\r\n\r\nimport \"../lib/TransferHelper.sol\";\r\nimport \"../lib/TokenSet.sol\";\r\nimport \"@openzeppelin/contracts/utils/math/SafeMath.sol\";\r\nimport \"../ref/CoreRef.sol\";\r\nimport \"../interface/IRbtVip.sol\";\r\nimport \"../interface/IERC721Receiver.sol\";\r\n\r\ncontract RainbowRbtVip is CoreRef,IRbtVip{\r\n    using SafeMath for uint;//\r\n    using Set for Set.TokenIdSet;//set\r\n    string public name = \"RVIP\";\r\n    string public symbol = \"RVIP\";\r\n    \r\n    uint public validity = 365 days; //\r\n    uint256 public vipPrice;//\r\n    address public FoundationAddress;//\r\n    address public  RBTEX;//rbtex\r\n    uint  private  initialNum=20090103;//\r\n\r\n    userVipStruct.Vip [] public vipArray;//vip\r\n\r\n    userVipStruct.User[] public userListArray; // \r\n    \r\n    mapping(address  => Set.TokenIdSet)  vipNum;//address --token\r\n\r\n    mapping(address => uint) public referrerMaps;// addressID\r\n    \r\n    mapping (uint256 => address) private _tokenApprovals;// tokenId----\r\n    \r\n    mapping (address => mapping (address => bool)) private _operatorApprovals;//address address \r\n    \r\n    event  Register(uint indexed newId, uint indexed referrerId);//\r\n    \r\n    event Transfer(address indexed from, address indexed to, uint256  value);//ERC721 \r\n    \r\n    event TransferFundation(address indexed tokenAddr ,address indexed from, address indexed to, uint256 value);//\r\n\r\n    event Approval(address indexed owner, address indexed spender, uint256 value);//\r\n    \r\n    event ApprovalForAll(address indexed owner, address indexed operator, bool approved);\r\n    \r\n    //\r\n    constructor(uint _price,address _foundationAddress,address _rbtex,address core) CoreRef(core) public {\r\n      vipPrice =_price;\r\n      FoundationAddress=_foundationAddress;\r\n      RBTEX=_rbtex;\r\n      userVipStruct.User memory user = userVipStruct.User({\r\n            id : initialNum, // IDID\r\n            addrRef : address(0),//0\r\n            registerTime:block.timestamp,//\r\n            nickname : 'admin',//admin \r\n            userAddress: msg.sender,//\r\n            childs: new address[](0) //0\r\n        });\r\n         userListArray.push(user);//\r\n         emit Register(initialNum,0);\r\n    }\r\n    \r\n    //\r\n   function register(uint referrerId, string calldata nickname) override external {\r\n        require(referrerMaps[msg.sender]==0,\"user exists\");\r\n        uint newId = initialNum + userListArray.length;\r\n        address  refAddress =userListArray[referrerId - initialNum].userAddress;\r\n        userVipStruct.User memory user = userVipStruct.User({\r\n            id : newId, // IDID\r\n            addrRef : refAddress,\r\n            registerTime:block.timestamp,\r\n            nickname : nickname,\r\n            userAddress: msg.sender,//\r\n            childs: new address[](0) \r\n        });\r\n        userListArray.push(user);\r\n        userListArray[referrerId-initialNum].childs.push(msg.sender);//\r\n        referrerMaps[msg.sender]=newId;\r\n        TransferHelper.safeTransfer(RBTEX, msg.sender, 1000e18);\r\n        emit Register(newId,referrerId);\r\n    }\r\n    \r\n    //vip(,)\r\n    function exchangeVip(uint vipNumber,address token) override public{\r\n        require(vipNumber > 0,\"The amount is insufficient\");\r\n        uint amount = vipNumber.mul(vipPrice);\r\n        for(uint i = 0;i < vipNumber; i++){\r\n         mint(msg.sender);\r\n        }\r\n        //vip\r\n        TransferHelper.safeTransferFrom(token,msg.sender,FoundationAddress,amount);\r\n        emit TransferFundation(token,msg.sender,FoundationAddress,amount* 10 ** 18);\r\n    }\r\n    \r\n    //vip  \r\n    function getVipLevel(address addr) public view override returns (uint) {\r\n        uint256 num=vipNum[addr].length();\r\n        if(num == 0){\r\n            return 0;\r\n        }\r\n        uint8 level = 0;\r\n        for (uint i = 0; i < num; i++) {\r\n            if(vipArray[vipNum[addr].at(i)-1].expireTime > block.timestamp){\r\n                level ++;\r\n            }\r\n        }\r\n        if(level<9){\r\n           return level/3 + 1;\r\n        }\r\n         return 4;\r\n      }\r\n    \r\n     \r\n    //token\r\n    function getAllVipIneffective() public view  override returns (uint maxExTokenId) {\r\n        for(uint i=0; i<vipArray.length;i++) {\r\n             userVipStruct.Vip memory vip =vipArray[i];\r\n             if(vip.expireTime>block.timestamp){\r\n                 break;\r\n             }\r\n              maxExTokenId=vip.tokenId;\r\n          }\r\n    }\r\n    \r\n    //token\r\n    function getOwerVipIneffective(address addr) public view override returns (uint maxOwnerExTokenId) {\r\n      uint num=vipNum[addr].length();\r\n      uint maxOwnerExpireTime=vipArray[vipNum[addr].at(0)-1].expireTime;\r\n      for(uint i=0; i<num; i++){\r\n       if( vipArray[vipNum[addr].at(i)-1].expireTime > maxOwnerExpireTime){\r\n           maxOwnerExpireTime=vipArray[vipNum[addr].at(i)-1].expireTime;\r\n           maxOwnerExTokenId=vipArray[vipNum[addr].at(i)-1].tokenId;\r\n          }\r\n      }\r\n    }\r\n\r\n    //\r\n    function ownerOf(uint256 tokenId) public view override returns(address){\r\n       return  vipArray[tokenId-1].owner;\r\n    }\r\n    \r\n    //\r\n     function  getVipInfo(uint256 tokenId) public view  override returns(userVipStruct.Vip memory ){\r\n        return  vipArray[tokenId-1];\r\n    }\r\n\r\n    //\r\n    function  getUserInfo(address addr) public view override  returns(userVipStruct.User memory ){\r\n        if(referrerMaps[msg.sender]!=0){\r\n          return  userListArray[referrerMaps[addr]-initialNum]; \r\n        }\r\n    }\r\n    \r\n    //\r\n    function mint(address to) internal returns(uint) {\r\n       require(to != address(0), \"ERC721: mint to the zero address\");\r\n         uint256 newTokenId = vipArray.length+1;\r\n            userVipStruct.Vip memory vip = userVipStruct.Vip({\r\n                owner: to,\r\n                creator:to,\r\n                tokenId: newTokenId,\r\n                expireTime: block.timestamp+validity,\r\n                crtTime:block.timestamp\r\n            });\r\n            vipArray.push(vip);\r\n            vipNum[msg.sender].add(newTokenId);\r\n            emit Transfer(address(0), to,newTokenId);\r\n            return newTokenId;\r\n      }\r\n    \r\n     // \r\n     function sendVipByWhiteList (address[] memory addr,uint [] memory amount) onlyGovernor public  {\r\n         require(addr.length==amount.length,\"ArrayLenght err,The length should be the same\");\r\n         for(uint i=0;i<addr.length;i++){\r\n          for(uint j = 0;j< amount[i]; j++){\r\n             mint(addr[i]);\r\n           }\r\n         }\r\n     }\r\n\r\n    //token\r\n     function tokenOfOwnerByIndex(address owner,uint index) public override view returns(uint){\r\n        return vipNum[owner].at(index);\r\n    }\r\n    \r\n    //\r\n     function balanceOf(address addr) public view override returns(uint){\r\n      return vipNum[addr].length();\r\n    }\r\n    \r\n    //token\r\n    function totalSupply() public view override returns(uint){\r\n      return vipArray.length;\r\n    }\r\n    \r\n    //\r\n     function approve(address to, uint256 tokenId) public  override {\r\n        address ownerAddr =vipArray[tokenId-1].owner;\r\n        require(to != ownerAddr, \"ERC721: approval to current owner\");\r\n        require(msg.sender == ownerAddr , \"ERC721: approve caller is not owner \" );\r\n        _tokenApprovals[tokenId] = ownerAddr;\r\n        emit Approval(ownerAddr,to,tokenId);\r\n    }\r\n    \r\n    //\r\n    function transfer(address from, address to, uint256 tokenId) public override {\r\n         require(from != address(0), \"ERC20: transfer from the zero address\");\r\n         require(to != address(0), \"ERC20: transfer to the zero address\");\r\n         vipNum[from].remove(tokenId);\r\n         vipNum[to].add(tokenId);\r\n         vipArray[tokenId-1].owner=to;\r\n         emit Transfer(from,to,tokenId);\r\n    }\r\n\r\n    //NFT\r\n     function safeTransferFrom(address from, address to, uint256 tokenId, bytes memory _data) public virtual override {\r\n        transfer(from, to, tokenId);\r\n        require(_checkOnERC721Received(from, to, tokenId, _data), \"ERC721: transfer to non ERC721Receiver implementer\");\r\n    }\r\n    \r\n    //NFT\r\n    function safeTransferFrom(address from, address to, uint256 tokenId) public virtual override {\r\n        safeTransferFrom(from, to, tokenId, \"\");\r\n    }\r\n\r\n    //_operatorNFTs\r\n    function setApprovalForAll(address operator, bool approved) public virtual override {\r\n        require(operator != msg.sender, \"ERC721: approve to caller\");\r\n        _operatorApprovals[msg.sender][operator] = approved;\r\n        emit ApprovalForAll(msg.sender, operator, approved);\r\n    }\r\n\r\n    //\r\n    function isApprovedForAll(address owner, address operator) public view virtual override returns (bool) {\r\n        return _operatorApprovals[owner][operator];\r\n    }\r\n\r\n   //\r\n    function getApproved(uint256 tokenId) public view virtual override returns (address) {\r\n        require(vipArray[tokenId-1].owner!=address(0), \"ERC721: approved query for nonexistent token\");\r\n        return _tokenApprovals[tokenId];\r\n    }\r\n\r\n   //,,\r\n     function _checkOnERC721Received(address from, address to, uint256 tokenId, bytes memory _data)\r\n        private returns (bool) {\r\n        if (isContract(to)) {\r\n            try IERC721Receiver(to).onERC721Received(msg.sender, from, tokenId, _data) returns (bytes4 retval) {\r\n                return retval == IERC721Receiver(to).onERC721Received.selector;\r\n            } catch (bytes memory reason) {\r\n                if (reason.length == 0) {\r\n                    revert(\"ERC721: transfer to non ERC721Receiver implementer\");\r\n                } else {\r\n                    assembly {\r\n                        revert(add(32, reason), mload(reason))\r\n                    }\r\n                }\r\n            }\r\n        } \r\n         return true;\r\n    }\r\n    \r\n     function isContract(address account) internal view returns (bool) {\r\n        uint256 size;\r\n        assembly { size := extcodesize(account) }\r\n        return size > 0;\r\n    }\r\n\r\n}",
  "sourcePath": "D://rainbow/RainbowDao-protocol/contracts/RainbowVip/RainbowRbtVip.sol",
  "compiler": {
    "name": "solc",
    "version": "0.8.0+commit.c7dfd78e.Emscripten.clang"
  },
  "schemaVersion": "3.4.1",
  "updatedAt": "2021-10-16T03:51:57.884Z",
  "networkType": "ethereum",
  "devdoc": {
    "kind": "dev",
    "methods": {
      "Rbt()": {
        "returns": {
          "_0": "IFei implementation address"
        }
      },
      "core()": {
        "returns": {
          "_0": "ICore implementation address"
        }
      }
    },
    "version": 1
  },
  "userdoc": {
    "kind": "user",
    "methods": {
      "Rbt()": {
        "notice": "address of the Fei contract referenced by Core"
      },
      "core()": {
        "notice": "address of the Core contract referenced"
      }
    },
    "version": 1
  }
}