{
  "contractName": "RainbowBank",
  "abi": [
    {
      "inputs": [
        {
          "internalType": "address",
          "name": "core",
          "type": "address"
        }
      ],
      "stateMutability": "nonpayable",
      "type": "constructor"
    },
    {
      "anonymous": false,
      "inputs": [
        {
          "indexed": true,
          "internalType": "address",
          "name": "_core",
          "type": "address"
        }
      ],
      "name": "CoreUpdate",
      "type": "event"
    },
    {
      "anonymous": false,
      "inputs": [
        {
          "indexed": true,
          "internalType": "address",
          "name": "to",
          "type": "address"
        },
        {
          "indexed": true,
          "internalType": "uint256",
          "name": "month",
          "type": "uint256"
        },
        {
          "indexed": true,
          "internalType": "uint256",
          "name": "value",
          "type": "uint256"
        }
      ],
      "name": "DepositToken",
      "type": "event"
    },
    {
      "anonymous": false,
      "inputs": [
        {
          "indexed": true,
          "internalType": "address",
          "name": "to",
          "type": "address"
        },
        {
          "indexed": true,
          "internalType": "uint256",
          "name": "tokenId",
          "type": "uint256"
        }
      ],
      "name": "Withdrawa",
      "type": "event"
    },
    {
      "inputs": [],
      "name": "Rbt",
      "outputs": [
        {
          "internalType": "contract IERC20",
          "name": "",
          "type": "address"
        }
      ],
      "stateMutability": "view",
      "type": "function"
    },
    {
      "inputs": [],
      "name": "core",
      "outputs": [
        {
          "internalType": "contract ICore",
          "name": "",
          "type": "address"
        }
      ],
      "stateMutability": "view",
      "type": "function"
    },
    {
      "inputs": [
        {
          "internalType": "address",
          "name": "core",
          "type": "address"
        }
      ],
      "name": "setCore",
      "outputs": [],
      "stateMutability": "nonpayable",
      "type": "function"
    },
    {
      "inputs": [
        {
          "internalType": "address",
          "name": "_rbt",
          "type": "address"
        },
        {
          "internalType": "address",
          "name": "_deposits",
          "type": "address"
        }
      ],
      "name": "init",
      "outputs": [],
      "stateMutability": "nonpayable",
      "type": "function"
    },
    {
      "inputs": [
        {
          "internalType": "address",
          "name": "to",
          "type": "address"
        },
        {
          "internalType": "uint256",
          "name": "month",
          "type": "uint256"
        },
        {
          "internalType": "uint256",
          "name": "value",
          "type": "uint256"
        }
      ],
      "name": "depositToken",
      "outputs": [],
      "stateMutability": "nonpayable",
      "type": "function"
    },
    {
      "inputs": [
        {
          "internalType": "address",
          "name": "to",
          "type": "address"
        },
        {
          "internalType": "uint256",
          "name": "tokenId",
          "type": "uint256"
        }
      ],
      "name": "withdrawa",
      "outputs": [],
      "stateMutability": "nonpayable",
      "type": "function"
    }
  ],
  "bytecode": "0x608060405234801561001057600080fd5b50604051610c2f380380610c2f83398101604081905261002f91610054565b600080546001600160a01b0319166001600160a01b0392909216919091179055610082565b600060208284031215610065578081fd5b81516001600160a01b038116811461007b578182fd5b9392505050565b610b9e806100916000396000f3fe608060405234801561001057600080fd5b50600436106100625760003560e01c80630c859e5c14610067578063135b54dd1461007c578063800096301461009a57806399c6d2de146100ad578063f09a4016146100c0578063f2f4eb26146100d3575b600080fd5b61007a610075366004610892565b6100db565b005b6100846102e2565b604051610091919061097e565b60405180910390f35b61007a6100a8366004610837565b61036e565b61007a6100bb3660046108bd565b610452565b61007a6100ce36600461085a565b61061d565b61008461064b565b60006100ec64010000000042610b30565b6004805460015460405163bf81bf4360e01b815293945090926001600160a01b039091169163bf81bf439161012391879101610b04565b60206040518083038186803b15801561013b57600080fd5b505afa15801561014f573d6000803e3d6000fd5b505050506040513d601f19601f82011682018060405250810190610173919061092d565b8263ffffffff1610156101a15760405162461bcd60e51b815260040161019890610a54565b60405180910390fd5b6003546101b8906001600160a01b0316858361065a565b600154604051630852cd8d60e31b81526001600160a01b03909116906342966c68906101e8908690600401610b04565b600060405180830381600087803b15801561020257600080fd5b505af1158015610216573d6000803e3d6000fd5b50506003546040516370a0823160e01b8152600093506001600160a01b0390911691506370a082319061024d90309060040161097e565b60206040518083038186803b15801561026557600080fd5b505afa158015610279573d6000803e3d6000fd5b505050506040513d601f19601f8201168201806040525081019061029d919061092d565b600281905560405190915084906001600160a01b038716907fd0162d2773fa4f457ac53f1afa2c13f5d237a5e8ec11621d750ed0fe7d7f522790600090a35050505050565b60008060009054906101000a90046001600160a01b03166001600160a01b03166318f7d8626040518163ffffffff1660e01b815260040160206040518083038186803b15801561033157600080fd5b505afa158015610345573d6000803e3d6000fd5b505050506040513d601f19601f820116820180604052508101906103699190610911565b905090565b600054604051631c86b03760e31b81526001600160a01b039091169063e43581b89061039e90339060040161097e565b60206040518083038186803b1580156103b657600080fd5b505afa1580156103ca573d6000803e3d6000fd5b505050506040513d601f19601f820116820180604052508101906103ee91906108f1565b61040a5760405162461bcd60e51b815260040161019890610a7f565b600080546001600160a01b0319166001600160a01b038316908117825560405190917fad9400e618eb1344fde53db22397a1b82c765527ecbba3a5c86bcac15090828b91a250565b81158061045f5750816003145b8061046a5750816006145b80610475575081600c145b806104805750816018145b8061048b5750816024145b6104a75760405162461bcd60e51b815260040161019890610a27565b6003546104bf906001600160a01b0316843084610747565b600154604051630ab714fb60e11b81526001600160a01b039091169063156e29f6906104f3908690859087906004016109cf565b602060405180830381600087803b15801561050d57600080fd5b505af1158015610521573d6000803e3d6000fd5b505050506040513d601f19601f82011682018060405250810190610545919061092d565b506003546040516370a0823160e01b81526000916001600160a01b0316906370a082319061057790309060040161097e565b60206040518083038186803b15801561058f57600080fd5b505afa1580156105a3573d6000803e3d6000fd5b505050506040513d601f19601f820116820180604052508101906105c7919061092d565b9050600254816105d79190610b0d565b6004556002819055604051829084906001600160a01b038716907f22aa98d9903d55438afe5107467c2619fbe070089c4ff9657ab08ae20d21a65e90600090a450505050565b600380546001600160a01b039384166001600160a01b03199182161790915560018054929093169116179055565b6000546001600160a01b031690565b600080846001600160a01b031663a9059cbb858560405160240161067f9291906109b6565b6040516020818303038152906040529060e01b6020820180516001600160e01b0383818316178352505050506040516106b89190610945565b6000604051808303816000865af19150503d80600081146106f5576040519150601f19603f3d011682016040523d82523d6000602084013e6106fa565b606091505b509150915081801561072457508051158061072457508080602001905181019061072491906108f1565b6107405760405162461bcd60e51b8152600401610198906109f0565b5050505050565b600080856001600160a01b03166323b872dd86868660405160240161076e93929190610992565b6040516020818303038152906040529060e01b6020820180516001600160e01b0383818316178352505050506040516107a79190610945565b6000604051808303816000865af19150503d80600081146107e4576040519150601f19603f3d011682016040523d82523d6000602084013e6107e9565b606091505b509150915081801561081357508051158061081357508080602001905181019061081391906108f1565b61082f5760405162461bcd60e51b815260040161019890610ac0565b505050505050565b600060208284031215610848578081fd5b813561085381610b50565b9392505050565b6000806040838503121561086c578081fd5b823561087781610b50565b9150602083013561088781610b50565b809150509250929050565b600080604083850312156108a4578182fd5b82356108af81610b50565b946020939093013593505050565b6000806000606084860312156108d1578081fd5b83356108dc81610b50565b95602085013595506040909401359392505050565b600060208284031215610902578081fd5b81518015158114610853578182fd5b600060208284031215610922578081fd5b815161085381610b50565b60006020828403121561093e578081fd5b5051919050565b60008251815b81811015610965576020818601810151858301520161094b565b818111156109735782828501525b509190910192915050565b6001600160a01b0391909116815260200190565b6001600160a01b039384168152919092166020820152604081019190915260600190565b6001600160a01b03929092168252602082015260400190565b6001600160a01b039390931683526020830191909152604082015260600190565b6020808252601f908201527f5472616e7366657248656c7065723a205452414e534645525f4641494c454400604082015260600190565b6020808252601390820152722232b837b9b4ba1036b7b73a341032b93937b960691b604082015260600190565b6020808252601190820152701d5b98589b19481d1bc8195e1d1c9858dd607a1b604082015260600190565b60208082526021908201527f436f72655265663a2043616c6c6572206973206e6f74206120676f7665726e6f6040820152603960f91b606082015260800190565b60208082526024908201527f5472616e7366657248656c7065723a205452414e534645525f46524f4d5f46416040820152631253115160e21b606082015260800190565b90815260200190565b600082821015610b2b57634e487b7160e01b81526011600452602481fd5b500390565b600082610b4b57634e487b7160e01b81526012600452602481fd5b500690565b6001600160a01b0381168114610b6557600080fd5b5056fea26469706673582212203ad5e437d4e0671babbebd1ee958310294be2267dc49b5b4d507966eaaa9b15e64736f6c63430008000033",
  "immutableReferences": {},
  "source": "pragma solidity ^0.8.0;\r\nimport \"../interface/bank/IRbBank.sol\";\r\nimport \"../interface/token721/IRbtDeposit721.sol\";\r\n//import \"../interface/token20/IERC20.sol\";\r\nimport '../lib/TransferHelper.sol';\r\nimport \"../ref/CoreRef.sol\";\r\n\r\ncontract RainbowBank is CoreRef, IRbBank{\r\n    IRbtDeposit721 deposit;\r\n    // \r\n    uint private reserve;\r\n    address rbt;\r\n    uint amount;\r\n    \r\n    //\r\n    constructor(address core)CoreRef(core){}\r\n\r\n    //\r\n    function init(address _rbt,address _deposits) public {\r\n        rbt = _rbt;\r\n        deposit=IRbtDeposit721(_deposits);\r\n    }\r\n    \r\n     //+\r\n    function depositToken(address to,uint month,uint value) external override{\r\n        require(month==0||month==3||month==6||month==12||month==24||month==36,\"Deposit month error\");\r\n        //\r\n        TransferHelper.safeTransferFrom(rbt,to,address(this), value);\r\n        //\r\n        deposit.mint(to, value, month);\r\n        //\r\n        uint balance=IERC20(rbt).balanceOf(address(this));\r\n        //\r\n        amount=balance-reserve;\r\n        reserve = balance;\r\n        emit DepositToken(to,month,value);\r\n    }\r\n\r\n    //\r\n    function withdrawa(address to,uint tokenId) external override{\r\n        //\r\n        uint32 blockTime = uint32(block.timestamp % 2 ** 32);\r\n        //uint value=deposit.amount(tokenId)-1000;\r\n        uint value=amount;\r\n        require(blockTime>=deposit.expire(tokenId),'unable to extract');\r\n        TransferHelper.safeTransfer(rbt, to, value);\r\n        deposit.burn(tokenId);\r\n        //       \r\n        uint balance=IERC20(rbt).balanceOf(address(this)); \r\n        reserve =balance ;       \r\n        emit Withdrawa(to,tokenId);\r\n    }\r\n}",
  "sourcePath": "D://rainbow/RainbowDao-protocol/contracts/RainbowBank/RainbowBank.sol",
  "compiler": {
    "name": "solc",
    "version": "0.8.0+commit.c7dfd78e.Emscripten.clang"
  },
  "schemaVersion": "3.4.1",
  "updatedAt": "2021-10-16T03:51:57.476Z",
  "networkType": "ethereum",
  "devdoc": {
    "kind": "dev",
    "methods": {
      "Rbt()": {
        "returns": {
          "_0": "IFei implementation address"
        }
      },
      "core()": {
        "returns": {
          "_0": "ICore implementation address"
        }
      }
    },
    "version": 1
  },
  "userdoc": {
    "kind": "user",
    "methods": {
      "Rbt()": {
        "notice": "address of the Fei contract referenced by Core"
      },
      "core()": {
        "notice": "address of the Core contract referenced"
      }
    },
    "version": 1
  }
}