{
  "contractName": "RbBankOrchestrator",
  "abi": [
    {
      "anonymous": false,
      "inputs": [
        {
          "indexed": true,
          "internalType": "address",
          "name": "previousOwner",
          "type": "address"
        },
        {
          "indexed": true,
          "internalType": "address",
          "name": "newOwner",
          "type": "address"
        }
      ],
      "name": "OwnershipTransferred",
      "type": "event"
    },
    {
      "inputs": [],
      "name": "bank",
      "outputs": [
        {
          "internalType": "address",
          "name": "",
          "type": "address"
        }
      ],
      "stateMutability": "view",
      "type": "function",
      "constant": true
    },
    {
      "inputs": [],
      "name": "owner",
      "outputs": [
        {
          "internalType": "address",
          "name": "",
          "type": "address"
        }
      ],
      "stateMutability": "view",
      "type": "function",
      "constant": true
    },
    {
      "inputs": [],
      "name": "renounceOwnership",
      "outputs": [],
      "stateMutability": "nonpayable",
      "type": "function"
    },
    {
      "inputs": [
        {
          "internalType": "address",
          "name": "newOwner",
          "type": "address"
        }
      ],
      "name": "transferOwnership",
      "outputs": [],
      "stateMutability": "nonpayable",
      "type": "function"
    },
    {
      "inputs": [
        {
          "internalType": "address",
          "name": "core",
          "type": "address"
        }
      ],
      "name": "init",
      "outputs": [],
      "stateMutability": "nonpayable",
      "type": "function"
    },
    {
      "inputs": [
        {
          "internalType": "address",
          "name": "_rbt",
          "type": "address"
        },
        {
          "internalType": "address",
          "name": "_deposits",
          "type": "address"
        }
      ],
      "name": "input",
      "outputs": [],
      "stateMutability": "nonpayable",
      "type": "function"
    },
    {
      "inputs": [],
      "name": "detonate",
      "outputs": [],
      "stateMutability": "nonpayable",
      "type": "function"
    }
  ],
  "bytecode": "0x608060405234801561001057600080fd5b5061002161001c610026565b61002a565b61007a565b3390565b600080546001600160a01b038381166001600160a01b0319831681178455604051919092169283917f8be0079c531659141344cd1fd0a4f28419497f9722a3daafe3b4186f6b6457e09190a35050565b611104806100896000396000f3fe608060405234801561001057600080fd5b506004361061007d5760003560e01c806376cdb03b1161005b57806376cdb03b146100b25780638da5cb5b146100d0578063b09614d6146100d8578063f2fde38b146100e05761007d565b806319ab453c1461008257806358079da614610097578063715018a6146100aa575b600080fd5b6100956100903660046103a3565b6100f3565b005b6100956100a53660046103c4565b610192565b6100956101fa565b6100ba610245565b6040516100c791906103f6565b60405180910390f35b6100ba610254565b610095610263565b6100956100ee3660046103a3565b6102b5565b6100fb610326565b6001600160a01b031661010c610254565b6001600160a01b03161461013b5760405162461bcd60e51b81526004016101329061046a565b60405180910390fd5b806040516101489061037a565b61015291906103f6565b604051809103906000f08015801561016e573d6000803e3d6000fd5b50600180546001600160a01b0319166001600160a01b039290921691909117905550565b60015460405163784d200b60e11b81526001600160a01b039091169063f09a4016906101c4908590859060040161040a565b600060405180830381600087803b1580156101de57600080fd5b505af11580156101f2573d6000803e3d6000fd5b505050505050565b610202610326565b6001600160a01b0316610213610254565b6001600160a01b0316146102395760405162461bcd60e51b81526004016101329061046a565b610243600061032a565b565b6001546001600160a01b031681565b6000546001600160a01b031690565b61026b610326565b6001600160a01b031661027c610254565b6001600160a01b0316146102a25760405162461bcd60e51b81526004016101329061046a565b6102aa610254565b6001600160a01b0316ff5b6102bd610326565b6001600160a01b03166102ce610254565b6001600160a01b0316146102f45760405162461bcd60e51b81526004016101329061046a565b6001600160a01b03811661031a5760405162461bcd60e51b815260040161013290610424565b6103238161032a565b50565b3390565b600080546001600160a01b038381166001600160a01b0319831681178455604051919092169283917f8be0079c531659141344cd1fd0a4f28419497f9722a3daafe3b4186f6b6457e09190a35050565b610c2f806104a083390190565b80356001600160a01b038116811461039e57600080fd5b919050565b6000602082840312156103b4578081fd5b6103bd82610387565b9392505050565b600080604083850312156103d6578081fd5b6103df83610387565b91506103ed60208401610387565b90509250929050565b6001600160a01b0391909116815260200190565b6001600160a01b0392831681529116602082015260400190565b60208082526026908201527f4f776e61626c653a206e6577206f776e657220697320746865207a65726f206160408201526564647265737360d01b606082015260800190565b6020808252818101527f4f776e61626c653a2063616c6c6572206973206e6f7420746865206f776e657260408201526060019056fe608060405234801561001057600080fd5b50604051610c2f380380610c2f83398101604081905261002f91610054565b600080546001600160a01b0319166001600160a01b0392909216919091179055610082565b600060208284031215610065578081fd5b81516001600160a01b038116811461007b578182fd5b9392505050565b610b9e806100916000396000f3fe608060405234801561001057600080fd5b50600436106100625760003560e01c80630c859e5c14610067578063135b54dd1461007c578063800096301461009a57806399c6d2de146100ad578063f09a4016146100c0578063f2f4eb26146100d3575b600080fd5b61007a610075366004610892565b6100db565b005b6100846102e2565b604051610091919061097e565b60405180910390f35b61007a6100a8366004610837565b61036e565b61007a6100bb3660046108bd565b610452565b61007a6100ce36600461085a565b61061d565b61008461064b565b60006100ec64010000000042610b30565b6004805460015460405163bf81bf4360e01b815293945090926001600160a01b039091169163bf81bf439161012391879101610b04565b60206040518083038186803b15801561013b57600080fd5b505afa15801561014f573d6000803e3d6000fd5b505050506040513d601f19601f82011682018060405250810190610173919061092d565b8263ffffffff1610156101a15760405162461bcd60e51b815260040161019890610a54565b60405180910390fd5b6003546101b8906001600160a01b0316858361065a565b600154604051630852cd8d60e31b81526001600160a01b03909116906342966c68906101e8908690600401610b04565b600060405180830381600087803b15801561020257600080fd5b505af1158015610216573d6000803e3d6000fd5b50506003546040516370a0823160e01b8152600093506001600160a01b0390911691506370a082319061024d90309060040161097e565b60206040518083038186803b15801561026557600080fd5b505afa158015610279573d6000803e3d6000fd5b505050506040513d601f19601f8201168201806040525081019061029d919061092d565b600281905560405190915084906001600160a01b038716907fd0162d2773fa4f457ac53f1afa2c13f5d237a5e8ec11621d750ed0fe7d7f522790600090a35050505050565b60008060009054906101000a90046001600160a01b03166001600160a01b03166318f7d8626040518163ffffffff1660e01b815260040160206040518083038186803b15801561033157600080fd5b505afa158015610345573d6000803e3d6000fd5b505050506040513d601f19601f820116820180604052508101906103699190610911565b905090565b600054604051631c86b03760e31b81526001600160a01b039091169063e43581b89061039e90339060040161097e565b60206040518083038186803b1580156103b657600080fd5b505afa1580156103ca573d6000803e3d6000fd5b505050506040513d601f19601f820116820180604052508101906103ee91906108f1565b61040a5760405162461bcd60e51b815260040161019890610a7f565b600080546001600160a01b0319166001600160a01b038316908117825560405190917fad9400e618eb1344fde53db22397a1b82c765527ecbba3a5c86bcac15090828b91a250565b81158061045f5750816003145b8061046a5750816006145b80610475575081600c145b806104805750816018145b8061048b5750816024145b6104a75760405162461bcd60e51b815260040161019890610a27565b6003546104bf906001600160a01b0316843084610747565b600154604051630ab714fb60e11b81526001600160a01b039091169063156e29f6906104f3908690859087906004016109cf565b602060405180830381600087803b15801561050d57600080fd5b505af1158015610521573d6000803e3d6000fd5b505050506040513d601f19601f82011682018060405250810190610545919061092d565b506003546040516370a0823160e01b81526000916001600160a01b0316906370a082319061057790309060040161097e565b60206040518083038186803b15801561058f57600080fd5b505afa1580156105a3573d6000803e3d6000fd5b505050506040513d601f19601f820116820180604052508101906105c7919061092d565b9050600254816105d79190610b0d565b6004556002819055604051829084906001600160a01b038716907f22aa98d9903d55438afe5107467c2619fbe070089c4ff9657ab08ae20d21a65e90600090a450505050565b600380546001600160a01b039384166001600160a01b03199182161790915560018054929093169116179055565b6000546001600160a01b031690565b600080846001600160a01b031663a9059cbb858560405160240161067f9291906109b6565b6040516020818303038152906040529060e01b6020820180516001600160e01b0383818316178352505050506040516106b89190610945565b6000604051808303816000865af19150503d80600081146106f5576040519150601f19603f3d011682016040523d82523d6000602084013e6106fa565b606091505b509150915081801561072457508051158061072457508080602001905181019061072491906108f1565b6107405760405162461bcd60e51b8152600401610198906109f0565b5050505050565b600080856001600160a01b03166323b872dd86868660405160240161076e93929190610992565b6040516020818303038152906040529060e01b6020820180516001600160e01b0383818316178352505050506040516107a79190610945565b6000604051808303816000865af19150503d80600081146107e4576040519150601f19603f3d011682016040523d82523d6000602084013e6107e9565b606091505b509150915081801561081357508051158061081357508080602001905181019061081391906108f1565b61082f5760405162461bcd60e51b815260040161019890610ac0565b505050505050565b600060208284031215610848578081fd5b813561085381610b50565b9392505050565b6000806040838503121561086c578081fd5b823561087781610b50565b9150602083013561088781610b50565b809150509250929050565b600080604083850312156108a4578182fd5b82356108af81610b50565b946020939093013593505050565b6000806000606084860312156108d1578081fd5b83356108dc81610b50565b95602085013595506040909401359392505050565b600060208284031215610902578081fd5b81518015158114610853578182fd5b600060208284031215610922578081fd5b815161085381610b50565b60006020828403121561093e578081fd5b5051919050565b60008251815b81811015610965576020818601810151858301520161094b565b818111156109735782828501525b509190910192915050565b6001600160a01b0391909116815260200190565b6001600160a01b039384168152919092166020820152604081019190915260600190565b6001600160a01b03929092168252602082015260400190565b6001600160a01b039390931683526020830191909152604082015260600190565b6020808252601f908201527f5472616e7366657248656c7065723a205452414e534645525f4641494c454400604082015260600190565b6020808252601390820152722232b837b9b4ba1036b7b73a341032b93937b960691b604082015260600190565b6020808252601190820152701d5b98589b19481d1bc8195e1d1c9858dd607a1b604082015260600190565b60208082526021908201527f436f72655265663a2043616c6c6572206973206e6f74206120676f7665726e6f6040820152603960f91b606082015260800190565b60208082526024908201527f5472616e7366657248656c7065723a205452414e534645525f46524f4d5f46416040820152631253115160e21b606082015260800190565b90815260200190565b600082821015610b2b57634e487b7160e01b81526011600452602481fd5b500390565b600082610b4b57634e487b7160e01b81526012600452602481fd5b500690565b6001600160a01b0381168114610b6557600080fd5b5056fea26469706673582212203ad5e437d4e0671babbebd1ee958310294be2267dc49b5b4d507966eaaa9b15e64736f6c63430008000033a26469706673582212206bc837d9e87edcc589f5143537ec4659e3145dc47dd81903ac2f6f46a8477b9564736f6c63430008000033",
  "immutableReferences": {},
  "source": "pragma solidity ^0.8.0;\r\npragma experimental ABIEncoderV2;\r\n\r\nimport \"@openzeppelin/contracts/access/Ownable.sol\";\r\nimport \"../RainbowBank/RainbowBank.sol\";\r\ncontract RbBankOrchestrator is  Ownable{\r\n    address  public bank;\r\n    function init(address core)public  onlyOwner{\r\n        bank=address(new RainbowBank(core));\r\n    }\r\n     function  input(address _rbt,address _deposits) public{\r\n         RainbowBank(bank).init(_rbt, _deposits);\r\n    }\r\n    function detonate() public  onlyOwner {\r\n        selfdestruct(payable(owner()));\r\n    }\r\n}\r\n",
  "sourcePath": "D://rainbow/RainbowDao-protocol/contracts/orchestrator/RbBankOrchestrator.sol",
  "compiler": {
    "name": "solc",
    "version": "0.8.0+commit.c7dfd78e.Emscripten.clang"
  },
  "schemaVersion": "3.4.1",
  "updatedAt": "2021-10-16T03:51:57.467Z",
  "networkType": "ethereum",
  "devdoc": {
    "kind": "dev",
    "methods": {
      "owner()": {
        "details": "Returns the address of the current owner."
      },
      "renounceOwnership()": {
        "details": "Leaves the contract without owner. It will not be possible to call `onlyOwner` functions anymore. Can only be called by the current owner. NOTE: Renouncing ownership will leave the contract without an owner, thereby removing any functionality that is only available to the owner."
      },
      "transferOwnership(address)": {
        "details": "Transfers ownership of the contract to a new account (`newOwner`). Can only be called by the current owner."
      }
    },
    "version": 1
  },
  "userdoc": {
    "kind": "user",
    "methods": {},
    "version": 1
  }
}