{
  "contractName": "RbConsensus",
  "abi": [
    {
      "inputs": [
        {
          "internalType": "address",
          "name": "rbt",
          "type": "address"
        },
        {
          "internalType": "address",
          "name": "bank",
          "type": "address"
        },
        {
          "internalType": "address",
          "name": "vip",
          "type": "address"
        },
        {
          "internalType": "address",
          "name": "Aadmin",
          "type": "address"
        }
      ],
      "stateMutability": "nonpayable",
      "type": "constructor"
    },
    {
      "anonymous": false,
      "inputs": [
        {
          "indexed": true,
          "internalType": "address",
          "name": "Admin",
          "type": "address"
        },
        {
          "indexed": true,
          "internalType": "address",
          "name": "newAdmin",
          "type": "address"
        }
      ],
      "name": "AdminChange",
      "type": "event"
    },
    {
      "anonymous": false,
      "inputs": [
        {
          "indexed": true,
          "internalType": "address",
          "name": "Mining",
          "type": "address"
        },
        {
          "indexed": true,
          "internalType": "address",
          "name": "Admin",
          "type": "address"
        },
        {
          "indexed": true,
          "internalType": "uint256",
          "name": "value",
          "type": "uint256"
        }
      ],
      "name": "AdminTakeValue",
      "type": "event"
    },
    {
      "anonymous": false,
      "inputs": [
        {
          "indexed": true,
          "internalType": "uint256",
          "name": "time",
          "type": "uint256"
        },
        {
          "indexed": true,
          "internalType": "uint256",
          "name": "timechange",
          "type": "uint256"
        }
      ],
      "name": "LockTimeRecord",
      "type": "event"
    },
    {
      "anonymous": false,
      "inputs": [
        {
          "indexed": true,
          "internalType": "address",
          "name": "userAddress",
          "type": "address"
        },
        {
          "indexed": true,
          "internalType": "uint256",
          "name": "month",
          "type": "uint256"
        },
        {
          "indexed": true,
          "internalType": "uint256",
          "name": "mortgageAmount",
          "type": "uint256"
        }
      ],
      "name": "MortgageValueAmount",
      "type": "event"
    },
    {
      "anonymous": false,
      "inputs": [
        {
          "indexed": false,
          "internalType": "address",
          "name": "user",
          "type": "address"
        },
        {
          "indexed": true,
          "internalType": "uint256",
          "name": "tokenAmount",
          "type": "uint256"
        },
        {
          "indexed": true,
          "internalType": "uint256",
          "name": "rbtAmount",
          "type": "uint256"
        },
        {
          "indexed": true,
          "internalType": "address",
          "name": "tokenAddress",
          "type": "address"
        }
      ],
      "name": "PurchaseRecord",
      "type": "event"
    },
    {
      "inputs": [],
      "name": "_Rbt",
      "outputs": [
        {
          "internalType": "address",
          "name": "",
          "type": "address"
        }
      ],
      "stateMutability": "view",
      "type": "function"
    },
    {
      "inputs": [],
      "name": "_bank_Address",
      "outputs": [
        {
          "internalType": "address",
          "name": "",
          "type": "address"
        }
      ],
      "stateMutability": "view",
      "type": "function"
    },
    {
      "inputs": [],
      "name": "_lockTime",
      "outputs": [
        {
          "internalType": "uint256",
          "name": "",
          "type": "uint256"
        }
      ],
      "stateMutability": "view",
      "type": "function"
    },
    {
      "inputs": [],
      "name": "admin",
      "outputs": [
        {
          "internalType": "address",
          "name": "",
          "type": "address"
        }
      ],
      "stateMutability": "view",
      "type": "function"
    },
    {
      "inputs": [],
      "name": "allReceived",
      "outputs": [
        {
          "internalType": "uint256",
          "name": "",
          "type": "uint256"
        }
      ],
      "stateMutability": "view",
      "type": "function"
    },
    {
      "inputs": [],
      "name": "cumulRbt",
      "outputs": [
        {
          "internalType": "uint256",
          "name": "",
          "type": "uint256"
        }
      ],
      "stateMutability": "view",
      "type": "function"
    },
    {
      "inputs": [],
      "name": "digOutAmount",
      "outputs": [
        {
          "internalType": "uint256",
          "name": "",
          "type": "uint256"
        }
      ],
      "stateMutability": "view",
      "type": "function"
    },
    {
      "inputs": [],
      "name": "extract",
      "outputs": [],
      "stateMutability": "nonpayable",
      "type": "function"
    },
    {
      "inputs": [
        {
          "internalType": "uint256",
          "name": "index",
          "type": "uint256"
        }
      ],
      "name": "extractOne",
      "outputs": [
        {
          "internalType": "uint256",
          "name": "",
          "type": "uint256"
        }
      ],
      "stateMutability": "nonpayable",
      "type": "function"
    },
    {
      "inputs": [],
      "name": "getRbtRecord",
      "outputs": [
        {
          "internalType": "uint256",
          "name": "",
          "type": "uint256"
        },
        {
          "internalType": "uint256",
          "name": "",
          "type": "uint256"
        },
        {
          "internalType": "uint256",
          "name": "",
          "type": "uint256"
        }
      ],
      "stateMutability": "view",
      "type": "function"
    },
    {
      "inputs": [],
      "name": "getUserExtractable",
      "outputs": [
        {
          "internalType": "uint256",
          "name": "",
          "type": "uint256"
        }
      ],
      "stateMutability": "view",
      "type": "function"
    },
    {
      "inputs": [],
      "name": "getUserLockNum",
      "outputs": [
        {
          "internalType": "uint256",
          "name": "",
          "type": "uint256"
        }
      ],
      "stateMutability": "view",
      "type": "function"
    },
    {
      "inputs": [
        {
          "internalType": "address[]",
          "name": "tokenArr",
          "type": "address[]"
        }
      ],
      "name": "getValue",
      "outputs": [],
      "stateMutability": "nonpayable",
      "type": "function"
    },
    {
      "inputs": [
        {
          "internalType": "address",
          "name": "",
          "type": "address"
        },
        {
          "internalType": "uint256",
          "name": "",
          "type": "uint256"
        }
      ],
      "name": "levelMining",
      "outputs": [
        {
          "internalType": "uint256",
          "name": "",
          "type": "uint256"
        }
      ],
      "stateMutability": "view",
      "type": "function"
    },
    {
      "inputs": [
        {
          "internalType": "address",
          "name": "",
          "type": "address"
        },
        {
          "internalType": "uint256",
          "name": "",
          "type": "uint256"
        }
      ],
      "name": "lockUpTotal",
      "outputs": [
        {
          "internalType": "uint256",
          "name": "startTime",
          "type": "uint256"
        },
        {
          "internalType": "uint256",
          "name": "endTime",
          "type": "uint256"
        },
        {
          "internalType": "uint256",
          "name": "amount",
          "type": "uint256"
        },
        {
          "internalType": "uint256",
          "name": "extracted",
          "type": "uint256"
        },
        {
          "internalType": "uint256",
          "name": "price",
          "type": "uint256"
        },
        {
          "internalType": "uint256",
          "name": "mortgage",
          "type": "uint256"
        }
      ],
      "stateMutability": "view",
      "type": "function"
    },
    {
      "inputs": [
        {
          "internalType": "address",
          "name": "userAddress",
          "type": "address"
        }
      ],
      "name": "lockUpTotalLength",
      "outputs": [
        {
          "internalType": "uint256",
          "name": "length",
          "type": "uint256"
        }
      ],
      "stateMutability": "view",
      "type": "function"
    },
    {
      "inputs": [
        {
          "internalType": "address",
          "name": "userAddress",
          "type": "address"
        },
        {
          "internalType": "uint256",
          "name": "deadline",
          "type": "uint256"
        },
        {
          "internalType": "uint256",
          "name": "mAmount",
          "type": "uint256"
        }
      ],
      "name": "mortgage",
      "outputs": [],
      "stateMutability": "nonpayable",
      "type": "function"
    },
    {
      "inputs": [
        {
          "internalType": "address",
          "name": "",
          "type": "address"
        },
        {
          "internalType": "uint256",
          "name": "",
          "type": "uint256"
        }
      ],
      "name": "myRecords",
      "outputs": [
        {
          "internalType": "uint256",
          "name": "received",
          "type": "uint256"
        },
        {
          "internalType": "uint256",
          "name": "myDigOutAmount",
          "type": "uint256"
        }
      ],
      "stateMutability": "view",
      "type": "function"
    },
    {
      "inputs": [
        {
          "internalType": "address",
          "name": "newAdmin",
          "type": "address"
        }
      ],
      "name": "setAdmin",
      "outputs": [],
      "stateMutability": "nonpayable",
      "type": "function"
    },
    {
      "inputs": [
        {
          "internalType": "uint256",
          "name": "time",
          "type": "uint256"
        }
      ],
      "name": "setLockTime",
      "outputs": [],
      "stateMutability": "nonpayable",
      "type": "function"
    },
    {
      "inputs": [],
      "name": "source",
      "outputs": [
        {
          "internalType": "address",
          "name": "",
          "type": "address"
        }
      ],
      "stateMutability": "view",
      "type": "function"
    },
    {
      "inputs": [
        {
          "internalType": "address",
          "name": "",
          "type": "address"
        }
      ],
      "name": "tokenAllow",
      "outputs": [
        {
          "internalType": "bool",
          "name": "",
          "type": "bool"
        }
      ],
      "stateMutability": "view",
      "type": "function"
    },
    {
      "inputs": [],
      "name": "transferOnePrice",
      "outputs": [
        {
          "internalType": "uint256",
          "name": "",
          "type": "uint256"
        }
      ],
      "stateMutability": "view",
      "type": "function"
    },
    {
      "inputs": [],
      "name": "transferPrice",
      "outputs": [
        {
          "internalType": "uint256",
          "name": "",
          "type": "uint256"
        }
      ],
      "stateMutability": "view",
      "type": "function"
    },
    {
      "inputs": [],
      "name": "turnOnOff",
      "outputs": [
        {
          "internalType": "bool",
          "name": "",
          "type": "bool"
        }
      ],
      "stateMutability": "view",
      "type": "function"
    },
    {
      "inputs": [
        {
          "internalType": "address",
          "name": "",
          "type": "address"
        }
      ],
      "name": "userTotalReceived",
      "outputs": [
        {
          "internalType": "uint256",
          "name": "",
          "type": "uint256"
        }
      ],
      "stateMutability": "view",
      "type": "function"
    },
    {
      "inputs": [],
      "name": "vipAddress",
      "outputs": [
        {
          "internalType": "address",
          "name": "",
          "type": "address"
        }
      ],
      "stateMutability": "view",
      "type": "function"
    },
    {
      "inputs": [
        {
          "internalType": "uint256",
          "name": "price",
          "type": "uint256"
        }
      ],
      "name": "setPrice",
      "outputs": [],
      "stateMutability": "nonpayable",
      "type": "function"
    },
    {
      "inputs": [],
      "name": "getRbtPrice",
      "outputs": [
        {
          "internalType": "uint256",
          "name": "",
          "type": "uint256"
        }
      ],
      "stateMutability": "view",
      "type": "function"
    },
    {
      "inputs": [
        {
          "internalType": "address",
          "name": "addr",
          "type": "address"
        }
      ],
      "name": "getUserTotalReceived",
      "outputs": [
        {
          "internalType": "uint256",
          "name": "",
          "type": "uint256"
        }
      ],
      "stateMutability": "view",
      "type": "function"
    },
    {
      "inputs": [
        {
          "internalType": "address",
          "name": "sender",
          "type": "address"
        }
      ],
      "name": "getUserAmount",
      "outputs": [
        {
          "internalType": "uint256",
          "name": "",
          "type": "uint256"
        }
      ],
      "stateMutability": "view",
      "type": "function"
    },
    {
      "inputs": [
        {
          "internalType": "address",
          "name": "sender",
          "type": "address"
        },
        {
          "internalType": "uint256",
          "name": "level",
          "type": "uint256"
        }
      ],
      "name": "getLevelAmount",
      "outputs": [
        {
          "internalType": "uint256",
          "name": "",
          "type": "uint256"
        }
      ],
      "stateMutability": "view",
      "type": "function"
    },
    {
      "inputs": [
        {
          "internalType": "string",
          "name": "K",
          "type": "string"
        }
      ],
      "name": "getPrice",
      "outputs": [
        {
          "internalType": "uint64",
          "name": "a",
          "type": "uint64"
        },
        {
          "internalType": "uint64",
          "name": "b",
          "type": "uint64"
        }
      ],
      "stateMutability": "view",
      "type": "function"
    },
    {
      "inputs": [
        {
          "internalType": "bool",
          "name": "turnType",
          "type": "bool"
        }
      ],
      "name": "setTurnOnOff",
      "outputs": [],
      "stateMutability": "nonpayable",
      "type": "function"
    },
    {
      "inputs": [
        {
          "internalType": "address[]",
          "name": "allowToken",
          "type": "address[]"
        }
      ],
      "name": "setTokenAllow",
      "outputs": [],
      "stateMutability": "nonpayable",
      "type": "function"
    },
    {
      "inputs": [
        {
          "internalType": "uint256",
          "name": "amount",
          "type": "uint256"
        },
        {
          "internalType": "address",
          "name": "token",
          "type": "address"
        },
        {
          "internalType": "uint256",
          "name": "slip",
          "type": "uint256"
        },
        {
          "internalType": "string",
          "name": "tokenName",
          "type": "string"
        }
      ],
      "name": "getRBT",
      "outputs": [],
      "stateMutability": "nonpayable",
      "type": "function"
    },
    {
      "inputs": [
        {
          "internalType": "address",
          "name": "addr",
          "type": "address"
        }
      ],
      "name": "exchangeRatio",
      "outputs": [
        {
          "internalType": "uint256",
          "name": "",
          "type": "uint256"
        },
        {
          "internalType": "uint256",
          "name": "",
          "type": "uint256"
        }
      ],
      "stateMutability": "view",
      "type": "function"
    }
  ],
  "bytecode": "0x60806040526301e133806003553480156200001957600080fd5b5060405162002316380380620023168339810160408190526200003c91620000e0565b600080546001600160a01b03199081166001600160a01b039687161790915560018054821694861694909417909355600a8054841692851692909217909155602860075560028054831691909316179091556969e10de76676d08000006008556009805473fceadafab14d46e20144f48824d0c09b1a03f2bc92169190911790556200013c565b80516001600160a01b0381168114620000db57600080fd5b919050565b60008060008060808587031215620000f6578384fd5b6200010185620000c3565b93506200011160208601620000c3565b92506200012160408601620000c3565b91506200013160608601620000c3565b905092959194509250565b6121ca806200014c6000396000f3fe608060405234801561001057600080fd5b50600436106102275760003560e01c8063704b6c0211610130578063acbd675c116100b8578063ed037df31161007c578063ed037df31461044e578063f000fc3514610456578063f433509414610469578063f439ee7e1461047c578063f851a4401461048457610227565b8063acbd675c146103e8578063ae04d45d146103f0578063b1613c0514610403578063b8feb00c14610416578063e18b06051461043b57610227565b806381cd8194116100ff57806381cd8194146103aa57806383f0e4a1146103b25780638909646c146103c557806391b7f5ed146103cd5780639e783685146103e057610227565b8063704b6c021461037457806372a8d7901461038757806379af25a61461038f5780637ee9eaa01461039757610227565b80634f97149a116101b35780635c2996ab116101825780635c2996ab1461031957806360c8f2f71461032c57806363e341a21461033457806367e828bf1461034b5780636fd45fb71461035357610227565b80634f97149a146102bd578063524f3889146102d2578063529a37ad146102f35780635716164c1461030657610227565b80631e83cdab116101fa5780631e83cdab14610285578063327a943a1461028d5780633cf9b1b1146102a05780633d9d7901146102b55780634135b6891461028d57610227565b806302d158041461022c578063072efa6814610255578063105d86da1461025d5780631b3e2cc914610272575b600080fd5b61023f61023a366004611aee565b61048c565b60405161024c9190611fe6565b60405180910390f35b61023f6104ab565b61027061026b366004611c11565b6104b1565b005b61023f610280366004611aee565b6104f7565b610270610509565b61023f61029b366004611aee565b610736565b6102a8610751565b60405161024c9190611d61565b61023f610760565b6102c5610766565b60405161024c9190611e15565b6102e56102e0366004611c49565b61076f565b60405161024c92919061203b565b61023f610301366004611b08565b610810565b61023f610314366004611c84565b610838565b610270610327366004611b63565b61095c565b61023f610ad7565b61033c610c21565b60405161024c93929190611ffd565b6102a8610def565b610366610361366004611aee565b610dfe565b60405161024c929190611fef565b610270610382366004611aee565b610f5a565b61023f61100a565b61023f611010565b6103666103a5366004611b08565b611016565b61023f611052565b6102c56103c0366004611aee565b611058565b6102a861106d565b6102706103db366004611c84565b61107c565b61023f6110ab565b6102a86110b1565b6102706103fe366004611c84565b6110c0565b610270610411366004611b31565b611148565b610429610424366004611b08565b611237565b60405161024c96959493929190612013565b61023f610449366004611b08565b61128b565b61023f6112a8565b610270610464366004611b63565b6112ae565b610270610477366004611cb4565b6113ce565b61023f6116b2565b6102a8611831565b6001600160a01b0381166000908152600560205260409020545b919050565b60075490565b6002546001600160a01b031633146104e45760405162461bcd60e51b81526004016104db90611f4b565b60405180910390fd5b6010805460ff1916911515919091179055565b60046020526000908152604090205481565b60008061051b6401000000004261212d565b905060005b336000908152600560205260409020548110156106f65733600090815260056020526040812080548390811061056657634e487b7160e01b600052603260045260246000fd5b90600052602060002090600602016040518060c00160405290816000820154815260200160018201548152602001600282015481526020016003820154815260200160048201548152602001600582015481525050905080600001518363ffffffff16101580156105e0575080602001518363ffffffff16105b1561067e57600061062f60035461062384600001518763ffffffff1661060691906120cb565b61062960056106236004896040015161184090919063ffffffff16565b90611853565b90611840565b905060006106588360a0015161065285606001518561185f90919063ffffffff16565b9061185f565b9050610664818761186b565b955080836060018181516106789190612080565b90525050505b80602001518363ffffffff16106106e35760006106be8260a00151610652846060015161065260056106236004896040015161184090919063ffffffff16565b90506106ca818661186b565b945080826060018181516106de9190612080565b905250505b50806106ee81612112565b915050610520565b503360009081526004602052604081208054849290610716908490612080565b9091555050600054610732906001600160a01b03163384611877565b5050565b6001600160a01b031660009081526004602052604090205490565b6000546001600160a01b031681565b60065481565b60105460ff1681565b60095460405163fc2525ab60e01b8152600091829172c4770d3feb38ad07f879abd96619fbdeb005209163fc2525ab916107b7916001600160a01b0316908790600401611d99565b604080518083038186803b1580156107ce57600080fd5b505afa1580156107e2573d6000803e3d6000fd5b505050506040513d601f19601f820116820180604052508101906108069190611d13565b9094909350915050565b6001600160a01b03919091166000908152600d60209081526040808320938352929052205490565b3360009081526005602052604081208054429183918590811061086b57634e487b7160e01b600052603260045260246000fd5b90600052602060002090600602016040518060c00160405290816000820154815260200160018201548152602001600282015481526020016003820154815260200160048201548152602001600582015481525050905060006108fa6108dd60035485856020015161062391906120cb565b61062960056106236004876040015161184090919063ffffffff16565b905060006109258360a00151610652856060015161065286886040015161185f90919063ffffffff16565b6060840151909150610937908261186b565b6060840152600054610953906001600160a01b03163383611877565b95945050505050565b6002546001600160a01b031633146109865760405162461bcd60e51b81526004016104db90611f4b565b6002546001600160a01b031633146109b05760405162461bcd60e51b81526004016104db90611e9b565b60005b81518110156107325760008282815181106109de57634e487b7160e01b600052603260045260246000fd5b60200260200101516001600160a01b03166370a08231306040518263ffffffff1660e01b8152600401610a119190611d61565b60206040518083038186803b158015610a2957600080fd5b505afa158015610a3d573d6000803e3d6000fd5b505050506040513d601f19601f82011682018060405250810190610a619190611c9c565b9050610a95838381518110610a8657634e487b7160e01b600052603260045260246000fd5b60200260200101513383611877565b6040518190339030907fdd1a0661b3afa263ceb90ee8281d080435497c1df9d5a4720acedc84efd12fe790600090a45080610acf81612112565b9150506109b3565b60008080610aea6401000000004261212d565b905060005b33600090815260056020526040902054811015610c1957336000908152600560205260408120805483908110610b3557634e487b7160e01b600052603260045260246000fd5b90600052602060002090600602016040518060c00160405290816000820154815260200160018201548152602001600282015481526020016003820154815260200160048201548152602001600582015481525050905080600001518363ffffffff1610158015610baf575080602001518363ffffffff16105b15610c06576000610bd560035461062384600001518763ffffffff1661060691906120cb565b9050610c0285610bfc8361065260056106236004896040015161184090919063ffffffff16565b9061186b565b9450505b5080610c1181612112565b915050610aef565b509091505090565b6000808080808080610c386401000000004261212d565b905060005b33600090815260056020526040902054811015610de257336000908152600560205260408120805483908110610c8357634e487b7160e01b600052603260045260246000fd5b90600052602060002090600602016040518060c001604052908160008201548152602001600182015481526020016002820154815260200160038201548152602001600482015481526020016005820154815250509050610cf181604001518761186b90919063ffffffff16565b815190965063ffffffff841610801590610d14575080602001518363ffffffff16105b15610d8a576000610d3a60035461062384600001518763ffffffff1661060691906120cb565b9050610d5f85610bfc8460a0015161065286606001518661185f90919063ffffffff16565b9450610d8686610bfc8361065260056106236004896040015161184090919063ffffffff16565b9550505b80602001518363ffffffff1610610dcf57610dcc84610bfc8360a001516106528560600151610652600561062360048a6040015161184090919063ffffffff16565b93505b5080610dda81612112565b915050610c3d565b5092969195509350915050565b6009546001600160a01b031681565b6000806000610e0c84610736565b600a546040516332854c1360e01b8152919250600091829182916001600160a01b03909116906332854c1390610e46908a90600401611d61565b60206040518083038186803b158015610e5e57600080fd5b505afa158015610e72573d6000803e3d6000fd5b505050506040513d601f19601f82011682018060405250810190610e969190611c9c565b905080610ea65760039150600592505b8060011415610eb85760059150600a92505b8060021415610eca5760069150600a92505b8060031415610edc5760079150600f92505b8060041415610eee5760089150600f92505b60015b82811015610f3b576001600160a01b0388166000908152600d60209081526040808320848452909152902054610f279086612080565b945080610f3381612112565b915050610ef1565b5083610f4d6103e86106238387611840565b9550955050505050915091565b6002546001600160a01b03163314610f845760405162461bcd60e51b81526004016104db90611f4b565b6002546001600160a01b03163314610fae5760405162461bcd60e51b81526004016104db90611f4b565b6002546040516001600160a01b038084169216907f38b1065e0d088f6eda3cb9f0efc7bbb9b145907ab0deb0dbfb700d2bb21599e990600090a3600280546001600160a01b0319166001600160a01b0392909216919091179055565b60085481565b60035481565b600c602052816000526040600020818154811061103257600080fd5b600091825260209091206002909102018054600190910154909250905082565b60075481565b600b6020526000908152604090205460ff1681565b6001546001600160a01b031681565b6002546001600160a01b031633146110a65760405162461bcd60e51b81526004016104db90611f4b565b600755565b600f5481565b600a546001600160a01b031681565b6002546001600160a01b031633146110ea5760405162461bcd60e51b81526004016104db90611f4b565b6002546001600160a01b031633146111145760405162461bcd60e51b81526004016104db90611f4b565b6003546040518291907f330ab878145b7defb2c3a805cb0958be15256ca947060a42e7c08a0faa0f22f590600090a3600355565b8115806111555750816003145b806111605750816006145b8061116b575081600c145b806111765750816018145b806111815750816024145b61119d5760405162461bcd60e51b81526004016104db90611ef3565b600154604051634ce3696f60e11b81526001600160a01b03909116906399c6d2de906111d190339086908690600401611df4565b600060405180830381600087803b1580156111eb57600080fd5b505af11580156111ff573d6000803e3d6000fd5b505060405183925084915033907fd6b6177d76c249d38ccb3b9e158a75b9864fd5dcc8d8d499708767ef6ca801f790600090a4505050565b6005602052816000526040600020818154811061125357600080fd5b600091825260209091206006909102018054600182015460028301546003840154600485015460059095015493965091945092909186565b600d60209081526000928352604080842090915290825290205481565b600e5481565b6002546001600160a01b031633146112d85760405162461bcd60e51b81526004016104db90611f4b565b60105460ff16156112fb5760405162461bcd60e51b81526004016104db90611e20565b60005b815181101561073257600b600083838151811061132b57634e487b7160e01b600052603260045260246000fd5b6020908102919091018101516001600160a01b031682528101919091526040016000205460ff166113bc576001600b600084848151811061137c57634e487b7160e01b600052603260045260246000fd5b60200260200101516001600160a01b03166001600160a01b0316815260200190815260200160002060006101000a81548160ff0219169083151502179055505b806113c681612112565b9150506112fe565b60006113ea60646106296007548861185390919063ffffffff16565b90506000859050600080606460065469021e19e0c9bab240000061140e91906120ac565b6114189190612098565b60078054919250600091908261142d83612112565b909155506007546001600160a01b038a166000908152600b60205260409020549192509060ff1615156001146114755760405162461bcd60e51b81526004016104db90611ec6565b6001600160a01b03891661149b5760405162461bcd60e51b81526004016104db90611e72565b8715806114aa57508760075411155b6114c65760405162461bcd60e51b81526004016104db90611fba565b68056bc75e2d631000008610156114ef5760405162461bcd60e51b81526004016104db90611f20565b6114fb8933308d611964565b60005461151c906001600160a01b031633611517896005611853565b611877565b61153361152a876005611853565b600f549061186b565b600f55600e54611543908761186b565b600e55604080518082019091526000908061155f896005611853565b8152602001889052600854909150611577908861185f565b600881905587101561159457600854611590908861185f565b6008555b8660085410156115d9576008546115ac90889061186b565b6115c0906969e10de76676d08000006120cb565b600855600780549060006115d383612112565b91905055505b866008541415611607576969e10de76676d08000006008556007805490600061160183612112565b91905055505b33600090815260046020526040902054611621908861186b565b33600081815260046020908152604080832094909455600c81528382208054600181810183559184529282902086516002909402019283559085015191015590516001600160a01b038c169189918e917f0caedce831599172dfe59db540c9743cf217772cbeb82b67f7cc1ff68039a8969161169d9190611d61565b60405180910390a45050505050505050505050565b600080806116c56401000000004261212d565b905060005b33600090815260056020526040902054811015610c195733600090815260056020526040812080548390811061171057634e487b7160e01b600052603260045260246000fd5b90600052602060002090600602016040518060c00160405290816000820154815260200160018201548152602001600282015481526020016003820154815260200160048201548152602001600582015481525050905080600001518363ffffffff161015801561178a575080602001518363ffffffff16105b156117d95760006117b060035461062384600001518763ffffffff1661060691906120cb565b90506117d585610bfc8460a0015161065286606001518661185f90919063ffffffff16565b9450505b80602001518363ffffffff161061181e5761181b84610bfc8360a001516106528560600151610652600561062360048a6040015161184090919063ffffffff16565b93505b508061182981612112565b9150506116ca565b6002546001600160a01b031681565b600061184c82846120ac565b9392505050565b600061184c8284612098565b600061184c82846120cb565b600061184c8284612080565b600080846001600160a01b031663a9059cbb858560405160240161189c929190611ddb565b6040516020818303038152906040529060e01b6020820180516001600160e01b0383818316178352505050506040516118d59190611d45565b6000604051808303816000865af19150503d8060008114611912576040519150601f19603f3d011682016040523d82523d6000602084013e611917565b606091505b50915091508180156119415750805115806119415750808060200190518101906119419190611c2d565b61195d5760405162461bcd60e51b81526004016104db90611e3b565b5050505050565b600080856001600160a01b03166323b872dd86868660405160240161198b93929190611d75565b6040516020818303038152906040529060e01b6020820180516001600160e01b0383818316178352505050506040516119c49190611d45565b6000604051808303816000865af19150503d8060008114611a01576040519150601f19603f3d011682016040523d82523d6000602084013e611a06565b606091505b5091509150818015611a30575080511580611a30575080806020019051810190611a309190611c2d565b611a4c5760405162461bcd60e51b81526004016104db90611f76565b505050505050565b80356001600160a01b03811681146104a657600080fd5b600082601f830112611a7b578081fd5b813567ffffffffffffffff811115611a9557611a9561216d565b611aa8601f8201601f1916602001612056565b818152846020838601011115611abc578283fd5b816020850160208301379081016020019190915292915050565b805167ffffffffffffffff811681146104a657600080fd5b600060208284031215611aff578081fd5b61184c82611a54565b60008060408385031215611b1a578081fd5b611b2383611a54565b946020939093013593505050565b600080600060608486031215611b45578081fd5b611b4e84611a54565b95602085013595506040909401359392505050565b60006020808385031215611b75578182fd5b823567ffffffffffffffff80821115611b8c578384fd5b818501915085601f830112611b9f578384fd5b813581811115611bb157611bb161216d565b8381029150611bc1848301612056565b8181528481019084860184860187018a1015611bdb578788fd5b8795505b83861015611c0457611bf081611a54565b835260019590950194918601918601611bdf565b5098975050505050505050565b600060208284031215611c22578081fd5b813561184c81612183565b600060208284031215611c3e578081fd5b815161184c81612183565b600060208284031215611c5a578081fd5b813567ffffffffffffffff811115611c70578182fd5b611c7c84828501611a6b565b949350505050565b600060208284031215611c95578081fd5b5035919050565b600060208284031215611cad578081fd5b5051919050565b60008060008060808587031215611cc9578081fd5b84359350611cd960208601611a54565b925060408501359150606085013567ffffffffffffffff811115611cfb578182fd5b611d0787828801611a6b565b91505092959194509250565b60008060408385031215611d25578182fd5b611d2e83611ad6565b9150611d3c60208401611ad6565b90509250929050565b60008251611d578184602087016120e2565b9190910192915050565b6001600160a01b0391909116815260200190565b6001600160a01b039384168152919092166020820152604081019190915260600190565b600060018060a01b0384168252604060208301528251806040840152611dc68160608501602087016120e2565b601f01601f1916919091016060019392505050565b6001600160a01b03929092168252602082015260400190565b6001600160a01b039390931683526020830191909152604082015260600190565b901515815260200190565b6020808252600190820152600360fc1b604082015260600190565b6020808252601f908201527f5472616e7366657248656c7065723a205452414e534645525f4641494c454400604082015260600190565b6020808252600f908201526e496e76616c6964206164647265737360881b604082015260600190565b6020808252601190820152702cb7ba9030b932903737ba1030b236b4b760791b604082015260600190565b60208082526013908201527274686520746f6b656e206e6f7420616c6c6f7760681b604082015260600190565b6020808252601390820152722232b837b9b4ba1036b7b73a341032b93937b960691b604082015260600190565b60208082526011908201527004974277320626967207468616e2031303607c1b604082015260600190565b6020808252601190820152703cb7ba9030b932903737ba1030b236b4b760791b604082015260600190565b60208082526024908201527f5472616e7366657248656c7065723a205452414e534645525f46524f4d5f46416040820152631253115160e21b606082015260800190565b6020808252601290820152714d6f7265207468616e20736c69707061676560701b604082015260600190565b90815260200190565b918252602082015260400190565b9283526020830191909152604082015260600190565b958652602086019490945260408501929092526060840152608083015260a082015260c00190565b67ffffffffffffffff92831681529116602082015260400190565b60405181810167ffffffffffffffff811182821017156120785761207861216d565b604052919050565b6000821982111561209357612093612141565b500190565b6000826120a7576120a7612157565b500490565b60008160001904831182151516156120c6576120c6612141565b500290565b6000828210156120dd576120dd612141565b500390565b60005b838110156120fd5781810151838201526020016120e5565b8381111561210c576000848401525b50505050565b600060001982141561212657612126612141565b5060010190565b60008261213c5761213c612157565b500690565b634e487b7160e01b600052601160045260246000fd5b634e487b7160e01b600052601260045260246000fd5b634e487b7160e01b600052604160045260246000fd5b801515811461219157600080fd5b5056fea2646970667358221220dee9d04611c7407fa1df933384f244467c30d65fc9d3c0fa4ba5d8b2a410d91f64736f6c63430008000033",
  "immutableReferences": {},
  "source": "pragma solidity =0.8.0;\r\n\r\n\r\nimport '@openzeppelin/contracts/utils/math/SafeMath.sol';\r\nimport \"../interface/mining/IOpenOracle.sol\";\r\nimport \"@openzeppelin/contracts/token/ERC20/IERC20.sol\";\r\nimport \"../interface/IRbtVip.sol\";\r\nimport \"./MiningBase.sol\";\r\n\r\n\r\n//\r\ncontract RbConsensus is MiningBase {\r\n\r\n    using SafeMath for uint;//\r\n    uint public transferOnePrice;\r\n    uint public transferPrice;//\r\n    uint public cumulRbt;//\r\n    address public source;//\r\n    address public vipAddress;//vip\r\n\r\n    mapping(address => bool) public tokenAllow;//\r\n\r\n    //\r\n    mapping(address => myRecord[]) public myRecords;\r\n    //\r\n    mapping(address => mapping(uint => uint)) public levelMining;\r\n    // ,RBT\r\n    uint public digOutAmount;\r\n    // RBT\r\n    uint public allReceived;\r\n    //\r\n    event PurchaseRecord(address user, uint indexed tokenAmount, uint indexed rbtAmount, address indexed tokenAddress);\r\n\r\n    struct myRecord {\r\n        uint received;   //\r\n        uint myDigOutAmount;//\r\n\r\n\r\n    }\r\n\r\n    //\r\n    constructor(\r\n\r\n        address rbt,\r\n        address bank,\r\n        address vip,\r\n        address Aadmin\r\n\r\n    ) public {\r\n        _Rbt = rbt;\r\n        _bank_Address = bank;\r\n        vipAddress = vip;\r\n        transferPrice = 40;\r\n        admin = Aadmin;\r\n        cumulRbt = 500000 * 10 ** 18;\r\n        source = 0xfCEAdAFab14d46e20144F48824d0C09B1a03F2BC;\r\n    }\r\n\r\n\r\n    //\r\n    function setPrice(uint price) public onlyAdmin {\r\n        transferPrice = price;\r\n    }\r\n\r\n    function getRbtPrice() public view returns (uint){\r\n        return transferPrice;\r\n    }\r\n\r\n    //\r\n    function getUserTotalReceived(address addr) public view returns (uint){\r\n        return userTotalReceived[addr];\r\n    }\r\n    //\r\n    function getUserAmount(address sender) public view returns (uint) {\r\n        return userTotalReceived[sender];\r\n    }\r\n    //\r\n    function getLevelAmount(address sender, uint level) public view returns (uint){\r\n        return levelMining[sender][level];\r\n    }\r\n\r\n    //\r\n    function getPrice(string memory K) public view returns (uint64 a, uint64 b){\r\n\r\n        (a, b) = IOpenOracle(0x00c4770D3Feb38ad07f879Abd96619FBdeb00520).get(source, K);\r\n    }\r\n    //\r\n    function _recursionAddAmount(address sender, uint amount, uint i) internal {\r\n        while (i <= 7) {\r\n            address referUser;\r\n            if (referUser != address(0)) {\r\n                levelMining[referUser][i] = levelMining[referUser][i].add(amount);\r\n            } else {\r\n                break;\r\n            }\r\n            i++;\r\n            _recursionAddAmount(referUser, amount, i);\r\n        }\r\n    }\r\n\r\n    bool public turnOnOff;\r\n    //\r\n    function setTurnOnOff(bool turnType) public onlyAdmin {\r\n        turnOnOff = turnType;\r\n    }\r\n    //\r\n    function setTokenAllow(address[] memory allowToken) public onlyAdmin {\r\n        require(turnOnOff == false, \"0\");\r\n        for (uint i = 0; i < allowToken.length; i++) {\r\n            if (!tokenAllow[allowToken[i]]) {\r\n                tokenAllow[allowToken[i]] = true;\r\n            }\r\n        }\r\n    }\r\n\r\n\r\n    /**\r\n     * -> Rbt  rbt\r\n    */\r\n\r\n    function getRBT(uint amount, address token, uint slip, string memory tokenName) public {\r\n        //  (, uint64 price) = getPrice(tokenName);\r\n        // uint amountRbt = amount.mul(price).div(10 ** 12).div(transferPrice).mul(100);\r\n        // uint totalPrice = amount.mul(price).div(10 ** 12);\r\n        uint amountRbt = amount.div(transferPrice).mul(100);\r\n        uint totalPrice = amount;\r\n        uint totalAmountRbt;\r\n        uint oneWRbtprice = 10000 * 10 ** 18 * transferOnePrice / 100;\r\n        uint turnPrice = transferPrice++;\r\n        uint transferOnePrice = transferPrice;\r\n        require(tokenAllow[token] == true, \"the token not allow\");\r\n        require(token != address(0), \"Invalid address\");\r\n        require(slip == 0 || transferPrice <= slip, \"More than slippage\");\r\n        require(amountRbt >= 100 * 10 ** 18, \"It's big than 100\");\r\n\r\n\r\n        // if(amountRbt > 10000*10**18 && cumulRbt > amountRbt){\r\n        //     for(uint i = totalPrice; i > oneWRbtprice ; i-oneWRbtprice ){\r\n        //         cumulRbt.sub(10000*10**18);\r\n        //         transferOnePrice++;\r\n        //         totalAmountRbt+=10000*10**18;\r\n        //     }\r\n        //     ++transferOnePrice;\r\n        //     totalAmountRbt += totalPrice.mul(1).div(transferOnePrice).mul(100);\r\n        //     amountRbt = totalAmountRbt;\r\n        // }\r\n\r\n        TransferHelper.safeTransferFrom(token, msg.sender, address(this), amount);\r\n        TransferHelper.safeTransfer(_Rbt, msg.sender, amountRbt.div(5));\r\n        //        Record memory rec = Record({\r\n        //            startTime : block.timestamp,\r\n        //            endTime : block.timestamp + _lockTime,\r\n        //            amount : amountRbt,\r\n        //            extracted : 0,\r\n        //            price : transferPrice,\r\n        //            mortgage : 0\r\n        //        });\r\n        //\r\n        //        lockUpTotal[msg.sender].push(rec);\r\n        allReceived = allReceived.add(amountRbt.div(5));\r\n        digOutAmount = digOutAmount.add(amountRbt);\r\n\r\n        myRecord memory myrec = myRecord({\r\n            received : amountRbt.div(5),\r\n            myDigOutAmount : amountRbt\r\n        });\r\n\r\n\r\n        //\r\n        cumulRbt = cumulRbt.sub(amountRbt);\r\n\r\n        if (cumulRbt > amountRbt) {\r\n            cumulRbt = cumulRbt.sub(amountRbt);\r\n        }\r\n\r\n\r\n        if (cumulRbt < amountRbt) {\r\n            cumulRbt = 500000 * 10 ** 18 - (amountRbt).add(cumulRbt);\r\n            transferPrice++;\r\n        }\r\n\r\n        if (cumulRbt == amountRbt) {\r\n            cumulRbt = 500000 * 10 ** 18;\r\n            transferPrice++;\r\n        }\r\n        userTotalReceived[msg.sender] = userTotalReceived[msg.sender].add(amountRbt);\r\n        myRecords[msg.sender].push(myrec);\r\n        emit PurchaseRecord(msg.sender, amount, amountRbt, token);\r\n    }\r\n\r\n\r\n    //\r\n    function exchangeRatio(address addr) public view returns (uint, uint){\r\n        uint amount = getUserTotalReceived(addr);\r\n        uint ratio = 0;\r\n        uint length = 0;\r\n        //vip\r\n        uint level = IRbtVip(vipAddress).getVipLevel(addr);\r\n\r\n\r\n        if (level == 0) {\r\n            length = 3;\r\n            ratio = 5;\r\n        }\r\n        if (level == 1) {\r\n            length = 5;\r\n            ratio = 10;\r\n        }\r\n        if (level == 2) {\r\n            length = 6;\r\n            ratio = 10;\r\n        }\r\n        if (level == 3) {\r\n            length = 7;\r\n            ratio = 15;\r\n        }\r\n\r\n        if (level == 4) {\r\n            length = 8;\r\n            ratio = 15;\r\n        }\r\n        for (uint i = 1; i < length; i++) {\r\n            amount += levelMining[addr][i];\r\n        }\r\n\r\n        return (amount, amount.mul(ratio).div(1000));\r\n    }\r\n\r\n}\r\n",
  "sourcePath": "D://rainbow/RainbowDao-protocol/contracts/mining/RbConsensus.sol",
  "compiler": {
    "name": "solc",
    "version": "0.8.0+commit.c7dfd78e.Emscripten.clang"
  },
  "schemaVersion": "3.4.1",
  "updatedAt": "2021-10-16T03:51:57.616Z",
  "networkType": "ethereum",
  "devdoc": {
    "kind": "dev",
    "methods": {},
    "version": 1
  },
  "userdoc": {
    "kind": "user",
    "methods": {
      "getRBT(uint256,address,uint256,string)": {
        "notice": "-> Rbt  rbt"
      }
    },
    "version": 1
  }
}