{
  "contractName": "RbContribution",
  "abi": [
    {
      "inputs": [
        {
          "internalType": "address",
          "name": "rbd",
          "type": "address"
        },
        {
          "internalType": "address",
          "name": "rbt",
          "type": "address"
        },
        {
          "internalType": "address",
          "name": "bank",
          "type": "address"
        },
        {
          "internalType": "address",
          "name": "Adamin",
          "type": "address"
        }
      ],
      "stateMutability": "nonpayable",
      "type": "constructor"
    },
    {
      "anonymous": false,
      "inputs": [
        {
          "indexed": true,
          "internalType": "address",
          "name": "Admin",
          "type": "address"
        },
        {
          "indexed": true,
          "internalType": "address",
          "name": "newAdmin",
          "type": "address"
        }
      ],
      "name": "AdminChange",
      "type": "event"
    },
    {
      "anonymous": false,
      "inputs": [
        {
          "indexed": true,
          "internalType": "address",
          "name": "Mining",
          "type": "address"
        },
        {
          "indexed": true,
          "internalType": "address",
          "name": "Admin",
          "type": "address"
        },
        {
          "indexed": true,
          "internalType": "uint256",
          "name": "value",
          "type": "uint256"
        }
      ],
      "name": "AdminTakeValue",
      "type": "event"
    },
    {
      "anonymous": false,
      "inputs": [
        {
          "indexed": true,
          "internalType": "uint256",
          "name": "time",
          "type": "uint256"
        },
        {
          "indexed": true,
          "internalType": "uint256",
          "name": "timechange",
          "type": "uint256"
        }
      ],
      "name": "LockTimeRecord",
      "type": "event"
    },
    {
      "anonymous": false,
      "inputs": [
        {
          "indexed": true,
          "internalType": "address",
          "name": "userAddress",
          "type": "address"
        },
        {
          "indexed": true,
          "internalType": "uint256",
          "name": "month",
          "type": "uint256"
        },
        {
          "indexed": true,
          "internalType": "uint256",
          "name": "mortgageAmount",
          "type": "uint256"
        }
      ],
      "name": "MortgageValueAmount",
      "type": "event"
    },
    {
      "anonymous": false,
      "inputs": [
        {
          "indexed": false,
          "internalType": "address",
          "name": "User",
          "type": "address"
        },
        {
          "indexed": true,
          "internalType": "uint256",
          "name": "tokenAmount",
          "type": "uint256"
        },
        {
          "indexed": true,
          "internalType": "uint256",
          "name": "rbtAmount",
          "type": "uint256"
        },
        {
          "indexed": true,
          "internalType": "address",
          "name": "tokenAddress",
          "type": "address"
        }
      ],
      "name": "PurchaseRecord",
      "type": "event"
    },
    {
      "inputs": [],
      "name": "_RBD",
      "outputs": [
        {
          "internalType": "address",
          "name": "",
          "type": "address"
        }
      ],
      "stateMutability": "view",
      "type": "function"
    },
    {
      "inputs": [],
      "name": "_Rbt",
      "outputs": [
        {
          "internalType": "address",
          "name": "",
          "type": "address"
        }
      ],
      "stateMutability": "view",
      "type": "function"
    },
    {
      "inputs": [],
      "name": "_bank_Address",
      "outputs": [
        {
          "internalType": "address",
          "name": "",
          "type": "address"
        }
      ],
      "stateMutability": "view",
      "type": "function"
    },
    {
      "inputs": [],
      "name": "_lockTime",
      "outputs": [
        {
          "internalType": "uint256",
          "name": "",
          "type": "uint256"
        }
      ],
      "stateMutability": "view",
      "type": "function"
    },
    {
      "inputs": [],
      "name": "admin",
      "outputs": [
        {
          "internalType": "address",
          "name": "",
          "type": "address"
        }
      ],
      "stateMutability": "view",
      "type": "function"
    },
    {
      "inputs": [],
      "name": "allReceived",
      "outputs": [
        {
          "internalType": "uint256",
          "name": "",
          "type": "uint256"
        }
      ],
      "stateMutability": "view",
      "type": "function"
    },
    {
      "inputs": [],
      "name": "bankAddress",
      "outputs": [
        {
          "internalType": "address",
          "name": "",
          "type": "address"
        }
      ],
      "stateMutability": "view",
      "type": "function"
    },
    {
      "inputs": [],
      "name": "digOutAmount",
      "outputs": [
        {
          "internalType": "uint256",
          "name": "",
          "type": "uint256"
        }
      ],
      "stateMutability": "view",
      "type": "function"
    },
    {
      "inputs": [],
      "name": "extract",
      "outputs": [],
      "stateMutability": "nonpayable",
      "type": "function"
    },
    {
      "inputs": [
        {
          "internalType": "uint256",
          "name": "index",
          "type": "uint256"
        }
      ],
      "name": "extractOne",
      "outputs": [
        {
          "internalType": "uint256",
          "name": "",
          "type": "uint256"
        }
      ],
      "stateMutability": "nonpayable",
      "type": "function"
    },
    {
      "inputs": [],
      "name": "getRbtRecord",
      "outputs": [
        {
          "internalType": "uint256",
          "name": "",
          "type": "uint256"
        },
        {
          "internalType": "uint256",
          "name": "",
          "type": "uint256"
        },
        {
          "internalType": "uint256",
          "name": "",
          "type": "uint256"
        }
      ],
      "stateMutability": "view",
      "type": "function"
    },
    {
      "inputs": [],
      "name": "getUserExtractable",
      "outputs": [
        {
          "internalType": "uint256",
          "name": "",
          "type": "uint256"
        }
      ],
      "stateMutability": "view",
      "type": "function"
    },
    {
      "inputs": [],
      "name": "getUserLockNum",
      "outputs": [
        {
          "internalType": "uint256",
          "name": "",
          "type": "uint256"
        }
      ],
      "stateMutability": "view",
      "type": "function"
    },
    {
      "inputs": [
        {
          "internalType": "address[]",
          "name": "tokenArr",
          "type": "address[]"
        }
      ],
      "name": "getValue",
      "outputs": [],
      "stateMutability": "nonpayable",
      "type": "function"
    },
    {
      "inputs": [
        {
          "internalType": "address",
          "name": "",
          "type": "address"
        },
        {
          "internalType": "uint256",
          "name": "",
          "type": "uint256"
        }
      ],
      "name": "lockUpTotal",
      "outputs": [
        {
          "internalType": "uint256",
          "name": "startTime",
          "type": "uint256"
        },
        {
          "internalType": "uint256",
          "name": "endTime",
          "type": "uint256"
        },
        {
          "internalType": "uint256",
          "name": "amount",
          "type": "uint256"
        },
        {
          "internalType": "uint256",
          "name": "extracted",
          "type": "uint256"
        },
        {
          "internalType": "uint256",
          "name": "price",
          "type": "uint256"
        },
        {
          "internalType": "uint256",
          "name": "mortgage",
          "type": "uint256"
        }
      ],
      "stateMutability": "view",
      "type": "function"
    },
    {
      "inputs": [
        {
          "internalType": "address",
          "name": "userAddress",
          "type": "address"
        }
      ],
      "name": "lockUpTotalLength",
      "outputs": [
        {
          "internalType": "uint256",
          "name": "length",
          "type": "uint256"
        }
      ],
      "stateMutability": "view",
      "type": "function"
    },
    {
      "inputs": [
        {
          "internalType": "address",
          "name": "userAddress",
          "type": "address"
        },
        {
          "internalType": "uint256",
          "name": "deadline",
          "type": "uint256"
        },
        {
          "internalType": "uint256",
          "name": "mAmount",
          "type": "uint256"
        }
      ],
      "name": "mortgage",
      "outputs": [],
      "stateMutability": "nonpayable",
      "type": "function"
    },
    {
      "inputs": [],
      "name": "rbConsensus",
      "outputs": [
        {
          "internalType": "address",
          "name": "",
          "type": "address"
        }
      ],
      "stateMutability": "view",
      "type": "function"
    },
    {
      "inputs": [
        {
          "internalType": "address",
          "name": "newAdmin",
          "type": "address"
        }
      ],
      "name": "setAdmin",
      "outputs": [],
      "stateMutability": "nonpayable",
      "type": "function"
    },
    {
      "inputs": [
        {
          "internalType": "uint256",
          "name": "time",
          "type": "uint256"
        }
      ],
      "name": "setLockTime",
      "outputs": [],
      "stateMutability": "nonpayable",
      "type": "function"
    },
    {
      "inputs": [],
      "name": "transferPrice",
      "outputs": [
        {
          "internalType": "uint256",
          "name": "",
          "type": "uint256"
        }
      ],
      "stateMutability": "view",
      "type": "function"
    },
    {
      "inputs": [
        {
          "internalType": "address",
          "name": "",
          "type": "address"
        }
      ],
      "name": "userTotalReceived",
      "outputs": [
        {
          "internalType": "uint256",
          "name": "",
          "type": "uint256"
        }
      ],
      "stateMutability": "view",
      "type": "function"
    },
    {
      "inputs": [
        {
          "internalType": "address",
          "name": "addr",
          "type": "address"
        }
      ],
      "name": "setrbConsensus",
      "outputs": [],
      "stateMutability": "nonpayable",
      "type": "function"
    },
    {
      "inputs": [
        {
          "internalType": "uint256",
          "name": "amount",
          "type": "uint256"
        }
      ],
      "name": "getRBT",
      "outputs": [],
      "stateMutability": "nonpayable",
      "type": "function"
    }
  ],
  "bytecode": "0x60806040526301e133806003556001600b553480156200001e57600080fd5b5060405162001975380380620019758339810160408190526200004191620000b1565b600880546001600160a01b039586166001600160a01b031991821617909155600080549486169482169490941790935560028054918516918416919091179055600a80549190931691161790556200010d565b80516001600160a01b0381168114620000ac57600080fd5b919050565b60008060008060808587031215620000c7578384fd5b620000d28562000094565b9350620000e26020860162000094565b9250620000f26040860162000094565b9150620001026060860162000094565b905092959194509250565b611858806200011d6000396000f3fe608060405234801561001057600080fd5b50600436106101585760003560e01c8063704b6c02116100c3578063ae04d45d1161007c578063ae04d45d1461026e578063b1613c0514610281578063b8feb00c14610294578063ed037df3146102b9578063f439ee7e146102c1578063f851a440146102c957610158565b8063704b6c02146102335780637822ed491461024657806379af25a61461024e57806381cd8194146102565780638909646c1461025e5780639e7836851461026657610158565b80635716164c116101155780635716164c146101c8578063573e7b7b146101db5780635c2996ab146101ee57806360c8f2f71461020157806363e341a214610209578063677e62211461022057610158565b806302d158041461015d5780630d648830146101865780631b3e2cc91461019b5780631e83cdab146101ae5780633cf9b1b1146101b8578063455a3acd146101c0575b600080fd5b61017061016b3660046113d9565b6102d1565b60405161017d9190611708565b60405180910390f35b61018e6102f0565b60405161017d9190611598565b6101706101a93660046113d9565b6102ff565b6101b6610311565b005b61018e61053e565b61018e61054d565b6101706101d636600461152f565b61055c565b6101b66101e936600461152f565b610680565b6101b66101fc36600461144e565b610887565b610170610a0b565b610211610b55565b60405161017d93929190611711565b6101b661022e3660046113d9565b610d23565b6101b66102413660046113d9565b610d6f565b61018e610e1f565b610170610e2e565b610170610e34565b61018e610e3a565b610170610e49565b6101b661027c36600461152f565b610e4f565b6101b661028f36600461141c565b610ed7565b6102a76102a23660046113f3565b610fc6565b60405161017d96959493929190611727565b61017061101a565b610170611020565b61018e61119f565b6001600160a01b0381166000908152600560205260409020545b919050565b6008546001600160a01b031681565b60046020526000908152604090205481565b600080610323640100000000426117cc565b905060005b336000908152600560205260409020548110156104fe5733600090815260056020526040812080548390811061036e57634e487b7160e01b600052603260045260246000fd5b90600052602060002090600602016040518060c00160405290816000820154815260200160018201548152602001600282015481526020016003820154815260200160048201548152602001600582015481525050905080600001518363ffffffff16101580156103e8575080602001518363ffffffff16105b1561048657600061043760035461042b84600001518763ffffffff1661040e919061179a565b610431600561042b600489604001516111ae90919063ffffffff16565b906111c1565b906111ae565b905060006104608360a0015161045a8560600151856111cd90919063ffffffff16565b906111cd565b905061046c81876111d9565b95508083606001818151610480919061174f565b90525050505b80602001518363ffffffff16106104eb5760006104c68260a0015161045a846060015161045a600561042b600489604001516111ae90919063ffffffff16565b90506104d281866111d9565b945080826060018181516104e6919061174f565b905250505b50806104f6816117b1565b915050610328565b50336000908152600460205260408120805484929061051e90849061174f565b909155505060005461053a906001600160a01b031633846111e5565b5050565b6000546001600160a01b031681565b6009546001600160a01b031681565b3360009081526005602052604081208054429183918590811061058f57634e487b7160e01b600052603260045260246000fd5b90600052602060002090600602016040518060c001604052908160008201548152602001600182015481526020016002820154815260200160038201548152602001600482015481526020016005820154815250509050600061061e61060160035485856020015161042b919061179a565b610431600561042b600487604001516111ae90919063ffffffff16565b905060006106498360a0015161045a856060015161045a8688604001516111cd90919063ffffffff16565b606084015190915061065b90826111d9565b6060840152600054610677906001600160a01b031633836111e5565b95945050505050565b6009546040805162e5df4d60e31b815290516000926001600160a01b03169163072efa68916004808301926020929190829003018186803b1580156106c457600080fd5b505afa1580156106d8573d6000803e3d6000fd5b505050506040513d601f19601f820116820180604052508101906106fc9190611547565b9050600061070f8261042b8560646111ae565b60085490915061072a906001600160a01b03163330866112d2565b60005461074b906001600160a01b0316336107468460056111c1565b6111e5565b60006040518060c001604052804281526020016003544261076c919061174f565b8152602080820185905260006040808401829052600b5460608086019190915260809485018390523380845260058086528385208054600181810183559187528787208a5160069092020190815589880151918101919091558885015160028201559288015160038401559587015160048084019190915560a08801519290960191909155825292909152205490915061080690836111d9565b3360009081526004602052604090205560075461082390836111d9565b60075560065461083390836111d9565b6006556008546040516001600160a01b0390911690839086907f0caedce831599172dfe59db540c9743cf217772cbeb82b67f7cc1ff68039a89690610879903390611598565b60405180910390a450505050565b6002546001600160a01b031633146108ba5760405162461bcd60e51b81526004016108b190611699565b60405180910390fd5b6002546001600160a01b031633146108e45760405162461bcd60e51b81526004016108b190611641565b60005b815181101561053a57600082828151811061091257634e487b7160e01b600052603260045260246000fd5b60200260200101516001600160a01b03166370a08231306040518263ffffffff1660e01b81526004016109459190611598565b60206040518083038186803b15801561095d57600080fd5b505afa158015610971573d6000803e3d6000fd5b505050506040513d601f19601f820116820180604052508101906109959190611547565b90506109c98383815181106109ba57634e487b7160e01b600052603260045260246000fd5b602002602001015133836111e5565b6040518190339030907fdd1a0661b3afa263ceb90ee8281d080435497c1df9d5a4720acedc84efd12fe790600090a45080610a03816117b1565b9150506108e7565b60008080610a1e640100000000426117cc565b905060005b33600090815260056020526040902054811015610b4d57336000908152600560205260408120805483908110610a6957634e487b7160e01b600052603260045260246000fd5b90600052602060002090600602016040518060c00160405290816000820154815260200160018201548152602001600282015481526020016003820154815260200160048201548152602001600582015481525050905080600001518363ffffffff1610158015610ae3575080602001518363ffffffff16105b15610b3a576000610b0960035461042b84600001518763ffffffff1661040e919061179a565b9050610b3685610b308361045a600561042b600489604001516111ae90919063ffffffff16565b906111d9565b9450505b5080610b45816117b1565b915050610a23565b509091505090565b6000808080808080610b6c640100000000426117cc565b905060005b33600090815260056020526040902054811015610d1657336000908152600560205260408120805483908110610bb757634e487b7160e01b600052603260045260246000fd5b90600052602060002090600602016040518060c001604052908160008201548152602001600182015481526020016002820154815260200160038201548152602001600482015481526020016005820154815250509050610c258160400151876111d990919063ffffffff16565b815190965063ffffffff841610801590610c48575080602001518363ffffffff16105b15610cbe576000610c6e60035461042b84600001518763ffffffff1661040e919061179a565b9050610c9385610b308460a0015161045a8660600151866111cd90919063ffffffff16565b9450610cba86610b308361045a600561042b600489604001516111ae90919063ffffffff16565b9550505b80602001518363ffffffff1610610d0357610d0084610b308360a0015161045a856060015161045a600561042b60048a604001516111ae90919063ffffffff16565b93505b5080610d0e816117b1565b915050610b71565b5092969195509350915050565b6002546001600160a01b03163314610d4d5760405162461bcd60e51b81526004016108b190611699565b600980546001600160a01b0319166001600160a01b0392909216919091179055565b6002546001600160a01b03163314610d995760405162461bcd60e51b81526004016108b190611699565b6002546001600160a01b03163314610dc35760405162461bcd60e51b81526004016108b190611699565b6002546040516001600160a01b038084169216907f38b1065e0d088f6eda3cb9f0efc7bbb9b145907ab0deb0dbfb700d2bb21599e990600090a3600280546001600160a01b0319166001600160a01b0392909216919091179055565b600a546001600160a01b031681565b60035481565b600b5481565b6001546001600160a01b031681565b60075481565b6002546001600160a01b03163314610e795760405162461bcd60e51b81526004016108b190611699565b6002546001600160a01b03163314610ea35760405162461bcd60e51b81526004016108b190611699565b6003546040518291907f330ab878145b7defb2c3a805cb0958be15256ca947060a42e7c08a0faa0f22f590600090a3600355565b811580610ee45750816003145b80610eef5750816006145b80610efa575081600c145b80610f055750816018145b80610f105750816024145b610f2c5760405162461bcd60e51b81526004016108b19061166c565b600154604051634ce3696f60e11b81526001600160a01b03909116906399c6d2de90610f60903390869086906004016115e9565b600060405180830381600087803b158015610f7a57600080fd5b505af1158015610f8e573d6000803e3d6000fd5b505060405183925084915033907fd6b6177d76c249d38ccb3b9e158a75b9864fd5dcc8d8d499708767ef6ca801f790600090a4505050565b60056020528160005260406000208181548110610fe257600080fd5b600091825260209091206006909102018054600182015460028301546003840154600485015460059095015493965091945092909186565b60065481565b60008080611033640100000000426117cc565b905060005b33600090815260056020526040902054811015610b4d5733600090815260056020526040812080548390811061107e57634e487b7160e01b600052603260045260246000fd5b90600052602060002090600602016040518060c00160405290816000820154815260200160018201548152602001600282015481526020016003820154815260200160048201548152602001600582015481525050905080600001518363ffffffff16101580156110f8575080602001518363ffffffff16105b1561114757600061111e60035461042b84600001518763ffffffff1661040e919061179a565b905061114385610b308460a0015161045a8660600151866111cd90919063ffffffff16565b9450505b80602001518363ffffffff161061118c5761118984610b308360a0015161045a856060015161045a600561042b60048a604001516111ae90919063ffffffff16565b93505b5080611197816117b1565b915050611038565b6002546001600160a01b031681565b60006111ba828461177b565b9392505050565b60006111ba8284611767565b60006111ba828461179a565b60006111ba828461174f565b600080846001600160a01b031663a9059cbb858560405160240161120a9291906115d0565b6040516020818303038152906040529060e01b6020820180516001600160e01b038381831617835250505050604051611243919061155f565b6000604051808303816000865af19150503d8060008114611280576040519150601f19603f3d011682016040523d82523d6000602084013e611285565b606091505b50915091508180156112af5750805115806112af5750808060200190518101906112af919061150f565b6112cb5760405162461bcd60e51b81526004016108b19061160a565b5050505050565b600080856001600160a01b03166323b872dd8686866040516024016112f9939291906115ac565b6040516020818303038152906040529060e01b6020820180516001600160e01b038381831617835250505050604051611332919061155f565b6000604051808303816000865af19150503d806000811461136f576040519150601f19603f3d011682016040523d82523d6000602084013e611374565b606091505b509150915081801561139e57508051158061139e57508080602001905181019061139e919061150f565b6113ba5760405162461bcd60e51b81526004016108b1906116c4565b505050505050565b80356001600160a01b03811681146102eb57600080fd5b6000602082840312156113ea578081fd5b6111ba826113c2565b60008060408385031215611405578081fd5b61140e836113c2565b946020939093013593505050565b600080600060608486031215611430578081fd5b611439846113c2565b95602085013595506040909401359392505050565b60006020808385031215611460578182fd5b823567ffffffffffffffff80821115611477578384fd5b818501915085601f83011261148a578384fd5b81358181111561149c5761149c61180c565b838102604051858282010181811085821117156114bb576114bb61180c565b604052828152858101935084860182860187018a10156114d9578788fd5b8795505b83861015611502576114ee816113c2565b8552600195909501949386019386016114dd565b5098975050505050505050565b600060208284031215611520578081fd5b815180151581146111ba578182fd5b600060208284031215611540578081fd5b5035919050565b600060208284031215611558578081fd5b5051919050565b60008251815b8181101561157f5760208186018101518583015201611565565b8181111561158d5782828501525b509190910192915050565b6001600160a01b0391909116815260200190565b6001600160a01b039384168152919092166020820152604081019190915260600190565b6001600160a01b03929092168252602082015260400190565b6001600160a01b039390931683526020830191909152604082015260600190565b6020808252601f908201527f5472616e7366657248656c7065723a205452414e534645525f4641494c454400604082015260600190565b6020808252601190820152702cb7ba9030b932903737ba1030b236b4b760791b604082015260600190565b6020808252601390820152722232b837b9b4ba1036b7b73a341032b93937b960691b604082015260600190565b6020808252601190820152703cb7ba9030b932903737ba1030b236b4b760791b604082015260600190565b60208082526024908201527f5472616e7366657248656c7065723a205452414e534645525f46524f4d5f46416040820152631253115160e21b606082015260800190565b90815260200190565b9283526020830191909152604082015260600190565b958652602086019490945260408501929092526060840152608083015260a082015260c00190565b60008219821115611762576117626117e0565b500190565b600082611776576117766117f6565b500490565b6000816000190483118215151615611795576117956117e0565b500290565b6000828210156117ac576117ac6117e0565b500390565b60006000198214156117c5576117c56117e0565b5060010190565b6000826117db576117db6117f6565b500690565b634e487b7160e01b600052601160045260246000fd5b634e487b7160e01b600052601260045260246000fd5b634e487b7160e01b600052604160045260246000fdfea26469706673582212205026d5d01773c89c85e6b8a4f155f7eda4c0073153d7268f033eae5548c32b5f64736f6c63430008000033",
  "immutableReferences": {},
  "source": "pragma solidity =0.8.0;\r\n\r\nimport \"@openzeppelin/contracts/utils/math/SafeMath.sol\";\r\nimport \"../interface/mining/IRbConsensus.sol\";\r\nimport \"../lib/TransferHelper.sol\";\r\nimport \"./MiningBase.sol\";\r\n//\r\n\r\ncontract RbContribution is MiningBase {\r\n    using SafeMath for uint;//\r\n\r\n    //\r\n    uint public digOutAmount;\r\n    //\r\n    uint public allReceived;\r\n    //RBD\r\n    address public _RBD;\r\n    //\r\n    address public rbConsensus;\r\n    //\r\n    address public bankAddress;\r\n    // \r\n    uint public transferPrice = 1;\r\n    //\r\n    event PurchaseRecord (address  User , uint indexed tokenAmount , uint indexed rbtAmount ,address indexed tokenAddress);\r\n\r\n    //\r\n    constructor(\r\n        address rbd,\r\n        address rbt,\r\n        address bank,\r\n        address Adamin\r\n    ) public {\r\n        _RBD = rbd;\r\n        _Rbt = rbt;\r\n        admin = Adamin;\r\n        bankAddress = bank;\r\n    }\r\n\r\n    //\r\n    function setrbConsensus(address addr) public onlyAdmin {\r\n        rbConsensus = addr;\r\n    }\r\n    \r\n    /*\r\n    *   RBD --> RBT \r\n    */\r\n\r\n    \r\n        function getRBT(uint amount) public {\r\n        uint RbtransferPrice = IRbConsensus(rbConsensus).getRbtPrice();\r\n        uint amountRbt = amount.mul(100).div(RbtransferPrice);\r\n        TransferHelper.safeTransferFrom(_RBD, msg.sender, address(this), amount);\r\n        TransferHelper.safeTransfer(_Rbt, msg.sender, amountRbt.div(5));\r\n        Record memory rec = Record({\r\n        startTime : block.timestamp,\r\n        endTime : block.timestamp + _lockTime,\r\n        amount : amountRbt,\r\n        extracted : 0,\r\n        price : transferPrice,\r\n\r\n        mortgage : 0\r\n\r\n        });\r\n        lockUpTotal[msg.sender].push(rec);\r\n\r\n        userTotalReceived[msg.sender] = userTotalReceived[msg.sender].add(amountRbt);\r\n        allReceived = allReceived.add(amountRbt);\r\n        digOutAmount = digOutAmount.add(amountRbt);\r\n        emit PurchaseRecord (msg.sender , amount , amountRbt ,_RBD);\r\n\r\n    }\r\n\r\n\r\n}\r\n",
  "sourcePath": "D://rainbow/RainbowDao-protocol/contracts/mining/RbContribution.sol",
  "compiler": {
    "name": "solc",
    "version": "0.8.0+commit.c7dfd78e.Emscripten.clang"
  },
  "schemaVersion": "3.4.1",
  "updatedAt": "2021-10-16T03:51:57.629Z",
  "networkType": "ethereum",
  "devdoc": {
    "kind": "dev",
    "methods": {},
    "version": 1
  },
  "userdoc": {
    "kind": "user",
    "methods": {},
    "version": 1
  }
}