{
  "contractName": "RBDRUSDPool",
  "abi": [
    {
      "inputs": [
        {
          "internalType": "address",
          "name": "core",
          "type": "address"
        },
        {
          "internalType": "address",
          "name": "_RainbowRouter",
          "type": "address"
        },
        {
          "internalType": "address",
          "name": "_token0",
          "type": "address"
        },
        {
          "internalType": "address",
          "name": "_token1",
          "type": "address"
        },
        {
          "internalType": "address",
          "name": "_pair",
          "type": "address"
        }
      ],
      "stateMutability": "nonpayable",
      "type": "constructor"
    },
    {
      "anonymous": false,
      "inputs": [
        {
          "indexed": true,
          "internalType": "address",
          "name": "_core",
          "type": "address"
        }
      ],
      "name": "CoreUpdate",
      "type": "event"
    },
    {
      "inputs": [],
      "name": "RainbowRouter",
      "outputs": [
        {
          "internalType": "contract IUniswapV2Router02",
          "name": "",
          "type": "address"
        }
      ],
      "stateMutability": "view",
      "type": "function"
    },
    {
      "inputs": [],
      "name": "Rbt",
      "outputs": [
        {
          "internalType": "contract IERC20",
          "name": "",
          "type": "address"
        }
      ],
      "stateMutability": "view",
      "type": "function"
    },
    {
      "inputs": [],
      "name": "core",
      "outputs": [
        {
          "internalType": "contract ICore",
          "name": "",
          "type": "address"
        }
      ],
      "stateMutability": "view",
      "type": "function"
    },
    {
      "inputs": [],
      "name": "depositToPools",
      "outputs": [],
      "stateMutability": "nonpayable",
      "type": "function"
    },
    {
      "inputs": [],
      "name": "getReserves",
      "outputs": [
        {
          "internalType": "uint256",
          "name": "otherReserves",
          "type": "uint256"
        },
        {
          "internalType": "uint256",
          "name": "rusdReserves",
          "type": "uint256"
        }
      ],
      "stateMutability": "view",
      "type": "function"
    },
    {
      "inputs": [],
      "name": "lastDepositTime",
      "outputs": [
        {
          "internalType": "uint256",
          "name": "",
          "type": "uint256"
        }
      ],
      "stateMutability": "view",
      "type": "function"
    },
    {
      "inputs": [],
      "name": "numberOfFailures",
      "outputs": [
        {
          "internalType": "uint256",
          "name": "",
          "type": "uint256"
        }
      ],
      "stateMutability": "view",
      "type": "function"
    },
    {
      "inputs": [],
      "name": "pair",
      "outputs": [
        {
          "internalType": "contract IUniswapV2Pair",
          "name": "",
          "type": "address"
        }
      ],
      "stateMutability": "view",
      "type": "function"
    },
    {
      "inputs": [],
      "name": "peg",
      "outputs": [
        {
          "internalType": "uint256",
          "name": "",
          "type": "uint256"
        }
      ],
      "stateMutability": "view",
      "type": "function"
    },
    {
      "inputs": [
        {
          "internalType": "address",
          "name": "core",
          "type": "address"
        }
      ],
      "name": "setCore",
      "outputs": [],
      "stateMutability": "nonpayable",
      "type": "function"
    },
    {
      "inputs": [],
      "name": "token0",
      "outputs": [
        {
          "internalType": "address",
          "name": "",
          "type": "address"
        }
      ],
      "stateMutability": "view",
      "type": "function"
    },
    {
      "inputs": [],
      "name": "token1",
      "outputs": [
        {
          "internalType": "address",
          "name": "",
          "type": "address"
        }
      ],
      "stateMutability": "view",
      "type": "function"
    },
    {
      "inputs": [],
      "name": "reweight",
      "outputs": [],
      "stateMutability": "nonpayable",
      "type": "function"
    }
  ],
  "bytecode": "0x60806040523480156200001157600080fd5b50604051620013c7380380620013c78339810160408190526200003491620000b4565b600080546001600160a01b03199081166001600160a01b0397881617909155600480548216958716959095179094556001805485169386169390931790925560038054841691851691909117905560028054909216921691909117905562000123565b80516001600160a01b0381168114620000af57600080fd5b919050565b600080600080600060a08688031215620000cc578081fd5b620000d78662000097565b9450620000e76020870162000097565b9350620000f76040870162000097565b9250620001076060870162000097565b9150620001176080870162000097565b90509295509295909350565b61129480620001336000396000f3fe608060405234801561001057600080fd5b50600436106100cf5760003560e01c8063849feb6b1161008c578063d21220a711610066578063d21220a71461015a578063e1a7bbf714610162578063e2a935411461016a578063f2f4eb2614610172576100cf565b8063849feb6b14610142578063a8aa1b311461014a578063bd28f35114610152576100cf565b80630902f1ac146100d45780630dfe1681146100f3578063135b54dd146101085780631f1cb62b146101105780636b19ac0b14610125578063800096301461012d575b600080fd5b6100dc61017a565b6040516100ea929190611143565b60405180910390f35b6100fb6102cd565b6040516100ea9190610f01565b6100fb6102dc565b610118610368565b6040516100ea919061113a565b61011861036e565b61014061013b366004610df3565b610374565b005b610140610461565b6100fb6105f3565b610118610602565b6100fb610608565b6100fb610617565b610140610626565b6100fb61074c565b6000806000600260009054906101000a90046001600160a01b03166001600160a01b0316630dfe16816040518163ffffffff1660e01b815260040160206040518083038186803b1580156101cd57600080fd5b505afa1580156101e1573d6000803e3d6000fd5b505050506040513d601f19601f820116820180604052508101906102059190610e0f565b9050600080600260009054906101000a90046001600160a01b03166001600160a01b0316630902f1ac6040518163ffffffff1660e01b815260040160606040518083038186803b15801561025857600080fd5b505afa15801561026c573d6000803e3d6000fd5b505050506040513d601f19601f820116820180604052508101906102909190610e4b565b506001546001600160701b039283169450911691506001600160a01b038481169116146102be5780826102c1565b81815b90955093505050509091565b6001546001600160a01b031681565b60008060009054906101000a90046001600160a01b03166001600160a01b03166318f7d8626040518163ffffffff1660e01b815260040160206040518083038186803b15801561032b57600080fd5b505afa15801561033f573d6000803e3d6000fd5b505050506040513d601f19601f820116820180604052508101906103639190610e0f565b905090565b60075481565b60065481565b600054604051631c86b03760e31b81526001600160a01b039091169063e43581b8906103a4903390600401610f01565b60206040518083038186803b1580156103bc57600080fd5b505afa1580156103d0573d6000803e3d6000fd5b505050506040513d601f19601f820116820180604052508101906103f49190610e2b565b6104195760405162461bcd60e51b81526004016104109061105e565b60405180910390fd5b600080546001600160a01b0319166001600160a01b038316908117825560405190917fad9400e618eb1344fde53db22397a1b82c765527ecbba3a5c86bcac15090828b91a250565b600061046b61075b565b9050600754811061048e5760405162461bcd60e51b815260040161041090611112565b6001546003546002546040516370a0823160e01b8152610529936001600160a01b039081169381169216906370a08231906104cd903090600401610f01565b60206040518083038186803b1580156104e557600080fd5b505afa1580156104f9573d6000803e3d6000fd5b505050506040513d601f19601f8201168201806040525081019061051d9190610e99565b60008030600019610760565b6105316107f7565b6003546040516370a0823160e01b81526064916000916001600160a01b03909116906370a0823190610567903090600401610f01565b60206040518083038186803b15801561057f57600080fd5b505afa158015610593573d6000803e3d6000fd5b505050506040513d601f19601f820116820180604052508101906105b79190610e99565b905060006105c58383610841565b6001546003549192506105ed916001600160a01b039182169116838560008030600019610856565b50505050565b6002546001600160a01b031681565b60055481565b6003546001600160a01b031681565b6004546001600160a01b031681565b600554610635906138406111c2565b4210156106545760405162461bcd60e51b81526004016104109061109f565b61065c61083f565b6003546040516370a0823160e01b81526064916000916001600160a01b03909116906370a0823190610692903090600401610f01565b60206040518083038186803b1580156106aa57600080fd5b505afa1580156106be573d6000803e3d6000fd5b505050506040513d601f19601f820116820180604052508101906106e29190610e99565b90506000610706606461070060326106fa8787610841565b90610841565b906108f1565b9050600061071a6064610700856032610841565b600154600354919250610742916001600160a01b039182169116848460008030600019610856565b5050426005555050565b6000546001600160a01b031690565b606490565b60048054604051635d5155ef60e11b81526001600160a01b039091169163baa2abde9161079b918b918b918b918b918b918b918b9101610f15565b6040805180830381600087803b1580156107b457600080fd5b505af11580156107c8573d6000803e3d6000fd5b505050506040513d601f19601f820116820180604052508101906107ec9190610eb1565b505050505050505050565b60008061080261017a565b915091508160001480610813575080155b1561081f57505061083f565b600061082e83836007546108fd565b905061083b818385610966565b5050505b565b600061084d82846111fa565b90505b92915050565b6004805460405162e8e33760e81b81526001600160a01b039091169163e8e3370091610892918c918c918c918c918c918c918c918c9101610f55565b606060405180830381600087803b1580156108ac57600080fd5b505af11580156108c0573d6000803e3d6000fd5b505050506040513d601f19601f820116820180604052508101906108e49190610ed4565b5050505050505050505050565b600061084d82846111da565b60008061090e846106fa8588610841565b9050600061091b82610b38565b9050858111156109445761093b6103e56107006103e86106fa8a86611219565b9250505061095f565b61095a6103e56107006103e86106fa858b611219565b925050505b9392505050565b6003546040516370a0823160e01b81526000916109f591606491610700916032916001600160a01b0316906370a08231906109a5903090600401610f01565b60206040518083038186803b1580156109bd57600080fd5b505afa1580156109d1573d6000803e3d6000fd5b505050506040513d601f19601f820116820180604052508101906106fa9190610e99565b90506000610a038583610cb8565b90506000610a12828686610cce565b60015460025460408051630dfe168160e01b8152905193945060009384936001600160a01b03908116931691630dfe1681916004808301926020929190829003018186803b158015610a6357600080fd5b505afa158015610a77573d6000803e3d6000fd5b505050506040513d601f19601f82011682018060405250810190610a9b9190610e0f565b6001600160a01b031614610ab157826000610ab5565b6000835b6002546040805160008152602081019182905263022c0d9f60e01b9091529294509092506001600160a01b03169063022c0d9f90610afc9085908590309060248101611151565b600060405180830381600087803b158015610b1657600080fd5b505af1158015610b2a573d6000803e3d6000fd5b505050505050505050505050565b600081610b4757506000610cb3565b816001600160801b8210610b605760809190911c9060401b5b680100000000000000008210610b7b5760409190911c9060201b5b6401000000008210610b925760209190911c9060101b5b620100008210610ba75760109190911c9060081b5b6101008210610bbb5760089190911c9060041b5b60108210610bce5760049190911c9060021b5b60088210610bda5760011b5b6001610be682866111da565b610bf090836111c2565b901c90506001610c0082866111da565b610c0a90836111c2565b901c90506001610c1a82866111da565b610c2490836111c2565b901c90506001610c3482866111da565b610c3e90836111c2565b901c90506001610c4e82866111da565b610c5890836111c2565b901c90506001610c6882866111da565b610c7290836111c2565b901c90506001610c8282866111da565b610c8c90836111c2565b901c90506000610c9c82866111da565b9050808210610cab5780610cad565b815b93505050505b919050565b6000818310610cc7578161084d565b5090919050565b6000808411610cef5760405162461bcd60e51b8152600401610410906110c7565b600083118015610cff5750600082115b610d1b5760405162461bcd60e51b815260040161041090610fd5565b6000610d29856103e5610d68565b90506000610d378285610d68565b90506000610d5183610d4b886103e8610d68565b90610dad565b9050610d5d81836111da565b979650505050505050565b600082610d7757506000610850565b6000610d8383856111fa565b905082610d9085836111da565b1461084d5760405162461bcd60e51b81526004016104109061101d565b600080610dba83856111c2565b90508381101561084d5760405162461bcd60e51b815260040161041090610f9e565b80516001600160701b0381168114610cb357600080fd5b600060208284031215610e04578081fd5b813561084d81611246565b600060208284031215610e20578081fd5b815161084d81611246565b600060208284031215610e3c578081fd5b8151801515811461084d578182fd5b600080600060608486031215610e5f578182fd5b610e6884610ddc565b9250610e7660208501610ddc565b9150604084015163ffffffff81168114610e8e578182fd5b809150509250925092565b600060208284031215610eaa578081fd5b5051919050565b60008060408385031215610ec3578182fd5b505080516020909101519092909150565b600080600060608486031215610ee8578283fd5b8351925060208401519150604084015190509250925092565b6001600160a01b0391909116815260200190565b6001600160a01b039788168152958716602087015260408601949094526060850192909252608084015290921660a082015260c081019190915260e00190565b6001600160a01b039889168152968816602088015260408701959095526060860193909352608085019190915260a084015290921660c082015260e08101919091526101000190565b6020808252601b908201527f536166654d6174683a206164646974696f6e206f766572666c6f770000000000604082015260600190565b60208082526028908201527f556e697377617056324c6962726172793a20494e53554646494349454e545f4c604082015267495155494449545960c01b606082015260800190565b60208082526021908201527f536166654d6174683a206d756c7469706c69636174696f6e206f766572666c6f6040820152607760f81b606082015260800190565b60208082526021908201527f436f72655265663a2043616c6c6572206973206e6f74206120676f7665726e6f6040820152603960f91b606082015260800190565b6020808252600e908201526d3a34b6b29034b9903737ba1034b760911b604082015260600190565b6020808252602b908201527f556e697377617056324c6962726172793a20494e53554646494349454e545f4960408201526a1394155517d05353d5539560aa1b606082015260800190565b6020808252600e908201526d63616e206e6f7420646f206e6f7760901b604082015260600190565b90815260200190565b918252602082015260400190565b60008582526020858184015260018060a01b0385166040840152608060608401528351806080850152825b818110156111985785810183015185820160a00152820161117c565b818111156111a9578360a083870101525b50601f01601f19169290920160a0019695505050505050565b600082198211156111d5576111d5611230565b500190565b6000826111f557634e487b7160e01b81526012600452602481fd5b500490565b600081600019048311821515161561121457611214611230565b500290565b60008282101561122b5761122b611230565b500390565b634e487b7160e01b600052601160045260246000fd5b6001600160a01b038116811461125b57600080fd5b5056fea2646970667358221220eb77b2cd505aae2e53479f076be128cb6df6871385463ef30ac553eeaff1e0de64736f6c63430008000033",
  "immutableReferences": {},
  "source": "pragma solidity ^0.8.0;\r\nimport \"../ref/PoolsRef.sol\";\r\nimport \"@openzeppelin/contracts/utils/math/SafeMath.sol\";\r\n\r\n\r\ncontract RBDRUSDPool is PoolsRef {\r\n    using SafeMath for uint256;\r\n    uint public numberOfFailures;  //\r\n    uint public peg; //0.05U\r\n    constructor(address core,  address _RainbowRouter,address _token0,address _token1,address _pair ) PoolsRef(core,_RainbowRouter,_token0,_token1,_pair)  public {}\r\n\r\n\r\n    //dcv\r\n    function reweight() public {\r\n        uint oraclePrice =  _getOraclePrice();\r\n\r\n        require (oraclePrice < peg,'can not do now');\r\n        //1.\r\n        _removeLiquidity(token0,token1,pair.balanceOf(address(this)),0,0,address(this),type(uint).max);\r\n        //2.DCVRUSDRBT20%\r\n        _returnSpecifyPrice();\r\n        //\r\n\r\n        //3.\r\n        //todo token0token1\r\n        uint price = 100;\r\n        uint token1Balance = IERC20(token1).balanceOf(address(this)); //rusd\r\n        uint amountToken0 = price.mul(token1Balance);\r\n        _addLiquidity(token0,token1,amountToken0,token1Balance,0,0,address(this),type(uint).max);\r\n        //todo  \r\n\r\n    }\r\n    //\r\n    function _checkAchieveTheGoal() internal{\r\n        uint oraclePrice =  _getOraclePrice();\r\n        //\r\n        if(oraclePrice < peg){\r\n            numberOfFailures++;\r\n            if(numberOfFailures == 3){\r\n                //todo  \r\n                numberOfFailures = 0;\r\n            }\r\n        }\r\n    }\r\n\r\n    //\r\n    function _returnSpecifyPrice() internal{\r\n        (uint256 otherReserves, uint256 rusdReserves) = getReserves();\r\n        if (otherReserves == 0 || rusdReserves == 0) {\r\n            return;\r\n        }\r\n        uint256 amountRusd = _getAmountToPeg(otherReserves, rusdReserves, peg);\r\n        _swap(amountRusd, rusdReserves, otherReserves);\r\n    }\r\n\r\n\r\n\r\n    //RBD\r\n    function _getOraclePrice() internal view returns(uint) {\r\n        return 100;\r\n    }\r\n}\r\n",
  "sourcePath": "D://rainbow/RainbowDao-protocol/contracts/publicMiningFund/RBDRUSDPool.sol",
  "compiler": {
    "name": "solc",
    "version": "0.8.0+commit.c7dfd78e.Emscripten.clang"
  },
  "schemaVersion": "3.4.1",
  "updatedAt": "2021-10-08T01:43:01.106Z",
  "devdoc": {
    "kind": "dev",
    "methods": {
      "Rbt()": {
        "returns": {
          "_0": "IFei implementation address"
        }
      },
      "core()": {
        "returns": {
          "_0": "ICore implementation address"
        }
      }
    },
    "version": 1
  },
  "userdoc": {
    "kind": "user",
    "methods": {
      "Rbt()": {
        "notice": "address of the Fei contract referenced by Core"
      },
      "core()": {
        "notice": "address of the Core contract referenced"
      }
    },
    "version": 1
  }
}