{
  "contractName": "Rbinvite",
  "abi": [
    {
      "inputs": [
        {
          "internalType": "address",
          "name": "ex",
          "type": "address"
        },
        {
          "internalType": "address",
          "name": "rbt",
          "type": "address"
        },
        {
          "internalType": "address",
          "name": "rbConsensus",
          "type": "address"
        },
        {
          "internalType": "address",
          "name": "Aadmin",
          "type": "address"
        }
      ],
      "stateMutability": "nonpayable",
      "type": "constructor"
    },
    {
      "anonymous": false,
      "inputs": [
        {
          "indexed": true,
          "internalType": "address",
          "name": "Admin",
          "type": "address"
        },
        {
          "indexed": true,
          "internalType": "address",
          "name": "newAdmin",
          "type": "address"
        }
      ],
      "name": "AdminChange",
      "type": "event"
    },
    {
      "anonymous": false,
      "inputs": [
        {
          "indexed": true,
          "internalType": "address",
          "name": "Mining",
          "type": "address"
        },
        {
          "indexed": true,
          "internalType": "address",
          "name": "Admin",
          "type": "address"
        },
        {
          "indexed": true,
          "internalType": "uint256",
          "name": "value",
          "type": "uint256"
        }
      ],
      "name": "AdminTakeValue",
      "type": "event"
    },
    {
      "anonymous": false,
      "inputs": [
        {
          "indexed": true,
          "internalType": "uint256",
          "name": "time",
          "type": "uint256"
        },
        {
          "indexed": true,
          "internalType": "uint256",
          "name": "timechange",
          "type": "uint256"
        }
      ],
      "name": "LockTimeRecord",
      "type": "event"
    },
    {
      "anonymous": false,
      "inputs": [
        {
          "indexed": true,
          "internalType": "address",
          "name": "userAddress",
          "type": "address"
        },
        {
          "indexed": true,
          "internalType": "uint256",
          "name": "month",
          "type": "uint256"
        },
        {
          "indexed": true,
          "internalType": "uint256",
          "name": "mortgageAmount",
          "type": "uint256"
        }
      ],
      "name": "MortgageValueAmount",
      "type": "event"
    },
    {
      "anonymous": false,
      "inputs": [
        {
          "indexed": false,
          "internalType": "address",
          "name": "User",
          "type": "address"
        },
        {
          "indexed": true,
          "internalType": "uint256",
          "name": "tokenAmount",
          "type": "uint256"
        },
        {
          "indexed": true,
          "internalType": "uint256",
          "name": "rbtAmount",
          "type": "uint256"
        },
        {
          "indexed": true,
          "internalType": "address",
          "name": "tokenAddress",
          "type": "address"
        }
      ],
      "name": "PurchaseRecord",
      "type": "event"
    },
    {
      "inputs": [],
      "name": "RbConsensus",
      "outputs": [
        {
          "internalType": "address",
          "name": "",
          "type": "address"
        }
      ],
      "stateMutability": "view",
      "type": "function"
    },
    {
      "inputs": [],
      "name": "_RBTEX",
      "outputs": [
        {
          "internalType": "address",
          "name": "",
          "type": "address"
        }
      ],
      "stateMutability": "view",
      "type": "function"
    },
    {
      "inputs": [],
      "name": "_Rbt",
      "outputs": [
        {
          "internalType": "address",
          "name": "",
          "type": "address"
        }
      ],
      "stateMutability": "view",
      "type": "function"
    },
    {
      "inputs": [],
      "name": "_bank_Address",
      "outputs": [
        {
          "internalType": "address",
          "name": "",
          "type": "address"
        }
      ],
      "stateMutability": "view",
      "type": "function"
    },
    {
      "inputs": [],
      "name": "_lockTime",
      "outputs": [
        {
          "internalType": "uint256",
          "name": "",
          "type": "uint256"
        }
      ],
      "stateMutability": "view",
      "type": "function"
    },
    {
      "inputs": [],
      "name": "admin",
      "outputs": [
        {
          "internalType": "address",
          "name": "",
          "type": "address"
        }
      ],
      "stateMutability": "view",
      "type": "function"
    },
    {
      "inputs": [],
      "name": "allReceived",
      "outputs": [
        {
          "internalType": "uint256",
          "name": "",
          "type": "uint256"
        }
      ],
      "stateMutability": "view",
      "type": "function"
    },
    {
      "inputs": [
        {
          "internalType": "address",
          "name": "",
          "type": "address"
        }
      ],
      "name": "cumuRbt",
      "outputs": [
        {
          "internalType": "uint256",
          "name": "",
          "type": "uint256"
        }
      ],
      "stateMutability": "view",
      "type": "function"
    },
    {
      "inputs": [],
      "name": "digOutAmount",
      "outputs": [
        {
          "internalType": "uint256",
          "name": "",
          "type": "uint256"
        }
      ],
      "stateMutability": "view",
      "type": "function"
    },
    {
      "inputs": [],
      "name": "extract",
      "outputs": [],
      "stateMutability": "nonpayable",
      "type": "function"
    },
    {
      "inputs": [
        {
          "internalType": "uint256",
          "name": "index",
          "type": "uint256"
        }
      ],
      "name": "extractOne",
      "outputs": [
        {
          "internalType": "uint256",
          "name": "",
          "type": "uint256"
        }
      ],
      "stateMutability": "nonpayable",
      "type": "function"
    },
    {
      "inputs": [],
      "name": "getRbtRecord",
      "outputs": [
        {
          "internalType": "uint256",
          "name": "",
          "type": "uint256"
        },
        {
          "internalType": "uint256",
          "name": "",
          "type": "uint256"
        },
        {
          "internalType": "uint256",
          "name": "",
          "type": "uint256"
        }
      ],
      "stateMutability": "view",
      "type": "function"
    },
    {
      "inputs": [],
      "name": "getUserExtractable",
      "outputs": [
        {
          "internalType": "uint256",
          "name": "",
          "type": "uint256"
        }
      ],
      "stateMutability": "view",
      "type": "function"
    },
    {
      "inputs": [],
      "name": "getUserLockNum",
      "outputs": [
        {
          "internalType": "uint256",
          "name": "",
          "type": "uint256"
        }
      ],
      "stateMutability": "view",
      "type": "function"
    },
    {
      "inputs": [
        {
          "internalType": "address[]",
          "name": "tokenArr",
          "type": "address[]"
        }
      ],
      "name": "getValue",
      "outputs": [],
      "stateMutability": "nonpayable",
      "type": "function"
    },
    {
      "inputs": [
        {
          "internalType": "address",
          "name": "",
          "type": "address"
        },
        {
          "internalType": "uint256",
          "name": "",
          "type": "uint256"
        }
      ],
      "name": "lockUpTotal",
      "outputs": [
        {
          "internalType": "uint256",
          "name": "startTime",
          "type": "uint256"
        },
        {
          "internalType": "uint256",
          "name": "endTime",
          "type": "uint256"
        },
        {
          "internalType": "uint256",
          "name": "amount",
          "type": "uint256"
        },
        {
          "internalType": "uint256",
          "name": "extracted",
          "type": "uint256"
        },
        {
          "internalType": "uint256",
          "name": "price",
          "type": "uint256"
        },
        {
          "internalType": "uint256",
          "name": "mortgage",
          "type": "uint256"
        }
      ],
      "stateMutability": "view",
      "type": "function"
    },
    {
      "inputs": [
        {
          "internalType": "address",
          "name": "userAddress",
          "type": "address"
        }
      ],
      "name": "lockUpTotalLength",
      "outputs": [
        {
          "internalType": "uint256",
          "name": "length",
          "type": "uint256"
        }
      ],
      "stateMutability": "view",
      "type": "function"
    },
    {
      "inputs": [
        {
          "internalType": "address",
          "name": "userAddress",
          "type": "address"
        },
        {
          "internalType": "uint256",
          "name": "deadline",
          "type": "uint256"
        },
        {
          "internalType": "uint256",
          "name": "mAmount",
          "type": "uint256"
        }
      ],
      "name": "mortgage",
      "outputs": [],
      "stateMutability": "nonpayable",
      "type": "function"
    },
    {
      "inputs": [
        {
          "internalType": "address",
          "name": "newAdmin",
          "type": "address"
        }
      ],
      "name": "setAdmin",
      "outputs": [],
      "stateMutability": "nonpayable",
      "type": "function"
    },
    {
      "inputs": [
        {
          "internalType": "uint256",
          "name": "time",
          "type": "uint256"
        }
      ],
      "name": "setLockTime",
      "outputs": [],
      "stateMutability": "nonpayable",
      "type": "function"
    },
    {
      "inputs": [
        {
          "internalType": "address",
          "name": "",
          "type": "address"
        }
      ],
      "name": "userTotalReceived",
      "outputs": [
        {
          "internalType": "uint256",
          "name": "",
          "type": "uint256"
        }
      ],
      "stateMutability": "view",
      "type": "function"
    },
    {
      "inputs": [
        {
          "internalType": "uint256",
          "name": "amount",
          "type": "uint256"
        }
      ],
      "name": "getRBT",
      "outputs": [],
      "stateMutability": "nonpayable",
      "type": "function"
    }
  ],
  "bytecode": "0x60806040526301e133806003553480156200001957600080fd5b5060405162001878380380620018788339810160408190526200003c91620000ad565b600880546001600160a01b039586166001600160a01b031991821617909155600080549486169482169490941790935560098054928516928416929092179091556002805491909316911617905562000109565b80516001600160a01b0381168114620000a857600080fd5b919050565b60008060008060808587031215620000c3578384fd5b620000ce8562000090565b9350620000de6020860162000090565b9250620000ee6040860162000090565b9150620000fe6060860162000090565b905092959194509250565b61175f80620001196000396000f3fe608060405234801561001057600080fd5b50600436106101425760003560e01c8063704b6c02116100b8578063b1613c051161007c578063b1613c0514610248578063b8feb00c1461025b578063c76f835414610280578063ed037df314610293578063f439ee7e1461029b578063f851a440146102a357610142565b8063704b6c021461020a57806379af25a61461021d5780638909646c146102255780639e7836851461022d578063ae04d45d1461023557610142565b8063509765ae1161010a578063509765ae146101aa5780635716164c146101b2578063573e7b7b146101c55780635c2996ab146101d857806360c8f2f7146101eb57806363e341a2146101f357610142565b806302d15804146101475780631b3e2cc9146101705780631e83cdab146101835780633cf9b1b11461018d57806345f72063146101a2575b600080fd5b61015a6101553660046112bd565b6102ab565b604051610167919061160f565b60405180910390f35b61015a61017e3660046112bd565b6102ca565b61018b6102dc565b005b610195610509565b604051610167919061149f565b610195610518565b610195610527565b61015a6101c0366004611413565b610536565b61018b6101d3366004611413565b61065a565b61018b6101e6366004611332565b6107ba565b61015a61093e565b6101fb610a88565b60405161016793929190611618565b61018b6102183660046112bd565b610c56565b61015a610d06565b610195610d0c565b61015a610d1b565b61018b610243366004611413565b610d21565b61018b610256366004611300565b610da9565b61026e6102693660046112d7565b610e98565b6040516101679695949392919061162e565b61015a61028e3660046112bd565b610eec565b61015a610efe565b61015a610f04565b610195611083565b6001600160a01b0381166000908152600560205260409020545b919050565b60046020526000908152604090205481565b6000806102ee640100000000426116d3565b905060005b336000908152600560205260409020548110156104c95733600090815260056020526040812080548390811061033957634e487b7160e01b600052603260045260246000fd5b90600052602060002090600602016040518060c00160405290816000820154815260200160018201548152602001600282015481526020016003820154815260200160048201548152602001600582015481525050905080600001518363ffffffff16101580156103b3575080602001518363ffffffff16105b156104515760006104026003546103f684600001518763ffffffff166103d991906116a1565b6103fc60056103f66004896040015161109290919063ffffffff16565b906110a5565b90611092565b9050600061042b8360a001516104258560600151856110b190919063ffffffff16565b906110b1565b905061043781876110bd565b9550808360600181815161044b9190611656565b90525050505b80602001518363ffffffff16106104b65760006104918260a00151610425846060015161042560056103f66004896040015161109290919063ffffffff16565b905061049d81866110bd565b945080826060018181516104b19190611656565b905250505b50806104c1816116b8565b9150506102f3565b5033600090815260046020526040812080548492906104e9908490611656565b9091555050600054610505906001600160a01b031633846110c9565b5050565b6000546001600160a01b031681565b6009546001600160a01b031681565b6008546001600160a01b031681565b3360009081526005602052604081208054429183918590811061056957634e487b7160e01b600052603260045260246000fd5b90600052602060002090600602016040518060c00160405290816000820154815260200160018201548152602001600282015481526020016003820154815260200160048201548152602001600582015481525050905060006105f86105db6003548585602001516103f691906116a1565b6103fc60056103f66004876040015161109290919063ffffffff16565b905060006106238360a0015161042585606001516104258688604001516110b190919063ffffffff16565b606084015190915061063590826110bd565b6060840152600054610651906001600160a01b031633836110c9565b95945050505050565b600954604051636fd45fb760e01b815260009182916001600160a01b0390911690636fd45fb79061068f90339060040161149f565b604080518083038186803b1580156106a657600080fd5b505afa1580156106ba573d6000803e3d6000fd5b505050506040513d601f19601f820116820180604052508101906106de9190611443565b60085491935091506106fb906001600160a01b03163330856111b6565b60005461071c906001600160a01b0316336107178460056110a5565b6110c9565b61073361072a8260056110a5565b600a54906110bd565b600a5560075461074390826110bd565b6007553360009081526006602052604081208054839290610765908490611656565b90915550506008546040516001600160a01b0390911690829085907f0caedce831599172dfe59db540c9743cf217772cbeb82b67f7cc1ff68039a896906107ad90339061149f565b60405180910390a4505050565b6002546001600160a01b031633146107ed5760405162461bcd60e51b81526004016107e4906115a0565b60405180910390fd5b6002546001600160a01b031633146108175760405162461bcd60e51b81526004016107e490611548565b60005b815181101561050557600082828151811061084557634e487b7160e01b600052603260045260246000fd5b60200260200101516001600160a01b03166370a08231306040518263ffffffff1660e01b8152600401610878919061149f565b60206040518083038186803b15801561089057600080fd5b505afa1580156108a4573d6000803e3d6000fd5b505050506040513d601f19601f820116820180604052508101906108c8919061142b565b90506108fc8383815181106108ed57634e487b7160e01b600052603260045260246000fd5b602002602001015133836110c9565b6040518190339030907fdd1a0661b3afa263ceb90ee8281d080435497c1df9d5a4720acedc84efd12fe790600090a45080610936816116b8565b91505061081a565b60008080610951640100000000426116d3565b905060005b33600090815260056020526040902054811015610a805733600090815260056020526040812080548390811061099c57634e487b7160e01b600052603260045260246000fd5b90600052602060002090600602016040518060c00160405290816000820154815260200160018201548152602001600282015481526020016003820154815260200160048201548152602001600582015481525050905080600001518363ffffffff1610158015610a16575080602001518363ffffffff16105b15610a6d576000610a3c6003546103f684600001518763ffffffff166103d991906116a1565b9050610a6985610a638361042560056103f66004896040015161109290919063ffffffff16565b906110bd565b9450505b5080610a78816116b8565b915050610956565b509091505090565b6000808080808080610a9f640100000000426116d3565b905060005b33600090815260056020526040902054811015610c4957336000908152600560205260408120805483908110610aea57634e487b7160e01b600052603260045260246000fd5b90600052602060002090600602016040518060c001604052908160008201548152602001600182015481526020016002820154815260200160038201548152602001600482015481526020016005820154815250509050610b588160400151876110bd90919063ffffffff16565b815190965063ffffffff841610801590610b7b575080602001518363ffffffff16105b15610bf1576000610ba16003546103f684600001518763ffffffff166103d991906116a1565b9050610bc685610a638460a001516104258660600151866110b190919063ffffffff16565b9450610bed86610a638361042560056103f66004896040015161109290919063ffffffff16565b9550505b80602001518363ffffffff1610610c3657610c3384610a638360a00151610425856060015161042560056103f660048a6040015161109290919063ffffffff16565b93505b5080610c41816116b8565b915050610aa4565b5092969195509350915050565b6002546001600160a01b03163314610c805760405162461bcd60e51b81526004016107e4906115a0565b6002546001600160a01b03163314610caa5760405162461bcd60e51b81526004016107e4906115a0565b6002546040516001600160a01b038084169216907f38b1065e0d088f6eda3cb9f0efc7bbb9b145907ab0deb0dbfb700d2bb21599e990600090a3600280546001600160a01b0319166001600160a01b0392909216919091179055565b60035481565b6001546001600160a01b031681565b600a5481565b6002546001600160a01b03163314610d4b5760405162461bcd60e51b81526004016107e4906115a0565b6002546001600160a01b03163314610d755760405162461bcd60e51b81526004016107e4906115a0565b6003546040518291907f330ab878145b7defb2c3a805cb0958be15256ca947060a42e7c08a0faa0f22f590600090a3600355565b811580610db65750816003145b80610dc15750816006145b80610dcc575081600c145b80610dd75750816018145b80610de25750816024145b610dfe5760405162461bcd60e51b81526004016107e490611573565b600154604051634ce3696f60e11b81526001600160a01b03909116906399c6d2de90610e32903390869086906004016114f0565b600060405180830381600087803b158015610e4c57600080fd5b505af1158015610e60573d6000803e3d6000fd5b505060405183925084915033907fd6b6177d76c249d38ccb3b9e158a75b9864fd5dcc8d8d499708767ef6ca801f790600090a4505050565b60056020528160005260406000208181548110610eb457600080fd5b600091825260209091206006909102018054600182015460028301546003840154600485015460059095015493965091945092909186565b60066020526000908152604090205481565b60075481565b60008080610f17640100000000426116d3565b905060005b33600090815260056020526040902054811015610a8057336000908152600560205260408120805483908110610f6257634e487b7160e01b600052603260045260246000fd5b90600052602060002090600602016040518060c00160405290816000820154815260200160018201548152602001600282015481526020016003820154815260200160048201548152602001600582015481525050905080600001518363ffffffff1610158015610fdc575080602001518363ffffffff16105b1561102b5760006110026003546103f684600001518763ffffffff166103d991906116a1565b905061102785610a638460a001516104258660600151866110b190919063ffffffff16565b9450505b80602001518363ffffffff16106110705761106d84610a638360a00151610425856060015161042560056103f660048a6040015161109290919063ffffffff16565b93505b508061107b816116b8565b915050610f1c565b6002546001600160a01b031681565b600061109e8284611682565b9392505050565b600061109e828461166e565b600061109e82846116a1565b600061109e8284611656565b600080846001600160a01b031663a9059cbb85856040516024016110ee9291906114d7565b6040516020818303038152906040529060e01b6020820180516001600160e01b0383818316178352505050506040516111279190611466565b6000604051808303816000865af19150503d8060008114611164576040519150601f19603f3d011682016040523d82523d6000602084013e611169565b606091505b509150915081801561119357508051158061119357508080602001905181019061119391906113f3565b6111af5760405162461bcd60e51b81526004016107e490611511565b5050505050565b600080856001600160a01b03166323b872dd8686866040516024016111dd939291906114b3565b6040516020818303038152906040529060e01b6020820180516001600160e01b0383818316178352505050506040516112169190611466565b6000604051808303816000865af19150503d8060008114611253576040519150601f19603f3d011682016040523d82523d6000602084013e611258565b606091505b509150915081801561128257508051158061128257508080602001905181019061128291906113f3565b61129e5760405162461bcd60e51b81526004016107e4906115cb565b505050505050565b80356001600160a01b03811681146102c557600080fd5b6000602082840312156112ce578081fd5b61109e826112a6565b600080604083850312156112e9578081fd5b6112f2836112a6565b946020939093013593505050565b600080600060608486031215611314578081fd5b61131d846112a6565b95602085013595506040909401359392505050565b60006020808385031215611344578182fd5b823567ffffffffffffffff8082111561135b578384fd5b818501915085601f83011261136e578384fd5b81358181111561138057611380611713565b8381026040518582820101818110858211171561139f5761139f611713565b604052828152858101935084860182860187018a10156113bd578788fd5b8795505b838610156113e6576113d2816112a6565b8552600195909501949386019386016113c1565b5098975050505050505050565b600060208284031215611404578081fd5b8151801515811461109e578182fd5b600060208284031215611424578081fd5b5035919050565b60006020828403121561143c578081fd5b5051919050565b60008060408385031215611455578182fd5b505080516020909101519092909150565b60008251815b81811015611486576020818601810151858301520161146c565b818111156114945782828501525b509190910192915050565b6001600160a01b0391909116815260200190565b6001600160a01b039384168152919092166020820152604081019190915260600190565b6001600160a01b03929092168252602082015260400190565b6001600160a01b039390931683526020830191909152604082015260600190565b6020808252601f908201527f5472616e7366657248656c7065723a205452414e534645525f4641494c454400604082015260600190565b6020808252601190820152702cb7ba9030b932903737ba1030b236b4b760791b604082015260600190565b6020808252601390820152722232b837b9b4ba1036b7b73a341032b93937b960691b604082015260600190565b6020808252601190820152703cb7ba9030b932903737ba1030b236b4b760791b604082015260600190565b60208082526024908201527f5472616e7366657248656c7065723a205452414e534645525f46524f4d5f46416040820152631253115160e21b606082015260800190565b90815260200190565b9283526020830191909152604082015260600190565b958652602086019490945260408501929092526060840152608083015260a082015260c00190565b60008219821115611669576116696116e7565b500190565b60008261167d5761167d6116fd565b500490565b600081600019048311821515161561169c5761169c6116e7565b500290565b6000828210156116b3576116b36116e7565b500390565b60006000198214156116cc576116cc6116e7565b5060010190565b6000826116e2576116e26116fd565b500690565b634e487b7160e01b600052601160045260246000fd5b634e487b7160e01b600052601260045260246000fd5b634e487b7160e01b600052604160045260246000fdfea264697066735822122002461e693462ec31423ceab1737edc76504278c2e77715eae58c794fc24c85aa64736f6c63430008000033",
  "immutableReferences": {},
  "source": "pragma solidity =0.8.0;\r\n\r\nimport \"@openzeppelin/contracts/utils/math/SafeMath.sol\";\r\nimport \"../interface/mining/IRbConsensus.sol\";\r\nimport \"@openzeppelin/contracts/token/ERC20/IERC20.sol\";\r\nimport \"../lib/TransferHelper.sol\";\r\nimport \"./MiningBase.sol\";\r\n\r\n//\r\ncontract Rbinvite is MiningBase {\r\n    using SafeMath for uint;//\r\n    //\r\n    mapping(address => uint) public cumuRbt;\r\n    //\r\n    uint public digOutAmount;\r\n    //RBTEX\r\n    address public _RBTEX;\r\n    // \r\n    address public RbConsensus;\r\n    //\r\n    uint public allReceived;\r\n    //\r\n    event PurchaseRecord (address  User , uint indexed tokenAmount , uint indexed rbtAmount ,address indexed tokenAddress );\r\n\r\n    //\r\n    constructor(\r\n        address ex,\r\n        address rbt,\r\n        address rbConsensus,\r\n        address Aadmin\r\n    ) public {\r\n        _RBTEX = ex;\r\n        _Rbt = rbt;\r\n        RbConsensus = rbConsensus;\r\n        admin = Aadmin;\r\n    }\r\n    /*\r\n    *   RBTEX --> RBT \r\n    */\r\n    function getRBT(uint amount) public {\r\n        (uint total,uint examount) = IRbConsensus(RbConsensus).exchangeRatio(msg.sender);\r\n        TransferHelper.safeTransferFrom(_RBTEX, msg.sender, address(this), total);\r\n        TransferHelper.safeTransfer(_Rbt, msg.sender, examount.div(5));\r\n        //\r\n        allReceived = allReceived.add(examount.div(5));\r\n        digOutAmount = digOutAmount.add(examount);\r\n        cumuRbt[msg.sender] += examount;\r\n        emit PurchaseRecord(msg.sender , amount , examount ,_RBTEX );\r\n    }\r\n       \r\n}\r\n",
  "sourcePath": "D://rainbow/RainbowDao-protocol/contracts/mining/Rbinvite.sol",
  "compiler": {
    "name": "solc",
    "version": "0.8.0+commit.c7dfd78e.Emscripten.clang"
  },
  "schemaVersion": "3.4.1",
  "updatedAt": "2021-10-16T03:51:57.638Z",
  "networkType": "ethereum",
  "devdoc": {
    "kind": "dev",
    "methods": {},
    "version": 1
  },
  "userdoc": {
    "kind": "user",
    "methods": {},
    "version": 1
  }
}