{
  "contractName": "RbSeedSubscriptionOrchestrator",
  "abi": [
    {
      "anonymous": false,
      "inputs": [
        {
          "indexed": true,
          "internalType": "address",
          "name": "previousOwner",
          "type": "address"
        },
        {
          "indexed": true,
          "internalType": "address",
          "name": "newOwner",
          "type": "address"
        }
      ],
      "name": "OwnershipTransferred",
      "type": "event"
    },
    {
      "inputs": [],
      "name": "RbSeedSubscriptionAddress",
      "outputs": [
        {
          "internalType": "address",
          "name": "",
          "type": "address"
        }
      ],
      "stateMutability": "view",
      "type": "function",
      "constant": true
    },
    {
      "inputs": [],
      "name": "owner",
      "outputs": [
        {
          "internalType": "address",
          "name": "",
          "type": "address"
        }
      ],
      "stateMutability": "view",
      "type": "function",
      "constant": true
    },
    {
      "inputs": [],
      "name": "renounceOwnership",
      "outputs": [],
      "stateMutability": "nonpayable",
      "type": "function"
    },
    {
      "inputs": [
        {
          "internalType": "address",
          "name": "newOwner",
          "type": "address"
        }
      ],
      "name": "transferOwnership",
      "outputs": [],
      "stateMutability": "nonpayable",
      "type": "function"
    },
    {
      "inputs": [
        {
          "internalType": "address",
          "name": "seed",
          "type": "address"
        }
      ],
      "name": "init",
      "outputs": [
        {
          "internalType": "address",
          "name": "rbseedsubscription",
          "type": "address"
        }
      ],
      "stateMutability": "nonpayable",
      "type": "function"
    }
  ],
  "bytecode": "0x608060405234801561001057600080fd5b5061002161001c610026565b61002a565b61007a565b3390565b600080546001600160a01b038381166001600160a01b0319831681178455604051919092169283917f8be0079c531659141344cd1fd0a4f28419497f9722a3daafe3b4186f6b6457e09190a35050565b612318806100896000396000f3fe608060405234801561001057600080fd5b50600436106100575760003560e01c806319ab453c1461005c578063715018a6146100855780638ac5ee641461008f5780638da5cb5b14610097578063f2fde38b1461009f575b600080fd5b61006f61006a366004610292565b6100b2565b60405161007c91906102c0565b60405180910390f35b61008d610157565b005b61006f6101a2565b61006f6101b1565b61008d6100ad366004610292565b6101c0565b60006100bc610231565b6001600160a01b03166100cd6101b1565b6001600160a01b0316146100fc5760405162461bcd60e51b81526004016100f390610334565b60405180910390fd5b813360405161010a90610285565b6101159291906102d4565b604051809103906000f080158015610131573d6000803e3d6000fd5b50600180546001600160a01b0319166001600160a01b0392909216919091179055919050565b61015f610231565b6001600160a01b03166101706101b1565b6001600160a01b0316146101965760405162461bcd60e51b81526004016100f390610334565b6101a06000610235565b565b6001546001600160a01b031681565b6000546001600160a01b031690565b6101c8610231565b6001600160a01b03166101d96101b1565b6001600160a01b0316146101ff5760405162461bcd60e51b81526004016100f390610334565b6001600160a01b0381166102255760405162461bcd60e51b81526004016100f3906102ee565b61022e81610235565b50565b3390565b600080546001600160a01b038381166001600160a01b0319831681178455604051919092169283917f8be0079c531659141344cd1fd0a4f28419497f9722a3daafe3b4186f6b6457e09190a35050565b611f798061036a83390190565b6000602082840312156102a3578081fd5b81356001600160a01b03811681146102b9578182fd5b9392505050565b6001600160a01b0391909116815260200190565b6001600160a01b0392831681529116602082015260400190565b60208082526026908201527f4f776e61626c653a206e6577206f776e657220697320746865207a65726f206160408201526564647265737360d01b606082015260800190565b6020808252818101527f4f776e61626c653a2063616c6c6572206973206e6f7420746865206f776e657260408201526060019056fe60806040526301e133806003556a18d0bf423c03d8de0000006009556064600d5569d3c21bcecceda1000000600e553480156200003b57600080fd5b5060405162001f7938038062001f798339810160408190526200005e91620000de565b600280546001600160a01b039283166001600160a01b031991821617909155600680549390921692811692909217905569d3c21bcecceda10000006008556007805490911673fceadafab14d46e20144f48824d0c09b1a03f2bc17905562000115565b80516001600160a01b0381168114620000d957600080fd5b919050565b60008060408385031215620000f1578182fd5b620000fc83620000c1565b91506200010c60208401620000c1565b90509250929050565b611e5480620001256000396000f3fe608060405234801561001057600080fd5b50600436106101e55760003560e01c806367e828bf1161010f578063ae04d45d116100a2578063ed037df311610071578063ed037df3146103b2578063f000fc35146103ba578063f439ee7e146103cd578063f851a440146103d5576101e5565b8063ae04d45d1461035f578063b1613c0514610372578063b8feb00c14610385578063e104f3cd146103aa576101e5565b80637d9afe90116100de5780637d9afe901461032957806383f0e4a11461033c5780638909646c1461034f5780638cb2adea14610357576101e5565b806367e828bf146102fe578063704b6c021461030657806379af25a6146103195780637bd7529014610321576101e5565b80633cf9b1b1116101875780635c2996ab116101565780635c2996ab146102d35780635dab2420146102e657806360c8f2f7146102ee57806363e341a2146102f6576101e5565b80633cf9b1b1146102755780634f97149a1461028a578063524f38891461029f5780635716164c146102c0576101e5565b80631b3e2cc9116101c35780631b3e2cc9146102305780631e83cdab14610243578063320051891461024b5780633b23ff9a14610253576101e5565b806302d15804146101ea578063105d86da146102135780631a39d8ef14610228575b600080fd5b6101fd6101f8366004611786565b6103dd565b60405161020a9190611c7e565b60405180910390f35b6102266102213660046118a9565b6103fc565b005b6101fd610442565b6101fd61023e366004611786565b610448565b61022661045a565b6101fd610687565b6102666102613660046117a0565b61068d565b60405161020a93929190611c87565b61027d6106cf565b60405161020a91906119ef565b6102926106de565b60405161020a9190611aa3565b6102b26102ad3660046118e1565b6106e7565b60405161020a929190611cc5565b6101fd6102ce36600461191c565b610788565b6102266102e13660046117fb565b6108ac565b6101fd610a27565b6101fd610a2d565b610266610b77565b61027d610d45565b610226610314366004611786565b610d54565b6101fd610e04565b6101fd610e0a565b61022661033736600461194c565b610e1d565b61029261034a366004611786565b611020565b61027d611035565b61027d611044565b61022661036d36600461191c565b611053565b6102266103803660046117c9565b6110db565b6103986103933660046117a0565b6111ca565b60405161020a96959493929190611c9d565b6101fd61121e565b6101fd611224565b6102266103c83660046117fb565b61122a565b6101fd61134a565b61027d6114c9565b6001600160a01b0381166000908152600560205260409020545b919050565b6002546001600160a01b0316331461042f5760405162461bcd60e51b815260040161042690611c0f565b60405180910390fd5b600f805460ff1916911515919091179055565b60095481565b60046020526000908152604090205481565b60008061046c64010000000042611db7565b905060005b33600090815260056020526040902054811015610647573360009081526005602052604081208054839081106104b757634e487b7160e01b600052603260045260246000fd5b90600052602060002090600602016040518060c00160405290816000820154815260200160018201548152602001600282015481526020016003820154815260200160048201548152602001600582015481525050905080600001518363ffffffff1610158015610531575080602001518363ffffffff16105b156105cf57600061058060035461057484600001518763ffffffff166105579190611d55565b61057a6005610574600489604001516114d890919063ffffffff16565b906114eb565b906114d8565b905060006105a98360a001516105a38560600151856114f790919063ffffffff16565b906114f7565b90506105b58187611503565b955080836060018181516105c99190611d0a565b90525050505b80602001518363ffffffff161061063457600061060f8260a001516105a384606001516105a36005610574600489604001516114d890919063ffffffff16565b905061061b8186611503565b9450808260600181815161062f9190611d0a565b905250505b508061063f81611d9c565b915050610471565b503360009081526004602052604081208054849290610667908490611d0a565b9091555050600054610683906001600160a01b0316338461150f565b5050565b600d5481565b600c60205281600052604060002081815481106106a957600080fd5b600091825260209091206003909102018054600182015460029092015490935090915083565b6000546001600160a01b031681565b600f5460ff1681565b60075460405163fc2525ab60e01b8152600091829172c4770d3feb38ad07f879abd96619fbdeb005209163fc2525ab9161072f916001600160a01b0316908790600401611a27565b604080518083038186803b15801561074657600080fd5b505afa15801561075a573d6000803e3d6000fd5b505050506040513d601f19601f8201168201806040525081019061077e91906119a1565b9094909350915050565b336000908152600560205260408120805442918391859081106107bb57634e487b7160e01b600052603260045260246000fd5b90600052602060002090600602016040518060c001604052908160008201548152602001600182015481526020016002820154815260200160038201548152602001600482015481526020016005820154815250509050600061084a61082d6003548585602001516105749190611d55565b61057a6005610574600487604001516114d890919063ffffffff16565b905060006108758360a001516105a385606001516105a38688604001516114f790919063ffffffff16565b60608401519091506108879082611503565b60608401526000546108a3906001600160a01b0316338361150f565b95945050505050565b6002546001600160a01b031633146108d65760405162461bcd60e51b815260040161042690611c0f565b6002546001600160a01b031633146109005760405162461bcd60e51b815260040161042690611b00565b60005b815181101561068357600082828151811061092e57634e487b7160e01b600052603260045260246000fd5b60200260200101516001600160a01b03166370a08231306040518263ffffffff1660e01b815260040161096191906119ef565b60206040518083038186803b15801561097957600080fd5b505afa15801561098d573d6000803e3d6000fd5b505050506040513d601f19601f820116820180604052508101906109b19190611934565b90506109e58383815181106109d657634e487b7160e01b600052603260045260246000fd5b6020026020010151338361150f565b6040518190339030907fdd1a0661b3afa263ceb90ee8281d080435497c1df9d5a4720acedc84efd12fe790600090a45080610a1f81611d9c565b915050610903565b600e5481565b60008080610a4064010000000042611db7565b905060005b33600090815260056020526040902054811015610b6f57336000908152600560205260408120805483908110610a8b57634e487b7160e01b600052603260045260246000fd5b90600052602060002090600602016040518060c00160405290816000820154815260200160018201548152602001600282015481526020016003820154815260200160048201548152602001600582015481525050905080600001518363ffffffff1610158015610b05575080602001518363ffffffff16105b15610b5c576000610b2b60035461057484600001518763ffffffff166105579190611d55565b9050610b5885610b52836105a36005610574600489604001516114d890919063ffffffff16565b90611503565b9450505b5080610b6781611d9c565b915050610a45565b509091505090565b6000808080808080610b8e64010000000042611db7565b905060005b33600090815260056020526040902054811015610d3857336000908152600560205260408120805483908110610bd957634e487b7160e01b600052603260045260246000fd5b90600052602060002090600602016040518060c001604052908160008201548152602001600182015481526020016002820154815260200160038201548152602001600482015481526020016005820154815250509050610c4781604001518761150390919063ffffffff16565b815190965063ffffffff841610801590610c6a575080602001518363ffffffff16105b15610ce0576000610c9060035461057484600001518763ffffffff166105579190611d55565b9050610cb585610b528460a001516105a38660600151866114f790919063ffffffff16565b9450610cdc86610b52836105a36005610574600489604001516114d890919063ffffffff16565b9550505b80602001518363ffffffff1610610d2557610d2284610b528360a001516105a385606001516105a3600561057460048a604001516114d890919063ffffffff16565b93505b5080610d3081611d9c565b915050610b93565b5092969195509350915050565b6007546001600160a01b031681565b6002546001600160a01b03163314610d7e5760405162461bcd60e51b815260040161042690611c0f565b6002546001600160a01b03163314610da85760405162461bcd60e51b815260040161042690611c0f565b6002546040516001600160a01b038084169216907f38b1065e0d088f6eda3cb9f0efc7bbb9b145907ab0deb0dbfb700d2bb21599e990600090a3600280546001600160a01b0319166001600160a01b0392909216919091179055565b60035481565b336000908152600c602052604090205490565b6001600160a01b0381166000908152600b602052604090205460ff161515600114610e5a5760405162461bcd60e51b815260040161042690611b2b565b60008311610e7a5760405162461bcd60e51b815260040161042690611bb5565b600083600854610e8a9190611d55565b1015610ea85760405162461bcd60e51b815260040161042690611be0565b6001600160a01b038116610ece5760405162461bcd60e51b815260040161042690611b85565b600d54600090610ee490610574866103e86114d8565b9050610ef2823330876115fc565b600654610f09906001600160a01b0316338361150f565b600d54610f2990610f2090610574876103e86114d8565b600e54906114f7565b600e55600854610f3990856114f7565b600890815560408051606081018252600d548152426020808301918252828401898152336000908152600c8352948520805460018181018355918752929095208451600390930201918255915193810193909355516002909201919091559054610fd657600d54610fab90600a611503565b600d5569d3c21bcecceda1000000600881905560098054600090610fd0908490611d55565b90915550505b826001600160a01b031682867f0caedce831599172dfe59db540c9743cf217772cbeb82b67f7cc1ff68039a8963360405161101191906119ef565b60405180910390a45050505050565b600b6020526000908152604090205460ff1681565b6001546001600160a01b031681565b6006546001600160a01b031681565b6002546001600160a01b0316331461107d5760405162461bcd60e51b815260040161042690611c0f565b6002546001600160a01b031633146110a75760405162461bcd60e51b815260040161042690611c0f565b6003546040518291907f330ab878145b7defb2c3a805cb0958be15256ca947060a42e7c08a0faa0f22f590600090a3600355565b8115806110e85750816003145b806110f35750816006145b806110fe575081600c145b806111095750816018145b806111145750816024145b6111305760405162461bcd60e51b815260040161042690611b58565b600154604051634ce3696f60e11b81526001600160a01b03909116906399c6d2de9061116490339086908690600401611a82565b600060405180830381600087803b15801561117e57600080fd5b505af1158015611192573d6000803e3d6000fd5b505060405183925084915033907fd6b6177d76c249d38ccb3b9e158a75b9864fd5dcc8d8d499708767ef6ca801f790600090a4505050565b600560205281600052604060002081815481106111e657600080fd5b600091825260209091206006909102018054600182015460028301546003840154600485015460059095015493965091945092909186565b60085481565b600a5481565b6002546001600160a01b031633146112545760405162461bcd60e51b815260040161042690611c0f565b600f5460ff16156112775760405162461bcd60e51b815260040161042690611aae565b60005b815181101561068357600b60008383815181106112a757634e487b7160e01b600052603260045260246000fd5b6020908102919091018101516001600160a01b031682528101919091526040016000205460ff16611338576001600b60008484815181106112f857634e487b7160e01b600052603260045260246000fd5b60200260200101516001600160a01b03166001600160a01b0316815260200190815260200160002060006101000a81548160ff0219169083151502179055505b8061134281611d9c565b91505061127a565b6000808061135d64010000000042611db7565b905060005b33600090815260056020526040902054811015610b6f573360009081526005602052604081208054839081106113a857634e487b7160e01b600052603260045260246000fd5b90600052602060002090600602016040518060c00160405290816000820154815260200160018201548152602001600282015481526020016003820154815260200160048201548152602001600582015481525050905080600001518363ffffffff1610158015611422575080602001518363ffffffff16105b1561147157600061144860035461057484600001518763ffffffff166105579190611d55565b905061146d85610b528460a001516105a38660600151866114f790919063ffffffff16565b9450505b80602001518363ffffffff16106114b6576114b384610b528360a001516105a385606001516105a3600561057460048a604001516114d890919063ffffffff16565b93505b50806114c181611d9c565b915050611362565b6002546001600160a01b031681565b60006114e48284611d36565b9392505050565b60006114e48284611d22565b60006114e48284611d55565b60006114e48284611d0a565b600080846001600160a01b031663a9059cbb8585604051602401611534929190611a69565b6040516020818303038152906040529060e01b6020820180516001600160e01b03838183161783525050505060405161156d91906119d3565b6000604051808303816000865af19150503d80600081146115aa576040519150601f19603f3d011682016040523d82523d6000602084013e6115af565b606091505b50915091508180156115d95750805115806115d95750808060200190518101906115d991906118c5565b6115f55760405162461bcd60e51b815260040161042690611ac9565b5050505050565b600080856001600160a01b03166323b872dd86868660405160240161162393929190611a03565b6040516020818303038152906040529060e01b6020820180516001600160e01b03838183161783525050505060405161165c91906119d3565b6000604051808303816000865af19150503d8060008114611699576040519150601f19603f3d011682016040523d82523d6000602084013e61169e565b606091505b50915091508180156116c85750805115806116c85750808060200190518101906116c891906118c5565b6116e45760405162461bcd60e51b815260040161042690611c3a565b505050505050565b80356001600160a01b03811681146103f757600080fd5b600082601f830112611713578081fd5b813567ffffffffffffffff81111561172d5761172d611df7565b611740601f8201601f1916602001611ce0565b818152846020838601011115611754578283fd5b816020850160208301379081016020019190915292915050565b805167ffffffffffffffff811681146103f757600080fd5b600060208284031215611797578081fd5b6114e4826116ec565b600080604083850312156117b2578081fd5b6117bb836116ec565b946020939093013593505050565b6000806000606084860312156117dd578081fd5b6117e6846116ec565b95602085013595506040909401359392505050565b6000602080838503121561180d578182fd5b823567ffffffffffffffff80821115611824578384fd5b818501915085601f830112611837578384fd5b81358181111561184957611849611df7565b8381029150611859848301611ce0565b8181528481019084860184860187018a1015611873578788fd5b8795505b8386101561189c57611888816116ec565b835260019590950194918601918601611877565b5098975050505050505050565b6000602082840312156118ba578081fd5b81356114e481611e0d565b6000602082840312156118d6578081fd5b81516114e481611e0d565b6000602082840312156118f2578081fd5b813567ffffffffffffffff811115611908578182fd5b61191484828501611703565b949350505050565b60006020828403121561192d578081fd5b5035919050565b600060208284031215611945578081fd5b5051919050565b600080600060608486031215611960578283fd5b83359250602084013567ffffffffffffffff81111561197d578283fd5b61198986828701611703565b925050611998604085016116ec565b90509250925092565b600080604083850312156119b3578182fd5b6119bc8361176e565b91506119ca6020840161176e565b90509250929050565b600082516119e5818460208701611d6c565b9190910192915050565b6001600160a01b0391909116815260200190565b6001600160a01b039384168152919092166020820152604081019190915260600190565b600060018060a01b0384168252604060208301528251806040840152611a54816060850160208701611d6c565b601f01601f1916919091016060019392505050565b6001600160a01b03929092168252602082015260400190565b6001600160a01b039390931683526020830191909152604082015260600190565b901515815260200190565b6020808252600190820152600360fc1b604082015260600190565b6020808252601f908201527f5472616e7366657248656c7065723a205452414e534645525f4641494c454400604082015260600190565b6020808252601190820152702cb7ba9030b932903737ba1030b236b4b760791b604082015260600190565b60208082526013908201527274686520746f6b656e206e6f7420616c6c6f7760681b604082015260600190565b6020808252601390820152722232b837b9b4ba1036b7b73a341032b93937b960691b604082015260600190565b602080825260169082015275746f6b656e206973206e6f742030206164647265737360501b604082015260600190565b60208082526011908201527034b7383aba10383934b1b29032b93937b960791b604082015260600190565b6020808252601590820152740a484a8a68a8a8840d2e640dcdee840cadcdeeaced605b1b604082015260600190565b6020808252601190820152703cb7ba9030b932903737ba1030b236b4b760791b604082015260600190565b60208082526024908201527f5472616e7366657248656c7065723a205452414e534645525f46524f4d5f46416040820152631253115160e21b606082015260800190565b90815260200190565b9283526020830191909152604082015260600190565b958652602086019490945260408501929092526060840152608083015260a082015260c00190565b67ffffffffffffffff92831681529116602082015260400190565b60405181810167ffffffffffffffff81118282101715611d0257611d02611df7565b604052919050565b60008219821115611d1d57611d1d611dcb565b500190565b600082611d3157611d31611de1565b500490565b6000816000190483118215151615611d5057611d50611dcb565b500290565b600082821015611d6757611d67611dcb565b500390565b60005b83811015611d87578181015183820152602001611d6f565b83811115611d96576000848401525b50505050565b6000600019821415611db057611db0611dcb565b5060010190565b600082611dc657611dc6611de1565b500690565b634e487b7160e01b600052601160045260246000fd5b634e487b7160e01b600052601260045260246000fd5b634e487b7160e01b600052604160045260246000fd5b8015158114611e1b57600080fd5b5056fea26469706673582212208f1030ed896bd2e4d96d324c17795b44e67b59ee2c2914491277d4198738098664736f6c63430008000033a2646970667358221220903b67d91181cc4ad89b34a7c2780dfdaa1c9d909ec8e679aadac4f139ac3b2764736f6c63430008000033",
  "immutableReferences": {},
  "source": "pragma solidity =0.8.0;\r\n\r\nimport \"@openzeppelin/contracts/access/Ownable.sol\";\r\nimport \"../mining/RbSeedSubscription.sol\";\r\n\r\ncontract RbSeedSubscriptionOrchestrator is Ownable {\r\n    address public RbSeedSubscriptionAddress;\r\n\r\n    function init(\r\n        address seed\r\n    ) public\r\n    onlyOwner\r\n    returns (address rbseedsubscription)\r\n    {\r\n        RbSeedSubscriptionAddress = address(\r\n            new RbSeedSubscription(seed,msg.sender)\r\n\r\n        );\r\n\r\n    }\r\n}",
  "sourcePath": "D://rainbow/RainbowDao-protocol/contracts/orchestrator/RbSeedSubscriptionOrchestrator.sol",
  "compiler": {
    "name": "solc",
    "version": "0.8.0+commit.c7dfd78e.Emscripten.clang"
  },
  "schemaVersion": "3.4.1",
  "updatedAt": "2021-10-16T03:51:57.606Z",
  "networkType": "ethereum",
  "devdoc": {
    "kind": "dev",
    "methods": {
      "owner()": {
        "details": "Returns the address of the current owner."
      },
      "renounceOwnership()": {
        "details": "Leaves the contract without owner. It will not be possible to call `onlyOwner` functions anymore. Can only be called by the current owner. NOTE: Renouncing ownership will leave the contract without an owner, thereby removing any functionality that is only available to the owner."
      },
      "transferOwnership(address)": {
        "details": "Transfers ownership of the contract to a new account (`newOwner`). Can only be called by the current owner."
      }
    },
    "version": 1
  },
  "userdoc": {
    "kind": "user",
    "methods": {},
    "version": 1
  }
}