{
  "contractName": "RbSeedExchange",
  "abi": [
    {
      "inputs": [
        {
          "internalType": "address",
          "name": "seed",
          "type": "address"
        },
        {
          "internalType": "address",
          "name": "rbt",
          "type": "address"
        },
        {
          "internalType": "address",
          "name": "Aadmin",
          "type": "address"
        }
      ],
      "stateMutability": "nonpayable",
      "type": "constructor"
    },
    {
      "anonymous": false,
      "inputs": [
        {
          "indexed": true,
          "internalType": "address",
          "name": "Admin",
          "type": "address"
        },
        {
          "indexed": true,
          "internalType": "address",
          "name": "newAdmin",
          "type": "address"
        }
      ],
      "name": "AdminChange",
      "type": "event"
    },
    {
      "anonymous": false,
      "inputs": [
        {
          "indexed": true,
          "internalType": "address",
          "name": "Mining",
          "type": "address"
        },
        {
          "indexed": true,
          "internalType": "address",
          "name": "Admin",
          "type": "address"
        },
        {
          "indexed": true,
          "internalType": "uint256",
          "name": "value",
          "type": "uint256"
        }
      ],
      "name": "AdminTakeValue",
      "type": "event"
    },
    {
      "anonymous": false,
      "inputs": [
        {
          "indexed": true,
          "internalType": "uint256",
          "name": "time",
          "type": "uint256"
        },
        {
          "indexed": true,
          "internalType": "uint256",
          "name": "timechange",
          "type": "uint256"
        }
      ],
      "name": "LockTimeRecord",
      "type": "event"
    },
    {
      "anonymous": false,
      "inputs": [
        {
          "indexed": true,
          "internalType": "address",
          "name": "userAddress",
          "type": "address"
        },
        {
          "indexed": true,
          "internalType": "uint256",
          "name": "month",
          "type": "uint256"
        },
        {
          "indexed": true,
          "internalType": "uint256",
          "name": "mortgageAmount",
          "type": "uint256"
        }
      ],
      "name": "MortgageValueAmount",
      "type": "event"
    },
    {
      "anonymous": false,
      "inputs": [
        {
          "indexed": false,
          "internalType": "address",
          "name": "User",
          "type": "address"
        },
        {
          "indexed": true,
          "internalType": "uint256",
          "name": "tokenAmount",
          "type": "uint256"
        },
        {
          "indexed": true,
          "internalType": "uint256",
          "name": "rbtAmount",
          "type": "uint256"
        },
        {
          "indexed": true,
          "internalType": "address",
          "name": "tokenAddress",
          "type": "address"
        }
      ],
      "name": "PurchaseRecord",
      "type": "event"
    },
    {
      "inputs": [],
      "name": "_Rbt",
      "outputs": [
        {
          "internalType": "address",
          "name": "",
          "type": "address"
        }
      ],
      "stateMutability": "view",
      "type": "function"
    },
    {
      "inputs": [],
      "name": "_bank_Address",
      "outputs": [
        {
          "internalType": "address",
          "name": "",
          "type": "address"
        }
      ],
      "stateMutability": "view",
      "type": "function"
    },
    {
      "inputs": [],
      "name": "_lockTime",
      "outputs": [
        {
          "internalType": "uint256",
          "name": "",
          "type": "uint256"
        }
      ],
      "stateMutability": "view",
      "type": "function"
    },
    {
      "inputs": [],
      "name": "admin",
      "outputs": [
        {
          "internalType": "address",
          "name": "",
          "type": "address"
        }
      ],
      "stateMutability": "view",
      "type": "function"
    },
    {
      "inputs": [],
      "name": "allReceived",
      "outputs": [
        {
          "internalType": "uint256",
          "name": "",
          "type": "uint256"
        }
      ],
      "stateMutability": "view",
      "type": "function"
    },
    {
      "inputs": [],
      "name": "digOutAmount",
      "outputs": [
        {
          "internalType": "uint256",
          "name": "",
          "type": "uint256"
        }
      ],
      "stateMutability": "view",
      "type": "function"
    },
    {
      "inputs": [],
      "name": "exchangeRate",
      "outputs": [
        {
          "internalType": "uint256",
          "name": "",
          "type": "uint256"
        }
      ],
      "stateMutability": "view",
      "type": "function"
    },
    {
      "inputs": [],
      "name": "extract",
      "outputs": [],
      "stateMutability": "nonpayable",
      "type": "function"
    },
    {
      "inputs": [
        {
          "internalType": "uint256",
          "name": "index",
          "type": "uint256"
        }
      ],
      "name": "extractOne",
      "outputs": [
        {
          "internalType": "uint256",
          "name": "",
          "type": "uint256"
        }
      ],
      "stateMutability": "nonpayable",
      "type": "function"
    },
    {
      "inputs": [],
      "name": "getRbtRecord",
      "outputs": [
        {
          "internalType": "uint256",
          "name": "",
          "type": "uint256"
        },
        {
          "internalType": "uint256",
          "name": "",
          "type": "uint256"
        },
        {
          "internalType": "uint256",
          "name": "",
          "type": "uint256"
        }
      ],
      "stateMutability": "view",
      "type": "function"
    },
    {
      "inputs": [],
      "name": "getUserExtractable",
      "outputs": [
        {
          "internalType": "uint256",
          "name": "",
          "type": "uint256"
        }
      ],
      "stateMutability": "view",
      "type": "function"
    },
    {
      "inputs": [],
      "name": "getUserLockNum",
      "outputs": [
        {
          "internalType": "uint256",
          "name": "",
          "type": "uint256"
        }
      ],
      "stateMutability": "view",
      "type": "function"
    },
    {
      "inputs": [
        {
          "internalType": "address[]",
          "name": "tokenArr",
          "type": "address[]"
        }
      ],
      "name": "getValue",
      "outputs": [],
      "stateMutability": "nonpayable",
      "type": "function"
    },
    {
      "inputs": [
        {
          "internalType": "address",
          "name": "",
          "type": "address"
        },
        {
          "internalType": "uint256",
          "name": "",
          "type": "uint256"
        }
      ],
      "name": "lockUpTotal",
      "outputs": [
        {
          "internalType": "uint256",
          "name": "startTime",
          "type": "uint256"
        },
        {
          "internalType": "uint256",
          "name": "endTime",
          "type": "uint256"
        },
        {
          "internalType": "uint256",
          "name": "amount",
          "type": "uint256"
        },
        {
          "internalType": "uint256",
          "name": "extracted",
          "type": "uint256"
        },
        {
          "internalType": "uint256",
          "name": "price",
          "type": "uint256"
        },
        {
          "internalType": "uint256",
          "name": "mortgage",
          "type": "uint256"
        }
      ],
      "stateMutability": "view",
      "type": "function"
    },
    {
      "inputs": [
        {
          "internalType": "address",
          "name": "userAddress",
          "type": "address"
        }
      ],
      "name": "lockUpTotalLength",
      "outputs": [
        {
          "internalType": "uint256",
          "name": "length",
          "type": "uint256"
        }
      ],
      "stateMutability": "view",
      "type": "function"
    },
    {
      "inputs": [
        {
          "internalType": "address",
          "name": "userAddress",
          "type": "address"
        },
        {
          "internalType": "uint256",
          "name": "deadline",
          "type": "uint256"
        },
        {
          "internalType": "uint256",
          "name": "mAmount",
          "type": "uint256"
        }
      ],
      "name": "mortgage",
      "outputs": [],
      "stateMutability": "nonpayable",
      "type": "function"
    },
    {
      "inputs": [
        {
          "internalType": "address",
          "name": "newAdmin",
          "type": "address"
        }
      ],
      "name": "setAdmin",
      "outputs": [],
      "stateMutability": "nonpayable",
      "type": "function"
    },
    {
      "inputs": [
        {
          "internalType": "uint256",
          "name": "time",
          "type": "uint256"
        }
      ],
      "name": "setLockTime",
      "outputs": [],
      "stateMutability": "nonpayable",
      "type": "function"
    },
    {
      "inputs": [
        {
          "internalType": "address",
          "name": "",
          "type": "address"
        }
      ],
      "name": "userTotalReceived",
      "outputs": [
        {
          "internalType": "uint256",
          "name": "",
          "type": "uint256"
        }
      ],
      "stateMutability": "view",
      "type": "function"
    },
    {
      "inputs": [
        {
          "internalType": "uint256",
          "name": "rate",
          "type": "uint256"
        }
      ],
      "name": "setExchangeRate",
      "outputs": [],
      "stateMutability": "nonpayable",
      "type": "function"
    },
    {
      "inputs": [
        {
          "internalType": "uint256",
          "name": "value",
          "type": "uint256"
        }
      ],
      "name": "exchange",
      "outputs": [],
      "stateMutability": "nonpayable",
      "type": "function"
    }
  ],
  "bytecode": "0x60806040526301e133806003553480156200001957600080fd5b506040516200181c3803806200181c8339810160408190526200003c916200009c565b600880546001600160a01b039485166001600160a01b031991821617909155600080549385169382169390931790925560028054919093169116179055620000e5565b80516001600160a01b03811681146200009757600080fd5b919050565b600080600060608486031215620000b1578283fd5b620000bc846200007f565b9250620000cc602085016200007f565b9150620000dc604085016200007f565b90509250925092565b61172780620000f56000396000f3fe608060405234801561001057600080fd5b50600436106101375760003560e01c8063704b6c02116100b8578063b1613c051161007c578063b1613c0514610235578063b8feb00c14610248578063db068e0e1461026d578063ed037df314610280578063f439ee7e14610288578063f851a4401461029057610137565b8063704b6c02146101f757806379af25a61461020a5780638909646c146102125780639e7836851461021a578063ae04d45d1461022257610137565b806353556559116100ff578063535565591461019f5780635716164c146101b25780635c2996ab146101c557806360c8f2f7146101d857806363e341a2146101e057610137565b806302d158041461013c5780631b3e2cc9146101655780631e83cdab146101785780633ba0b9a9146101825780633cf9b1b11461018a575b600080fd5b61014f61014a3660046112a8565b610298565b60405161015c91906115d7565b60405180910390f35b61014f6101733660046112a8565b6102b7565b6101806102c9565b005b61014f6104f6565b6101926104fc565b60405161015c9190611467565b6101806101ad3660046113fe565b61050b565b61014f6101c03660046113fe565b610664565b6101806101d336600461131d565b610788565b61014f61090c565b6101e8610a56565b60405161015c939291906115e0565b6101806102053660046112a8565b610c24565b61014f610cd4565b610192610cda565b61014f610ce9565b6101806102303660046113fe565b610cef565b6101806102433660046112eb565b610d77565b61025b6102563660046112c2565b610e66565b60405161015c969594939291906115f6565b61018061027b3660046113fe565b610eba565b61014f610ee9565b61014f610eef565b61019261106e565b6001600160a01b0381166000908152600560205260409020545b919050565b60046020526000908152604090205481565b6000806102db6401000000004261169b565b905060005b336000908152600560205260409020548110156104b65733600090815260056020526040812080548390811061032657634e487b7160e01b600052603260045260246000fd5b90600052602060002090600602016040518060c00160405290816000820154815260200160018201548152602001600282015481526020016003820154815260200160048201548152602001600582015481525050905080600001518363ffffffff16101580156103a0575080602001518363ffffffff16105b1561043e5760006103ef6003546103e384600001518763ffffffff166103c69190611669565b6103e960056103e36004896040015161107d90919063ffffffff16565b90611090565b9061107d565b905060006104188360a0015161041285606001518561109c90919063ffffffff16565b9061109c565b905061042481876110a8565b95508083606001818151610438919061161e565b90525050505b80602001518363ffffffff16106104a357600061047e8260a00151610412846060015161041260056103e36004896040015161107d90919063ffffffff16565b905061048a81866110a8565b9450808260600181815161049e919061161e565b905250505b50806104ae81611680565b9150506102e0565b5033600090815260046020526040812080548492906104d690849061161e565b90915550506000546104f2906001600160a01b031633846110b4565b5050565b60095481565b6000546001600160a01b031681565b600854610523906001600160a01b03163330846111a1565b600054610544906001600160a01b03163361053f846005611090565b6110b4565b600042905060006040518060c001604052808381526020016003548461056a919061161e565b81526020016009548561057d9190611669565b81526000602080830182905260095460408085019190915260609384018390523383526005808352818420805460018181018355918652948490208751600690960201948555928601519284019290925584015160028301559183015160038201556080830151600482015560a083015191015560075490915061060190846110a8565b60075560065461061190846110a8565b6006556008546040516001600160a01b0390911690849081907f0caedce831599172dfe59db540c9743cf217772cbeb82b67f7cc1ff68039a89690610657903390611467565b60405180910390a4505050565b3360009081526005602052604081208054429183918590811061069757634e487b7160e01b600052603260045260246000fd5b90600052602060002090600602016040518060c00160405290816000820154815260200160018201548152602001600282015481526020016003820154815260200160048201548152602001600582015481525050905060006107266107096003548585602001516103e39190611669565b6103e960056103e36004876040015161107d90919063ffffffff16565b905060006107518360a00151610412856060015161041286886040015161109c90919063ffffffff16565b606084015190915061076390826110a8565b606084015260005461077f906001600160a01b031633836110b4565b95945050505050565b6002546001600160a01b031633146107bb5760405162461bcd60e51b81526004016107b290611568565b60405180910390fd5b6002546001600160a01b031633146107e55760405162461bcd60e51b81526004016107b290611510565b60005b81518110156104f257600082828151811061081357634e487b7160e01b600052603260045260246000fd5b60200260200101516001600160a01b03166370a08231306040518263ffffffff1660e01b81526004016108469190611467565b60206040518083038186803b15801561085e57600080fd5b505afa158015610872573d6000803e3d6000fd5b505050506040513d601f19601f820116820180604052508101906108969190611416565b90506108ca8383815181106108bb57634e487b7160e01b600052603260045260246000fd5b602002602001015133836110b4565b6040518190339030907fdd1a0661b3afa263ceb90ee8281d080435497c1df9d5a4720acedc84efd12fe790600090a4508061090481611680565b9150506107e8565b6000808061091f6401000000004261169b565b905060005b33600090815260056020526040902054811015610a4e5733600090815260056020526040812080548390811061096a57634e487b7160e01b600052603260045260246000fd5b90600052602060002090600602016040518060c00160405290816000820154815260200160018201548152602001600282015481526020016003820154815260200160048201548152602001600582015481525050905080600001518363ffffffff16101580156109e4575080602001518363ffffffff16105b15610a3b576000610a0a6003546103e384600001518763ffffffff166103c69190611669565b9050610a3785610a318361041260056103e36004896040015161107d90919063ffffffff16565b906110a8565b9450505b5080610a4681611680565b915050610924565b509091505090565b6000808080808080610a6d6401000000004261169b565b905060005b33600090815260056020526040902054811015610c1757336000908152600560205260408120805483908110610ab857634e487b7160e01b600052603260045260246000fd5b90600052602060002090600602016040518060c001604052908160008201548152602001600182015481526020016002820154815260200160038201548152602001600482015481526020016005820154815250509050610b268160400151876110a890919063ffffffff16565b815190965063ffffffff841610801590610b49575080602001518363ffffffff16105b15610bbf576000610b6f6003546103e384600001518763ffffffff166103c69190611669565b9050610b9485610a318460a0015161041286606001518661109c90919063ffffffff16565b9450610bbb86610a318361041260056103e36004896040015161107d90919063ffffffff16565b9550505b80602001518363ffffffff1610610c0457610c0184610a318360a00151610412856060015161041260056103e360048a6040015161107d90919063ffffffff16565b93505b5080610c0f81611680565b915050610a72565b5092969195509350915050565b6002546001600160a01b03163314610c4e5760405162461bcd60e51b81526004016107b290611568565b6002546001600160a01b03163314610c785760405162461bcd60e51b81526004016107b290611568565b6002546040516001600160a01b038084169216907f38b1065e0d088f6eda3cb9f0efc7bbb9b145907ab0deb0dbfb700d2bb21599e990600090a3600280546001600160a01b0319166001600160a01b0392909216919091179055565b60035481565b6001546001600160a01b031681565b60075481565b6002546001600160a01b03163314610d195760405162461bcd60e51b81526004016107b290611568565b6002546001600160a01b03163314610d435760405162461bcd60e51b81526004016107b290611568565b6003546040518291907f330ab878145b7defb2c3a805cb0958be15256ca947060a42e7c08a0faa0f22f590600090a3600355565b811580610d845750816003145b80610d8f5750816006145b80610d9a575081600c145b80610da55750816018145b80610db05750816024145b610dcc5760405162461bcd60e51b81526004016107b29061153b565b600154604051634ce3696f60e11b81526001600160a01b03909116906399c6d2de90610e00903390869086906004016114b8565b600060405180830381600087803b158015610e1a57600080fd5b505af1158015610e2e573d6000803e3d6000fd5b505060405183925084915033907fd6b6177d76c249d38ccb3b9e158a75b9864fd5dcc8d8d499708767ef6ca801f790600090a4505050565b60056020528160005260406000208181548110610e8257600080fd5b600091825260209091206006909102018054600182015460028301546003840154600485015460059095015493965091945092909186565b6002546001600160a01b03163314610ee45760405162461bcd60e51b81526004016107b290611568565b600955565b60065481565b60008080610f026401000000004261169b565b905060005b33600090815260056020526040902054811015610a4e57336000908152600560205260408120805483908110610f4d57634e487b7160e01b600052603260045260246000fd5b90600052602060002090600602016040518060c00160405290816000820154815260200160018201548152602001600282015481526020016003820154815260200160048201548152602001600582015481525050905080600001518363ffffffff1610158015610fc7575080602001518363ffffffff16105b15611016576000610fed6003546103e384600001518763ffffffff166103c69190611669565b905061101285610a318460a0015161041286606001518661109c90919063ffffffff16565b9450505b80602001518363ffffffff161061105b5761105884610a318360a00151610412856060015161041260056103e360048a6040015161107d90919063ffffffff16565b93505b508061106681611680565b915050610f07565b6002546001600160a01b031681565b6000611089828461164a565b9392505050565b60006110898284611636565b60006110898284611669565b6000611089828461161e565b600080846001600160a01b031663a9059cbb85856040516024016110d992919061149f565b6040516020818303038152906040529060e01b6020820180516001600160e01b038381831617835250505050604051611112919061142e565b6000604051808303816000865af19150503d806000811461114f576040519150601f19603f3d011682016040523d82523d6000602084013e611154565b606091505b509150915081801561117e57508051158061117e57508080602001905181019061117e91906113de565b61119a5760405162461bcd60e51b81526004016107b2906114d9565b5050505050565b600080856001600160a01b03166323b872dd8686866040516024016111c89392919061147b565b6040516020818303038152906040529060e01b6020820180516001600160e01b038381831617835250505050604051611201919061142e565b6000604051808303816000865af19150503d806000811461123e576040519150601f19603f3d011682016040523d82523d6000602084013e611243565b606091505b509150915081801561126d57508051158061126d57508080602001905181019061126d91906113de565b6112895760405162461bcd60e51b81526004016107b290611593565b505050505050565b80356001600160a01b03811681146102b257600080fd5b6000602082840312156112b9578081fd5b61108982611291565b600080604083850312156112d4578081fd5b6112dd83611291565b946020939093013593505050565b6000806000606084860312156112ff578081fd5b61130884611291565b95602085013595506040909401359392505050565b6000602080838503121561132f578182fd5b823567ffffffffffffffff80821115611346578384fd5b818501915085601f830112611359578384fd5b81358181111561136b5761136b6116db565b8381026040518582820101818110858211171561138a5761138a6116db565b604052828152858101935084860182860187018a10156113a8578788fd5b8795505b838610156113d1576113bd81611291565b8552600195909501949386019386016113ac565b5098975050505050505050565b6000602082840312156113ef578081fd5b81518015158114611089578182fd5b60006020828403121561140f578081fd5b5035919050565b600060208284031215611427578081fd5b5051919050565b60008251815b8181101561144e5760208186018101518583015201611434565b8181111561145c5782828501525b509190910192915050565b6001600160a01b0391909116815260200190565b6001600160a01b039384168152919092166020820152604081019190915260600190565b6001600160a01b03929092168252602082015260400190565b6001600160a01b039390931683526020830191909152604082015260600190565b6020808252601f908201527f5472616e7366657248656c7065723a205452414e534645525f4641494c454400604082015260600190565b6020808252601190820152702cb7ba9030b932903737ba1030b236b4b760791b604082015260600190565b6020808252601390820152722232b837b9b4ba1036b7b73a341032b93937b960691b604082015260600190565b6020808252601190820152703cb7ba9030b932903737ba1030b236b4b760791b604082015260600190565b60208082526024908201527f5472616e7366657248656c7065723a205452414e534645525f46524f4d5f46416040820152631253115160e21b606082015260800190565b90815260200190565b9283526020830191909152604082015260600190565b958652602086019490945260408501929092526060840152608083015260a082015260c00190565b60008219821115611631576116316116af565b500190565b600082611645576116456116c5565b500490565b6000816000190483118215151615611664576116646116af565b500290565b60008282101561167b5761167b6116af565b500390565b6000600019821415611694576116946116af565b5060010190565b6000826116aa576116aa6116c5565b500690565b634e487b7160e01b600052601160045260246000fd5b634e487b7160e01b600052601260045260246000fd5b634e487b7160e01b600052604160045260246000fdfea26469706673582212202d04c8de6b5592148fadc4ab16a8ec44ef912860da386f5f9b06a6f1c07f28f064736f6c63430008000033",
  "immutableReferences": {},
  "source": "pragma solidity ^0.8.0;\r\n\r\nimport \"@openzeppelin/contracts/utils/math/SafeMath.sol\";\r\nimport \"@openzeppelin/contracts/token/ERC20/IERC20.sol\";\r\nimport \"../lib/TransferHelper.sol\";\r\nimport \"./MiningBase.sol\";\r\n\r\n//\r\ncontract RbSeedExchange is MiningBase {\r\n    using SafeMath for uint;//\r\n    // ,RBT\r\n    uint public digOutAmount;\r\n    // RBT\r\n    uint public allReceived;\r\n    //\r\n    event PurchaseRecord (address  User , uint indexed tokenAmount , uint indexed rbtAmount ,address indexed tokenAddress);\r\n\r\n    //SEED\r\n    address private _RBT_SEED;\r\n    uint public exchangeRate;\r\n    //\r\n    constructor (\r\n        address seed,\r\n        address rbt,\r\n        address Aadmin\r\n    ){\r\n        _RBT_SEED = seed;\r\n        _Rbt = rbt;\r\n        admin = Aadmin;\r\n    }\r\n    //\r\n    address private BANK_ADDRESS;\r\n    /* */\r\n    function setExchangeRate(uint rate) public onlyAdmin {\r\n        exchangeRate = rate;\r\n    }\r\n    /*\r\n    *   RBTSEED --> RBT \r\n    */\r\n    function exchange(uint value) public {\r\n\r\n        TransferHelper.safeTransferFrom(_RBT_SEED, msg.sender, address(this), value);\r\n        TransferHelper.safeTransfer(_Rbt, msg.sender, value.div(5));\r\n        uint blockTime = block.timestamp;\r\n        Record memory recordrec = Record({\r\n        startTime : blockTime,\r\n        endTime : blockTime + _lockTime,\r\n        amount : value - exchangeRate,\r\n        price : exchangeRate,\r\n\r\n        extracted : 0,\r\n        mortgage : 0\r\n\r\n        });\r\n        lockUpTotal[msg.sender].push(recordrec);\r\n        allReceived = allReceived.add(value);\r\n        digOutAmount = digOutAmount.add(value);\r\n        emit PurchaseRecord (msg.sender , value , value , _RBT_SEED);\r\n    }\r\n\r\n}",
  "sourcePath": "D://rainbow/RainbowDao-protocol/contracts/mining/RbSeedExchange.sol",
  "compiler": {
    "name": "solc",
    "version": "0.8.0+commit.c7dfd78e.Emscripten.clang"
  },
  "schemaVersion": "3.4.1",
  "updatedAt": "2021-10-16T03:51:57.645Z",
  "networkType": "ethereum",
  "devdoc": {
    "kind": "dev",
    "methods": {},
    "version": 1
  },
  "userdoc": {
    "kind": "user",
    "methods": {},
    "version": 1
  }
}