{
  "contractName": "RBT",
  "abi": [
    {
      "inputs": [
        {
          "internalType": "address",
          "name": "manager",
          "type": "address"
        }
      ],
      "stateMutability": "nonpayable",
      "type": "constructor"
    },
    {
      "anonymous": false,
      "inputs": [
        {
          "indexed": true,
          "internalType": "address",
          "name": "Admin",
          "type": "address"
        },
        {
          "indexed": true,
          "internalType": "address",
          "name": "newAdmin",
          "type": "address"
        }
      ],
      "name": "AdminChange",
      "type": "event"
    },
    {
      "anonymous": false,
      "inputs": [
        {
          "indexed": true,
          "internalType": "address",
          "name": "owner",
          "type": "address"
        },
        {
          "indexed": true,
          "internalType": "address",
          "name": "spender",
          "type": "address"
        },
        {
          "indexed": false,
          "internalType": "uint256",
          "name": "value",
          "type": "uint256"
        }
      ],
      "name": "Approval",
      "type": "event"
    },
    {
      "anonymous": false,
      "inputs": [
        {
          "indexed": true,
          "internalType": "address",
          "name": "delegate",
          "type": "address"
        },
        {
          "indexed": false,
          "internalType": "uint256",
          "name": "previousBalance",
          "type": "uint256"
        },
        {
          "indexed": false,
          "internalType": "uint256",
          "name": "newBalance",
          "type": "uint256"
        }
      ],
      "name": "DelegateVotesChanged",
      "type": "event"
    },
    {
      "anonymous": false,
      "inputs": [
        {
          "indexed": true,
          "internalType": "address",
          "name": "userAddress",
          "type": "address"
        },
        {
          "indexed": true,
          "internalType": "bool",
          "name": "flag",
          "type": "bool"
        }
      ],
      "name": "FreeUserChange",
      "type": "event"
    },
    {
      "anonymous": false,
      "inputs": [
        {
          "indexed": true,
          "internalType": "address",
          "name": "from",
          "type": "address"
        },
        {
          "indexed": true,
          "internalType": "address",
          "name": "to",
          "type": "address"
        },
        {
          "indexed": false,
          "internalType": "uint256",
          "name": "value",
          "type": "uint256"
        }
      ],
      "name": "Transfer",
      "type": "event"
    },
    {
      "inputs": [],
      "name": "admin",
      "outputs": [
        {
          "internalType": "address",
          "name": "",
          "type": "address"
        }
      ],
      "stateMutability": "view",
      "type": "function"
    },
    {
      "inputs": [
        {
          "internalType": "address",
          "name": "owner",
          "type": "address"
        },
        {
          "internalType": "address",
          "name": "spender",
          "type": "address"
        }
      ],
      "name": "allowance",
      "outputs": [
        {
          "internalType": "uint256",
          "name": "",
          "type": "uint256"
        }
      ],
      "stateMutability": "view",
      "type": "function"
    },
    {
      "inputs": [
        {
          "internalType": "address",
          "name": "spender",
          "type": "address"
        },
        {
          "internalType": "uint256",
          "name": "amount",
          "type": "uint256"
        }
      ],
      "name": "approve",
      "outputs": [
        {
          "internalType": "bool",
          "name": "",
          "type": "bool"
        }
      ],
      "stateMutability": "nonpayable",
      "type": "function"
    },
    {
      "inputs": [
        {
          "internalType": "address",
          "name": "account",
          "type": "address"
        }
      ],
      "name": "balanceOf",
      "outputs": [
        {
          "internalType": "uint256",
          "name": "",
          "type": "uint256"
        }
      ],
      "stateMutability": "view",
      "type": "function"
    },
    {
      "inputs": [
        {
          "internalType": "address",
          "name": "",
          "type": "address"
        },
        {
          "internalType": "uint32",
          "name": "",
          "type": "uint32"
        }
      ],
      "name": "checkpoints",
      "outputs": [
        {
          "internalType": "uint32",
          "name": "fromBlock",
          "type": "uint32"
        },
        {
          "internalType": "uint96",
          "name": "votes",
          "type": "uint96"
        }
      ],
      "stateMutability": "view",
      "type": "function"
    },
    {
      "inputs": [],
      "name": "decimals",
      "outputs": [
        {
          "internalType": "uint8",
          "name": "",
          "type": "uint8"
        }
      ],
      "stateMutability": "view",
      "type": "function"
    },
    {
      "inputs": [
        {
          "internalType": "address",
          "name": "spender",
          "type": "address"
        },
        {
          "internalType": "uint256",
          "name": "subtractedValue",
          "type": "uint256"
        }
      ],
      "name": "decreaseAllowance",
      "outputs": [
        {
          "internalType": "bool",
          "name": "",
          "type": "bool"
        }
      ],
      "stateMutability": "nonpayable",
      "type": "function"
    },
    {
      "inputs": [],
      "name": "fee",
      "outputs": [
        {
          "internalType": "uint256",
          "name": "",
          "type": "uint256"
        }
      ],
      "stateMutability": "view",
      "type": "function"
    },
    {
      "inputs": [],
      "name": "feeto",
      "outputs": [
        {
          "internalType": "address",
          "name": "",
          "type": "address"
        }
      ],
      "stateMutability": "view",
      "type": "function"
    },
    {
      "inputs": [
        {
          "internalType": "address",
          "name": "",
          "type": "address"
        }
      ],
      "name": "freeUsers",
      "outputs": [
        {
          "internalType": "bool",
          "name": "",
          "type": "bool"
        }
      ],
      "stateMutability": "view",
      "type": "function"
    },
    {
      "inputs": [
        {
          "internalType": "address",
          "name": "spender",
          "type": "address"
        },
        {
          "internalType": "uint256",
          "name": "addedValue",
          "type": "uint256"
        }
      ],
      "name": "increaseAllowance",
      "outputs": [
        {
          "internalType": "bool",
          "name": "",
          "type": "bool"
        }
      ],
      "stateMutability": "nonpayable",
      "type": "function"
    },
    {
      "inputs": [],
      "name": "name",
      "outputs": [
        {
          "internalType": "string",
          "name": "",
          "type": "string"
        }
      ],
      "stateMutability": "view",
      "type": "function"
    },
    {
      "inputs": [
        {
          "internalType": "address",
          "name": "",
          "type": "address"
        }
      ],
      "name": "numCheckpoints",
      "outputs": [
        {
          "internalType": "uint32",
          "name": "",
          "type": "uint32"
        }
      ],
      "stateMutability": "view",
      "type": "function"
    },
    {
      "inputs": [],
      "name": "symbol",
      "outputs": [
        {
          "internalType": "string",
          "name": "",
          "type": "string"
        }
      ],
      "stateMutability": "view",
      "type": "function"
    },
    {
      "inputs": [],
      "name": "totalSupply",
      "outputs": [
        {
          "internalType": "uint256",
          "name": "",
          "type": "uint256"
        }
      ],
      "stateMutability": "view",
      "type": "function"
    },
    {
      "inputs": [
        {
          "internalType": "address",
          "name": "manager",
          "type": "address"
        }
      ],
      "name": "changeOwner",
      "outputs": [],
      "stateMutability": "nonpayable",
      "type": "function"
    },
    {
      "inputs": [
        {
          "internalType": "uint256",
          "name": "value",
          "type": "uint256"
        }
      ],
      "name": "modifyFee",
      "outputs": [],
      "stateMutability": "nonpayable",
      "type": "function"
    },
    {
      "inputs": [
        {
          "internalType": "address",
          "name": "guager",
          "type": "address"
        }
      ],
      "name": "changeFeeTo",
      "outputs": [],
      "stateMutability": "nonpayable",
      "type": "function"
    },
    {
      "inputs": [
        {
          "internalType": "address",
          "name": "userAddress",
          "type": "address"
        }
      ],
      "name": "addFreeUser",
      "outputs": [],
      "stateMutability": "nonpayable",
      "type": "function"
    },
    {
      "inputs": [
        {
          "internalType": "address",
          "name": "userAddress",
          "type": "address"
        }
      ],
      "name": "removeFreeUser",
      "outputs": [],
      "stateMutability": "nonpayable",
      "type": "function"
    },
    {
      "inputs": [
        {
          "internalType": "address",
          "name": "account",
          "type": "address"
        },
        {
          "internalType": "uint256",
          "name": "amount",
          "type": "uint256"
        }
      ],
      "name": "burn",
      "outputs": [],
      "stateMutability": "nonpayable",
      "type": "function"
    },
    {
      "inputs": [
        {
          "internalType": "address",
          "name": "recipient",
          "type": "address"
        },
        {
          "internalType": "uint256",
          "name": "amount",
          "type": "uint256"
        }
      ],
      "name": "transfer",
      "outputs": [
        {
          "internalType": "bool",
          "name": "",
          "type": "bool"
        }
      ],
      "stateMutability": "nonpayable",
      "type": "function"
    },
    {
      "inputs": [
        {
          "internalType": "address",
          "name": "sender",
          "type": "address"
        },
        {
          "internalType": "address",
          "name": "recipient",
          "type": "address"
        },
        {
          "internalType": "uint256",
          "name": "amount",
          "type": "uint256"
        }
      ],
      "name": "transferFrom",
      "outputs": [
        {
          "internalType": "bool",
          "name": "",
          "type": "bool"
        }
      ],
      "stateMutability": "nonpayable",
      "type": "function"
    },
    {
      "inputs": [
        {
          "internalType": "address",
          "name": "account",
          "type": "address"
        }
      ],
      "name": "getCurrentVotes",
      "outputs": [
        {
          "internalType": "uint96",
          "name": "",
          "type": "uint96"
        }
      ],
      "stateMutability": "view",
      "type": "function"
    },
    {
      "inputs": [
        {
          "internalType": "address",
          "name": "account",
          "type": "address"
        },
        {
          "internalType": "uint256",
          "name": "blockNumber",
          "type": "uint256"
        }
      ],
      "name": "getPriorVotes",
      "outputs": [
        {
          "internalType": "uint96",
          "name": "",
          "type": "uint96"
        }
      ],
      "stateMutability": "view",
      "type": "function"
    }
  ],
  "bytecode": "0x6080604052601e6007553480156200001657600080fd5b50604051620022bb380380620022bb833981016040819052620000399162000678565b6040518060400160405280600d81526020016c2930b4b73137bb902a37b5b2b760991b8152506040518060400160405280600381526020016214909560ea1b815250816003908051906020019062000093929190620005d2565b508051620000a9906004906020840190620005d2565b5050600580546001600160a01b0384166001600160a01b0319918216811790925560068054909116909117905550620000ef816b1027e72f1f1281308800000062000154565b6200014d81620001476b1027e72f1f128130880000006040518060400160405280601b81526020017f5242543a20766f746520616d6f756e7420756e646572666c6f777300000000008152506200023660201b60201c565b62000271565b506200083e565b6001600160a01b038216620001865760405162461bcd60e51b81526004016200017d90620006fe565b60405180910390fd5b620001946000838362000351565b8060026000828254620001a8919062000758565b90915550506001600160a01b03821660009081526020819052604081208054839290620001d790849062000758565b90915550506040516001600160a01b038316906000907fddf252ad1be2c89b69c2b068fc378daa952ba7f163c4a11628f55a4df523b3ef906200021c90859062000735565b60405180910390a3620002326000838362000351565b5050565b6000816c010000000000000000000000008410620002695760405162461bcd60e51b81526004016200017d9190620006a8565b509192915050565b6001600160a01b0382166000908152600a602052604081205463ffffffff1690816200029f576000620002ee565b6001600160a01b038416600090815260096020526040812090620002c5600185620007c3565b63ffffffff16815260208101919091526040016000205464010000000090046001600160601b03165b905060006200033a82856040518060400160405280601a81526020017f5242543a20766f746520616d6f756e74206f766572666c6f77730000000000008152506200035660201b60201c565b90506200034a85848484620003a8565b5050505050565b505050565b6000806200036584866200079e565b9050846001600160601b0316816001600160601b0316101583906200039f5760405162461bcd60e51b81526004016200017d9190620006a8565b50949350505050565b6000620003cf436040518060600160405280602181526020016200229a60219139620005a7565b905060008463ffffffff161180156200042c57506001600160a01b038516600090815260096020526040812063ffffffff83169162000410600188620007c3565b63ffffffff908116825260208201929092526040016000205416145b156200049f576001600160a01b0385166000908152600960205260408120839162000459600188620007c3565b63ffffffff168152602081019190915260400160002080546001600160601b039290921664010000000002600160201b600160801b03199092169190911790556200055b565b60408051808201825263ffffffff83811682526001600160601b0385811660208085019182526001600160a01b038b166000908152600982528681208b861682529091529490942092518354945163ffffffff19909516921691909117600160201b600160801b03191664010000000093909116929092029190911790556200052a84600162000773565b6001600160a01b0386166000908152600a60205260409020805463ffffffff191663ffffffff929092169190911790555b846001600160a01b03167fdec2bacdd2f05b59de34da9b523dff8be42e5e38e818c82fdb0bae774387a7248484604051620005989291906200073e565b60405180910390a25050505050565b6000816401000000008410620002695760405162461bcd60e51b81526004016200017d9190620006a8565b828054620005e090620007eb565b90600052602060002090601f0160209004810192826200060457600085556200064f565b82601f106200061f57805160ff19168380011785556200064f565b828001600101855582156200064f579182015b828111156200064f57825182559160200191906001019062000632565b506200065d92915062000661565b5090565b5b808211156200065d576000815560010162000662565b6000602082840312156200068a578081fd5b81516001600160a01b0381168114620006a1578182fd5b9392505050565b6000602080835283518082850152825b81811015620006d657858101830151858201604001528201620006b8565b81811115620006e85783604083870101525b50601f01601f1916929092016040019392505050565b6020808252601f908201527f45524332303a206d696e7420746f20746865207a65726f206164647265737300604082015260600190565b90815260200190565b6001600160601b0392831681529116602082015260400190565b600082198211156200076e576200076e62000828565b500190565b600063ffffffff80831681851680830382111562000795576200079562000828565b01949350505050565b60006001600160601b0382811684821680830382111562000795576200079562000828565b600063ffffffff83811690831681811015620007e357620007e362000828565b039392505050565b6002810460018216806200080057607f821691505b602082108114156200082257634e487b7160e01b600052602260045260246000fd5b50919050565b634e487b7160e01b600052601160045260246000fd5b611a4c806200084e6000396000f3fe608060405234801561001057600080fd5b50600436106101735760003560e01c806395d89b41116100de578063b4b5ea5711610097578063ddca3f4311610071578063ddca3f4314610336578063f1127ed81461033e578063f851a4401461035f578063fa2005501461036757610173565b8063b4b5ea57146102fd578063b7353de614610310578063dd62ed3e1461032357610173565b806395d89b41146102945780639dc29fac1461029c578063a457c2d7146102af578063a6f9dae1146102c2578063a9059cbb146102d5578063ae3f1f2c146102e857610173565b8063313ce56711610130578063313ce56714610206578063395093511461021b5780636fcfff451461022e57806370a082311461024e5780637583407e14610261578063782d6fe11461027457610173565b806306fdde0314610178578063095ea7b3146101965780630dc04950146101b657806318160ddd146101cb57806323b1cde4146101e057806323b872dd146101f3575b600080fd5b61018061037a565b60405161018d9190611517565b60405180910390f35b6101a96101a4366004611479565b61040c565b60405161018d919061150c565b6101c96101c43660046113f2565b61042a565b005b6101d361048e565b60405161018d9190611805565b6101c96101ee3660046113f2565b610494565b6101a961020136600461143e565b6104cd565b61020e610539565b60405161018d919061183e565b6101a9610229366004611479565b61053e565b61024161023c3660046113f2565b61058d565b60405161018d919061180e565b6101d361025c3660046113f2565b6105a5565b6101c961026f3660046113f2565b6105c4565b610287610282366004611479565b61062d565b60405161018d919061184c565b61018061086f565b6101c96102aa366004611479565b61087e565b6101a96102bd366004611479565b6108a3565b6101c96102d03660046113f2565b61091c565b6101a96102e3366004611479565b61097f565b6102f061098c565b60405161018d91906114f8565b61028761030b3660046113f2565b61099b565b6101a961031e3660046113f2565b610a19565b6101d361033136600461140c565b610a2e565b6101d3610a59565b61035161034c3660046114a2565b610a5f565b60405161018d92919061181f565b6102f0610a94565b6101c96103753660046114e0565b610aa3565b6060600380546103899061198e565b80601f01602080910402602001604051908101604052809291908181526020018280546103b59061198e565b80156104025780601f106103d757610100808354040283529160200191610402565b820191906000526020600020905b8154815290600101906020018083116103e557829003601f168201915b5050505050905090565b6000610420610419610abf565b8484610ac3565b5060015b92915050565b6005546001600160a01b0316331461044157600080fd5b6001600160a01b038116600081815260086020526040808220805460ff19169055519091907fb9ed40aef0b29cbddfc8801ef98d8dc60c8e08f1dbd035d8130cee3b5692648d908390a350565b60025490565b6005546001600160a01b031633146104ab57600080fd5b600680546001600160a01b0319166001600160a01b0392909216919091179055565b60006104da848484610b77565b60006104e885610331610abf565b9050828110156105135760405162461bcd60e51b815260040161050a90611677565b60405180910390fd5b61052e8561051f610abf565b6105298685611932565b610ac3565b506001949350505050565b601290565b600061042061054b610abf565b848460016000610559610abf565b6001600160a01b03908116825260208083019390935260409182016000908120918b1681529252902054610529919061187a565b600a6020526000908152604090205463ffffffff1681565b6001600160a01b0381166000908152602081905260409020545b919050565b6005546001600160a01b031633146105db57600080fd5b6001600160a01b038116600081815260086020526040808220805460ff1916600190811790915590519092917fb9ed40aef0b29cbddfc8801ef98d8dc60c8e08f1dbd035d8130cee3b5692648d91a350565b60004382111561064f5760405162461bcd60e51b815260040161050a906117ce565b6001600160a01b0383166000908152600a602052604090205463ffffffff168015806106a357506001600160a01b038416600090815260096020908152604080832083805290915290205463ffffffff1683105b156106b2576000915050610424565b6001600160a01b038416600090815260096020526040812084916106d7600185611949565b63ffffffff9081168252602082019290925260400160002054161161074a576001600160a01b03841660009081526009602052604081209061071a600184611949565b63ffffffff168152602081019190915260400160002054600160201b90046001600160601b031691506104249050565b600080610758600184611949565b90505b8163ffffffff168163ffffffff16111561082a576000600261077d8484611949565b61078791906118f0565b6107919083611949565b6001600160a01b038816600090815260096020908152604080832063ffffffff858116855290835292819020815180830190925254928316808252600160201b9093046001600160601b0316918101919091529192508714156107fe576020015194506104249350505050565b805163ffffffff1687111561081557819350610823565b610820600183611949565b92505b505061075b565b506001600160a01b038516600090815260096020908152604080832063ffffffff909416835292905220546001600160601b03600160201b9091041691505092915050565b6060600480546103899061198e565b6005546001600160a01b0316331461089557600080fd5b61089f8282610d2c565b5050565b600080600160006108b2610abf565b6001600160a01b03908116825260208083019390935260409182016000908120918816815292529020549050828110156108fe5760405162461bcd60e51b815260040161050a90611789565b610912610909610abf565b85858403610ac3565b5060019392505050565b6005546001600160a01b0316331461093357600080fd5b600580546001600160a01b0319166001600160a01b03831690811790915560405133907f38b1065e0d088f6eda3cb9f0efc7bbb9b145907ab0deb0dbfb700d2bb21599e990600090a350565b6000610420338484610b77565b6006546001600160a01b031681565b6001600160a01b0381166000908152600a602052604081205463ffffffff16806109c6576000610a12565b6001600160a01b0383166000908152600960205260408120906109ea600184611949565b63ffffffff168152602081019190915260400160002054600160201b90046001600160601b03165b9392505050565b60086020526000908152604090205460ff1681565b6001600160a01b03918216600090815260016020908152604080832093909416825291909152205490565b60075481565b600960209081526000928352604080842090915290825290205463ffffffff811690600160201b90046001600160601b031682565b6005546001600160a01b031681565b6005546001600160a01b03163314610aba57600080fd5b600755565b3390565b6001600160a01b038316610ae95760405162461bcd60e51b815260040161050a90611745565b6001600160a01b038216610b0f5760405162461bcd60e51b815260040161050a906115ef565b6001600160a01b0380841660008181526001602090815260408083209487168084529490915290819020849055517f8c5be1e5ebec7d5bd14f71427d1e84f3dd0314c0f7b2291e5b200ac8c7c3b92590610b6a908590611805565b60405180910390a3505050565b6000610bb8826040518060400160405280601c81526020017f766f74653a20766f746520616d6f756e7420756e646572666c6f777300000000815250610e1e565b6001600160a01b03851660009081526008602052604090205490915060ff16151560011415610bfb57610bec848484610e4d565b610bf68382610f71565b610d1c565b600061271090506000610c2d82610c27610c206007548661104290919063ffffffff16565b879061104e565b9061105a565b9050610c3a868683610e4d565b6000610c5583610c276007548861104e90919063ffffffff16565b600654909150610c709088906001600160a01b031683610e4d565b6000610cb1836040518060400160405280601c81526020017f766f74653a20766f746520616d6f756e7420756e646572666c6f777300000000815250610e1e565b90506000610cf4836040518060400160405280601c81526020017f766f74653a20766f746520616d6f756e7420756e646572666c6f777300000000815250610e1e565b9050610d008883610f71565b600654610d16906001600160a01b031682610f71565b50505050505b610d268482611066565b50505050565b6001600160a01b038216610d525760405162461bcd60e51b815260040161050a906116bf565b610d5e82600083610e19565b6001600160a01b03821660009081526020819052604090205481811015610d975760405162461bcd60e51b815260040161050a906115ad565b6001600160a01b0383166000908152602081905260408120838303905560028054849290610dc6908490611932565b90915550506040516000906001600160a01b038516907fddf252ad1be2c89b69c2b068fc378daa952ba7f163c4a11628f55a4df523b3ef90610e09908690611805565b60405180910390a3610e19836000845b505050565b600081600160601b8410610e455760405162461bcd60e51b815260040161050a9190611517565b509192915050565b6001600160a01b038316610e735760405162461bcd60e51b815260040161050a90611700565b6001600160a01b038216610e995760405162461bcd60e51b815260040161050a9061156a565b610ea4838383610e19565b6001600160a01b03831660009081526020819052604090205481811015610edd5760405162461bcd60e51b815260040161050a90611631565b6001600160a01b03808516600090815260208190526040808220858503905591851681529081208054849290610f1490849061187a565b92505081905550826001600160a01b0316846001600160a01b03167fddf252ad1be2c89b69c2b068fc378daa952ba7f163c4a11628f55a4df523b3ef84604051610f5e9190611805565b60405180910390a3610d26848484610e19565b6001600160a01b0382166000908152600a602052604081205463ffffffff169081610f9d576000610fe9565b6001600160a01b038416600090815260096020526040812090610fc1600185611949565b63ffffffff168152602081019190915260400160002054600160201b90046001600160601b03165b9050600061102d82856040518060400160405280601a81526020017f5242543a20766f746520616d6f756e74206f766572666c6f7773000000000000815250611122565b905061103b8584848461116f565b5050505050565b6000610a128284611932565b6000610a128284611913565b6000610a1282846118dc565b6001600160a01b0382166000908152600a602052604081205463ffffffff1690816110925760006110de565b6001600160a01b0384166000908152600960205260408120906110b6600185611949565b63ffffffff168152602081019190915260400160002054600160201b90046001600160601b03165b9050600061102d82856040518060400160405280601b81526020017f5242543a20766f746520616d6f756e7420756e646572666c6f7773000000000081525061136a565b60008061112f84866118ba565b9050846001600160601b0316816001600160601b0316101583906111665760405162461bcd60e51b815260040161050a9190611517565b50949350505050565b6000611193436040518060600160405280602181526020016119f6602191396113b4565b905060008463ffffffff161180156111ed57506001600160a01b038516600090815260096020526040812063ffffffff8316916111d1600188611949565b63ffffffff908116825260208201929092526040016000205416145b15611261576001600160a01b03851660009081526009602052604081208391611217600188611949565b63ffffffff168152602081019190915260400160002080546001600160601b0392909216600160201b026fffffffffffffffffffffffff0000000019909216919091179055611320565b60408051808201825263ffffffff83811682526001600160601b0385811660208085019182526001600160a01b038b166000908152600982528681208b861682529091529490942092518354945163ffffffff199095169216919091176fffffffffffffffffffffffff000000001916600160201b93909116929092029190911790556112ef846001611892565b6001600160a01b0386166000908152600a60205260409020805463ffffffff191663ffffffff929092169190911790555b846001600160a01b03167fdec2bacdd2f05b59de34da9b523dff8be42e5e38e818c82fdb0bae774387a724848460405161135b929190611860565b60405180910390a25050505050565b6000836001600160601b0316836001600160601b0316111582906113a15760405162461bcd60e51b815260040161050a9190611517565b506113ac838561196e565b949350505050565b600081600160201b8410610e455760405162461bcd60e51b815260040161050a9190611517565b80356001600160a01b03811681146105bf57600080fd5b600060208284031215611403578081fd5b610a12826113db565b6000806040838503121561141e578081fd5b611427836113db565b9150611435602084016113db565b90509250929050565b600080600060608486031215611452578081fd5b61145b846113db565b9250611469602085016113db565b9150604084013590509250925092565b6000806040838503121561148b578182fd5b611494836113db565b946020939093013593505050565b600080604083850312156114b4578182fd5b6114bd836113db565b9150602083013563ffffffff811681146114d5578182fd5b809150509250929050565b6000602082840312156114f1578081fd5b5035919050565b6001600160a01b0391909116815260200190565b901515815260200190565b6000602080835283518082850152825b8181101561154357858101830151858201604001528201611527565b818111156115545783604083870101525b50601f01601f1916929092016040019392505050565b60208082526023908201527f45524332303a207472616e7366657220746f20746865207a65726f206164647260408201526265737360e81b606082015260800190565b60208082526022908201527f45524332303a206275726e20616d6f756e7420657863656564732062616c616e604082015261636560f01b606082015260800190565b60208082526022908201527f45524332303a20617070726f766520746f20746865207a65726f206164647265604082015261737360f01b606082015260800190565b60208082526026908201527f45524332303a207472616e7366657220616d6f756e7420657863656564732062604082015265616c616e636560d01b606082015260800190565b60208082526028908201527f45524332303a207472616e7366657220616d6f756e74206578636565647320616040820152676c6c6f77616e636560c01b606082015260800190565b60208082526021908201527f45524332303a206275726e2066726f6d20746865207a65726f206164647265736040820152607360f81b606082015260800190565b60208082526025908201527f45524332303a207472616e736665722066726f6d20746865207a65726f206164604082015264647265737360d81b606082015260800190565b60208082526024908201527f45524332303a20617070726f76652066726f6d20746865207a65726f206164646040820152637265737360e01b606082015260800190565b60208082526025908201527f45524332303a2064656372656173656420616c6c6f77616e63652062656c6f77604082015264207a65726f60d81b606082015260800190565b60208082526017908201527f5242543a206e6f74207965742064657465726d696e6564000000000000000000604082015260600190565b90815260200190565b63ffffffff91909116815260200190565b63ffffffff9290921682526001600160601b0316602082015260400190565b60ff91909116815260200190565b6001600160601b0391909116815260200190565b6001600160601b0392831681529116602082015260400190565b6000821982111561188d5761188d6119c9565b500190565b600063ffffffff8083168185168083038211156118b1576118b16119c9565b01949350505050565b60006001600160601b038083168185168083038211156118b1576118b16119c9565b6000826118eb576118eb6119df565b500490565b600063ffffffff80841680611907576119076119df565b92169190910492915050565b600081600019048311821515161561192d5761192d6119c9565b500290565b600082821015611944576119446119c9565b500390565b600063ffffffff83811690831681811015611966576119666119c9565b039392505050565b60006001600160601b0383811690831681811015611966576119666119c9565b6002810460018216806119a257607f821691505b602082108114156119c357634e487b7160e01b600052602260045260246000fd5b50919050565b634e487b7160e01b600052601160045260246000fd5b634e487b7160e01b600052601260045260246000fdfe5242543a20626c6f636b206e756d62657220657863656564732033322062697473a2646970667358221220984a762229b5bd6922ad2b6dceedd351ace0150f0910d7fb23d9f0b131dbefb964736f6c634300080000335242543a20626c6f636b206e756d62657220657863656564732033322062697473",
  "immutableReferences": {},
  "source": "// SPDX-License-Identifier: MIT\r\n\r\npragma solidity ^0.8.0;\r\n\r\nimport \"@openzeppelin/contracts/token/ERC20/ERC20.sol\";\r\nimport \"@openzeppelin/contracts/utils/Address.sol\";\r\nimport \"@openzeppelin/contracts/utils/math/SafeMath.sol\";\r\n\r\nimport \"../interface/token20/IRBT.sol\";\r\n\r\ncontract RBT is ERC20{\r\n    using SafeMath for uint256;\r\n    //\r\n    address public admin;\r\n    //\r\n    address public feeto;\r\n    \r\n    // s\r\n    uint public fee = 30;\r\n    //\r\n    mapping(address => bool) public freeUsers;\r\n    //\r\n    struct Checkpoint {\r\n        uint32 fromBlock;\r\n        uint96 votes;\r\n    }\r\n    //\r\n    mapping (address => mapping (uint32 => Checkpoint)) public checkpoints;\r\n    //\r\n    mapping (address => uint32) public numCheckpoints;\r\n    \r\n    event DelegateVotesChanged(address indexed delegate, uint previousBalance, uint newBalance);\r\n    event AdminChange(address indexed Admin, address indexed newAdmin);\r\n    event FreeUserChange(address indexed userAddress, bool indexed flag);\r\n    constructor(address manager)  public ERC20(\"Rainbow Token\",\"RBT\"){\r\n        admin = manager;\r\n        feeto = manager;\r\n        _mint(manager, 5000_000_000 * 10 ** 18);\r\n        \r\n        _addDelegates(manager, safe96(5000_000_000 * 10 ** 18,\"RBT: vote amount underflows\"));\r\n        \r\n    }\r\n    modifier  _isOwner() {\r\n        require(msg.sender == admin);\r\n        _;\r\n    }\r\n    /**\r\n    * @notice  \r\n    * @param manager \r\n    */\r\n    function changeOwner(address manager) external _isOwner {\r\n        admin = manager;\r\n        emit AdminChange(msg.sender,manager);\r\n    }\r\n    /**\r\n    * @notice \r\n    * @param value \r\n    */\r\n    function modifyFee(uint value) external _isOwner {\r\n        fee = value;\r\n    }\r\n    /**\r\n    * @notice \r\n    * @param guager \r\n    */\r\n    function changeFeeTo(address guager) external _isOwner {\r\n        feeto = guager;\r\n    }\r\n    /**\r\n    * @notice \r\n    * @param userAddress \r\n    */\r\n    function addFreeUser(address userAddress) public _isOwner {\r\n        freeUsers[userAddress] = true;\r\n        emit FreeUserChange(userAddress,true);\r\n    }\r\n    /**\r\n    * @notice \r\n    * @param userAddress \r\n    */\r\n    function removeFreeUser(address userAddress) public _isOwner {\r\n        freeUsers[userAddress] = false;\r\n        emit FreeUserChange(userAddress,false);\r\n    }\r\n    \r\n    /**\r\n    * @notice \r\n    * @param account \r\n    * @param amount \r\n    */\r\n    function burn(address account, uint256 amount) external _isOwner{\r\n        _burn(account, amount);\r\n    }\r\n    /**\r\n    * @notice \r\n    * @param recipient \r\n    * @param amount \r\n    */\r\n    function transfer(address recipient, uint256 amount) public virtual override returns (bool) {\r\n       \r\n        _transferRBT(msg.sender,recipient,amount);\r\n        return true;\r\n    }\r\n    \r\n    \r\n    /**\r\n    * @notice \r\n    * @param sender \r\n    * @param recipient \r\n    * @param amount \r\n    */\r\n    function transferFrom(address sender, address recipient, uint256 amount) public virtual override returns (bool) {\r\n        \r\n        _transferRBT(sender,recipient,amount);\r\n        uint256 currentAllowance = allowance(sender,_msgSender());\r\n        require(currentAllowance >= amount, \"ERC20: transfer amount exceeds allowance\");\r\n        _approve(sender, _msgSender(), currentAllowance-amount);\r\n        return true;\r\n    }\r\n    /**\r\n    * @notice \r\n    * @param account \r\n    */\r\n    function getCurrentVotes(address account) external view returns (uint96) {\r\n        uint32 nCheckpoints = numCheckpoints[account];\r\n        return nCheckpoints > 0 ? checkpoints[account][nCheckpoints - 1].votes : 0;\r\n    }\r\n    /**\r\n    * @notice \r\n    * @param account \r\n    * @param blockNumber \r\n    */\r\n    function getPriorVotes(address account, uint blockNumber) public view returns (uint96) {\r\n         require(blockNumber <= block.number, \"RBT: not yet determined\");\r\n    \r\n         uint32 nCheckpoints = numCheckpoints[account];\r\n         if (nCheckpoints == 0 || checkpoints[account][0].fromBlock > blockNumber) {\r\n             return 0;\r\n         }\r\n         \r\n         if (checkpoints[account][nCheckpoints - 1].fromBlock <= blockNumber) {\r\n             return checkpoints[account][nCheckpoints - 1].votes;\r\n         }\r\n    //\r\n    // mapping (address => mapping (uint32 => Checkpoint)) public checkpoints;\r\n    //\r\n    // mapping (address => uint32) public numCheckpoints;\r\n         uint32 lower = 0;\r\n         uint32 upper = nCheckpoints - 1;\r\n         while (upper > lower) {\r\n             uint32 center = upper - (upper - lower) / 2; \r\n             Checkpoint memory cp = checkpoints[account][center];\r\n             if (cp.fromBlock == blockNumber) {\r\n                 return cp.votes;\r\n             } else if (cp.fromBlock < blockNumber) {\r\n                 lower = center;\r\n             } else {\r\n                 upper = center - 1;\r\n             }\r\n        }\r\n        return checkpoints[account][lower].votes;\r\n     }\r\n     /**\r\n    * @notice \r\n    * @param sender \r\n    * @param recipient \r\n    * @param amount \r\n    */\r\n    function _transferRBT(address sender, address recipient, uint256 amount) internal {\r\n          \r\n        uint96 amount96 = safe96(amount,\"vote: vote amount underflows\");\r\n         if (freeUsers[sender] == true) {\r\n            _transfer(sender, recipient, amount);\r\n            _addDelegates(recipient, amount96);\r\n        } else {\r\n            uint256 aa = 10000;\r\n            uint256 amount1 = amount.mul(aa.sub(fee)).div(aa);\r\n            _transfer(sender, recipient, amount1);\r\n            uint256 amount2 = amount.mul(fee).div(aa);\r\n            _transfer(sender, feeto, amount2);\r\n            uint96 vote96 = safe96(amount1,\"vote: vote amount underflows\");\r\n            uint96 fee96 = safe96(amount2,\"vote: vote amount underflows\");\r\n            _addDelegates(recipient, vote96);\r\n            _addDelegates(feeto, fee96);\r\n        }\r\n        \r\n        _devDelegates(sender, amount96);\r\n    }\r\n     /**\r\n    * @notice \r\n    * @param dstRep \r\n    * @param amount \r\n    */\r\n    function _addDelegates(address dstRep, uint96 amount) internal {\r\n          \r\n        uint32 dstRepNum = numCheckpoints[dstRep];\r\n        uint96 dstRepOld = dstRepNum > 0 ? checkpoints[dstRep][dstRepNum - 1].votes : 0;\r\n        uint96 dstRepNew = add96(dstRepOld, amount, \"RBT: vote amount overflows\");\r\n        _writeCheckpoint(dstRep, dstRepNum, dstRepOld, dstRepNew);\r\n        \r\n    }\r\n    /**\r\n    * @notice \r\n    * @param srcRep \r\n    * @param amount \r\n    */\r\n    function _devDelegates(address srcRep,  uint96 amount) internal {\r\n          \r\n        uint32 srcRepNum = numCheckpoints[srcRep];\r\n        uint96 srcRepOld = srcRepNum > 0 ? checkpoints[srcRep][srcRepNum - 1].votes : 0;\r\n        uint96 srcRepNew = sub96(srcRepOld, amount, \"RBT: vote amount underflows\");\r\n        _writeCheckpoint(srcRep, srcRepNum, srcRepOld, srcRepNew);\r\n    }\r\n    /**\r\n    * @notice \r\n    * @param delegatee \r\n    * @param nCheckpoints \r\n    * @param oldVotes \r\n    * @param newVotes \r\n    */\r\n    function _writeCheckpoint(address delegatee, uint32 nCheckpoints, uint96 oldVotes, uint96 newVotes) internal {\r\n        uint32 blockNumber = safe32(block.number, \"RBT: block number exceeds 32 bits\");\r\n    \r\n        if (nCheckpoints > 0 && checkpoints[delegatee][nCheckpoints - 1].fromBlock == blockNumber) {\r\n            checkpoints[delegatee][nCheckpoints - 1].votes = newVotes;\r\n        } else {\r\n            checkpoints[delegatee][nCheckpoints] = Checkpoint(blockNumber, newVotes);\r\n            numCheckpoints[delegatee] = nCheckpoints + 1;\r\n        }\r\n    \r\n        emit DelegateVotesChanged(delegatee, oldVotes, newVotes);\r\n    }\r\n    function safe32(uint n, string memory errorMessage) internal pure returns (uint32) {\r\n        require(n < 2**32, errorMessage);\r\n        return uint32(n);\r\n    }\r\n    \r\n    function safe96(uint256 n, string memory errorMessage) internal pure returns (uint96) {\r\n        require(n < 2**96, errorMessage);\r\n        return uint96(n);\r\n    }\r\n    \r\n    function add96(uint96 a, uint96 b, string memory errorMessage) internal pure returns (uint96) {\r\n        uint96 c = a + b;\r\n        require(c >= a, errorMessage);\r\n        return c;\r\n    }\r\n\r\n    function sub96(uint96 a, uint96 b, string memory errorMessage) internal pure returns (uint96) {\r\n        require(b <= a, errorMessage);\r\n        return a - b;\r\n    }\r\n}\r\n",
  "sourcePath": "D://rainbow/RainbowDao-protocol/contracts/token20/RBT.sol",
  "compiler": {
    "name": "solc",
    "version": "0.8.0+commit.c7dfd78e.Emscripten.clang"
  },
  "schemaVersion": "3.4.1",
  "updatedAt": "2021-10-16T03:51:57.674Z",
  "networkType": "ethereum",
  "devdoc": {
    "kind": "dev",
    "methods": {
      "addFreeUser(address)": {
        "params": {
          "userAddress": ""
        }
      },
      "allowance(address,address)": {
        "details": "See {IERC20-allowance}."
      },
      "approve(address,uint256)": {
        "details": "See {IERC20-approve}. Requirements: - `spender` cannot be the zero address."
      },
      "balanceOf(address)": {
        "details": "See {IERC20-balanceOf}."
      },
      "burn(address,uint256)": {
        "params": {
          "account": "",
          "amount": ""
        }
      },
      "changeFeeTo(address)": {
        "params": {
          "guager": ""
        }
      },
      "changeOwner(address)": {
        "params": {
          "manager": ""
        }
      },
      "decimals()": {
        "details": "Returns the number of decimals used to get its user representation. For example, if `decimals` equals `2`, a balance of `505` tokens should be displayed to a user as `5.05` (`505 / 10 ** 2`). Tokens usually opt for a value of 18, imitating the relationship between Ether and Wei. This is the value {ERC20} uses, unless this function is overridden; NOTE: This information is only used for _display_ purposes: it in no way affects any of the arithmetic of the contract, including {IERC20-balanceOf} and {IERC20-transfer}."
      },
      "decreaseAllowance(address,uint256)": {
        "details": "Atomically decreases the allowance granted to `spender` by the caller. This is an alternative to {approve} that can be used as a mitigation for problems described in {IERC20-approve}. Emits an {Approval} event indicating the updated allowance. Requirements: - `spender` cannot be the zero address. - `spender` must have allowance for the caller of at least `subtractedValue`."
      },
      "getCurrentVotes(address)": {
        "params": {
          "account": ""
        }
      },
      "getPriorVotes(address,uint256)": {
        "params": {
          "account": "",
          "blockNumber": ""
        }
      },
      "increaseAllowance(address,uint256)": {
        "details": "Atomically increases the allowance granted to `spender` by the caller. This is an alternative to {approve} that can be used as a mitigation for problems described in {IERC20-approve}. Emits an {Approval} event indicating the updated allowance. Requirements: - `spender` cannot be the zero address."
      },
      "modifyFee(uint256)": {
        "params": {
          "value": ""
        }
      },
      "name()": {
        "details": "Returns the name of the token."
      },
      "removeFreeUser(address)": {
        "params": {
          "userAddress": ""
        }
      },
      "symbol()": {
        "details": "Returns the symbol of the token, usually a shorter version of the name."
      },
      "totalSupply()": {
        "details": "See {IERC20-totalSupply}."
      },
      "transfer(address,uint256)": {
        "params": {
          "amount": "",
          "recipient": ""
        }
      },
      "transferFrom(address,address,uint256)": {
        "params": {
          "amount": "",
          "recipient": "",
          "sender": ""
        }
      }
    },
    "version": 1
  },
  "userdoc": {
    "kind": "user",
    "methods": {
      "addFreeUser(address)": {
        "notice": ""
      },
      "burn(address,uint256)": {
        "notice": ""
      },
      "changeFeeTo(address)": {
        "notice": ""
      },
      "changeOwner(address)": {
        "notice": " "
      },
      "getCurrentVotes(address)": {
        "notice": ""
      },
      "getPriorVotes(address,uint256)": {
        "notice": ""
      },
      "modifyFee(uint256)": {
        "notice": ""
      },
      "removeFreeUser(address)": {
        "notice": ""
      },
      "transfer(address,uint256)": {
        "notice": ""
      },
      "transferFrom(address,address,uint256)": {
        "notice": ""
      }
    },
    "version": 1
  }
}