{
  "contractName": "RbtDepositOrchestrator",
  "abi": [
    {
      "anonymous": false,
      "inputs": [
        {
          "indexed": true,
          "internalType": "address",
          "name": "previousOwner",
          "type": "address"
        },
        {
          "indexed": true,
          "internalType": "address",
          "name": "newOwner",
          "type": "address"
        }
      ],
      "name": "OwnershipTransferred",
      "type": "event"
    },
    {
      "inputs": [],
      "name": "deposit",
      "outputs": [
        {
          "internalType": "address",
          "name": "",
          "type": "address"
        }
      ],
      "stateMutability": "view",
      "type": "function",
      "constant": true
    },
    {
      "inputs": [],
      "name": "owner",
      "outputs": [
        {
          "internalType": "address",
          "name": "",
          "type": "address"
        }
      ],
      "stateMutability": "view",
      "type": "function",
      "constant": true
    },
    {
      "inputs": [],
      "name": "renounceOwnership",
      "outputs": [],
      "stateMutability": "nonpayable",
      "type": "function"
    },
    {
      "inputs": [
        {
          "internalType": "address",
          "name": "newOwner",
          "type": "address"
        }
      ],
      "name": "transferOwnership",
      "outputs": [],
      "stateMutability": "nonpayable",
      "type": "function"
    },
    {
      "inputs": [
        {
          "internalType": "address",
          "name": "core",
          "type": "address"
        }
      ],
      "name": "init",
      "outputs": [],
      "stateMutability": "nonpayable",
      "type": "function"
    },
    {
      "inputs": [
        {
          "internalType": "address",
          "name": "_bank",
          "type": "address"
        }
      ],
      "name": "input",
      "outputs": [],
      "stateMutability": "nonpayable",
      "type": "function"
    },
    {
      "inputs": [],
      "name": "detonate",
      "outputs": [],
      "stateMutability": "nonpayable",
      "type": "function"
    }
  ],
  "bytecode": "0x608060405234801561001057600080fd5b5061002161001c610026565b61002a565b61007a565b3390565b600080546001600160a01b038381166001600160a01b0319831681178455604051919092169283917f8be0079c531659141344cd1fd0a4f28419497f9722a3daafe3b4186f6b6457e09190a35050565b611b6b806100896000396000f3fe608060405234801561001057600080fd5b506004361061007d5760003560e01c8063b09614d61161005b578063b09614d6146100bd578063d0e30db0146100c5578063f2fde38b146100cd578063f5d28f50146100e05761007d565b806319ab453c14610082578063715018a6146100975780638da5cb5b1461009f575b600080fd5b6100956100903660046103c3565b6100f3565b005b610095610192565b6100a76101dd565b6040516100b491906103f1565b60405180910390f35b6100956101ec565b6100a761023e565b6100956100db3660046103c3565b61024d565b6100956100ee3660046103c3565b6102be565b6100fb610362565b6001600160a01b031661010c6101dd565b6001600160a01b03161461013b5760405162461bcd60e51b81526004016101329061044b565b60405180910390fd5b80604051610148906103b6565b61015291906103f1565b604051809103906000f08015801561016e573d6000803e3d6000fd5b50600180546001600160a01b0319166001600160a01b039290921691909117905550565b61019a610362565b6001600160a01b03166101ab6101dd565b6001600160a01b0316146101d15760405162461bcd60e51b81526004016101329061044b565b6101db6000610366565b565b6000546001600160a01b031690565b6101f4610362565b6001600160a01b03166102056101dd565b6001600160a01b03161461022b5760405162461bcd60e51b81526004016101329061044b565b6102336101dd565b6001600160a01b0316ff5b6001546001600160a01b031681565b610255610362565b6001600160a01b03166102666101dd565b6001600160a01b03161461028c5760405162461bcd60e51b81526004016101329061044b565b6001600160a01b0381166102b25760405162461bcd60e51b815260040161013290610405565b6102bb81610366565b50565b6102c6610362565b6001600160a01b03166102d76101dd565b6001600160a01b0316146102fd5760405162461bcd60e51b81526004016101329061044b565b60015460405163066ad14f60e21b81526001600160a01b03909116906319ab453c9061032d9084906004016103f1565b600060405180830381600087803b15801561034757600080fd5b505af115801561035b573d6000803e3d6000fd5b5050505050565b3390565b600080546001600160a01b038381166001600160a01b0319831681178455604051919092169283917f8be0079c531659141344cd1fd0a4f28419497f9722a3daafe3b4186f6b6457e09190a35050565b6116b58061048183390190565b6000602082840312156103d4578081fd5b81356001600160a01b03811681146103ea578182fd5b9392505050565b6001600160a01b0391909116815260200190565b60208082526026908201527f4f776e61626c653a206e6577206f776e657220697320746865207a65726f206160408201526564647265737360d01b606082015260800190565b6020808252818101527f4f776e61626c653a2063616c6c6572206973206e6f7420746865206f776e657260408201526060019056fe608060405234801561001057600080fd5b506040516116b53803806116b583398101604081905261002f91610054565b600080546001600160a01b0319166001600160a01b0392909216919091179055610082565b600060208284031215610065578081fd5b81516001600160a01b038116811461007b578182fd5b9392505050565b611624806100916000396000f3fe608060405234801561001057600080fd5b50600436106101375760003560e01c80636914db60116100b8578063b88d4fde1161007c578063b88d4fde14610275578063beabacc814610288578063bf81bf431461029b578063e985e9c5146102ae578063f2f4eb26146102ce578063f8e76cc0146102d657610137565b80636914db601461020957806370a0823114610229578063800096301461023c5780638b0d02581461024f578063a22cb4651461026257610137565b806319ab453c116100ff57806319ab453c146101aa5780632f745c59146101bd57806342842e0e146101d057806342966c68146101e35780636352211e146101f657610137565b8063081812fc1461013c578063095ea7b314610165578063135b54dd1461017a578063156e29f61461018257806318160ddd146101a2575b600080fd5b61014f61014a366004611230565b6102e9565b60405161015c9190611248565b60405180910390f35b610178610173366004611171565b610335565b005b61014f610427565b61019561019036600461119c565b6104b3565b60405161015c9190611525565b610195610635565b6101786101b8366004610fd9565b61063b565b6101956101cb366004611171565b61065d565b6101786101de366004611034565b610688565b6101786101f1366004611230565b6106a8565b61014f610204366004611230565b6107b5565b61021c610217366004611230565b610802565b60405161015c91906114e7565b610195610237366004610fd9565b610890565b61017861024a366004610fd9565b6108b1565b61019561025d366004611230565b610995565b610178610270366004611144565b6109db565b610178610283366004611074565b610a73565b610178610296366004611034565b610aac565b6101956102a9366004611230565b610bdd565b6102c16102bc366004610ffc565b610c23565b60405161015c91906112d2565b61014f610c51565b6102c16102e4366004611230565b610c60565b60006102f482610c60565b6103195760405162461bcd60e51b8152600401610310906113ec565b60405180910390fd5b506000908152600560205260409020546001600160a01b031690565b6003818154811061035657634e487b7160e01b600052603260045260246000fd5b60009182526020909120600590910201546001600160a01b0316331461037b57600080fd5b336001600160a01b038316141561039157600080fd5b600081815260056020526040902080546001600160a01b0319166001600160a01b0384169081179091556003805483929190839081106103e157634e487b7160e01b600052603260045260246000fd5b600091825260208220600590910201546040516001600160a01b03909116917f8c5be1e5ebec7d5bd14f71427d1e84f3dd0314c0f7b2291e5b200ac8c7c3b92591a45050565b60008060009054906101000a90046001600160a01b03166001600160a01b03166318f7d8626040518163ffffffff1660e01b815260040160206040518083038186803b15801561047657600080fd5b505afa15801561048a573d6000803e3d6000fd5b505050506040513d601f19601f820116820180604052508101906104ae9190611214565b905090565b6001546000906001600160a01b031633146104e05760405162461bcd60e51b8152600401610310906114c2565b60006104f16401000000004261157c565b60035490915060009061050590600161152e565b905060006105168562278d00611546565b6105269063ffffffff851661152e565b905060006040518060a00160405280896001600160a01b031681526020018481526020018563ffffffff168152602001838152602001888152509050600381908060018154018082558091505060019003906000526020600020906005020160009091909190915060008201518160000160006101000a8154816001600160a01b0302191690836001600160a01b0316021790555060208201518160010155604082015181600201556060820151816003015560808201518160040155505060038054905060028190555061062883600460008b6001600160a01b03166001600160a01b03168152602001908152602001600020610caf90919063ffffffff16565b5091979650505050505050565b60025490565b600180546001600160a01b0319166001600160a01b0392909216919091179055565b6001600160a01b038216600090815260046020526040812061067f9083610cfa565b90505b92915050565b6106a383838360405180602001604052806000815250610a73565b505050565b6001546001600160a01b031633146106d25760405162461bcd60e51b8152600401610310906114c2565b60006106dd826107b5565b6001600160a01b03811660009081526004602052604090209091506107029083610d53565b506003610710600184611565565b8154811061072e57634e487b7160e01b600052603260045260246000fd5b60009182526020822060059091020180546001600160a01b03191681556001808201839055600282018390556003808301849055600490920192909255546107769190611565565b60025560405182906000906001600160a01b038416907fddf252ad1be2c89b69c2b068fc378daa952ba7f163c4a11628f55a4df523b3ef908390a45050565b600060036107c4600184611565565b815481106107e257634e487b7160e01b600052603260045260246000fd5b60009182526020909120600590910201546001600160a01b031692915050565b61080a610fa1565b6003610817600184611565565b8154811061083557634e487b7160e01b600052603260045260246000fd5b60009182526020918290206040805160a081018252600590930290910180546001600160a01b031683526001810154938301939093526002830154908201526003820154606082015260049091015460808201529050919050565b6001600160a01b038116600090815260046020526040812061068290610e73565b600054604051631c86b03760e31b81526001600160a01b039091169063e43581b8906108e1903390600401611248565b60206040518083038186803b1580156108f957600080fd5b505afa15801561090d573d6000803e3d6000fd5b505050506040513d601f19601f8201168201806040525081019061093191906111d0565b61094d5760405162461bcd60e51b815260040161031090611481565b600080546001600160a01b0319166001600160a01b038316908117825560405190917fad9400e618eb1344fde53db22397a1b82c765527ecbba3a5c86bcac15090828b91a250565b600060036109a4600184611565565b815481106109c257634e487b7160e01b600052603260045260246000fd5b9060005260206000209060050201600401549050919050565b6001600160a01b038216331415610a045760405162461bcd60e51b8152600401610310906113b5565b3360008181526006602090815260408083206001600160a01b038716808552925291829020805460ff191685151517905590519091907f17307eab39ab6107e8899845ad3d59bd9653f200f220920489ca2b5937696c3190610a679085906112d2565b60405180910390a35050565b610a7e848484610aac565b610a8a84848484610e77565b610aa65760405162461bcd60e51b81526004016103109061131f565b50505050565b826001600160a01b0316610abf826107b5565b6001600160a01b031614610ae55760405162461bcd60e51b815260040161031090611438565b6001600160a01b038216610b0b5760405162461bcd60e51b815260040161031090611371565b6001600160a01b0383166000908152600460205260409020610b2d9082610d53565b506001600160a01b0382166000908152600460205260409020610b509082610caf565b50816003610b5f600184611565565b81548110610b7d57634e487b7160e01b600052603260045260246000fd5b6000918252602082206005919091020180546001600160a01b0319166001600160a01b03938416179055604051839285811692908716917fddf252ad1be2c89b69c2b068fc378daa952ba7f163c4a11628f55a4df523b3ef9190a4505050565b60006003610bec600184611565565b81548110610c0a57634e487b7160e01b600052603260045260246000fd5b9060005260206000209060050201600301549050919050565b6001600160a01b03918216600090815260066020908152604080832093909416825291909152205460ff1690565b6000546001600160a01b031690565b6000806001600160a01b031660038381548110610c8d57634e487b7160e01b600052603260045260246000fd5b60009182526020909120600590910201546001600160a01b0316141592915050565b6000610cbb8383610f83565b610cf157508154600181810184556000848152602080822090930184905584548482528286019093526040902091909155610682565b50600092915050565b81546000908210610d1d5760405162461bcd60e51b8152600401610310906112dd565b826000018281548110610d4057634e487b7160e01b600052603260045260246000fd5b6000918252602090912001549392505050565b60008181526001830160205260408120548015610e69576000610d77600183611565565b8554909150600090610d8b90600190611565565b90506000866000018281548110610db257634e487b7160e01b600052603260045260246000fd5b9060005260206000200154905080876000018481548110610de357634e487b7160e01b600052603260045260246000fd5b600091825260209091200155610dfa83600161152e565b60008281526001890160205260409020558654879080610e2a57634e487b7160e01b600052603160045260246000fd5b600190038181906000526020600020016000905590558660010160008760001b8152602001908152602001600020600090556001945050505050610682565b5060009392505050565b5490565b6000610e8284610f9b565b15610f7757604051630a85bd0160e11b81526001600160a01b0385169063150b7a0290610eb990339089908890889060040161125c565b602060405180830381600087803b158015610ed357600080fd5b505af1925050508015610f03575060408051601f3d908101601f19168201909252610f00918101906111ec565b60015b610f5d573d808015610f31576040519150601f19603f3d011682016040523d82523d6000602084013e610f36565b606091505b508051610f555760405162461bcd60e51b81526004016103109061131f565b805181602001fd5b6001600160e01b031916630a85bd0160e11b149050610f7b565b5060015b949350505050565b60009081526001919091016020526040902054151590565b3b151590565b6040518060a0016040528060006001600160a01b03168152602001600081526020016000815260200160008152602001600081525090565b600060208284031215610fea578081fd5b8135610ff5816115c8565b9392505050565b6000806040838503121561100e578081fd5b8235611019816115c8565b91506020830135611029816115c8565b809150509250929050565b600080600060608486031215611048578081fd5b8335611053816115c8565b92506020840135611063816115c8565b929592945050506040919091013590565b60008060008060808587031215611089578081fd5b8435611094816115c8565b93506020858101356110a5816115c8565b935060408601359250606086013567ffffffffffffffff808211156110c8578384fd5b818801915088601f8301126110db578384fd5b8135818111156110ed576110ed6115b2565b604051601f8201601f1916810185018381118282101715611110576111106115b2565b60405281815283820185018b1015611126578586fd5b81858501868301379081019093019390935250939692955090935050565b60008060408385031215611156578182fd5b8235611161816115c8565b91506020830135611029816115e0565b60008060408385031215611183578182fd5b823561118e816115c8565b946020939093013593505050565b6000806000606084860312156111b0578283fd5b83356111bb816115c8565b95602085013595506040909401359392505050565b6000602082840312156111e1578081fd5b8151610ff5816115e0565b6000602082840312156111fd578081fd5b81516001600160e01b031981168114610ff5578182fd5b600060208284031215611225578081fd5b8151610ff5816115c8565b600060208284031215611241578081fd5b5035919050565b6001600160a01b0391909116815260200190565b600060018060a01b0380871683526020818716818501528560408501526080606085015284519150816080850152825b828110156112a85785810182015185820160a00152810161128c565b828111156112b9578360a084870101525b5050601f01601f19169190910160a00195945050505050565b901515815260200190565b60208082526022908201527f456e756d657261626c655365743a20696e646578206f7574206f6620626f756e604082015261647360f01b606082015260800190565b60208082526032908201527f4552433732313a207472616e7366657220746f206e6f6e20455243373231526560408201527131b2b4bb32b91034b6b83632b6b2b73a32b960711b606082015260800190565b60208082526024908201527f4552433732313a207472616e7366657220746f20746865207a65726f206164646040820152637265737360e01b606082015260800190565b60208082526019908201527f4552433732313a20617070726f766520746f2063616c6c657200000000000000604082015260600190565b6020808252602c908201527f4552433732313a20617070726f76656420717565727920666f72206e6f6e657860408201526b34b9ba32b73a103a37b5b2b760a11b606082015260800190565b60208082526029908201527f4552433732313a207472616e73666572206f6620746f6b656e2074686174206960408201526839903737ba1037bbb760b91b606082015260800190565b60208082526021908201527f436f72655265663a2043616c6c6572206973206e6f74206120676f7665726e6f6040820152603960f91b606082015260800190565b6020808252600b908201526a6973206e6f742062616e6b60a81b604082015260600190565b81516001600160a01b031681526020808301519082015260408083015190820152606080830151908201526080918201519181019190915260a00190565b90815260200190565b600082198211156115415761154161159c565b500190565b60008160001904831182151516156115605761156061159c565b500290565b6000828210156115775761157761159c565b500390565b60008261159757634e487b7160e01b81526012600452602481fd5b500690565b634e487b7160e01b600052601160045260246000fd5b634e487b7160e01b600052604160045260246000fd5b6001600160a01b03811681146115dd57600080fd5b50565b80151581146115dd57600080fdfea2646970667358221220c5499322af91b847e5e54ba1b597379e313cb1bed522fd7a0032d8c2403657cd64736f6c63430008000033a264697066735822122042238a2b26631a4aaa7cad8e1b1ad380bddc25e0155fcbd9657ca6411bfe582964736f6c63430008000033",
  "immutableReferences": {},
  "source": "pragma solidity ^0.8.0;\r\npragma experimental ABIEncoderV2;\r\n\r\nimport \"@openzeppelin/contracts/access/Ownable.sol\";\r\nimport \"../token721/RbtDeposit721.sol\";\r\n\r\n\r\ncontract RbtDepositOrchestrator is  Ownable{\r\n    address public deposit;\r\n    function init( address core) public  onlyOwner{\r\n        deposit= address(new RbtDeposit721(core));\r\n    }\r\n    function input(address _bank) public onlyOwner {\r\n        RbtDeposit721(deposit).init(_bank);\r\n    }\r\n    function detonate() public  onlyOwner {\r\n        selfdestruct(payable(owner()));\r\n    }\r\n    \r\n}",
  "sourcePath": "D://rainbow/RainbowDao-protocol/contracts/orchestrator/RbtDepositOrchestrator.sol",
  "compiler": {
    "name": "solc",
    "version": "0.8.0+commit.c7dfd78e.Emscripten.clang"
  },
  "schemaVersion": "3.4.1",
  "updatedAt": "2021-10-16T03:51:57.471Z",
  "networkType": "ethereum",
  "devdoc": {
    "kind": "dev",
    "methods": {
      "owner()": {
        "details": "Returns the address of the current owner."
      },
      "renounceOwnership()": {
        "details": "Leaves the contract without owner. It will not be possible to call `onlyOwner` functions anymore. Can only be called by the current owner. NOTE: Renouncing ownership will leave the contract without an owner, thereby removing any functionality that is only available to the owner."
      },
      "transferOwnership(address)": {
        "details": "Transfers ownership of the contract to a new account (`newOwner`). Can only be called by the current owner."
      }
    },
    "version": 1
  },
  "userdoc": {
    "kind": "user",
    "methods": {},
    "version": 1
  }
}