{
  "contractName": "RbtDeposit721",
  "abi": [
    {
      "inputs": [
        {
          "internalType": "address",
          "name": "core",
          "type": "address"
        }
      ],
      "stateMutability": "nonpayable",
      "type": "constructor"
    },
    {
      "anonymous": false,
      "inputs": [
        {
          "indexed": true,
          "internalType": "address",
          "name": "owner",
          "type": "address"
        },
        {
          "indexed": true,
          "internalType": "address",
          "name": "approved",
          "type": "address"
        },
        {
          "indexed": true,
          "internalType": "uint256",
          "name": "tokenId",
          "type": "uint256"
        }
      ],
      "name": "Approval",
      "type": "event"
    },
    {
      "anonymous": false,
      "inputs": [
        {
          "indexed": true,
          "internalType": "address",
          "name": "owner",
          "type": "address"
        },
        {
          "indexed": true,
          "internalType": "address",
          "name": "operator",
          "type": "address"
        },
        {
          "indexed": false,
          "internalType": "bool",
          "name": "approved",
          "type": "bool"
        }
      ],
      "name": "ApprovalForAll",
      "type": "event"
    },
    {
      "anonymous": false,
      "inputs": [
        {
          "indexed": true,
          "internalType": "address",
          "name": "_core",
          "type": "address"
        }
      ],
      "name": "CoreUpdate",
      "type": "event"
    },
    {
      "anonymous": false,
      "inputs": [
        {
          "indexed": true,
          "internalType": "address",
          "name": "from",
          "type": "address"
        },
        {
          "indexed": true,
          "internalType": "address",
          "name": "to",
          "type": "address"
        },
        {
          "indexed": true,
          "internalType": "uint256",
          "name": "tokenId",
          "type": "uint256"
        }
      ],
      "name": "Transfer",
      "type": "event"
    },
    {
      "inputs": [],
      "name": "Rbt",
      "outputs": [
        {
          "internalType": "contract IERC20",
          "name": "",
          "type": "address"
        }
      ],
      "stateMutability": "view",
      "type": "function"
    },
    {
      "inputs": [],
      "name": "core",
      "outputs": [
        {
          "internalType": "contract ICore",
          "name": "",
          "type": "address"
        }
      ],
      "stateMutability": "view",
      "type": "function"
    },
    {
      "inputs": [
        {
          "internalType": "address",
          "name": "core",
          "type": "address"
        }
      ],
      "name": "setCore",
      "outputs": [],
      "stateMutability": "nonpayable",
      "type": "function"
    },
    {
      "inputs": [
        {
          "internalType": "address",
          "name": "_bank",
          "type": "address"
        }
      ],
      "name": "init",
      "outputs": [],
      "stateMutability": "nonpayable",
      "type": "function"
    },
    {
      "inputs": [
        {
          "internalType": "address",
          "name": "to",
          "type": "address"
        },
        {
          "internalType": "uint256",
          "name": "amounts",
          "type": "uint256"
        },
        {
          "internalType": "uint256",
          "name": "month",
          "type": "uint256"
        }
      ],
      "name": "mint",
      "outputs": [
        {
          "internalType": "uint256",
          "name": "",
          "type": "uint256"
        }
      ],
      "stateMutability": "nonpayable",
      "type": "function"
    },
    {
      "inputs": [
        {
          "internalType": "uint256",
          "name": "tokenId",
          "type": "uint256"
        }
      ],
      "name": "burn",
      "outputs": [],
      "stateMutability": "nonpayable",
      "type": "function"
    },
    {
      "inputs": [
        {
          "internalType": "uint256",
          "name": "_tokenId",
          "type": "uint256"
        }
      ],
      "name": "ownerOf",
      "outputs": [
        {
          "internalType": "address",
          "name": "owner",
          "type": "address"
        }
      ],
      "stateMutability": "view",
      "type": "function"
    },
    {
      "inputs": [],
      "name": "totalSupply",
      "outputs": [
        {
          "internalType": "uint256",
          "name": "totalSupply",
          "type": "uint256"
        }
      ],
      "stateMutability": "view",
      "type": "function"
    },
    {
      "inputs": [
        {
          "internalType": "address",
          "name": "_owner",
          "type": "address"
        }
      ],
      "name": "balanceOf",
      "outputs": [
        {
          "internalType": "uint256",
          "name": "balance",
          "type": "uint256"
        }
      ],
      "stateMutability": "view",
      "type": "function"
    },
    {
      "inputs": [
        {
          "internalType": "uint256",
          "name": "tokenId",
          "type": "uint256"
        }
      ],
      "name": "amount",
      "outputs": [
        {
          "internalType": "uint256",
          "name": "",
          "type": "uint256"
        }
      ],
      "stateMutability": "view",
      "type": "function"
    },
    {
      "inputs": [
        {
          "internalType": "uint256",
          "name": "tokenId",
          "type": "uint256"
        }
      ],
      "name": "expire",
      "outputs": [
        {
          "internalType": "uint256",
          "name": "",
          "type": "uint256"
        }
      ],
      "stateMutability": "view",
      "type": "function"
    },
    {
      "inputs": [
        {
          "internalType": "uint256",
          "name": "tokenId",
          "type": "uint256"
        }
      ],
      "name": "_exists",
      "outputs": [
        {
          "internalType": "bool",
          "name": "",
          "type": "bool"
        }
      ],
      "stateMutability": "view",
      "type": "function"
    },
    {
      "inputs": [
        {
          "internalType": "address",
          "name": "owner",
          "type": "address"
        },
        {
          "internalType": "uint256",
          "name": "index",
          "type": "uint256"
        }
      ],
      "name": "tokenOfOwnerByIndex",
      "outputs": [
        {
          "internalType": "uint256",
          "name": "",
          "type": "uint256"
        }
      ],
      "stateMutability": "view",
      "type": "function"
    },
    {
      "inputs": [
        {
          "internalType": "uint256",
          "name": "_tokenId",
          "type": "uint256"
        }
      ],
      "name": "tokenMetadata",
      "outputs": [
        {
          "components": [
            {
              "internalType": "address",
              "name": "owner",
              "type": "address"
            },
            {
              "internalType": "uint256",
              "name": "tokenId",
              "type": "uint256"
            },
            {
              "internalType": "uint256",
              "name": "startTime",
              "type": "uint256"
            },
            {
              "internalType": "uint256",
              "name": "expireTime",
              "type": "uint256"
            },
            {
              "internalType": "uint256",
              "name": "amount",
              "type": "uint256"
            }
          ],
          "internalType": "struct RbtDeposit721.Deposit",
          "name": "",
          "type": "tuple"
        }
      ],
      "stateMutability": "view",
      "type": "function"
    },
    {
      "inputs": [
        {
          "internalType": "address",
          "name": "_from",
          "type": "address"
        },
        {
          "internalType": "address",
          "name": "_to",
          "type": "address"
        },
        {
          "internalType": "uint256",
          "name": "_tokenId",
          "type": "uint256"
        }
      ],
      "name": "transfer",
      "outputs": [],
      "stateMutability": "nonpayable",
      "type": "function"
    },
    {
      "inputs": [
        {
          "internalType": "address",
          "name": "_to",
          "type": "address"
        },
        {
          "internalType": "uint256",
          "name": "_tokenId",
          "type": "uint256"
        }
      ],
      "name": "approve",
      "outputs": [],
      "stateMutability": "nonpayable",
      "type": "function"
    },
    {
      "inputs": [
        {
          "internalType": "uint256",
          "name": "tokenId",
          "type": "uint256"
        }
      ],
      "name": "getApproved",
      "outputs": [
        {
          "internalType": "address",
          "name": "",
          "type": "address"
        }
      ],
      "stateMutability": "view",
      "type": "function"
    },
    {
      "inputs": [
        {
          "internalType": "address",
          "name": "operator",
          "type": "address"
        },
        {
          "internalType": "bool",
          "name": "approved",
          "type": "bool"
        }
      ],
      "name": "setApprovalForAll",
      "outputs": [],
      "stateMutability": "nonpayable",
      "type": "function"
    },
    {
      "inputs": [
        {
          "internalType": "address",
          "name": "owner",
          "type": "address"
        },
        {
          "internalType": "address",
          "name": "operator",
          "type": "address"
        }
      ],
      "name": "isApprovedForAll",
      "outputs": [
        {
          "internalType": "bool",
          "name": "",
          "type": "bool"
        }
      ],
      "stateMutability": "view",
      "type": "function"
    },
    {
      "inputs": [
        {
          "internalType": "address",
          "name": "from",
          "type": "address"
        },
        {
          "internalType": "address",
          "name": "to",
          "type": "address"
        },
        {
          "internalType": "uint256",
          "name": "tokenId",
          "type": "uint256"
        }
      ],
      "name": "safeTransferFrom",
      "outputs": [],
      "stateMutability": "nonpayable",
      "type": "function"
    },
    {
      "inputs": [
        {
          "internalType": "address",
          "name": "from",
          "type": "address"
        },
        {
          "internalType": "address",
          "name": "to",
          "type": "address"
        },
        {
          "internalType": "uint256",
          "name": "tokenId",
          "type": "uint256"
        },
        {
          "internalType": "bytes",
          "name": "_data",
          "type": "bytes"
        }
      ],
      "name": "safeTransferFrom",
      "outputs": [],
      "stateMutability": "nonpayable",
      "type": "function"
    }
  ],
  "bytecode": "0x608060405234801561001057600080fd5b506040516116b53803806116b583398101604081905261002f91610054565b600080546001600160a01b0319166001600160a01b0392909216919091179055610082565b600060208284031215610065578081fd5b81516001600160a01b038116811461007b578182fd5b9392505050565b611624806100916000396000f3fe608060405234801561001057600080fd5b50600436106101375760003560e01c80636914db60116100b8578063b88d4fde1161007c578063b88d4fde14610275578063beabacc814610288578063bf81bf431461029b578063e985e9c5146102ae578063f2f4eb26146102ce578063f8e76cc0146102d657610137565b80636914db601461020957806370a0823114610229578063800096301461023c5780638b0d02581461024f578063a22cb4651461026257610137565b806319ab453c116100ff57806319ab453c146101aa5780632f745c59146101bd57806342842e0e146101d057806342966c68146101e35780636352211e146101f657610137565b8063081812fc1461013c578063095ea7b314610165578063135b54dd1461017a578063156e29f61461018257806318160ddd146101a2575b600080fd5b61014f61014a366004611230565b6102e9565b60405161015c9190611248565b60405180910390f35b610178610173366004611171565b610335565b005b61014f610427565b61019561019036600461119c565b6104b3565b60405161015c9190611525565b610195610635565b6101786101b8366004610fd9565b61063b565b6101956101cb366004611171565b61065d565b6101786101de366004611034565b610688565b6101786101f1366004611230565b6106a8565b61014f610204366004611230565b6107b5565b61021c610217366004611230565b610802565b60405161015c91906114e7565b610195610237366004610fd9565b610890565b61017861024a366004610fd9565b6108b1565b61019561025d366004611230565b610995565b610178610270366004611144565b6109db565b610178610283366004611074565b610a73565b610178610296366004611034565b610aac565b6101956102a9366004611230565b610bdd565b6102c16102bc366004610ffc565b610c23565b60405161015c91906112d2565b61014f610c51565b6102c16102e4366004611230565b610c60565b60006102f482610c60565b6103195760405162461bcd60e51b8152600401610310906113ec565b60405180910390fd5b506000908152600560205260409020546001600160a01b031690565b6003818154811061035657634e487b7160e01b600052603260045260246000fd5b60009182526020909120600590910201546001600160a01b0316331461037b57600080fd5b336001600160a01b038316141561039157600080fd5b600081815260056020526040902080546001600160a01b0319166001600160a01b0384169081179091556003805483929190839081106103e157634e487b7160e01b600052603260045260246000fd5b600091825260208220600590910201546040516001600160a01b03909116917f8c5be1e5ebec7d5bd14f71427d1e84f3dd0314c0f7b2291e5b200ac8c7c3b92591a45050565b60008060009054906101000a90046001600160a01b03166001600160a01b03166318f7d8626040518163ffffffff1660e01b815260040160206040518083038186803b15801561047657600080fd5b505afa15801561048a573d6000803e3d6000fd5b505050506040513d601f19601f820116820180604052508101906104ae9190611214565b905090565b6001546000906001600160a01b031633146104e05760405162461bcd60e51b8152600401610310906114c2565b60006104f16401000000004261157c565b60035490915060009061050590600161152e565b905060006105168562278d00611546565b6105269063ffffffff851661152e565b905060006040518060a00160405280896001600160a01b031681526020018481526020018563ffffffff168152602001838152602001888152509050600381908060018154018082558091505060019003906000526020600020906005020160009091909190915060008201518160000160006101000a8154816001600160a01b0302191690836001600160a01b0316021790555060208201518160010155604082015181600201556060820151816003015560808201518160040155505060038054905060028190555061062883600460008b6001600160a01b03166001600160a01b03168152602001908152602001600020610caf90919063ffffffff16565b5091979650505050505050565b60025490565b600180546001600160a01b0319166001600160a01b0392909216919091179055565b6001600160a01b038216600090815260046020526040812061067f9083610cfa565b90505b92915050565b6106a383838360405180602001604052806000815250610a73565b505050565b6001546001600160a01b031633146106d25760405162461bcd60e51b8152600401610310906114c2565b60006106dd826107b5565b6001600160a01b03811660009081526004602052604090209091506107029083610d53565b506003610710600184611565565b8154811061072e57634e487b7160e01b600052603260045260246000fd5b60009182526020822060059091020180546001600160a01b03191681556001808201839055600282018390556003808301849055600490920192909255546107769190611565565b60025560405182906000906001600160a01b038416907fddf252ad1be2c89b69c2b068fc378daa952ba7f163c4a11628f55a4df523b3ef908390a45050565b600060036107c4600184611565565b815481106107e257634e487b7160e01b600052603260045260246000fd5b60009182526020909120600590910201546001600160a01b031692915050565b61080a610fa1565b6003610817600184611565565b8154811061083557634e487b7160e01b600052603260045260246000fd5b60009182526020918290206040805160a081018252600590930290910180546001600160a01b031683526001810154938301939093526002830154908201526003820154606082015260049091015460808201529050919050565b6001600160a01b038116600090815260046020526040812061068290610e73565b600054604051631c86b03760e31b81526001600160a01b039091169063e43581b8906108e1903390600401611248565b60206040518083038186803b1580156108f957600080fd5b505afa15801561090d573d6000803e3d6000fd5b505050506040513d601f19601f8201168201806040525081019061093191906111d0565b61094d5760405162461bcd60e51b815260040161031090611481565b600080546001600160a01b0319166001600160a01b038316908117825560405190917fad9400e618eb1344fde53db22397a1b82c765527ecbba3a5c86bcac15090828b91a250565b600060036109a4600184611565565b815481106109c257634e487b7160e01b600052603260045260246000fd5b9060005260206000209060050201600401549050919050565b6001600160a01b038216331415610a045760405162461bcd60e51b8152600401610310906113b5565b3360008181526006602090815260408083206001600160a01b038716808552925291829020805460ff191685151517905590519091907f17307eab39ab6107e8899845ad3d59bd9653f200f220920489ca2b5937696c3190610a679085906112d2565b60405180910390a35050565b610a7e848484610aac565b610a8a84848484610e77565b610aa65760405162461bcd60e51b81526004016103109061131f565b50505050565b826001600160a01b0316610abf826107b5565b6001600160a01b031614610ae55760405162461bcd60e51b815260040161031090611438565b6001600160a01b038216610b0b5760405162461bcd60e51b815260040161031090611371565b6001600160a01b0383166000908152600460205260409020610b2d9082610d53565b506001600160a01b0382166000908152600460205260409020610b509082610caf565b50816003610b5f600184611565565b81548110610b7d57634e487b7160e01b600052603260045260246000fd5b6000918252602082206005919091020180546001600160a01b0319166001600160a01b03938416179055604051839285811692908716917fddf252ad1be2c89b69c2b068fc378daa952ba7f163c4a11628f55a4df523b3ef9190a4505050565b60006003610bec600184611565565b81548110610c0a57634e487b7160e01b600052603260045260246000fd5b9060005260206000209060050201600301549050919050565b6001600160a01b03918216600090815260066020908152604080832093909416825291909152205460ff1690565b6000546001600160a01b031690565b6000806001600160a01b031660038381548110610c8d57634e487b7160e01b600052603260045260246000fd5b60009182526020909120600590910201546001600160a01b0316141592915050565b6000610cbb8383610f83565b610cf157508154600181810184556000848152602080822090930184905584548482528286019093526040902091909155610682565b50600092915050565b81546000908210610d1d5760405162461bcd60e51b8152600401610310906112dd565b826000018281548110610d4057634e487b7160e01b600052603260045260246000fd5b6000918252602090912001549392505050565b60008181526001830160205260408120548015610e69576000610d77600183611565565b8554909150600090610d8b90600190611565565b90506000866000018281548110610db257634e487b7160e01b600052603260045260246000fd5b9060005260206000200154905080876000018481548110610de357634e487b7160e01b600052603260045260246000fd5b600091825260209091200155610dfa83600161152e565b60008281526001890160205260409020558654879080610e2a57634e487b7160e01b600052603160045260246000fd5b600190038181906000526020600020016000905590558660010160008760001b8152602001908152602001600020600090556001945050505050610682565b5060009392505050565b5490565b6000610e8284610f9b565b15610f7757604051630a85bd0160e11b81526001600160a01b0385169063150b7a0290610eb990339089908890889060040161125c565b602060405180830381600087803b158015610ed357600080fd5b505af1925050508015610f03575060408051601f3d908101601f19168201909252610f00918101906111ec565b60015b610f5d573d808015610f31576040519150601f19603f3d011682016040523d82523d6000602084013e610f36565b606091505b508051610f555760405162461bcd60e51b81526004016103109061131f565b805181602001fd5b6001600160e01b031916630a85bd0160e11b149050610f7b565b5060015b949350505050565b60009081526001919091016020526040902054151590565b3b151590565b6040518060a0016040528060006001600160a01b03168152602001600081526020016000815260200160008152602001600081525090565b600060208284031215610fea578081fd5b8135610ff5816115c8565b9392505050565b6000806040838503121561100e578081fd5b8235611019816115c8565b91506020830135611029816115c8565b809150509250929050565b600080600060608486031215611048578081fd5b8335611053816115c8565b92506020840135611063816115c8565b929592945050506040919091013590565b60008060008060808587031215611089578081fd5b8435611094816115c8565b93506020858101356110a5816115c8565b935060408601359250606086013567ffffffffffffffff808211156110c8578384fd5b818801915088601f8301126110db578384fd5b8135818111156110ed576110ed6115b2565b604051601f8201601f1916810185018381118282101715611110576111106115b2565b60405281815283820185018b1015611126578586fd5b81858501868301379081019093019390935250939692955090935050565b60008060408385031215611156578182fd5b8235611161816115c8565b91506020830135611029816115e0565b60008060408385031215611183578182fd5b823561118e816115c8565b946020939093013593505050565b6000806000606084860312156111b0578283fd5b83356111bb816115c8565b95602085013595506040909401359392505050565b6000602082840312156111e1578081fd5b8151610ff5816115e0565b6000602082840312156111fd578081fd5b81516001600160e01b031981168114610ff5578182fd5b600060208284031215611225578081fd5b8151610ff5816115c8565b600060208284031215611241578081fd5b5035919050565b6001600160a01b0391909116815260200190565b600060018060a01b0380871683526020818716818501528560408501526080606085015284519150816080850152825b828110156112a85785810182015185820160a00152810161128c565b828111156112b9578360a084870101525b5050601f01601f19169190910160a00195945050505050565b901515815260200190565b60208082526022908201527f456e756d657261626c655365743a20696e646578206f7574206f6620626f756e604082015261647360f01b606082015260800190565b60208082526032908201527f4552433732313a207472616e7366657220746f206e6f6e20455243373231526560408201527131b2b4bb32b91034b6b83632b6b2b73a32b960711b606082015260800190565b60208082526024908201527f4552433732313a207472616e7366657220746f20746865207a65726f206164646040820152637265737360e01b606082015260800190565b60208082526019908201527f4552433732313a20617070726f766520746f2063616c6c657200000000000000604082015260600190565b6020808252602c908201527f4552433732313a20617070726f76656420717565727920666f72206e6f6e657860408201526b34b9ba32b73a103a37b5b2b760a11b606082015260800190565b60208082526029908201527f4552433732313a207472616e73666572206f6620746f6b656e2074686174206960408201526839903737ba1037bbb760b91b606082015260800190565b60208082526021908201527f436f72655265663a2043616c6c6572206973206e6f74206120676f7665726e6f6040820152603960f91b606082015260800190565b6020808252600b908201526a6973206e6f742062616e6b60a81b604082015260600190565b81516001600160a01b031681526020808301519082015260408083015190820152606080830151908201526080918201519181019190915260a00190565b90815260200190565b600082198211156115415761154161159c565b500190565b60008160001904831182151516156115605761156061159c565b500290565b6000828210156115775761157761159c565b500390565b60008261159757634e487b7160e01b81526012600452602481fd5b500690565b634e487b7160e01b600052601160045260246000fd5b634e487b7160e01b600052604160045260246000fd5b6001600160a01b03811681146115dd57600080fd5b50565b80151581146115dd57600080fdfea2646970667358221220c5499322af91b847e5e54ba1b597379e313cb1bed522fd7a0032d8c2403657cd64736f6c63430008000033",
  "immutableReferences": {},
  "source": "pragma solidity ^0.8.0;\r\nimport \"../interface/token721/IRbtDeposit721.sol\";\r\nimport \"../lib/TokenSet.sol\";\r\nimport \"../interface/token721/IERC721Receiver.sol\";\r\nimport \"../interface/bank/IRbBank.sol\";\r\nimport \"../ref/CoreRef.sol\";\r\n\r\n//\r\ncontract RbtDeposit721 is CoreRef,IRbtDeposit721 {\r\n    using Set for Set.TokenIdSet;//set\r\n    struct Deposit{\r\n        address owner;\r\n        uint tokenId;\r\n        uint startTime;\r\n        uint expireTime;\r\n        uint amount;\r\n    }\r\n    \r\n     //\r\n    constructor(address core)CoreRef(core){}\r\n    \r\n    function init(address _bank) external {\r\n        bank =_bank;\r\n    }\r\n\r\n    //\r\n    address bank;\r\n    //\r\n    uint Lengths;\r\n    Deposit[] private list ;\r\n    mapping(address=>Set.TokenIdSet) userToken ;\r\n    mapping (uint256 => address) private _tokenApprovals;// tokenId----\r\n    //\r\n    mapping (address => mapping (address => bool)) private _operatorApprovals;\r\n   \r\n    /*\r\n    * _isBank\r\n    */\r\n    function mint(address to,  uint amounts, uint month) onlyBank external override returns(uint) {\r\n        //unit32\r\n        uint32 blockTime = uint32(block.timestamp % 2 ** 32);\r\n        //1\r\n        uint256 tokenId = list.length+1;\r\n        uint expireTime=blockTime +(month*2592000);\r\n        Deposit memory record = Deposit({\r\n            owner : to,\r\n            tokenId : tokenId,\r\n            startTime:blockTime,\r\n            expireTime:expireTime,\r\n            amount: amounts\r\n        });\r\n        list.push(record);\r\n        Lengths=list.length;\r\n        userToken[to].add(tokenId);\r\n        return  tokenId;\r\n    }\r\n\r\n    //\r\n    function burn(uint256 tokenId) onlyBank external override  virtual {\r\n        address owner = ownerOf(tokenId);\r\n        userToken[owner].remove(tokenId);\r\n        delete list[tokenId-1];\r\n        Lengths=list.length-1;\r\n        emit Transfer(owner, address(0), tokenId);\r\n    }\r\n    \r\n    //tokenid\r\n    function ownerOf(uint256 _tokenId) public view override returns (address owner){\r\n        owner=list[_tokenId-1].owner;\r\n    }\r\n    //\r\n    function totalSupply() public view returns (uint256 totalSupply){\r\n        totalSupply=Lengths;\r\n    }\r\n\r\n    //\r\n    function balanceOf(address _owner) public view override returns (uint balance){\r\n        balance=userToken[_owner].length();\r\n    }\r\n\r\n    //\r\n    function amount(uint256 tokenId) public view override returns(uint){\r\n        return  list[tokenId-1].amount;\r\n    }\r\n    \r\n     //\r\n    function expire(uint256 tokenId) public view override returns(uint){\r\n        return  list[tokenId-1].expireTime;\r\n    }\r\n    \r\n    //tokenId\r\n    function _exists(uint256 tokenId) public view override returns (bool) {\r\n        return list[tokenId].owner != address(0);\r\n    }\r\n    \r\n     //tokenidtoken\r\n     function tokenOfOwnerByIndex(address owner, uint256 index) public view override returns (uint256) {\r\n        return userToken[owner].at(index);\r\n    }\r\n    \r\n    //\r\n    function tokenMetadata(uint _tokenId) public view  returns (Deposit memory ) {\r\n        return list[_tokenId-1];\r\n    }\r\n\r\n    //\r\n    function transfer(address _from, address _to, uint256 _tokenId) public  {\r\n        require(ownerOf(_tokenId) == _from, \"ERC721: transfer of token that is not own\");\r\n        require(_to != address(0), \"ERC721: transfer to the zero address\");\r\n        userToken[_from].remove(_tokenId);\r\n        userToken[_to].add(_tokenId);\r\n        list[_tokenId-1].owner=_to;\r\n        emit Transfer(_from, _to, _tokenId);\r\n    }\r\n    \r\n    //_to_tokenIdApproval    \r\n    function approve(address _to, uint256 _tokenId)public override {\r\n        require(msg.sender == list[_tokenId].owner);\r\n        require(msg.sender != _to);//\r\n        _tokenApprovals[_tokenId] = _to;\r\n        emit Approval(list[_tokenId].owner, _to, _tokenId);\r\n    }\r\n    \r\n    //\r\n    function _isApprovedOrOwner(address spender, uint256 tokenId) internal view returns (bool) {\r\n        require(_exists(tokenId), \"ERC721: operator query for nonexistent token\");\r\n        address owner = ownerOf(tokenId);\r\n        return (spender == owner || getApproved(tokenId) == spender || isApprovedForAll(owner, spender));\r\n    }\r\n    \r\n     //\r\n    function getApproved(uint256 tokenId) public view override returns (address) {\r\n        require(_exists(tokenId), \"ERC721: approved query for nonexistent token\");\r\n        return _tokenApprovals[tokenId];\r\n    }\r\n    \r\n    //_operatorNFTsApprovalForAll\r\n    function setApprovalForAll(address operator, bool approved) public override virtual  {\r\n        require(operator != msg.sender, \"ERC721: approve to caller\");\r\n        _operatorApprovals[msg.sender][operator] = approved;\r\n        emit ApprovalForAll(msg.sender, operator, approved);\r\n    }\r\n    \r\n     //\r\n    function isApprovedForAll(address owner, address operator) public view override returns (bool) {\r\n        return _operatorApprovals[owner][operator];\r\n    }\r\n    \r\n    //NFT\r\n     function safeTransferFrom(address from, address to, uint256 tokenId, bytes memory _data) public override virtual   {\r\n        transfer(from, to, tokenId);\r\n        require(_checkOnERC721Received(from, to, tokenId, _data), \"ERC721: transfer to non ERC721Receiver implementer\");\r\n    }\r\n    \r\n    //NFT\r\n    function safeTransferFrom(address from, address to, uint256 tokenId) public override virtual  {\r\n        safeTransferFrom(from, to, tokenId, \"\");\r\n    }\r\n    \r\n    //,,\r\n     function _checkOnERC721Received(address from, address to, uint256 tokenId, bytes memory _data)\r\n        private returns (bool)\r\n    {\r\n        if (isContract(to)) {\r\n            try IERC721Receiver(to).onERC721Received(msg.sender, from, tokenId, _data) returns (bytes4 retval) {\r\n                return retval == IERC721Receiver(to).onERC721Received.selector;\r\n            } catch (bytes memory reason) {\r\n                if (reason.length == 0) {\r\n                    revert(\"ERC721: transfer to non ERC721Receiver implementer\");\r\n                } else {\r\n                    assembly {\r\n                        revert(add(32, reason), mload(reason))\r\n                    }\r\n                }\r\n            }\r\n        } \r\n         return true;\r\n    }\r\n\r\n    //contract\r\n    function isContract(address account) internal view returns (bool) {\r\n        uint256 size;\r\n        assembly { size := extcodesize(account) }\r\n        return size > 0;\r\n    }\r\n    \r\n    //\r\n    modifier onlyBank {\r\n        require(msg.sender==bank, \"is not bank\");\r\n        _;\r\n    }\r\n}",
  "sourcePath": "D://rainbow/RainbowDao-protocol/contracts/token721/RbtDeposit721.sol",
  "compiler": {
    "name": "solc",
    "version": "0.8.0+commit.c7dfd78e.Emscripten.clang"
  },
  "schemaVersion": "3.4.1",
  "updatedAt": "2021-10-16T03:51:57.488Z",
  "networkType": "ethereum",
  "devdoc": {
    "kind": "dev",
    "methods": {
      "Rbt()": {
        "returns": {
          "_0": "IFei implementation address"
        }
      },
      "core()": {
        "returns": {
          "_0": "ICore implementation address"
        }
      }
    },
    "version": 1
  },
  "userdoc": {
    "kind": "user",
    "methods": {
      "Rbt()": {
        "notice": "address of the Fei contract referenced by Core"
      },
      "core()": {
        "notice": "address of the Core contract referenced"
      }
    },
    "version": 1
  }
}