{
  "contractName": "RBTSeed",
  "abi": [
    {
      "inputs": [
        {
          "internalType": "address",
          "name": "manager",
          "type": "address"
        }
      ],
      "stateMutability": "nonpayable",
      "type": "constructor"
    },
    {
      "anonymous": false,
      "inputs": [
        {
          "indexed": true,
          "internalType": "address",
          "name": "Admin",
          "type": "address"
        },
        {
          "indexed": true,
          "internalType": "address",
          "name": "newAdmin",
          "type": "address"
        }
      ],
      "name": "AdminChange",
      "type": "event"
    },
    {
      "anonymous": false,
      "inputs": [
        {
          "indexed": true,
          "internalType": "address",
          "name": "owner",
          "type": "address"
        },
        {
          "indexed": true,
          "internalType": "address",
          "name": "spender",
          "type": "address"
        },
        {
          "indexed": false,
          "internalType": "uint256",
          "name": "value",
          "type": "uint256"
        }
      ],
      "name": "Approval",
      "type": "event"
    },
    {
      "anonymous": false,
      "inputs": [
        {
          "indexed": true,
          "internalType": "address",
          "name": "from",
          "type": "address"
        },
        {
          "indexed": true,
          "internalType": "address",
          "name": "to",
          "type": "address"
        },
        {
          "indexed": false,
          "internalType": "uint256",
          "name": "value",
          "type": "uint256"
        }
      ],
      "name": "Transfer",
      "type": "event"
    },
    {
      "inputs": [],
      "name": "admin",
      "outputs": [
        {
          "internalType": "address",
          "name": "",
          "type": "address"
        }
      ],
      "stateMutability": "view",
      "type": "function"
    },
    {
      "inputs": [
        {
          "internalType": "address",
          "name": "owner",
          "type": "address"
        },
        {
          "internalType": "address",
          "name": "spender",
          "type": "address"
        }
      ],
      "name": "allowance",
      "outputs": [
        {
          "internalType": "uint256",
          "name": "",
          "type": "uint256"
        }
      ],
      "stateMutability": "view",
      "type": "function"
    },
    {
      "inputs": [
        {
          "internalType": "address",
          "name": "spender",
          "type": "address"
        },
        {
          "internalType": "uint256",
          "name": "amount",
          "type": "uint256"
        }
      ],
      "name": "approve",
      "outputs": [
        {
          "internalType": "bool",
          "name": "",
          "type": "bool"
        }
      ],
      "stateMutability": "nonpayable",
      "type": "function"
    },
    {
      "inputs": [
        {
          "internalType": "address",
          "name": "account",
          "type": "address"
        }
      ],
      "name": "balanceOf",
      "outputs": [
        {
          "internalType": "uint256",
          "name": "",
          "type": "uint256"
        }
      ],
      "stateMutability": "view",
      "type": "function"
    },
    {
      "inputs": [],
      "name": "decimals",
      "outputs": [
        {
          "internalType": "uint8",
          "name": "",
          "type": "uint8"
        }
      ],
      "stateMutability": "view",
      "type": "function"
    },
    {
      "inputs": [
        {
          "internalType": "address",
          "name": "spender",
          "type": "address"
        },
        {
          "internalType": "uint256",
          "name": "subtractedValue",
          "type": "uint256"
        }
      ],
      "name": "decreaseAllowance",
      "outputs": [
        {
          "internalType": "bool",
          "name": "",
          "type": "bool"
        }
      ],
      "stateMutability": "nonpayable",
      "type": "function"
    },
    {
      "inputs": [
        {
          "internalType": "address",
          "name": "spender",
          "type": "address"
        },
        {
          "internalType": "uint256",
          "name": "addedValue",
          "type": "uint256"
        }
      ],
      "name": "increaseAllowance",
      "outputs": [
        {
          "internalType": "bool",
          "name": "",
          "type": "bool"
        }
      ],
      "stateMutability": "nonpayable",
      "type": "function"
    },
    {
      "inputs": [],
      "name": "name",
      "outputs": [
        {
          "internalType": "string",
          "name": "",
          "type": "string"
        }
      ],
      "stateMutability": "view",
      "type": "function"
    },
    {
      "inputs": [],
      "name": "symbol",
      "outputs": [
        {
          "internalType": "string",
          "name": "",
          "type": "string"
        }
      ],
      "stateMutability": "view",
      "type": "function"
    },
    {
      "inputs": [],
      "name": "totalSupply",
      "outputs": [
        {
          "internalType": "uint256",
          "name": "",
          "type": "uint256"
        }
      ],
      "stateMutability": "view",
      "type": "function"
    },
    {
      "inputs": [
        {
          "internalType": "address",
          "name": "recipient",
          "type": "address"
        },
        {
          "internalType": "uint256",
          "name": "amount",
          "type": "uint256"
        }
      ],
      "name": "transfer",
      "outputs": [
        {
          "internalType": "bool",
          "name": "",
          "type": "bool"
        }
      ],
      "stateMutability": "nonpayable",
      "type": "function"
    },
    {
      "inputs": [
        {
          "internalType": "address",
          "name": "sender",
          "type": "address"
        },
        {
          "internalType": "address",
          "name": "recipient",
          "type": "address"
        },
        {
          "internalType": "uint256",
          "name": "amount",
          "type": "uint256"
        }
      ],
      "name": "transferFrom",
      "outputs": [
        {
          "internalType": "bool",
          "name": "",
          "type": "bool"
        }
      ],
      "stateMutability": "nonpayable",
      "type": "function"
    },
    {
      "inputs": [
        {
          "internalType": "address",
          "name": "manager",
          "type": "address"
        }
      ],
      "name": "changeOwner",
      "outputs": [],
      "stateMutability": "nonpayable",
      "type": "function"
    },
    {
      "inputs": [
        {
          "internalType": "address",
          "name": "account",
          "type": "address"
        },
        {
          "internalType": "uint256",
          "name": "amount",
          "type": "uint256"
        }
      ],
      "name": "burn",
      "outputs": [],
      "stateMutability": "nonpayable",
      "type": "function"
    }
  ],
  "bytecode": "0x60806040523480156200001157600080fd5b5060405162000fc638038062000fc683398101604081905262000034916200026d565b604080518082018252601281527114985a5b989bddc8151bdad95b8814d9595960721b6020808301918252835180850190945260088452671490950b54d9595960c21b9084015281519192916200008e91600391620001c7565b508051620000a4906004906020840190620001c7565b5050600580546001600160a01b0319166001600160a01b03841617905550620000d9816a52b7d2dcc80cd2e4000000620000e0565b506200033f565b6001600160a01b038216620001125760405162461bcd60e51b815260040162000109906200029d565b60405180910390fd5b6200012060008383620001c2565b8060026000828254620001349190620002dd565b90915550506001600160a01b0382166000908152602081905260408120805483929062000163908490620002dd565b90915550506040516001600160a01b038316906000907fddf252ad1be2c89b69c2b068fc378daa952ba7f163c4a11628f55a4df523b3ef90620001a8908590620002d4565b60405180910390a3620001be60008383620001c2565b5050565b505050565b828054620001d59062000302565b90600052602060002090601f016020900481019282620001f9576000855562000244565b82601f106200021457805160ff191683800117855562000244565b8280016001018555821562000244579182015b828111156200024457825182559160200191906001019062000227565b506200025292915062000256565b5090565b5b8082111562000252576000815560010162000257565b6000602082840312156200027f578081fd5b81516001600160a01b038116811462000296578182fd5b9392505050565b6020808252601f908201527f45524332303a206d696e7420746f20746865207a65726f206164647265737300604082015260600190565b90815260200190565b60008219821115620002fd57634e487b7160e01b81526011600452602481fd5b500190565b6002810460018216806200031757607f821691505b602082108114156200033957634e487b7160e01b600052602260045260246000fd5b50919050565b610c77806200034f6000396000f3fe608060405234801561001057600080fd5b50600436106100ea5760003560e01c806395d89b411161008c578063a6f9dae111610066578063a6f9dae1146101c0578063a9059cbb146101d3578063dd62ed3e146101e6578063f851a440146101f9576100ea565b806395d89b41146101905780639dc29fac14610198578063a457c2d7146101ad576100ea565b806323b872dd116100c857806323b872dd14610142578063313ce56714610155578063395093511461016a57806370a082311461017d576100ea565b806306fdde03146100ef578063095ea7b31461010d57806318160ddd1461012d575b600080fd5b6100f761020e565b60405161010491906108f3565b60405180910390f35b61012061011b3660046108ab565b6102a0565b60405161010491906108e8565b6101356102bd565b6040516101049190610baa565b610120610150366004610870565b6102c3565b61015d61035c565b6040516101049190610bb3565b6101206101783660046108ab565b610361565b61013561018b36600461081d565b6103b5565b6100f76103d4565b6101ab6101a63660046108ab565b6103e3565b005b6101206101bb3660046108ab565b610408565b6101ab6101ce36600461081d565b610481565b6101206101e13660046108ab565b6104e4565b6101356101f436600461083e565b6104f8565b610201610523565b60405161010491906108d4565b60606003805461021d90610bf0565b80601f016020809104026020016040519081016040528092919081815260200182805461024990610bf0565b80156102965780601f1061026b57610100808354040283529160200191610296565b820191906000526020600020905b81548152906001019060200180831161027957829003601f168201915b5050505050905090565b60006102b46102ad610532565b8484610536565b50600192915050565b60025490565b60006102d08484846105ea565b6001600160a01b0384166000908152600160205260408120816102f1610532565b6001600160a01b03166001600160a01b031681526020019081526020016000205490508281101561033d5760405162461bcd60e51b815260040161033490610a53565b60405180910390fd5b61035185610349610532565b858403610536565b506001949350505050565b601290565b60006102b461036e610532565b84846001600061037c610532565b6001600160a01b03908116825260208083019390935260409182016000908120918b16815292529020546103b09190610bc1565b610536565b6001600160a01b0381166000908152602081905260409020545b919050565b60606004805461021d90610bf0565b6005546001600160a01b031633146103fa57600080fd5b6104048282610714565b5050565b60008060016000610417610532565b6001600160a01b03908116825260208083019390935260409182016000908120918816815292529020549050828110156104635760405162461bcd60e51b815260040161033490610b65565b61047761046e610532565b85858403610536565b5060019392505050565b6005546001600160a01b0316331461049857600080fd5b600580546001600160a01b0319166001600160a01b03831690811790915560405133907f38b1065e0d088f6eda3cb9f0efc7bbb9b145907ab0deb0dbfb700d2bb21599e990600090a350565b60006102b46104f1610532565b84846105ea565b6001600160a01b03918216600090815260016020908152604080832093909416825291909152205490565b6005546001600160a01b031681565b3390565b6001600160a01b03831661055c5760405162461bcd60e51b815260040161033490610b21565b6001600160a01b0382166105825760405162461bcd60e51b8152600401610334906109cb565b6001600160a01b0380841660008181526001602090815260408083209487168084529490915290819020849055517f8c5be1e5ebec7d5bd14f71427d1e84f3dd0314c0f7b2291e5b200ac8c7c3b925906105dd908590610baa565b60405180910390a3505050565b6001600160a01b0383166106105760405162461bcd60e51b815260040161033490610adc565b6001600160a01b0382166106365760405162461bcd60e51b815260040161033490610946565b610641838383610801565b6001600160a01b0383166000908152602081905260409020548181101561067a5760405162461bcd60e51b815260040161033490610a0d565b6001600160a01b038085166000908152602081905260408082208585039055918516815290812080548492906106b1908490610bc1565b92505081905550826001600160a01b0316846001600160a01b03167fddf252ad1be2c89b69c2b068fc378daa952ba7f163c4a11628f55a4df523b3ef846040516106fb9190610baa565b60405180910390a361070e848484610801565b50505050565b6001600160a01b03821661073a5760405162461bcd60e51b815260040161033490610a9b565b61074682600083610801565b6001600160a01b0382166000908152602081905260409020548181101561077f5760405162461bcd60e51b815260040161033490610989565b6001600160a01b03831660009081526020819052604081208383039055600280548492906107ae908490610bd9565b90915550506040516000906001600160a01b038516907fddf252ad1be2c89b69c2b068fc378daa952ba7f163c4a11628f55a4df523b3ef906107f1908690610baa565b60405180910390a3610801836000845b505050565b80356001600160a01b03811681146103cf57600080fd5b60006020828403121561082e578081fd5b61083782610806565b9392505050565b60008060408385031215610850578081fd5b61085983610806565b915061086760208401610806565b90509250929050565b600080600060608486031215610884578081fd5b61088d84610806565b925061089b60208501610806565b9150604084013590509250925092565b600080604083850312156108bd578182fd5b6108c683610806565b946020939093013593505050565b6001600160a01b0391909116815260200190565b901515815260200190565b6000602080835283518082850152825b8181101561091f57858101830151858201604001528201610903565b818111156109305783604083870101525b50601f01601f1916929092016040019392505050565b60208082526023908201527f45524332303a207472616e7366657220746f20746865207a65726f206164647260408201526265737360e81b606082015260800190565b60208082526022908201527f45524332303a206275726e20616d6f756e7420657863656564732062616c616e604082015261636560f01b606082015260800190565b60208082526022908201527f45524332303a20617070726f766520746f20746865207a65726f206164647265604082015261737360f01b606082015260800190565b60208082526026908201527f45524332303a207472616e7366657220616d6f756e7420657863656564732062604082015265616c616e636560d01b606082015260800190565b60208082526028908201527f45524332303a207472616e7366657220616d6f756e74206578636565647320616040820152676c6c6f77616e636560c01b606082015260800190565b60208082526021908201527f45524332303a206275726e2066726f6d20746865207a65726f206164647265736040820152607360f81b606082015260800190565b60208082526025908201527f45524332303a207472616e736665722066726f6d20746865207a65726f206164604082015264647265737360d81b606082015260800190565b60208082526024908201527f45524332303a20617070726f76652066726f6d20746865207a65726f206164646040820152637265737360e01b606082015260800190565b60208082526025908201527f45524332303a2064656372656173656420616c6c6f77616e63652062656c6f77604082015264207a65726f60d81b606082015260800190565b90815260200190565b60ff91909116815260200190565b60008219821115610bd457610bd4610c2b565b500190565b600082821015610beb57610beb610c2b565b500390565b600281046001821680610c0457607f821691505b60208210811415610c2557634e487b7160e01b600052602260045260246000fd5b50919050565b634e487b7160e01b600052601160045260246000fdfea26469706673582212207d4cf128b6a2e2ac0b54a6b40b1b32e9ab5c07b2f44c16e969b1380105cfb47264736f6c63430008000033",
  "immutableReferences": {},
  "source": "// SPDX-License-Identifier: MIT\r\npragma solidity ^0.8.0;\r\n\r\nimport \"@openzeppelin/contracts/token/ERC20/ERC20.sol\";\r\nimport \"../ref/CoreRef.sol\";\r\n\r\ncontract RBTSeed is ERC20{\r\n    address public admin;\r\n    event AdminChange(address indexed Admin, address indexed newAdmin);\r\n    constructor(address manager) public ERC20(\"Rainbow Token Seed\", \"RBT-Seed\") {\r\n        admin = manager;\r\n        _mint(manager, 100_000_000 *10 ** 18);\r\n    }\r\n    modifier  _isOwner() {\r\n        require(msg.sender == admin);\r\n        _;\r\n    }\r\n    function changeOwner(address manager) external _isOwner {\r\n        admin = manager;\r\n        emit AdminChange(msg.sender,manager);\r\n    }\r\n    function burn(address account, uint256 amount) external _isOwner{\r\n        _burn(account, amount);\r\n    }\r\n}",
  "sourcePath": "D://rainbow/RainbowDao-protocol/contracts/token20/RBTSeed.sol",
  "compiler": {
    "name": "solc",
    "version": "0.8.0+commit.c7dfd78e.Emscripten.clang"
  },
  "schemaVersion": "3.4.1",
  "updatedAt": "2021-10-16T03:51:57.718Z",
  "networkType": "ethereum",
  "devdoc": {
    "kind": "dev",
    "methods": {
      "allowance(address,address)": {
        "details": "See {IERC20-allowance}."
      },
      "approve(address,uint256)": {
        "details": "See {IERC20-approve}. Requirements: - `spender` cannot be the zero address."
      },
      "balanceOf(address)": {
        "details": "See {IERC20-balanceOf}."
      },
      "decimals()": {
        "details": "Returns the number of decimals used to get its user representation. For example, if `decimals` equals `2`, a balance of `505` tokens should be displayed to a user as `5.05` (`505 / 10 ** 2`). Tokens usually opt for a value of 18, imitating the relationship between Ether and Wei. This is the value {ERC20} uses, unless this function is overridden; NOTE: This information is only used for _display_ purposes: it in no way affects any of the arithmetic of the contract, including {IERC20-balanceOf} and {IERC20-transfer}."
      },
      "decreaseAllowance(address,uint256)": {
        "details": "Atomically decreases the allowance granted to `spender` by the caller. This is an alternative to {approve} that can be used as a mitigation for problems described in {IERC20-approve}. Emits an {Approval} event indicating the updated allowance. Requirements: - `spender` cannot be the zero address. - `spender` must have allowance for the caller of at least `subtractedValue`."
      },
      "increaseAllowance(address,uint256)": {
        "details": "Atomically increases the allowance granted to `spender` by the caller. This is an alternative to {approve} that can be used as a mitigation for problems described in {IERC20-approve}. Emits an {Approval} event indicating the updated allowance. Requirements: - `spender` cannot be the zero address."
      },
      "name()": {
        "details": "Returns the name of the token."
      },
      "symbol()": {
        "details": "Returns the symbol of the token, usually a shorter version of the name."
      },
      "totalSupply()": {
        "details": "See {IERC20-totalSupply}."
      },
      "transfer(address,uint256)": {
        "details": "See {IERC20-transfer}. Requirements: - `recipient` cannot be the zero address. - the caller must have a balance of at least `amount`."
      },
      "transferFrom(address,address,uint256)": {
        "details": "See {IERC20-transferFrom}. Emits an {Approval} event indicating the updated allowance. This is not required by the EIP. See the note at the beginning of {ERC20}. Requirements: - `sender` and `recipient` cannot be the zero address. - `sender` must have a balance of at least `amount`. - the caller must have allowance for ``sender``'s tokens of at least `amount`."
      }
    },
    "version": 1
  },
  "userdoc": {
    "kind": "user",
    "methods": {},
    "version": 1
  }
}