{
  "contractName": "RbtVoteOrchestrator",
  "abi": [
    {
      "anonymous": false,
      "inputs": [
        {
          "indexed": true,
          "internalType": "address",
          "name": "previousOwner",
          "type": "address"
        },
        {
          "indexed": true,
          "internalType": "address",
          "name": "newOwner",
          "type": "address"
        }
      ],
      "name": "OwnershipTransferred",
      "type": "event"
    },
    {
      "inputs": [],
      "name": "owner",
      "outputs": [
        {
          "internalType": "address",
          "name": "",
          "type": "address"
        }
      ],
      "stateMutability": "view",
      "type": "function",
      "constant": true
    },
    {
      "inputs": [],
      "name": "renounceOwnership",
      "outputs": [],
      "stateMutability": "nonpayable",
      "type": "function"
    },
    {
      "inputs": [
        {
          "internalType": "address",
          "name": "newOwner",
          "type": "address"
        }
      ],
      "name": "transferOwnership",
      "outputs": [],
      "stateMutability": "nonpayable",
      "type": "function"
    },
    {
      "inputs": [],
      "name": "voteAddress",
      "outputs": [
        {
          "internalType": "address",
          "name": "",
          "type": "address"
        }
      ],
      "stateMutability": "view",
      "type": "function",
      "constant": true
    },
    {
      "inputs": [
        {
          "internalType": "address",
          "name": "rbVip",
          "type": "address"
        },
        {
          "internalType": "address",
          "name": "core",
          "type": "address"
        }
      ],
      "name": "init",
      "outputs": [],
      "stateMutability": "nonpayable",
      "type": "function"
    }
  ],
  "bytecode": "0x608060405234801561001057600080fd5b5061002161001c610026565b61002a565b61007a565b3390565b600080546001600160a01b038381166001600160a01b0319831681178455604051919092169283917f8be0079c531659141344cd1fd0a4f28419497f9722a3daafe3b4186f6b6457e09190a35050565b611f07806100896000396000f3fe608060405234801561001057600080fd5b50600436106100575760003560e01c80633d6dc9281461005c578063715018a61461007a5780638da5cb5b14610084578063f09a40161461008c578063f2fde38b1461009f575b600080fd5b6100646100b2565b60405161007191906102fe565b60405180910390f35b6100826100c1565b005b610064610115565b61008261009a3660046102cc565b610124565b6100826100ad3660046102ab565b6101bd565b6001546001600160a01b031681565b6100c961022e565b6001600160a01b03166100da610115565b6001600160a01b0316146101095760405162461bcd60e51b815260040161010090610372565b60405180910390fd5b6101136000610232565b565b6000546001600160a01b031690565b61012c61022e565b6001600160a01b031661013d610115565b6001600160a01b0316146101635760405162461bcd60e51b815260040161010090610372565b818160405161017190610282565b61017c929190610312565b604051809103906000f080158015610198573d6000803e3d6000fd5b50600180546001600160a01b0319166001600160a01b03929092169190911790555050565b6101c561022e565b6001600160a01b03166101d6610115565b6001600160a01b0316146101fc5760405162461bcd60e51b815260040161010090610372565b6001600160a01b0381166102225760405162461bcd60e51b81526004016101009061032c565b61022b81610232565b50565b3390565b600080546001600160a01b038381166001600160a01b0319831681178455604051919092169283917f8be0079c531659141344cd1fd0a4f28419497f9722a3daafe3b4186f6b6457e09190a35050565b611b2a806103a883390190565b80356001600160a01b03811681146102a657600080fd5b919050565b6000602082840312156102bc578081fd5b6102c58261028f565b9392505050565b600080604083850312156102de578081fd5b6102e78361028f565b91506102f56020840161028f565b90509250929050565b6001600160a01b0391909116815260200190565b6001600160a01b0392831681529116602082015260400190565b60208082526026908201527f4f776e61626c653a206e6577206f776e657220697320746865207a65726f206160408201526564647265737360d01b606082015260800190565b6020808252818101527f4f776e61626c653a2063616c6c6572206973206e6f7420746865206f776e657260408201526060019056fe60806040523480156200001157600080fd5b5060405162001b2a38038062001b2a833981016040819052620000349162000086565b600080546001600160a01b039283166001600160a01b03199182161790915560018054939092169216919091179055620000bd565b80516001600160a01b03811681146200008157600080fd5b919050565b6000806040838503121562000099578182fd5b620000a48362000069565b9150620000b46020840162000069565b90509250929050565b611a5d80620000cd6000396000f3fe608060405234801561001057600080fd5b50600436106102115760003560e01c806391ad790011610125578063beabacc8116100ad578063e36299151161007c578063e362991514610453578063e985e9c514610466578063f2f4eb2614610486578063f40e97a31461048e578063f96d8aa1146104a157610211565b8063beabacc8146103f8578063c54f9a521461040b578063d6961a031461041e578063db46e82b1461043157610211565b8063a09dac3f116100f4578063a09dac3f146103a9578063a22cb465146103bc578063a6acf2ea146103ca578063ac571673146103d2578063b88d4fde146103e557610211565b806391ad79001461035d578063926f73271461037057806394d45b59146103835780639ecb90791461039657610211565b8063449a5cfe116101a857806370a082311161017757806370a08231146102fe5780637cef652a1461031157806380009630146103245780638500692714610337578063854845d21461034a57610211565b8063449a5cfe146102b25780636230001a146102c55780636352211e146102d85780636a627842146102eb57610211565b806323298659116101e4578063232986591461027157806325d14942146102795780632bbbe75a1461028c57806342842e0e1461029f57610211565b8063081812fc14610216578063095ea7b31461023f578063135b54dd1461025457806318160ddd1461025c575b600080fd5b61022961022436600461174f565b6104b4565b604051610236919061177f565b60405180910390f35b61025261024d3660046115f8565b6104c9565b005b6102296104cd565b610264610559565b6040516102369190611918565b61022961055f565b61026461028736600461174f565b61056e565b61026461029a36600461143a565b610580565b6102526102ad36600461143a565b6105a3565b6102646102c03660046115f8565b6105c3565b6102526102d3366004611536565b6105e0565b6102296102e636600461174f565b610792565b6102646102f93660046113e6565b6107df565b61026461030c3660046113e6565b610962565b61025261031f36600461157b565b610992565b6102526103323660046113e6565b6109c8565b6102526103453660046113e6565b610aac565b61026461035836600461174f565b610ba4565b61026461036b3660046113e6565b610bb6565b61026461037e3660046115f8565b610bc8565b6102646103913660046115f8565b610be5565b6102526103a43660046113e6565b610c50565b6102526103b736600461143a565b610d48565b61025261024d3660046115cb565b610229610ead565b6102646103e03660046115f8565b610ebc565b6102526103f336600461147a565b610ed9565b61025261040636600461143a565b610eea565b6102646104193660046115f8565b610eef565b61025261042c366004611623565b610f17565b61044461043f36600461174f565b610fb6565b604051610236939291906117ac565b6102646104613660046113e6565b610ff3565b610479610474366004611402565b61107d565b60405161023691906117cd565b610229611084565b61025261049c366004611657565b611093565b6102646104af3660046115f8565b6111f9565b60006104c4565b60405180910390fd5b919050565b5050565b60008060009054906101000a90046001600160a01b03166001600160a01b03166318f7d8626040518163ffffffff1660e01b815260040160206040518083038186803b15801561051c57600080fd5b505afa158015610530573d6000803e3d6000fd5b505050506040513d601f19601f820116820180604052508101906105549190611733565b905090565b60045490565b6001546001600160a01b031681565b600a6020526000908152604090205481565b600960209081526000938452604080852082529284528284209052825290205481565b6105be83838360405180602001604052806000815250610ed9565b505050565b600660209081526000928352604080842090915290825290205481565b6001600160a01b03841633146106085760405162461bcd60e51b81526004016104bb90611804565b6001600160a01b038416600081815260086020908152604080832085845282528083205493835260068252808320858452909152812054909161064a916119a6565b116106675760405162461bcd60e51b81526004016104bb906117d8565b6001600160a01b03831660009081526007602090815260408083208484529091528120805484929061069a90849061196f565b90915550506000818152600a6020526040812080548492906106bd90849061196f565b90915550506001600160a01b0384166000908152600860209081526040808320848452909152812080548492906106f590849061196f565b90915550506001600160a01b03808516600090815260096020908152604080832093871683529281528282208483529052908120805484929061073990849061196f565b92505081905550826001600160a01b0316846001600160a01b0316827fd4d42c283b5338633054193d506db744ce9c3fb98f718f85ee354c5ba7b00964856040516107849190611918565b60405180910390a450505050565b600060046107a16001846119a6565b815481106107bf57634e487b7160e01b600052603260045260246000fd5b60009182526020909120600390910201546001600160a01b031692915050565b60006001600160a01b0382166108075760405162461bcd60e51b81526004016104bb906118a2565b6001600160a01b0382166000908152600560205260409020541561083d5760405162461bcd60e51b81526004016104bb9061182b565b60045460009061084e90600161196f565b604080516060810182526001600160a01b0386811680835260208084018681524285870190815260048054600181018255600091825287517f8a35acfbc15ff81a39ae7d344fd709f28e8600b4aa8c65c6b64bfe7fe36bd19b600390920291820180546001600160a01b031916919098161790965591517f8a35acfbc15ff81a39ae7d344fd709f28e8600b4aa8c65c6b64bfe7fe36bd19c860155517f8a35acfbc15ff81a39ae7d344fd709f28e8600b4aa8c65c6b64bfe7fe36bd19d9094019390935581835260059052838220859055925193945090927fddf252ad1be2c89b69c2b068fc378daa952ba7f163c4a11628f55a4df523b3ef90610953908690611918565b60405180910390a35092915050565b6001600160a01b038116600090815260056020526040812054610986576000610989565b60015b60ff1692915050565b61099c85836111f9565b6001600160a01b0390951660009081526006602090815260408083209383529290522093909355505050565b600054604051631c86b03760e31b81526001600160a01b039091169063e43581b8906109f890339060040161177f565b60206040518083038186803b158015610a1057600080fd5b505afa158015610a24573d6000803e3d6000fd5b505050506040513d601f19601f82011682018060405250810190610a489190611717565b610a645760405162461bcd60e51b81526004016104bb906118d7565b600080546001600160a01b0319166001600160a01b038316908117825560405190917fad9400e618eb1344fde53db22397a1b82c765527ecbba3a5c86bcac15090828b91a250565b600054604051631c86b03760e31b81526001600160a01b039091169063e43581b890610adc90339060040161177f565b60206040518083038186803b158015610af457600080fd5b505afa158015610b08573d6000803e3d6000fd5b505050506040513d601f19601f82011682018060405250810190610b2c9190611717565b610b485760405162461bcd60e51b81526004016104bb906118d7565b6002546040516001600160a01b038084169216907fa2cc4bc3ab4b9147a23a2ecf5b68c5d11a6ca3be313923f147254b1774ab8fcf90600090a3600280546001600160a01b0319166001600160a01b0392909216919091179055565b6000908152600a602052604090205490565b60056020526000908152604090205481565b600860209081526000928352604080842090915290825290205481565b6001600160a01b0382166000818152600860209081526040808320858452825280832054848452600783528184208685528352818420549484526006835281842086855290925282205491929091610c3d919061196f565b610c4791906119a6565b90505b92915050565b600054604051631c86b03760e31b81526001600160a01b039091169063e43581b890610c8090339060040161177f565b60206040518083038186803b158015610c9857600080fd5b505afa158015610cac573d6000803e3d6000fd5b505050506040513d601f19601f82011682018060405250810190610cd09190611717565b610cec5760405162461bcd60e51b81526004016104bb906118d7565b6001546040516001600160a01b038084169216907f6831742f4118711c7e6fad377156483abd1d75d7044be19fb77b0d2e8192979090600090a3600180546001600160a01b0319166001600160a01b0392909216919091179055565b6001600160a01b0383163314610d705760405162461bcd60e51b81526004016104bb90611804565b6001600160a01b0380841660008181526009602090815260408083209487168352938152838220858352815283822054928252600681528382208583529052918220805491929091610dc390849061196f565b90915550506001600160a01b0380841660008181526009602090815260408083209487168352938152838220858352815283822054928252600881528382208583529052918220805491929091610e1b9084906119a6565b90915550506001600160a01b03838116600090815260096020908152604080832093861683529281528282208483528152828220829055600a905290812080548290610e689082906119a6565b90915550506040516001600160a01b03808416919085169083907f938e075dc38ada2f802bbf6d1dec582799ae82ab00178503e4efe5ed7e43e39790600090a4505050565b6002546001600160a01b031681565b600760209081526000928352604080842090915290825290205481565b610ee4848484610eea565b50505050565b6105be565b6001600160a01b03919091166000908152600760209081526040808320938352929052205490565b6001600160a01b0383166000908152600760209081526040808320858452909152902054811115610f5a5760405162461bcd60e51b81526004016104bb906117d8565b6001600160a01b0383166000908152600760209081526040808320858452909152902054610f899082906119a6565b6001600160a01b039093166000908152600760209081526040808320948352939052919091209190915550565b60048181548110610fc657600080fd5b60009182526020909120600390910201805460018201546002909201546001600160a01b03909116925083565b6001546040516332854c1360e01b81526000916001600160a01b03169081906332854c139061102690869060040161177f565b60206040518083038186803b15801561103e57600080fd5b505afa158015611052573d6000803e3d6000fd5b505050506040513d601f19601f820116820180604052508101906110769190611767565b9392505050565b6000610c4a565b6000546001600160a01b031690565b61109f6003600061132c565b80518251146110c05760405162461bcd60e51b81526004016104bb9061186d565b60005b82518110156105be5760005b82518110156111e657808214156111d4576000604051806040016040528086858151811061110d57634e487b7160e01b600052603260045260246000fd5b60200260200101516001600160a01b0316815260200185848151811061114357634e487b7160e01b600052603260045260246000fd5b6020908102919091018101519091526003805460018101825560009190915282517fc2575a0e9e593c00f959f8c92f12db2869c3395a3b0502d05e2516446f71f85b600290920291820180546001600160a01b0319166001600160a01b039092169190911790559101517fc2575a0e9e593c00f959f8c92f12db2869c3395a3b0502d05e2516446f71f85c90910155505b806111de816119bd565b9150506110cf565b50806111f1816119bd565b9150506110c3565b6000805b6003548110156113255760006003828154811061122a57634e487b7160e01b600052603260045260246000fd5b6000918252602090912060029091020154600380546001600160a01b039092169250908390811061126b57634e487b7160e01b600052603260045260246000fd5b906000526020600020906002020160010154816001600160a01b031663782d6fe187876040518363ffffffff1660e01b81526004016112ab929190611793565b60206040518083038186803b1580156112c357600080fd5b505afa1580156112d7573d6000803e3d6000fd5b505050506040513d601f19601f820116820180604052508101906112fb9190611767565b6113059190611987565b61130f908461196f565b925050808061131d906119bd565b9150506111fd565b5092915050565b508054600082556002029060005260206000209081019061134d9190611350565b50565b5b808211156113765780546001600160a01b031916815560006001820155600201611351565b5090565b600082601f83011261138a578081fd5b8135602061139f61139a8361194b565b611921565b82815281810190858301838502870184018810156113bb578586fd5b855b858110156113d9578135845292840192908401906001016113bd565b5090979650505050505050565b6000602082840312156113f7578081fd5b813561107681611a04565b60008060408385031215611414578081fd5b823561141f81611a04565b9150602083013561142f81611a04565b809150509250929050565b60008060006060848603121561144e578081fd5b833561145981611a04565b9250602084013561146981611a04565b929592945050506040919091013590565b6000806000806080858703121561148f578081fd5b843561149a81611a04565b93506020858101356114ab81611a04565b935060408601359250606086013567ffffffffffffffff808211156114ce578384fd5b818801915088601f8301126114e1578384fd5b8135818111156114f3576114f36119ee565b611505601f8201601f19168501611921565b9150808252898482850101111561151a578485fd5b8084840185840137810190920192909252939692955090935050565b6000806000806080858703121561154b578384fd5b843561155681611a04565b9350602085013561156681611a04565b93969395505050506040820135916060013590565b600080600080600060a08688031215611592578081fd5b853561159d81611a04565b945060208601356115ad81611a04565b94979496505050506040830135926060810135926080909101359150565b600080604083850312156115dd578182fd5b82356115e881611a04565b9150602083013561142f81611a19565b6000806040838503121561160a578182fd5b823561161581611a04565b946020939093013593505050565b600080600060608486031215611637578081fd5b833561164281611a04565b95602085013595506040909401359392505050565b60008060408385031215611669578182fd5b823567ffffffffffffffff80821115611680578384fd5b818501915085601f830112611693578384fd5b813560206116a361139a8361194b565b82815281810190858301838502870184018b10156116bf578889fd5b8896505b848710156116ea5780356116d681611a04565b8352600196909601959183019183016116c3565b5096505086013592505080821115611700578283fd5b5061170d8582860161137a565b9150509250929050565b600060208284031215611728578081fd5b815161107681611a19565b600060208284031215611744578081fd5b815161107681611a04565b600060208284031215611760578081fd5b5035919050565b600060208284031215611778578081fd5b5051919050565b6001600160a01b0391909116815260200190565b6001600160a01b03929092168252602082015260400190565b6001600160a01b039390931683526020830191909152604082015260600190565b901515815260200190565b602080825260129082015271496e73756666696369656e7420766f74657360701b604082015260600190565b6020808252600d908201526c1a185d99481b9bc81c9a59da1d609a1b604082015260600190565b60208082526022908201527f4164646974696f6e616c20746f6b656e732068617665206265656e2069737375604082015261195960f21b606082015260800190565b6020808252818101527f546865206172726179206c656e67746820697320696e636f6e73697374656e74604082015260600190565b6020808252818101527f4552433732313a206d696e7420746f20746865207a65726f2061646472657373604082015260600190565b60208082526021908201527f436f72655265663a2043616c6c6572206973206e6f74206120676f7665726e6f6040820152603960f91b606082015260800190565b90815260200190565b60405181810167ffffffffffffffff81118282101715611943576119436119ee565b604052919050565b600067ffffffffffffffff821115611965576119656119ee565b5060209081020190565b60008219821115611982576119826119d8565b500190565b60008160001904831182151516156119a1576119a16119d8565b500290565b6000828210156119b8576119b86119d8565b500390565b60006000198214156119d1576119d16119d8565b5060010190565b634e487b7160e01b600052601160045260246000fd5b634e487b7160e01b600052604160045260246000fd5b6001600160a01b038116811461134d57600080fd5b801515811461134d57600080fdfea264697066735822122053acea5d4a2fe9541950c03a72fa92fbc1b7b1db26a2429eeb14db104e6c5ae964736f6c63430008000033a2646970667358221220b79a9b35cc4d13d15a591015982201d612cb9cf4bb080bc31cceec1d002e72d564736f6c63430008000033",
  "immutableReferences": {},
  "source": "// SPDX-License-Identifier: MIT\r\npragma solidity ^0.8.0;\r\n\r\nimport \"@openzeppelin/contracts/access/Ownable.sol\";\r\nimport \"../RainbowVote/RainbowRbtVote.sol\";\r\n\r\ncontract RbtVoteOrchestrator  is Ownable {\r\n    address public voteAddress;\r\n    function init(\r\n        address rbVip,\r\n        address core\r\n    )\r\n        public\r\n        onlyOwner\r\n        \r\n    {\r\n        voteAddress = address(\r\n            new RainbowRbtVote(rbVip,core)\r\n        );\r\n    }\r\n\r\n}",
  "sourcePath": "D://rainbow/RainbowDao-protocol/contracts/orchestrator/RbtVoteOrchestrator.sol",
  "compiler": {
    "name": "solc",
    "version": "0.8.0+commit.c7dfd78e.Emscripten.clang"
  },
  "schemaVersion": "3.4.1",
  "updatedAt": "2021-10-16T03:51:57.735Z",
  "networkType": "ethereum",
  "devdoc": {
    "kind": "dev",
    "methods": {
      "owner()": {
        "details": "Returns the address of the current owner."
      },
      "renounceOwnership()": {
        "details": "Leaves the contract without owner. It will not be possible to call `onlyOwner` functions anymore. Can only be called by the current owner. NOTE: Renouncing ownership will leave the contract without an owner, thereby removing any functionality that is only available to the owner."
      },
      "transferOwnership(address)": {
        "details": "Transfers ownership of the contract to a new account (`newOwner`). Can only be called by the current owner."
      }
    },
    "version": 1
  },
  "userdoc": {
    "kind": "user",
    "methods": {},
    "version": 1
  }
}