{
  "contractName": "RbtVip",
  "abi": [
    {
      "inputs": [
        {
          "internalType": "uint256",
          "name": "_price",
          "type": "uint256"
        },
        {
          "internalType": "address",
          "name": "_foundationAddress",
          "type": "address"
        },
        {
          "internalType": "address",
          "name": "_rbtex",
          "type": "address"
        },
        {
          "internalType": "address",
          "name": "core",
          "type": "address"
        }
      ],
      "stateMutability": "nonpayable",
      "type": "constructor"
    },
    {
      "anonymous": false,
      "inputs": [
        {
          "indexed": true,
          "internalType": "address",
          "name": "owner",
          "type": "address"
        },
        {
          "indexed": true,
          "internalType": "address",
          "name": "spender",
          "type": "address"
        },
        {
          "indexed": false,
          "internalType": "uint256",
          "name": "value",
          "type": "uint256"
        }
      ],
      "name": "Approval",
      "type": "event"
    },
    {
      "anonymous": false,
      "inputs": [
        {
          "indexed": true,
          "internalType": "address",
          "name": "owner",
          "type": "address"
        },
        {
          "indexed": true,
          "internalType": "address",
          "name": "operator",
          "type": "address"
        },
        {
          "indexed": false,
          "internalType": "bool",
          "name": "approved",
          "type": "bool"
        }
      ],
      "name": "ApprovalForAll",
      "type": "event"
    },
    {
      "anonymous": false,
      "inputs": [
        {
          "indexed": true,
          "internalType": "address",
          "name": "_core",
          "type": "address"
        }
      ],
      "name": "CoreUpdate",
      "type": "event"
    },
    {
      "anonymous": false,
      "inputs": [
        {
          "indexed": true,
          "internalType": "uint256",
          "name": "newId",
          "type": "uint256"
        },
        {
          "indexed": true,
          "internalType": "uint256",
          "name": "referrerId",
          "type": "uint256"
        }
      ],
      "name": "Register",
      "type": "event"
    },
    {
      "anonymous": false,
      "inputs": [
        {
          "indexed": true,
          "internalType": "address",
          "name": "from",
          "type": "address"
        },
        {
          "indexed": true,
          "internalType": "address",
          "name": "to",
          "type": "address"
        },
        {
          "indexed": false,
          "internalType": "uint256",
          "name": "value",
          "type": "uint256"
        }
      ],
      "name": "Transfer",
      "type": "event"
    },
    {
      "anonymous": false,
      "inputs": [
        {
          "indexed": true,
          "internalType": "address",
          "name": "tokenAddr",
          "type": "address"
        },
        {
          "indexed": true,
          "internalType": "address",
          "name": "from",
          "type": "address"
        },
        {
          "indexed": true,
          "internalType": "address",
          "name": "to",
          "type": "address"
        },
        {
          "indexed": false,
          "internalType": "uint256",
          "name": "value",
          "type": "uint256"
        }
      ],
      "name": "TransferFundation",
      "type": "event"
    },
    {
      "inputs": [],
      "name": "FoundationAddress",
      "outputs": [
        {
          "internalType": "address",
          "name": "",
          "type": "address"
        }
      ],
      "stateMutability": "view",
      "type": "function"
    },
    {
      "inputs": [],
      "name": "RBTEX",
      "outputs": [
        {
          "internalType": "address",
          "name": "",
          "type": "address"
        }
      ],
      "stateMutability": "view",
      "type": "function"
    },
    {
      "inputs": [],
      "name": "name",
      "outputs": [
        {
          "internalType": "string",
          "name": "",
          "type": "string"
        }
      ],
      "stateMutability": "view",
      "type": "function"
    },
    {
      "inputs": [
        {
          "internalType": "address",
          "name": "",
          "type": "address"
        }
      ],
      "name": "referrerMaps",
      "outputs": [
        {
          "internalType": "uint256",
          "name": "",
          "type": "uint256"
        }
      ],
      "stateMutability": "view",
      "type": "function"
    },
    {
      "inputs": [
        {
          "internalType": "address",
          "name": "core",
          "type": "address"
        }
      ],
      "name": "setCore",
      "outputs": [],
      "stateMutability": "nonpayable",
      "type": "function"
    },
    {
      "inputs": [],
      "name": "symbol",
      "outputs": [
        {
          "internalType": "string",
          "name": "",
          "type": "string"
        }
      ],
      "stateMutability": "view",
      "type": "function"
    },
    {
      "inputs": [
        {
          "internalType": "uint256",
          "name": "",
          "type": "uint256"
        }
      ],
      "name": "userListArray",
      "outputs": [
        {
          "internalType": "uint256",
          "name": "id",
          "type": "uint256"
        },
        {
          "internalType": "address",
          "name": "addrRef",
          "type": "address"
        },
        {
          "internalType": "string",
          "name": "nickname",
          "type": "string"
        },
        {
          "internalType": "address",
          "name": "userAddress",
          "type": "address"
        },
        {
          "internalType": "uint256",
          "name": "registerTime",
          "type": "uint256"
        }
      ],
      "stateMutability": "view",
      "type": "function"
    },
    {
      "inputs": [],
      "name": "userSize",
      "outputs": [
        {
          "internalType": "uint256",
          "name": "",
          "type": "uint256"
        }
      ],
      "stateMutability": "view",
      "type": "function"
    },
    {
      "inputs": [],
      "name": "validity",
      "outputs": [
        {
          "internalType": "uint256",
          "name": "",
          "type": "uint256"
        }
      ],
      "stateMutability": "view",
      "type": "function"
    },
    {
      "inputs": [
        {
          "internalType": "uint256",
          "name": "",
          "type": "uint256"
        }
      ],
      "name": "vipArray",
      "outputs": [
        {
          "internalType": "address",
          "name": "owner",
          "type": "address"
        },
        {
          "internalType": "address",
          "name": "creator",
          "type": "address"
        },
        {
          "internalType": "uint256",
          "name": "tokenId",
          "type": "uint256"
        },
        {
          "internalType": "uint256",
          "name": "crtTime",
          "type": "uint256"
        },
        {
          "internalType": "uint256",
          "name": "expireTime",
          "type": "uint256"
        }
      ],
      "stateMutability": "view",
      "type": "function"
    },
    {
      "inputs": [],
      "name": "vipPrice",
      "outputs": [
        {
          "internalType": "uint256",
          "name": "",
          "type": "uint256"
        }
      ],
      "stateMutability": "view",
      "type": "function"
    },
    {
      "inputs": [
        {
          "internalType": "uint256",
          "name": "referrerId",
          "type": "uint256"
        },
        {
          "internalType": "string",
          "name": "nickname",
          "type": "string"
        }
      ],
      "name": "register",
      "outputs": [],
      "stateMutability": "nonpayable",
      "type": "function"
    },
    {
      "inputs": [
        {
          "internalType": "uint256",
          "name": "vipNumber",
          "type": "uint256"
        },
        {
          "internalType": "address",
          "name": "token",
          "type": "address"
        }
      ],
      "name": "exchangeVip",
      "outputs": [],
      "stateMutability": "nonpayable",
      "type": "function"
    },
    {
      "inputs": [
        {
          "internalType": "address",
          "name": "addr",
          "type": "address"
        }
      ],
      "name": "getVipLevel",
      "outputs": [
        {
          "internalType": "uint256",
          "name": "",
          "type": "uint256"
        }
      ],
      "stateMutability": "view",
      "type": "function"
    },
    {
      "inputs": [],
      "name": "getAllVipIneffective",
      "outputs": [
        {
          "internalType": "uint256",
          "name": "maxExTokenId",
          "type": "uint256"
        }
      ],
      "stateMutability": "view",
      "type": "function"
    },
    {
      "inputs": [
        {
          "internalType": "address",
          "name": "addr",
          "type": "address"
        }
      ],
      "name": "getOwerVipIneffective",
      "outputs": [
        {
          "internalType": "uint256",
          "name": "maxOwnerExTokenId",
          "type": "uint256"
        }
      ],
      "stateMutability": "view",
      "type": "function"
    },
    {
      "inputs": [
        {
          "internalType": "uint256",
          "name": "tokenId",
          "type": "uint256"
        }
      ],
      "name": "ownerOf",
      "outputs": [
        {
          "internalType": "address",
          "name": "",
          "type": "address"
        }
      ],
      "stateMutability": "view",
      "type": "function"
    },
    {
      "inputs": [
        {
          "internalType": "uint256",
          "name": "tokenId",
          "type": "uint256"
        }
      ],
      "name": "getVipInfo",
      "outputs": [
        {
          "components": [
            {
              "internalType": "address",
              "name": "owner",
              "type": "address"
            },
            {
              "internalType": "address",
              "name": "creator",
              "type": "address"
            },
            {
              "internalType": "uint256",
              "name": "tokenId",
              "type": "uint256"
            },
            {
              "internalType": "uint256",
              "name": "crtTime",
              "type": "uint256"
            },
            {
              "internalType": "uint256",
              "name": "expireTime",
              "type": "uint256"
            }
          ],
          "internalType": "struct userVipStruct.Vip",
          "name": "",
          "type": "tuple"
        }
      ],
      "stateMutability": "view",
      "type": "function"
    },
    {
      "inputs": [
        {
          "internalType": "address",
          "name": "addr",
          "type": "address"
        }
      ],
      "name": "getUserInfo",
      "outputs": [
        {
          "components": [
            {
              "internalType": "uint256",
              "name": "id",
              "type": "uint256"
            },
            {
              "internalType": "address",
              "name": "addrRef",
              "type": "address"
            },
            {
              "internalType": "string",
              "name": "nickname",
              "type": "string"
            },
            {
              "internalType": "address",
              "name": "userAddress",
              "type": "address"
            },
            {
              "internalType": "uint256",
              "name": "registerTime",
              "type": "uint256"
            },
            {
              "internalType": "address[]",
              "name": "childs",
              "type": "address[]"
            }
          ],
          "internalType": "struct userVipStruct.User",
          "name": "",
          "type": "tuple"
        }
      ],
      "stateMutability": "view",
      "type": "function"
    },
    {
      "inputs": [
        {
          "internalType": "address[]",
          "name": "addr",
          "type": "address[]"
        },
        {
          "internalType": "uint256[]",
          "name": "amount",
          "type": "uint256[]"
        }
      ],
      "name": "sendVipByWhiteList",
      "outputs": [],
      "stateMutability": "nonpayable",
      "type": "function"
    },
    {
      "inputs": [
        {
          "internalType": "address",
          "name": "owner",
          "type": "address"
        },
        {
          "internalType": "uint256",
          "name": "index",
          "type": "uint256"
        }
      ],
      "name": "tokenOfOwnerByIndex",
      "outputs": [
        {
          "internalType": "uint256",
          "name": "",
          "type": "uint256"
        }
      ],
      "stateMutability": "view",
      "type": "function"
    },
    {
      "inputs": [
        {
          "internalType": "address",
          "name": "addr",
          "type": "address"
        }
      ],
      "name": "balanceOf",
      "outputs": [
        {
          "internalType": "uint256",
          "name": "",
          "type": "uint256"
        }
      ],
      "stateMutability": "view",
      "type": "function"
    },
    {
      "inputs": [],
      "name": "totalSupply",
      "outputs": [
        {
          "internalType": "uint256",
          "name": "",
          "type": "uint256"
        }
      ],
      "stateMutability": "view",
      "type": "function"
    },
    {
      "inputs": [
        {
          "internalType": "address",
          "name": "to",
          "type": "address"
        },
        {
          "internalType": "uint256",
          "name": "tokenId",
          "type": "uint256"
        }
      ],
      "name": "approve",
      "outputs": [],
      "stateMutability": "nonpayable",
      "type": "function"
    },
    {
      "inputs": [
        {
          "internalType": "address",
          "name": "from",
          "type": "address"
        },
        {
          "internalType": "address",
          "name": "to",
          "type": "address"
        },
        {
          "internalType": "uint256",
          "name": "tokenId",
          "type": "uint256"
        }
      ],
      "name": "transfer",
      "outputs": [],
      "stateMutability": "nonpayable",
      "type": "function"
    },
    {
      "inputs": [
        {
          "internalType": "address",
          "name": "from",
          "type": "address"
        },
        {
          "internalType": "address",
          "name": "to",
          "type": "address"
        },
        {
          "internalType": "uint256",
          "name": "tokenId",
          "type": "uint256"
        }
      ],
      "name": "safeTransferFrom",
      "outputs": [],
      "stateMutability": "nonpayable",
      "type": "function"
    },
    {
      "inputs": [
        {
          "internalType": "address",
          "name": "from",
          "type": "address"
        },
        {
          "internalType": "address",
          "name": "to",
          "type": "address"
        },
        {
          "internalType": "uint256",
          "name": "tokenId",
          "type": "uint256"
        },
        {
          "internalType": "bytes",
          "name": "_data",
          "type": "bytes"
        }
      ],
      "name": "safeTransferFrom",
      "outputs": [],
      "stateMutability": "nonpayable",
      "type": "function"
    },
    {
      "inputs": [
        {
          "internalType": "address",
          "name": "operator",
          "type": "address"
        },
        {
          "internalType": "bool",
          "name": "approved",
          "type": "bool"
        }
      ],
      "name": "setApprovalForAll",
      "outputs": [],
      "stateMutability": "nonpayable",
      "type": "function"
    },
    {
      "inputs": [
        {
          "internalType": "address",
          "name": "owner",
          "type": "address"
        },
        {
          "internalType": "address",
          "name": "operator",
          "type": "address"
        }
      ],
      "name": "isApprovedForAll",
      "outputs": [
        {
          "internalType": "bool",
          "name": "",
          "type": "bool"
        }
      ],
      "stateMutability": "view",
      "type": "function"
    },
    {
      "inputs": [
        {
          "internalType": "uint256",
          "name": "tokenId",
          "type": "uint256"
        }
      ],
      "name": "getApproved",
      "outputs": [
        {
          "internalType": "address",
          "name": "",
          "type": "address"
        }
      ],
      "stateMutability": "view",
      "type": "function"
    }
  ],
  "bytecode": "0x60c060405260046080819052630525649560e41b60a09081526200002791600191906200025d565b50604080518082019091526004808252630525649560e41b602090920191825262000055916002916200025d565b506301e1338060035560006005556301328cf76008553480156200007857600080fd5b5060405162002f3e38038062002f3e8339810160408190526200009b9162000378565b600080546001600160a01b03199081166001600160a01b0384811691909117835560048790556006805483168783161781556007805484168784161790556040805160c0810182526008548152602080820187815283518085018552600581526430b236b4b760d91b81840152838501908152336060850152426080850152845189815280840190955260a0840194909452600a8054600181018255985282517fc65a7bb8d6351c1cf70c95a316cc6a92839c986682d98bc35f958f4883f9d2a898909502978801948555517fc65a7bb8d6351c1cf70c95a316cc6a92839c986682d98bc35f958f4883f9d2a988018054909716951694909417909455518051939485949293620001d3937fc65a7bb8d6351c1cf70c95a316cc6a92839c986682d98bc35f958f4883f9d2aa9092019201906200025d565b5060608201516003820180546001600160a01b0319166001600160a01b039092169190911790556080820151600482015560a0820151805162000221916005840191602090910190620002ec565b5050600854604051600092507fe23550ce55546f73f971a932ee4b14cd8070fc95c7da57ac7e4337476b5604d1908390a3505050505062000408565b8280546200026b90620003cb565b90600052602060002090601f0160209004810192826200028f5760008555620002da565b82601f10620002aa57805160ff1916838001178555620002da565b82800160010185558215620002da579182015b82811115620002da578251825591602001919060010190620002bd565b50620002e892915062000344565b5090565b828054828255906000526020600020908101928215620002da579160200282015b82811115620002da57825182546001600160a01b0319166001600160a01b039091161782556020909201916001909101906200030d565b5b80821115620002e8576000815560010162000345565b80516001600160a01b03811681146200037357600080fd5b919050565b600080600080608085870312156200038e578384fd5b84519350620003a0602086016200035b565b9250620003b0604086016200035b565b9150620003c0606086016200035b565b905092959194509250565b600281046001821680620003e057607f821691505b602082108114156200040257634e487b7160e01b600052602260045260246000fd5b50919050565b612b2680620004186000396000f3fe608060405234801561001057600080fd5b50600436106101da5760003560e01c80638000963011610104578063beabacc8116100a2578063db20936f11610071578063db20936f146103dd578063e340d66b14610401578063e985e9c514610409578063f53b8cf714610429576101da565b8063beabacc81461038b578063ce7ca6151461039e578063cfdaac84146103a6578063d9296ebb146103ca576101da565b8063a00fd3c8116100de578063a00fd3c81461033f578063a22cb46514610352578063afff740514610365578063b88d4fde14610378576101da565b8063800096301461031157806395d89b41146103245780639954b6651461032c576101da565b80633e98d1fb1161017c5780636386c1c71161014b5780636386c1c7146102c35780636ae0ea95146102e357806370a08231146102f6578063789d7f7414610309576101da565b80633e98d1fb1461027557806342842e0e1461027d5780634d65beb1146102905780636352211e146102b0576101da565b806318160ddd116101b857806318160ddd146102325780632f745c591461024757806332854c131461025a5780633711b23f1461026d576101da565b806306fdde03146101df578063081812fc146101fd578063095ea7b31461021d575b600080fd5b6101e7610431565b6040516101f49190612423565b60405180910390f35b61021061020b366004612260565b6104bf565b6040516101f49190612359565b61023061022b36600461212e565b61054d565b005b61023a61064f565b6040516101f491906128de565b61023a61025536600461212e565b610655565b61023a610268366004611fb9565b610680565b61023a610783565b61023a610789565b61023061028b366004612005565b61078f565b6102a361029e366004612260565b6107af565b6040516101f4919061289b565b6102106102be366004612260565b610840565b6102d66102d1366004611fb9565b61088d565b6040516101f491906127f4565b61023a6102f1366004611fb9565b610a61565b61023a610304366004611fb9565b610c57565b610210610c78565b61023061031f366004611fb9565b610c87565b6101e7610d6b565b61023061033a366004612157565b610d78565b61023061034d36600461229a565b610ec9565b6102306103603660046120f8565b6111ed565b61023a610373366004611fb9565b611285565b610230610386366004612040565b611297565b610230610399366004612005565b6112d0565b6102106113ef565b6103b96103b4366004612260565b6113fe565b6040516101f49594939291906123ce565b6102306103d8366004612278565b61144b565b6103f06103eb366004612260565b611526565b6040516101f49594939291906128e7565b61023a611605565b61041c610417366004611fd3565b6116bb565b6040516101f49190612418565b61023a6116e9565b6001805461043e90612a3d565b80601f016020809104026020016040519081016040528092919081815260200182805461046a90612a3d565b80156104b75780601f1061048c576101008083540402835291602001916104b7565b820191906000526020600020905b81548152906001019060200180831161049a57829003601f168201915b505050505081565b60008060096104cf6001856129fa565b815481106104ed57634e487b7160e01b600052603260045260246000fd5b60009182526020909120600590910201546001600160a01b0316141561052e5760405162461bcd60e51b81526004016105259061269d565b60405180910390fd5b506000818152600d60205260409020546001600160a01b03165b919050565b6000600961055c6001846129fa565b8154811061057a57634e487b7160e01b600052603260045260246000fd5b60009182526020909120600590910201546001600160a01b03908116915083168114156105b95760405162461bcd60e51b8152600401610525906126e9565b336001600160a01b038216146105e15760405162461bcd60e51b815260040161052590612544565b6000828152600d60205260409081902080546001600160a01b0319166001600160a01b03848116918217909255915190851691907f8c5be1e5ebec7d5bd14f71427d1e84f3dd0314c0f7b2291e5b200ac8c7c3b925906106429086906128de565b60405180910390a3505050565b60095490565b6001600160a01b0382166000908152600b6020526040812061067790836116ef565b90505b92915050565b6001600160a01b0381166000908152600b6020526040812081906106a390611748565b9050806106b4576000915050610548565b6000805b8281101561074a576001600160a01b0385166000908152600b6020526040902042906009906001906106ea90856116ef565b6106f491906129fa565b8154811061071257634e487b7160e01b600052603260045260246000fd5b9060005260206000209060050201600401541115610738578161073481612a93565b9250505b8061074281612a78565b9150506106b8565b5060098160ff161015610779576107626003826129ad565b61076d906001612988565b60ff1692505050610548565b5060049392505050565b60045481565b60035481565b6107aa83838360405180602001604052806000815250611297565b505050565b6107b7611dc3565b60096107c46001846129fa565b815481106107e257634e487b7160e01b600052603260045260246000fd5b60009182526020918290206040805160a081018252600590930290910180546001600160a01b039081168452600182015416938301939093526002830154908201526003820154606082015260049091015460808201529050919050565b6000600961084f6001846129fa565b8154811061086d57634e487b7160e01b600052603260045260246000fd5b60009182526020909120600590910201546001600160a01b031692915050565b610895611e04565b6008546001600160a01b0383166000908152600c6020526040902054600a916108bd916129fa565b815481106108db57634e487b7160e01b600052603260045260246000fd5b90600052602060002090600602016040518060c0016040529081600082015481526020016001820160009054906101000a90046001600160a01b03166001600160a01b03166001600160a01b0316815260200160028201805461093d90612a3d565b80601f016020809104026020016040519081016040528092919081815260200182805461096990612a3d565b80156109b65780601f1061098b576101008083540402835291602001916109b6565b820191906000526020600020905b81548152906001019060200180831161099957829003601f168201915b505050505081526020016003820160009054906101000a90046001600160a01b03166001600160a01b03166001600160a01b031681526020016004820154815260200160058201805480602002602001604051908101604052809291908181526020018280548015610a5157602002820191906000526020600020905b81546001600160a01b03168152600190910190602001808311610a33575b5050505050815250509050919050565b6001600160a01b0381166000908152600b602052604081208190610a8490611748565b6001600160a01b0384166000908152600b6020526040812091925090600990600190610ab090846116ef565b610aba91906129fa565b81548110610ad857634e487b7160e01b600052603260045260246000fd5b906000526020600020906005020160040154905060005b82811015610c4f576001600160a01b0385166000908152600b602052604090208290600990600190610b2190856116ef565b610b2b91906129fa565b81548110610b4957634e487b7160e01b600052603260045260246000fd5b9060005260206000209060050201600401541115610c3d576001600160a01b0385166000908152600b60205260409020600990600190610b8990846116ef565b610b9391906129fa565b81548110610bb157634e487b7160e01b600052603260045260246000fd5b906000526020600020906005020160040154915060096001610c0083600b60008a6001600160a01b03166001600160a01b031681526020019081526020016000206116ef90919063ffffffff16565b610c0a91906129fa565b81548110610c2857634e487b7160e01b600052603260045260246000fd5b90600052602060002090600502016002015493505b80610c4781612a78565b915050610aef565b505050919050565b6001600160a01b0381166000908152600b6020526040812061067a90611748565b6007546001600160a01b031681565b600054604051631c86b03760e31b81526001600160a01b039091169063e43581b890610cb7903390600401612359565b60206040518083038186803b158015610ccf57600080fd5b505afa158015610ce3573d6000803e3d6000fd5b505050506040513d601f19601f82011682018060405250810190610d079190612215565b610d235760405162461bcd60e51b81526004016105259061276f565b600080546001600160a01b0319166001600160a01b038316908117825560405190917fad9400e618eb1344fde53db22397a1b82c765527ecbba3a5c86bcac15090828b91a250565b6002805461043e90612a3d565b600054604051631c86b03760e31b81526001600160a01b039091169063e43581b890610da8903390600401612359565b60206040518083038186803b158015610dc057600080fd5b505afa158015610dd4573d6000803e3d6000fd5b505050506040513d601f19601f82011682018060405250810190610df89190612215565b610e145760405162461bcd60e51b81526004016105259061276f565b8051825114610e355760405162461bcd60e51b81526004016105259061261b565b60005b82518110156107aa5760005b828281518110610e6457634e487b7160e01b600052603260045260246000fd5b6020026020010151811015610eb657610ea3848381518110610e9657634e487b7160e01b600052603260045260246000fd5b602002602001015161174c565b5080610eae81612a78565b915050610e44565b5080610ec181612a78565b915050610e38565b336000908152600c602052604090205415610ef65760405162461bcd60e51b815260040161052590612588565b60058054906000610f0683612a78565b91905055506000600554600854610f1d9190612970565b90506000600a60085486610f3191906129fa565b81548110610f4f57634e487b7160e01b600052603260045260246000fd5b906000526020600020906006020160030160009054906101000a90046001600160a01b0316905060006040518060c00160405280848152602001836001600160a01b0316815260200186868080601f016020809104026020016040519081016040528093929190818152602001838380828437600092018290525093855250503360208401525042604083015260609091019060405190808252806020026020018201604052801561100b578160200160208202803683370190505b509052600a8054600181018255600091909152815160069091027fc65a7bb8d6351c1cf70c95a316cc6a92839c986682d98bc35f958f4883f9d2a881019182556020808401517fc65a7bb8d6351c1cf70c95a316cc6a92839c986682d98bc35f958f4883f9d2a9830180546001600160a01b039092166001600160a01b03199092169190911790556040840151805194955085946110d0937fc65a7bb8d6351c1cf70c95a316cc6a92839c986682d98bc35f958f4883f9d2aa01929190910190611e4c565b5060608201516003820180546001600160a01b0319166001600160a01b039092169190911790556080820151600482015560a0820151805161111c916005840191602090910190611ecc565b505050600a6008548761112f91906129fa565b8154811061114d57634e487b7160e01b600052603260045260246000fd5b6000918252602080832060056006909302019190910180546001810182559083528183200180546001600160a01b03191633908117909155808352600c90915260409091208490556007546111b8916001600160a01b039190911690683635c9adc5dea00000611945565b604051869084907fe23550ce55546f73f971a932ee4b14cd8070fc95c7da57ac7e4337476b5604d190600090a3505050505050565b6001600160a01b0382163314156112165760405162461bcd60e51b8152600401610525906125ad565b336000818152600e602090815260408083206001600160a01b038716808552925291829020805460ff191685151517905590519091907f17307eab39ab6107e8899845ad3d59bd9653f200f220920489ca2b5937696c3190611279908590612418565b60405180910390a35050565b600c6020526000908152604090205481565b6112a28484846112d0565b6112ae84848484611a32565b6112ca5760405162461bcd60e51b8152600401610525906124f2565b50505050565b6001600160a01b0383166112f65760405162461bcd60e51b81526004016105259061272a565b6001600160a01b03821661131c5760405162461bcd60e51b815260040161052590612478565b6001600160a01b0383166000908152600b6020526040902061133e9082611b3e565b506001600160a01b0382166000908152600b602052604090206113619082611c5e565b508160096113706001846129fa565b8154811061138e57634e487b7160e01b600052603260045260246000fd5b6000918252602090912060059091020180546001600160a01b0319166001600160a01b03928316179055604051838216918516907fddf252ad1be2c89b69c2b068fc378daa952ba7f163c4a11628f55a4df523b3ef906106429085906128de565b6006546001600160a01b031681565b6009818154811061140e57600080fd5b6000918252602090912060059091020180546001820154600283015460038401546004909401546001600160a01b03938416955091909216929085565b6000821161146b5760405162461bcd60e51b8152600401610525906125e4565b600061148260045484611ca990919063ffffffff16565b905060005b838110156114ab576114983361174c565b50806114a381612a78565b915050611487565b506006546114c690839033906001600160a01b031684611cb5565b6006546001600160a01b0390811690339084167f6fa020df86099482cd0618edb81478585e801da333da4063bc3b377d3dd8304661150c85670de0b6b3a76400006129db565b60405161151991906128de565b60405180910390a4505050565b600a818154811061153657600080fd5b60009182526020909120600690910201805460018201546002830180549294506001600160a01b03909116929161156c90612a3d565b80601f016020809104026020016040519081016040528092919081815260200182805461159890612a3d565b80156115e55780601f106115ba576101008083540402835291602001916115e5565b820191906000526020600020905b8154815290600101906020018083116115c857829003601f168201915b50505050600383015460049093015491926001600160a01b031691905085565b6000805b6009548110156116b75760006009828154811061163657634e487b7160e01b600052603260045260246000fd5b60009182526020918290206040805160a081018252600590930290910180546001600160a01b03908116845260018201541693830193909352600283015490820152600382015460608201526004909101546080820181905290915042101561169f57506116b7565b604001519150806116af81612a78565b915050611609565b5090565b6001600160a01b039182166000908152600e6020908152604080832093909416825291909152205460ff1690565b60055481565b815460009082106117125760405162461bcd60e51b815260040161052590612436565b82600001828154811061173557634e487b7160e01b600052603260045260246000fd5b6000918252602090912001549392505050565b5490565b60006001600160a01b0382166117745760405162461bcd60e51b815260040161052590612668565b600954600090611785906001612970565b905060006040518060a00160405280856001600160a01b03168152602001856001600160a01b03168152602001838152602001428152602001600354426117cc9190612970565b905260098054600181018255600091825282517f6e1540171b6c0c960b71a7020d9f60077f6af931a8bbf590da0223dacf75c7af600590920291820180546001600160a01b03199081166001600160a01b03938416179091556020808601517f6e1540171b6c0c960b71a7020d9f60077f6af931a8bbf590da0223dacf75c7b08501805490931693169290921790556040808501517f6e1540171b6c0c960b71a7020d9f60077f6af931a8bbf590da0223dacf75c7b184015560608501517f6e1540171b6c0c960b71a7020d9f60077f6af931a8bbf590da0223dacf75c7b284015560808501517f6e1540171b6c0c960b71a7020d9f60077f6af931a8bbf590da0223dacf75c7b390930192909255338352600b905290209091506118f19083611c5e565b50836001600160a01b031660006001600160a01b03167fddf252ad1be2c89b69c2b068fc378daa952ba7f163c4a11628f55a4df523b3ef8460405161193691906128de565b60405180910390a35092915050565b600080846001600160a01b031663a9059cbb858560405160240161196a9291906123ff565b6040516020818303038152906040529060e01b6020820180516001600160e01b0383818316178352505050506040516119a3919061233d565b6000604051808303816000865af19150503d80600081146119e0576040519150601f19603f3d011682016040523d82523d6000602084013e6119e5565b606091505b5091509150818015611a0f575080511580611a0f575080806020019051810190611a0f9190612215565b611a2b5760405162461bcd60e51b8152600401610525906124bb565b5050505050565b6000611a3d84611da5565b15611b3257604051630a85bd0160e11b81526001600160a01b0385169063150b7a0290611a74903390899088908890600401612391565b602060405180830381600087803b158015611a8e57600080fd5b505af1925050508015611abe575060408051601f3d908101601f19168201909252611abb91810190612238565b60015b611b18573d808015611aec576040519150601f19603f3d011682016040523d82523d6000602084013e611af1565b606091505b508051611b105760405162461bcd60e51b8152600401610525906124f2565b805181602001fd5b6001600160e01b031916630a85bd0160e11b149050611b36565b5060015b949350505050565b60008181526001830160205260408120548015611c54576000611b626001836129fa565b8554909150600090611b76906001906129fa565b90506000866000018281548110611b9d57634e487b7160e01b600052603260045260246000fd5b9060005260206000200154905080876000018481548110611bce57634e487b7160e01b600052603260045260246000fd5b600091825260209091200155611be5836001612970565b60008281526001890160205260409020558654879080611c1557634e487b7160e01b600052603160045260246000fd5b600190038181906000526020600020016000905590558660010160008760001b815260200190815260200160002060009055600194505050505061067a565b5060009392505050565b6000611c6a8383611dab565b611ca05750815460018181018455600084815260208082209093018490558454848252828601909352604090209190915561067a565b50600092915050565b600061067782846129db565b600080856001600160a01b03166323b872dd868686604051602401611cdc9392919061236d565b6040516020818303038152906040529060e01b6020820180516001600160e01b038381831617835250505050604051611d15919061233d565b6000604051808303816000865af19150503d8060008114611d52576040519150601f19603f3d011682016040523d82523d6000602084013e611d57565b606091505b5091509150818015611d81575080511580611d81575080806020019051810190611d819190612215565b611d9d5760405162461bcd60e51b8152600401610525906127b0565b505050505050565b3b151590565b60009081526001919091016020526040902054151590565b6040518060a0016040528060006001600160a01b0316815260200160006001600160a01b031681526020016000815260200160008152602001600081525090565b6040518060c001604052806000815260200160006001600160a01b031681526020016060815260200160006001600160a01b0316815260200160008152602001606081525090565b828054611e5890612a3d565b90600052602060002090601f016020900481019282611e7a5760008555611ec0565b82601f10611e9357805160ff1916838001178555611ec0565b82800160010185558215611ec0579182015b82811115611ec0578251825591602001919060010190611ea5565b506116b7929150611f21565b828054828255906000526020600020908101928215611ec0579160200282015b82811115611ec057825182546001600160a01b0319166001600160a01b03909116178255602090920191600190910190611eec565b5b808211156116b75760008155600101611f22565b80356001600160a01b038116811461054857600080fd5b600082601f830112611f5d578081fd5b81356020611f72611f6d8361294c565b612922565b8281528181019085830183850287018401881015611f8e578586fd5b855b85811015611fac57813584529284019290840190600101611f90565b5090979650505050505050565b600060208284031215611fca578081fd5b61067782611f36565b60008060408385031215611fe5578081fd5b611fee83611f36565b9150611ffc60208401611f36565b90509250929050565b600080600060608486031215612019578081fd5b61202284611f36565b925061203060208501611f36565b9150604084013590509250925092565b60008060008060808587031215612055578081fd5b61205e85611f36565b9350602061206d818701611f36565b935060408601359250606086013567ffffffffffffffff80821115612090578384fd5b818801915088601f8301126120a3578384fd5b8135818111156120b5576120b5612ac9565b6120c7601f8201601f19168501612922565b915080825289848285010111156120dc578485fd5b8084840185840137810190920192909252939692955090935050565b6000806040838503121561210a578182fd5b61211383611f36565b9150602083013561212381612adf565b809150509250929050565b60008060408385031215612140578182fd5b61214983611f36565b946020939093013593505050565b60008060408385031215612169578182fd5b823567ffffffffffffffff80821115612180578384fd5b818501915085601f830112612193578384fd5b813560206121a3611f6d8361294c565b82815281810190858301838502870184018b10156121bf578889fd5b8896505b848710156121e8576121d481611f36565b8352600196909601959183019183016121c3565b50965050860135925050808211156121fe578283fd5b5061220b85828601611f4d565b9150509250929050565b600060208284031215612226578081fd5b815161223181612adf565b9392505050565b600060208284031215612249578081fd5b81516001600160e01b031981168114612231578182fd5b600060208284031215612271578081fd5b5035919050565b6000806040838503121561228a578182fd5b82359150611ffc60208401611f36565b6000806000604084860312156122ae578081fd5b83359250602084013567ffffffffffffffff808211156122cc578283fd5b818601915086601f8301126122df578283fd5b8135818111156122ed578384fd5b8760208285010111156122fe578384fd5b6020830194508093505050509250925092565b60008151808452612329816020860160208601612a11565b601f01601f19169290920160200192915050565b6000825161234f818460208701612a11565b9190910192915050565b6001600160a01b0391909116815260200190565b6001600160a01b039384168152919092166020820152604081019190915260600190565b6001600160a01b03858116825284166020820152604081018390526080606082018190526000906123c490830184612311565b9695505050505050565b6001600160a01b03958616815293909416602084015260408301919091526060820152608081019190915260a00190565b6001600160a01b03929092168252602082015260400190565b901515815260200190565b6000602082526106776020830184612311565b60208082526022908201527f456e756d657261626c655365743a20696e646578206f7574206f6620626f756e604082015261647360f01b606082015260800190565b60208082526023908201527f45524332303a207472616e7366657220746f20746865207a65726f206164647260408201526265737360e81b606082015260800190565b6020808252601f908201527f5472616e7366657248656c7065723a205452414e534645525f4641494c454400604082015260600190565b60208082526032908201527f4552433732313a207472616e7366657220746f206e6f6e20455243373231526560408201527131b2b4bb32b91034b6b83632b6b2b73a32b960711b606082015260800190565b60208082526024908201527f4552433732313a20617070726f76652063616c6c6572206973206e6f74206f7760408201526303732b9160e51b606082015260800190565b6020808252600b908201526a757365722065786973747360a81b604082015260600190565b60208082526019908201527f4552433732313a20617070726f766520746f2063616c6c657200000000000000604082015260600190565b6020808252601a908201527f54686520616d6f756e7420697320696e73756666696369656e74000000000000604082015260600190565b6020808252602d908201527f41727261794c656e676874206572722c546865206c656e6774682073686f756c60408201526c64206265207468652073616d6560981b606082015260800190565b6020808252818101527f4552433732313a206d696e7420746f20746865207a65726f2061646472657373604082015260600190565b6020808252602c908201527f4552433732313a20617070726f76656420717565727920666f72206e6f6e657860408201526b34b9ba32b73a103a37b5b2b760a11b606082015260800190565b60208082526021908201527f4552433732313a20617070726f76616c20746f2063757272656e74206f776e656040820152603960f91b606082015260800190565b60208082526025908201527f45524332303a207472616e736665722066726f6d20746865207a65726f206164604082015264647265737360d81b606082015260800190565b60208082526021908201527f436f72655265663a2043616c6c6572206973206e6f74206120676f7665726e6f6040820152603960f91b606082015260800190565b60208082526024908201527f5472616e7366657248656c7065723a205452414e534645525f46524f4d5f46416040820152631253115160e21b606082015260800190565b6020808252825182820152828101516001600160a01b0390811660408085019190915284015160c060608501526000929161283260e0860183612311565b6060870151821660808781019190915287015160a080880191909152870151868203601f190160c08801528051808352908501935085918501905b8083101561288f5784518416825293850193600192909201919085019061286d565b50979650505050505050565b81516001600160a01b0390811682526020808401519091169082015260408083015190820152606080830151908201526080918201519181019190915260a00190565b90815260200190565b600086825260018060a01b03808716602084015260a0604084015261290f60a0840187612311565b9416606083015250608001529392505050565b60405181810167ffffffffffffffff8111828210171561294457612944612ac9565b604052919050565b600067ffffffffffffffff82111561296657612966612ac9565b5060209081020190565b6000821982111561298357612983612ab3565b500190565b600060ff821660ff84168060ff038211156129a5576129a5612ab3565b019392505050565b600060ff8316806129cc57634e487b7160e01b82526012600452602482fd5b8060ff84160491505092915050565b60008160001904831182151516156129f5576129f5612ab3565b500290565b600082821015612a0c57612a0c612ab3565b500390565b60005b83811015612a2c578181015183820152602001612a14565b838111156112ca5750506000910152565b600281046001821680612a5157607f821691505b60208210811415612a7257634e487b7160e01b600052602260045260246000fd5b50919050565b6000600019821415612a8c57612a8c612ab3565b5060010190565b600060ff821660ff811415612aaa57612aaa612ab3565b60010192915050565b634e487b7160e01b600052601160045260246000fd5b634e487b7160e01b600052604160045260246000fd5b8015158114612aed57600080fd5b5056fea26469706673582212208a73d2bec447f5c72ac83befa6663ffe6538c7814d013416ef95de9547d8961364736f6c63430008000033",
  "immutableReferences": {},
  "source": "// SPDX-License-Identifier: MIT\r\npragma solidity ^0.8.0;\r\n\r\nimport \"../lib/TransferHelper.sol\";\r\nimport \"../lib/TokenSet.sol\";\r\nimport \"@openzeppelin/contracts/utils/math/SafeMath.sol\";\r\nimport \"../ref/CoreRef.sol\";\r\nimport \"../interface/IRbtVip.sol\";\r\nimport \"../interface/IERC721Receiver.sol\";\r\n\r\ncontract RbtVip is CoreRef,IRbtVip{\r\n    using SafeMath for uint;//\r\n    using Set for Set.TokenIdSet;//set\r\n    string public name = \"RVIP\";\r\n    string public symbol = \"RVIP\";\r\n    \r\n    uint public validity = 365 days; //\r\n    uint256 public vipPrice;//\r\n    uint public userSize = 0;//\r\n    address public FoundationAddress;//\r\n    address public  RBTEX;//rbtex\r\n    uint  private  initialNum=20090103;//\r\n    userVipStruct.Vip [] public vipArray;//vip\r\n    \r\n    userVipStruct.User[] public userListArray; // \r\n    \r\n    mapping(address  => Set.TokenIdSet)  vipNum;//address --token\r\n\r\n    mapping(address => uint) public referrerMaps;// addressID\r\n    \r\n    mapping (uint256 => address) private _tokenApprovals;// tokenId----\r\n    \r\n    mapping (address => mapping (address => bool)) private _operatorApprovals;//address address \r\n    \r\n    event  Register(uint indexed newId, uint indexed referrerId);//\r\n    \r\n    event Transfer(address indexed from, address indexed to, uint256 value);//ERC721 \r\n    \r\n    event TransferFundation(address indexed tokenAddr ,address indexed from, address indexed to, uint256 value);//\r\n\r\n    event Approval(address indexed owner, address indexed spender, uint256 value);//\r\n    \r\n    event ApprovalForAll(address indexed owner, address indexed operator, bool approved);\r\n    \r\n    \r\n    //\r\n    constructor(uint _price,address _foundationAddress,address _rbtex,address core) CoreRef(core) public {\r\n      vipPrice =_price;\r\n      FoundationAddress=_foundationAddress;\r\n      RBTEX=_rbtex;\r\n      userVipStruct.User memory user = userVipStruct.User({\r\n            id : initialNum, // IDID\r\n            addrRef : address(0),//0\r\n            registerTime:block.timestamp,//\r\n            nickname : 'admin',//admin \r\n            userAddress: msg.sender,//\r\n            childs: new address[](0) //0\r\n        });\r\n         userListArray.push(user);//\r\n         emit Register(initialNum,0);\r\n    }\r\n    \r\n    //\r\n   function register(uint referrerId, string calldata nickname) override external {\r\n        require(referrerMaps[msg.sender]==0,\"user exists\");\r\n        userSize ++;\r\n        uint newId = initialNum + userSize;\r\n        address  refAddress =userListArray[referrerId - initialNum].userAddress;\r\n        userVipStruct.User memory user = userVipStruct.User({\r\n            id : newId, // IDID\r\n            addrRef : refAddress,\r\n            registerTime:block.timestamp,\r\n            nickname : nickname,\r\n            userAddress: msg.sender,//\r\n            childs: new address[](0) \r\n        });\r\n        userListArray.push(user);\r\n        userListArray[referrerId-initialNum].childs.push(msg.sender);//\r\n        referrerMaps[msg.sender]=newId;\r\n        TransferHelper.safeTransfer(RBTEX, msg.sender, 1000e18);\r\n        emit Register(newId,referrerId);\r\n    }\r\n    \r\n      //vip(,)\r\n    function exchangeVip(uint vipNumber,address token) override public{\r\n        require(vipNumber > 0,\"The amount is insufficient\");\r\n        uint amount = vipNumber.mul(vipPrice);\r\n        for(uint i = 0;i < vipNumber; i++){\r\n         mint(msg.sender);\r\n        }\r\n        //vip\r\n        TransferHelper.safeTransferFrom(token,msg.sender,FoundationAddress,amount);\r\n        emit TransferFundation(token,msg.sender,FoundationAddress,amount* 10 ** 18);\r\n    }\r\n    \r\n    //vip  \r\n    function getVipLevel(address addr) public view override returns (uint) {\r\n        uint256 num=vipNum[addr].length();\r\n        if(num == 0){\r\n            return 0;\r\n        }\r\n        uint8 level = 0;\r\n        for (uint i = 0; i < num; i++) {\r\n            if(vipArray[vipNum[addr].at(i)-1].expireTime > block.timestamp){\r\n                level ++;\r\n            }\r\n        }\r\n        if(level<9){\r\n           return level/3 + 1;\r\n        }\r\n         return 4;\r\n      }\r\n    \r\n     \r\n      //token\r\n    function getAllVipIneffective() public view  override returns (uint maxExTokenId) {\r\n        for(uint i=0; i<vipArray.length;i++){\r\n             userVipStruct.Vip memory vip =vipArray[i];\r\n             if(vip.expireTime>block.timestamp){\r\n                 break;\r\n             }\r\n              maxExTokenId=vip.tokenId;\r\n          }\r\n    }\r\n    \r\n    \r\n    //token\r\n    function getOwerVipIneffective(address addr) public view override returns (uint maxOwnerExTokenId) {\r\n      uint num=vipNum[addr].length();\r\n      uint maxOwnerExpireTime=vipArray[vipNum[addr].at(0)-1].expireTime;\r\n      for(uint i=0; i<num; i++){\r\n       if( vipArray[vipNum[addr].at(i)-1].expireTime > maxOwnerExpireTime){\r\n           maxOwnerExpireTime=vipArray[vipNum[addr].at(i)-1].expireTime;\r\n           maxOwnerExTokenId=vipArray[vipNum[addr].at(i)-1].tokenId;\r\n          }\r\n      }\r\n    }\r\n    \r\n\r\n    //\r\n    function ownerOf(uint256 tokenId) public view override returns(address){\r\n      return  vipArray[tokenId-1].owner;\r\n    }\r\n    //\r\n     function  getVipInfo(uint256 tokenId) public  view  override returns(userVipStruct.Vip memory ){\r\n         return  vipArray[tokenId-1];\r\n    }\r\n\r\n    //\r\n    function  getUserInfo(address addr) public  view override  returns(userVipStruct.User memory ){\r\n         return  userListArray[referrerMaps[addr]-initialNum] ;\r\n    }\r\n\r\n    //\r\n     function mint(address to) internal returns(uint){\r\n       require(to != address(0), \"ERC721: mint to the zero address\");\r\n         uint256 newTokenId = vipArray.length+1;\r\n            userVipStruct.Vip memory vip = userVipStruct.Vip({\r\n                owner: to,\r\n                creator:to,\r\n                tokenId: newTokenId,\r\n                expireTime: block.timestamp+validity,\r\n                crtTime:block.timestamp\r\n            });\r\n            vipArray.push(vip);\r\n            vipNum[msg.sender].add(newTokenId);\r\n            emit Transfer(address(0), to,newTokenId);\r\n            return newTokenId;\r\n      }\r\n    \r\n    \r\n     // \r\n     function sendVipByWhiteList (address[] memory addr,uint [] memory amount) onlyGovernor public  {\r\n         require(addr.length==amount.length,\"ArrayLenght err,The length should be the same\");\r\n         for(uint i=0;i<addr.length;i++){\r\n          for(uint j = 0;j< amount[i]; j++){\r\n             mint(addr[i]);\r\n            }\r\n         }\r\n     }\r\n\r\n    //token\r\n     function tokenOfOwnerByIndex(address owner,uint index) public override view returns(uint){\r\n        return vipNum[owner].at(index);\r\n    }\r\n    \r\n    //\r\n     function balanceOf(address addr) public view override returns(uint){\r\n      return vipNum[addr].length();\r\n    }\r\n    \r\n    //token\r\n    function totalSupply() public view override returns(uint){\r\n      return vipArray.length;\r\n    }\r\n    \r\n    //\r\n     function approve(address to, uint256 tokenId) public  override {\r\n        address ownerAddr =vipArray[tokenId-1].owner;\r\n        require(to != ownerAddr, \"ERC721: approval to current owner\");\r\n        require(msg.sender == ownerAddr , \"ERC721: approve caller is not owner \" );\r\n        _tokenApprovals[tokenId] = ownerAddr;\r\n        emit Approval(ownerAddr, to, tokenId);\r\n    }\r\n    \r\n    //\r\n    function transfer(address from, address to, uint256 tokenId) public override {\r\n         require(from != address(0), \"ERC20: transfer from the zero address\");\r\n         require(to != address(0), \"ERC20: transfer to the zero address\");\r\n         vipNum[from].remove(tokenId);\r\n         vipNum[to].add(tokenId);\r\n         vipArray[tokenId-1].owner=to;\r\n         emit Transfer(from, to, tokenId);\r\n    }\r\n    \r\n    //NFT\r\n     function safeTransferFrom(address from, address to, uint256 tokenId, bytes memory _data) public virtual override  {\r\n        transfer(from, to, tokenId);\r\n        require(_checkOnERC721Received(from, to, tokenId, _data), \"ERC721: transfer to non ERC721Receiver implementer\");\r\n    }\r\n    \r\n    \r\n    //NFT\r\n      function safeTransferFrom(address from, address to, uint256 tokenId) public virtual override {\r\n        safeTransferFrom(from, to, tokenId, \"\");\r\n    }\r\n\r\n\r\n\r\n    //_operatorNFTs\r\n    function setApprovalForAll(address operator, bool approved) public virtual override {\r\n        require(operator != msg.sender, \"ERC721: approve to caller\");\r\n\r\n        _operatorApprovals[msg.sender][operator] = approved;\r\n        emit ApprovalForAll(msg.sender, operator, approved);\r\n    }\r\n\r\n   //\r\n    function isApprovedForAll(address owner, address operator) public view virtual override returns (bool) {\r\n        return _operatorApprovals[owner][operator];\r\n    }\r\n\r\n   //\r\n    function getApproved(uint256 tokenId) public view virtual override returns (address) {\r\n        require(vipArray[tokenId-1].owner!=address(0), \"ERC721: approved query for nonexistent token\");\r\n        return _tokenApprovals[tokenId];\r\n    }\r\n\r\n   //,,\r\n     function _checkOnERC721Received(address from, address to, uint256 tokenId, bytes memory _data)\r\n        private returns (bool)\r\n    {\r\n        if (isContract(to)) {\r\n            try IERC721Receiver(to).onERC721Received(msg.sender, from, tokenId, _data) returns (bytes4 retval) {\r\n                return retval == IERC721Receiver(to).onERC721Received.selector;\r\n            } catch (bytes memory reason) {\r\n                if (reason.length == 0) {\r\n                    revert(\"ERC721: transfer to non ERC721Receiver implementer\");\r\n                } else {\r\n                    assembly {\r\n                        revert(add(32, reason), mload(reason))\r\n                    }\r\n                }\r\n            }\r\n        } \r\n         return true;\r\n    }\r\n    \r\n     function isContract(address account) internal view returns (bool) {\r\n        uint256 size;\r\n        assembly { size := extcodesize(account) }\r\n        return size > 0;\r\n    }\r\n\r\n}",
  "sourcePath": "D://rainbow/RainbowDao-protocol/contracts/vip/RbtVip.sol",
  "compiler": {
    "name": "solc",
    "version": "0.8.0+commit.c7dfd78e.Emscripten.clang"
  },
  "schemaVersion": "3.4.1",
  "updatedAt": "2021-08-18T08:41:23.327Z",
  "networkType": "ethereum",
  "devdoc": {
    "kind": "dev",
    "methods": {},
    "version": 1
  },
  "userdoc": {
    "kind": "user",
    "methods": {},
    "version": 1
  }
}