{
  "contractName": "TokenExchangeMarketOrchestrator",
  "abi": [
    {
      "anonymous": false,
      "inputs": [
        {
          "indexed": true,
          "internalType": "address",
          "name": "previousOwner",
          "type": "address"
        },
        {
          "indexed": true,
          "internalType": "address",
          "name": "newOwner",
          "type": "address"
        }
      ],
      "name": "OwnershipTransferred",
      "type": "event"
    },
    {
      "inputs": [],
      "name": "agent",
      "outputs": [
        {
          "internalType": "address",
          "name": "",
          "type": "address"
        }
      ],
      "stateMutability": "view",
      "type": "function",
      "constant": true
    },
    {
      "inputs": [],
      "name": "owner",
      "outputs": [
        {
          "internalType": "address",
          "name": "",
          "type": "address"
        }
      ],
      "stateMutability": "view",
      "type": "function",
      "constant": true
    },
    {
      "inputs": [],
      "name": "renounceOwnership",
      "outputs": [],
      "stateMutability": "nonpayable",
      "type": "function"
    },
    {
      "inputs": [],
      "name": "tokenExchange",
      "outputs": [
        {
          "internalType": "address",
          "name": "",
          "type": "address"
        }
      ],
      "stateMutability": "view",
      "type": "function",
      "constant": true
    },
    {
      "inputs": [
        {
          "internalType": "address",
          "name": "newOwner",
          "type": "address"
        }
      ],
      "name": "transferOwnership",
      "outputs": [],
      "stateMutability": "nonpayable",
      "type": "function"
    },
    {
      "inputs": [
        {
          "internalType": "address",
          "name": "core",
          "type": "address"
        },
        {
          "internalType": "address",
          "name": "rbt",
          "type": "address"
        },
        {
          "internalType": "address",
          "name": "elf",
          "type": "address"
        },
        {
          "internalType": "address",
          "name": "envoy",
          "type": "address"
        },
        {
          "internalType": "address",
          "name": "partner",
          "type": "address"
        },
        {
          "internalType": "address",
          "name": "node",
          "type": "address"
        }
      ],
      "name": "init",
      "outputs": [],
      "stateMutability": "nonpayable",
      "type": "function"
    },
    {
      "inputs": [],
      "name": "detonate",
      "outputs": [],
      "stateMutability": "nonpayable",
      "type": "function"
    }
  ],
  "bytecode": "0x608060405234801561001057600080fd5b5061002161001c610026565b61002a565b61007a565b3390565b600080546001600160a01b038381166001600160a01b0319831681178455604051919092169283917f8be0079c531659141344cd1fd0a4f28419497f9722a3daafe3b4186f6b6457e09190a35050565b611650806100896000396000f3fe608060405234801561001057600080fd5b506004361061007d5760003560e01c806399e133f91161005b57806399e133f9146100b2578063b09614d6146100c5578063f2fde38b146100cd578063f5ff5c76146100e05761007d565b8063636f615914610082578063715018a6146100a05780638da5cb5b146100aa575b600080fd5b61008a6100e8565b604051610097919061043c565b60405180910390f35b6100a86100f7565b005b61008a61014b565b6100a86100c03660046103c9565b61015a565b6100a8610259565b6100a86100db3660046103a8565b6102ab565b61008a61031c565b6001546001600160a01b031681565b6100ff61032b565b6001600160a01b031661011061014b565b6001600160a01b03161461013f5760405162461bcd60e51b8152600401610136906104d0565b60405180910390fd5b610149600061032f565b565b6000546001600160a01b031690565b61016261032b565b6001600160a01b031661017361014b565b6001600160a01b0316146101995760405162461bcd60e51b8152600401610136906104d0565b856040516101a69061037f565b6101b0919061043c565b604051809103906000f0801580156101cc573d6000803e3d6000fd5b50600180546001600160a01b0319166001600160a01b0392831617908190556002546040516399e133f960e01b8152918316926399e133f99261021f929091169089908990899089908990600401610450565b600060405180830381600087803b15801561023957600080fd5b505af115801561024d573d6000803e3d6000fd5b50505050505050505050565b61026161032b565b6001600160a01b031661027261014b565b6001600160a01b0316146102985760405162461bcd60e51b8152600401610136906104d0565b6102a061014b565b6001600160a01b0316ff5b6102b361032b565b6001600160a01b03166102c461014b565b6001600160a01b0316146102ea5760405162461bcd60e51b8152600401610136906104d0565b6001600160a01b0381166103105760405162461bcd60e51b81526004016101369061048a565b6103198161032f565b50565b6002546001600160a01b031681565b3390565b600080546001600160a01b038381166001600160a01b0319831681178455604051919092169283917f8be0079c531659141344cd1fd0a4f28419497f9722a3daafe3b4186f6b6457e09190a35050565b6111158061050683390190565b80356001600160a01b03811681146103a357600080fd5b919050565b6000602082840312156103b9578081fd5b6103c28261038c565b9392505050565b60008060008060008060c087890312156103e1578182fd5b6103ea8761038c565b95506103f86020880161038c565b94506104066040880161038c565b93506104146060880161038c565b92506104226080880161038c565b915061043060a0880161038c565b90509295509295509295565b6001600160a01b0391909116815260200190565b6001600160a01b0396871681529486166020860152928516604085015290841660608401528316608083015290911660a082015260c00190565b60208082526026908201527f4f776e61626c653a206e6577206f776e657220697320746865207a65726f206160408201526564647265737360d01b606082015260800190565b6020808252818101527f4f776e61626c653a2063616c6c6572206973206e6f7420746865206f776e657260408201526060019056fe608060405234801561001057600080fd5b5060405161111538038061111583398101604081905261002f91610054565b600080546001600160a01b0319166001600160a01b0392909216919091179055610082565b600060208284031215610065578081fd5b81516001600160a01b038116811461007b578182fd5b9392505050565b611084806100916000396000f3fe608060405234801561001057600080fd5b50600436106100885760003560e01c806399e133f91161005b57806399e133f9146100f8578063ce22958b1461010b578063f2f4eb261461011e578063f8fb7c721461012657610088565b8063135b54dd1461008d57806380009630146100ab57806380c9419e146100c0578063814d79d9146100e5575b600080fd5b610095610139565b6040516100a29190610dd1565b60405180910390f35b6100be6100b9366004610c10565b6101c5565b005b6100d36100ce366004610d39565b6102b2565b6040516100a296959493929190610e34565b6100be6100f3366004610cd0565b610302565b6100be610106366004610c4f565b61055f565b6100be610119366004610cd0565b6105d0565b610095610922565b6100be610134366004610d69565b610931565b60008060009054906101000a90046001600160a01b03166001600160a01b03166318f7d8626040518163ffffffff1660e01b815260040160206040518083038186803b15801561018857600080fd5b505afa15801561019c573d6000803e3d6000fd5b505050506040513d601f19601f820116820180604052508101906101c09190610c33565b905090565b600054604051631c86b03760e31b81526001600160a01b039091169063e43581b8906101f5903390600401610dd1565b60206040518083038186803b15801561020d57600080fd5b505afa158015610221573d6000803e3d6000fd5b505050506040513d601f19601f820116820180604052508101906102459190610d19565b61026a5760405162461bcd60e51b815260040161026190610f06565b60405180910390fd5b600080546001600160a01b0319166001600160a01b038316908117825560405190917fad9400e618eb1344fde53db22397a1b82c765527ecbba3a5c86bcac15090828b91a250565b600181815481106102c257600080fd5b60009182526020909120600690910201805460018201546002830154600384015460048501546005909501546001600160a01b0390941695509193909286565b600161030e8185610fdf565b8154811061032c57634e487b7160e01b600052603260045260246000fd5b906000526020600020906006020160030154821461035c5760405162461bcd60e51b815260040161026190610e67565b6002546103b7906001600160a01b03168560016103798188610fdf565b8154811061039757634e487b7160e01b600052603260045260246000fd5b60009182526020909120600690910201546001600160a01b031685610b20565b60006103e86103c7846005610fc0565b6103d19190610fac565b600254909150610435906001600160a01b031660016103f08188610fdf565b8154811061040e57634e487b7160e01b600052603260045260246000fd5b60009182526020909120600690910201546003546001600160a01b03918216911684610b20565b6003546001600160a01b03808416916342842e0e9116876001610458818a610fdf565b8154811061047657634e487b7160e01b600052603260045260246000fd5b9060005260206000209060060201600101546040518463ffffffff1660e01b81526004016104a693929190610de5565b600060405180830381600087803b1580156104c057600080fd5b505af11580156104d4573d6000803e3d6000fd5b505050506001806001866104e89190610fdf565b8154811061050657634e487b7160e01b600052603260045260246000fd5b9060005260206000209060060201600501819055507f18c4d4bb32998ee713189c2051834cdff7fe95d5667fc12f5f7735b2443e7583858585856040516105509493929190610e09565b60405180910390a15050505050565b600380546001600160a01b03199081166001600160a01b039889161790915560028054909116958716959095179094559184166000908152600460205260408082206107d0905591851681528181206127109055918416825280822061c35090559190921682529020620186a09055565b60006105e164010000000042610ff6565b90506000826001600160a01b031663bf81bf43866040518263ffffffff1660e01b81526004016106119190610f8b565b60206040518083038186803b15801561062957600080fd5b505afa15801561063d573d6000803e3d6000fd5b505050506040513d601f19601f820116820180604052508101906106619190610d51565b6040516331a9108f60e11b81529091506001600160a01b03841690636352211e90610690908890600401610f8b565b60206040518083038186803b1580156106a857600080fd5b505afa1580156106bc573d6000803e3d6000fd5b505050506040513d601f19601f820116820180604052508101906106e09190610c33565b6001600160a01b0316866001600160a01b031614801561070657508163ffffffff168110155b6107225760405162461bcd60e51b815260040161026190610ecf565b600180546000916107339190610f94565b6040805160c0810182526001600160a01b038a81168252602082018a8152828401858152606084018b815260808501898152600060a08701818152600180548082018255925287517fb10e2d527612073b26eecdfd717e6a320cf44b4afac2b0732d9fcbe2b7fa0cf6600690930292830180546001600160a01b03191691891691909117905594517fb10e2d527612073b26eecdfd717e6a320cf44b4afac2b0732d9fcbe2b7fa0cf782015592517fb10e2d527612073b26eecdfd717e6a320cf44b4afac2b0732d9fcbe2b7fa0cf884015590517fb10e2d527612073b26eecdfd717e6a320cf44b4afac2b0732d9fcbe2b7fa0cf9830155517fb10e2d527612073b26eecdfd717e6a320cf44b4afac2b0732d9fcbe2b7fa0cfa82015590517fb10e2d527612073b26eecdfd717e6a320cf44b4afac2b0732d9fcbe2b7fa0cfb909101556003549251632142170760e11b81529394509092878216926342842e0e926108a9928d92909116908c90600401610de5565b600060405180830381600087803b1580156108c357600080fd5b505af11580156108d7573d6000803e3d6000fd5b505050507f1b38ce2719d9be70e0c768bd2a89d778eaef1cd41e3a4c02fa2317d415c3d348888888886040516109109493929190610e09565b60405180910390a15050505050505050565b6000546001600160a01b031690565b600161093d8184610fdf565b8154811061095b57634e487b7160e01b600052603260045260246000fd5b60009182526020909120600690910201546001600160a01b0316331480156109be5750600161098a8184610fdf565b815481106109a857634e487b7160e01b600052603260045260246000fd5b9060005260206000209060060201600501546000145b6109da5760405162461bcd60e51b815260040161026190610e8c565b6003546001600160a01b03808316916342842e0e91163360016109fd8188610fdf565b81548110610a1b57634e487b7160e01b600052603260045260246000fd5b9060005260206000209060060201600101546040518463ffffffff1660e01b8152600401610a4b93929190610de5565b600060405180830381600087803b158015610a6557600080fd5b505af1158015610a79573d6000803e3d6000fd5b5050505060018083610a8b9190610fdf565b81548110610aa957634e487b7160e01b600052603260045260246000fd5b60009182526020822060069091020180546001600160a01b0319168155600181018290556002810182905560038101829055600481018290556005018190556040516001600160a01b0383169184917f01f63c1b9d3957c18de0c44c6275215a4ad8986480fd414a049af3c3643ec9b39190a35050565b600080856001600160a01b03166323b872dd868686604051602401610b4793929190610de5565b6040516020818303038152906040529060e01b6020820180516001600160e01b038381831617835250505050604051610b809190610d98565b6000604051808303816000865af19150503d8060008114610bbd576040519150601f19603f3d011682016040523d82523d6000602084013e610bc2565b606091505b5091509150818015610bec575080511580610bec575080806020019051810190610bec9190610d19565b610c085760405162461bcd60e51b815260040161026190610f47565b505050505050565b600060208284031215610c21578081fd5b8135610c2c81611036565b9392505050565b600060208284031215610c44578081fd5b8151610c2c81611036565b60008060008060008060c08789031215610c67578182fd5b8635610c7281611036565b95506020870135610c8281611036565b94506040870135610c9281611036565b93506060870135610ca281611036565b92506080870135610cb281611036565b915060a0870135610cc281611036565b809150509295509295509295565b60008060008060808587031215610ce5578384fd5b8435610cf081611036565b935060208501359250604085013591506060850135610d0e81611036565b939692955090935050565b600060208284031215610d2a578081fd5b81518015158114610c2c578182fd5b600060208284031215610d4a578081fd5b5035919050565b600060208284031215610d62578081fd5b5051919050565b60008060408385031215610d7b578182fd5b823591506020830135610d8d81611036565b809150509250929050565b60008251815b81811015610db85760208186018101518583015201610d9e565b81811115610dc65782828501525b509190910192915050565b6001600160a01b0391909116815260200190565b6001600160a01b039384168152919092166020820152604081019190915260600190565b6001600160a01b03948516815260208101939093526040830191909152909116606082015260800190565b6001600160a01b03969096168652602086019490945260408501929092526060840152608083015260a082015260c00190565b6020808252600b908201526a43616e206e6f742062757960a81b604082015260600190565b60208082526023908201527f5468652063757272656e74207573657220686173206e6f207065726d697373696040820152626f6e7360e81b606082015260800190565b60208082526019908201527f54686520616464726573732063616e6e6f742062652073657400000000000000604082015260600190565b60208082526021908201527f436f72655265663a2043616c6c6572206973206e6f74206120676f7665726e6f6040820152603960f91b606082015260800190565b60208082526024908201527f5472616e7366657248656c7065723a205452414e534645525f46524f4d5f46416040820152631253115160e21b606082015260800190565b90815260200190565b60008219821115610fa757610fa761100a565b500190565b600082610fbb57610fbb611020565b500490565b6000816000190483118215151615610fda57610fda61100a565b500290565b600082821015610ff157610ff161100a565b500390565b60008261100557611005611020565b500690565b634e487b7160e01b600052601160045260246000fd5b634e487b7160e01b600052601260045260246000fd5b6001600160a01b038116811461104b57600080fd5b5056fea26469706673582212205d0c8c9294d37910f0a6b8a055fd06c5c2e1b729a9b61404905b5452deca9f4864736f6c63430008000033a2646970667358221220b0e2bbd74f6bf6c7bb92cf540252725bea6b4e8319ec527108c097da534eb3ed64736f6c63430008000033",
  "immutableReferences": {},
  "source": "// SPDX-License-Identifier: MIT\r\npragma solidity ^0.8.0;\r\npragma experimental ABIEncoderV2;\r\nimport \"@openzeppelin/contracts/access/Ownable.sol\";\r\nimport \"../RainbowBank/market721/TokenExchangeMarket.sol\";\r\n\r\ncontract TokenExchangeMarketOrchestrator is  Ownable{\r\n    address public tokenExchange;\r\n    address public agent;\r\n    function init(address core,address rbt,address elf ,address envoy,address  partner,address  node) public  onlyOwner{\r\n      tokenExchange=address(new TokenExchangeMarket(core));\r\n      TokenExchangeMarket(tokenExchange).init(agent,rbt,elf,envoy,partner,node);\r\n    }\r\n    function detonate() public  onlyOwner {\r\n      selfdestruct(payable(owner()));\r\n    }\r\n    \r\n}",
  "sourcePath": "D://rainbow/RainbowDao-protocol/contracts/orchestrator/TokenExchangeMarketOrchestrator.sol",
  "compiler": {
    "name": "solc",
    "version": "0.8.0+commit.c7dfd78e.Emscripten.clang"
  },
  "schemaVersion": "3.4.1",
  "updatedAt": "2021-10-16T03:51:57.540Z",
  "networkType": "ethereum",
  "devdoc": {
    "kind": "dev",
    "methods": {
      "owner()": {
        "details": "Returns the address of the current owner."
      },
      "renounceOwnership()": {
        "details": "Leaves the contract without owner. It will not be possible to call `onlyOwner` functions anymore. Can only be called by the current owner. NOTE: Renouncing ownership will leave the contract without an owner, thereby removing any functionality that is only available to the owner."
      },
      "transferOwnership(address)": {
        "details": "Transfers ownership of the contract to a new account (`newOwner`). Can only be called by the current owner."
      }
    },
    "version": 1
  },
  "userdoc": {
    "kind": "user",
    "methods": {},
    "version": 1
  }
}