{
  "contractName": "TokenExchangeMarket",
  "abi": [
    {
      "inputs": [
        {
          "internalType": "address",
          "name": "core",
          "type": "address"
        }
      ],
      "stateMutability": "nonpayable",
      "type": "constructor"
    },
    {
      "anonymous": false,
      "inputs": [
        {
          "indexed": false,
          "internalType": "address",
          "name": "from",
          "type": "address"
        },
        {
          "indexed": false,
          "internalType": "uint256",
          "name": "id",
          "type": "uint256"
        },
        {
          "indexed": false,
          "internalType": "uint256",
          "name": "bid",
          "type": "uint256"
        },
        {
          "indexed": false,
          "internalType": "address",
          "name": "_types",
          "type": "address"
        }
      ],
      "name": "BidToken",
      "type": "event"
    },
    {
      "anonymous": false,
      "inputs": [
        {
          "indexed": true,
          "internalType": "address",
          "name": "_core",
          "type": "address"
        }
      ],
      "name": "CoreUpdate",
      "type": "event"
    },
    {
      "anonymous": false,
      "inputs": [
        {
          "indexed": true,
          "internalType": "uint256",
          "name": "id",
          "type": "uint256"
        },
        {
          "indexed": true,
          "internalType": "address",
          "name": "_types",
          "type": "address"
        }
      ],
      "name": "Revocation",
      "type": "event"
    },
    {
      "anonymous": false,
      "inputs": [
        {
          "indexed": false,
          "internalType": "address",
          "name": "from",
          "type": "address"
        },
        {
          "indexed": false,
          "internalType": "uint256",
          "name": "tokenId",
          "type": "uint256"
        },
        {
          "indexed": false,
          "internalType": "uint256",
          "name": "sellPrice",
          "type": "uint256"
        },
        {
          "indexed": false,
          "internalType": "address",
          "name": "_types",
          "type": "address"
        }
      ],
      "name": "SellToken",
      "type": "event"
    },
    {
      "inputs": [],
      "name": "Rbt",
      "outputs": [
        {
          "internalType": "contract IERC20",
          "name": "",
          "type": "address"
        }
      ],
      "stateMutability": "view",
      "type": "function"
    },
    {
      "inputs": [],
      "name": "core",
      "outputs": [
        {
          "internalType": "contract ICore",
          "name": "",
          "type": "address"
        }
      ],
      "stateMutability": "view",
      "type": "function"
    },
    {
      "inputs": [
        {
          "internalType": "uint256",
          "name": "",
          "type": "uint256"
        }
      ],
      "name": "list",
      "outputs": [
        {
          "internalType": "address",
          "name": "owner",
          "type": "address"
        },
        {
          "internalType": "uint256",
          "name": "tokenId",
          "type": "uint256"
        },
        {
          "internalType": "uint256",
          "name": "id",
          "type": "uint256"
        },
        {
          "internalType": "uint256",
          "name": "price",
          "type": "uint256"
        },
        {
          "internalType": "uint256",
          "name": "expireTime",
          "type": "uint256"
        },
        {
          "internalType": "uint256",
          "name": "status",
          "type": "uint256"
        }
      ],
      "stateMutability": "view",
      "type": "function"
    },
    {
      "inputs": [
        {
          "internalType": "address",
          "name": "core",
          "type": "address"
        }
      ],
      "name": "setCore",
      "outputs": [],
      "stateMutability": "nonpayable",
      "type": "function"
    },
    {
      "inputs": [
        {
          "internalType": "address",
          "name": "_agent",
          "type": "address"
        },
        {
          "internalType": "address",
          "name": "_rbt",
          "type": "address"
        },
        {
          "internalType": "address",
          "name": "_elf",
          "type": "address"
        },
        {
          "internalType": "address",
          "name": "_envoy",
          "type": "address"
        },
        {
          "internalType": "address",
          "name": "_partner",
          "type": "address"
        },
        {
          "internalType": "address",
          "name": "_node",
          "type": "address"
        }
      ],
      "name": "init",
      "outputs": [],
      "stateMutability": "nonpayable",
      "type": "function"
    },
    {
      "inputs": [
        {
          "internalType": "address",
          "name": "from",
          "type": "address"
        },
        {
          "internalType": "uint256",
          "name": "tokenId",
          "type": "uint256"
        },
        {
          "internalType": "uint256",
          "name": "sellPrice",
          "type": "uint256"
        },
        {
          "internalType": "address",
          "name": "_types",
          "type": "address"
        }
      ],
      "name": "sellToken",
      "outputs": [],
      "stateMutability": "nonpayable",
      "type": "function"
    },
    {
      "inputs": [
        {
          "internalType": "address",
          "name": "from",
          "type": "address"
        },
        {
          "internalType": "uint256",
          "name": "id",
          "type": "uint256"
        },
        {
          "internalType": "uint256",
          "name": "bid",
          "type": "uint256"
        },
        {
          "internalType": "address",
          "name": "_types",
          "type": "address"
        }
      ],
      "name": "bidToken",
      "outputs": [],
      "stateMutability": "nonpayable",
      "type": "function"
    },
    {
      "inputs": [
        {
          "internalType": "uint256",
          "name": "id",
          "type": "uint256"
        },
        {
          "internalType": "address",
          "name": "_types",
          "type": "address"
        }
      ],
      "name": "revocation",
      "outputs": [],
      "stateMutability": "nonpayable",
      "type": "function"
    }
  ],
  "bytecode": "0x608060405234801561001057600080fd5b5060405161111538038061111583398101604081905261002f91610054565b600080546001600160a01b0319166001600160a01b0392909216919091179055610082565b600060208284031215610065578081fd5b81516001600160a01b038116811461007b578182fd5b9392505050565b611084806100916000396000f3fe608060405234801561001057600080fd5b50600436106100885760003560e01c806399e133f91161005b57806399e133f9146100f8578063ce22958b1461010b578063f2f4eb261461011e578063f8fb7c721461012657610088565b8063135b54dd1461008d57806380009630146100ab57806380c9419e146100c0578063814d79d9146100e5575b600080fd5b610095610139565b6040516100a29190610dd1565b60405180910390f35b6100be6100b9366004610c10565b6101c5565b005b6100d36100ce366004610d39565b6102b2565b6040516100a296959493929190610e34565b6100be6100f3366004610cd0565b610302565b6100be610106366004610c4f565b61055f565b6100be610119366004610cd0565b6105d0565b610095610922565b6100be610134366004610d69565b610931565b60008060009054906101000a90046001600160a01b03166001600160a01b03166318f7d8626040518163ffffffff1660e01b815260040160206040518083038186803b15801561018857600080fd5b505afa15801561019c573d6000803e3d6000fd5b505050506040513d601f19601f820116820180604052508101906101c09190610c33565b905090565b600054604051631c86b03760e31b81526001600160a01b039091169063e43581b8906101f5903390600401610dd1565b60206040518083038186803b15801561020d57600080fd5b505afa158015610221573d6000803e3d6000fd5b505050506040513d601f19601f820116820180604052508101906102459190610d19565b61026a5760405162461bcd60e51b815260040161026190610f06565b60405180910390fd5b600080546001600160a01b0319166001600160a01b038316908117825560405190917fad9400e618eb1344fde53db22397a1b82c765527ecbba3a5c86bcac15090828b91a250565b600181815481106102c257600080fd5b60009182526020909120600690910201805460018201546002830154600384015460048501546005909501546001600160a01b0390941695509193909286565b600161030e8185610fdf565b8154811061032c57634e487b7160e01b600052603260045260246000fd5b906000526020600020906006020160030154821461035c5760405162461bcd60e51b815260040161026190610e67565b6002546103b7906001600160a01b03168560016103798188610fdf565b8154811061039757634e487b7160e01b600052603260045260246000fd5b60009182526020909120600690910201546001600160a01b031685610b20565b60006103e86103c7846005610fc0565b6103d19190610fac565b600254909150610435906001600160a01b031660016103f08188610fdf565b8154811061040e57634e487b7160e01b600052603260045260246000fd5b60009182526020909120600690910201546003546001600160a01b03918216911684610b20565b6003546001600160a01b03808416916342842e0e9116876001610458818a610fdf565b8154811061047657634e487b7160e01b600052603260045260246000fd5b9060005260206000209060060201600101546040518463ffffffff1660e01b81526004016104a693929190610de5565b600060405180830381600087803b1580156104c057600080fd5b505af11580156104d4573d6000803e3d6000fd5b505050506001806001866104e89190610fdf565b8154811061050657634e487b7160e01b600052603260045260246000fd5b9060005260206000209060060201600501819055507f18c4d4bb32998ee713189c2051834cdff7fe95d5667fc12f5f7735b2443e7583858585856040516105509493929190610e09565b60405180910390a15050505050565b600380546001600160a01b03199081166001600160a01b039889161790915560028054909116958716959095179094559184166000908152600460205260408082206107d0905591851681528181206127109055918416825280822061c35090559190921682529020620186a09055565b60006105e164010000000042610ff6565b90506000826001600160a01b031663bf81bf43866040518263ffffffff1660e01b81526004016106119190610f8b565b60206040518083038186803b15801561062957600080fd5b505afa15801561063d573d6000803e3d6000fd5b505050506040513d601f19601f820116820180604052508101906106619190610d51565b6040516331a9108f60e11b81529091506001600160a01b03841690636352211e90610690908890600401610f8b565b60206040518083038186803b1580156106a857600080fd5b505afa1580156106bc573d6000803e3d6000fd5b505050506040513d601f19601f820116820180604052508101906106e09190610c33565b6001600160a01b0316866001600160a01b031614801561070657508163ffffffff168110155b6107225760405162461bcd60e51b815260040161026190610ecf565b600180546000916107339190610f94565b6040805160c0810182526001600160a01b038a81168252602082018a8152828401858152606084018b815260808501898152600060a08701818152600180548082018255925287517fb10e2d527612073b26eecdfd717e6a320cf44b4afac2b0732d9fcbe2b7fa0cf6600690930292830180546001600160a01b03191691891691909117905594517fb10e2d527612073b26eecdfd717e6a320cf44b4afac2b0732d9fcbe2b7fa0cf782015592517fb10e2d527612073b26eecdfd717e6a320cf44b4afac2b0732d9fcbe2b7fa0cf884015590517fb10e2d527612073b26eecdfd717e6a320cf44b4afac2b0732d9fcbe2b7fa0cf9830155517fb10e2d527612073b26eecdfd717e6a320cf44b4afac2b0732d9fcbe2b7fa0cfa82015590517fb10e2d527612073b26eecdfd717e6a320cf44b4afac2b0732d9fcbe2b7fa0cfb909101556003549251632142170760e11b81529394509092878216926342842e0e926108a9928d92909116908c90600401610de5565b600060405180830381600087803b1580156108c357600080fd5b505af11580156108d7573d6000803e3d6000fd5b505050507f1b38ce2719d9be70e0c768bd2a89d778eaef1cd41e3a4c02fa2317d415c3d348888888886040516109109493929190610e09565b60405180910390a15050505050505050565b6000546001600160a01b031690565b600161093d8184610fdf565b8154811061095b57634e487b7160e01b600052603260045260246000fd5b60009182526020909120600690910201546001600160a01b0316331480156109be5750600161098a8184610fdf565b815481106109a857634e487b7160e01b600052603260045260246000fd5b9060005260206000209060060201600501546000145b6109da5760405162461bcd60e51b815260040161026190610e8c565b6003546001600160a01b03808316916342842e0e91163360016109fd8188610fdf565b81548110610a1b57634e487b7160e01b600052603260045260246000fd5b9060005260206000209060060201600101546040518463ffffffff1660e01b8152600401610a4b93929190610de5565b600060405180830381600087803b158015610a6557600080fd5b505af1158015610a79573d6000803e3d6000fd5b5050505060018083610a8b9190610fdf565b81548110610aa957634e487b7160e01b600052603260045260246000fd5b60009182526020822060069091020180546001600160a01b0319168155600181018290556002810182905560038101829055600481018290556005018190556040516001600160a01b0383169184917f01f63c1b9d3957c18de0c44c6275215a4ad8986480fd414a049af3c3643ec9b39190a35050565b600080856001600160a01b03166323b872dd868686604051602401610b4793929190610de5565b6040516020818303038152906040529060e01b6020820180516001600160e01b038381831617835250505050604051610b809190610d98565b6000604051808303816000865af19150503d8060008114610bbd576040519150601f19603f3d011682016040523d82523d6000602084013e610bc2565b606091505b5091509150818015610bec575080511580610bec575080806020019051810190610bec9190610d19565b610c085760405162461bcd60e51b815260040161026190610f47565b505050505050565b600060208284031215610c21578081fd5b8135610c2c81611036565b9392505050565b600060208284031215610c44578081fd5b8151610c2c81611036565b60008060008060008060c08789031215610c67578182fd5b8635610c7281611036565b95506020870135610c8281611036565b94506040870135610c9281611036565b93506060870135610ca281611036565b92506080870135610cb281611036565b915060a0870135610cc281611036565b809150509295509295509295565b60008060008060808587031215610ce5578384fd5b8435610cf081611036565b935060208501359250604085013591506060850135610d0e81611036565b939692955090935050565b600060208284031215610d2a578081fd5b81518015158114610c2c578182fd5b600060208284031215610d4a578081fd5b5035919050565b600060208284031215610d62578081fd5b5051919050565b60008060408385031215610d7b578182fd5b823591506020830135610d8d81611036565b809150509250929050565b60008251815b81811015610db85760208186018101518583015201610d9e565b81811115610dc65782828501525b509190910192915050565b6001600160a01b0391909116815260200190565b6001600160a01b039384168152919092166020820152604081019190915260600190565b6001600160a01b03948516815260208101939093526040830191909152909116606082015260800190565b6001600160a01b03969096168652602086019490945260408501929092526060840152608083015260a082015260c00190565b6020808252600b908201526a43616e206e6f742062757960a81b604082015260600190565b60208082526023908201527f5468652063757272656e74207573657220686173206e6f207065726d697373696040820152626f6e7360e81b606082015260800190565b60208082526019908201527f54686520616464726573732063616e6e6f742062652073657400000000000000604082015260600190565b60208082526021908201527f436f72655265663a2043616c6c6572206973206e6f74206120676f7665726e6f6040820152603960f91b606082015260800190565b60208082526024908201527f5472616e7366657248656c7065723a205452414e534645525f46524f4d5f46416040820152631253115160e21b606082015260800190565b90815260200190565b60008219821115610fa757610fa761100a565b500190565b600082610fbb57610fbb611020565b500490565b6000816000190483118215151615610fda57610fda61100a565b500290565b600082821015610ff157610ff161100a565b500390565b60008261100557611005611020565b500690565b634e487b7160e01b600052601160045260246000fd5b634e487b7160e01b600052601260045260246000fd5b6001600160a01b038116811461104b57600080fd5b5056fea26469706673582212205d0c8c9294d37910f0a6b8a055fd06c5c2e1b729a9b61404905b5452deca9f4864736f6c63430008000033",
  "immutableReferences": {},
  "source": "\r\npragma solidity ^0.8.0;\r\nimport \"../../lib/TransferHelper.sol\";\r\nimport \"../../interface/token721/IRbtDeposit721.sol\";\r\nimport \"../../token721/Governance721.sol\";\r\nimport \"../../ref/CoreRef.sol\";\r\ncontract TokenExchangeMarket is CoreRef{\r\n    \r\n  struct NFTRecording {\r\n    address owner;//\r\n    uint tokenId;//id\r\n    uint  id;//\r\n    uint price;//\r\n    uint expireTime;//\r\n    uint status;//  01\r\n  }\r\n  \r\n  NFTRecording[] public list;\r\n  address rbt;\r\n  //\r\n  address agent;\r\n  mapping (address=>uint)types;//address->types\r\n  event SellToken(address from,uint tokenId,uint sellPrice,address _types);\r\n  event BidToken(address  from,uint id, uint bid,address _types);\r\n  event Revocation(uint indexed id,address indexed _types);\r\n  //\r\n  constructor(address core)CoreRef(core){}\r\n    \r\n  function init(address _agent,address _rbt,address _elf ,address _envoy,address _partner,address _node) external {\r\n    agent= _agent;\r\n    rbt = _rbt;\r\n    types[_elf] = 2000;\r\n    types[_envoy] = 10000;\r\n    types[_partner] = 50000;\r\n    types[_node] = 100000;\r\n    }\r\n \r\n  //\r\n  function sellToken(address from,uint tokenId,uint sellPrice,address _types) public{\r\n    //unit32\r\n    uint32 blockTime = uint32(block.timestamp % 2 ** 32);\r\n    //\r\n    uint time=Governance721(_types).expire(tokenId);\r\n    //tokenid\r\n    require(from==Governance721(_types).ownerOf(tokenId)&&time>=blockTime,'The address cannot be set');\r\n    uint id=list.length+1;\r\n    NFTRecording memory record = NFTRecording({\r\n      owner:from,//\r\n      tokenId:tokenId,//id\r\n      id:id,//tokenId\r\n      price:sellPrice,//\r\n      expireTime:time,//\r\n      status:0//\r\n    });\r\n    list.push(record);\r\n    //\r\n    Governance721(_types).safeTransferFrom(from,agent, tokenId);\r\n    emit SellToken(from,tokenId,sellPrice,_types);\r\n  }\r\n\r\n  //  \r\n  function bidToken(address from,uint id, uint bid,address _types) public {\r\n    //\r\n    require(bid==list[id-1].price,'Can not buy');\r\n    //rbt\r\n    TransferHelper.safeTransferFrom(rbt,from,list[id-1].owner, bid);\r\n    // \r\n    uint serviceCharge=bid*5/1000;\r\n    //\r\n    TransferHelper.safeTransferFrom(rbt,list[id-1].owner,agent, serviceCharge);\r\n    //\r\n    Governance721(_types).safeTransferFrom(agent,from,list[id-1].tokenId);\r\n    //\r\n    list[id-1].status=1;\r\n    emit BidToken(from,id,bid,_types);\r\n  }\r\n \r\n  //\r\n  function revocation(uint id,address _types)public{\r\n    require(msg.sender==list[id-1].owner&&list[id-1].status==0,\"The current user has no permissions\");\r\n    //\r\n    Governance721(_types).safeTransferFrom(agent,msg.sender, list[id-1].tokenId);\r\n    //list\r\n    delete list[id-1];\r\n    emit Revocation(id,_types);\r\n  }\r\n  \r\n}",
  "sourcePath": "D://rainbow/RainbowDao-protocol/contracts/RainbowBank/market721/TokenExchangeMarket.sol",
  "compiler": {
    "name": "solc",
    "version": "0.8.0+commit.c7dfd78e.Emscripten.clang"
  },
  "schemaVersion": "3.4.1",
  "updatedAt": "2021-10-16T03:51:57.548Z",
  "networkType": "ethereum",
  "devdoc": {
    "kind": "dev",
    "methods": {
      "Rbt()": {
        "returns": {
          "_0": "IFei implementation address"
        }
      },
      "core()": {
        "returns": {
          "_0": "ICore implementation address"
        }
      }
    },
    "version": 1
  },
  "userdoc": {
    "kind": "user",
    "methods": {
      "Rbt()": {
        "notice": "address of the Fei contract referenced by Core"
      },
      "core()": {
        "notice": "address of the Core contract referenced"
      }
    },
    "version": 1
  }
}