{
  "contractName": "VipExchangeMarketOrchestrator",
  "abi": [
    {
      "anonymous": false,
      "inputs": [
        {
          "indexed": true,
          "internalType": "address",
          "name": "previousOwner",
          "type": "address"
        },
        {
          "indexed": true,
          "internalType": "address",
          "name": "newOwner",
          "type": "address"
        }
      ],
      "name": "OwnershipTransferred",
      "type": "event"
    },
    {
      "inputs": [],
      "name": "agent",
      "outputs": [
        {
          "internalType": "address",
          "name": "",
          "type": "address"
        }
      ],
      "stateMutability": "view",
      "type": "function",
      "constant": true
    },
    {
      "inputs": [],
      "name": "owner",
      "outputs": [
        {
          "internalType": "address",
          "name": "",
          "type": "address"
        }
      ],
      "stateMutability": "view",
      "type": "function",
      "constant": true
    },
    {
      "inputs": [],
      "name": "renounceOwnership",
      "outputs": [],
      "stateMutability": "nonpayable",
      "type": "function"
    },
    {
      "inputs": [
        {
          "internalType": "address",
          "name": "newOwner",
          "type": "address"
        }
      ],
      "name": "transferOwnership",
      "outputs": [],
      "stateMutability": "nonpayable",
      "type": "function"
    },
    {
      "inputs": [],
      "name": "vipExchange",
      "outputs": [
        {
          "internalType": "address",
          "name": "",
          "type": "address"
        }
      ],
      "stateMutability": "view",
      "type": "function",
      "constant": true
    },
    {
      "inputs": [
        {
          "internalType": "address",
          "name": "core",
          "type": "address"
        },
        {
          "internalType": "address",
          "name": "rbt",
          "type": "address"
        },
        {
          "internalType": "address",
          "name": "vipToken",
          "type": "address"
        }
      ],
      "name": "init",
      "outputs": [],
      "stateMutability": "nonpayable",
      "type": "function"
    },
    {
      "inputs": [],
      "name": "detonate",
      "outputs": [],
      "stateMutability": "nonpayable",
      "type": "function"
    }
  ],
  "bytecode": "0x608060405234801561001057600080fd5b5061002161001c610026565b61002a565b61007a565b3390565b600080546001600160a01b038381166001600160a01b0319831681178455604051919092169283917f8be0079c531659141344cd1fd0a4f28419497f9722a3daafe3b4186f6b6457e09190a35050565b6115b4806100896000396000f3fe608060405234801561001057600080fd5b506004361061007d5760003560e01c80638da5cb5b1161005b5780638da5cb5b146100bd578063b09614d6146100c5578063f2fde38b146100cd578063f5ff5c76146100e05761007d565b8063184b9559146100825780631b424c2514610097578063715018a6146100b5575b600080fd5b6100956100903660046103c0565b6100e8565b005b61009f6101e7565b6040516100ac9190610402565b60405180910390f35b6100956101f6565b61009f610241565b610095610250565b6100956100db36600461039f565b6102a2565b61009f610313565b6100f0610322565b6001600160a01b0316610101610241565b6001600160a01b0316146101305760405162461bcd60e51b81526004016101279061047f565b60405180910390fd5b8260405161013d90610376565b6101479190610402565b604051809103906000f080158015610163573d6000803e3d6000fd5b50600180546001600160a01b0319166001600160a01b03928316179081905560025460405163184b955960e01b81529183169263184b9559926101b0929091169086908690600401610416565b600060405180830381600087803b1580156101ca57600080fd5b505af11580156101de573d6000803e3d6000fd5b50505050505050565b6001546001600160a01b031681565b6101fe610322565b6001600160a01b031661020f610241565b6001600160a01b0316146102355760405162461bcd60e51b81526004016101279061047f565b61023f6000610326565b565b6000546001600160a01b031690565b610258610322565b6001600160a01b0316610269610241565b6001600160a01b03161461028f5760405162461bcd60e51b81526004016101279061047f565b610297610241565b6001600160a01b0316ff5b6102aa610322565b6001600160a01b03166102bb610241565b6001600160a01b0316146102e15760405162461bcd60e51b81526004016101279061047f565b6001600160a01b0381166103075760405162461bcd60e51b815260040161012790610439565b61031081610326565b50565b6002546001600160a01b031681565b3390565b600080546001600160a01b038381166001600160a01b0319831681178455604051919092169283917f8be0079c531659141344cd1fd0a4f28419497f9722a3daafe3b4186f6b6457e09190a35050565b6110ca806104b583390190565b80356001600160a01b038116811461039a57600080fd5b919050565b6000602082840312156103b0578081fd5b6103b982610383565b9392505050565b6000806000606084860312156103d4578182fd5b6103dd84610383565b92506103eb60208501610383565b91506103f960408501610383565b90509250925092565b6001600160a01b0391909116815260200190565b6001600160a01b0393841681529183166020830152909116604082015260600190565b60208082526026908201527f4f776e61626c653a206e6577206f776e657220697320746865207a65726f206160408201526564647265737360d01b606082015260800190565b6020808252818101527f4f776e61626c653a2063616c6c6572206973206e6f7420746865206f776e657260408201526060019056fe608060405234801561001057600080fd5b506040516110ca3803806110ca83398101604081905261002f91610054565b600080546001600160a01b0319166001600160a01b0392909216919091179055610082565b600060208284031215610065578081fd5b81516001600160a01b038116811461007b578182fd5b9392505050565b611039806100916000396000f3fe608060405234801561001057600080fd5b50600436106100885760003560e01c806380c9419e1161005b57806380c9419e146100e6578063926a59141461010b578063f2f4eb261461011e578063f3a469b41461012657610088565b8063135b54dd1461008d578063184b9559146100ab5780633e11741f146100c057806380009630146100d3575b600080fd5b610095610139565b6040516100a29190610d90565b60405180910390f35b6100be6100b9366004610bf8565b6101c5565b005b6100be6100ce366004610c42565b610202565b6100be6100e1366004610bd5565b610560565b6100f96100f4366004610d3f565b610644565b6040516100a296959493929190610de9565b6100be610119366004610d3f565b610694565b610095610879565b6100be610134366004610c42565b610888565b60008060009054906101000a90046001600160a01b03166001600160a01b03166318f7d8626040518163ffffffff1660e01b815260040160206040518083038186803b15801561018857600080fd5b505afa15801561019c573d6000803e3d6000fd5b505050506040513d601f19601f820116820180604052508101906101c09190610c96565b905090565b600280546001600160a01b03199081166001600160a01b039485161790915560038054821694841694909417909355600480549093169116179055565b600061021364010000000042610fab565b60048054604051634d65beb160e01b81529293506000926001600160a01b0390911691634d65beb19161024891889101610f40565b60a06040518083038186803b15801561026057600080fd5b505afa158015610274573d6000803e3d6000fd5b505050506040513d601f19601f820116820180604052508101906102989190610cb2565b6080015160048054604051634d65beb160e01b81529293506001600160a01b031691634d65beb1916102cc91889101610f40565b60a06040518083038186803b1580156102e457600080fd5b505afa1580156102f8573d6000803e3d6000fd5b505050506040513d601f19601f8201168201806040525081019061031c9190610cb2565b516001600160a01b03868116911614801561033d57508163ffffffff168110155b6103625760405162461bcd60e51b815260040161035990610e84565b60405180910390fd5b600180546000916103739190610f49565b6040805160c0810182526001600160a01b03898116825260208201898152828401858152606084018a815260808501898152600060a08701818152600180548082018255925287517fb10e2d527612073b26eecdfd717e6a320cf44b4afac2b0732d9fcbe2b7fa0cf6600690930292830180546001600160a01b03191691891691909117905594517fb10e2d527612073b26eecdfd717e6a320cf44b4afac2b0732d9fcbe2b7fa0cf782015592517fb10e2d527612073b26eecdfd717e6a320cf44b4afac2b0732d9fcbe2b7fa0cf884015590517fb10e2d527612073b26eecdfd717e6a320cf44b4afac2b0732d9fcbe2b7fa0cf9830155517fb10e2d527612073b26eecdfd717e6a320cf44b4afac2b0732d9fcbe2b7fa0cfa82015590517fb10e2d527612073b26eecdfd717e6a320cf44b4afac2b0732d9fcbe2b7fa0cfb90910155600480546003549451632142170760e11b81529596509294928216936342842e0e936104ea938d939216918c9101610da4565b600060405180830381600087803b15801561050457600080fd5b505af1158015610518573d6000803e3d6000fd5b505050507fa8ff15eb642b39da3ab82bb74a87b76cc3e1aef2b82b70bc2a35458386db29aa87878760405161054f93929190610dc8565b60405180910390a150505050505050565b600054604051631c86b03760e31b81526001600160a01b039091169063e43581b890610590903390600401610d90565b60206040518083038186803b1580156105a857600080fd5b505afa1580156105bc573d6000803e3d6000fd5b505050506040513d601f19601f820116820180604052508101906105e09190610c76565b6105fc5760405162461bcd60e51b815260040161035990610ebb565b600080546001600160a01b0319166001600160a01b038316908117825560405190917fad9400e618eb1344fde53db22397a1b82c765527ecbba3a5c86bcac15090828b91a250565b6001818154811061065457600080fd5b60009182526020909120600690910201805460018201546002830154600384015460048501546005909501546001600160a01b0390941695509193909286565b60016106a08183610f94565b815481106106be57634e487b7160e01b600052603260045260246000fd5b60009182526020909120600690910201546001600160a01b031633148015610721575060016106ed8183610f94565b8154811061070b57634e487b7160e01b600052603260045260246000fd5b9060005260206000209060060201600501546000145b61073d5760405162461bcd60e51b815260040161035990610e41565b6004546003546001600160a01b03918216916342842e0e91163360016107638187610f94565b8154811061078157634e487b7160e01b600052603260045260246000fd5b9060005260206000209060060201600101546040518463ffffffff1660e01b81526004016107b193929190610da4565b600060405180830381600087803b1580156107cb57600080fd5b505af11580156107df573d6000803e3d6000fd5b50505050600180826107f19190610f94565b8154811061080f57634e487b7160e01b600052603260045260246000fd5b60009182526020822060069091020180546001600160a01b03191681556001810182905560028101829055600381018290556004810182905560050181905560405182917f6cc4d438459a31fd35ec316d16564607a47877a2139896562cabf23a92978aee91a250565b6000546001600160a01b031690565b60016108948184610f94565b815481106108b257634e487b7160e01b600052603260045260246000fd5b90600052602060002090600602016003015481146108e25760405162461bcd60e51b815260040161035990610e1c565b60025461093d906001600160a01b03168460016108ff8187610f94565b8154811061091d57634e487b7160e01b600052603260045260246000fd5b60009182526020909120600690910201546001600160a01b031684610ae5565b60006103e861094d836005610f75565b6109579190610f61565b6002549091506109bb906001600160a01b031660016109768187610f94565b8154811061099457634e487b7160e01b600052603260045260246000fd5b60009182526020909120600690910201546003546001600160a01b03918216911684610ae5565b6004546003546001600160a01b03918216916342842e0e91168660016109e18189610f94565b815481106109ff57634e487b7160e01b600052603260045260246000fd5b9060005260206000209060060201600101546040518463ffffffff1660e01b8152600401610a2f93929190610da4565b600060405180830381600087803b158015610a4957600080fd5b505af1158015610a5d573d6000803e3d6000fd5b50505050600180600185610a719190610f94565b81548110610a8f57634e487b7160e01b600052603260045260246000fd5b9060005260206000209060060201600501819055507fadb316c54462c1303594dfdda335cf93b2cb2ac09f9cb8c44c793876ce2564ce848484604051610ad793929190610dc8565b60405180910390a150505050565b600080856001600160a01b03166323b872dd868686604051602401610b0c93929190610da4565b6040516020818303038152906040529060e01b6020820180516001600160e01b038381831617835250505050604051610b459190610d57565b6000604051808303816000865af19150503d8060008114610b82576040519150601f19603f3d011682016040523d82523d6000602084013e610b87565b606091505b5091509150818015610bb1575080511580610bb1575080806020019051810190610bb19190610c76565b610bcd5760405162461bcd60e51b815260040161035990610efc565b505050505050565b600060208284031215610be6578081fd5b8135610bf181610feb565b9392505050565b600080600060608486031215610c0c578182fd5b8335610c1781610feb565b92506020840135610c2781610feb565b91506040840135610c3781610feb565b809150509250925092565b600080600060608486031215610c56578283fd5b8335610c6181610feb565b95602085013595506040909401359392505050565b600060208284031215610c87578081fd5b81518015158114610bf1578182fd5b600060208284031215610ca7578081fd5b8151610bf181610feb565b600060a08284031215610cc3578081fd5b60405160a0810181811067ffffffffffffffff82111715610cf257634e487b7160e01b83526041600452602483fd5b6040528251610d0081610feb565b81526020830151610d1081610feb565b806020830152506040830151604082015260608301516060820152608083015160808201528091505092915050565b600060208284031215610d50578081fd5b5035919050565b60008251815b81811015610d775760208186018101518583015201610d5d565b81811115610d855782828501525b509190910192915050565b6001600160a01b0391909116815260200190565b6001600160a01b039384168152919092166020820152604081019190915260600190565b6001600160a01b039390931683526020830191909152604082015260600190565b6001600160a01b03969096168652602086019490945260408501929092526060840152608083015260a082015260c00190565b6020808252600b908201526a43616e206e6f742062757960a81b604082015260600190565b60208082526023908201527f5468652063757272656e74207573657220686173206e6f207065726d697373696040820152626f6e7360e81b606082015260800190565b60208082526019908201527f54686520616464726573732063616e6e6f742062652073657400000000000000604082015260600190565b60208082526021908201527f436f72655265663a2043616c6c6572206973206e6f74206120676f7665726e6f6040820152603960f91b606082015260800190565b60208082526024908201527f5472616e7366657248656c7065723a205452414e534645525f46524f4d5f46416040820152631253115160e21b606082015260800190565b90815260200190565b60008219821115610f5c57610f5c610fbf565b500190565b600082610f7057610f70610fd5565b500490565b6000816000190483118215151615610f8f57610f8f610fbf565b500290565b600082821015610fa657610fa6610fbf565b500390565b600082610fba57610fba610fd5565b500690565b634e487b7160e01b600052601160045260246000fd5b634e487b7160e01b600052601260045260246000fd5b6001600160a01b038116811461100057600080fd5b5056fea26469706673582212206a3ac44ee1a40a0508d740d2334c052bd80dc6420353ebe30b877c68e6300c5164736f6c63430008000033a264697066735822122025d316f2e9aff60ce47e168cbf556da20e2daf7ed28193b303edbc33c969e8a764736f6c63430008000033",
  "immutableReferences": {},
  "source": "// SPDX-License-Identifier: MIT\r\npragma solidity ^0.8.0;\r\npragma experimental ABIEncoderV2;\r\nimport \"@openzeppelin/contracts/access/Ownable.sol\";\r\nimport \"../RainbowBank/market721/VipExchangeMarket.sol\";\r\n\r\ncontract VipExchangeMarketOrchestrator is  Ownable{\r\n    address public vipExchange;\r\n    address public agent;\r\n    function init(address core,address rbt,address vipToken) public  onlyOwner{\r\n      vipExchange=address(new VipExchangeMarket(core));\r\n      VipExchangeMarket(vipExchange).init(agent,rbt,vipToken);\r\n    }\r\n    function detonate() public  onlyOwner {\r\n      selfdestruct(payable(owner()));\r\n    }\r\n    \r\n}",
  "sourcePath": "D://rainbow/RainbowDao-protocol/contracts/orchestrator/VipExchangeMarketOrchestrator.sol",
  "compiler": {
    "name": "solc",
    "version": "0.8.0+commit.c7dfd78e.Emscripten.clang"
  },
  "schemaVersion": "3.4.1",
  "updatedAt": "2021-10-16T03:51:57.576Z",
  "networkType": "ethereum",
  "devdoc": {
    "kind": "dev",
    "methods": {
      "owner()": {
        "details": "Returns the address of the current owner."
      },
      "renounceOwnership()": {
        "details": "Leaves the contract without owner. It will not be possible to call `onlyOwner` functions anymore. Can only be called by the current owner. NOTE: Renouncing ownership will leave the contract without an owner, thereby removing any functionality that is only available to the owner."
      },
      "transferOwnership(address)": {
        "details": "Transfers ownership of the contract to a new account (`newOwner`). Can only be called by the current owner."
      }
    },
    "version": 1
  },
  "userdoc": {
    "kind": "user",
    "methods": {},
    "version": 1
  }
}