{
  "contractName": "VipExchangeMarket",
  "abi": [
    {
      "inputs": [
        {
          "internalType": "address",
          "name": "core",
          "type": "address"
        }
      ],
      "stateMutability": "nonpayable",
      "type": "constructor"
    },
    {
      "anonymous": false,
      "inputs": [
        {
          "indexed": false,
          "internalType": "address",
          "name": "from",
          "type": "address"
        },
        {
          "indexed": false,
          "internalType": "uint256",
          "name": "id",
          "type": "uint256"
        },
        {
          "indexed": false,
          "internalType": "uint256",
          "name": "bid",
          "type": "uint256"
        }
      ],
      "name": "BidToken",
      "type": "event"
    },
    {
      "anonymous": false,
      "inputs": [
        {
          "indexed": true,
          "internalType": "address",
          "name": "_core",
          "type": "address"
        }
      ],
      "name": "CoreUpdate",
      "type": "event"
    },
    {
      "anonymous": false,
      "inputs": [
        {
          "indexed": true,
          "internalType": "uint256",
          "name": "id",
          "type": "uint256"
        }
      ],
      "name": "Revocation",
      "type": "event"
    },
    {
      "anonymous": false,
      "inputs": [
        {
          "indexed": false,
          "internalType": "address",
          "name": "from",
          "type": "address"
        },
        {
          "indexed": false,
          "internalType": "uint256",
          "name": "tokenId",
          "type": "uint256"
        },
        {
          "indexed": false,
          "internalType": "uint256",
          "name": "sellPrice",
          "type": "uint256"
        }
      ],
      "name": "SellToken",
      "type": "event"
    },
    {
      "inputs": [],
      "name": "Rbt",
      "outputs": [
        {
          "internalType": "contract IERC20",
          "name": "",
          "type": "address"
        }
      ],
      "stateMutability": "view",
      "type": "function"
    },
    {
      "inputs": [],
      "name": "core",
      "outputs": [
        {
          "internalType": "contract ICore",
          "name": "",
          "type": "address"
        }
      ],
      "stateMutability": "view",
      "type": "function"
    },
    {
      "inputs": [
        {
          "internalType": "uint256",
          "name": "",
          "type": "uint256"
        }
      ],
      "name": "list",
      "outputs": [
        {
          "internalType": "address",
          "name": "owner",
          "type": "address"
        },
        {
          "internalType": "uint256",
          "name": "tokenId",
          "type": "uint256"
        },
        {
          "internalType": "uint256",
          "name": "id",
          "type": "uint256"
        },
        {
          "internalType": "uint256",
          "name": "price",
          "type": "uint256"
        },
        {
          "internalType": "uint256",
          "name": "expireTime",
          "type": "uint256"
        },
        {
          "internalType": "uint256",
          "name": "status",
          "type": "uint256"
        }
      ],
      "stateMutability": "view",
      "type": "function"
    },
    {
      "inputs": [
        {
          "internalType": "address",
          "name": "core",
          "type": "address"
        }
      ],
      "name": "setCore",
      "outputs": [],
      "stateMutability": "nonpayable",
      "type": "function"
    },
    {
      "inputs": [
        {
          "internalType": "address",
          "name": "_agent",
          "type": "address"
        },
        {
          "internalType": "address",
          "name": "_rbt",
          "type": "address"
        },
        {
          "internalType": "address",
          "name": "_vipToken",
          "type": "address"
        }
      ],
      "name": "init",
      "outputs": [],
      "stateMutability": "nonpayable",
      "type": "function"
    },
    {
      "inputs": [
        {
          "internalType": "address",
          "name": "from",
          "type": "address"
        },
        {
          "internalType": "uint256",
          "name": "tokenId",
          "type": "uint256"
        },
        {
          "internalType": "uint256",
          "name": "sellPrice",
          "type": "uint256"
        }
      ],
      "name": "sellToken",
      "outputs": [],
      "stateMutability": "nonpayable",
      "type": "function"
    },
    {
      "inputs": [
        {
          "internalType": "address",
          "name": "from",
          "type": "address"
        },
        {
          "internalType": "uint256",
          "name": "id",
          "type": "uint256"
        },
        {
          "internalType": "uint256",
          "name": "bid",
          "type": "uint256"
        }
      ],
      "name": "bidToken",
      "outputs": [],
      "stateMutability": "nonpayable",
      "type": "function"
    },
    {
      "inputs": [
        {
          "internalType": "uint256",
          "name": "id",
          "type": "uint256"
        }
      ],
      "name": "revocation",
      "outputs": [],
      "stateMutability": "nonpayable",
      "type": "function"
    }
  ],
  "bytecode": "0x608060405234801561001057600080fd5b506040516110ca3803806110ca83398101604081905261002f91610054565b600080546001600160a01b0319166001600160a01b0392909216919091179055610082565b600060208284031215610065578081fd5b81516001600160a01b038116811461007b578182fd5b9392505050565b611039806100916000396000f3fe608060405234801561001057600080fd5b50600436106100885760003560e01c806380c9419e1161005b57806380c9419e146100e6578063926a59141461010b578063f2f4eb261461011e578063f3a469b41461012657610088565b8063135b54dd1461008d578063184b9559146100ab5780633e11741f146100c057806380009630146100d3575b600080fd5b610095610139565b6040516100a29190610d90565b60405180910390f35b6100be6100b9366004610bf8565b6101c5565b005b6100be6100ce366004610c42565b610202565b6100be6100e1366004610bd5565b610560565b6100f96100f4366004610d3f565b610644565b6040516100a296959493929190610de9565b6100be610119366004610d3f565b610694565b610095610879565b6100be610134366004610c42565b610888565b60008060009054906101000a90046001600160a01b03166001600160a01b03166318f7d8626040518163ffffffff1660e01b815260040160206040518083038186803b15801561018857600080fd5b505afa15801561019c573d6000803e3d6000fd5b505050506040513d601f19601f820116820180604052508101906101c09190610c96565b905090565b600280546001600160a01b03199081166001600160a01b039485161790915560038054821694841694909417909355600480549093169116179055565b600061021364010000000042610fab565b60048054604051634d65beb160e01b81529293506000926001600160a01b0390911691634d65beb19161024891889101610f40565b60a06040518083038186803b15801561026057600080fd5b505afa158015610274573d6000803e3d6000fd5b505050506040513d601f19601f820116820180604052508101906102989190610cb2565b6080015160048054604051634d65beb160e01b81529293506001600160a01b031691634d65beb1916102cc91889101610f40565b60a06040518083038186803b1580156102e457600080fd5b505afa1580156102f8573d6000803e3d6000fd5b505050506040513d601f19601f8201168201806040525081019061031c9190610cb2565b516001600160a01b03868116911614801561033d57508163ffffffff168110155b6103625760405162461bcd60e51b815260040161035990610e84565b60405180910390fd5b600180546000916103739190610f49565b6040805160c0810182526001600160a01b03898116825260208201898152828401858152606084018a815260808501898152600060a08701818152600180548082018255925287517fb10e2d527612073b26eecdfd717e6a320cf44b4afac2b0732d9fcbe2b7fa0cf6600690930292830180546001600160a01b03191691891691909117905594517fb10e2d527612073b26eecdfd717e6a320cf44b4afac2b0732d9fcbe2b7fa0cf782015592517fb10e2d527612073b26eecdfd717e6a320cf44b4afac2b0732d9fcbe2b7fa0cf884015590517fb10e2d527612073b26eecdfd717e6a320cf44b4afac2b0732d9fcbe2b7fa0cf9830155517fb10e2d527612073b26eecdfd717e6a320cf44b4afac2b0732d9fcbe2b7fa0cfa82015590517fb10e2d527612073b26eecdfd717e6a320cf44b4afac2b0732d9fcbe2b7fa0cfb90910155600480546003549451632142170760e11b81529596509294928216936342842e0e936104ea938d939216918c9101610da4565b600060405180830381600087803b15801561050457600080fd5b505af1158015610518573d6000803e3d6000fd5b505050507fa8ff15eb642b39da3ab82bb74a87b76cc3e1aef2b82b70bc2a35458386db29aa87878760405161054f93929190610dc8565b60405180910390a150505050505050565b600054604051631c86b03760e31b81526001600160a01b039091169063e43581b890610590903390600401610d90565b60206040518083038186803b1580156105a857600080fd5b505afa1580156105bc573d6000803e3d6000fd5b505050506040513d601f19601f820116820180604052508101906105e09190610c76565b6105fc5760405162461bcd60e51b815260040161035990610ebb565b600080546001600160a01b0319166001600160a01b038316908117825560405190917fad9400e618eb1344fde53db22397a1b82c765527ecbba3a5c86bcac15090828b91a250565b6001818154811061065457600080fd5b60009182526020909120600690910201805460018201546002830154600384015460048501546005909501546001600160a01b0390941695509193909286565b60016106a08183610f94565b815481106106be57634e487b7160e01b600052603260045260246000fd5b60009182526020909120600690910201546001600160a01b031633148015610721575060016106ed8183610f94565b8154811061070b57634e487b7160e01b600052603260045260246000fd5b9060005260206000209060060201600501546000145b61073d5760405162461bcd60e51b815260040161035990610e41565b6004546003546001600160a01b03918216916342842e0e91163360016107638187610f94565b8154811061078157634e487b7160e01b600052603260045260246000fd5b9060005260206000209060060201600101546040518463ffffffff1660e01b81526004016107b193929190610da4565b600060405180830381600087803b1580156107cb57600080fd5b505af11580156107df573d6000803e3d6000fd5b50505050600180826107f19190610f94565b8154811061080f57634e487b7160e01b600052603260045260246000fd5b60009182526020822060069091020180546001600160a01b03191681556001810182905560028101829055600381018290556004810182905560050181905560405182917f6cc4d438459a31fd35ec316d16564607a47877a2139896562cabf23a92978aee91a250565b6000546001600160a01b031690565b60016108948184610f94565b815481106108b257634e487b7160e01b600052603260045260246000fd5b90600052602060002090600602016003015481146108e25760405162461bcd60e51b815260040161035990610e1c565b60025461093d906001600160a01b03168460016108ff8187610f94565b8154811061091d57634e487b7160e01b600052603260045260246000fd5b60009182526020909120600690910201546001600160a01b031684610ae5565b60006103e861094d836005610f75565b6109579190610f61565b6002549091506109bb906001600160a01b031660016109768187610f94565b8154811061099457634e487b7160e01b600052603260045260246000fd5b60009182526020909120600690910201546003546001600160a01b03918216911684610ae5565b6004546003546001600160a01b03918216916342842e0e91168660016109e18189610f94565b815481106109ff57634e487b7160e01b600052603260045260246000fd5b9060005260206000209060060201600101546040518463ffffffff1660e01b8152600401610a2f93929190610da4565b600060405180830381600087803b158015610a4957600080fd5b505af1158015610a5d573d6000803e3d6000fd5b50505050600180600185610a719190610f94565b81548110610a8f57634e487b7160e01b600052603260045260246000fd5b9060005260206000209060060201600501819055507fadb316c54462c1303594dfdda335cf93b2cb2ac09f9cb8c44c793876ce2564ce848484604051610ad793929190610dc8565b60405180910390a150505050565b600080856001600160a01b03166323b872dd868686604051602401610b0c93929190610da4565b6040516020818303038152906040529060e01b6020820180516001600160e01b038381831617835250505050604051610b459190610d57565b6000604051808303816000865af19150503d8060008114610b82576040519150601f19603f3d011682016040523d82523d6000602084013e610b87565b606091505b5091509150818015610bb1575080511580610bb1575080806020019051810190610bb19190610c76565b610bcd5760405162461bcd60e51b815260040161035990610efc565b505050505050565b600060208284031215610be6578081fd5b8135610bf181610feb565b9392505050565b600080600060608486031215610c0c578182fd5b8335610c1781610feb565b92506020840135610c2781610feb565b91506040840135610c3781610feb565b809150509250925092565b600080600060608486031215610c56578283fd5b8335610c6181610feb565b95602085013595506040909401359392505050565b600060208284031215610c87578081fd5b81518015158114610bf1578182fd5b600060208284031215610ca7578081fd5b8151610bf181610feb565b600060a08284031215610cc3578081fd5b60405160a0810181811067ffffffffffffffff82111715610cf257634e487b7160e01b83526041600452602483fd5b6040528251610d0081610feb565b81526020830151610d1081610feb565b806020830152506040830151604082015260608301516060820152608083015160808201528091505092915050565b600060208284031215610d50578081fd5b5035919050565b60008251815b81811015610d775760208186018101518583015201610d5d565b81811115610d855782828501525b509190910192915050565b6001600160a01b0391909116815260200190565b6001600160a01b039384168152919092166020820152604081019190915260600190565b6001600160a01b039390931683526020830191909152604082015260600190565b6001600160a01b03969096168652602086019490945260408501929092526060840152608083015260a082015260c00190565b6020808252600b908201526a43616e206e6f742062757960a81b604082015260600190565b60208082526023908201527f5468652063757272656e74207573657220686173206e6f207065726d697373696040820152626f6e7360e81b606082015260800190565b60208082526019908201527f54686520616464726573732063616e6e6f742062652073657400000000000000604082015260600190565b60208082526021908201527f436f72655265663a2043616c6c6572206973206e6f74206120676f7665726e6f6040820152603960f91b606082015260800190565b60208082526024908201527f5472616e7366657248656c7065723a205452414e534645525f46524f4d5f46416040820152631253115160e21b606082015260800190565b90815260200190565b60008219821115610f5c57610f5c610fbf565b500190565b600082610f7057610f70610fd5565b500490565b6000816000190483118215151615610f8f57610f8f610fbf565b500290565b600082821015610fa657610fa6610fbf565b500390565b600082610fba57610fba610fd5565b500690565b634e487b7160e01b600052601160045260246000fd5b634e487b7160e01b600052601260045260246000fd5b6001600160a01b038116811461100057600080fd5b5056fea26469706673582212206a3ac44ee1a40a0508d740d2334c052bd80dc6420353ebe30b877c68e6300c5164736f6c63430008000033",
  "immutableReferences": {},
  "source": "\r\npragma solidity ^0.8.0;\r\nimport \"../../lib/TransferHelper.sol\";\r\nimport \"../../interface/token721/IRbtDeposit721.sol\";\r\nimport \"../../token721/Governance721.sol\";\r\nimport \"../../ref/CoreRef.sol\";\r\nimport \"../../interface/IRbtVip.sol\";\r\ncontract VipExchangeMarket is CoreRef{\r\n    \r\n  struct NFTRecording {\r\n    address owner;//\r\n    uint tokenId;//id\r\n    uint  id;//\r\n    uint price;//\r\n    uint expireTime;//\r\n    uint status;//  01\r\n  }\r\n  \r\n  NFTRecording[] public list;\r\n  address rbt;\r\n  //\r\n  address agent;\r\n  address vipToken;\r\n  event SellToken(address from,uint tokenId,uint sellPrice);\r\n  event BidToken(address  from,uint id, uint bid);\r\n  event Revocation(uint indexed id);\r\n  //\r\n  constructor(address core)CoreRef(core){}\r\n    \r\n  function init(address _agent,address _rbt,address _vipToken) external {\r\n    rbt=_rbt;\r\n    agent= _agent;\r\n    vipToken=_vipToken;\r\n    }\r\n \r\n  //\r\n  function sellToken(address from,uint tokenId,uint sellPrice) public{\r\n    //unit32\r\n    uint32 blockTime = uint32(block.timestamp % 2 ** 32);\r\n    //\r\n    //uint time=Governance721(_types).expire(tokenId);\r\n    uint time=IRbtVip(vipToken).getVipInfo(tokenId).expireTime;\r\n    //tokenid\r\n    require(from==IRbtVip(vipToken).getVipInfo(tokenId).owner&&time>=blockTime,'The address cannot be set');\r\n    uint id=list.length+1;\r\n    NFTRecording memory record = NFTRecording({\r\n      owner:from,//\r\n      tokenId:tokenId,//id\r\n      id:id,//tokenId\r\n      price:sellPrice,//\r\n      expireTime:time,//\r\n      status:0//\r\n    });\r\n    list.push(record);\r\n    //\r\n    IRbtVip(vipToken).safeTransferFrom(from,agent, tokenId);\r\n    emit SellToken(from,tokenId,sellPrice);\r\n  }\r\n\r\n  //  \r\n  function bidToken(address from,uint id, uint bid) public {\r\n    //\r\n    require(bid==list[id-1].price,'Can not buy');\r\n    //rbt\r\n    TransferHelper.safeTransferFrom(rbt,from,list[id-1].owner, bid);\r\n    // \r\n    uint serviceCharge=bid*5/1000;\r\n    //\r\n    TransferHelper.safeTransferFrom(rbt,list[id-1].owner,agent, serviceCharge);\r\n    //\r\n    IRbtVip(vipToken).safeTransferFrom(agent,from,list[id-1].tokenId);\r\n    //\r\n    list[id-1].status=1;\r\n    emit BidToken(from,id,bid);\r\n  }\r\n \r\n    //\r\n  function revocation(uint id)public{\r\n    require(msg.sender==list[id-1].owner&&list[id-1].status==0,\"The current user has no permissions\");\r\n    //\r\n    IRbtVip(vipToken).safeTransferFrom(agent,msg.sender, list[id-1].tokenId);\r\n    //list\r\n    delete list[id-1];\r\n    emit Revocation(id);\r\n  }\r\n  \r\n}",
  "sourcePath": "D://rainbow/RainbowDao-protocol/contracts/RainbowBank/market721/VipExchangeMarket.sol",
  "compiler": {
    "name": "solc",
    "version": "0.8.0+commit.c7dfd78e.Emscripten.clang"
  },
  "schemaVersion": "3.4.1",
  "updatedAt": "2021-10-16T03:51:57.583Z",
  "networkType": "ethereum",
  "devdoc": {
    "kind": "dev",
    "methods": {
      "Rbt()": {
        "returns": {
          "_0": "IFei implementation address"
        }
      },
      "core()": {
        "returns": {
          "_0": "ICore implementation address"
        }
      }
    },
    "version": 1
  },
  "userdoc": {
    "kind": "user",
    "methods": {
      "Rbt()": {
        "notice": "address of the Fei contract referenced by Core"
      },
      "core()": {
        "notice": "address of the Core contract referenced"
      }
    },
    "version": 1
  }
}