{
  "contractName": "VoteId",
  "abi": [
    {
      "inputs": [],
      "name": "voteId",
      "outputs": [
        {
          "internalType": "uint256",
          "name": "",
          "type": "uint256"
        }
      ],
      "stateMutability": "view",
      "type": "function"
    },
    {
      "inputs": [],
      "name": "incrVoteId",
      "outputs": [
        {
          "internalType": "uint256",
          "name": "",
          "type": "uint256"
        }
      ],
      "stateMutability": "nonpayable",
      "type": "function"
    }
  ],
  "bytecode": "0x608060405234801561001057600080fd5b5060d88061001f6000396000f3fe6080604052348015600f57600080fd5b506004361060325760003560e01c8063cf7e7b8d146037578063fbb39651146051575b600080fd5b603d6057565b604051604891906073565b60405180910390f35b603d606d565b600080548180606483607c565b91905055905090565b60005481565b90815260200190565b6000600019821415609b57634e487b7160e01b81526011600452602481fd5b506001019056fea2646970667358221220b4249c595352351f8d304e37796f676e3f27064106d071509a4ae13ce97c39fd64736f6c63430008000033",
  "immutableReferences": {},
  "source": "pragma solidity ^0.8.0;\r\nimport '../interface/gov/IVoteId.sol';\r\ncontract VoteId is IVoteId{\r\n    uint public voteId;\r\n    function incrVoteId() external  override returns(uint) {\r\n       return voteId++;\r\n    }\r\n}\r\n",
  "sourcePath": "D:/公司项目/rainbow/RainbowDao-protocol/contracts/gov/VoteId.sol",
  "compiler": {
    "name": "solc",
    "version": "0.8.0+commit.c7dfd78e.Emscripten.clang"
  },
  "schemaVersion": "3.4.1",
  "updatedAt": "2021-10-16T03:51:57.835Z",
  "networkType": "ethereum",
  "devdoc": {
    "kind": "dev",
    "methods": {},
    "version": 1
  },
  "userdoc": {
    "kind": "user",
    "methods": {},
    "version": 1
  }
}