{
  "contractName": "Vote",
  "abi": [
    {
      "inputs": [
        {
          "internalType": "address",
          "name": "nodeAddress",
          "type": "address"
        },
        {
          "internalType": "address",
          "name": "core",
          "type": "address"
        }
      ],
      "stateMutability": "nonpayable",
      "type": "constructor"
    },
    {
      "anonymous": false,
      "inputs": [
        {
          "indexed": true,
          "internalType": "address",
          "name": "_core",
          "type": "address"
        }
      ],
      "name": "CoreUpdate",
      "type": "event"
    },
    {
      "inputs": [],
      "name": "ImpeachRef",
      "outputs": [
        {
          "internalType": "contract IImpeach",
          "name": "",
          "type": "address"
        }
      ],
      "stateMutability": "view",
      "type": "function"
    },
    {
      "inputs": [],
      "name": "Ip",
      "outputs": [
        {
          "internalType": "contract IParliament",
          "name": "",
          "type": "address"
        }
      ],
      "stateMutability": "view",
      "type": "function"
    },
    {
      "inputs": [],
      "name": "Rbt",
      "outputs": [
        {
          "internalType": "contract IERC20",
          "name": "",
          "type": "address"
        }
      ],
      "stateMutability": "view",
      "type": "function"
    },
    {
      "inputs": [],
      "name": "RbtVote",
      "outputs": [
        {
          "internalType": "contract IRbtVote",
          "name": "",
          "type": "address"
        }
      ],
      "stateMutability": "view",
      "type": "function"
    },
    {
      "inputs": [],
      "name": "cityNode",
      "outputs": [
        {
          "internalType": "contract ICityNode",
          "name": "",
          "type": "address"
        }
      ],
      "stateMutability": "view",
      "type": "function"
    },
    {
      "inputs": [],
      "name": "core",
      "outputs": [
        {
          "internalType": "contract ICore",
          "name": "",
          "type": "address"
        }
      ],
      "stateMutability": "view",
      "type": "function"
    },
    {
      "inputs": [
        {
          "internalType": "address",
          "name": "core",
          "type": "address"
        }
      ],
      "name": "setCore",
      "outputs": [],
      "stateMutability": "nonpayable",
      "type": "function"
    },
    {
      "inputs": [
        {
          "internalType": "address",
          "name": "addr",
          "type": "address"
        }
      ],
      "name": "setImpeachAddr",
      "outputs": [],
      "stateMutability": "nonpayable",
      "type": "function"
    },
    {
      "inputs": [
        {
          "internalType": "address",
          "name": "addr",
          "type": "address"
        }
      ],
      "name": "setRbtVote",
      "outputs": [],
      "stateMutability": "nonpayable",
      "type": "function"
    },
    {
      "inputs": [
        {
          "internalType": "uint256",
          "name": "nodeId",
          "type": "uint256"
        },
        {
          "internalType": "address",
          "name": "receiver",
          "type": "address"
        },
        {
          "internalType": "uint256",
          "name": "tickets",
          "type": "uint256"
        },
        {
          "internalType": "uint256",
          "name": "voteType",
          "type": "uint256"
        }
      ],
      "name": "vote",
      "outputs": [],
      "stateMutability": "nonpayable",
      "type": "function"
    },
    {
      "inputs": [
        {
          "internalType": "uint256",
          "name": "nodeId",
          "type": "uint256"
        },
        {
          "internalType": "uint256",
          "name": "votetype",
          "type": "uint256"
        }
      ],
      "name": "endVote",
      "outputs": [],
      "stateMutability": "nonpayable",
      "type": "function"
    },
    {
      "inputs": [
        {
          "internalType": "uint256",
          "name": "id",
          "type": "uint256"
        },
        {
          "internalType": "uint256",
          "name": "tickets",
          "type": "uint256"
        }
      ],
      "name": "voteToImpeach",
      "outputs": [],
      "stateMutability": "nonpayable",
      "type": "function"
    },
    {
      "inputs": [
        {
          "internalType": "contract IParliament",
          "name": "gov",
          "type": "address"
        },
        {
          "internalType": "uint256",
          "name": "id",
          "type": "uint256"
        },
        {
          "internalType": "uint256",
          "name": "voteId",
          "type": "uint256"
        },
        {
          "internalType": "address",
          "name": "receiver",
          "type": "address"
        },
        {
          "internalType": "uint256",
          "name": "tickets",
          "type": "uint256"
        }
      ],
      "name": "voteGovernance",
      "outputs": [],
      "stateMutability": "nonpayable",
      "type": "function"
    },
    {
      "inputs": [
        {
          "internalType": "contract ICommunityGovernanceFund",
          "name": "gov",
          "type": "address"
        },
        {
          "internalType": "uint256",
          "name": "voteId",
          "type": "uint256"
        },
        {
          "internalType": "address",
          "name": "receiver",
          "type": "address"
        },
        {
          "internalType": "uint256",
          "name": "tickets",
          "type": "uint256"
        }
      ],
      "name": "voteGovernanceFund",
      "outputs": [],
      "stateMutability": "nonpayable",
      "type": "function"
    }
  ],
  "bytecode": "0x60806040523480156200001157600080fd5b5060405162001f5838038062001f58833981016040819052620000349162000090565b600080546001600160a01b039384166001600160a01b0319918216811790925560018054821690921790915560028054929093169116179055620000c7565b80516001600160a01b03811681146200008b57600080fd5b919050565b60008060408385031215620000a3578182fd5b620000ae8362000073565b9150620000be6020840162000073565b90509250929050565b611e8180620000d76000396000f3fe608060405234801561001057600080fd5b50600436106100ea5760003560e01c806381064c6f1161008c578063c3d3b09211610066578063c3d3b0921461018e578063ebbd2132146101a1578063f2f4eb26146101b4578063f4dfdde7146101bc576100ea565b806381064c6f14610160578063964f31621461017357806398e434dd1461017b576100ea565b8063674b5a30116100c8578063674b5a301461013557806370ca09bc1461013d578063744a218414610145578063800096301461014d576100ea565b8063135b54dd146100ef5780631a4586a21461010d578063548807a514610122575b600080fd5b6100f76101cf565b6040516101049190611b26565b60405180910390f35b61012061011b366004611900565b610251565b005b610120610130366004611822565b6102c7565b6100f761038e565b6100f761039d565b6100f76103ac565b61012061015b366004611822565b6103bb565b61012061016e36600461189d565b6104a1565b6100f7610514565b610120610189366004611a95565b610523565b61012061019c366004611b05565b610a4d565b6101206101af366004611b05565b6112a7565b6100f7611631565b6101206101ca366004611822565b611640565b60025460408051630c7bec3160e11b815290516000926001600160a01b0316916318f7d862916004808301926020929190829003018186803b15801561021457600080fd5b505afa158015610228573d6000803e3d6000fd5b505050506040513d601f19601f8201168201806040525081019061024c91906118e4565b905090565b61025c3384836116fe565b6040516306a98c8f60e11b81526001600160a01b03861690630d53191e9061028e908790879087908790600401611d54565b600060405180830381600087803b1580156102a857600080fd5b505af11580156102bc573d6000803e3d6000fd5b505050505050505050565b600254604051631c86b03760e31b81526001600160a01b039091169063e43581b8906102f7903390600401611b26565b60206040518083038186803b15801561030f57600080fd5b505afa158015610323573d6000803e3d6000fd5b505050506040513d601f19601f82011682018060405250810190610347919061183e565b61036c5760405162461bcd60e51b815260040161036390611c54565b60405180910390fd5b600380546001600160a01b0319166001600160a01b0392909216919091179055565b6001546001600160a01b031681565b6000546001600160a01b031681565b6003546001600160a01b031681565b600254604051631c86b03760e31b81526001600160a01b039091169063e43581b8906103eb903390600401611b26565b60206040518083038186803b15801561040357600080fd5b505afa158015610417573d6000803e3d6000fd5b505050506040513d601f19601f8201168201806040525081019061043b919061183e565b6104575760405162461bcd60e51b815260040161036390611c54565b600280546001600160a01b0319166001600160a01b0383169081179091556040517fad9400e618eb1344fde53db22397a1b82c765527ecbba3a5c86bcac15090828b90600090a250565b6104ac3384836116fe565b60405163375a328b60e11b81526001600160a01b03851690636eb46516906104dc90869086908690600401611cda565b600060405180830381600087803b1580156104f657600080fd5b505af115801561050a573d6000803e3d6000fd5b5050505050505050565b6004546001600160a01b031681565b600154604051638b7f0f9560e01b8152859133916001600160a01b0390911690638b7f0f95906105599085908590600401611cc3565b60206040518083038186803b15801561057157600080fd5b505afa158015610585573d6000803e3d6000fd5b505050506040513d601f19601f820116820180604052508101906105a9919061183e565b6105c55760405162461bcd60e51b815260040161036390611c05565b82600114156107d45760015460405163249a40cd60e01b8152600091829182916001600160a01b03169063249a40cd90610603908c90600401611cba565b60806040518083038186803b15801561061b57600080fd5b505afa15801561062f573d6000803e3d6000fd5b505050506040513d601f19601f820116820180604052508101906106539190611858565b93505092509250826106775760405162461bcd60e51b815260040161036390611bdb565b426106858362127500611dc6565b10801561069d57504261069b83621baf80611dc6565b115b6106b95760405162461bcd60e51b815260040161036390611c95565b600054604051630a29325f60e31b81526001600160a01b039091169063514992f8906106ed908c9085908d90600401611d35565b60206040518083038186803b15801561070557600080fd5b505afa158015610719573d6000803e3d6000fd5b505050506040513d601f19601f8201168201806040525081019061073d919061183e565b6107595760405162461bcd60e51b815260040161036390611c25565b6107643382896116fe565b600054604051637312b8a960e11b81526001600160a01b039091169063e62571529061079a908c9085908d908d90600401611d54565b600060405180830381600087803b1580156107b457600080fd5b505af11580156107c8573d6000803e3d6000fd5b50505050505050610a45565b8260021415610a455760015460405163ed725ee560e01b815260009182916001600160a01b039091169063ed725ee590610812908b90600401611cba565b60606040518083038186803b15801561082a57600080fd5b505afa15801561083e573d6000803e3d6000fd5b505050506040513d601f19601f820116820180604052508101906108629190611ad1565b50909250905060018115151461088a5760405162461bcd60e51b815260040161036390611bdb565b600154604051631f087cad60e21b81526000916001600160a01b031690637c21f2b4906108bb908c90600401611cba565b60206040518083038186803b1580156108d357600080fd5b505afa1580156108e7573d6000803e3d6000fd5b505050506040513d601f19601f8201168201806040525081019061090b9190611a11565b60015460405163138bec1360e11b81529192506000916001600160a01b0390911690632717d82690610943908d908690600401611d27565b60206040518083038186803b15801561095b57600080fd5b505afa15801561096f573d6000803e3d6000fd5b505050506040513d601f19601f820116820180604052508101906109939190611a11565b9050600f81101580156109b15750426109af8562093a80611dc6565b115b6109cd5760405162461bcd60e51b815260040161036390611b97565b6109d833838a6116fe565b6001546040516306a98c8f60e11b81526001600160a01b0390911690630d53191e90610a0e908d9086908e908e90600401611d54565b600060405180830381600087803b158015610a2857600080fd5b505af1158015610a3c573d6000803e3d6000fd5b50505050505050505b505050505050565b60035460405163161d23b360e21b81526000916001600160a01b0316906358748ecc90610a7e908690600401611cba565b6101806040518083038186803b158015610a9757600080fd5b505afa158015610aab573d6000803e3d6000fd5b505050506040513d601f19601f82011682018060405250810190610acf9190611951565b61010081015190915015610af55760405162461bcd60e51b815260040161036390611bbb565b60e0810151610b079062093a80611dc6565b4210610b1257600080fd5b610b2233826101600151846116fe565b60035460405163e934f98f60e01b81526001600160a01b039091169063e934f98f90610b549086908690600401611d27565b600060405180830381600087803b158015610b6e57600080fd5b505af1158015610b82573d6000803e3d6000fd5b5050600480546101608501516040516342a422e960e11b8152600095506001600160a01b03909216935063854845d292610bbc9201611cba565b60206040518083038186803b158015610bd457600080fd5b505afa158015610be8573d6000803e3d6000fd5b505050506040513d601f19601f82011682018060405250810190610c0c9190611a11565b9050610c246064610c1e83601e6117d7565b906117ea565b6080830151610c3390856117f6565b11156112a157600161010083015260035460405163e689692f60e01b81526001600160a01b039091169063e689692f90610c71908790600401611cba565b600060405180830381600087803b158015610c8b57600080fd5b505af1158015610c9f573d6000803e3d6000fd5b505050508160200151600014611037576060820151602083015160405163249a40cd60e01b81526000916001600160a01b0384169163249a40cd91610ce691600401611cba565b60806040518083038186803b158015610cfe57600080fd5b505afa158015610d12573d6000803e3d6000fd5b505050506040513d601f19601f82011682018060405250810190610d369190611858565b935050505083610120015160011415610db357602084015160405163207fed3f60e21b81526001600160a01b038416916381ffb4fc91610d7c9190600090600401611cc3565b600060405180830381600087803b158015610d9657600080fd5b505af1158015610daa573d6000803e3d6000fd5b50505050610fa6565b83610120015160021415610fa657602084015160a08501516040516339dc0a8960e01b81526001600160a01b038516926339dc0a8992610df592600401611cc3565b600060405180830381600087803b158015610e0f57600080fd5b505af1158015610e23573d6000803e3d6000fd5b505050506020840151604051631f087cad60e21b81526000916001600160a01b03851691637c21f2b491610e5991600401611cba565b60206040518083038186803b158015610e7157600080fd5b505afa158015610e85573d6000803e3d6000fd5b505050506040513d601f19601f82011682018060405250810190610ea99190611a11565b90506000836001600160a01b031663ed725ee587602001516040518263ffffffff1660e01b8152600401610edd9190611cba565b60606040518083038186803b158015610ef557600080fd5b505afa158015610f09573d6000803e3d6000fd5b505050506040513d601f19601f82011682018060405250810190610f2d9190611ad1565b92505050836001600160a01b0316638e960246876020015184846001610f539190611dc6565b6040518463ffffffff1660e01b8152600401610f7193929190611d78565b600060405180830381600087803b158015610f8b57600080fd5b505af1158015610f9f573d6000803e3d6000fd5b5050505050505b816001600160a01b03166359b4dd408560200151610fc26101cf565b610140880151610fd3906005611dfe565b8860c001518961012001516040518663ffffffff1660e01b8152600401610ffe959493929190611cf9565b600060405180830381600087803b15801561101857600080fd5b505af115801561102c573d6000803e3d6000fd5b5050505050506112a1565b6000826040015190506000806000806000806000876001600160a01b03166320bec62a6040518163ffffffff1660e01b815260040160e060405180830381600087803b15801561108657600080fd5b505af115801561109a573d6000803e3d6000fd5b505050506040513d601f19601f820116820180604052508101906110be9190611a29565b96509650965096509650965096508961012001516001141561113e5760405163538ece2960e01b81526001600160a01b0389169063538ece299061110790600090600401611b26565b600060405180830381600087803b15801561112157600080fd5b505af1158015611135573d6000803e3d6000fd5b5050505061121b565b8961012001516002141561121b5760a08a015160405163102389ab60e11b81526001600160a01b038a169163204713569161117c9190600401611b26565b600060405180830381600087803b15801561119657600080fd5b505af11580156111aa573d6000803e3d6000fd5b50505050876001600160a01b0316630fb3a754868460016111cb9190611dc6565b6040518363ffffffff1660e01b81526004016111e8929190611d27565b600060405180830381600087803b15801561120257600080fd5b505af1158015611216573d6000803e3d6000fd5b505050505b876001600160a01b031663b29ead596112326101cf565b6101408d0151611243906005611dfe565b8d60c001516040518463ffffffff1660e01b815260040161126693929190611b53565b600060405180830381600087803b15801561128057600080fd5b505af1158015611294573d6000803e3d6000fd5b5050505050505050505050505b50505050565b600154604051638b7f0f9560e01b8152839133916001600160a01b0390911690638b7f0f95906112dd9085908590600401611cc3565b60206040518083038186803b1580156112f557600080fd5b505afa158015611309573d6000803e3d6000fd5b505050506040513d601f19601f8201168201806040525081019061132d919061183e565b6113495760405162461bcd60e51b815260040161036390611c05565b82600114156114925760015460405163249a40cd60e01b8152600091829182916001600160a01b03169063249a40cd90611387908a90600401611cba565b60806040518083038186803b15801561139f57600080fd5b505afa1580156113b3573d6000803e3d6000fd5b505050506040513d601f19601f820116820180604052508101906113d79190611858565b93505092509250826113fb5760405162461bcd60e51b815260040161036390611bdb565b4261140983621baf80611dc6565b106114265760405162461bcd60e51b815260040161036390611c95565b60005460405163397a3ad160e21b81526001600160a01b039091169063e5e8eb4490611458908a908590600401611d27565b600060405180830381600087803b15801561147257600080fd5b505af1158015611486573d6000803e3d6000fd5b505050505050506112a1565b82600214156112a15760015460405163ed725ee560e01b815260009182916001600160a01b039091169063ed725ee5906114d0908990600401611cba565b60606040518083038186803b1580156114e857600080fd5b505afa1580156114fc573d6000803e3d6000fd5b505050506040513d601f19601f820116820180604052508101906115209190611ad1565b5091509150806115425760405162461bcd60e51b815260040161036390611bdb565b600154604051631f087cad60e21b81526000916001600160a01b031690637c21f2b490611573908a90600401611cba565b60206040518083038186803b15801561158b57600080fd5b505afa15801561159f573d6000803e3d6000fd5b505050506040513d601f19601f820116820180604052508101906115c39190611a11565b60005460405163770346bb60e11b81529192506001600160a01b03169063ee068d76906115f6908a908590600401611d27565b600060405180830381600087803b15801561161057600080fd5b505af1158015611624573d6000803e3d6000fd5b5050505050505050505050565b6002546001600160a01b031690565b600254604051631c86b03760e31b81526001600160a01b039091169063e43581b890611670903390600401611b26565b60206040518083038186803b15801561168857600080fd5b505afa15801561169c573d6000803e3d6000fd5b505050506040513d601f19601f820116820180604052508101906116c0919061183e565b6116dc5760405162461bcd60e51b815260040161036390611c54565b600480546001600160a01b0319166001600160a01b0392909216919091179055565b600480546040516362a7cd2960e11b81526000926001600160a01b039092169163c54f9a5291611732918891889101611b3a565b60206040518083038186803b15801561174a57600080fd5b505afa15801561175e573d6000803e3d6000fd5b505050506040513d601f19601f820116820180604052508101906117829190611a11565b9050818110156117a45760405162461bcd60e51b815260040161036390611b97565b6004805460405163d6961a0360e01b81526001600160a01b039091169163d6961a03916104dc9188918891889101611b76565b60006117e38284611dfe565b9392505050565b60006117e38284611dde565b60006117e38284611dc6565b805161180d81611e33565b919050565b8051801515811461180d57600080fd5b600060208284031215611833578081fd5b81356117e381611e33565b60006020828403121561184f578081fd5b6117e382611812565b6000806000806080858703121561186d578283fd5b61187685611812565b935060208501519250604085015161188d81611e33565b6060959095015193969295505050565b600080600080608085870312156118b2578384fd5b84356118bd81611e33565b93506020850135925060408501356118d481611e33565b9396929550929360600135925050565b6000602082840312156118f5578081fd5b81516117e381611e33565b600080600080600060a08688031215611917578081fd5b853561192281611e33565b94506020860135935060408601359250606086013561194081611e33565b949793965091946080013592915050565b6000610180808385031215611964578182fd5b61196d81611d8e565b9050825181526020830151602082015261198960408401611802565b604082015261199a60608401611802565b6060820152608083015160808201526119b560a08401611802565b60a08201526119c660c08401611802565b60c082015260e083015160e08201526101006119e3818501611812565b9082015261012083810151908201526101408084015190820152610160928301519281019290925250919050565b600060208284031215611a22578081fd5b5051919050565b600080600080600080600060e0888a031215611a43578182fd5b875196506020880151611a5581611e33565b60408901519096509450611a6b60608901611812565b9350611a7960808901611812565b925060a0880151915060c0880151905092959891949750929550565b60008060008060808587031215611aaa578182fd5b843593506020850135611abc81611e33565b93969395505050506040820135916060013590565b600080600060608486031215611ae5578081fd5b83519250611af560208501611812565b9150604084015190509250925092565b60008060408385031215611b17578182fd5b50508035926020909101359150565b6001600160a01b0391909116815260200190565b6001600160a01b03929092168252602082015260400190565b6001600160a01b0393841681526020810192909252909116604082015260600190565b6001600160a01b039390931683526020830191909152604082015260600190565b6020808252600a90820152690dcdee840cadcdeeaced60b31b604082015260600190565b6020808252600690820152651a5cc8195b9960d21b604082015260600190565b60208082526010908201526f6e6f7420696e20766f74652074696d6560801b604082015260600190565b6020808252600690820152653737ba1034b760d11b604082015260600190565b6020808252601590820152743737903430bb32903a3434b9903932b1b2b4bb32b960591b604082015260600190565b60208082526021908201527f436f72655265663a2043616c6c6572206973206e6f74206120676f7665726e6f6040820152603960f91b606082015260800190565b6020808252600b908201526a6e6f7420696e2074696d6560a81b604082015260600190565b90815260200190565b9182526001600160a01b0316602082015260400190565b9283526001600160a01b03919091166020830152604082015260600190565b9485526001600160a01b03938416602086015260408501929092529091166060830152608082015260a00190565b918252602082015260400190565b92835260208301919091526001600160a01b0316604082015260600190565b93845260208401929092526001600160a01b03166040830152606082015260800190565b9283526020830191909152604082015260600190565b60405181810167ffffffffffffffff81118282101715611dbe57634e487b7160e01b600052604160045260246000fd5b604052919050565b60008219821115611dd957611dd9611e1d565b500190565b600082611df957634e487b7160e01b81526012600452602481fd5b500490565b6000816000190483118215151615611e1857611e18611e1d565b500290565b634e487b7160e01b600052601160045260246000fd5b6001600160a01b0381168114611e4857600080fd5b5056fea2646970667358221220e361302ecffa6ff2ba7145f3bd0d91e2208a3ee3aa2c72af27c7b546c935615364736f6c63430008000033",
  "immutableReferences": {},
  "source": "pragma solidity ^0.8.0;\r\n\r\nimport './CityNodeRef.sol';\r\nimport '../interface/gov/IImpeach.sol';\r\nimport '@openzeppelin/contracts/utils/math/SafeMath.sol';\r\nimport '../interface/gov/IGovernanceCommittee.sol';\r\nimport '../interface/gov/IParliament.sol';\r\nimport '../interface/gov/ICommunityGovernanceFund.sol';\r\nimport \"../ref/CoreRef.sol\";\r\nimport '../interface/IRbtVote.sol';\r\ncontract Vote is CityNodeRef,CoreRef {\r\n    using SafeMath for uint256;\r\n    IImpeach public ImpeachRef;\r\n\r\n    IRbtVote public RbtVote;\r\n    constructor(address nodeAddress,address core) public  CityNodeRef(nodeAddress) CoreRef(core)  {}\r\n\r\n    function setImpeachAddr(address addr) public  onlyGovernor() {\r\n        ImpeachRef = IImpeach(addr);\r\n    }\r\n    function setRbtVote(address addr) public  onlyGovernor() {\r\n        RbtVote = IRbtVote(addr);\r\n    }\r\n\r\n\r\n\r\n    function _subVotes(address user,uint voteId,uint amount) internal {\r\n       uint allTickets =  RbtVote.getcommissionedVotes(user,voteId);\r\n       require(allTickets >= amount,'not enough');\r\n        RbtVote.subcommissionedVotes(user,voteId,amount);\r\n    }\r\n\r\n    /*\r\n     @dev \r\n     @params nodeId ID\r\n     @params receiver \r\n     @params tickets \r\n\r\n */\r\n    function vote(uint nodeId,address receiver,uint tickets,uint voteType) external  _inNode(nodeId,msg.sender)  {\r\n\r\n        if(voteType == 1){\r\n            (bool votePeriod, uint expireTime, , uint nodeVoteId ) = Ip.getCityNodeInfo(nodeId);\r\n\r\n            require(votePeriod,'not in vote time');\r\n            //todo for test close\r\n             require(expireTime + 14 days < block.timestamp && expireTime + 21 days > block.timestamp,'not in time');\r\n            require(cityNode.getExistsApplyUsers(nodeId,nodeVoteId,receiver),'no have this receiver');\r\n\r\n            _subVotes(msg.sender,nodeVoteId,tickets);\r\n            cityNode.voteToManager( nodeId,nodeVoteId,receiver,tickets);\r\n        }else if(voteType == 2){\r\n            (uint expireTime, bool votePeriod,) = Ip.parliamentInfo(nodeId);\r\n            require(votePeriod == true,'not in vote time');\r\n            uint voteId = Ip.getApplyParliamentVoteId(nodeId);\r\n            (uint applyLength) = Ip.getApplyParliament(nodeId,voteId);\r\n             //todo for test close\r\n             require(applyLength >= 15 && expireTime + 7 days > block.timestamp,'not enough');\r\n            _subVotes(msg.sender,voteId,tickets);\r\n            Ip.voteToParliament(nodeId,voteId,receiver,tickets);\r\n        }\r\n    }\r\n    /*\r\n      @dev \r\n      @params nodeId ID\r\n    */\r\n    function endVote(uint nodeId,uint votetype) external  _inNode(nodeId,msg.sender){\r\n        if(votetype == 1){\r\n            (bool votePeriod,uint expireTime , , uint voteId)= Ip.getCityNodeInfo(nodeId);\r\n            require(votePeriod,'not in vote time');\r\n            require( expireTime + 21 days < block.timestamp,'not in time');\r\n            cityNode.endToManager(nodeId,voteId);\r\n        }else if(votetype == 2){\r\n            (uint expireTime,bool votePeriod,) = Ip.parliamentInfo(nodeId);\r\n             require(votePeriod,'not in vote time');\r\n             uint voteId = Ip.getApplyParliamentVoteId(nodeId);\r\n             cityNode.endToParliament(nodeId,voteId);\r\n        }\r\n     \r\n    }\r\n\r\n    /*\r\n        @dev\r\n         @params id id\r\n         @params tickets \r\n    */\r\n    function voteToImpeach(uint id,uint tickets) public {\r\n        PublicStructs.Impeach memory im = ImpeachRef.getImpeach(id);\r\n        require(im.success == false,'is end');\r\n        require(block.timestamp < im.creationTime + 7 days);\r\n\r\n        _subVotes(msg.sender,im.voteId,tickets);\r\n\r\n        ImpeachRef.setImpeachTickets(id,tickets);\r\n\r\n        uint  allTickets = RbtVote.getDelegateVote(im.voteId);\r\n        //\r\n        if(im.tickets.add(tickets) > allTickets.mul(30).div(100)){\r\n            im.success = true;\r\n            ImpeachRef.setImpeachSuccess(id);\r\n            if(im.nodeId != 0){\r\n                IParliament icn = im.icn;\r\n                ( ,  , , uint nodeVoteId)= icn.getCityNodeInfo(im.nodeId);\r\n                if(im.impeachtype == 1){\r\n                    icn.setManagerInfo(im.nodeId,address(0));\r\n                }else if(im.impeachtype == 2){\r\n                    //\r\n                    icn.removeParliament(im.nodeId,im.acceptor);\r\n                    //\r\n                    uint voteId = icn.getApplyParliamentVoteId(im.nodeId);\r\n                    (,,uint impeachIndex) = icn.parliamentInfo(im.nodeId);\r\n                    icn.setParliament(im.nodeId,voteId,impeachIndex+1);\r\n                }\r\n                icn.impeachExtract(im.nodeId,address(Rbt()),im.amount * 5,im.sponsor,im.impeachtype);\r\n            }else{\r\n                //\r\n                ICommunityGovernanceFund gov = im.gov;\r\n                (uint expireTime,address manager,uint voteId,bool votePeriod,bool active,uint impeachIndex,uint proposalBlockNumber)= gov.cgInfo();\r\n                if(im.impeachtype == 1){\r\n                    gov.setManagerInfo(address(0));\r\n                } else if(im.impeachtype == 2) {\r\n                    gov.removeParliament(im.acceptor);\r\n                    gov.setParliament(voteId,impeachIndex + 1);\r\n                }\r\n                gov.impeachExtract(address(Rbt()),im.amount * 5,im.sponsor);\r\n            }\r\n\r\n        }\r\n    }\r\n\r\n    /*\r\n        @dev\r\n    */\r\n    function voteGovernance(IParliament gov,uint id,uint voteId,address receiver,uint tickets) public {\r\n        _subVotes(msg.sender,voteId,tickets);\r\n        gov.voteToParliament(id,voteId,receiver,tickets);\r\n    }\r\n\r\n    /*\r\n     @dev\r\n */\r\n    function voteGovernanceFund(ICommunityGovernanceFund gov,uint voteId,address receiver,uint tickets) public {\r\n        _subVotes(msg.sender,voteId,tickets);\r\n        gov.voteToParliament(voteId,receiver,tickets);\r\n    }\r\n\r\n\r\n}\r\n",
  "sourcePath": "D://rainbow/RainbowDao-protocol/contracts/gov/Vote.sol",
  "compiler": {
    "name": "solc",
    "version": "0.8.0+commit.c7dfd78e.Emscripten.clang"
  },
  "schemaVersion": "3.4.1",
  "updatedAt": "2021-10-08T01:43:37.416Z",
  "devdoc": {
    "kind": "dev",
    "methods": {
      "Rbt()": {
        "returns": {
          "_0": "IFei implementation address"
        }
      },
      "core()": {
        "returns": {
          "_0": "ICore implementation address"
        }
      }
    },
    "version": 1
  },
  "userdoc": {
    "kind": "user",
    "methods": {
      "Rbt()": {
        "notice": "address of the Fei contract referenced by Core"
      },
      "core()": {
        "notice": "address of the Core contract referenced"
      }
    },
    "version": 1
  }
}